:1000000017C300000C94B03F0C94E13F0C941240D5
:100010000C9443400C9474400C94A5400C94D6402E
:100020000C9407410C94863D0C94863D0C94863DBF
:1000300030C300000C9410282CC300002AC3000019
:1000400028C300000C94A53724C3000022C300007D
:1000500020C300001EC300001CC300000C943841E4
:1000600018C300000C94CF450C94054612C3000041
:1000700010C300000EC300000CC300000AC3000040
:100080000C94D23706C3000004C3000002C3000072
:1000900000C30000FEC20000FCC200000C94673BDD
:1000A000F8C20000F6C200000C94FF37F2C2000054
:1000B000F0C20000EEC20000ECC200000C942C382C
:1000C000E8C20000E6C20000E4C200000C947A46D8
:1000D0000C94B046DEC20000DCC20000DAC20000B0
:1000E000D8C200001B16F4132B144C144C148814A3
:1000F0000B164C14D116D116D116D116D116D11615
:10010000D116F114A8140915D116D116D1163E1521
:10011000D116A115BF15E5157A156914D116D1169A
:1001200029163116D116D116D1163F165416D116EE
:10013000D116D116D116D116D116D116D116D11687
:10014000D116D116D116D1168316D116D116D116C5
:10015000D116D116D116D116D116D116AF168C16CE
:100160008A3F543F5C3F683F753F963FA33F8D42B7
:1001700092429742A142AB422443B542BD42C5429E
:10018000CF42D942E342F242FC42244306431043A9
:100190001A434643494338433C43424380434D431B
:1001A000514357435B435F43654369436D4380431A
:1001B000734377437B43084AD73B3BCE016E84BCF5
:1001C000BFFDC12F3D6C74319ABD56833DDA3D00B1
:1001D000C77F11BED9E4BB4C3E916BAAAABE0000FA
:1001E00000803F08000000BE922449123EABAAAA3C
:1001F0002ABECDCCCC4C3E00000080BEABAAAAAA41
:100200003E00000000BF000000803F000000000032
:10021000084178D3BB4387D1133D190E3CC3BD427F
:1002200082AD2B3E68EC8276BED98FE1A93E4C8030
:10023000EFFFBE01C4FF7F3F0000000000076342E4
:1002400036B79BD8A71A39685618AEBAAB558C1D6D
:100250003CB7CC5763BD6DEDFD753EF6177231BFEF
:10026000000000803F003F065B4F666D7D077F6F9B
:10027000777C395E7971BF86DBCFE6EDFD87FFEFD6
:10028000F7FCB9DEF9F100407C447C007C005C5452
:100290007454547C70107C74545C7C545C40407C7E
:1002A0007C547C74547C000400202020000000203A
:1002B00000000000000030007C82827C003100429F
:1002C000FE0200003200468A92620033004492929D
:1002D0006C0034001C64FE04003500F292928C0025
:1002E00036007C92924C003700C08E90E0003800BF
:1002F0006C92926C0039006492927C006100042A36
:100300002A1E006200FE12120C0063000C12121270
:100310000064000C1212FE0065001C2A2A180066F8
:1003200000103E50500067000815151E006800FEC2
:10033000101E00006900002E0000006A0002012E5D
:1003400000006B00FE081412006C0000FE020000AA
:100350006D001E100E100E6E001E10100E006F00AD
:100360000C12120C0070001F12120C0071000C1203
:10037000121F0072001E08101000730012292512AF
:10038000007400103E12000075001C02021E007670
:100390001804020418007718061C061800780012CA
:1003A0000C0C120079001805051E007A0012161AAE
:1003B000120041007E88887E004200FE92926C000E
:1003C00043007C828244004400FE82827C0045001F
:1003D000FE929282004600FE9090800047007C8250
:1003E000925C004800FE1010FE00490082FE820070
:1003F000004A000C0202FC004B00FE1028C6004C14
:1004000000FE020202004D00FE403040FE4E00FEA3
:10041000403008FE4F007C8282827C5000FE90902B
:10042000600051007C828A847A5200FE98946200B7
:1004300053006492924C00540080FE80800055006E
:10044000FC0202FC005600F00C020CF05700FE0407
:100450003804FE5800C63838C60059C0201E20C0D7
:10046000005A00869AB2C2002C00010E0C00002E29
:10047000000006060000257254781E2A4E21000056
:100480007A0000003F00204A3000002D00101010BC
:1004900010002B08083E0808002F00020C30400016
:1004A0002A2214081422003A00001400000022003E
:1004B000C000C000002328FE28FE28002800007C81
:1004C000820000290000827C00003B000224000022
:1004D000007E0040804080003B0002240000003D80
:1004E0000028282828007C0000FE0000003E008232
:1004F000442810003C001028448200400000000006
:10050000000000000A0B02090C0D0E08070304018D
:1005100000000000000000000000000000000000DB
:1005200000000000000000000000000000001211A8
:1005300010000000000000000000000000000000AB
:100540000000000000000000010210202008081038
:100550002040102040800201020108040201010233
:10056000040810204080804020100804020180040C
:100570000201804020100804020108040201010267
:100580000408102040800102040810204080050566
:100590000505070508080808020202020A0A0808F9
:1005A0000404040401010101010101010303030327
:1005B00003030303040707070C0C0C0C0C0C0C0CB6
:1005C0000202020206060606060606060B0B0B0BC7
:1005D0000B0B0B0B000020002300260029002C0031
:1005E0002F00320000010000030106010901000094
:1005F0002200250028002B002E00310034000201CB
:100600000000050108010B01000021002400270063
:100610002A002D0030003300010100000401070111
:100620000A018E12EC1F863A3746E246F712EF1F98
:1006300011241FBECFEFD1E2DEBFCDBF00E00CBF63
:1006400013E0A0E0B2E0E6EAF4EA00E00BBF02C08B
:1006500007900D92A439B107D9F72CE0A4E9B3E0D3
:1006600001C01D92A532B207E1F716E0CCE2D6E058
:1006700000E006C022970109FE010BBF0E94844FD3
:10068000C232D10780E00807A9F70E9426470C94E0
:100690004252B6CCCF92DF92EF92FF920F931F930C
:1006A000E82FF92F05C0015011092109310961F125
:1006B000908196239417B9F305C0015011092109BF
:1006C000310911F1908196239413F7CFC12CD12CCD
:1006D000E12CF12C0AC08FEFC81AD80AE80AF80AF0
:1006E0000C151D052E053F0579F0808186238417A2
:1006F00091F36C2D7D2D8E2D9F2D1F910F91FF90CD
:10070000EF90DF90CF90089560E070E080E090E09F
:100710001F910F91FF90EF90DF90CF9008958AEA9C
:1007200095E00E94F51F0E94EF43892B21F48AEA8D
:1007300095E00C9412208AEA95E00C9404208FE650
:1007400095E00E94F51F0E94EF43892B21F48FE66C
:1007500095E00C9412208FE695E00C9404200C9404
:100760002E520C942652CF92DF92EF92FF920F936B
:100770001F93CF93DF931F921F92CDB7DEB76C010B
:100780008B017C0184E0E80EF11CC60169837A8349
:100790000E942652F80181938F01FFEFCF1ADF0AE2
:1007A00069817A81CE14DF0481F7CB010F900F901D
:1007B000DF91CF911F910F91FF90EF90DF90CF903D
:1007C0000895EF92FF920F931F93CF93DF931F92A1
:1007D000CDB7DEB77C01FC0100811181C8016983BE
:1007E0000E9426526981681719F0C8010E942E5292
:1007F000C7010F90DF91CF911F910F91FF90EF9064
:100800000895BF92CF92DF92EF92FF920F931F93C2
:10081000CF93DF9300D0CDB7DEB78C01B62EE62E96
:10082000F72E6C0184E0C80ED11CF70161917F01A5
:100830001A830983CE0101967B83C3DF0F5F1F4FAD
:100840007B810C151D0589F78B2D972F0F900F902D
:100850000F90DF91CF911F910F91FF90EF90DF905C
:10086000CF90BF900895CF92DF92EF92FF920F93B7
:100870001F93CF93DF931F921F92CDB7DEB76C010A
:100880008C0183E5E82EF12CF80161918F01FA8249
:10089000E982CE01019695DFFFEFEF1AFF0A87E5A7
:1008A000E816F10489F7C6010F900F90DF91CF9100
:1008B0001F910F91FF90EF90DF90CF9008956BEA1A
:1008C00080E590E04CDF6DEC81E590E048DF6BEA7D
:1008D00082E590E044DF8AE092E0C5DF6AE374E0FD
:1008E00087E590E08EDF6EE374E08BE590E089DFD2
:1008F00062E474E08FE590E084DF6AE174E083E60F
:1009000090E07FDF6EE174E087E690E07ADF62E2FC
:1009100074E08BE690E075DF6AEF73E08FE690E0BD
:1009200070DF6FEE83E790E01ADF6BEA82E890E019
:1009300016DF6091C70483E690E011DF6FEE84E874
:1009400090E00DCF6BEA80E890E009DF6DEC81E884
:1009500090E005DF6BEA82E890E001DF6091C70478
:1009600083E890E0FCDE6FEE84E890E0F8CE0F9331
:100970001F93CF93DF9380E590E0F3DE8B3A29F469
:1009800081E590E0EEDE8D3C71F099DF80E890E04B
:10099000E8DE8B3A09F0ECC081E890E0E2DE8D3CC5
:1009A00009F0E6C0E7C082E590E0DBDE8B3A09F0B3
:1009B000D8C083E790E0D5DE8F3E09F0D2C00AE0D0
:1009C00012E0C3E5D0E0CE010E942652F8018193E7
:1009D0008F012196C735D105B1F76AE374E087E549
:1009E00090E0C1DE6EE374E08BE590E0BCDE62E493
:1009F00074E08FE590E0B7DE6AE174E083E690E0B2
:100A0000B2DE6EE174E087E690E0ADDE62E274E0B3
:100A10008BE690E0A8DE6AEF73E08FE690E0A3DE5D
:100A200061E772E081EE9AE00E949D4740910A02E0
:100A300050910B0260910C0270910D0222E030E0A7
:100A400081EE9AE00E94434965EE72E081EE9AE001
:100A50000E94824740913A0450913B0460913C04CB
:100A600070913D0422E030E081EE9AE00E9443491B
:100A700065EE72E081EE9AE00E94824740913E046A
:100A800050913F04609140047091410422E030E0B5
:100A900081EE9AE00E94434965EE72E081EE9AE0B1
:100AA0000E94824740914204509143046091440463
:100AB0007091450422E030E081EE9AE00E944349C3
:100AC00065EE72E081EE9AE00E94824740911A043E
:100AD00050911B0460911C0470911D0422E030E0D1
:100AE00081EE9AE00E94434965EE72E081EE9AE061
:100AF0000E94824740911E0450911F04609120047F
:100B00007091210422E030E081EE9AE00E94434996
:100B100065EE72E081EE9AE00E94824740912204E5
:100B200050912304609124047091250422E030E068
:100B300081EE9AE00E94434965EE72E081EE9AE010
:100B40000E9482474091FA035091FB036091FC039D
:100B50007091FD0322E030E081EE9AE00E9444496A
:100B600015CF68E872E081EE9AE00E949D470ECFB3
:100B7000E9DE1BC082E890E0F4DD8B3A61F484E8A2
:100B800090E0EFDD8F3E39F483E890E00E9426523A
:100B90008093C7040AC06EEA72E081EE9AE0DF91AA
:100BA000CF911F910F910C949D4780E090E0DF91D1
:100BB000CF911F910F9108956091120270911302CD
:100BC0007195619571098AEA95E00E9426206091ED
:100BD0001202709113028FE695E00C94262060912A
:100BE0001202709113028AEA95E00E942620609119
:100BF0001202709113027195619571098FE695E06B
:100C00000C942620609112027091130277FF02C0AB
:100C10006F5F7F4F759567958AEA95E00E94262061
:100C200060911202709113027195619571098FE6BE
:100C300095E00C94262060911202709113028AEACA
:100C400095E00E942620609112027091130277FFB6
:100C500002C06F5F7F4F75956795719561957109BA
:100C60008FE695E00C942620609112027091130299
:100C70008AEA95E00E942620609112027091130288
:100C800077FF02C06F5F7F4F759567958FE695E0A0
:100C90000C94262060911202709113027195619557
:100CA00071098AEA95E00E942620609112027091F3
:100CB000130277FF02C06F5F7F4F7595679571953F
:100CC000619571098FE695E00C94262060911202DF
:100CD000709113028AEA95E00E9426206091120228
:100CE000709113028FE695E00C9426206091120219
:100CF000709113027195619571098AEA95E00E94DD
:100D0000262060911202709113027195619571090C
:100D10008FE695E00C94262060E070E08AEA95E08A
:100D20000E94262060E070E08FE695E00E94262079
:100D30001092CA041092C904089560E971E080918C
:100D40005807909159070E94D0360E94A14B70938A
:100D5000D2046093D1048AE30E944442BC018827F4
:100D600077FD8095982F0E9454498091D1049091ED
:100D7000D2049C012B5031092D313105C8F46CE2AD
:100D800071E080E090E00E945B497093D004609332
:100D9000CF046F3B710544F080916204811104C05F
:100DA00081E08093630460CF81E08093620472CF1E
:100DB0000A977CF46CE271E080E090E00E945B496D
:100DC0007093D0046093CF046F3B71050CF01ACF81
:100DD00032CF1092630410926204EECE81EE9AE05C
:100DE0000C948A47FC01E257FB4F80818093E30417
:100DF00081818093E4048091E3049091E404089558
:100E0000ADEEB4E0FC01E257FB4F80818C93818111
:100E10008093EE0482818093EF0483818093F004B9
:100E20006D917D918D919C910895E6EAF3E020E02B
:100E300030E082579B4F2617370744F4DC01A20F9E
:100E4000B31F4C9141932F5F3F4FF5CFFB01EA5504
:100E5000FC4F108286EA93E00895E6E9F3E020E093
:100E600030E082579B4F261737075CF4203131055D
:100E700041F0DC01A20FB31F4C9141932F5F3F4F14
:100E8000F2CF86E993E00895E3EDF4E020E030E06E
:100E9000419151914817590791F0452B41F4F901BF
:100EA000EE0FFF1FED52FB4F9183808308C02F5F31
:100EB0003F4F2830310561F780E090E00895C90187
:100EC0000895AF92BF92CF92DF92EF92FF920F936D
:100ED0001F93CF93DF93CDB7DEB7E6970FB6F894A5
:100EE000DEBF0FBECDBFD0909404ED2CF12C80322C
:100EF000910509F451C344F58930910509F49BC269
:100F000064F48530910509F475C08830910509F4C1
:100F100008C2039709F009C406C38B30910509F490
:100F200060C20CF442C08431910509F411C34E979C
:100F300009F0FBC361E08D2D0E948143609195040F
:100F40008D2D0E94BA43F1C38932910509F48BC2F9
:100F500054F48232910509F42BC30CF449C38897E9
:100F600009F455C0E2C38433910509F461C3B4F4B4
:100F7000C29709F0DAC30E9482410E94D24B20E05E
:100F800030E04AE754E40E94394B60938A0470933E
:100F90008B0480938C0490938D04C7C38C3391058C
:100FA00009F4EDC1CD9781F0C0C387E090E01ADF6E
:100FB0008C016D2D8AE797E00E948730B8018AE79F
:100FC00097E00E94C31FB1C3EF2809F0AEC3109190
:100FD000950488E090E006DFBC01113019F48AEA3C
:100FE00095E005C0123009F0A0C38FE695E00E949D
:100FF00026209BC386E090E0F5DEBC018AEA95E0FE
:101000000E94262088E090E0EDDEBC01EECF87E074
:1010100090E0E8DE8C0189E090E0E4DE5C0181E0B4
:10102000E816F10409F0BBC061E0CE0101960E9410
:1010300000338B819C81AD81BE818093FE059093AE
:10104000FF05A0930006B09301068F8180930206EE
:1010500088859985AA85BB858093030690930406AD
:10106000A0930506B09306068C859D85AE85BF8549
:101070008093070690930806A0930906B0930A068A
:1010800088899989AA89BB8980930B0690930C065D
:10109000A0930D06B0930E068C899D89AE89BF89F9
:1010A00080930F0690931006A0931106B09312063A
:1010B000888D998DAA8DBB8D80931306909314060D
:1010C000A0931506B09316068C8D9D8DAE8DBF8DA9
:1010D0008093170690931806A0931906B0931A06EA
:1010E00088A199A1AAA1BBA180931B0690931C067D
:1010F000A0931D06B0931E068CA19DA1AEA1BFA119
:1011000080931F0690932006A0932106B093220699
:1011100088A599A5AAA5BBA580932306909324062C
:10112000A0932506B09326068CA59DA5AEA5BFA5C8
:101130008093270690932806A0932906B0932A0649
:1011400088A999A9AAA9BBA980932B0690932C06DC
:10115000A0932D06B0932E068CA980932F068DA9FF
:1011600080933006A501662757FD6095762F8CEF9A
:1011700095E00E940235B801882777FD8095982F69
:101180000E94D44B6B017C01AB01BC018CEF95E05C
:101190000E941835B701A6018CEF95E0BFC082E030
:1011A000E816F10409F0C1C262E0CE0101960E9486
:1011B00000338B819C81AD81BE81809333069093F7
:1011C0003406A0933506B09336068F818093370698
:1011D00088859985AA85BB858093380690933906C2
:1011E000A0933A06B0933B068C859D85AE85BF855E
:1011F00080933C0690933D06A0933E06B0933F0635
:1012000088899989AA89BB89809340069093410671
:10121000A0934206B09343068C899D89AE89BF890D
:101220008093440690934506A0934606B0934706E4
:10123000888D998DAA8DBB8D809348069093490621
:10124000A0934A06B0934B068C8D9D8DAE8DBF8DBD
:1012500080934C0690934D06A0934E06B0934F0694
:1012600088A199A1AAA1BBA1809350069093510691
:10127000A0935206B09353068CA19DA1AEA1BFA12D
:101280008093540690935506A0935606B093570644
:1012900088A599A5AAA5BBA5809358069093590641
:1012A000A0935A06B0935B068CA59DA5AEA5BFA5DD
:1012B00080935C0690935D06A0935E06B0935F06F4
:1012C000C8A8D9A8EAA8FBA8C0926006D092610677
:1012D000E0926206F09263068CA9809364068DA961
:1012E00080936506A501662757FD6095762F81E3FB
:1012F00096E00E940235B801882777FD8095982FE7
:101300000E94D44B6B017C01AB01BC0181E396E0F0
:101310000E941835B701A60181E396E00E9472355C
:1013200004C240919504B090960410919704C09027
:10133000980400919904EF2831F06D2D8AE597E02B
:101340000E94B03005C06CE28AE597E00E94F83058
:10135000BB2049F06FEF6B0D2C2D412F8AE597E0F4
:101360000E94493107C0202F4C2D612F8AE597E05C
:101370000E9498318AE597E00E94C431D6C1F0906E
:10138000950481E1D812D1C1C7DC84E08F1510F13A
:1013900004E610E020E030E044EF51E06DE270E060
:1013A00088EF95E00E94421A64E670E080E090E0E9
:1013B0000E94B1416DE270E088EF95E00E94A91AA9
:1013C00064E670E080E090E00E94B141F092C704D2
:1013D0006F2D03C01092C70460E083E890E0BFD98E
:1013E000A4C120919504C701880F991FFC01EE5AF2
:1013F000FD4F213011F4008101C0018110E0D09037
:101400009604C80141DDFC01EE0FFF1FE80FF91F34
:10141000E058F84F20813181428129833A834B8300
:1014200084EB8D1508F481C1B801CE0101960E94AC
:1014300024396D2DF7C08EE497E00E943330282FB9
:1014400030E02E153F0529F06D2D8EE497E00E94C7
:10145000AC1987E090E0D4DCAB01BC018EE497E0EE
:101460000E94CD1962C189E197E00E943330282F94
:1014700030E02E153F0529F06D2D89E197E00E949F
:1014800093298091950490E081309105B1F4009109
:101490009604112707FD10954091970460919804D8
:1014A00070E08BE090E04EABC0DC9C014EA9B8012F
:1014B00089E197E00E94AF2B38C18230910599F401
:1014C000F09096044091970460E170E08AE090E02B
:1014D0004EABC3DC8C0120E14EA96F2D89E197E072
:1014E0000E94BA2922C18330910579F421E08091CC
:1014F0009604811101C020E0409198046091970406
:1015000089E197E00E94E92B10C1049709F00DC111
:1015100088E090E075DCAB01BC0123E089E197E055
:101520000E94B92C02C18AE497E00E943330282F30
:1015300030E02E153F0529F06D2D8AE497E00E94DA
:10154000873061E080919504811118C060E016C079
:101550008AE497E00E943330282F30E02E153F05B3
:1015600029F06D2D8AE497E00E9487306091950400
:10157000862F90E08230910534F461708AE497E020
:101580000E945B30D2C061E0029709F460E08AE417
:1015900097E00E946B30C9C061E08D2D0E948143AD
:1015A00020919504622F70E08D2D0E946942BDC08C
:1015B00061E08D2D0E94814387E090E013DC6C0197
:1015C00089E090E00FDC1816190664F48C012227DC
:1015D00017FD2095322FA601B70188EF95E00E94F4
:1015E000421AA3C0B70188EF95E00E94A91A9DC0D6
:1015F00010919504153B08F098C0C70145DCFC012B
:10160000EE0FFF1FE80FF91FE058F84F808191811E
:10161000A28189839A83AB83B701CE0101960E9490
:101620002439612F70E0CE0101960E945C397DC0A3
:10163000EF2809F07AC087E090E0D4DB5C0189E014
:1016400090E0D0DB8C01BC01882777FD8095982F36
:101650000E94D44B2DEC3CEC4CE45EE30E944C4DDC
:101660006B017C0160932604709327048093280407
:1016700090932904B501882777FD8095982F0E94C3
:10168000D44B90582AE939E949E95EE30E944C4D70
:1016900060930604709307048093080490930904F0
:1016A000C701B6010E94A14B9B0177FF04C022270E
:1016B0003327261B370B81E08093600422303105ED
:1016C00014F4012B49F16FEC72E081EE9AE00E9474
:1016D000824740910604509107046091080470917C
:1016E000090422E030E081EE9AE00E94434968ED6F
:1016F00072E081EE9AE00E94824740912604509168
:101700002704609128047091290422E030E081EEE2
:101710009AE00E94444909C010922E0410922F04AE
:101720001092300410923104CECFE6960FB6F894A2
:10173000DEBF0FBECDBFDF91CF911F910F91FF9004
:10174000EF90DF90CF90BF90AF900895BC018827B5
:1017500077FD8095982F0E94D44B9B01AC0160E0EF
:1017600070EC8FE794E40E94394B20E030E040E8D1
:101770005FE30E946E4A9B01AC0160E070E48CE183
:1017800096E40E94394B20E030E44CE156E40E949C
:10179000394B0E940C4D20E030E443E555E40E94B3
:1017A000394B2FE03FEC4BE55BE30E946F4A9B0116
:1017B000AC0160E070E080E89FE30E94394B23E3D6
:1017C00033E948E853E40C946E4A08958AE30E9492
:1017D00044429093CE048093CD04BC01882777FDCA
:1017E0008095982F0E94D44B20E030E040E85AE3E7
:1017F0000E944C4D20E030E040E751E40C944C4D09
:1018000008954F925F926F927F928F929F92AF92C4
:10181000BF92CF92DF92EF92FF9281E996E00E9411
:10182000F9204B015C01B7FAB094B7F8B0948092FC
:10183000820490928304A0928404B0928504209143
:101840004604309147044091480450914904C50131
:10185000B4010E946E4A6B017C0140904E0450908E
:101860004F0460905004709051040E94A14B672B6C
:1018700079F0A7019601C301B2010E946F4A6093FB
:101880004E0470934F04809350049093510408C009
:1018900010924E0410924F04109250041092510472
:1018A00040907204509073046090740470907504BA
:1018B0004092520450925304609254047092550422
:1018C00080927E0490927F04A0928004B092810462
:1018D00020913A0430913B0440913C0450913D04E6
:1018E000C701B6010E944C4D6B017C0120914E0452
:1018F00030914F04409150045091510460913E0446
:1019000070913F0480914004909141040E944C4D9D
:101910009B01AC01C701B6010E946F4A6B017C01BB
:101920002091420430914304409144045091450475
:10193000C301B2010E944C4D9B01AC01C701B6012D
:101940000E946F4A6B017C0120E030E0A9010E94F7
:10195000FC4C20E030E040E850E418162CF4C701BD
:10196000B6010E946F4A04C0C701B6010E946E4AC8
:1019700060934A0470934B0480934C0490934D04FD
:1019800040904A0450904B0460904C0470904D0479
:10199000C0900A04D0900B04E0900C04F0900D0469
:1019A000A7019601C301B2010E946E4A4B015C017E
:1019B000C301B2019058A70196010E946E4A6B01C3
:1019C0007C0120E030E04FE753ECC501B4010E94F8
:1019D000354B87FD11C020E030E04FE753E4C501EF
:1019E000B4010E94FC4C18166CF4812C912C8FE7EA
:1019F000A82E83E4B82E06C0812C912CBFE7AB2E15
:101A0000B3ECBB2E20E030E04FE753ECC701B6014A
:101A10000E94354B87FD11C020E030E04FE753E4D2
:101A2000C701B6010E94FC4C18166CF4C12CD12CD5
:101A3000AFE7EA2EA3E4FA2E06C0C12CD12CFFE7B3
:101A4000EF2EF3ECFF2EC501B4010E94A14B8AEAF0
:101A500095E00E942620C701B6010E94A14B8FE6A7
:101A600095E0FF90EF90DF90CF90BF90AF909F9068
:101A70008F907F906F905F904F900C9426204F92A4
:101A80005F926F927F928F929F92AF92BF92CF920E
:101A9000DF92EF92FF920F931F93CF93DF938FE626
:101AA00095E00E9420206B017C018AEA95E00E946B
:101AB00020209B01AC01C701B6010E946E4A20E0C4
:101AC00030E040E05FE30E944C4D4B015C01C09070
:101AD0002604D0902704E0902804F09029042DECEF
:101AE0003CEC4CE45FE36091760470917704809164
:101AF0007804909179040E944C4D2B013C012DEC0F
:101B00003CEC4CE45EE3C701B6010E944C4D9B01E6
:101B1000AC01C301B2010E946F4A609376047093D6
:101B200077048093780490937904809160048823EB
:101B300021F1C501B4010E94A14B695F7F4F6F3055
:101B40007105D8F420E030E0A901C701B6010E9478
:101B5000354B811112C010926004109276041092DD
:101B60007704109278041092790410922E04109247
:101B70002F04109230041092310420917604309199
:101B800077044091780450917904C501B4010E9412
:101B90006E4A6B017C0120912E0430912F044091FC
:101BA0003004509131040E946F4A8B01D82FC92F05
:101BB00080916004882309F487C020E030E046E18A
:101BC00054ECB8018D2F9C2F0E94354B87FD10C01F
:101BD00020E030E046E154E4B8018D2F9C2F0E94B4
:101BE000FC4C18164CF400E010E0D6E1C4E404C04C
:101BF00000E010E0D6E1C4ECB8018D2F9C2F0E94CC
:101C0000A14B9B0177FF04C022273327261B370BEC
:101C10002835324061F0C801AD2FBC2F80932E04CF
:101C200090932F04A0933004B093310408C0109215
:101C30002E0410922F04109230041092310420913F
:101C40001A0430911B0440911C0450911D04C701DB
:101C5000B6010E944C4D6B017C0120912E04309105
:101C60002F04409130045091310460911E04709112
:101C70001F0480912004909121040E944C4D9B01EF
:101C8000AC01C701B6010E946F4A8B01D82FC92F42
:101C900020E030E040E251EC0E94354B87FD10C05F
:101CA00020E030E040E251E4B8018D2F9C2F0E94EB
:101CB000FC4C18160CF072C000E010E0D0E268C0D6
:101CC00000E010E0D0E269C020E030E046E954ECEA
:101CD000B8018D2F9C2F0E94354B87FD10C020E04E
:101CE00030E046E954E4B8018D2F9C2F0E94FC4C53
:101CF00018164CF400E010E0D6E9C4E404C000E09B
:101D000010E0D6E9C4ECC801AD2FBC2F80932E049F
:101D100090932F04A0933004B093310420911A04BF
:101D200030911B0440911C0450911D04C501B40165
:101D30000E944C4D4B015C0120911E0430911F0408
:101D40004091200450912104B8018D2F9C2F0E94B6
:101D50004C4D9B01AC01C501B4010E946F4A8B013F
:101D6000D82FC92F20E030E040EA51EC0E94354BDB
:101D700087FD10C020E030E040EA51E4B8018D2F2B
:101D80009C2F0E94FC4C18164CF400E010E0D0EAA6
:101D9000C1E404C000E010E0D0EAC1ECA8016D2F5E
:101DA0007C2F40932A0450932B0460932C0470934F
:101DB0002D0420912A0430912B0440912C04509141
:101DC0002D0460910A0270910B0280910C02909197
:101DD0000D020E946E4A60934604709347048093FC
:101DE000480490934904DF91CF911F910F91FF9088
:101DF000EF90DF90CF90BF90AF909F908F907F90AB
:101E00006F905F904F90089580916104811111C08F
:101E100081E996E00E94F9200E94A14B9B0177FF87
:101E200004C022273327261B370B253031050CF43D
:101E300077C080916104882309F47CC081E996E031
:101E40000E94F9200E94A14B9B0177FF04C022272A
:101E50003327261B370B213231050CF46BC010924F
:101E600095031092940360E070E08AEA95E00E9486
:101E7000262060E070E08FE695E00E942620109218
:101E80002E0410922F04109230041092310480918D
:101E90000A0290910B02A0910C02B0910D02809366
:101EA000460490934704A0934804B09349041092C9
:101EB00026041092270410922804109229041092EC
:101EC000060410920704109208041092090440E0DE
:101ED00050E0BA018AEA95E00E94FE1F40E050E01F
:101EE000BA018FE695E00E94FE1F10922E04109218
:101EF0002F04109230041092310410926104109259
:101F0000760410927704109278041092790410925B
:101F10007A0410927B0410927C0410927D04089540
:101F200080919403909195030196909395038093EB
:101F300094037FCF809194039091950345970CF47F
:101F40004CC0109295031092940310922E0410929C
:101F50002F04109230041092310460E070E08AEA9D
:101F600095E00E94262060E070E08FE695E00E94F8
:101F7000262080910A0290910B02A0910C02B09150
:101F80000D028093460490934704A0934804B093B5
:101F9000490440E050E0BA018AEA95E00E94FE1F41
:101FA00040E050E0BA018FE695E00E94FE1F0E94DB
:101FB000824160936A0470936B0480936C049093E5
:101FC0006D04609366047093670480936804909333
:101FD000690481E08093610408950895CF92DF92AF
:101FE000EF92FF9211DF80916104882309F472C09F
:101FF0000E948241C0906A04D0906B04E0906C040F
:10200000F0906D046C197D098E099F096B30710584
:102010008105910558F0F5DB0E94824160936A04C6
:1020200070936B0480936C0490936D040E948241C2
:10203000C0906604D0906704E0906804F090690452
:102040006C197D098E099F09653671058105910519
:1020500008F450C014DD2DEC3CEC4CE45FE36091DF
:102060007A0470917B0480917C0490917D040E949D
:102070004C4D6B017C012DEC3CEC4CE45EE360913B
:1020800006047091070480910804909109040E944D
:102090004C4D9B01AC01C701B6010E946F4A609391
:1020A0007A0470937B0480937C0490937D04609306
:1020B0000A0470930B0480930C0490930D040E9407
:1020C00082416093660470936704809368049093E0
:1020D000690410C060E070E08AEA95E00E94262062
:1020E00060E070E08FE695E0FF90EF90DF90CF909A
:1020F0000C942620FF90EF90DF90CF900895809170
:102100001707909118070E94EC278091170790916C
:1021100018070E94E7278093C404843409F485C01B
:102120009091C704933009F09DC0893109F445C0EE
:1021300008F5893009F443C078F4873009F441C0C8
:10214000883009F08DC080910E0290910F02880FA7
:10215000991F880F991F5EC0863109F481C08831AC
:1021600009F452C08C3009F07BC080910E0290912E
:102170000F0250C08A3439F168F48034E1F08234BF
:1021800041F18C3109F06CC020910E0230910F02A8
:1021900045E02AC08A3519F18E3561F1823509F0A2
:1021A0005FC080910E0290910F0263E0880F991F2B
:1021B0006A95E1F72FC00C94DC050C94EF050C94A4
:1021C0004A060C94340620910E0230910F0249E029
:1021D0000BC020910E0230910F0247E005C0209104
:1021E0000E0230910F0246E0429FC001439F900DC6
:1021F000112410C020910E0230910F02C901880FE6
:10220000991F820F931F06C080910E0290910F02BA
:10221000880F991F2091100230911102820F931F95
:10222000909313028093120208950E948C0680916D
:102230001707909118070E94CC27882339F08091C6
:102240001707909118070E94EC27F1CF8091C704DF
:102250008F5F8093C704853029F41092C7040895D6
:102260000C948C060895CF9389E695E00E94CA2EBF
:10227000C82F26E930E0309313022093120266EF54
:1022800072E081EE9AE00E9482474AE050E06C2FB3
:1022900081EE9AE00E945748C13059F028F0C230D0
:1022A00099F0C33001F138C00E94DC058AE090E06B
:1022B00015C00E94DC058091CB049091CC04823043
:1022C000910554F101970AC00E94DC058091CB046E
:1022D0009091CC0484319105FCF401969093CC0448
:1022E0008093CB0419C08091CB049091CC040A97C1
:1022F00011F40E94EF058091CB049091CC040A97D1
:1023000014F40E9476068091CB049091CC040B9734
:102310001CF0CF910C946606CF9108950F931F93F4
:1023200065E070E080E090E00E94B1418AEA95E0CB
:102330000E94F21F43E050E06FE873E00E943F3FCD
:102340008FE695E00E94F21F43E050E06FE973E0F2
:102350000E943F3F1092E6031092E7031092E803B9
:102360001092E9031092C6031092C7031092C8039B
:102370001092C9036CE28AE597E00E94F83061E0B0
:1023800070E080E090E00E94B14120E040E060E039
:102390008AE597E00E9498318AE597E00E94C4316F
:1023A00084ED96E00E94492681E996E00E94492644
:1023B00064E670E080E090E00E94B14126E040E0F9
:1023C00052EC61E070E081EE9AE00E94514564EFCA
:1023D00071E080E090E00E94B14104E610E020E06E
:1023E00030E044EF51E06DE270E088EF95E00E944C
:1023F000421A64E670E080E090E00E94B1416DE234
:1024000070E088EF95E00E94A91A64EF71E080E027
:1024100090E00E94B141109263041092620480E047
:102420000E944442BC01882777FD8095982F0E9426
:10243000544980910A0290910B02A0910C02B09134
:102440000D028093460490934704A0934804B093F0
:10245000490480E090E0A0E2B1E480933A049093D4
:102460003B04A0933C04B0933D0410923E041092B0
:102470003F0410924004109241048DEC9CECACECB3
:10248000BEEB8093420490934304A0934404B09322
:1024900045048AE999E9A9E9BEEB80931A0490936F
:1024A0001B04A0931C04B0931D048FE692E1A3E0EB
:1024B000BDEB80931E0490931F04A0932004B0935F
:1024C00021040E94B7041092C7046BEF72E081EE02
:1024D0009AE00E9482476AE574E081EE9AE00E94E9
:1024E0008D470E94824160936A0470936B048093CD
:1024F0006C0490936D0460936604709367048093FA
:1025000068049093690460936E0470936F048093E1
:102510007004909371041F910F910895CF93DF93EE
:10252000C0E8D7E0CE010E945938239687E0C83929
:10253000D807C1F78AE797E00E94B31F87E697E0C4
:102540000E940D368AE597E00E9440318EE497E0C4
:102550007AD58AE497E00E941A3089E197E00E94D8
:10256000402948E660E084ED96E00E94DE2049E6DE
:1025700061E081E996E00E94DE208AE696E0F4D7E9
:1025800086E696E00E94C9288CEF95E00E94F3321F
:1025900081E396E00E94F33288EF95E06DD781EFFA
:1025A00095E00E94C5268BEE95E00E94B42085EE52
:1025B00095E00E94C92061E08AEA95E00E944D20E2
:1025C00062E08FE695E00E944D206AE089E695E0A2
:1025D0000E94C92E69E081EF94E00E94E33165E03A
:1025E00073E08AE594E0DF91CF910C94294A8AE563
:1025F00094E00E94C24981E493E09093F2048093B6
:10260000F1048FE595E00E94C24981EF94E00E94B9
:10261000043E8AE597E00C94D731682F81EE9AE06A
:102620000C94ED448FEFF9DF85E5F7CF8FEFF5DF01
:1026300085E5F3DF0C94EE06CF93C82F81E0EDDF44
:102640008C2FCF91EACFEF92FF920F931F93CF93EE
:10265000DF937C01FC01C4810C2F158184E0DDDF58
:102660008C2FDBDFC0E0D0E0C017D1073CF4BE0107
:10267000C7010E946C4AD1DF2196F6CFDF91CF913E
:102680001F910F91FF90EF900895FF920F931F936A
:10269000CF93DF931F92CDB7DEB78B01F82E82E088
:1026A0009983BBDFA8016F2D9981792F4093ED04A9
:1026B0005093EE046093EF047093F004802FADDF2D
:1026C0008091EE04AADF8091EF04A7DF8091F004EF
:1026D0000F90DF91CF911F910F91FF909ECF1F938D
:1026E000CF93DF9300D0CDB7DEB7182F86E0698394
:1026F0007A839B8392DF69816093ED047A81709382
:10270000EE041093EF049B819093F004862F85DFF5
:102710008091EE0482DF8091EF047FDF8091F004EE
:102720000F900F900F90DF91CF911F9176CF1F9355
:10273000CF93DF931F92CDB7DEB7182F83E0998335
:102740006CDF1093E30499819093E404812F65DF9B
:102750008091E4040F90DF91CF911F915ECFFF92A3
:102760000F931F93CF93DF931F92CDB7DEB78B01EB
:10277000F82E85E0998351DFA8016F2D9981792F7B
:102780004093E5045093E6046093E7047093E804F3
:10279000802F43DF8091E60440DF8091E7043DDF36
:1027A0008091E8040F90DF91CF911F910F91FF90DE
:1027B00034CFCF92DF92EF92FF920F931F93CF937C
:1027C000DF93CDB7DEB727970FB6F894DEBF0FBE05
:1027D000CDBF109194048E33910508F0E2C2FC0144
:1027E000EE58FF4F0C94654F809158079091590710
:1027F000009781F00E94333090E0212F332727FD8E
:1028000030958217930791F080915807909159075E
:102810000E94344785E090E00E9432477C01612F9E
:102820000E948D36F0925907E092580760E573ECEC
:1028300080915807909159070E94D0366B017C0116
:1028400084E690E00E94D741EDDE8091C804E5DE89
:10285000C701B601A5C20091950487E697E00E94E2
:10286000333090E0212F332727FD309582179307CF
:1028700009F07AC287E697E00E94363090E0202F78
:10288000332727FD30958217930709F06DC287E63D
:1028900097E00E94273684C28AE497E00E94333092
:1028A00090E0212F332727FD30958217930761F0A1
:1028B000612F8AE497E00E9487308AE497E00E94C3
:1028C000AD3060E00E9481438AE497E00E947F304F
:1028D00037C08AE497E00E94333090E0212F3327FD
:1028E00027FD30958217930761F0612F8AE497E006
:1028F0000E9487308AE497E00E94AD3060E00E9439
:1029000081438AE497E00E947F300E94A60B48C270
:102910000091950486E696E00E94333090E0212FE6
:10292000332727FD30958217930729F0612F86E61C
:1029300096E00E948730602F86E696E00E94CB28C2
:10294000BC01882777FD8095982F0E94D44B28C220
:102950008091170790911807009711F14F960E94E8
:10296000333090E0212F332727FD309582179307CE
:1029700031F1E0901707F0901807E114F10481F0AD
:1029800081E493E0F70191838083C70182599F4FCF
:102990000E94C249C7010E94043EC7010E943447F9
:1029A0008BE790E00E9432477C01612F0E94A827AC
:1029B000F0921807E0921707C7010E94BD27809187
:1029C0001707909118070E94E727682F8093C40487
:1029D0008FEF860F8E3F08F487C060E070E0CB0178
:1029E000DFC18AE497E00E94333090E0212F332743
:1029F00027FD30958217930709F470C0612F8AE490
:102A000097E00E9487308AE497E00E94AD3060E052
:102A100063C08AE497E00E94333090E0212F33278F
:102A200027FD30958217930799F0612F8AE497E08C
:102A30000E9487308AE497E00E94AA3060E00E94FA
:102A400081438AE497E00E94AD3060E00E948143B8
:102A500060E08AE497E00E943930182F60E08AE451
:102A600097E00E944A30612F70E0660F771F680F71
:102A7000711D882777FD8095982F67CF0091950469
:102A80008AE497E00E94333090E0212F332727FD1E
:102A900030958217930709F06EC18AE497E00E948F
:102AA000363090E0202F332727FD3095821793078B
:102AB00009F061C18AE497E0013059F40E94AA301C
:102AC00062E00E94814360E08AE497E00E9439302E
:102AD0000AC00E94AD3062E00E94814360E08AE457
:102AE00097E00E944A30682F70E080E090E00E94FA
:102AF000D24B56C18AE696E00E94333090E0212FF7
:102B0000332727FD309582179307A9F0612F8AE6B6
:102B100096E00E9487308AE696E00E94AD30482F0A
:102B20008AE696E04F830E94AA304F81682F8AE69A
:102B300096E00E949B1E8AE696E00E94A31E0FDE8E
:102B400030C10091950481EF95E00E94333090E010
:102B5000212F332727FD30958217930729F0612F06
:102B600081EF95E00E94873081EF95E00E94C826B2
:102B7000602F81EF95E00E94A1275EDD12C18BEEF0
:102B800095E00E94333090E0212F332727FD3095C8
:102B900082179307A9F0612F8BEE95E00E94873092
:102BA0008BEE95E00E94AA30482F8BEE95E04F8384
:102BB0000E94AD304F81682F8BEE95E00E94B720C8
:102BC0008BEE95E00E94C7206DC085EE95E00E94D7
:102BD000333090E0212F332727FD3095821793075C
:102BE000A9F0612F85EE95E00E94873085EE95E093
:102BF0000E94AA30482F85EE95E04F830E94AD30A9
:102C00004F81682F85EE95E00E94CC2085EE95E0FF
:102C10000E94DC2047C0609195041111B3C084ED7F
:102C200096E06F830E94F4206F81883609F0B9C066
:102C300084ED96E0B3C06AE574E0CE0101960E948F
:102C4000534ACE010196FFDCCE0101960E94C24993
:102C5000A8C060E0812F0E948143812F0E94EF4332
:102C60006FCEE12FEE0FFF0BEC5EFD4F108160E0A9
:102C7000812F0E948143812F0E94444261CE87E0D0
:102C800090E00E94F2067C0160E0812F0E94814367
:102C90009701442737FD4095542F61E0812F0E9412
:102CA0001744CB0144DD7DC00091950461E0812F84
:102CB0000E94814360E0812F0E94BA4382E090E04D
:102CC0000E94D74161E0812F0E94BA438AE090E0E0
:102CD0000E94D74160E0812F0E94BA4360E0802FBC
:102CE0000E94814320E335E740E050E061E0802F1F
:102CF0000E9417440E94D24B20E030E048E652E4A4
:102D00000E94394B4DC06091860470918704809178
:102D100088049091890444C0111143C09091950496
:102D200080919604913051F4813019F48AEA95E04B
:102D30000BC08230B1F58AEA95E00EC0923089F579
:102D4000813031F48FE695E00E94F81FC8DC29C07D
:102D5000823039F58FE695E00E94202021C010379F
:102D600001F50E94E60B1CC0402F612F87E697E01B
:102D70000E9416368CCD402F612F8AE497E00E9486
:102D8000973098CE113069F481E996E06F830E9404
:102D9000F4206F81893629F481E996E00E940521AB
:102DA00074DC27960FB6F894DEBF0FBECDBFDF915F
:102DB000CF911F910F91FF90EF90DF90CF900895EA
:102DC0000F931F93CF93DF931F92CDB7DEB710926F
:102DD000650480919104909192040091930410E015
:102DE0008093C8049230D1F018F4913039F076C055
:102DF0009430C1F0953009F46BC070C001301105FA
:102E000021F089830FDC898108DCC801D2DC0F90B6
:102E1000DF91CF911F910F910C94EE06C8010E9493
:102E2000610756C060E070E08AEA95E00E942620C3
:102E300060E070E08FE695E00E94262040E050E0E0
:102E4000BA018AEA95E00E94FE1F40E050E0BA0114
:102E50008FE695E00E94FE1F1092E6031092E703B2
:102E60001092E8031092E9031092C6031092C70370
:102E70001092C8031092C90369E08AE797E00E94A4
:102E8000873060E070E08AE797E00E94C31F6AE045
:102E90008AE797E00E94873060E070E08AE797E079
:102EA0000E94C31F61E08AE797E00E94873060E0DC
:102EB00070E08AE797E00E94C31F62E08AE797E02C
:102EC0000E94873060E070E08AE797E00E94C31FAD
:102ED0000F90DF91CF911F910F91A8CB0F90DF91B1
:102EE000CF911F910F9108951092640481EE9AE0A2
:102EF0000E944344181619064CF481E08093640440
:102F000081EE9AE00E945C448093C20408950E947E
:102F100082410E94D24B20E030E04AE754E40E9414
:102F2000394B20918A0430918B0440918C0450914C
:102F30008D040E946E4A6093860470938704809388
:102F40008804909389048091170790911807892B22
:102F500009F0D5D88CEF95E00E94EC3581E396E03E
:102F60000E94EC350E94E60BBFDF80916404882349
:102F700009F445C08091C20490916504853561F4DF
:102F800091110AC08091C3048F3FE1F481E08093E6
:102F9000C6048093650416C08093C304992391F0FE
:102FA000E091C604E23019F48093C50407C0E33011
:102FB00028F09091C50491509093C504F0E0E25739
:102FC000FB4F80838091C6048F5F843318F4809315
:102FD000C60404C01092C604109265048091650472
:102FE000882369F08091C504811109C08091C604CD
:102FF000843028F010926504E3DE1092C60481E963
:1030000096E00E94742384ED96E00E94742181E989
:1030100096E00E94FF206093720470937304809383
:103020007404909375048091C704882359F081300B
:1030300011F40C949D06823011F40C94EE0F843040
:1030400009F411C908950C941A300F931F93CF936C
:10305000DF93EC01062F18E060E088850E94BA43F8
:1030600000FF02C061E001C060E089850E94BA43B0
:10307000069561E088850E94BA43115069F760E0C7
:1030800088850E94BA4361E089850E94BA4361E065
:1030900088850E94BA4360E089850E94814318ECCC
:1030A00089850E94EF43892B59F01150C9F761E0DF
:1030B00089850E94814360E089850E94BA43EFCFF1
:1030C00061E08985DF91CF911F910F910C9481432D
:1030D000CF93DF93EC0161E088850E94BA4361E001
:1030E00089850E94BA4360E089850E94BA4360E006
:1030F0008885DF91CF910C94BA43CF93DF93EC0195
:1031000060E088850E94BA4360E089850E94BA43E6
:1031100061E088850E94BA4361E08985DF91CF91A3
:103120000C94BA43CF92DF92FF920F931F93CF93E9
:10313000DF931F92CDB7DEB76C01F62E7983C8DF1F
:1031400060E4C60182DFC601D8DFC601C1DFF60137
:103150006581C6017ADF0F2D7981172F84E0F82E63
:10316000F80161918F01C60170DFFA94C9F7C601B9
:10317000C4DFC601ADDFF6016681C60166DFC601A8
:103180000F90DF91CF911F910F91FF90DF90CF9023
:10319000B4CF4F925F926F927F928F929F92AF9235
:1031A000BF92CF92DF92EF92FF920F931F93CF9334
:1031B000DF9300D01F92CDB7DEB76A017B01890192
:1031C00037FD48C0B9016F5F7F4F882777FD809535
:1031D000982F0E94D44B9B01AC0160E070E080E22C
:1031E00091E40E94AF4D4B015C019B01AC01C70112
:1031F000B6010E94394B0E940F4C2B013C01B801D3
:10320000882777FD8095982F0E94D44B9B01AC01B5
:1032100060E070E080E291E40E94AF4D69837A83C0
:103220008B839C83A5019401C301B2010E944C4D84
:103230009B01AC01C701B6010E946E4A29813A8107
:103240004B815C810E94394B0E940F4C0E94A14B24
:10325000CB011FC088249924821A930AA12CB12C77
:1032600020E030E040E251E4C701B6010E944C4D3D
:103270006B017C018FEFA81AB80AA814B90484F373
:10328000C701B6010E94A14BCB016AE070E00E9429
:10329000144F0F900F900F900F90DF91CF911F91CF
:1032A0000F91FF90EF90DF90CF90BF90AF909F90E5
:1032B0008F907F906F905F904F900895DB0180E03A
:1032C00090E22C91223208F09C93EC91F0E0EA59C4
:1032D000FD4FE491ED938F5F843099F70895EF925D
:1032E000FF920F931F93CF93DF9300D01F92CDB720
:1032F000DEB78C01DB01FE013196CE0105967F0120
:103300002D912193E817F907D9F7B701C801D6DF46
:10331000B701C80107DF0F900F900F900F90DF915A
:10332000CF911F910F91FF90EF900895CF93DF936E
:1033300000D01F92CDB7DEB720E229832A832B83EA
:103340002C83BE016F5F7F4FCADF0F900F900F90ED
:103350000F90DF91CF910895CF93DF93EC016A83B3
:10336000E62FF0E0EE0FFF1FEE5AFD4F81818983BB
:10337000908198838887998761E00E94814361E00A
:1033800089850E94814380E48C8380EC8D838AE868
:103390008E83CE01DF91CF91C9CF8F929F92AF9252
:1033A000BF92CF92DF92EF92FF920F931F93CF9332
:1033B000DF9300D01F92CDB7DEB75C016A017B01BD
:1033C00019821A821B821C8220E030E0A901C70109
:1033D000B6010E94354B87FF09C0F7FAF094F7F861
:1033E000F09481E289839924939401C0912C03E0A5
:1033F00010E0812C9801B701A601C501CADE18169C
:1034000019062CF0002319F08820B9F00CC0011126
:103410000AC0E1E0F0E0EC0FFD1FE90DF11D20E135
:10342000280F208307C0E1E0F0E0EC0FFD1FE90D5D
:10343000F11D808393948824839483E0891530F070
:10344000015011090C3F8FEF1807A1F6BE016F5F05
:103450007F4FC50144DF0F900F900F900F90DF91C9
:10346000CF911F910F91FF90EF90DF90CF90BF9081
:10347000AF909F908F9008950E941A3088E08093BB
:10348000980708954F925F926F927F928F929F92CA
:10349000AF92BF92CF92DF92EF92FF920F931F9362
:1034A000CF93DF93762E68017901609398079A0194
:1034B00040E050E060E472E48FE090E00E94494F09
:1034C000E901590137FF03C08FEFA81AB80A850137
:1034D0001595079561E0872D0E948143A8EEB3E022
:1034E000A70196010E947A4F2B013C01C12CD12CDF
:1034F00076014E01AA2497FCA094BA2CC414D504DA
:10350000E604F704A8F461E0809198070E94BA43AA
:10351000C8010E94D74160E0809198070E94BA4399
:10352000C8010E94D741C80CD91CEA1CFB1CE6CF7D
:10353000DF91CF911F910F91FF90EF90DF90CF908F
:10354000BF90AF909F908F907F906F905F904F90C3
:103550000895862F6093980761E00E94814360E0A0
:10356000809198070C94BA43CF93DF93EC0160E00D
:103570000E9423308EE18B871C82DF91CF910895CA
:10358000AF92BF92CF92DF92EF92FF920F931F9371
:10359000CF93DF93CDB7DEB76A970FB6F894DEBF4F
:1035A0000FBECDBF8C01CE0101967C01C12CD12C68
:1035B0005C01C6010E942652F70181937F01FFEF53
:1035C000CF1ADF0A8AE1C816D10499F72D813E810E
:1035D0004F81588569817A818B819C810E946F4AD5
:1035E00029853A854B855C850E946F4A2D853E85ED
:1035F0004F8558890E946F4A29893A894B895C898D
:103600000E946F4A2D893E894F89588D0E946F4ACA
:103610006B017C01698D70E080E090E00E94D44BEA
:103620009B01AC01C701B6010E946F4A20E030E067
:103630004AE253E40E946F4A0E94A64B8A8D6813A7
:103640000CC08AE1F501D8011D9601900D928A9572
:10365000E1F781E0F801848302C0F80114826A96E0
:103660000FB6F894DEBF0FBECDBFDF91CF911F9193
:103670000F91FF90EF90DF90CF90BF90AF900895A3
:10368000CF92DF92EF92FF920F931F93CF93DF932E
:103690008C01EB012C813D814E815F8168817981B4
:1036A0008A819B810E946F4A288539854A855B857E
:1036B0000E946F4A2C853D854E855F850E946F4A2A
:1036C000288939894A895B890E946F4A2C893D89FA
:1036D0004E895F890E946F4A6B017C01688D70E0A2
:1036E00080E090E00E94D44B9B01AC01C701B60181
:1036F0000E946F4A20E030E04AE253E40E946F4AA1
:103700000E94A64B698FE12CF12C6991C7010E94A0
:103710002E528FEFE81AF80AEAE1EE16F104A9F743
:1037200081E0F8018483DF91CF911F910F91FF9089
:10373000EF90DF90CF900895EF92FF921F93CF9379
:10374000DF931F92CDB7DEB7162F7A01FC01638598
:1037500084EC99E029830E946A3A612F84EC99E015
:103760000E94173A2981813091F4422F50E0B7012D
:1037700084EC99E00E94EB3961E084EC99E00F90D1
:10378000DF91CF911F91FF90EF900C94743A8FEFDF
:103790000F90DF91CF911F91FF90EF900895CF93FD
:1037A000DF931F92CDB7DEB7498321E0AE014F5FB3
:1037B0005F4FC2DF0F90DF91CF910895EF92FF929C
:1037C0000F931F93CF93DF93EC01F62E8A01E22E25
:1037D0006B8584EC99E00E946A3A6F2D84EC99E045
:1037E0000E94173A813001F560E084EC99E00E9474
:1037F000743A81112EC081E090E00E94D74121E00F
:103800004E2D6B8584EC99E00E945E3AE80100E061
:1038100010E0F12C84EC99E00E94C039892B31F042
:103820000E151F0574F002C08FEF13C081E090E009
:103830000E94D74181E00E151F0509F480E08195B3
:1038400008C00F5F1F4F84EC99E00E94C83989932C
:10385000E1CFDF91CF911F910F91FF90EF900895ED
:10386000CF93DF93EC01AC014B5F5F4F23E06AE045
:10387000A5DF81110AC08D81883439F48E818433AB
:1038800021F481E09F81933309F080E0DF91CF91B3
:103890000895CF92DF92EF92FF920F931F93CF93F1
:1038A000DF93EC016B018A0179013BD0AE014B5FE4
:1038B0005F4F26E063E0CE0181DF882321F0992766
:1038C00087FD909525C08C85813029F441E062E028
:1038D00070E0CE0164DF8D8190E0982F88272E81E3
:1038E000822BF60191838083898590E0982F882729
:1038F0002A85822BF801918380838F8190E0982F15
:1039000088272885822BF7019183808380E090E0CF
:10391000DF91CF911F910F91FF90EF90DF90CF90AB
:1039200008952F923F924F925F926F927F928F9263
:103930009F92AF92BF92CF92DF92EF92FF920F933E
:103940001F93CF93DF93CDB7DEB76C970FB6F89484
:10395000DEBF0FBECDBF8C0162E00E943930811105
:10396000AFC16AE070E080E090E00E94B14162E0A7
:10397000C8010E9439308111A3C1C80171DF8823B9
:1039800009F49EC10E9482416B017C01712CBB2411
:10399000B39462E0C8010E943930811115C00E94C1
:1039A00082416C197D098E099F09693C7105810569
:1039B000910578F30E9482416B017C017B24672D85
:1039C000C8010E946B30E5CF64E670E080E090E0D3
:1039D0000E94B1410E9482414B015C012FEF3FE701
:1039E000388B2F8740E050E85E874D878FEF9FE749
:1039F0009C878B87E0E0F0E8FA87E98738872F8398
:103A0000212C50E8352E662463940E9482416C1963
:103A10007D098E099F09693C71058105910548F072
:103A20000E9482416B017C017624672DC8010E94AF
:103A30006B300E948241681979098A099B096B30B1
:103A4000710581059105D8F19E012F5F3F4FAE01B1
:103A50004D5F5F4FBE016B5F7F4FC8011ADF8D81E5
:103A60009E814F815885841795072CF028163906BA
:103A700024F41C0102C098878F838B819C81EB8585
:103A8000FC858E179F0744F029853A85281739074A
:103A90002CF49A87898702C09C878B8789819A81B9
:103AA0004F8558898417950744F0ED85FE85E81702
:103AB000F9072CF49E878D8702C0988B8F8762E070
:103AC000C8010E9439308111A0CF60E0C8010E9476
:103AD0006B30B101882777FD8095982F0E94D44BD9
:103AE0006B017C012F813885B901882777FD80958E
:103AF000982F0E94D44B698B7A8B8B8B9C8B9B016C
:103B0000AC01C701B6010E946F4A905820E030E036
:103B100040E05FE30E944C4DF80165877687878718
:103B2000908B29853A85B901882777FD8095982F54
:103B30000E94D44B2B013C014B855C85BA01882740
:103B400077FD8095982F0E94D44B6D8B7E8B8F8B49
:103B5000988F9B01AC01C301B2010E946F4A90583B
:103B600020E030E040E05FE30E944C4DF801618BC3
:103B7000728B838B948B2D853E85B901882777FDC9
:103B80008095982F0E94D44B4B015C014F8558893A
:103B9000BA01882777FD8095982F0E94D44B698FB2
:103BA0007A8F8B8F9C8F9B01AC01C501B4010E9461
:103BB0006F4A905820E030E040E05FE30E944C4DB7
:103BC000F801658B768B878B908F80E090E0A0E882
:103BD000BFE3818F928FA38FB48F29893A894B8954
:103BE0005C89C701B6010E946E4A6B017C012D8978
:103BF0003E894F89588DC301B2010E946E4AA701C8
:103C000096010E94394BF801658F768F878F90A3BC
:103C1000298D3A8D4B8D5C8DC501B4010E946E4A91
:103C2000A70196010E94394BF80161A372A383A3F7
:103C300094A32F813885221A330A37FE03C03194AA
:103C40002194310889859A854B855C85841B950B69
:103C500097FF03C09195819591092D853E85EF854C
:103C6000F8892E1B3F0B37FF03C031952195310991
:103C7000821593052CF02215330514F081E009C05C
:103C8000281639062CF02817390714F082E001C0F5
:103C900083E0F80185A3B801635F7F4FC801F0DCC2
:103CA00061E0C8010E946B3062E0C8010E943930B7
:103CB0008823D1F364E670E080E090E00E94B14197
:103CC0006C960FB6F894DEBF0FBECDBFDF91CF91DB
:103CD0001F910F91FF90EF90DF90CF90BF90AF902A
:103CE0009F908F907F906F905F904F903F902F901C
:103CF0000895CF93DF93EC0184EC99E00E94553A4C
:103D000061E0CE010E946B3040E760E070E0CE01E0
:103D100046DD40E261E070E0CE0141DD81E08C876C
:103D200041E062E070E0CE013ADDCE0129DCCE0157
:103D3000DF91CF91F6CD60939A0740939907FC01EC
:103D400060834183D6CF2F923F924F925F926F92C2
:103D50007F928F929F92AF92BF92CF92DF92EF921B
:103D6000FF920F931F93CF93DF93CDB7DEB7629788
:103D70000FB6F894DEBF0FBECDBF8C01D2DD9E0121
:103D80002F5F3F4FAE014D5F5F4FBE016B5F7F4FB7
:103D9000C8017FDD882349F0682F772767FD70957C
:103DA000872F972F0E94D44BC5C0F80184812D80A6
:103DB0003E802B813C8138872F83882309F478C08B
:103DC0004584568467847088818C928CA38CB48CD3
:103DD000B901882777FD8095982F0E94D44BF80170
:103DE00021893289438954890E946F4AF801258DBF
:103DF000368D478D50A10E944C4D0E94A14B6F8380
:103E0000788789879A8769817A81882777FD809565
:103E1000982F0E94D44BF801258936894789508D07
:103E20000E946F4AF80121A132A143A154A10E942E
:103E30004C4D0E94A14B6B877C878D879E87F80134
:103E400015A1113041F42B853C85B901882777FDF8
:103E50008095982F32C0B101882777FD8095982FE3
:103E60000E94D44BA30192010E946F4AA5019401C4
:103E70000E944C4D0E94A14B4B015C01123089F411
:103E80002B853C85B901882777FD8095982F0E9466
:103E9000D44B9B01AC01B401882777FD8095982F06
:103EA00017C0133019F5882777FD8095982F05C026
:103EB000B101882777FD8095982F0E94D44B9B01F4
:103EC000AC01EF81F885BF01882777FD8095982F99
:103ED0002F87388B498B5A8B0E94D44B2F8538897A
:103EE00049895A890E94E24A6B017C0120E030E056
:103EF000A901C701B6010E94354B87FF0DC02BED0C
:103F00003FE049EC50E4C701B6010E946F4A20E04F
:103F100030E044E353E406C020E030E044E353E4FF
:103F2000C701B6010E944C4D2BED3FE049E450E43F
:103F30000E94394B62960FB6F894DEBF0FBECDBF1C
:103F4000DF91CF911F910F91FF90EF90DF90CF9075
:103F5000BF90AF909F908F907F906F905F904F90A9
:103F60003F902F90089560E00E94233081E080937D
:103F700080008BE08093810083E08093B00084E038
:103F80008093B10008950F931F93CF93DF938C011B
:103F90006F3F710519F014F06FEF70E0EB016130C5
:103FA0008FEF780714F4C1E0DFEFD7FD06C061E0C2
:103FB000C8010E946B30BE0108C060E0C8010E94C9
:103FC0006B30662777276C1B7D0BC801DF91CF9183
:103FD0001F910F910C9483308BE997E0ACC68BE96D
:103FE00097E0D2C6FC0181A90895FC0185A508953A
:103FF000FC0164897589868997890895FC01448B41
:10400000558B668B778B0895FC01448955896689A9
:1040100077894F5F5F4F6F4F7F4F448B558B668B18
:10402000778B0895FC0144895589668977894150C9
:10403000510961097109448B558B668B778B089503
:10404000FC01608571858285938508950F931F9388
:10405000CF93DF93EC018B017B836A8377FF0DC0E5
:1040600060E08FA50E94BA4361E088A90E94BA432C
:1040700066277727601B710B09C061E08FA50E943E
:10408000BA4360E088A90E94BA43B8018EA5DF91C7
:10409000CF911F910F910C946942EF92FF920F9371
:1040A0001F93CF93DF93EC0111E0109380008BE01E
:1040B0008093810003E00093B00084E0F82EF0923A
:1040C000B1006AAB95E0E92EE69EF0011124EC5CAC
:1040D000FD4F80818CA791819DA792819EA793819E
:1040E0009FA7948198AB62E00E94814362E08DA516
:1040F0000E94814362E08FA50E94814362E088A90B
:104100000E9481431C8A1D8A1E8A1F8A8CA58231C7
:1041100011F4E9AA14C0833111F4F9AA10C0843152
:1041200011F409AB0CC0853119F482E089AB07C0EA
:10413000833011F419AB03C0823009F419AA60E08E
:1041400070E0CE0183DF1C8A1D8A1E8A1F8A0E94AE
:1041500082416BAB7CAB8DAB9EABDF91CF911F915E
:104160000F91FF90EF90089560E00C942330CF936F
:10417000DF93EC016C834D838C8160E00E9481436E
:104180008D8188838C818983DF91CF9108950C94F0
:104190007B3060E00C942330CF93DF93EC016C8391
:1041A0004D838C8160E00E9481438D8188838C8166
:1041B0008983DF91CF9108950C947B300F931F93E7
:1041C000CF93DF931F92CDB7DEB78C0149830E9456
:1041D0002330F801EE5BFF4F498140830F90DF9160
:1041E000CF911F910F9108958E5B9F4FFC018081AD
:1041F0000895FC0162857385848595850895FC0189
:10420000628D738D848D958D0895FC01613029F444
:1042100032852385948585850DC0623029F43685E5
:1042200027859089818906C0633029F432892389E2
:1042300094898589AC01632F722F852F942F08955F
:10424000EF92FF920F931F93CF93DF93F62E8A0185
:10425000E22EEC01CE5BDF4F688184EC99E00E9496
:104260006A3A6F2D84EC99E00E94173A813001F58B
:1042700060E084EC99E00E94743A81112EC081E0E4
:1042800090E00E94D74121E04E2D688184EC99E0B6
:104290000E945E3AE80100E010E0F12C84EC99E025
:1042A0000E94C039892B31F00E151F0574F002C031
:1042B0008FEF13C081E090E00E94D74181E00E159E
:1042C0001F0509F480E0819508C00F5F1F4F84EC43
:1042D00099E00E94C8398993E1CFDF91CF911F9176
:1042E0000F91FF90EF9008954F925F926F927F929F
:1042F0008F929F92AF92BF92CF92DF92EF92FF92F6
:104300000F931F93CF93DF93CDB7DEB72C970FB6E4
:10431000F894DEBF0FBECDBF8C01AC014C5C5F4F8B
:104320002EE06BE38DDF8111C8C1F801A4A8B12C88
:10433000BA2CAA2485A9A82AB3A2A2A2E6A8F12C85
:10434000FE2CEE2487A9E82AF5A2E4A280AC912CE9
:10435000982C882481AD882A97A286A2468057800F
:104360006084718464AD70E0762F662785AD682B1C
:10437000882777FD8095982F0E94D44BF80120A5BF
:1043800031A542A553A50E946E4AA30192010E9445
:10439000394BF801668B778B808F918F66AD70E01B
:1043A000762F662787AD682B882777FD8095982F15
:1043B0000E94D44BF80124A535A546A557A50E9417
:1043C0006E4AA30192010E94394BF801628F738FEC
:1043D000848F958FE05CFF4F608170E0762F6627B9
:1043E00031968081682B882777FD8095982F0E94D1
:1043F000D44BF80120A931A942A953A90E946E4AC1
:10440000A30192010E94394BF801668F778F80A338
:1044100091A3B701882777FD8095982F0E94D44BF0
:104420006B017C01B401882777FD8095982F0E944D
:10443000D44B9B01AC010E944C4D2B013C01A701C8
:104440009601C701B6010E944C4DA30192010E9442
:104450006F4A0E94FF4D9B01AC01B501882777FD93
:104460008095982F29873A874B875C870E94D44B89
:104470004B015C0129853A854B855C850E94E24AA7
:1044800020E030E044E353E40E944C4D2AED3FE04D
:1044900049E450E40E94394B69837A838B839C837F
:1044A000A5019401C501B4010E944C4DA3019201E4
:1044B0000E946F4A0E94FF4D9B01AC01C701B601EB
:1044C0000E94E24A20E030E044E353E40E944C4D75
:1044D0002AED3FE049E450E40E94394B6D837E832E
:1044E0008F8398870E948241C090BA08D090BB0801
:1044F000E090BC08F090BD086C197D098E099F09F9
:104500000E94D24B20E030E04AE754E40E94394B4D
:104510006B017C010E9482416093BA087093BB08D2
:104520008093BC089093BD08F80186A197A1181646
:10453000190644F5228D338D448D558DC701B60182
:104540000E944C4D9B01AC01F80162857385848506
:1045500095850E946E4AF8016287738784879587E4
:1045600026893789408D518DC701B6010E944C4D77
:104570009B01AC01F80166857785808991890E944D
:104580006F4A28C0F801228D338D448D558DC701A7
:10459000B6010E944C4D9B01AC01F8016285738508
:1045A000848595850E946F4AF801628773878487A6
:1045B000958726893789408D518DC701B6010E94A4
:1045C0004C4D9B01AC01F801668577858089918906
:1045D0000E946E4AF80166877787808B918BF8017D
:1045E000268D378D40A151A1C701B6010E944C4DC7
:1045F0009B01AC01F80162897389848995890E94C5
:104600006F4AF801628B738B848B958B20E030E0CE
:1046100040E05FE3C701B6010E946F4A9B01AC0115
:1046200060E070E080E09FE30E94394B6B017C0109
:104630009B01AC0160E070E080E89FE30E946E4A5D
:104640004B015C01F8012285338544855585C701FE
:10465000B6010E944C4D2B013C01A50194016981DA
:104660007A818B819C810E944C4D9B01AC01C301DE
:10467000B2010E946F4AF801628773878487958729
:104680002685378540895189C701B6010E944C4D66
:104690006B017C01A50194016D817E818F819885DC
:1046A0000E944C4D9B01AC01C701B6010E946F4AAC
:1046B000F80166877787808B918B2C960FB6F894DC
:1046C000DEBF0FBECDBFDF91CF911F910F91FF9045
:1046D000EF90DF90CF90BF90AF909F908F907F90A2
:1046E0006F905F904F9008952F923F924F925F92FC
:1046F0006F927F928F929F92AF92BF92CF92DF92F2
:10470000EF92FF920F931F93CF93DF93CDB7DEB756
:1047100068970FB6F894DEBF0FBECDBF8C010E9424
:1047200082414B015C01C090B608D090B708E09080
:10473000B808F090B9080E9482416093B60870935F
:10474000B7088093B8089093B908A8014C5C5F4FF4
:104750002EE06BE3C80174DD811190C1C501B40185
:104760006C197D098E099F090E94D24B20E030E030
:104770004AE754E40E94394B1B012C01D801D4961E
:104780006C90D497712C762C6624D5968C91D59705
:10479000682A93967C926E929297D696AC90D69712
:1047A000B12CBA2CAA24D7968C91D797A82A959683
:1047B000BC92AE929497D8968C90D897912C982CC6
:1047C0008824D9968C91D997882A97969C928E9214
:1047D00096971696CD90DD90ED90FC901997DC960B
:1047E0006C91DC9770E0762F6627DD968C91682BB4
:1047F000882777FD8095982F0E94D44BF80120A53B
:1048000031A542A553A50E946E4AA70196010E94B8
:10481000394B69837A838B839C83D80156966D9339
:104820007D938D939C935997DE966C91DE9770E003
:10483000762F6627DF968C91682B882777FD8095E9
:10484000982F0E94D44BF80124A535A546A557A55D
:104850000E946E4AA70196010E94394B6D837E83A8
:104860008F839887D8015A966D937D938D939C93EF
:104870005D97F801E05CFF4F608170E0762F66275E
:1048800031968081682B882777FD8095982F0E942C
:10489000D44BF80120A931A942A953A90E946E4A1C
:1048A000A70196010E94394B69877A878B879C877D
:1048B000D8015E966D937D938D939C939197B501EE
:1048C000882777FD8095982F0E94D44B6B017C013F
:1048D000B401882777FD8095982F0E94D44B9B01C7
:1048E000AC010E944C4D6D877E878F87988BA70106
:1048F0009601C701B6010E944C4D2D853E854F851E
:1049000058890E946F4A0E94FF4D9B01AC01B30180
:10491000882777FD8095982F2D8B3E8B4F8B588F56
:104920000E94D44B4B015C012D893E894F89588DE3
:104930000E94E24A698B7A8B8B8B9C8BA501940138
:10494000C501B4010E944C4D2D853E854F85588987
:104950000E946F4A0E94FF4D9B01AC01C701B60146
:104960000E94E24A6B017C01A201910169857A856E
:104970008B859C850E944C4D9B01AC01F80162899E
:104980007389848995890E946F4AD80152966D93E4
:104990007D938D939C935597A201910169817A81B2
:1049A0008B819C810E944C4DF8012685378540897A
:1049B00051890E946F4A28E431EE4AE75FE30E9482
:1049C0004C4D4B015C0120E030E044E353E4C7016F
:1049D000B6010E944C4D2AED3FE049E450E40E94AC
:1049E000394B2AE037ED43EA5CE30E944C4D9B01D2
:1049F000AC01C501B4010E946F4AD8011E966D93A7
:104A00007D938D939C935197A20191016D817E813D
:104A10008F8198850E944C4DF8012285338544850D
:104A200055850E946F4A28E431EE4AE75FE30E9411
:104A30004C4D6B017C0120E030E044E353E4698994
:104A40007A898B899C890E944C4D2AED3FE049E48C
:104A500050E40E94394B2AE037ED43EA5CE30E94C0
:104A60004C4D9B01AC01C701B6010E946F4AD801B1
:104A70001A966D937D938D939C931D9768960FB6B0
:104A8000F894DEBF0FBECDBFDF91CF911F910F9184
:104A9000FF90EF90DF90CF90BF90AF909F908F905E
:104AA0007F906F905F904F903F902F9008952F923E
:104AB0003F924F925F926F927F928F929F92AF92AE
:104AC000BF92CF92DF92EF92FF920F931F93CF93FB
:104AD000DF9300D01F92CDB7DEB71C0104EF11E0C9
:104AE000812C912C5401412C512C320119821A82B3
:104AF0001B821C827C0124E3E20EF11C26E0A7014C
:104B000063E4C1019DDBF10184A990E0982F88271F
:104B100025A9822BAA2797FDA095BA2F29813A8132
:104B20004B815C81280F391F4A1F5B1F29833A8301
:104B30004B835C8386A990E0982F882727A9822B36
:104B4000AA2797FDA095BA2F480E591E6A1E7B1EF4
:104B500080AD90E0982F882721AD822BAA2797FD62
:104B6000A095BA2F880E991EAA1EBB1E01501109CE
:104B700029F624EFC22EDD24D394E12CF12C698197
:104B80007A818B819C81A70196010E94494FCA01BD
:104B9000B9010E94D44BF10160A771A782A793A726
:104BA000C301B201A70196010E94494FCA01B90190
:104BB0000E94D44BF10164A775A786A797A7C501EA
:104BC000B401A70196010E94494FCA01B9010E9490
:104BD000D44BF10160AB71AB82AB93AB0F900F90F4
:104BE0000F900F90DF91CF911F910F91FF90EF9059
:104BF000DF90CF90BF90AF909F908F907F906F90FD
:104C00005F904F903F902F900895EF92FF921F93E7
:104C1000CF93DF931F92CDB7DEB7162F7A018E5B4D
:104C20009F4FFC01608184EC99E029830E946A3ADD
:104C3000612F84EC99E00E94173A2981813091F428
:104C4000422F50E0B70184EC99E00E94EB3961E01B
:104C500084EC99E00F90DF91CF911F91FF90EF903E
:104C60000C94743A8FEF0F90DF91CF911F91FF90CA
:104C7000EF900895CF93DF931F92CDB7DEB74983AE
:104C800021E0AE014F5F5F4FC0DF0F90DF91CF910A
:104C90000895CF93DF93EC0140E050E063E872E4C5
:104CA0004E835F83688779871A861B861C861D86DC
:104CB0001E861F86188A198A1A8A1B8A1C8A1D8AD0
:104CC0001E8A1F8A188E198E1A8E1B8E1C8E1D8EA0
:104CD0001E8E1F8E18A219A21BA21AA21DA21CA210
:104CE0001FA21EA218A619A61AA61BA61CA61DA6C0
:104CF0001EA61FA618AA19AA1AAA1BAA84EC99E034
:104D00000E94553A60E273E080E090E00E94B14179
:104D100040E06BE670E0CE01ADDF41E06AE170E0BB
:104D2000CE01A8DF48E06BE170E0CE01A3DFCE0149
:104D3000DF91CF91BCCE21E030E0FC0131832083B4
:104D4000EE5FFE4F1082118212821382349610821F
:104D5000118212821382349610823196108231961B
:104D6000108211821282138234961182108232963E
:104D70001082319610821182128213823496108230
:104D80001182128213820895089560E00C942330FA
:104D90004F925F926F927F928F929F92AF92BF924B
:104DA000CF92DF92EF92FF920F931F93CF93DF93F7
:104DB00000D01F921F92CDB7DEB78C01CE010196B5
:104DC0006C0185E0F60111928A95E9F760E0C8016F
:104DD0000E946B3064E170E080E090E00E94B1419D
:104DE00061E0C8010E946B3088E290E00E94D741E8
:104DF00060E0C8010E946B300E9482414B015C015F
:104E000060E0C8010E944A3081110EC00E948241B8
:104E1000681979098A099B09633071058105910533
:104E200078F3F801148215820E9482414B015C01E3
:104E300060E0C8010E944A30882359F00E948241F4
:104E4000681979098A099B09633071058105910503
:104E500078F3E12CF12C0E9482414B015C0160E06F
:104E6000C8010E944A3081110BC00E94824168191A
:104E700079098A099B09633071058105910578F3E9
:104E80000E948E414B015C010E9482412B013C013A
:104E900060E0C8010E944A30882359F00E94824194
:104EA00064197509860997096330710581059105B3
:104EB00078F30E948E41681979098A099B09F701E4
:104EC00023E0F595E7952A95E1F7693271058105AB
:104ED000910530F0EC0DFD1D8081880F816004C0CC
:104EE000EC0DFD1D8081880F8083FFEFEF1AFF0A14
:104EF00088E2E816F10409F0AECF59814B81842F86
:104F000090E0850F911D2D8130E08217930719F4F1
:104F1000F801548345830F900F900F900F900F90DE
:104F2000DF91CF911F910F91FF90EF90DF90CF9085
:104F3000BF90AF909F908F907F906F905F904F90B9
:104F40000895FC01611102C084810895858108954E
:104F5000CF93DF93EC010E94E33183E193E09983E7
:104F6000888388A1FE01E858FF4F80838F8DC75842
:104F7000DF4F8883DF91CF910895CF93DF93EC01CA
:104F800040E855E260E070E00E941E3260E08F8DE4
:104F9000DF91CF910C9481431F93CF93DF93EC016A
:104FA0008BA1882319F0CE010E944C3260E0CE0123
:104FB0004F960E943930182F8BA1882311F0CE0113
:104FC000DCDF81E08127DF91CF911F910895865822
:104FD0009F4FFC0180810895CF93DF93EC01DCDFCC
:104FE0008823A1F0CE010E94B832181619068CF45D
:104FF000E881F9810680F781E02DCE0119958F3F78
:1050000091053CF4C658DF4F888303C0C658DF4F74
:105010001882DF91CF9108950E949F3299270895B9
:105020001F920F920FB60F9211240BB60F920F938F
:105030001F932F933F934F935F936F937F938F9320
:105040009F93AF93BF93CF93EF93FF9382E00E9420
:10505000EF43C82F2091C4083091C5082F5F3F4F00
:105060003093C5082093C40880912A09843618F02B
:1050700085E08093BF089091BF08933079F018F4D1
:10508000923039F070C0943011F1953009F44AC073
:105090006AC0C11168C010922A0929C0C13009F044
:1050A00062C0E0912A0981E08E0F80932A09F0E026
:1050B0008091C4089091C508E254F74F8087109200
:1050C000C5081092C40884E08093BF084CC0C11189
:1050D00014C0E0912A0981E08E0F80932A09F0E044
:1050E0008091C4089091C508E254F74F80871092D0
:1050F000C5081092C40883E0E7CF8091C40890915E
:10510000C5088536910578F185E08093BF080E9437
:1051100082416093C0087093C1088093C208909345
:10512000C30821C00E9482410091C0081091C108AB
:105130002091C2083091C308601B710B820B930B46
:10514000693C71058105910540F010922A09109281
:10515000C5081092C40882E0B7CFC11104C01092F4
:10516000C5081092C408FF91EF91CF91BF91AF9104
:105170009F918F917F916F915F914F913F912F916F
:105180001F910F910F900BBE0F900FBE0F901F90AD
:10519000189560E058C7613041F4ADD78A5E914000
:1051A00020912D0930912E0909C0623051F4A7D702
:1051B0008A5E914020912B0930912C09820F931F18
:1051C000089580E090E00895CF92DF92EF92FF92F1
:1051D0000F931F93CF93DF93EC01162FF42EE52E40
:1051E000D22E106C61E08C810E94BA4360E08D8108
:1051F0000E94BA4308E060E08C810E94BA43612FAC
:1052000061708D810E94BA4361E08C810E94BA4333
:105210001695015081F7CF2C0F2D1E2D802F8C1944
:105220008D15B0F4F801E1908F0188E0F82E60E070
:105230008C810E94BA436E2D60788D810E94BA43A2
:1052400061E08C810E94BA43EE0CFA9481F7E6CFBC
:1052500060E08C810E94BA4360E08D810E94BA4375
:1052600061E08C810E94BA4361E08D81DF91CF9132
:105270001F910F91FF90EF90DF90CF900C94BA4365
:10528000D9C60F931F93CF93DF93EC01162F61E0E4
:105290008C810E94BA4360E08D810E94BA4308E08D
:1052A00060E08C810E94BA43612F61708D810E9401
:1052B000BA4361E08C810E94BA431695015081F790
:1052C00060E08C810E94BA4360E08D810E94BA4305
:1052D00061E08C810E94BA4361E08D81DF91CF91C2
:1052E0001F910F910C94BA4320E030E0FC01E20FD3
:1052F000F31F10862F5F3F4F20313105B9F721E0B2
:10530000FC0126831782AC01485F5F4F20E160E01B
:105310005BCF693018F4662321F001C068E061506A
:1053200068606068AECFCF93DF93EC01E62FF0E0CA
:10533000EE0FFF1FEE5AFD4F80818C8391819D837C
:105340006A8361E00E94814361E08D810E94814314
:1053500061E08C810E94BA4361E08D810E94BA4372
:1053600060E4CE018EDF65E0CE01D3DFCE01DF91B8
:10537000CF91BACF8F929F92AF92BF92CF92DF928E
:10538000EF92FF920F931F93CF93DF9360310CF056
:1053900084C048300CF081C0222309F47EC0FC0197
:1053A0003681A42FBB27A7FDB095E8E0F0E0EA1B0B
:1053B000FB0B5FEF01C0550FEA95EAF74801C0E02B
:1053C000D0E0772767FD70956C01C60ED71EAA2422
:1053D000BB24AA1ABB0A332379F1C21778F58E01D0
:1053E000060F171F17FD1AC07601EC0EFD1EF70100
:1053F00030853523F4010081141644F410E00A2EA0
:1054000002C0159507950A94E2F705C00A2C01C061
:10541000000F0A94EAF7032BF70100872196FFEFAC
:105420008F1A9F0ADACF8E01060F171F17FF18C0B9
:105430002196FFEF8F1A9F0AC217A8F3AC01485FAD
:105440005F4F20E160E0DF91CF911F910F91FF90BE
:10545000EF90DF90CF90BF90AF909F908F90B4CEA1
:105460007601EC0EFD1EF70130853523F401008135
:1054700010E00095109514163CF40A2E02C0159504
:1054800007950A94E2F705C00A2C01C0000F0A94A0
:10549000EAF7032BF7010087CBCFDF91CF911F9164
:1054A0000F91FF90EF90DF90CF90BF90AF909F90C3
:1054B0008F9008958F929F92AF92BF92CF92DF927A
:1054C000EF92FF920F931F93CF93DF93EC01088D20
:1054D000198D101611060CF073C080E090E0F82EC4
:1054E0008017910751F001968131910509F4E7C0C9
:1054F000FE01E80FF91F1782F2CF40E1841709F48B
:10550000DEC00B8D1C8DE12C67E0D62E70E2C72E1D
:105510004E2D50E0401751070CF049C0B12CDE0170
:10552000A40FB51F5D962B2D30E0D29EC001D39EF7
:10553000900D112481559D4FFC016491603441F11F
:10554000FC016491EC91FF27E7FDF09570E0E61710
:10555000F707E1F4D29EB001D39E700D112420E034
:1055600030E060557D4FFB01E20FF31FE491DE0157
:10557000AF0DB11D1896EC93F394FFE0FF1540F0CA
:105580002F5F3F4F2630310571F702C0B394CBCF68
:10559000FC018491803429F4FE01E40FF51FC58ECF
:1055A000EA94E394FFE0FF1508F0B2CF88C0FE0153
:1055B000EF0DF11D1086F39440E1F412F8CF7FC097
:1055C000EB8CFC8C2AEFA7012403C001259F900DD2
:1055D00011240817190759F480E090E0FE01E80F44
:1055E000F91F1086019680319105C1F768C0222706
:1055F0003327201B310BC90166E070E00E94144F75
:10560000398F288F9B0190E047E0B42E50E2A52E01
:105610002E153F050CF04BC0912CDE01A20FB31FDD
:105620005D96692D70E0B69EA001B79E500D1124C5
:1056300041555D4FFA01D490F0E4DF1631F1FA01E3
:105640008490CC90DD24C7FCD094E82DF0E0CE16F9
:10565000DF06C1F4B69ED001B79EB00D1124FD0146
:10566000E80FF11D87FDFA95E055FD4F6491FE01AD
:10567000E90FF11D60879F5F903130F48F5F8630B6
:1056800071F702C09394CDCF80E0FA014491403489
:1056900031F4FE01E20FF31FA58E215031092F5F77
:1056A0003F4F903108F4B4CF198F088F08C0FE0126
:1056B000E90FF11D10869F5F9031C9F7F5CF4A8D34
:1056C000552747FD509527E030E0241B350B80E03F
:1056D00090E037FD12C0FE01E80FF91F4085022E51
:1056E00001C0440F0A94EAF7408701968031910582
:1056F00091F78E818823A1F01FC047505109FE0108
:10570000E80FF91F208530E0042E02C0359527955B
:105710000A94E2F7208701968031910581F7E9CF5D
:1057200080E090E0FE01E80FF91F2085209520879A
:10573000019680319105B1F7AE01485F5F4F20E1DE
:1057400060E0CE01DF91CF911F910F91FF90EF901C
:10575000DF90CF90BF90AF909F908F9035CD0F93FB
:105760001F93FC0181E08783148E138E038D148DAB
:10577000D901A00FB11F8C91DF01A00FB11F8823A9
:1057800019F00331110564F05D961C922AEF200395
:10579000C001219F900D11246817790774F007C08C
:1057A0005D968C930F5F1F4F148F038FDFCFCB015C
:1057B0006131710514F080E190E0918F808F40316C
:1057C0000CF04FE047FD4FEF428FCF011F910F913B
:1057D00071CECF93DF93DC01362F862F6AE00E94D3
:1057E000F44EC82FD0E0FE01EE0FFF1FEC0FFD1F9F
:1057F000E857FD4FE4911896EC931897FE01EE0FD1
:10580000FF1FEC0FFD1FE757FD4FE4911996EC9336
:105810001997FE01EE0FFF1FEC0FFD1FE657FD4F1E
:10582000E4911A96EC931A971B961C921B97832F60
:105830000E94F44E692F70E0FB01EE0FFF1FE60F90
:10584000F71FE857FD4FE4911C96EC931C97FB0162
:10585000EE0FFF1FE60FF71FE757FD4FE4911D9670
:10586000EC931D97FB01EE0FFF1FE60FF71FE657A6
:10587000FD4FE4911E96EC931E97842F6AE00E94E0
:10588000F44E682F70E0FB01EE0FFF1FE60FF71FCD
:10589000E857FD4FE4915196EC935197FB01EE0FC1
:1058A000FF1FE60FF71FE757FD4FE4915296EC9369
:1058B0005297FB01EE0FFF1FE60FF71FE657FD4F54
:1058C000E4915396EC93539754961C925497842FDB
:1058D0006AE00E94F44E892F90E0FC01EE0FFF1F5A
:1058E000E80FF91FE857FD4FE4915596EC93559753
:1058F000FC01EE0FFF1FE80FF91FE757FD4FE49182
:105900005696EC935697FC01EE0FFF1FE80FF91F18
:10591000E657FD4FE4915796EC935797222341F0B9
:1059200088E21F968C931F9750968C93509706C0D1
:105930001F961C921F9750961C92509716968C910A
:105940001697882349F0AD01485F5F4F20E160E082
:10595000CD01DF91CF9138CC80E090E0FD01E80FE0
:10596000F91F208520952087019680319105B1F798
:10597000EACF2F923F924F925F926F927F928F92D7
:105980009F92AF92BF92CF92DF92EF92FF920F93CE
:105990001F93CF93DF93CDB7DEB72A970FB6F89456
:1059A000DEBF0FBECDBF8C016A017B01922E2A01A2
:1059B0003B0177FA709477F8709420E030E0A90109
:1059C000C701B6010E94354B87FF05C049865A863C
:1059D000362C272C04C0C986DA863E2C2F2C7AE080
:1059E000A72EB12C20E03EE34CE156E4C701B601FE
:1059F0000E94FC4C87FD03C089E08D83C5C020E078
:105A000030EE49E754ECC701B6010E94354B181639
:105A100024F08BE08D8389E0B7C020E030E0A9015D
:105A2000C701B6010E94354B882E881C8824881C2B
:105A3000712C60E070E080E09FE3791441F020E099
:105A400030E040E251E40E94394B7394F6CF9B0161
:105A5000AC0169857A85832D922D0E946F4A2B01B6
:105A60003C010E94A64B9B01462F972FE0E0842F1C
:105A7000B5010E94004FA1E0B0E0AC0FBD1FAE0F1A
:105A8000B11D8AE0689F401911244C93EF5F6115A6
:105A9000710519F0462F972FEACF8E2F880D982F7A
:105AA000990D953020F064E0962E981A9BCF8CE0EB
:105AB0008D838E838F83888784E0891B882041F0C3
:105AC000DE01A80FB11D8BE015968C9385E0891B34
:105AD000F82EFE0E8F2D8E1BEE2379F045E050E060
