:1000000017C300000C94A9510C94D4510C94FF51C7
:100010000C942A520C9455520C9480520C94AB526E
:100020000C94D6520C947E4F0C947E4F0C947E4FC1
:1000300030C300000C94F9382CC300002AC3000020
:1000400028C300000C94414924C3000022C30000CF
:1000500020C300001EC300001CC300000C94015309
:1000600018C300000C94AE570C94E45712C3000060
:1000700010C300000EC300000CC300000AC3000040
:100080000C946E4906C3000004C3000002C30000C4
:1000900000C30000FEC20000FCC200000C946F4DC3
:1000A000F8C20000F6C200000C949B49F2C20000A6
:1000B000F0C20000EEC20000ECC200000C94C8497F
:1000C000E8C20000E6C20000E4C200000C945958E7
:1000D0000C948F58DEC20000DCC20000DAC20000BF
:1000E000D8C2000041176E159B15AE15AE15DE1572
:1000F0003117AE152718271827182718271827187B
:1001000027183B16F8155316271827182718821694
:10011000C717D316F0161017B316C51527182718CA
:100120004F175717271827182718271879176617F2
:1001300027182718271827182718271827182718C7
:100140002718271827182718AE17B71727182718A2
:10015000271827182718271827182718FF17DB171D
:1001600083514D51555161516E518F519C5167547E
:100170006C5471547B548554FE548F5497549F543F
:10018000A954B354BD54CC54D654FE54E054EA544C
:10019000F45420552355125516551C555A552755BC
:1001A0002B553155355539553F55435547555A55BA
:1001B0004D5551555555084AD73B3BCE016E84BC31
:1001C000BFFDC12F3D6C74319ABD56833DDA3D00B1
:1001D000C77F11BED9E4BB4C3E916BAAAABE0000FA
:1001E00000803F08000000BE922449123EABAAAA3C
:1001F0002ABECDCCCC4C3E00000080BEABAAAAAA41
:100200003E00000000BF000000803F000000000032
:10021000084178D3BB4387D1133D190E3CC3BD427F
:1002200082AD2B3E68EC8276BED98FE1A93E4C8030
:10023000EFFFBE01C4FF7F3F0000000000076342E4
:1002400036B79BD8A71A39685618AEBAAB558C1D6D
:100250003CB7CC5763BD6DEDFD753EF6177231BFEF
:10026000000000803F003F065B4F666D7D077F6F9B
:10027000777C395E7971BF86DBCFE6EDFD87FFEFD6
:10028000F7FCB9DEF9F100407C447C007C005C5452
:100290007454547C70107C74545C7C545C40407C7E
:1002A0007C547C74547C000400202020000000203A
:1002B00000000000000030007C82827C003100429F
:1002C000FE0200003200468A92620033004492929D
:1002D0006C0034001C64FE04003500F292928C0025
:1002E00036007C92924C003700C08E90E0003800BF
:1002F0006C92926C0039006492927C006100042A36
:100300002A1E006200FE12120C0063000C12121270
:100310000064000C1212FE0065001C2A2A180066F8
:1003200000103E50500067000815151E006800FEC2
:10033000101E00006900002E0000006A0002012E5D
:1003400000006B00FE081412006C0000FE020000AA
:100350006D001E100E100E6E001E10100E006F00AD
:100360000C12120C0070001F12120C0071000C1203
:10037000121F0072001E08101000730012292512AF
:10038000007400103E12000075001C02021E007670
:100390001804020418007718061C061800780012CA
:1003A0000C0C120079001805051E007A0012161AAE
:1003B000120041007E88887E004200FE92926C000E
:1003C00043007C828244004400FE82827C0045001F
:1003D000FE929282004600FE9090800047007C8250
:1003E000925C004800FE1010FE00490082FE820070
:1003F000004A000C0202FC004B00FE1028C6004C14
:1004000000FE020202004D00FE403040FE4E00FEA3
:10041000403008FE4F007C8282827C5000FE90902B
:10042000600051007C828A847A5200FE98946200B7
:1004300053006492924C00540080FE80800055006E
:10044000FC0202FC005600F00C020CF05700FE0407
:100450003804FE5800C63838C60059C0201E20C0D7
:10046000005A00869AB2C2002C00010E0C00002E29
:10047000000006060000257254781E2A4E21000056
:100480007A0000003F00204A3000002D00101010BC
:1004900010002B08083E0808002F00020C30400016
:1004A0002A2214081422003A00001400000022003E
:1004B000C000C000002328FE28FE28002800007C81
:1004C000820000290000827C00003B000224000022
:1004D000007E0040804080003B0002240000003D80
:1004E0000028282828007C0000FE0000003E008232
:1004F000442810003C001028448200400000000006
:10050000000000000A0B02090C0D0E08070304018D
:1005100000000000000000000000000000000000DB
:1005200000000000000000000000000000001211A8
:1005300010000000000000000000000000000000AB
:100540000000000000000000010210202008081038
:100550002040102040800201020108040201010233
:10056000040810204080804020100804020180040C
:100570000201804020100804020108040201010267
:100580000408102040800102040810204080050566
:100590000505070508080808020202020A0A0808F9
:1005A0000404040401010101010101010303030327
:1005B00003030303040707070C0C0C0C0C0C0C0CB6
:1005C0000202020206060606060606060B0B0B0BC7
:1005D0000B0B0B0B000020002300260029002C0031
:1005E0002F00320000010000030106010901000094
:1005F0002200250028002B002E00310034000201CB
:100600000000050108010B01000021002400270063
:100610002A002D0030003300010100000401070111
:100620000A012E147E24864C1658C158A714822421
:1006300011241FBECFEFD1E2DEBFCDBF00E00CBF63
:1006400013E0A0E0B2E0EEEEF4EC00E00BBF02C07D
:1006500007900D92A438B107D9F72CE0A4E8B3E0D5
:1006600001C01D92A83DB207E1F716E0CCE2D6E04A
:1006700000E006C022970109FE010BBF0E94AE5F99
:10068000C232D10780E00807A9F70E94875A0C946C
:100690006662B6CCCF92DF92EF92FF920F931F93D8
:1006A000E82FF92F05C0015011092109310961F125
:1006B000908196239417B9F305C0015011092109BF
:1006C000310911F1908196239413F7CFC12CD12CCD
:1006D000E12CF12C0AC08FEFC81AD80AE80AF80AF0
:1006E0000C151D052E053F0579F0808186238417A2
:1006F00091F36C2D7D2D8E2D9F2D1F910F91FF90CD
:10070000EF90DF90CF90089560E070E080E090E09F
:100710001F910F91FF90EF90DF90CF90089583E9A4
:1007200095E00E94A4260E94C955892B21F483E9F3
:1007300095E00C94BD2683E995E00C94AF2683E107
:1007400095E00E94A4260E94C955892B21F483E1DB
:1007500095E00C94BD2683E195E00C94AF260C94B3
:1007600058620C945062CF92DF92EF92FF920F93F7
:100770001F93CF93DF931F921F92CDB7DEB76C010B
:100780008B017C0184E0E80EF11CC60169837A8349
:100790000E945062F80181938F01FFEFCF1ADF0AA8
:1007A00069817A81CE14DF0481F7CB010F900F901D
:1007B000DF91CF911F910F91FF90EF90DF90CF903D
:1007C0000895EF92FF920F931F93CF93DF931F92A1
:1007D000CDB7DEB77C01FC0100811181C8016983BE
:1007E0000E9450626981681719F0C8010E9458621E
:1007F000C7010F90DF91CF911F910F91FF90EF9064
:100800000895BF92CF92DF92EF92FF920F931F93C2
:10081000CF93DF9300D0CDB7DEB78C01B62EE62E96
:10082000F72E6C0184E0C80ED11CF70161917F01A5
:100830001A830983CE0101967B83C3DF0F5F1F4FAD
:100840007B810C151D0589F78B2D972F0F900F902D
:100850000F90DF91CF911F910F91FF90EF90DF905C
:10086000CF90BF900895CF92DF92EF92FF920F93B7
:100870001F93CF93DF931F921F92CDB7DEB76C010A
:100880008C0183E5E82EF12CF80161918F01FA8249
:10089000E982CE01019695DFFFEFEF1AFF0A87E5A7
:1008A000E816F10489F7C6010F900F90DF91CF9100
:1008B0001F910F91FF90EF90DF90CF9008956BEA1A
:1008C00080E590E04CDF6DEC81E590E048DF6BEA7D
:1008D00082E590E044DF8AE092E0C5DF6AE274E0FE
:1008E00087E590E08EDF6EE274E08BE590E089DFD3
:1008F00062E374E08FE590E084DF6AE074E083E611
:1009000090E07FDF6EE074E087E690E07ADF62E1FE
:1009100074E08BE690E075DF6AEE73E08FE690E0BE
:1009200070DF6FEE83E790E01ADF6BEA82E890E019
:1009300016DF6091BD0483E890E011DF6FEE84E87C
:1009400090E00DCF6BEA80E890E009DF6DEC81E884
:1009500090E005DF6BEA82E890E001DF6091BD0482
:1009600083E890E0FCDE6FEE84E890E0F8CE0F9331
:100970001F93CF93DF9380E590E0F3DE8B3A29F469
:1009800081E590E0EEDE8D3C71F099DF80E890E04B
:10099000E8DE8B3A09F04BC081E890E0E2DE8D3C66
:1009A00009F045C049C082E590E0DBDE8B3A09F0F2
:1009B00037C083E790E0D5DE8F3E91F50AE012E084
:1009C000C3E5D0E0CE010E945062F80181938F010F
:1009D0002196C735D105B1F76AE274E087E590E06A
:1009E000C2DE6EE274E08BE590E0BDDE62E374E0AF
:1009F0008FE590E0B8DE6AE074E083E690E0B3DE75
:100A00006EE074E087E690E0AEDE62E174E08BE6D3
:100A100090E0A9DE6AEE73E08FE690E0A4DEB6CF48
:100A200061E872E084E99BE00E946459AFCFDF91F6
:100A3000CF911F910F9186CF82E890E092DE8B3AA2
:100A400081F484E890E08DDE8F3E59F483E890E0F5
:100A50000E9450628093BD04DF91CF911F910F914E
:100A6000089567EA72E084E99BE0DF91CF911F91DE
:100A70000F910C9464596091120270911302719558
:100A80006195710983E995E00E94E5266091120263
:100A90007091130283E195E00C94E52660911202B7
:100AA0007091130283E995E00E94E526609112029D
:100AB0007091130271956195710983E195E00C9431
:100AC000E526609112027091130277FF02C06D5FFC
:100AD0007F4F759567957595679583E995E00E94B9
:100AE000E52660911202709113027195619571096A
:100AF00083E195E00C94E526609112027091130257
:100B000083E995E00E94E52660911202709113023C
:100B100077FF02C06D5F7F4F7595679575956795F7
:100B200071956195710983E195E00C94E5266091DA
:100B300012027091130271956195710983E995E034
:100B40000E94E526609112027091130277FF02C0A5
:100B50006F5F7F4F7595679583E195E00C94E5266F
:100B6000609112027091130277FF02C06F5F7F4F96
:100B70007595679571956195710983E995E00E9476
:100B8000E526609112027091130283E195E00C94C6
:100B9000E5266091120270911302719561957109B9
:100BA00083E995E00E94E52660911202709113029C
:100BB00071956195710983E195E00C94E52660914A
:100BC00012027091130283E995E00E94E52660917C
:100BD00012027091130283E195E00C94E52660E027
:100BE00070E083E995E00E94E52660E070E083E133
:100BF00095E00C94E52684E99BE00C945159FC01A6
:100C0000ED57FB4F80818093DF0481818093E00466
:100C10008091DF049091E0040895A1EEB4E0FC011E
:100C2000ED57FB4F80818C9381818093E204828118
:100C30008093E30483818093E4046D917D918D9191
:100C40009C910895FC01ED57FB4F80818093E10456
:100C500081818093E20482818093E3048381809385
:100C6000E4046091E1047091E2048091E3049091C6
:100C7000E4040895E6E9F3E020E030E08D579B4F6F
:100C80002617370744F4DC01A20FB31F4C914193A0
:100C90002F5F3F4FF5CFFB01EA56FC4F108286E9EC
:100CA00093E00895E6E8F3E020E030E08D579B4FB5
:100CB000261737075CF42031310541F0DC01A20F23
:100CC000B31F4C9141932F5F3F4FF2CF86E893E0E3
:100CD0000895FC01DB0112964D915D916D917C911F
:100CE0001597428353836483758316968C91169768
:100CF000868317964D915D916D917C911A974783EC
:100D00005087618772871B964D915D916D917C91A3
:100D10001E9743875487658776871F964D915D910F
:100D20006D917C9152974787508B618B728B539654
:100D30004D915D916D917C915697438B548B658B52
:100D4000768B57964D915D916D917C915A97478B1B
:100D5000508F618F728F5B964D915D916D917C91FB
:100D60005E97438F548F658F768F5F964D915D911F
:100D70006D917C919297478F50A361A372A3939634
:100D80004D915D916D917C91969743A354A365A37A
:100D900076A397964D915D916D917C919A9747A31B
:100DA00050A761A772A79B964D915D916D917C9123
:100DB0009E9743A754A765A776A79F964D915D91EF
:100DC0006D917C91D29747A750AB61AB72ABD39634
:100DD0008C91D39783ABD4968C9184ABCF0108953B
:100DE000E7ECF4E020E030E04191519148175907D9
:100DF00091F0452B41F4F901EE0FFF1FE953FB4F32
:100E00009183808308C02F5F3F4F2C30310561F7FD
:100E100080E090E00895C90108954F925F926F922B
:100E20007F928F929F92AF92BF92CF92DF92EF927A
:100E3000FF920F931F93CF93DF93CDB7DEB7E69763
:100E40000FB6F894DEBF0FBECDBF7090890480321C
:100E500009F478C240F58A3009F442C078F485304C
:100E600009F452C020F4833009F43BC216C4883020
:100E700009F456C1893009F4C4C10FC48C3009F497
:100E8000FFC008F49AC1843109F43DC28E3109F0E3
:100E900004C461E0872D0E945B5560918A04872D10
:100EA0000E949455FAC3823309F4A1C258F48232E5
:100EB00009F454C208F472C28832B9F1893209F4D3
:100EC000B5C1EBC38C3309F459C120F4843309F460
:100ED000A1C2E3C38D3399F08E3309F4E4C2DDC3BC
:100EE00087E090E08CDE5C01672D8FE298E00E9445
:100EF0009723B5018FE298E00E94A323CEC371101F
:100F0000CCC310918A042EC386E090E078DEBC0149
:100F100083E995E00E94D12688E090E070DEBC0174
:100F200083E195E00E94D126B8C387E090E067DEB8
:100F30008C0189E090E086DE4B015C0181E0781253
:100F400025C061E0CE0101960E946044BE016F5F42
:100F50007F4F87E496E0BDDEB501A40187E496E00B
:100F60000E946246B801882777FD8095982F0E94DD
:100F7000FC5B4B015C01AB01BC0187E496E00E9485
:100F80007846B501A40187E496E027C082E0781294
:100F900027C062E0CE0101960E946044BE016F5FEF
:100FA0007F4F8CE796E095DEB501A4018CE796E0D3
:100FB0000E946246B801882777FD8095982F0E948D
:100FC000FC5B4B015C01AB01BC018CE796E00E942D
:100FD0007846B501A4018CE796E00E94D2465DC335
:100FE00083E0781225C063E0CE0101960E94604440
:100FF000BE016F5F7F4F81EB96E06BDEB501A40110
:1010000081EB96E00E946246B801882777FD8095C3
:10101000982F0E94FC5B4B015C01AB01BC0181EB92
:1010200096E00E947846B501A40181EB96E0D5CF09
:1010300084E0781232C364E0CE0101960E946044DD
:10104000BE016F5F7F4F86EE96E043DEB501A401DF
:1010500086EE96E00E946246B801882777FD80956B
:10106000982F0E94FC5B4B015C01AB01BC0186EE3A
:1010700096E00E947846B501A40186EE96E0ADCFD9
:1010800020918A0488E090E02EABB9DD8C018AE0E3
:1010900090E0C3DD4B015C012EA9213071F4B80151
:1010A000882777FD8095982F0E94FC5B8B019C011F
:1010B000B501A40185EE94E00FC0223081F4B8019F
:1010C000882777FD8095982F0E94FC5B8B019C01FF
:1010D000B501A4018FEE94E00E94DF25DEC223302B
:1010E00071F4B801882777FD8095982F0E94FC5BEA
:1010F0008B019C01B501A40189EF94E0EDCF243070
:1011000009F0CBC2B801882777FD8095982F0E94FF
:10111000FC5B8B019C01B501A40183E095E0DCCF71
:1011200040918A04A0908B0410918C04B0908D049F
:1011300000918E04772031F0672D8FE098E00E94B7
:10114000104205C06CE28FE098E00E945842AA204D
:1011500049F06FEF6A0D2B2D412F8FE098E00E9430
:10116000A94207C0202F4B2D612F8FE098E00E94ED
:10117000F8428FE098E00E9424438FC210918A04C5
:1011800081E178128AC22BDD153050F41093BD0432
:1011900083E890E0E6DA811709F47FC2612F09C085
:1011A0001092BD0483E890E0DCDA882309F475C26C
:1011B00060E083E890E0D3DA70C280918A04E72D82
:1011C000F0E0EE0FFF1FEE5AFD4F813011F4008169
:1011D00001C00181B0908B0410E0C80101DEFC0168
:1011E000EE0FFF1FE80FF91FE95CF74F20813181F7
:1011F000428129833A834B8384EB8B1508F44DC2DB
:10120000E4C083E098E00E948341871529F0672DB0
:1012100083E098E00E94081D87E090E0FEDCAB01CF
:10122000BC0183E098E00E94291D37C28EEC97E054
:101230000E948341871529F0672D8EEC97E00E946C
:10124000E33A80918A048130C1F410918B0440917B
:101250008C0460918D04772767FD70958BE090E09A
:101260004EAB08DD612F772767FD70959C014EA975
:101270008EEC97E00E94FF3C10C2823099F4B0904F
:101280008B0440918C0460E170E08AE090E04EAB0A
:1012900009DD8C0120E14EA96B2D8EEC97E00E94B8
:1012A0000A3BFBC1833079F421E080918B048111EA
:1012B00001C020E040918D0460918C048EEC97E099
:1012C0000E94393DEAC1843009F0E7C188E090E02E
:1012D000A4DCAB01BC0123E08EEC97E00E94093E48
:1012E000DCC18FEF97E00E948341871529F0672DBD
:1012F0008FEF97E00E94E74161E080918A048111BD
:1013000013C060E011C08FEF97E00E948341871502
:1013100029F0672D8FEF97E00E94E74180918A04C2
:10132000823038F4682F61708FEF97E00E94AB41F4
:10133000B4C161E0823009F460E08FEF97E00E9471
:10134000BB41ABC161E0872D0E945B5520918A04AF
:10135000622F70E0872D0E9443549FC161E0872D6A
:101360000E945B5587E090E04ADC5C0189E090E0F8
:1013700046DC672D70E0181619065CF48C012227F4
:1013800017FD2095322FA50183E496E00E94A11D50
:1013900084C183E496E00E946D1E7FC1B0908A04F0
:1013A00084EB8B1508F479C1072D10E0C80118DD16
:1013B000FC01EE0FFF1FE80FF91FE95CF74F2081DA
:1013C0003181428129833A834B83CE0101960E9469
:1013D0005C4B811105C0B801CE0101960E94C04A44
:1013E0006B2D70E0CE0101960E94F84A56C10E9412
:1013F0004B530E94FA5B20E030E04AE754E40E943D
:10140000615B60937F047093800480938104909368
:10141000820443C1711041C187E090E0F0DB8C0190
:1014200089E090E0ECDBBC01882777FD8095982F60
:101430000E94FC5B20E030E040E85EE30E94745DC7
:101440004B015C0160931604709317048093180499
:1014500090931904B801882777FD8095982F0E94F2
:10146000FC5B90582CEE31E548E35EE30E94745D2E
:101470006093F6037093F7038093F8039093F90356
:10148000C501B4010E94C95B9B0177FF04C02227FC
:101490003327261B370B223031050CF4FEC081E0C8
:1014A00080935104FAC010918A0481E0781232C00E
:1014B00088E090E0C7DB4B015C018CE090E09FDBB3
:1014C00097FF03C0919581959109113091F4BC016A
:1014D000882777FD8095982F0E94FC5B8B019C01EB
:1014E000C12CD12CE12CF12CB501A40183E995E0AC
:1014F000D2C0123009F0D1C0BC01882777FD809599
:10150000982F0E94FC5B8B019C01C12CD12CE12CFB
:10151000F12CBDC082E0781222C088E090E06FDB41
:10152000113061F4BC01882777FD8095982F0E94C7
:10153000FC5BAB01BC0183E995E00EC0123009F001
:10154000ACC0BC01882777FD8095982F0E94FC5B7A
:10155000AB01BC0183E195E00E94D2289EC083E0EC
:1015600078120DC088E090E04ADBBC01113021F018
:10157000123009F092C0D4CC83E995E0D3CC84E05A
:10158000781213C0113031F440E050E0BA0183E921
:1015900095E008C0123009F080C040E050E0BA0188
:1015A00083E195E00E94A92678C085E0781275C095
:1015B00088E090E047DB4B015C018CE090E01FDBB2
:1015C0001130B9F4BC01882777FD8095982F0E94CF
:1015D000FC5B2B013C0144275527BA0148195909E6
:1015E0006A097B09C12CD12CE12CF12C93018201D9
:1015F00048C01230F9F4BC01882777FD8095982FF8
:101600000E94FC5B2B013C01C12CD12CE12CF12C64
:101610008B019C01B501A40183E995E00E94142986
:1016200044275527BA01481959096A097B099301CA
:1016300082012FC0133091F4BC01882777FD80957B
:10164000982F0E94FC5B2B013C01B094A0949094D5
:101650008094811C911CA11CB11C0BC01430E9F4B6
:10166000BC01882777FD8095982F0E94FC5B2B0199
:101670003C01C12CD12CE12CF12C93018201B5014C
:10168000A40183E995E00E94142993018201B50128
:10169000A40183E195E00E941429E6960FB6F89420
:1016A000DEBF0FBECDBFDF91CF911F910F91FF9095
:1016B000EF90DF90CF90BF90AF909F908F907F90F2
:1016C0006F905F904F900895BC01882777FD8095BB
:1016D000982F0E94FC5B9B01AC0160E070EC8FE7EF
:1016E00094E40E94615B20E030E040E85FE30E9408
:1016F000965A9B01AC0160E070E48CE196E40E9494
:10170000615B20E030E44CE156E40E94615B0E94A2
:10171000345D20E030E443E555E40E94615B2FE056
:101720003FEC4BE55BE30E94975A9B01AC0160E004
:1017300070E080E89FE30E94615B23E333E948E8BF
:1017400053E40C94965A08958AE30E941E54909391
:10175000C2048093C104BC01882777FD8095982F2F
:101760000E94FC5B20E030E040E85AE30E94745D98
:1017700020E030E040E751E40C94745D08954F920E
:101780005F926F927F928F929F92AF92BF92CF9211
:10179000DF92EF92FF920F931F93CF93DF9300D0CE
:1017A0001F92CDB7DEB786E497E00E94072F9058CE
:1017B00060937704709378048093790490937A040B
:1017C0002091360430913704409138045091390407
:1017D0000E94965A6B017C0180903E0490903F04D9
:1017E000A0904004B09041040E94C95B672B79F03F
:1017F000A7019601C501B4010E94975A60933E0467
:1018000070933F04809340049093410408C0109269
:101810003E0410923F0410924004109241048090C4
:10182000670490906804A0906904B0906A04809264
:10183000420490924304A0924404B0924504209143
:101840002A0430912B0440912C0450912D04C7019F
:10185000B6010E94745D6B017C0120913E043091C1
:101860003F04409140045091410460912E047091D6
:101870002F0480913004909131040E94745D9B018B
:10188000AC01C701B6010E94975A6B017C012091FF
:101890003204309133044091340450913504C50131
:1018A000B4010E94745D9B01AC01C701B6010E94A6
:1018B000975A6B017C0120E030E0A9010E94245D71
:1018C00020E030E040EA50E418162CF4C701B601DD
:1018D0000E94975A04C0C701B6010E94965A6093AD
:1018E0003A0470933B0480933C0490933D044090F1
:1018F0003A0450903B0460903C0470903D04C090CA
:10190000FA03D090FB03E090FC03F090FD03A701E5
:101910009601C301B2010E94965A4B015C01C301BA
:10192000B2019058A70196010E94965A6B017C0162
:1019300080915104882349F010926304109264044A
:1019400010926504109266043DC083E995E00E9400
:10195000CB2669837A838B839C8383E195E00E9405
:10196000CB262B013C0169817A818B819C810E946D
:10197000C95B8B0177FF04C000271127061B170BDB
:10198000C301B2010E94C95B9B0177FF04C02227FB
:101990003327261B370BB801621B730B882777FD93
:1019A0008095982F0E94FC5B2DEC3CEC4CE85FE3AB
:1019B0000E94745D60936304709364048093650473
:1019C00090936604409063045090640460906504B2
:1019D0007090660420E030E0A901C301B2010E94CA
:1019E000245D20E030E0A9011816D4F5C501B4014A
:1019F0000E94245D1816CCF4C301B2010E94C95B99
:101A00009B0177FF04C022273327261B370BB90120
:101A1000882777FD8095982F0E94FC5B9B01AC0185
:101A2000C701B6010E94965A18C0C301B2010E94B4
:101A3000C95B9B0177FF04C022273327261B370B86
:101A4000B901882777FD8095982F0E94FC5B9B0148
:101A5000AC01C701B6010E94975A6B017C0142C0DC
:101A6000C301B2010E945D5B87FF3CC020E030E013
:101A7000A901C701B6010E94245D1816CCF4C30168
:101A8000B2010E94C95B9B0177FF04C02227332764
:101A9000261B370BB901882777FD8095982F0E9468
:101AA000FC5B9B01AC01C501B4010E94965A18C0B1
:101AB000C301B2010E94C95B9B0177FF04C02227CA
:101AC0003327261B370BB901882777FD8095982F80
:101AD0000E94FC5B9B01AC01C501B4010E94975AB6
:101AE0004B015C0120E030E04FE753ECC501B4014D
:101AF0000E945D5B87FD11C020E030E04FE753E4BA
:101B0000C501B4010E94245D18166CF4812C912C3F
:101B10008FE7A82E83E4B82E06C0812C912C0FE706
:101B2000A02E03ECB02E20E030E04FE753ECC701CD
:101B3000B6010E945D5B87FD11C020E030E04FE7F9
:101B400053E4C701B6010E94245D18166CF4C12C41
:101B5000D12C1FE7E12E13E4F12E06C0C12CD12CAD
:101B6000BFE7EB2EB3ECFB2EC501B4010E94C95BAD
:101B700083E995E00E94E526C701B6010E94C95B92
:101B800083E195E00F900F900F900F90DF91CF9130
:101B90001F910F91FF90EF90DF90CF90BF90AF908B
:101BA0009F908F907F906F905F904F900C94E52660
:101BB0004F925F926F927F928F929F92AF92BF925D
:101BC000CF92DF92EF92FF920F931F93CF93DF9309
:101BD00083E195E00E94CB266B017C0183E995E0CF
:101BE0000E94CB269B01AC01C701B6010E94965A08
:101BF00020E030E040E05FE30E94745D4B015C0157
:101C0000C0901604D0901704E0901804F0901904C6
:101C10002DEC3CEC4CE45FE360916F047091700438
:101C200080917104909172040E94745D2B013C01BB
:101C30002DEC3CEC4CE45EE3C701B6010E94745D00
:101C40009B01AC01C301B2010E94975A60936F04DB
:101C50007093700480937104909372048091510486
:101C6000882361F1C501B4010E94C95B695F7F4FA0
:101C70006F30710518F520E030E0A901C701B60109
:101C80000E945D5B81111AC01092510410926F0482
:101C900010927004109271041092720480916B047F
:101CA00090916C04A0916D04B0916E0480931E0419
:101CB00090931F04A0932004B093210420916F04FB
:101CC000309170044091710450917204C501B401C7
:101CD0000E94965A6B017C0120911E0430911F04D2
:101CE00040912004509121040E94975A8B01D82FD3
:101CF000C92F8091510420E030E84BEB54ECB8013F
:101D0000882309F471C08D2F9C2F0E945D5B87FD95
:101D100010C020E030E84BEB54E4B8018D2F9C2F2D
:101D20000E94245D18164CF400E010E8DBEBC4E4DC
:101D300004C000E010E8DBEBC4ECC801AD2FBC2F01
:101D400080931E0490931F04A0932004B093210459
:101D500020910A0430910B0440910C0450910D0421
:101D6000C701B6010E94745D4B015C0120910E0415
:101D700030910F044091100450911104B8018D2F3F
:101D80009C2F0E94745D9B01AC01C501B4010E94AF
:101D9000975A8B01D82FC92F20E030E040E751EC53
:101DA0000E945D5B87FD10C020E030E040E751E419
:101DB000B8018D2F9C2F0E94245D18164CF400E072
:101DC00010E0D0E7C1E404C000E010E0D0E7C1ECCF
:101DD000A8016D2F7C2F40931A0450931B0460932D
:101DE0001C0470931D0498C08D2F9C2F0E945D5B76
:101DF00087FD10C020E030E84BEB54E4B8018D2F94
:101E00009C2F0E94245D18164CF400E010E8DBEBD8
:101E1000C4E404C000E010E8DBEBC4ECC801AD2F63
:101E2000BC2F80931E0490931F04A0932004B093B2
:101E3000210420910A0430910B0440910C0450912C
:101E40000D04C501B4010E94745D6B017C012091F9
:101E50000E0430910F044091100450911104B80108
:101E60008D2F9C2F0E94745D9B01AC01C701B601B0
:101E70000E94975A6B017C0120E030E040E751EC72
:101E80000E945D5B87FD0FC020E030E040E751E439
:101E9000B601C7010E94245D181654F4C12CD12C40
:101EA00090E781E407C0C12CD12C90E781EC02C0FF
:101EB0009E2D8F2DA601692F782F40931A045093E1
:101EC0001B0460931C0470931D042DEC3CEC4CE44B
:101ED0005FE360916B0470916C0480916D0490914C
:101EE0006E040E94745D4B015C012DEC3CEC4CE4F3
:101EF0005EE3B8018D2F9C2F0E94745D9B01AC01A5
:101F0000C501B4010E94975A60936B0470936C04EE
:101F100080936D0490936E0420911A0430911B04F9
:101F200040911C0450911D0460910A0270910B02B3
:101F300080910C0290910D020E94965A6093360493
:101F4000709337048093380490933904DF91CF91D4
:101F50001F910F91FF90EF90DF90CF90BF90AF90C7
:101F60009F908F907F906F905F904F900895809199
:101F70005204811111C086E497E00E94072F0E944D
:101F8000C95B9B0177FF04C022273327261B370B31
:101F9000253031050CF477C080915204882309F470
:101FA0007CC086E497E00E94072F0E94C95B9B01DA
:101FB00077FF04C022273327261B370B2132310538
:101FC0000CF46BC0109285031092840360E070E003
:101FD00083E995E00E94E52660E070E083E195E00A
:101FE0000E94E52610921E0410921F0410922004F5
:101FF0001092210480910A0290910B02A0910C0290
:10200000B0910D028093360490933704A093380466
:10201000B093390410921604109217041092180409
:10202000109219041092F6031092F7031092F8031D
:102030001092F90340E050E0BA0183E995E00E9474
:10204000A92640E050E0BA0183E195E00E94A9266C
:1020500010921E0410921F0410922004109221046A
:102060001092520410926F04109270041092710436
:1020700010927204109273041092740410927504FA
:1020800010927604089580918403909185030196BF
:1020900090938503809384037FCF809184039091F4
:1020A000850345970CF44CC010928503109284036D
:1020B00010921E0410921F0410922004109221040A
:1020C00060E070E083E995E00E94E52660E070E062
:1020D00083E195E00E94E52680910A0290910B022F
:1020E000A0910C02B0910D028093360490933704B6
:1020F000A0933804B093390440E050E0BA0183E97A
:1021000095E00E94A92640E050E0BA0183E195E005
:102110000E94A9260E944B5360935F047093600451
:10212000809361049093620460935B0470935C04F9
:1021300080935D0490935E0481E08093520408953F
:102140000895CF92DF92EF92FF9211DF80915204B7
:10215000882309F472C00E944B53C0905F04D09052
:102160006004E0906104F09062046C197D098E09AE
:102170009F096B3071058105910558F000DB0E94C5
:102180004B5360935F047093600480936104909359
:1021900062040E944B53C0905B04D0905C04E090BA
:1021A0005D04F0905E046C197D098E099F09653607
:1021B00071058105910508F450C0FADC2DEC3CEC6A
:1021C0004CE45FE360917304709174048091750432
:1021D000909176040E94745D6B017C012DEC3CECC7
:1021E0004CE45EE36091F6037091F7038091F8038D
:1021F0009091F9030E94745D9B01AC01C701B60187
:102200000E94975A609373047093740480937504CA
:10221000909376046093FA037093FB038093FC031E
:102220009093FD030E944B5360935B0470935C0496
:1022300080935D0490935E0410C060E070E083E9D9
:1022400095E00E94E52660E070E083E195E0FF9074
:10225000EF90DF90CF900C94E526FF90EF90DF9009
:10226000CF900895CF93DF938091CC079091CD07C5
:10227000892B79F48BE790E00E94935AEC0168E097
:102280000E94B239D093CD07C093CC07CE010E94F3
:10229000C7398091CC079091CD070E94F539809184
:1022A000CC079091CD070E94F0398093BA04843412
:1022B00009F48DC09091BD04933009F0A7C0893115
:1022C00009F447C008F5893009F447C078F487302D
:1022D00009F447C0883009F095C080910E029091B2
:1022E0000F02880F991F880F991F66C0863109F465
:1022F00089C0883109F45AC08C3009F083C08091BC
:102300000E0290910F0258C08A3479F168F480343B
:10231000E1F0823481F18C3109F074C020910E0219
:1023200030910F0245E032C08A3559F18E35A1F166
:10233000823509F067C080910E0290910F0263E030
:10234000880F991F6A95E1F737C0DF91CF910C9400
:102350003B05DF91CF910C944E05DF91CF910C940A
:10236000B005DF91CF910C94970520910E0230912A
:102370000F0249E00BC020910E0230910F0247E09E
:1023800005C020910E0230910F0246E0429FC0012D
:10239000439F900D112410C020910E0230910F0226
:1023A000C901880F991F820F931F06C080910E02EA
:1023B00090910F02880F991F209110023091110205
:1023C000820F931F90931302809312021FC00E94EA
:1023D000EF058091CC079091CD070E94D6398823D4
:1023E00039F08091CC079091CD070E94F539F1CF5B
:1023F0008091BD048F5F8093BD04853039F41092C5
:10240000BD0404C0DF91CF910C94EF05DF91CF9113
:1024100008958DE095E00E941A4028E730E030935F
:10242000130220931202813059F028F0823099F083
:10243000833001F108950E943B058AE090E015C0C9
:102440000E943B058091BF049091C00482309105A9
:102450004CF101970AC00E943B058091BF04909106
:10246000C00484319105F4F401969093C0048093E4
:10247000BF0408958091BF049091C0040A9711F49D
:102480000E944E058091BF049091C0040A9714F4F5
:102490000E94C9058091BF049091C0040B9714F06D
:1024A0000C94DF050895CF92DF92EF92FF920F9385
:1024B0001F93CF93DF93CDB7DEB72A970FB6F8946B
:1024C000DEBF0FBECDBF65E070E080E090E00E940F
:1024D0007A5326E040E052EC61E070E084E99BE052
:1024E0000E942B5765E070E080E090E00E947A53F4
:1024F00083E995E00E949F2643E050E06FE873E097
:102500000E94385183E195E00E949F2643E050E00D
:102510006FE973E00E9438511092D6031092D703EE
:102520001092D8031092D9031092B6031092B703F9
:102530001092B8031092B9036CE28FE098E00E9409
:1025400058426DE270E083E496E00E949E1D24E60E
:1025500030E040E050E068EE73E083E496E00E94F3
:10256000091E83E496E00E94781E63EE72E084E91F
:102570009BE00E9450596AE474E084E99BE00E9469
:1025800054592FE088E190E00FB6F894A895809315
:1025900060000FBE2093600065E070E080E090E096
:1025A0000E947A5389E897E00E94093565E070E05F
:1025B00080E090E00E947A53A89586E497E00E941C
:1025C000093565E070E080E090E00E947A5361E0B8
:1025D0008DE00E945B5561E0CE0101960E9462246D
:1025E0008AE0FE013196A5EEB4E001900D928A9545
:1025F000E1F762E0CE0101960E9462248AE0FE01CA
:102600003196AFEEB4E001900D928A95E1F763E068
:10261000CE0101960E9462248AE0FE013196A9EF64
:10262000B4E001900D928A95E1F764E0CE01019645
:102630000E9462248AE0FE013196A3E0B5E0019099
:102640000D928A95E1F785EE94E00E9441258FEE88
:1026500094E00E94412589EF94E00E94412583E0A7
:1026600095E00E944125A895A89540E050E0BA0168
:1026700085EE94E00E944C2540E050E0BA018FEED8
:1026800094E00E944C2540E050E0BA0189EF94E0CC
:102690000E944C2540E050E0BA0183E095E00E94A2
:1026A0004C2581E0809380008AE08093810083E064
:1026B0008093B00082E08093B10069E070E083E92C
:1026C00095E00E94732969E070E083E195E00E9443
:1026D000732967E270E083E995E00E94772967E259
:1026E00070E083E195E00E9477297AE9C72E79E9C5
:1026F000D72EED2C7FE3F72E00E010E0980146E6A0
:1027000056E666EE7FE383E995E00E94552900E0F6
:1027100010E0980146E656E666EE7FE383E195E039
:102720000E945529C12CD12C7601970186014CEECF
:1027300051E568E37EE383E995E00E943B29970138
:1027400086014CEE51E568E37EE383E195E00E946B
:102750003B2960E070E083E995E00E94872960E012
:1027600070E083E195E00E94872910925404109252
:10277000530480910A0290910B02A0910C02B09137
:102780000D028093360490933704A0933804B093DD
:10279000390480E090E0A8E8B1E480932A049093A3
:1027A0002B04A0932C04B0932D04C0922E04D0923D
:1027B0002F04E0923004F09231048DEC9CECACE4F8
:1027C000BEEB8093320490933304A0933404B0930F
:1027D00035048DEC9CECACECBDEB80930A0490933B
:1027E0000B04A0930C04B0930D048FE692E1A3E0D8
:1027F000BCEB80930E0490930F04A0931004B0934D
:1028000011040E94B7040E944B5360935F047093BD
:102810006004809361049093620460935B047093FE
:102820005C0480935D0490935E040E944B5360931C
:102830005704709358048093590490935A042A962D
:102840000FB6F894DEBF0FBECDBFDF91CF911F91C1
:102850000F91FF90EF90DF90CF900895CF93DF938B
:10286000C7E3D8E0CE010E94F549239688E0CB3536
:10287000D807C1F78FE298E00E9487238CE198E0A7
:102880000E946D478FE098E00E94A04283E098E0AC
:1028900036D78FEF97E00E946A418EEC97E00E9456
:1028A000903A48E660E089E897E00E94EC2E49E61D
:1028B00061E086E497E00E94EC2E8FE197E00E94B1
:1028C000821E8BE197E00E94193AC7E4D6E0CE0160
:1028D0000E945344E59687E0CB31D807C1F783E4E3
:1028E00096E00E94981D8CE396E00E94163886E3DD
:1028F00096E00E94C22E80E396E00E94D72E8AE2E4
:1029000096E00E94ED4783E196E062D661E083E9BC
:1029100095E00E94372762E083E195E00E94372727
:1029200069E08DE095E00E941940C5EED4E0CE014B
:102930000E9472242A9685E0CD30D807C1F76DEE4B
:1029400072E08AE494E0DF91CF910C94425A8AE4D9
:1029500094E00E94DB598FE098E00C943743682F95
:1029600084E99BE00C94C7568FEFF9DF85E5F7CF3C
:102970008FEFF5DF85E5F3DF0C94FB05CF93C82FD0
:1029800081E0EDDF8C2FCF91EACFEF92FF920F9392
:102990001F93CF93DF937C01FC01C4810C2F158121
:1029A00084E0DDDF8C2FDBDFC0E0D0E0C017D10793
:1029B0003CF4BE01C7010E94855AD1DF2196F6CFB3
:1029C000DF91CF911F910F91FF90EF900895FF92AB
:1029D0000F931F93CF93DF931F92CDB7DEB78B0179
:1029E000F82E82E09983BBDFA8016F2D9981792FA2
:1029F0004093E1045093E2046093E3047093E40491
:102A0000802FADDF8091E204AADF8091E304A7DF8D
:102A10008091E4040F90DF91CF911F910F91FF906F
:102A20009ECF1F93CF93DF9300D0CDB7DEB7182F83
:102A300086E069837A839B8392DF69816093E104F6
:102A40007A817093E2041093E3049B819093E404F1
:102A5000862F85DF8091E20482DF8091E3047FDFAF
:102A60008091E4040F900F900F90DF91CF911F9110
:102A700076CF1F93CF93DF931F92CDB7DEB7182F7A
:102A800083E099836CDF1093DF0499819093E004D5
:102A9000812F65DF8091E0040F90DF91CF911F912E
:102AA0005ECFCF92DF92EF92FF920F931F93CF935F
:102AB000DF93CDB7DEB727970FB6F894DEBF0FBE12
:102AC000CDBF10918904482F50E04E33510508F0D6
:102AD000BEC2FA01EE58FF4F0C94895F80910D0839
:102AE00090910E08009751F00E948341811791F058
:102AF00080910D0890910E080E94945A8EE090E00B
:102B00000E94935A7C01612F0E94F147F0920E08B7
:102B1000E0920D0860E971E080910D0890910E0837
:102B20000E946C486B017C011FDF8091BE0417DF9F
:102B3000C701B6018BC200918A048CE198E00E9423
:102B40008341811367C28CE198E00E948641801323
:102B500061C28CE198E00E94874778C28FEF97E0CE
:102B60000E948341811761F0612F8FEF97E00E94EF
:102B7000E7418FEF97E00E940D4260E00E945B55B5
:102B80008FEF97E00E94D7412BC08FEF97E00E9414
:102B90008341811761F0612F8FEF97E00E94E74139
:102BA0008FEF97E00E940D4260E00E945B558FEF2F
:102BB00097E00E94D7410E94640B48C200918A04AA
:102BC0008BE197E00E948341811729F0612F8BE10F
:102BD00097E00E94E741602F8BE197E00E941B3A4B
:102BE000BC01882777FD8095982F0E94FC5B2EC240
:102BF0008091CC079091CD070097E1F04F960E940D
:102C00008341811731F1E090CC07F090CD07E114BA
:102C1000F10481F081E393E0F70191838083C701A0
:102C200082599F4F0E94DB59C7010E94FC4FC70188
:102C30000E94945A8BE790E00E94935A7C01612F86
:102C40000E94B239F092CD07E092CC07C7010E94F2
:102C5000C7398091CC079091CD070E94F039682F39
:102C60008093BA048FEF860F8E3F08F476C060E041
:102C700070E0CB01EBC18FEF97E00E948341811799
:102C800061F0612F8FEF97E00E94E7418FEF97E0AF
:102C90000E940D4260E00E945B5560E08FEF97E07C
:102CA0000E949A414CC08FEF97E00E9483418117A8
:102CB00099F0612F8FEF97E00E94E7418FEF97E047
:102CC0000E940A4260E00E945B558FEF97E00E94ED
:102CD0000D4260E00E945B5560E08FEF97E00E943C
:102CE0008941182F60E08FEF97E00E949A41612F91
:102CF00070E0660F771F680F711D882777FD80953C
:102D0000982F73CF00918A048FEF97E00E94834140
:102D1000811387C18FEF97E00E948641801381C1A4
:102D20008FEF97E0013069F40E940A4262E00E944E
:102D30005B5560E08FEF97E00E9489418027682F04
:102D40000CC00E940D4262E00E945B5560E08FEF74
:102D500097E00E949A4161E0682770E080E090E08F
:102D60000E94FA5B73C18FE197E00E948341811753
:102D7000A9F0612F8FE197E00E94E7418FE197E092
:102D80000E940D42482F8FE197E04F830E940A4234
:102D90004F81682F8FE197E00E946F228FE197E0CB
:102DA0000E94772253C100918A048CE396E00E942E
:102DB0008341811729F0612F8CE396E00E94E7415F
:102DC0008CE396E00E941938602F8CE396E00E9415
:102DD000F238182FC9DD8091BE04C1DD812F18C1E2
:102DE00086E396E00E9483418117A9F0612F86E374
:102DF00096E00E94E74186E396E00E940A42482F4F
:102E000086E396E04F830E940D424F81682F86E350
:102E100096E00E94C52E86E396E00E94D52E1FC044
:102E200080E396E00E9483418117A9F0612F80E33F
:102E300096E00E94E74180E396E00E940A42482F14
:102E400080E396E04F830E940D424F81682F80E31C
:102E500096E00E94DA2E80E396E00E94EA2E09DED8
:102E6000F6C060918A041111E3C089E897E06F838E
:102E70000E94022F6F81883609F0E9C089E897E047
:102E8000E3C06AE474E0CE0101960E946C5ACE0160
:102E900001967BDDCE0101960E94DB59D8C060E02F
:102EA000812F0E945B55812F0E94C95599CEE12F39
:102EB000F0E0EE0FFF1FEC5EFD4F108160E0812F10
:102EC0000E945B55812F0E941E548ACE87E090E0BD
:102ED0000E94FF057C0160E0812F0E945B559701F5
:102EE000442737FD4095542F61E0812F0E94F15512
:102EF0007DC000918A0461E0812F0E945B5560E0F3
:102F0000812F0E94945582E090E00E94B15361E0CD
:102F1000812F0E9494558AE090E00E94B15360E0B6
:102F2000812F0E94945560E0802F0E945B5520E322
:102F300035E740E050E061E0802F0E94F1556B01E1
:102F40007C0165E070E080E090E00E947A530CDD47
:102F50008091BE0404DDC701B60147CE60917B04B9
:102F600070917C0480917D0490917E046FC08AE210
:102F700096E00E948341811729F0612F8AE296E052
:102F80000E94E7418AE296E00E94EF4741C083E158
:102F900096E00E948341811729F0612F83E196E03A
:102FA0000E94E74181E02091B80490918A0429179A
:102FB00079F180E02DC011114AC090918A0480916E
:102FC0008B04913059F4813019F483E995E00CC0F9
:102FD000823009F03CC083E995E00EC09230B9F52B
:102FE000813031F483E195E00E94CC281ADD2FC0B6
:102FF000823069F583E195E00E94CB2627C0103727
:1030000019F40E94A40B22C0113709F58091BD0468
:10301000B5DC1DC0402F612F8CE198E00E947647FF
:1030200098CD402F612F8FEF97E00E94F74178CE27
:10303000113069F486E497E06F830E94022F6F815C
:10304000893629F486E497E00E949731C0DC279600
:103050000FB6F894DEBF0FBECDBFDF91CF911F91A9
:103060000F91FF90EF90DF90CF9008951F93CF9333
:10307000DF931F92CDB7DEB710925604809186047D
:1030800090918704109188048093BE049230E1F0FF
:1030900018F4913039F093C09430D1F0953009F4A0
:1030A00089C08DC0113041F0173131F0143221F058
:1030B00089835ADC898153DC812FF3DC0F90DF9107
:1030C000CF911F910C94FB05812F0E940D0772C0B8
:1030D00060E070E083E995E00E94E52660E070E042
:1030E00083E195E00E94E52640E050E0BA0183E9E3
:1030F00095E00E94A92640E050E0BA0183E195E006
:103100000E94A9261092D6031092D7031092D803DA
:103110001092D9031092B6031092B7031092B8031D
:103120001092B90361E08FE298E00E94972360E07B
:1031300070E08FE298E00E94A32362E08FE298E0C3
:103140000E94972360E070E08FE298E00E94A32342
:1031500063E08FE298E00E94972360E070E08FE2E6
:1031600098E00E94A32364E08FE298E00E949723F6
:1031700060E070E08FE298E00E94A32340E050E01E
:10318000BA0185EE94E00E944C2540E050E0BA017F
:103190008FEE94E00E944C2540E050E0BA0189EFA8
:1031A00094E00E944C2540E050E0BA0183E095E0B5
:1031B0000E944C250F90DF91CF911F91D9CB0F909A
:1031C000DF91CF911F9108951092550484E99BE0FF
:1031D0000E941D56181619064CF481E08093550480
:1031E00084E99BE00E9436568093B7040895ECDF93
:1031F00080915504882309F447C08091B7049091C9
:103200005604853561F491110AC08091B9048F3F4D
:10321000E1F481E08093BC048093560416C080934F
:10322000B904992391F0E091BC04E23019F4809341
:10323000BB0407C0E33028F09091BB0491509093F9
:10324000BB04F0E0ED57FB4F80838091BC048F5F9F
:10325000843318F48093BC0404C01092BC04109210
:10326000560480915604882369F08091BB04811133
:1032700009C08091BC04843028F010925604F6DE18
:103280001092BC0481E008950895CF93DF9380915C
:103290000D0890910E08892B61F48EE090E00E9459
:1032A000935AEC016AE00E94F147D0930E08C09354
:1032B0000D0886E990E090931302809312028091AA
:1032C0000D0890910E08009709F46BC060E971E059
:1032D0000E946C480E94C95B7093C6046093C50449
:1032E0009B012551310923313105F8F46CE271E07D
:1032F00080E090E00E9474597093C4046093C3040A
:103300006F3B71055CF080915304811107C081E02F
:1033100080935404DF91CF910C94970581E08093C2
:103320005304DF91CF910C94B00561507109633162
:10333000710578F56CE271E080E090E00E947459CC
:103340007093C4046093C3046F3B71058CF00E94BA
:103350006105CCE2D1E0A8954ADF811122C062E08C
:1033600070E080E090E00E947A532197A1F719C0A5
:103370000E947C05CCE2D1E0A89539DF811111C013
:1033800062E070E080E090E00E947A532197A1F71C
:1033900008C01092540410925304DF91CF910C9402
:1033A0003B05DF91CF9108950F931F930E944B53DC
:1033B0000E94FA5B20E030E04AE754E40E94615B3F
:1033C00020917F04309180044091810450918204C7
:1033D0000E94965A60937B0470937C0480937D04D2
:1033E00090937E0483E196E0F5D08093B8040E9428
:1033F0004B53009157041091580420915904309177
:103400005A04601B710B820B930B693E734081055C
:10341000910598F00E944B536093570470935804A1
:103420008093590490935A046091500481E0682776
:10343000609350048DE00E949455A8958091CC072C
:103440009091CD07892B11F00E94321187E496E00C
:103450000E944C478CE796E00E944C4781EB96E037
:103460000E944C4786EE96E00E944C470E94A40BB7
:1034700083E995E00E94A82E83E195E00E94A82EA2
:10348000A3DE11E080915504882309F448C080919F
:10349000B70490915604853559F4911109C0809173
:1034A000B9048F3FD9F41093BC041093560416C08E
:1034B0008093B904992391F0E091BC04E23019F4AF
:1034C0008093BB0407C0E33028F09091BB04915077
:1034D0009093BB04F0E0ED57FB4F80838091BC04D8
:1034E0008F5F8093BC0470DE8091BC04843320F035
:1034F0001092BC041092560480915604882311F255
:103500008091BB048111BECF8091BC04843008F44B
:10351000B9CF10925604AADD1092BC04B3CF86E452
:1035200097E00E94C43189E897E00E94672F8FE1FD
:1035300097E00E948341882319F08FE197E0D7D765
:1035400086E497E00E940D2F6093670470936804EF
:103550008093690490936A048091BD048823A9F143
:10356000813079F460E070E083E995E00E9487297A
:1035700060E070E083E195E00E9487291F910F9140
:1035800084CE823081F460E070E083E995E00E94AF
:10359000872960E070E083E195E00E9487291F9110
:1035A0000F910C94A110843081F460E070E083E905
:1035B00095E00E94872960E070E083E195E00E9439
:1035C00087291F910F910C9409121F910F91089553
:1035D0000C946A41CF92DF92EF92FF920F931F9368
:1035E000CF93DF93EC010C891D890E944B53CC8053
:1035F000DD80EE80FF809B01AC012C193D094E0956
:103600005F0969017A0139E0C316D104E104F104CC
:10361000E8F16C837D838E839F83CE010E94D74126
:10362000488559856A857B85452B462B472B49F470
:10363000AC01662757FD6095762F488B598B6A8BB6
:103640007B8B488959896A897B89841B950B97FFF5
:1036500003C0919581959109449764F44C855D85EB
:103660006E857F854F5F5F4F6F4F7F4F4C875D87C4
:103670006E877F87488559856A857B854F5F5F4F59
:103680006F4F7F4F488759876A877B8788859985E1
:10369000AA85BB850597A105B105D1F418861986C1
:1036A0001A861B868C859D85AE85BF850397A105EF
:1036B000B10540F088899989AA89BB898C019D8BC5
:1036C0008C8B02C00C891D891C861D861E861F8658
:1036D000C80164E670E00E94385F6830710528F424
:1036E000FB01E950FD4F808101C080E0DF91CF9167
:1036F0001F910F91FF90EF90DF90CF9008950C9461
:103700006A410F931F93CF93DF93EC01062F18E0CC
:1037100060E088850E94945500FF02C061E001C00E
:1037200060E089850E949455069561E088850E9435
:103730009455115069F760E088850E94945561E0C6
:1037400089850E94945561E088850E94945560E0C7
:1037500089850E945B5518EC89850E94C955892B83
:1037600059F01150C9F761E089850E945B5560E00E
:1037700089850E949455EFCF61E08985DF91CF91D3
:103780001F910F910C945B55CF93DF93EC0161E097
:1037900088850E94945561E089850E94945560E077
:1037A00089850E94945560E08885DF91CF910C94C3
:1037B0009455CF93DF93EC0160E088850E94945587
:1037C00060E089850E94945561E088850E94945547
:1037D00061E08985DF91CF910C949455CF92DF926F
:1037E000FF920F931F93CF93DF931F92CDB7DEB756
:1037F0006C01F62E7983C8DF60E4C60182DFC60162
:10380000D8DFC601C1DFF6016581C6017ADF0F2D61
:103810007981172F84E0F82EF80161918F01C6019C
:1038200070DFFA94C9F7C601C4DFC601ADDFF60147
:103830006681C60166DFC6010F90DF91CF911F91AF
:103840000F91FF90DF90CF90B4CF4F925F926F9225
:103850007F928F929F92AF92BF92CF92DF92EF9220
:10386000FF920F931F93CF93DF9300D01F92CDB79A
:10387000DEB76A017B01890137FD48C0B9016F5F7E
:103880007F4F882777FD8095982F0E94FC5B9B01D6
:10389000AC0160E070E080E291E40E94D75D4B01F2
:1038A0005C019B01AC01C701B6010E94615B0E94F3
:1038B000375C2B013C01B801882777FD8095982F54
:1038C0000E94FC5B9B01AC0160E070E080E291E44F
:1038D0000E94D75D69837A838B839C83A5019401C1
:1038E000C301B2010E94745D9B01AC01C701B60126
:1038F0000E94965A29813A814B815C810E94615BCA
:103900000E94375C0E94C95BCB011FC088249924A8
:10391000821A930AA12CB12C20E030E040E251E45D
:10392000C701B6010E94745D6B017C018FEFA81A7C
:10393000B80AA814B90484F3C701B6010E94C95B90
:10394000CB016AE070E00E94385F0F900F900F90FB
:103950000F90DF91CF911F910F91FF90EF90DF902B
:10396000CF90BF90AF909F908F907F906F905F901F
:103970004F900895DB0180E090E22C91223208F014
:103980009C93EC91F0E0EA59FD4FE491ED938F5F49
:10399000843099F70895EF92FF920F931F93CF937E
:1039A000DF9300D01F92CDB7DEB78C01DB01FE01A3
:1039B0003196CE0105967F012D912193E817F907E5
:1039C000D9F7B701C801D6DFB701C80107DF0F90EB
:1039D0000F900F900F90DF91CF911F910F91FF905B
:1039E000EF900895CF93DF9300D01F92CDB7DEB74D
:1039F00020E229832A832B832C83BE016F5F7F4FB4
:103A0000CADF0F900F900F900F90DF91CF91089524
:103A1000CF93DF93EC016A83E62FF0E0EE0FFF1FF8
:103A2000EE5AFD4F81818983908198838887998799
:103A300061E00E945B5561E089850E945B5580E4EE
:103A40008C8380EC8D838AE88E83CE01DF91CF91C9
:103A5000C9CF8F929F92AF92BF92CF92DF92EF9297
:103A6000FF920F931F93CF93DF9300D01F92CDB798
:103A7000DEB75C016A017B0119821A821B821C82FB
:103A800020E030E0A901C701B6010E945D5B87FF1D
:103A900009C0F7FAF094F7F8F09481E28983992449
:103AA000939401C0912C03E010E0812C9801B701A0
:103AB000A601C501CADE181619062CF0002319F05C
:103AC0008820B9F00CC001110AC0E1E0F0E0EC0F71
:103AD000FD1FE90DF11D20E1280F208307C0E1E063
:103AE000F0E0EC0FFD1FE90DF11D80839394882415
:103AF000839483E0891530F0015011090C3F8FEF5A
:103B00001807A1F6BE016F5F7F4FC50144DF0F901C
:103B10000F900F900F90DF91CF911F910F91FF9019
:103B2000EF90DF90CF90BF90AF909F908F900895CF
:103B30000E946A4188E080935B08089560935B0867
:103B400008954F925F926F927F928F929F92AF9261
:103B5000BF92CF92DF92EF92FF920F931F93CF937A
:103B6000DF93762E6801790160935B089A0140E04B
:103B700050E060E472E48FE090E00E946D5FE90144
:103B8000590137FF03C08FEFA81AB80A85011595B0
:103B9000079561E0872D0E945B55A8EEB3E0A70171
:103BA00096010E949E5F2B013C01C12CD12C760115
:103BB0004E01AA2497FCA094BA2CC414D504E604A0
:103BC000F704B0F461E080915B080E949455C8014D
:103BD0000E94B15360E080915B080E949455C80137
:103BE0000E94B153A895C80CD91CEA1CFB1CE5CF58
:103BF000DF91CF911F910F91FF90EF90DF90CF90C9
:103C0000BF90AF909F908F907F906F905F904F90FC
:103C100008954F925F926F927F928F929F92AF9290
:103C2000BF92CF92DF92EF92FF920F931F93CF93A9
:103C3000DF9369017A019B0140E050E060E472E4A7
:103C40008FE090E00E946D5FE901890137FF02C0BB
:103C50000F5F1F4F1595079561E080915B080E94EB
:103C60005B55A8EEB3E0A70196010E949E5F4B0151
:103C70005C01C12CD12C76012E01662457FC609486
:103C8000762CC814D904EA04FB04B0F461E08091F6
:103C90005B080E949455C8010E94B15360E0809176
:103CA0005B080E949455C8010E94B153A895C40CAA
:103CB000D51CE61CF71CE5CFDF91CF911F910F912A
:103CC000FF90EF90DF90CF90BF90AF909F908F903C
:103CD0007F906F905F904F900895862F60935B0860
:103CE00061E00E945B5560E080915B080C94945504
:103CF00061E080915B080E945B5560E080915B0809
:103D00000C949455CF93DF93EC0160E00E947341D3
:103D10008EE18B871C82DF91CF910895AF92BF9285
:103D2000CF92DF92EF92FF920F931F93CF93DF9387
:103D3000CDB7DEB76A970FB6F894DEBF0FBECDBF22
:103D40008C01CE0101967C01C12CD12C5C01C601F5
:103D50000E945062F70181937F01FFEFCF1ADF0AC3
:103D60008AE1C816D10499F72D813E814F8158858B
:103D700069817A818B819C810E94975A29853A8535
:103D80004B855C850E94975A2D853E854F855889C5
:103D90000E94975A29893A894B895C890E94975ACF
:103DA0002D893E894F89588D0E94975A6B017C015D
:103DB000698D70E080E090E00E94FC5B9B01AC01AB
:103DC000C701B6010E94975A20E030E04AE253E46E
:103DD0000E94975A0E94CE5B8A8D68130CC08AE1BC
:103DE000F501D8011D9601900D928A95E1F781E0C9
:103DF000F801848302C0F80114826A960FB6F89421
:103E0000DEBF0FBECDBFDF91CF911F910F91FF900D
:103E1000EF90DF90CF90BF90AF900895CF92DF9258
:103E2000EF92FF920F931F93CF93DF938C01EB01DF
:103E30002C813D814E815F81688179818A819B815E
:103E40000E94975A288539854A855B850E94975A32
:103E50002C853D854E855F850E94975A2889398932
:103E60004A895B890E94975A2C893D894E895F89CE
:103E70000E94975A6B017C01688D70E080E090E0B1
:103E80000E94FC5B9B01AC01C701B6010E94975ADE
:103E900020E030E04AE253E40E94975A0E94CE5B51
:103EA000698FE12CF12C6991C7010E9458628FEF54
:103EB000E81AF80AEAE1EE16F104A9F781E0F80140
:103EC0008483DF91CF911F910F91FF90EF90DF904E
:103ED000CF900895EF92FF921F93CF93DF931F929D
:103EE000CDB7DEB7162F7A01FC01638587E89AE02B
:103EF00029830E94094C612F87E89AE00E94C24BF7
:103F00002981813091F4422F50E0B70187E89AE08F
:103F10000E94964B61E087E89AE00F90DF91CF9185
:103F20001F91FF90EF900C94134C8FEF0F90DF9147
:103F3000CF911F91FF90EF900895CF93DF931F9241
:103F4000CDB7DEB7498321E0AE014F5F5F4FC2DFDF
:103F50000F90DF91CF910895EF92FF920F931F93EF
:103F6000CF93DF93EC01F62E8A01E22E6B8587E872
:103F70009AE00E94094C6F2D87E89AE00E94C24B9C
:103F8000813001F560E087E89AE00E94134C8111CE
:103F90002EC081E090E00E94B15321E04E2D6B8550
:103FA00087E89AE00E94734CE80100E010E0F12CF1
:103FB00087E89AE00E946B4B892B31F00E151F05A4
:103FC00074F002C08FEF13C081E090E00E94B15303
:103FD00081E00E151F0509F480E0819508C00F5F90
:103FE0001F4F87E89AE00E94734B8993E1CFDF91DE
:103FF000CF911F910F91FF90EF900895CF93DF9392
:10400000EC01AC014B5F5F4F23E06AE0A5DF81115B
:104010000AC08D81883439F48E81843321F481E0A3
:104020009F81933309F080E0DF91CF910895CF9283
:10403000DF92EF92FF920F931F93CF93DF93EC01E8
:104040006B018A0179013BD0AE014B5F5F4F26E0E7
:1040500063E0CE0181DF882321F0992787FD9095C9
:1040600025C08C85813029F441E062E070E0CE010A
:1040700064DF8D8190E0982F88272E81822BF601B6
:1040800091838083898590E0982F88272A85822BC9
:10409000F801918380838F8190E0982F882728856D
:1040A000822BF7019183808380E090E0DF91CF91B4
:1040B0001F910F91FF90EF90DF90CF9008952F9276
:1040C0003F924F925F926F927F928F929F92AF92A8
:1040D000BF92CF92DF92EF92FF920F931F93CF93F5
:1040E000DF93CDB7DEB76C970FB6F894DEBF0FBE87
:1040F000CDBF8C0162E00E9489418111B5C16AE0A7
:1041000070E080E090E00E947A5362E0C8010E9473
:1041100089418111A9C1C80171DF882309F4A4C1B3
:104120000E944B536B017C01712CBB24B39462E061
:10413000C8010E948941811116C00E944B536C191D
:104140007D098E099F09693C71058105910578F308
:10415000A8950E944B536B017C017B24672DC801FD
:104160000E94BB41E4CF64E670E080E090E00E94F2
:104170007A530E944B534B015C012FEF3FE7388B82
:104180002F8740E050E85E874D878FEF9FE79C8741
:104190008B87E0E0F0E8FA87E98738872F83212CC6
:1041A00050E8352E662463940E944B536C197D09A8
:1041B0008E099F09693C71058105910550F0A8950C
:1041C0000E944B536B017C017624672DC8010E942D
:1041D000BB410E944B53681979098A099B096B30CE
:1041E000710581059105E0F1A8959E012F5F3F4F74
:1041F000AE014D5F5F4FBE016B5F7F4FC80117DFA0
:104200008D819E814F815885841795072CF0281643
:10421000390624F41C0102C098878F838B819C810E
:10422000EB85FC858E179F0744F029853A85281772
:1042300039072CF49A87898702C09C878B878981EC
:104240009A814F8558898417950744F0ED85FE853E
:10425000E817F9072CF49E878D8702C0988B8F870B
:1042600062E0C8010E94894181119ECF60E0C801CF
:104270000E94BB41B101882777FD8095982F0E944D
:10428000FC5B6B017C012F813885B901882777FDA4
:104290008095982F0E94FC5B698B7A8B8B8B9C8B13
:1042A0009B01AC01C701B6010E94975A905820E0CB
:1042B00030E040E05FE30E94745DF8016587768737
:1042C0008787908B29853A85B901882777FD809566
:1042D000982F0E94FC5B2B013C014B855C85BA0149
:1042E000882777FD8095982F0E94FC5B6D8B7E8BD5
:1042F0008F8B988F9B01AC01C301B2010E94975A2A
:10430000905820E030E040E05FE30E94745DF801E7
:10431000618B728B838B948B2D853E85B9018827A9
:1043200077FD8095982F0E94FC5B4B015C014F85C7
:104330005889BA01882777FD8095982F0E94FC5BE9
:10434000698F7A8F8B8F9C8F9B01AC01C501B40163
:104350000E94975A905820E030E040E05FE30E94CE
:10436000745DF801658B768B878B908F80E090E091
:10437000A0E8BFE3818F928FA38FB48F29893A89F8
:104380004B895C89C701B6010E94965A6B017C017A
:104390002D893E894F89588DC301B2010E94965ADA
:1043A000A70196010E94615BF801658F768F878F68
:1043B00090A3298D3A8D4B8D5C8DC501B4010E946F
:1043C000965AA70196010E94615BF80161A372A34E
:1043D00083A394A32F813885221A330A37FE03C0A2
:1043E00031942194310889859A854B855C85841B9D
:1043F000950B97FF03C09195819591092D853E8579
:10440000EF85F8892E1B3F0B37FF03C031952195AF
:104410003109821593052CF02215330514F081E043
:1044200009C0281639062CF02817390714F082E045
:1044300001C083E0F80185A3B801635F7F4FC80125
:10444000EDDC61E0C8010E94BB4162E0C8010E944E
:104450008941811102C0A895F8CFA89564E670E063
:1044600080E090E00E947A536C960FB6F894DEBF1D
:104470000FBECDBFDF91CF911F910F91FF90EF90B5
:10448000DF90CF90BF90AF909F908F907F906F9074
:104490005F904F903F902F900895CF93DF93EC0162
:1044A00087E89AE00E94004C61E0CE010E94BB4187
:1044B00040E760E070E0CE0140DD40E261E070E0A6
:1044C000CE013BDD81E08C8741E062E070E0CE010F
:1044D00034DDCE0123DCCE01DF91CF91F0CD6093AE
:1044E0005D0840935C08FC0160834183D6CF2F9226
:1044F0003F924F925F926F927F928F929F92AF9274
:10450000BF92CF92DF92EF92FF920F931F93CF93C0
:10451000DF93CDB7DEB762970FB6F894DEBF0FBE5C
:10452000CDBF8C01CCDD9E012F5F3F4FAE014D5FB3
:104530005F4FBE016B5F7F4FC80179DD882349F073
:10454000682F772767FD7095872F972F0E94FC5B58
:10455000C5C0F80184812D803E802B813C81388745
:104560002F83882309F478C0458456846784708833
:10457000818C928CA38CB48CB901882777FD8095AF
:10458000982F0E94FC5BF801218932894389548964
:104590000E94975AF801258D368D478D50A10E94B3
:1045A000745D0E94C95B6F83788789879A87698168
:1045B0007A81882777FD8095982F0E94FC5BF8010F
:1045C000258936894789508D0E94975AF80121A183
:1045D00032A143A154A10E94745D0E94C95B6B8704
:1045E0007C878D879E87F80115A1113041F42B85BA
:1045F0003C85B901882777FD8095982F32C0B1019D
:10460000882777FD8095982F0E94FC5BA30192017B
:104610000E94975AA50194010E94745D0E94C95B93
:104620004B015C01123089F42B853C85B901882748
:1046300077FD8095982F0E94FC5B9B01AC01B40133
:10464000882777FD8095982F17C0133019F5882794
:1046500077FD8095982F05C0B101882777FD80955B
:10466000982F0E94FC5B9B01AC01EF81F885BF0194
:10467000882777FD8095982F2F87388B498B5A8B09
:104680000E94FC5B2F85388949895A890E940A5B00
:104690006B017C0120E030E0A901C701B6010E9456
:1046A0005D5B87FF0DC02BED3FE049EC50E4C70197
:1046B000B6010E94975A20E030E044E353E406C07C
:1046C00020E030E044E353E4C701B6010E94745D8A
:1046D0002BED3FE049E450E40E94615B62960FB627
:1046E000F894DEBF0FBECDBFDF91CF911F910F9128
:1046F000FF90EF90DF90CF90BF90AF909F908F9002
:104700007F906F905F904F903F902F90089560E062
:104710000E94734181E0809380008BE08093810050
:1047200083E08093B00084E08093B1000895CF933C
:10473000DF93EC010E94E74184EF91E09F838E8339
:10474000DF91CF9108950F931F93CF93DF938C0147
:104750006F3F710519F014F06FEF70E0EB016130FD
:104760008FEF780714F4C1E0DFEFF80186819781BD
:104770008C179D07C9F0D783C683D7FD06C061E0BB
:10478000C8010E94BB41BE0108C060E0C8010E9490
:10479000BB41662777276C1B7D0BC801DF91CF914A
:1047A0001F910F910C94E341DF91CF911F910F91D5
:1047B00008954F925F926F927F928F929F92AF92E5
:1047C000BF92CF92DF92EF92FF920F931F93CF93FE
:1047D000DF9300D01F92CDB7DEB7FC01C982DA8229
:1047E000EB82FC8295EA90832183C2828A81838353
:1047F0008B8184838C81858346015701CF01069686
:104800003801C12CD12C7601C814D904EA04FB0468
:1048100061F0D3012D913D01DC012D93CD01BFEF5E
:10482000CB1ADB0AEB0AFB0AEFCF2401350126E0A5
:10483000420E511C611C711CD801C12CD12C760177
:1048400080E0C814D904EA04FB0441F09D91892753
:104850009FEFC91AD90AE90AF90AF3CFDF01A40DBB
:10486000B51D8C9397018601085F1F4F2F4F3F4F57
:10487000A7E0CA0ED11CE11CF11CEC0DFD1D8AE560
:104880008083401751076207730728F460E070E0E7
:1048900080E090E002C0B801C9010F900F900F9026
:1048A0000F90DF91CF911F910F91FF90EF90DF90CC
:1048B000CF90BF90AF909F908F907F906F905F90C0
:1048C0004F9008951F93CF93DF93EC01162F60E074
:1048D0000E94734111501C8389E08D83DF91CF9139
:1048E0001F910895CF93DF93EC0160E00E94734124
:1048F0001C8289E08D83DF91CF9108958EE598E049
:104900000C945B358EE598E00C948435AF92BF92A1
:10491000CF92DF92EF92FF920F931F93CF93DF938B
:10492000EC016B017A0159016D8187E89AE00E94E0
:10493000094CA501B60187E89AE00E94964B87E8EA
:104940009AE00E94844C82E090E00E94B1536D8115
:1049500070E0A80187E89AE00E94824C82E090E033
:104960000E94B153C0E087E89AE00E946B4B892B0C
:1049700051F087E89AE00E94734BF701EC0FF11DAC
:104980008083CF5FF0CFDF91CF911F910F91FF9088
:10499000EF90DF90CF90BF90AF9008956F927F928D
:1049A0008F929F92AF92BF92CF92DF92EF92FF923F
:1049B0000F931F93CF93DF93CDB7DEB768970FB6F2
:1049C000F894DEBF0FBECDBF3C018AE04E012BE064
:1049D000820E911CF401282F11922A95E9F7FE010D
:1049E00031965F0111928A95E9F7F30184818F8BEB
:1049F00087E0888F82E0C82ED12CE12CF12C8E012B
:104A0000095E1F4F21E04AE050E060E070E0C40121
:104A1000D0DE0AE010E02AE030E0A501B401C301D5
:104A200075DF2AE030E040E050E0B5018EE598E027
:104A30000E94BD351E8A1D8A22E030E040E050E031
:104A4000BE016B5E7F4F8EE598E00E94CC3781E01F
:104A50009E89911101C080E068960FB6F894DEBF80
:104A60000FBECDBFDF91CF911F910F91FF90EF90BF
:104A7000DF90CF90BF90AF909F908F907F906F907E
:104A80000895CF93DF93EC0187E89AE00E94004CF1
:104A9000CE01DF91CF9182CF6F927F928F929F92C2
:104AA000AF92BF92CF92DF92EF92FF920F931F933C
:104AB000CF93DF93CDB7DEB76E970FB6F894DEBF16
:104AC0000FBECDBF3C016A017B0120E030E048E42D
:104AD00053E4C701B6010E94245D18168CF020E053
:104AE00030E048E453ECC701B6010E945D5B87FFEC
:104AF0000DC0C12CD12C58E4E52E53ECF52E06C088
:104B0000C12CD12C68E4E62E63E4F62ECE0101968A
:104B10004C018EE0F40111928A95E9F75E01FFE005
:104B2000AF0EB11C8AE0F50111928A95E9F78E016A
:104B3000075E1F4F86E0F80111928A95E9F7F301AD
:104B40008481898F85E08A8FCB8EDC8EED8EFE8E00
:104B500046E0C42ED12CE12CF12C21E04EE050E0B7
:104B600060E070E0C40125DE0AE010E02EE030E0F5
:104B7000A501B401C301CADE2AE030E040E050E004
:104B8000B5018EE598E00E94BD358EE598E00E9463
:104B9000603680E06E960FB6F894DEBF0FBECDBFD4
:104BA000DF91CF911F910F91FF90EF90DF90CF9009
:104BB000BF90AF909F908F907F906F9008952F92AD
:104BC0003F924F925F926F927F928F929F92AF929D
:104BD000BF92CF92DF92EF92FF920F931F93CF93EA
:104BE000DF93CDB7DEB7A8970FB6F894DEBF0FBE40
:104BF000CDBF4C011A012B016801790120E030E0A2
:104C000048E453E4C701B6010E94245D18168CF0F5
:104C100020E030E048E453ECC701B6010E945D5B40
:104C200087FF0DC0C12CD12CE8E4EE2EE3ECFE2E64
:104C300006C0C12CD12CF8E4EF2EF3E4FF2E20E0C7
:104C400030E0A901C201B1010E945D5B811105C084
:104C5000B701A601C40120DF59C0CE0101963C0175
:104C600082E1F30111928A95E9F78AE05E01FDE1A4
:104C7000AF0EB11CF501982F11929A95E9F78E01AC
:104C80000D5E1F4FF80111928A95E9F7F4018481B6
:104C90008B8B81E18C8B2D8A3E8A4F8A588EC98EF0
:104CA000DA8EEB8EFC8E7AE0C72ED12CE12CF12C23
:104CB00021E042E150E060E070E0C3017ADD0AE00B
:104CC00010E022E130E0A501B301C4011FDE2AE0BB
:104CD00030E040E050E0B5018EE598E00E94BD353F
:104CE0008EE598E00E94603618A61FA222E030E010
:104CF00040E050E0BE01695D7F4F8EE598E00E9484
:104D0000CC3781E098A5911101C080E0A8960FB63C
:104D1000F894DEBF0FBECDBFDF91CF911F910F91F1
:104D2000FF90EF90DF90CF90BF90AF909F908F90CB
:104D30007F906F905F904F903F902F9008958E5886
:104D40009F4FFC018081089582599F4FFC01808113
:104D50000895FC0146A357A360A771A70895FC011D
:104D600046A157A160A571A54F5F5F4F6F4F7F4F61
:104D700046A357A360A771A70895FC0146A157A1B8
:104D800060A571A5415051096109710946A357A356
:104D900060A771A70895FC01628573858485958558
:104DA000089522E0FC0120839B016F3F710519F0FB
:104DB00014F02FEF30E02130FFEF3F0714F421E033
:104DC0003FEFFC01378326830895EF92FF920F9304
:104DD0001F93CF93DF93FC016F3F710519F014F01F
:104DE0006FEF70E0EB0161308FEF780714F4C1E0F2
:104DF000DFEF808591858C179D0791F1D187C08762
:104E0000D583C483DF01A059BF4FCF018F589F4F77
:104E10007C018F0101591F4FD7FF0EC060E08C91BC
:104E20000E94945561E0F70180810E9494556627A5
:104E300077276C1B7D0B0AC061E08C910E94945512
:104E400060E0F70180810E949455BE01F8018081E5
:104E5000DF91CF911F910F91FF90EF900C944354ED
:104E6000DF91CF911F910F91FF90EF9008959F9246
:104E7000AF92BF92CF92DF92EF92FF920F931F9368
:104E8000CF93DF93EC01DC01AD58BF4F6C9385E00D
:104E9000982E969EF0011124EC5CFD4F80818E01CE
:104EA00003591F4FD8018C935E01BEE6AB0EB11CB7
:104EB0009181D5019C93119692819C936E01B0E7EC
:104EC000CB0ED11C9381D6019C937E01B1E7EB0EF2
:104ED000F11C9481F701908362E00E945B5562E0CF
:104EE000D5018C910E945B5562E0F60180810E94A1
:104EF0005B5562E0D7018C910E945B551EA21FA2F8
:104F000018A619A684EF91E099878887188289E00E
:104F100090E09B838A8348E651E16DE172E44E8B19
:104F20005F8B688F798FF8018081823119F4359613
:104F300090821AC0833111F484E003C0843131F4CB
:104F400083E0FE01EE58FF4F80830EC0853111F4DF
:104F500082E0F7CF833011F481E0F3CF823021F487
:104F6000FE01EE58FF4F108260E070E0CE012DDFB1
:104F70001EA21FA218A619A60E944B53CA58DF4FA3
:104F8000688379838A839B83DF91CF911F910F91EF
:104F9000FF90EF90DF90CF90BF90AF909F900895DB
:104FA0002F923F924F925F926F927F928F929F9239
:104FB000AF92BF92CF92DF92EF92FF920F931F9327
:104FC000CF93DF9300D000D0CDB7DEB79E838D8323
:104FD0000E944B530D811E810A581F4FF801C0805B
:104FE000D180E280F3806C197D098E099F096531BB
:104FF00071058105910508F465C00E944B536983D2
:105000007A838B839C83ED81FE81C6A0D7A0E0A428
:10501000F1A482A193A1A4A1B5A1228033804688E6
:105020005788608C718CA7019601281B390B4A0B9D
:105030005B0BCA01B9010E94FC5B4B015C01F801EA
:105040008081918169817A81681B790B80E090E091
:105050000E94FA5B9B01AC0160E070E08AE794E497
:105060000E94615B9B01AC01C501B4010E94745DAB
:1050700020E030E040E752E40E94745D4B015C01A7
:10508000B101882777FD8095982F0E94FC5BA301D2
:1050900092010E94745D9B01AC01C501B4010E94A4
:1050A000615BED81FE816287738784879587C2A2E9
:1050B000D3A2E4A2F5A20E944B53F801608371834E
:1050C0008283938326960FB6F894DEBF0FBECDBFC2
:1050D000DF91CF911F910F91FF90EF90DF90CF90D4
:1050E000BF90AF909F908F907F906F905F904F9008
:1050F0003F902F900895AF92BF92CF92DF92EF92A0
:10510000FF920F931F93CF93DF9300D01F92CDB7E1
:10511000DEB75C01FC0166A177A180A591A50281A3
:10512000138126893789408D518D29833A834B839A
:105130005C830E94FC5B6B017C01B801882777FDD2
:105140008095982F0E94FC5B29813A814B815C817C
:105150000E94745D9B01AC01C701B6010E94615BB6
:1051600020E030E044EB53E40E94745D0E94C95B90
:10517000F501628F738F848F958F0F900F900F9032
:105180000F90DF91CF911F910F91FF90EF90DF90E3
:10519000CF90BF90AF900895FC01628D738D848D88
:1051A000958D0895FC0181E0808381834687578730
:1051B000608B718BE659FF4F10820895CF92DF927A
:1051C000EF920F931F93FC0106871787208B318B7B
:1051D000DC01A459BF4FEC9212971C9281E08083AE
:1051E0001182468F578F60A371A35496CD92DC92A3
:1051F000468D578D60A171A1028D138D248D358D43
:10520000401B510B620B730BE559FF4F141615062B
:105210001606170614F4808301C010821F910F91A7
:10522000EF90DF90CF9008958F929F92AF92BF92B0
:10523000CF92DF92EF92FF920F931F93FC01828C2B
:10524000938CA48CB58C840E951EA61EB71E868EDC
:10525000978EA0A2B1A2468D578D60A171A1AEDF3D
:105260001F910F91FF90EF90DF90CF90BF90AF9084
:105270009F908F900895CF92DF92EF92FF920F93BD
:105280001F93FC0142A753A764A775A706A717A7FA
:1052900020AB31ABC2AAD3AAE4AAF5AA1F910F9101
:1052A000FF90EF90DF90CF900895CF92DF92EF9232
:1052B000FF920F931F93FC01E65BFF4F40835183E6
:1052C00062837383349600831183228333833496FD
:1052D000C082D182E282F3821F910F91FF90EF9002
:1052E000DF90CF900895FC01738362830895CF937C
:1052F000DF93EC01882777FD8095982F0E94FC5B57
:105300006E8B7F8B888F998FDF91CF910895FC01F1
:10531000608308952F923F924F925F926F927F9297
:105320008F929F92AF92BF92CF92DF92EF92FF92B5
:105330000F931F93CF93DF9300D01F92CDB7DEB7AB
:105340001C01DC015E966D917D918D919C919197F0
:105350005A960D911D912D913C915D97601B710B9B
:10536000820B930B0E94FC5B6B017C015101BAE63E
:10537000AB0EB11CF501808181010C581F4F8111CA
:10538000ABC13196808120E030E0A901882339F05B
:10539000C701B6010E945D5B87FF32C006C0C7012E
:1053A000B6010E94245D18165CF5D1011A962D9164
:1053B0003D914D915C911D97F101EE5AFF4F608137
:1053C0007181828193810E94745DDC01CB01B058B0
:1053D000F101E65AFF4F80839183A283B3836081FA
:1053E0007181828193810E94C95BF801718360831E
:1053F00021E0D5012C93F10175836483CB01B7C201
:1054000020E030E0A901C701B6010E94245D260119
:105410003701181624F077FA709477F87094D10158
:105420001E966D917D918D919C91519720E030E079
:1054300040EC50E40E94745D9B01AC01C301B201D9
:105440000E94245D87FFE5C120E030E0A901C7018B
:10545000B6010E94245D18165CF420E030E040E2C2
:1054600051E4C701B6010E94245D18165CF034C1F6
:1054700020E030E040E251ECC701B6010E945D5BE4
:1054800087FF2AC1F101468457846088718820E033
:1054900030E040E251E4C701B6010E94965A4B0148
:1054A0005C0120E030E040EC50E4C301B2010E9416
:1054B000745DA50194010E94745D20E030E0A901B3
:1054C0000E94245D181694F4D1011E966D917D9171
:1054D0008D919C91519720E030E040EC50E40E9487
:1054E000745DA50194010E94745D10C0F101668590
:1054F00077858089918920E030E040EC50E40E947B
:10550000745DA50194010E94745D90580E94275E0D
:1055100020E030E040EC50E40E94615B2B013C0154
:10552000D1011A968D909D90AD90BC901D9720E072
:1055300030E0A901C701B6010E94245DA7019601D0
:1055400018160CF05058B1016E5A7F4FDB018D9147
:105550009D910D90BC91A02D89839A83AB83BC83D0
:10556000C701B6010E94615B9B01AC01C301B2019E
:105570000E94745D9B01AC01C501B4010E94965A62
:105580009B01AC0169817A818B819C810E94745D51
:105590004B015C0120E030E040EA51EC0E945D5B91
:1055A00087FD11C020E030E040EA51E4C501B401BC
:1055B0000E94245D18166CF4812C912C50EAA52EC3
:1055C00051E4B52E06C0812C912C40EAA42E41EC6A
:1055D000B42EF80160817181882777FD8095982F1E
:1055E0000E94FC5BFAE52F0E311CD1016D937D9377
:1055F0008D939C9313976D917D918D919C91A501B5
:1056000094010E94965AF10160837183828393838F
:1056100020E030E0A901C701B6010E94245DD1015C
:1056200087FD23C06D917D918D919C9120E030E0AC
:1056300048EC51E40E945D5B87FD12C0F10160817E
:1056400071818281938120E030E04FE753E40E9432
:10565000245D18161CF580E090E0AFE7B3E42DC0A0
:1056600080E090E0A8ECB1E428C06D917D918D912F
:105670009C9120E030E04FE753EC0E945D5B87FD9A
:1056800013C0F101608171818281938120E030E05B
:1056900048EC51EC0E94245D18165CF0F101808109
:1056A0009181A281B38109C080E090E0AFE7B3ECC3
:1056B00004C080E090E0A8ECB1ECF101808391831C
:1056C000A283B38360817181828193810E94C95BCF
:1056D000F8017183608399C081E0D5018C93F10159
:1056E000E258FF4F0190F081E02D309749F0D10151
:1056F000A459BF4F6C9170E017968C9190E019956A
:10570000F1012285338544855585EE5AFF4F60812E
:105710007181828193810E94745D4B015C0120E064
:1057200030E040EA51EC0E945D5B87FD11C020E053
:1057300030E040EA51E4C501B4010E94245D18162E
:105740006CF4812C912C30EAA32E31E4B32E06C0E8
:10575000812C912C20EAA22E21ECB22EF101E65BE5
:10576000FF4F2081318142815381C701B6010E94E0
:10577000745DFAE52F0E311CD1016D937D938D93ED
:105780009C9313976D917D918D919C91A5019401AE
:105790000E94965AF10160837183828393836081B2
:1057A00071818281938120E030E04FE753EC0E94C9
:1057B0005D5B87FD13C0D1016D917D918D919C91B1
:1057C00020E030E04FE753E40E94245D18165CF0BF
:1057D000F10180819181A281B38109C080E090E0D4
:1057E000AFE7B3EC04C080E090E0AFE7B3E4F101D1
:1057F00080839183A283B38360817181828193814D
:105800000E94C95BD8016D937C93F80180819181DE
:10581000AEC0D1011A968D919D910D90BC91A02D95
:1058200089839A83AB83BC83F10186849784A088A3
:10583000B18820E030E0A901C701B6010E94245DD3
:10584000181624F0A7019601505802C0A70196012E
:10585000F10142A453A464A475A4C701B6010E9437
:10586000615B9B01AC01C501B4010E94745D9B01A9
:10587000AC0169817A818B819C810E94965A9B013F
:10588000AC01C301B2010E94745D6B017C0120E098
:1058900030E048EC51EC0E945D5B87FD11C020E0D8
:1058A00030E048EC51E4C701B6010E94245D1816AF
:1058B0006CF4C12CD12C78ECE72E71E4F72E06C0E5
:1058C000C12CD12C68ECE62E61ECF62ED8016D913E
:1058D0007C91882777FD8095982F0E94FC5BF101D1
:1058E00062AF73AF84AF95AF62AD73AD84AD95AD6C
:1058F000A70196010E94965AD101DA966D937D9385
:105900008D939C93DD97DA966D917D918D919C910D
:10591000DD9720E030E04FE753EC0E945D5B87FDB0
:1059200013C0F10162AD73AD84AD95AD20E030E000
:105930004FE753E40E94245D18165CF0F10182AD3C
:1059400093ADA4ADB5AD09C080E090E0AFE7B3EC96
:1059500004C080E090E0AFE7B3E4F10182AF93AF21
:10596000A4AFB5AF62AD73AD84AD95AD49CF0F9027
:105970000F900F900F90DF91CF911F910F91FF909B
:10598000EF90DF90CF90BF90AF909F908F907F90DF
:105990006F905F904F903F902F900895AF92BF927D
:1059A000CF92DF92EF92FF920F931F93CF93DF93EB
:1059B000EC016A857B858C859D852E853F85488990
:1059C0005989CAA4DBA4ECA4FDA40E94965A9B01A9
:1059D000AC01C701B6010E94745D6B017C0120E03F
:1059E00030E048EC51EC0E945D5B87FD11C020E087
:1059F00030E048EC51E4C701B6010E94245D18165E
:105A00006CF4C12CD12CF8ECEF2EF1E4FF2E06C083
:105A1000C12CD12CE8ECEE2EE1ECFE2E8E010C58C0
:105A20001F4FF80160817181882777FD8095982F3D
:105A30000E94FC5B6AAF7BAF8CAF9DAF6AAD7BAD64
:105A40008CAD9DADA70196010E94965A6AAF7BAFBF
:105A50008CAF9DAF5E01FAE6AF0EB11CF5018081FF
:105A6000882329F01AAE1BAE1CAE1DAE1EC06E857B
:105A70007F858889998920E030E0A9010E945D5BDB
:105A8000811113C020E030E0A901C701B6010E94D6
:105A9000245D18168CF520E030E040E751E4C701A2
:105AA000B6010E945D5B87FD31C06AAD7BAD8CADF8
:105AB0009DAD20E030E04FE753EC0E945D5B87FD39
:105AC00011C06AAD7BAD8CAD9DAD20E030E04FE7FD
:105AD00053E40E94245D181654F08AAD9BADACAD22
