:1000000017C300000C944B510C947C510C94AD51CF
:100010000C94DE510C940F520C9440520C9471527B
:100020000C94A2520C94214F0C94214F0C94214F0C
:1000300030C300000C944C392CC300002AC30000CC
:1000400028C300000C942D4924C3000022C30000E3
:1000500020C300001EC300001CC300000C94D35238
:1000600018C300000C9467570C949D5712C30000EE
:1000700010C300000EC300000CC300000AC3000040
:100080000C945A4906C3000004C3000002C30000D8
:1000900000C30000FEC20000FCC200000C94024D30
:1000A000F8C20000F6C200000C948749F2C20000BA
:1000B000F0C20000EEC20000ECC200000C94B44993
:1000C000E8C20000E6C20000E4C200000C9412582E
:1000D0000C944858DEC20000DCC20000DAC2000006
:1000E000D8C200002C175915861599159915C915F0
:1000F0001C17991512181218121812181218121823
:1001000012182616E3153E161218121812186D163C
:10011000B217BE16DB16FB169E16B0151218121873
:100120003A1742171218121812181218641751179A
:10013000121812181218121812181218121812186F
:1001400012181218121812189917A217121812184A
:10015000121812181218121812181218EA17C617C5
:100160002551EF50F7500351105131513E51275452
:100170002C5431543B544554BE544F5457545F543F
:10018000695473547D548C549654BE54A054AA544C
:10019000B454E054E354D254D654DC541A55E754C2
:1001A000EB54F154F554F954FF54035507551A55BF
:1001B0000D5511551555084AD73B3BCE016E84BCF1
:1001C000BFFDC12F3D6C74319ABD56833DDA3D00B1
:1001D000C77F11BED9E4BB4C3E916BAAAABE0000FA
:1001E00000803F08000000BE922449123EABAAAA3C
:1001F0002ABECDCCCC4C3E00000080BEABAAAAAA41
:100200003E00000000BF000000803F000000000032
:10021000084178D3BB4387D1133D190E3CC3BD427F
:1002200082AD2B3E68EC8276BED98FE1A93E4C8030
:10023000EFFFBE01C4FF7F3F0000000000076342E4
:1002400036B79BD8A71A39685618AEBAAB558C1D6D
:100250003CB7CC5763BD6DEDFD753EF6177231BFEF
:10026000000000803F003F065B4F666D7D077F6F9B
:10027000777C395E7971BF86DBCFE6EDFD87FFEFD6
:10028000F7FCB9DEF9F100407C447C007C005C5452
:100290007454547C70107C74545C7C545C40407C7E
:1002A0007C547C74547C000400202020000000203A
:1002B00000000000000030007C82827C003100429F
:1002C000FE0200003200468A92620033004492929D
:1002D0006C0034001C64FE04003500F292928C0025
:1002E00036007C92924C003700C08E90E0003800BF
:1002F0006C92926C0039006492927C006100042A36
:100300002A1E006200FE12120C0063000C12121270
:100310000064000C1212FE0065001C2A2A180066F8
:1003200000103E50500067000815151E006800FEC2
:10033000101E00006900002E0000006A0002012E5D
:1003400000006B00FE081412006C0000FE020000AA
:100350006D001E100E100E6E001E10100E006F00AD
:100360000C12120C0070001F12120C0071000C1203
:10037000121F0072001E08101000730012292512AF
:10038000007400103E12000075001C02021E007670
:100390001804020418007718061C061800780012CA
:1003A0000C0C120079001805051E007A0012161AAE
:1003B000120041007E88887E004200FE92926C000E
:1003C00043007C828244004400FE82827C0045001F
:1003D000FE929282004600FE9090800047007C8250
:1003E000925C004800FE1010FE00490082FE820070
:1003F000004A000C0202FC004B00FE1028C6004C14
:1004000000FE020202004D00FE403040FE4E00FEA3
:10041000403008FE4F007C8282827C5000FE90902B
:10042000600051007C828A847A5200FE98946200B7
:1004300053006492924C00540080FE80800055006E
:10044000FC0202FC005600F00C020CF05700FE0407
:100450003804FE5800C63838C60059C0201E20C0D7
:10046000005A00869AB2C2002C00010E0C00002E29
:10047000000006060000257254781E2A4E21000056
:100480007A0000003F00204A3000002D00101010BC
:1004900010002B08083E0808002F00020C30400016
:1004A0002A2214081422003A00001400000022003E
:1004B000C000C000002328FE28FE28002800007C81
:1004C000820000290000827C00003B000224000022
:1004D000007E0040804080003B0002240000003D80
:1004E0000028282828007C0000FE0000003E008232
:1004F000442810003C001028448200400000000006
:10050000000000000A0B02090C0D0E08070304018D
:1005100000000000000000000000000000000000DB
:1005200000000000000000000000000000001211A8
:1005300010000000000000000000000000000000AB
:100540000000000000000000010210202008081038
:100550002040102040800201020108040201010233
:10056000040810204080804020100804020180040C
:100570000201804020100804020108040201010267
:100580000408102040800102040810204080050566
:100590000505070508080808020202020A0A0808F9
:1005A0000404040401010101010101010303030327
:1005B00003030303040707070C0C0C0C0C0C0C0CB6
:1005C0000202020206060606060606060B0B0B0BC7
:1005D0000B0B0B0B000020002300260029002C0031
:1005E0002F00320000010000030106010901000094
:1005F0002200250028002B002E00310034000201CB
:100600000000050108010B01000021002400270063
:100610002A002D0030003300010100000401070111
:100620000A0119146924214CCF577A5892146D2469
:1006300011241FBECFEFD1E2DEBFCDBF00E00CBF63
:1006400013E0A0E0B2E0E0E6F4EC00E00BBF02C093
:1006500007900D92A437B107D9F72CE0A4E7B3E0D7
:1006600001C01D92A83DB207E1F716E0CCE2D6E04A
:1006700000E006C022970109FE010BBF0E94675FE0
:10068000C232D10780E00807A9F70E94BE580C9437
:100690001F62B6CCCF92DF92EF92FF920F931F931F
:1006A000E82FF92F05C0015011092109310961F125
:1006B000908196239417B9F305C0015011092109BF
:1006C000310911F1908196239413F7CFC12CD12CCD
:1006D000E12CF12C0AC08FEFC81AD80AE80AF80AF0
:1006E0000C151D052E053F0579F0808186238417A2
:1006F00091F36C2D7D2D8E2D9F2D1F910F91FF90CD
:10070000EF90DF90CF90089560E070E080E090E09F
:100710001F910F91FF90EF90DF90CF90089583E8A5
:1007200095E00E948F260E948955892B21F483E849
:1007300095E00C94A82683E895E00C949A2683E033
:1007400095E00E948F260E948955892B21F483E031
:1007500095E00C94A82683E095E00C949A260C94DE
:1007600011620C940962CF92DF92EF92FF920F9385
:100770001F93CF93DF931F921F92CDB7DEB76C010B
:100780008B017C0184E0E80EF11CC60169837A8349
:100790000E940962F80181938F01FFEFCF1ADF0AEF
:1007A00069817A81CE14DF0481F7CB010F900F901D
:1007B000DF91CF911F910F91FF90EF90DF90CF903D
:1007C0000895EF92FF920F931F93CF93DF931F92A1
:1007D000CDB7DEB77C01FC0100811181C8016983BE
:1007E0000E9409626981681719F0C8010E941162AC
:1007F000C7010F90DF91CF911F910F91FF90EF9064
:100800000895BF92CF92DF92EF92FF920F931F93C2
:10081000CF93DF9300D0CDB7DEB78C01B62EE62E96
:10082000F72E6C0184E0C80ED11CF70161917F01A5
:100830001A830983CE0101967B83C3DF0F5F1F4FAD
:100840007B810C151D0589F78B2D972F0F900F902D
:100850000F90DF91CF911F910F91FF90EF90DF905C
:10086000CF90BF900895CF92DF92EF92FF920F93B7
:100870001F93CF93DF931F921F92CDB7DEB76C010A
:100880008C0183E5E82EF12CF80161918F01FA8249
:10089000E982CE01019695DFFFEFEF1AFF0A87E5A7
:1008A000E816F10489F7C6010F900F90DF91CF9100
:1008B0001F910F91FF90EF90DF90CF9008956BEA1A
:1008C00080E590E04CDF6DEC81E590E048DF6BEA7D
:1008D00082E590E044DF8AE092E0C5DF6AE174E0FF
:1008E00087E590E08EDF6EE174E08BE590E089DFD4
:1008F00062E274E08FE590E084DF6AEF73E083E604
:1009000090E07FDF6EEF73E087E690E07ADF62E0F1
:1009100074E08BE690E075DF6AED73E08FE690E0BF
:1009200070DF6FEE83E790E01ADF6BEA82E890E019
:1009300016DF6091AD0483E890E011DF6FEE84E88C
:1009400090E00DCF6BEA80E890E009DF6DEC81E884
:1009500090E005DF6BEA82E890E001DF6091AD0492
:1009600083E890E0FCDE6FEE84E890E0F8CE0F9331
:100970001F93CF93DF9380E590E0F3DE8B3A29F469
:1009800081E590E0EEDE8D3C71F099DF80E890E04B
:10099000E8DE8B3A09F04BC081E890E0E2DE8D3C66
:1009A00009F045C049C082E590E0DBDE8B3A09F0F2
:1009B00037C083E790E0D5DE8F3E91F50AE012E084
:1009C000C3E5D0E0CE010E940962F80181938F0156
:1009D0002196C735D105B1F76AE174E087E590E06B
:1009E000C2DE6EE174E08BE590E0BDDE62E274E0B1
:1009F0008FE590E0B8DE6AEF73E083E690E0B3DE67
:100A00006EEF73E087E690E0AEDE62E074E08BE6C6
:100A100090E0A9DE6AED73E08FE690E0A4DEB6CF49
:100A200061E772E084E99BE00E942C59AFCFDF912F
:100A3000CF911F910F9186CF82E890E092DE8B3AA2
:100A400081F484E890E08DDE8F3E59F483E890E0F5
:100A50000E9409628093AD04DF91CF911F910F91A5
:100A6000089567E972E084E99BE0DF91CF911F91DF
:100A70000F910C942C596091120270911302719590
:100A80006195710983E895E00E94D0266091120279
:100A90007091130283E095E00C94D02660911202CD
:100AA0007091130283E895E00E94D02660911202B3
:100AB0007091130271956195710983E095E00C9432
:100AC000D026609112027091130277FF02C06D5F11
:100AD0007F4F759567957595679583E895E00E94BA
:100AE000D02660911202709113027195619571097F
:100AF00083E095E00C94D02660911202709113026D
:100B000083E895E00E94D026609112027091130252
:100B100077FF02C06D5F7F4F7595679575956795F7
:100B200071956195710983E095E00C94D0266091F0
:100B300012027091130271956195710983E895E035
:100B40000E94D026609112027091130277FF02C0BA
:100B50006F5F7F4F7595679583E095E00C94D02685
:100B6000609112027091130277FF02C06F5F7F4F96
:100B70007595679571956195710983E895E00E9477
:100B8000D026609112027091130283E095E00C94DC
:100B9000D0266091120270911302719561957109CE
:100BA00083E895E00E94D0266091120270911302B2
:100BB00071956195710983E095E00C94D026609160
:100BC00012027091130283E895E00E94D026609192
:100BD00012027091130283E095E00C94D02660E03D
:100BE00070E083E895E00E94D02660E070E083E04A
:100BF00095E00C94D02684E99BE00C941959FC01F3
:100C0000ED58FB4F80818093CF0481818093D00485
:100C10008091CF049091D0040895A1EDB4E0FC013F
:100C2000ED58FB4F80818C9381818093D204828127
:100C30008093D30483818093D4046D917D918D91B1
:100C40009C910895FC01ED58FB4F80818093D10465
:100C500081818093D20482818093D30483818093A5
:100C6000D4046091D1047091D2048091D304909106
:100C7000D4040895E6E8F3E020E030E08D589B4F7F
:100C80002617370744F4DC01A20FB31F4C914193A0
:100C90002F5F3F4FF5CFFB01EA57FC4F108286E8EC
:100CA00093E00895E6E7F3E020E030E08D589B4FB5
:100CB000261737075CF42031310541F0DC01A20F23
:100CC000B31F4C9141932F5F3F4FF2CF86E793E0E4
:100CD0000895FC01DB0112964D915D916D917C911F
:100CE0001597428353836483758316968C91169768
:100CF000868317964D915D916D917C911A974783EC
:100D00005087618772871B964D915D916D917C91A3
:100D10001E9743875487658776871F964D915D910F
:100D20006D917C9152974787508B618B728B539654
:100D30004D915D916D917C915697438B548B658B52
:100D4000768B57964D915D916D917C915A97478B1B
:100D5000508F618F728F5B964D915D916D917C91FB
:100D60005E97438F548F658F768F5F964D915D911F
:100D70006D917C919297478F50A361A372A3939634
:100D80004D915D916D917C91969743A354A365A37A
:100D900076A397964D915D916D917C919A9747A31B
:100DA00050A761A772A79B964D915D916D917C9123
:100DB0009E9743A754A765A776A79F964D915D91EF
:100DC0006D917C91D29747A750AB61AB72ABD39634
:100DD0008C91D39783ABD4968C9184ABCF0108953B
:100DE000E7EBF4E020E030E04191519148175907DA
:100DF00091F0452B41F4F901EE0FFF1FE954FB4F31
:100E00009183808308C02F5F3F4F2C30310561F7FD
:100E100080E090E00895C90108954F925F926F922B
:100E20007F928F929F92AF92BF92CF92DF92EF927A
:100E3000FF920F931F93CF93DF93CDB7DEB7E69763
:100E40000FB6F894DEBF0FBECDBF7090790480322C
:100E500009F478C240F58A3009F442C078F485304C
:100E600009F452C020F4833009F43BC201C4883035
:100E700009F456C1893009F4C4C1FAC38C3009F4AD
:100E8000FFC008F49AC1843109F43DC28E3109F0E3
:100E9000EFC361E0872D0E941B5560917A04872D76
:100EA0000E945455E5C3823309F4A1C258F482323A
:100EB00009F454C208F472C28832B9F1893209F4D3
:100EC000B5C1D6C38C3309F459C120F4843309F475
:100ED000A1C2CEC38D3399F08E3309F4E4C2C8C3E6
:100EE00087E090E08CDE5C01672D8FE198E00E9446
:100EF0008223B5018FE198E00E948E23B9C371105F
:100F0000B7C310917A0421C386E090E078DEBC017B
:100F100083E895E00E94BC2688E090E070DEBC018A
:100F200083E095E00E94BC26A3C387E090E067DEE3
:100F30008C0189E090E086DE4B015C0181E0781253
:100F400025C061E0CE0101960E944C44BE016F5F56
:100F50007F4F87E396E0BDDEB501A40187E396E00D
:100F60000E944E46B801882777FD8095982F0E94F1
:100F7000B55B4B015C01AB01BC0187E396E00E94CD
:100F80006446B501A40187E396E027C082E07812A9
:100F900027C062E0CE0101960E944C44BE016F5F03
:100FA0007F4F8CE696E095DEB501A4018CE696E0D5
:100FB0000E944E46B801882777FD8095982F0E94A1
:100FC000B55B4B015C01AB01BC018CE696E00E9475
:100FD0006446B501A4018CE696E00E94BE4648C373
:100FE00083E0781225C063E0CE0101960E944C4454
:100FF000BE016F5F7F4F81EA96E06BDEB501A40111
:1010000081EA96E00E944E46B801882777FD8095D8
:10101000982F0E94B55B4B015C01AB01BC0181EADA
:1010200096E00E946446B501A40181EA96E0D5CF1E
:1010300084E078121DC364E0CE0101960E944C4406
:10104000BE016F5F7F4F86ED96E043DEB501A401E0
:1010500086ED96E00E944E46B801882777FD809580
:10106000982F0E94B55B4B015C01AB01BC0186ED82
:1010700096E00E946446B501A40186ED96E0ADCFEE
:1010800020917A0488E090E02EABB9DD8C018AE0F3
:1010900090E0C3DD4B015C012EA9213071F4B80151
:1010A000882777FD8095982F0E94B55B8B019C0166
:1010B000B501A40185ED94E00FC0223081F4B801A0
:1010C000882777FD8095982F0E94B55B8B019C0146
:1010D000B501A4018FED94E00E94CA25C9C2233056
:1010E00071F4B801882777FD8095982F0E94B55B31
:1010F0008B019C01B501A40189EE94E0EDCF243071
:1011000009F0B6C2B801882777FD8095982F0E9414
:10111000B55B8B019C01B501A40183EF94E0DCCFAA
:1011200040917A04A0907B0410917C04B0907D04DF
:1011300000917E04772031F0672D8FEF97E00E94B9
:10114000FC4105C06CE28FEF97E00E944442AA2068
:1011500049F06FEF6A0D2B2D412F8FEF97E00E9422
:10116000954207C0202F4B2D612F8FEF97E00E94F3
:10117000E4428FEF97E00E9410437AC210917A0404
:1011800081E1781275C22BDD153050F41093AD0457
:1011900083E890E0E6DA811709F46AC2612F09C09A
:1011A0001092AD0483E890E0DCDA882309F460C291
:1011B00060E083E890E0D3DA5BC280917A04E72DA7
:1011C000F0E0EE0FFF1FEE5AFD4F813011F4008169
:1011D00001C00181B0907B0410E0C80101DEFC0178
:1011E000EE0FFF1FE80FF91FE95DF74F20813181F6
:1011F000428129833A834B8384EB8B1508F438C2F0
:10120000E4C083EF97E00E946F41871529F0672DB6
:1012100083EF97E00E94F31C87E090E0FEDCAB01D7
:10122000BC0183EF97E00E94141D22C28EEB97E071
:101230000E946F41871529F0672D8EEB97E00E9481
:10124000CF3A80917A048130C1F410917B044091AF
:101250007C0460917D04772767FD70958BE090E0BA
:101260004EAB08DD612F772767FD70959C014EA975
:101270008EEB97E00E94EB3CFBC1823099F4B0907A
:101280007B0440917C0460E170E08AE090E04EAB2A
:1012900009DD8C0120E14EA96B2D8EEB97E00E94B9
:1012A000F63AE6C1833079F421E080917B04811124
:1012B00001C020E040917D0460917C048EEB97E0BA
:1012C0000E94253DD5C1843009F0D2C188E090E06C
:1012D000A4DCAB01BC0123E08EEB97E00E94F53D5E
:1012E000C7C18FEE97E00E946F41871529F0672DE7
:1012F0008FEE97E00E94D34161E080917A048111E2
:1013000013C060E011C08FEE97E00E946F41871517
:1013100029F0672D8FEE97E00E94D34180917A04E7
:10132000823038F4682F61708FEE97E00E94974109
:101330009FC161E0823009F460E08FEE97E00E9487
:10134000A74196C161E0872D0E941B5520917A0428
:10135000622F70E0872D0E9403548AC161E0872DBF
:101360000E941B5587E090E04ADC5C0189E090E038
:1013700046DC672D70E0181619065CF48C012227F4
:1013800017FD2095322FA50183E396E00E948C1D66
:101390006FC183E396E00E94581E6AC1B0907A0440
:1013A00084EB8B1508F464C1072D10E0C80118DD2B
:1013B000FC01EE0FFF1FE80FF91FE95DF74F2081D9
:1013C0003181428129833A834B83CE0101960E9469
:1013D000484B811105C0B801CE0101960E94AC4A6C
:1013E0006B2D70E0CE0101960E94E44A41C10E943B
:1013F0001D530E94B35B20E030E04AE754E40E94B2
:101400001A5B60936F0470937004809371049093DF
:1014100072042EC171102CC187E090E0F0DB8C01CA
:1014200089E090E0ECDBBC01882777FD8095982F60
:101430000E94B55B20E030E040E85EE30E942D5D55
:101440004B015C01609306047093070480930804C9
:1014500090930904B801882777FD8095982F0E9402
:10146000B55B90582CEE31E548E35EE30E942D5DBC
:101470006093E6037093E7038093E8039093E90396
:10148000C501B4010E94825B9B0177FF04C0222743
:101490003327261B370B223031050CF4E9C081E0DD
:1014A00080934104E5C010917A0481E0781229C04C
:1014B00088E090E0C7DB4B015C018CE090E09FDBB3
:1014C000113081F4BC0180E090E00E94B35B8B019D
:1014D0009C01C12CD12CE12CF12CB501A40183E895
:1014E00095E0C4C0123009F0C3C0BC0180E090E0B8
:1014F0000E94B35B8B019C01C12CD12CE12CF12CFF
:10150000B1C082E078121EC088E090E078DB113034
:1015100051F4BC0180E090E00E94B35BAB01BC01E0
:1015200083E895E00CC0123009F0A2C0BC0180E055
:1015300090E00E94B35BAB01BC0183E095E00E94A8
:10154000BD2896C083E078120DC088E090E057DB9C
:10155000BC01113021F0123009F08AC0E1CC83E8DF
:1015600095E0E0CC84E0781213C0113031F440E013
:1015700050E0BA0183E895E008C0123009F078C065
:1015800040E050E0BA0183E095E00E94942670C0EC
:1015900085E078126DC088E090E054DB4B015C017F
:1015A0008CE090E02CDB1130A9F4BC0180E090E0ED
:1015B0000E94B35B2B013C0144275527BA0148190F
:1015C00059096A097B09C12CD12CE12CF12C93011A
:1015D000820142C01230E9F4BC0180E090E00E9438
:1015E000B35B2B013C01C12CD12CE12CF12C8B01E4
:1015F0009C01B501A40183E895E00E94FF284427DF
:101600005527BA01481959096A097B0993018201D2
:101610002BC0133081F4BC0180E090E00E94B35BEA
:101620002B013C01B094A09490948094811C911C57
:10163000A11CB11C09C01430D9F4BC0180E090E0B9
:101640000E94B35B2B013C01C12CD12CE12CF12C6D
:1016500093018201B501A40183E895E00E94FF286F
:1016600093018201B501A40183E095E00E94FF2867
:10167000E6960FB6F894DEBF0FBECDBFDF91CF91D7
:101680001F910F91FF90EF90DF90CF90BF90AF90A0
:101690009F908F907F906F905F904F900895BC01C6
:1016A000882777FD8095982F0E94B55B9B01AC0140
:1016B00060E070EC8FE794E40E941A5B20E030E079
:1016C00040E85FE30E944F5A9B01AC0160E070E488
:1016D0008CE196E40E941A5B20E030E44CE156E491
:1016E0000E941A5B0E94ED5C20E030E443E555E483
:1016F0000E941A5B2FE03FEC4BE55BE30E94505ADF
:101700009B01AC0160E070E080E89FE30E941A5BFF
:1017100023E333E948E853E40C944F5A08958AE3ED
:101720000E94DE539093B2048093B104BC018827D9
:1017300077FD8095982F0E94B55B20E030E040E86F
:101740005AE30E942D5D20E030E040E751E40C9424
:101750002D5D08954F925F926F927F928F929F922C
:10176000AF92BF92CF92DF92EF92FF920F931F93AF
:10177000CF93DF9300D01F92CDB7DEB786E397E01B
:101780000E94F22E905860936704709368048093CF
:10179000690490936A0420912604309127044091B3
:1017A0002804509129040E944F5A6B017C018090BB
:1017B0002E0490902F04A0903004B09031040E9429
:1017C000825B672B79F0A7019601C501B4010E94E5
:1017D000505A60932E0470932F048093300490939A
:1017E000310408C010922E0410922F04109230047D
:1017F000109231048090570490905804A09059049E
:10180000B0905A048092320490923304A09234042F
:10181000B092350420911A0430911B0440911C04AD
:1018200050911D04C701B6010E942D5D6B017C0122
:1018300020912E0430912F044091300450913104B6
:1018400060911E0470911F048091200490912104E6
:101850000E942D5D9B01AC01C701B6010E94505A48
:101860006B017C01209122043091230440912404D7
:1018700050912504C501B4010E942D5D9B01AC016E
:10188000C701B6010E94505A6B017C0120E030E094
:10189000A9010E94DD5C20E030E040EA50E4181627
:1018A0002CF4C701B6010E94505A04C0C701B6010A
:1018B0000E944F5A60932A0470932B0480932C0447
:1018C00090932D0440902A0450902B0460902C0497
:1018D00070902D04C090EA03D090EB03E090EC03ED
:1018E000F090ED03A7019601C301B2010E944F5A87
:1018F0004B015C01C301B2019058A70196010E94FF
:101900004F5A6B017C0180914104882349F0109269
:1019100053041092540410925504109256043DC082
:1019200083E895E00E94B62669837A838B839C8343
:1019300083E095E00E94B6262B013C0169817A8103
:101940008B819C810E94825B8B0177FF04C0002702
:101950001127061B170BC301B2010E94825B9B017A
:1019600077FF04C022273327261B370BB801621BE1
:10197000730B882777FD8095982F0E94B55B2DEC1F
:101980003CEC4CE85FE30E942D5D60935304709340
:1019900054048093550490935604409053045090FF
:1019A0005404609055047090560420E030E0A90182
:1019B000C301B2010E94DD5C20E030E0A9011816ED
:1019C000D4F5C501B4010E94DD5C1816CCF4C30146
:1019D000B2010E94825B9B0177FF04C0222733275C
:1019E000261B370BB901882777FD8095982F0E9419
:1019F000B55B9B01AC01C701B6010E944F5A18C0EC
:101A0000C301B2010E94825B9B0177FF04C02227C1
:101A10003327261B370BB901882777FD8095982F30
:101A20000E94B55B9B01AC01C701B6010E94505AF0
:101A30006B017C0142C0C301B2010E94165B87FFAB
:101A40003CC020E030E0A901C701B6010E94DD5C86
:101A50001816CCF4C301B2010E94825B9B0177FF90
:101A600004C022273327261B370BB901882777FDAF
:101A70008095982F0E94B55B9B01AC01C501B40114
:101A80000E944F5A18C0C301B2010E94825B9B01A1
:101A900077FF04C022273327261B370BB90188277D
:101AA00077FD8095982F0E94B55B9B01AC01C50125
:101AB000B4010E94505A4B015C0120E030E04FE736
:101AC00053ECC501B4010E94165B87FD11C020E0F4
:101AD00030E04FE753E4C501B4010E94DD5C181605
:101AE0006CF4812C912C8FE7A82E83E4B82E06C0CD
:101AF000812C912C0FE7A02E03ECB02E20E030E0DB
:101B00004FE753ECC701B6010E94165B87FD11C079
:101B100020E030E04FE753E4C701B6010E94DD5CEE
:101B200018166CF4C12CD12C1FE7E12E13E4F12E12
:101B300006C0C12CD12CBFE7EB2EB3ECFB2EC501A8
:101B4000B4010E94825B83E895E00E94D026C70121
:101B5000B6010E94825B83E095E00F900F900F909A
:101B60000F90DF91CF911F910F91FF90EF90DF9039
:101B7000CF90BF90AF909F908F907F906F905F902D
:101B80004F900C94D0264F925F926F927F928F92DB
:101B90009F92AF92BF92CF92DF92EF92FF920F93FC
:101BA0001F93CF93DF9383E095E00E94B6266B01ED
:101BB0007C0183E895E00E94B6269B01AC01C70139
:101BC000B6010E944F5A20E030E040E05FE30E94FF
:101BD0002D5D4B015C01C0900604D0900704E0909D
:101BE0000804F09009042DEC3CEC4CE45FE36091B8
:101BF0005F047091600480916104909162040E947E
:101C00002D5D2B013C012DEC3CEC4CE45EE3C70167
:101C1000B6010E942D5D9B01AC01C301B2010E947F
:101C2000505A60935F0470936004809361049093B2
:101C3000620480914104882361F1C501B4010E94CE
:101C4000825B695F7F4F6F30710518F520E030E0EF
:101C5000A901C701B6010E94165B81111AC010923A
:101C6000410410925F04109260041092610410927B
:101C7000620480915B0490915C04A0915D04B0913A
:101C80005E0480930E0490930F04A0931004B0930D
:101C9000110420915F0430916004409161045091DF
:101CA0006204C501B4010E944F5A6B017C0120916E
:101CB0000E0430910F0440911004509111040E94C1
:101CC000505A8B01D82FC92F8091410420E030E871
:101CD0004BEB54ECB801882309F471C08D2F9C2F75
:101CE0000E94165B87FD10C020E030E84BEB54E407
:101CF000B8018D2F9C2F0E94DD5C18164CF400E07B
:101D000010E8DBEBC4E404C000E010E8DBEBC4EC5B
:101D1000C801AD2FBC2F80930E0490930F04A093A5
:101D20001004B09311042091FA033091FB03409109
:101D3000FC035091FD03C701B6010E942D5D4B01CC
:101D40005C012091FE033091FF034091000450910B
:101D50000104B8018D2F9C2F0E942D5D9B01AC01C9
:101D6000C501B4010E94505A8B01D82FC92F20E021
:101D700030E040E751EC0E94165B87FD10C020E088
:101D800030E040E751E4B8018D2F9C2F0E94DD5CCC
:101D900018164CF400E010E0D0E7C1E404C000E005
:101DA00010E0D0E7C1ECA8016D2F7C2F40930A040E
:101DB00050930B0460930C0470930D0498C08D2F06
:101DC0009C2F0E94165B87FD10C020E030E84BEB93
:101DD00054E4B8018D2F9C2F0E94DD5C18164CF442
:101DE00000E010E8DBEBC4E404C000E010E8DBEB4B
:101DF000C4ECC801AD2FBC2F80930E0490930F0448
:101E0000A0931004B09311042091FA033091FB03C6
:101E10004091FC035091FD03C501B4010E942D5D6A
:101E20006B017C012091FE033091FF03409100047F
:101E300050910104B8018D2F9C2F0E942D5D9B01B4
:101E4000AC01C701B6010E94505A6B017C0120E031
:101E500030E040E751EC0E94165B87FD0FC020E0A8
:101E600030E040E751E4B601C7010E94DD5C18167E
:101E700054F4C12CD12C90E781E407C0C12CD12CA3
:101E800090E781EC02C09E2D8F2DA601692F782F3F
:101E900040930A0450930B0460930C0470930D0458
:101EA0002DEC3CEC4CE45FE360915B0470915C04CE
:101EB00080915D0490915E040E942D5D4B015C0158
:101EC0002DEC3CEC4CE45EE3B8018D2F9C2F0E947E
:101ED0002D5D9B01AC01C501B4010E94505A609375
:101EE0005B0470935C0480935D0490935E04209186
:101EF0000A0430910B0440910C0450910D04609140
:101F00000A0270910B0280910C0290910D020E94C6
:101F10004F5A60932604709327048093280490936B
:101F20002904DF91CF911F910F91FF90EF90DF90E7
:101F3000CF90BF90AF909F908F907F906F905F9069
:101F40004F90089580914204811111C086E397E07B
:101F50000E94F22E0E94825B9B0177FF04C0222721
:101F60003327261B370B253031050CF477C08091C1
:101F70004204882309F47CC086E397E00E94F22E95
:101F80000E94825B9B0177FF04C022273327261B18
:101F9000370B213231050CF46BC01092750310928F
:101FA000740360E070E083E895E00E94D02660E072
:101FB00070E083E095E00E94D02610920E0410920B
:101FC0000F04109210041092110480910A02909153
:101FD0000B02A0910C02B0910D0280932604909305
:101FE0002704A0932804B0932904109206041092A9
:101FF000070410920804109209041092E60310924C
:10200000E7031092E8031092E90340E050E0BA01C0
:1020100083E895E00E94942640E050E0BA0183E016
:1020200095E00E94942610920E0410920F041092D4
:102030001004109211041092420410925F04109246
:102040006004109261041092620410926304109272
:1020500064041092650410926604089580917403DC
:1020600090917503019690937503809374037FCFCD
:10207000809174039091750345970CF44CC01092B5
:1020800075031092740310920E0410920F041092B4
:1020900010041092110460E070E083E895E00E9463
:1020A000D02660E070E083E095E00E94D026809129
:1020B0000A0290910B02A0910C02B0910D02809344
:1020C000260490932704A0932804B093290440E0A9
:1020D00050E0BA0183E895E00E94942640E050E089
:1020E000BA0183E095E00E9494260E941D536093FC
:1020F0004F04709350048093510490935204609362
:102100004B0470934C0480934D0490934E0481E0F3
:102110008093420408950895CF92DF92EF92FF9248
:1021200011DF80914204882309F472C00E941D537C
:10213000C0904F04D0905004E0905104F0905204AD
:102140006C197D098E099F096B3071058105910518
:1021500058F000DB0E941D5360934F0470935004AD
:1021600080935104909352040E941D53C0904B04DD
:10217000D0904C04E0904D04F0904E046C197D0911
:102180008E099F09653671058105910508F450C0D7
:10219000FADC2DEC3CEC4CE45FE36091630470915D
:1021A000640480916504909166040E942D5D6B012A
:1021B0007C012DEC3CEC4CE45EE36091E603709115
:1021C000E7038091E8039091E9030E942D5D9B0154
:1021D000AC01C701B6010E94505A6093630470932A
:1021E000640480936504909366046093EA0370939B
:1021F000EB038093EC039093ED030E941D536093D7
:102200004B0470934C0480934D0490934E0410C083
:1022100060E070E083E895E00E94D02660E070E026
:1022200083E095E0FF90EF90DF90CF900C94D02664
:10223000FF90EF90DF90CF900895CF93DF93809140
:10224000BC079091BD07892B79F48BE790E00E9441
:10225000CA58EC0168E00E94E438D093BD07C093EF
:10226000BC07CE010E94F9388091BC079091BD0750
:102270000E9428398091BC079091BD070E942339A4
:102280008093AA04843409F48DC09091AD049330F6
:1022900009F0A7C0893109F447C008F5893009F46D
:1022A00047C078F4873009F447C0883009F095C0FA
:1022B00080910E0290910F02880F991F880F991F2D
:1022C00066C0863109F489C0883109F45AC08C305F
:1022D00009F083C080910E0290910F0258C08A3499
:1022E00079F168F48034E1F0823481F18C3109F0C5
:1022F00074C020910E0230910F0245E032C08A3541
:1023000059F18E35A1F1823509F067C080910E0236
:1023100090910F0263E0880F991F6A95E1F737C02B
:10232000DF91CF910C943B05DF91CF910C944E053A
:10233000DF91CF910C94B005DF91CF910C9497056C
:1023400020910E0230910F0249E00BC020910E0245
:1023500030910F0247E005C020910E0230910F022C
:1023600046E0429FC001439F900D112410C0209170
:102370000E0230910F02C901880F991F820F931F1F
:1023800006C080910E0290910F02880F991F209134
:10239000100230911102820F931F909313028093C9
:1023A00012021FC00E94EF058091BC079091BD07EB
:1023B0000E940839882339F08091BC079091BD07AD
:1023C0000E942839F1CF8091AD048F5F8093AD04D6
:1023D000853039F41092AD0404C0DF91CF910C9494
:1023E000EF05DF91CF9108958DEF94E00E940640B4
:1023F00028E730E03093130220931202813059F025
:1024000028F0823099F0833001F108950E943B0555
:102410008AE090E015C00E943B058091AF04909146
:10242000B004823091054CF101970AC00E943B052F
:102430008091AF049091B00484319105F4F4019639
:102440009093B0048093AF0408958091AF0490916D
:10245000B0040A9711F40E944E058091AF04909148
:10246000B0040A9714F40E94C9058091AF049091BA
:10247000B0040B9714F00C94DF050895CF92DF920F
:10248000EF92FF920F931F93CF93DF93CDB7DEB7F9
:102490002A970FB6F894DEBF0FBECDBF65E070E09F
:1024A00080E090E00E944C5326E040E052EC61E076
:1024B00070E084E99BE00E94EB5665E070E080E00C
:1024C00090E00E944C5383E895E00E948A2643E006
:1024D00050E06FE873E00E94DA5083E095E00E94DC
:1024E0008A2643E050E06FE973E00E94DA501092D0
:1024F000C6031092C7031092C8031092C90310922A
:10250000A6031092A7031092A8031092A9036CE2ED
:102510008FEF97E00E9444426DE270E083E396E023
:102520000E94891D24E630E040E050E068EE73E050
:1025300083E396E00E94F41D83E396E00E94631E0D
:1025400063ED72E084E99BE00E9418596AE374E04D
:1025500084E99BE00E941C592FE088E190E00FB6CF
:10256000F894A895809360000FBE2093600065E00A
:1025700070E080E090E00E944C5389E797E00E9471
:10258000F43465E070E080E090E00E944C53A89540
:1025900086E397E00E94F43465E070E080E090E02C
:1025A0000E944C5361E08DE00E941B5561E0CE011A
:1025B00001960E944D248AE0FE013196A5EDB4E01B
:1025C00001900D928A95E1F762E0CE0101960E949A
:1025D0004D248AE0FE013196AFEDB4E001900D92FA
:1025E0008A95E1F763E0CE0101960E944D248AE0CE
:1025F000FE013196A9EEB4E001900D928A95E1F7C3
:1026000064E0CE0101960E944D248AE0FE013196DD
:10261000A3EFB4E001900D928A95E1F785ED94E087
:102620000E942C258FED94E00E942C2589EE94E0E9
:102630000E942C2583EF94E00E942C25A895A89554
:1026400040E050E0BA0185ED94E00E94372540E07B
:1026500050E0BA018FED94E00E94372540E050E051
:10266000BA0189EE94E00E94372540E050E0BA01BB
:1026700083EF94E00E94372581E0809380008AE018
:102680008093810083E08093B00082E08093B1006A
:1026900069E070E083E895E00E945E2969E070E0FF
:1026A00083E095E00E945E2967E270E083E895E0B0
:1026B0000E94622967E270E083E095E00E9462294F
:1026C0007AE9C72E79E9D72EED2C7FE3F72E00E0CB
:1026D00010E0980146E656E666EE7FE383E895E073
:1026E0000E94402900E010E0980146E656E666EEBA
:1026F0007FE383E095E00E944029C12CD12C760134
:10270000970186014CEE51E568E37EE383E895E0AE
:102710000E942629970186014CEE51E568E37EE38D
:1027200083E095E00E94262960E070E083E895E070
:102730000E94722960E070E083E095E00E947229B7
:10274000109244041092430480910A0290910B026B
:10275000A0910C02B0910D0280932604909327045F
:10276000A0932804B093290480E090E0A8E8B1E4A5
:1027700080931A0490931B04A0931C04B0931D042F
:10278000C0921E04D0921F04E0922004F092210413
:102790008DEC9CECACE4BEEB80932204909323047C
:1027A000A0932404B09325048DEC9CECACECBDEB21
:1027B0008093FA039093FB03A093FC03B093FD0373
:1027C0008FE692E1A3E0BCEB8093FE039093FF03BE
:1027D000A0930004B09301040E94B7040E941D530B
:1027E00060934F047093500480935104909352046B
:1027F00060934B0470934C0480934D0490934E046B
:102800000E941D53609347047093480480934904C9
:1028100090934A042A960FB6F894DEBF0FBECDBF40
:10282000DF91CF911F910F91FF90EF90DF90CF90AC
:102830000895CF93DF93C7E2D8E0CE010E94E1492B
:10284000239688E0CB34D807C1F78FE198E00E9447
:1028500072238CE098E00E9459478FEF97E00E9426
:102860008C4283EF97E036D78FEE97E00E94564177
:102870008EEB97E00E947C3A48E660E089E797E0BB
:102880000E94D72E49E661E086E397E00E94D72EAA
:102890008FE097E00E946D1E8BE097E00E94053A62
:1028A000C7E3D6E0CE010E943F44E59687E0CB30F7
:1028B000D807C1F783E396E00E94831D8CE296E07F
:1028C0000E94013886E296E00E94AD2E80E296E0FA
:1028D0000E94C22E8AE196E00E94D94783E096E0EA
:1028E00062D661E083E895E00E94222762E083E0FF
:1028F00095E00E94222769E08DEF94E00E94054058
:10290000C5EDD4E0CE010E945D242A9684E0CD3F3F
:10291000D807C1F76DED72E08AE394E0DF91CF91C3
:102920000C940A5A8AE394E00E94A3598FEF97E02F
:102930000C942343682F84E99BE00C9487568FEF17
:10294000F9DF85E5F7CF8FEFF5DF85E5F3DF0C9451
:10295000FB05CF93C82F81E0EDDF8C2FCF91EACF1D
:10296000EF92FF920F931F93CF93DF937C01FC01B3
:10297000C4810C2F158184E0DDDF8C2FDBDFC0E00C
:10298000D0E0C017D1073CF4BE01C7010E944D5AE8
:10299000D1DF2196F6CFDF91CF911F910F91FF905C
:1029A000EF900895FF920F931F93CF93DF931F92A1
:1029B000CDB7DEB78B01F82E82E09983BBDFA8018B
:1029C0006F2D9981792F4093D1045093D204609355
:1029D000D3047093D404802FADDF8091D204AADF9A
:1029E0008091D304A7DF8091D4040F90DF91CF9121
:1029F0001F910F91FF909ECF1F93CF93DF9300D035
:102A0000CDB7DEB7182F86E069837A839B8392DF88
:102A100069816093D1047A817093D2041093D304B6
:102A20009B819093D404862F85DF8091D20482DF2E
:102A30008091D3047FDF8091D4040F900F900F908A
:102A4000DF91CF911F9176CF1F93CF93DF931F928A
:102A5000CDB7DEB7182F83E099836CDF1093CF04D6
:102A600099819093D004812F65DF8091D0040F90DD
:102A7000DF91CF911F915ECFCF92DF92EF92FF92C5
:102A80000F931F93CF93DF93CDB7DEB727970FB682
:102A9000F894DEBF0FBECDBF10917904482F50E0EF
:102AA0004E33510508F0BEC2FA01EE58FF4F0C94A8
:102AB000425F8091FD079091FE07009751F00E94C0
:102AC0006F41811791F08091FD079091FE070E9460
:102AD000CB588EE090E00E94CA587C01612F0E9482
:102AE000DD47F092FE07E092FD0760E971E080911A
:102AF000FD079091FE070E9458486B017C011FDF83
:102B00008091AE0417DFC701B6018BC200917A0431
:102B10008CE098E00E946F41811367C28CE098E0DE
:102B20000E947241801361C28CE098E00E9473475A
:102B300078C28FEE97E00E946F41811761F0612F9C
:102B40008FEE97E00E94D3418FEE97E00E94F9410B
:102B500060E00E941B558FEE97E00E94C3412BC09E
:102B60008FEE97E00E946F41811761F0612F8FEE29
:102B700097E00E94D3418FEE97E00E94F94160E018
:102B80000E941B558FEE97E00E94C3410E944F0B9D
:102B900048C200917A048BE097E00E946F41811750
:102BA00029F0612F8BE097E00E94D341602F8BE0EA
:102BB00097E00E94073ABC01882777FD8095982FFF
:102BC0000E94B55B2EC28091BC079091BD07009713
:102BD000E1F04F960E946F41811731F1E090BC0700
:102BE000F090BD07E114F10481F081E293E0F70178
:102BF00091838083C70182599F4F0E94A359C701C7
:102C00000E949F4FC7010E94CB588BE790E00E9423
:102C1000CA587C01612F0E94E438F092BD07E0920F
:102C2000BC07C7010E94F9388091BC079091BD078D
:102C30000E942339682F8093AA048FEF860F8E3F5E
:102C400008F476C060E070E0CB01EBC18FEE97E056
:102C50000E946F41811761F0612F8FEE97E00E9413
:102C6000D3418FEE97E00E94F94160E00E941B552E
:102C700060E08FEE97E00E9486414CC08FEE97E0B7
:102C80000E946F41811799F0612F8FEE97E00E94AB
:102C9000D3418FEE97E00E94F64160E00E941B5501
:102CA0008FEE97E00E94F94160E00E941B5560E0C2
:102CB0008FEE97E00E947541182F60E08FEE97E04D
:102CC0000E948641612F70E0660F771F680F711DAB
:102CD000882777FD8095982F73CF00917A048FEE27
:102CE00097E00E946F41811387C18FEE97E00E94A9
:102CF0007241801381C18FEE97E0013069F40E9428
:102D0000F64162E00E941B5560E08FEE97E00E9462
:102D100075418027682F0CC00E94F94162E00E9433
:102D20001B5560E08FEE97E00E94864161E06827C6
:102D300070E080E090E00E94B35B73C18FE097E0A9
:102D40000E946F418117A9F0612F8FE097E00E94E8
:102D5000D3418FE097E00E94F941482F8FE097E040
:102D60004F830E94F6414F81682F8FE097E00E94C9
:102D70005A228FE097E00E94622253C100917A04A8
:102D80008CE296E00E946F41811729F0612F8CE25E
:102D900096E00E94D3418CE296E00E940438602FB6
:102DA0008CE296E00E94DD38182FC9DD8091AE04D8
:102DB000C1DD812F18C186E296E00E946F41811724
:102DC000A9F0612F86E296E00E94D34186E296E068
:102DD0000E94F641482F86E296E04F830E94F94117
:102DE0004F81682F86E296E00E94B02E86E296E040
:102DF0000E94C02E1FC080E296E00E946F418117A2
:102E0000A9F0612F80E296E00E94D34180E296E033
:102E10000E94F641482F80E296E04F830E94F941DC
:102E20004F81682F80E296E00E94C52E80E296E0F6
:102E30000E94D52E09DEF6C060917A041111E3C01C
:102E400089E797E06F830E94ED2E6F81883609F045
:102E5000E9C089E797E0E3C06AE374E0CE01019638
:102E60000E94345ACE0101967BDDCE0101960E946C
:102E7000A359D8C060E0812F0E941B55812F0E946A
:102E8000895599CEE12FF0E0EE0FFF1FEC5EFD4F6C
:102E9000108160E0812F0E941B55812F0E94DE531C
:102EA0008ACE87E090E00E94FF057C0160E0812FE0
:102EB0000E941B559701442737FD4095542F61E030
:102EC000812F0E94B1557DC000917A0461E0812F6D
:102ED0000E941B5560E0812F0E94545582E090E0D3
:102EE0000E94715361E0812F0E9454558AE090E066
:102EF0000E94715360E0812F0E94545560E0802F42
:102F00000E941B5520E335E740E050E061E0802F50
:102F10000E94B1556B017C0165E070E080E090E0BB
:102F20000E944C530CDD8091AE0404DDC701B60154
:102F300047CE60916B0470916C0480916D04909108
:102F40006E046FC08AE196E00E946F41811729F0FC
:102F5000612F8AE196E00E94D3418AE196E00E94C7
:102F6000DB4741C083E096E00E946F41811729F062
:102F7000612F83E096E00E94D34181E02091A80474
:102F800090917A04291779F180E02DC011114AC07F
:102F900090917A0480917B04913059F4813019F436
:102FA00083E895E00CC0823009F03CC083E895E0EE
:102FB0000EC09230B9F5813031F483E095E00E9483
:102FC000B7281ADD2FC0823069F583E095E00E94B2
:102FD000B62627C0103719F40E948F0B22C0113774
:102FE00009F58091AD04B5DC1DC0402F612F8CE048
:102FF00098E00E94624798CD402F612F8FEE97E0B6
:103000000E94E34178CE113069F486E397E06F8344
:103010000E94ED2E6F81893629F486E397E00E94A5
:103020008231C0DC27960FB6F894DEBF0FBECDBF4D
:10303000DF91CF911F910F91FF90EF90DF90CF9094
:1030400008951F93CF93DF931F92CDB7DEB71092F1
:1030500046048091760490917704109178048093CF
:10306000AE049230E1F018F4913039F093C094300E
:10307000D1F0953009F489C08DC0113041F017317D
:1030800031F0143221F089835ADC898153DC812F9D
:10309000F3DC0F90DF91CF911F910C94FB05812FF2
:1030A0000E940D0772C060E070E083E895E00E9426
:1030B000D02660E070E083E095E00E94D02640E0FA
:1030C00050E0BA0183E895E00E94942640E050E089
:1030D000BA0183E095E00E9494261092C6031092F4
:1030E000C7031092C8031092C9031092A60310924E
:1030F000A7031092A8031092A90361E08FE198E062
:103100000E94822360E070E08FE198E00E948E23AD
:1031100062E08FE198E00E94822360E070E08FE13E
:1031200098E00E948E2363E08FE198E00E94822362
:1031300060E070E08FE198E00E948E2364E08FE110
:1031400098E00E94822360E070E08FE198E00E94A6
:103150008E2340E050E0BA0185ED94E00E943725CF
:1031600040E050E0BA018FED94E00E94372540E046
:1031700050E0BA0189EE94E00E94372540E050E02B
:10318000BA0183EF94E00E9437250F90DF91CF9131
:103190001F91D9CB0F90DF91CF911F91089510927D
:1031A000450484E99BE00E94DD55181619064CF48D
:1031B00081E08093450484E99BE00E94F65580936A
:1031C000A7040895ECDF80914504882309F447C0E3
:1031D0008091A70490914604853561F491110AC04D
:1031E0008091A9048F3FE1F481E08093AC04809347
:1031F000460416C08093A904992391F0E091AC0491
:10320000E23019F48093AB0407C0E33028F09091CA
:10321000AB0491509093AB04F0E0ED58FB4F8083EA
:103220008091AC048F5F843318F48093AC0404C0A5
:103230001092AC041092460480914604882369F0F1
:103240008091AB04811109C08091AC04843028F0D6
:1032500010924604F6DE1092AC0481E008950895C1
:10326000CF93DF938091FD079091FE07892B61F446
:103270008EE090E00E94CA58EC016AE00E94DD47AF
:10328000D093FE07C093FD0786E990E09093130268
:10329000809312028091FD079091FE07009709F438
:1032A0006BC060E971E00E9458480E94825B709395
:1032B000B6046093B5049B012551310923313105D2
:1032C000F8F46CE271E080E090E00E943C59709369
:1032D000B4046093B3046F3B71055CF080914304C8
:1032E000811107C081E080934404DF91CF910C9459
:1032F000970581E080934304DF91CF910C94B00552
:10330000615071096331710578F56CE271E080E01C
:1033100090E00E943C597093B4046093B3046F3BF7
:1033200071058CF00E946105CCE2D1E0A8954ADFDE
:10333000811122C062E070E080E090E00E944C5376
:103340002197A1F719C00E947C05CCE2D1E0A89595
:1033500039DF811111C062E070E080E090E00E94EE
:103360004C532197A1F708C01092440410924304D3
:10337000DF91CF910C943B05DF91CF9108950F938E
:103380001F930E941D530E94B35B20E030E04AE788
:1033900054E40E941A5B20916F04309170044091B4
:1033A0007104509172040E944F5A60936B047093A1
:1033B0006C0480936D0490936E0483E096E0F5D0E6
:1033C0008093A8040E941D53009147041091480463
:1033D0002091490430914A04601B710B820B930BBE
:1033E000693E73408105910598F00E941D536093DA
:1033F0004704709348048093490490934A04609171
:10340000400481E06827609340048DE00E94545599
:10341000A8958091BC079091BD07892B11F00E945F
:103420001D1187E396E00E9438478CE696E00E94E3
:10343000384781EA96E00E94384786ED96E00E9480
:1034400038470E948F0B83E895E00E94932E83E01B
:1034500095E00E94932EA3DE11E08091450488231D
:1034600009F448C08091A70490914604853559F429
:10347000911109C08091A9048F3FD9F41093AC0435
:103480001093460416C08093A904992391F0E0910B
:10349000AC04E23019F48093AB0407C0E33028F0A9
:1034A0009091AB0491509093AB04F0E0ED58FB4F3A
:1034B00080838091AC048F5F8093AC0470DE809138
:1034C000AC04843320F01092AC0410924604809136
:1034D0004604882311F28091AB048111BECF809104
:1034E000AC04843008F4B9CF10924604AADD1092DF
:1034F000AC04B3CF86E397E00E94AF3189E797E051
:103500000E94522F8FE097E00E946F41882319F0AC
:103510008FE097E0D7D786E397E00E94F82E60937C
:103520005704709358048093590490935A048091DF
:10353000AD048823A9F1813079F460E070E083E87C
:1035400095E00E94722960E070E083E095E00E94BF
:1035500072291F910F9184CE823081F460E070E077
:1035600083E895E00E94722960E070E083E095E0D6
:103570000E9472291F910F910C948C10843081F459
:1035800060E070E083E895E00E94722960E070E0FE
:1035900083E095E00E9472291F910F910C94F41121
:1035A0001F910F9108950C945641CF92DF92EF92A4
:1035B000FF920F931F93CF93DF93EC010C891D892A
:1035C0000E941D53CC80DD80EE80FF809B01AC010A
:1035D0002C193D094E095F0969017A0139E0C316CA
:1035E000D104E104F104E8F16C837D838E839F8331
:1035F000CE010E94C341488559856A857B85452B4C
:10360000462B472B49F4AC01662757FD6095762F72
:10361000488B598B6A8B7B8B488959896A897B894E
:10362000841B950B97FF03C0919581959109449751
:1036300064F44C855D856E857F854F5F5F4F6F4F6E
:103640007F4F4C875D876E877F87488559856A8560
:103650007B854F5F5F4F6F4F7F4F488759876A87E2
:103660007B8788859985AA85BB850597A105B105C6
:10367000D1F4188619861A861B868C859D85AE85A1
:10368000BF850397A105B10540F088899989AA896A
:10369000BB898C019D8B8C8B02C00C891D891C867B
:1036A0001D861E861F86C80164E670E00E94F15EDA
:1036B0006830710528F4FB01E951FD4F808101C09C
:1036C00080E0DF91CF911F910F91FF90EF90DF90FD
:1036D000CF9008950C9456410F931F93CF93DF938F
:1036E000EC01062F18E060E088850E94545500FF29
:1036F00002C061E001C060E089850E9454550695D2
:1037000061E088850E945455115069F760E0888512
:103710000E94545561E089850E94545561E0888576
:103720000E94545560E089850E941B5518EC8985DC
:103730000E948955892B59F01150C9F761E089859C
:103740000E941B5560E089850E945455EFCF61E0CF
:103750008985DF91CF911F910F910C941B55CF93C9
:10376000DF93EC0161E088850E94545561E0898512
:103770000E94545560E089850E94545560E0888518
:10378000DF91CF910C945455CF93DF93EC0160E01F
:1037900088850E94545560E089850E94545561E0F7
:1037A00088850E94545561E08985DF91CF910C9402
:1037B0005455CF92DF92FF920F931F93CF93DF93D5
:1037C0001F92CDB7DEB76C01F62E7983C8DF60E4B7
:1037D000C60182DFC601D8DFC601C1DFF6016581FF
:1037E000C6017ADF0F2D7981172F84E0F82EF801BA
:1037F00061918F01C60170DFFA94C9F7C601C4DF79
:10380000C601ADDFF6016681C60166DFC6010F9015
:10381000DF91CF911F910F91FF90DF90CF90B4CFA8
:103820004F925F926F927F928F929F92AF92BF92D0
:10383000CF92DF92EF92FF920F931F93CF93DF937C
:1038400000D01F92CDB7DEB76A017B01890137FD39
:1038500048C0B9016F5F7F4F882777FD8095982F0B
:103860000E94B55B9B01AC0160E070E080E291E4F6
:103870000E94905D4B015C019B01AC01C701B60148
:103880000E941A5B0E94F05B2B013C01B801882763
:1038900077FD8095982F0E94B55B9B01AC0160E09D
:1038A00070E080E291E40E94905D69837A838B836B
:1038B0009C83A5019401C301B2010E942D5D9B016F
:1038C000AC01C701B6010E944F5A29813A814B8150
:1038D0005C810E941A5B0E94F05B0E94825BCB01BC
:1038E0001FC088249924821A930AA12CB12C20E0AD
:1038F00030E040E251E4C701B6010E942D5D6B014A
:103900007C018FEFA81AB80AA814B90484F3C70180
:10391000B6010E94825BCB016AE070E00E94F15E1A
:103920000F900F900F900F90DF91CF911F910F91FB
:10393000FF90EF90DF90CF90BF90AF909F908F90CF
:103940007F906F905F904F900895DB0180E090E250
:103950002C91223208F09C93EC91F0E0EA59FD4F53
:10396000E491ED938F5F843099F70895EF92FF9281
:103970000F931F93CF93DF9300D01F92CDB7DEB785
:103980008C01DB01FE013196CE0105967F012D9160
:103990002193E817F907D9F7B701C801D6DFB701B6
:1039A000C80107DF0F900F900F900F90DF91CF911C
:1039B0001F910F91FF90EF900895CF93DF9300D068
:1039C0001F92CDB7DEB720E229832A832B832C8375
:1039D000BE016F5F7F4FCADF0F900F900F900F9067
:1039E000DF91CF910895CF93DF93EC016A83E62FA7
:1039F000F0E0EE0FFF1FEE5AFD4F81818983908129
:103A000098838887998761E00E941B5561E08985CA
:103A10000E941B5580E48C8380EC8D838AE88E8322
:103A2000CE01DF91CF91C9CF8F929F92AF92BF927B
:103A3000CF92DF92EF92FF920F931F93CF93DF937A
:103A400000D01F92CDB7DEB75C016A017B011982FD
:103A50001A821B821C8220E030E0A901C701B60156
:103A60000E94165B87FF09C0F7FAF094F7F8F0940C
:103A700081E289839924939401C0912C03E010E0A2
:103A8000812C9801B701A601C501CADE18161906D6
:103A90002CF0002319F08820B9F00CC001110AC0E5
:103AA000E1E0F0E0EC0FFD1FE90DF11D20E1280F32
:103AB000208307C0E1E0F0E0EC0FFD1FE90DF11DF0
:103AC000808393948824839483E0891530F0015097
:103AD00011090C3F8FEF1807A1F6BE016F5F7F4FF2
:103AE000C50144DF0F900F900F900F90DF91CF91A1
:103AF0001F910F91FF90EF90DF90CF90BF90AF900C
:103B00009F908F9008950E94564188E080934B08C3
:103B1000089560934B0808954F925F926F927F9241
:103B20008F929F92AF92BF92CF92DF92EF92FF92CD
:103B30000F931F93CF93DF93762E680179016093E3
:103B40004B089A0140E050E060E472E48FE090E0BE
:103B50000E94265FE901590137FF03C08FEFA81AC1
:103B6000B80A85011595079561E0872D0E941B55C0
:103B7000A8EEB3E0A70196010E94575F2B013C011C
:103B8000C12CD12C76014E01AA2497FCA094BA2C0A
:103B9000C414D504E604F704B0F461E080914B0846
:103BA0000E945455C8010E94715360E080914B08F7
:103BB0000E945455C8010E947153A895C80CD91C85
:103BC000EA1CFB1CE5CFDF91CF911F910F91FF9075
:103BD000EF90DF90CF90BF90AF909F908F907F90AD
:103BE0006F905F904F9008954F925F926F927F9287
:103BF0008F929F92AF92BF92CF92DF92EF92FF92FD
:103C00000F931F93CF93DF9369017A019B0140E0EB
:103C100050E060E472E48FE090E00E94265FE901EA
:103C2000890137FF02C00F5F1F4F1595079561E0AF
:103C300080914B080E941B55A8EEB3E0A7019601A6
:103C40000E94575F4B015C01C12CD12C76012E01E3
:103C5000662457FC6094762CC814D904EA04FB044B
:103C6000B0F461E080914B080E945455C8010E9455
:103C7000715360E080914B080E945455C8010E9426
:103C80007153A895C40CD51CE61CF71CE5CFDF9139
:103C9000CF911F910F91FF90EF90DF90CF90BF9049
:103CA000AF909F908F907F906F905F904F9008950E
:103CB000862F60934B0861E00E941B5560E0809165
:103CC0004B080C94545561E080914B080E941B55A1
:103CD00060E080914B080C945455CF93DF93EC0136
:103CE00060E00E945F418EE18B871C82DF91CF9163
:103CF0000895AF92BF92CF92DF92EF92FF920F930F
:103D00001F93CF93DF93CDB7DEB76A970FB6F894C2
:103D1000DEBF0FBECDBF8C01CE0101967C01C12C50
:103D2000D12C5C01C6010E940962F70181937F01D9
:103D3000FFEFCF1ADF0A8AE1C816D10499F72D8167
:103D40003E814F81588569817A818B819C810E9457
:103D5000505A29853A854B855C850E94505A2D859D
:103D60003E854F8558890E94505A29893A894B8946
:103D70005C890E94505A2D893E894F89588D0E9436
:103D8000505A6B017C01698D70E080E090E00E94E8
:103D9000B55B9B01AC01C701B6010E94505A20E0FF
:103DA00030E04AE253E40E94505A0E94875B8A8DB9
:103DB00068130CC08AE1F501D8011D9601900D929F
:103DC0008A95E1F781E0F801848302C0F80114824A
:103DD0006A960FB6F894DEBF0FBECDBFDF91CF91CC
:103DE0001F910F91FF90EF90DF90CF90BF90AF9019
:103DF0000895CF92DF92EF92FF920F931F93CF938C
:103E0000DF938C01EB012C813D814E815F816881C4
:103E100079818A819B810E94505A288539854A85FB
:103E20005B850E94505A2C853D854E855F850E949A
:103E3000505A288939894A895B890E94505A2C89AD
:103E40003D894E895F890E94505A6B017C01688DC3
:103E500070E080E090E00E94B55B9B01AC01C7017F
:103E6000B6010E94505A20E030E04AE253E40E943A
:103E7000505A0E94875B698FE12CF12C6991C70130
:103E80000E9411628FEFE81AF80AEAE1EE16F104D7
:103E9000A9F781E0F8018483DF91CF911F910F9101
:103EA000FF90EF90DF90CF900895EF92FF921F93D5
:103EB000CF93DF931F92CDB7DEB7162F7A01FC01A7
:103EC000638587E79AE029830E94034C612F87E787
:103ED0009AE00E94AE4B2981813091F4422F50E04C
:103EE000B70187E79AE00E94824B61E087E79AE09A
:103EF0000F90DF91CF911F91FF90EF900C940D4C9C
:103F00008FEF0F90DF91CF911F91FF90EF90089569
:103F1000CF93DF931F92CDB7DEB7498321E0AE0187
:103F20004F5F5F4FC2DF0F90DF91CF910895EF9207
:103F3000FF920F931F93CF93DF93EC01F62E8A012C
:103F4000E22E6B8587E79AE00E94034C6F2D87E78E
:103F50009AE00E94AE4B813001F560E087E79AE07D
:103F60000E940D4C81112EC081E090E00E9471539F
:103F700021E04E2D6B8587E79AE00E94F54BE80122
:103F800000E010E0F12C87E79AE00E94574B892B64
:103F900031F00E151F0574F002C08FEF13C081E0E1
:103FA00090E00E94715381E00E151F0509F480E036
:103FB000819508C00F5F1F4F87E79AE00E945F4B13
:103FC0008993E1CFDF91CF911F910F91FF90EF90F7
:103FD0000895CF93DF93EC01AC014B5F5F4F23E07B
:103FE0006AE0A5DF81110AC08D81883439F48E81A1
:103FF000843321F481E09F81933309F080E0DF91E5
:10400000CF910895CF92DF92EF92FF920F931F937B
:10401000CF93DF93EC016B018A0179013BD0AE01B4
:104020004B5F5F4F26E063E0CE0181DF882321F004
:10403000992787FD909525C08C85813029F441E032
:1040400062E070E0CE0164DF8D8190E0982F8827D8
:104050002E81822BF60191838083898590E0982FB1
:1040600088272A85822BF801918380838F8190E0B5
:10407000982F88272885822BF7019183808380E001
:1040800090E0DF91CF911F910F91FF90EF90DF9023
:10409000CF9008952F923F924F925F926F927F92AE
:1040A0008F929F92AF92BF92CF92DF92EF92FF9248
:1040B0000F931F93CF93DF93CDB7DEB76C970FB6F7
:1040C000F894DEBF0FBECDBF8C0162E00E94754147
:1040D0008111B5C16AE070E080E090E00E944C532D
:1040E00062E0C8010E9475418111A9C1C80171DF58
:1040F000882309F4A4C10E941D536B017C01712C1B
:10410000BB24B39462E0C8010E947541811116C0BE
:104110000E941D536C197D098E099F09693C710528
:104120008105910578F3A8950E941D536B017C01D0
:104130007B24672DC8010E94A741E4CF64E670E0AC
:1041400080E090E00E944C530E941D534B015C01A3
:104150002FEF3FE7388B2F8740E050E85E874D8791
:104160008FEF9FE79C878B87E0E0F0E8FA87E9878D
:1041700038872F83212C50E8352E662463940E94C3
:104180001D536C197D098E099F09693C71058105D4
:10419000910550F0A8950E941D536B017C01762477
:1041A000672DC8010E94A7410E941D536819790913
:1041B0008A099B096B30710581059105E0F1A8958D
:1041C0009E012F5F3F4FAE014D5F5F4FBE016B5FA2
:1041D0007F4FC80117DF8D819E814F8158858417DD
:1041E00095072CF02816390624F41C0102C0988784
:1041F0008F838B819C81EB85FC858E179F0744F014
:1042000029853A85281739072CF49A87898702C0AF
:104210009C878B8789819A814F8558898417950758
:1042200044F0ED85FE85E817F9072CF49E878D870D
:1042300002C0988B8F8762E0C8010E94754181118E
:104240009ECF60E0C8010E94A741B101882777FD99
:104250008095982F0E94B55B6B017C012F8138857A
:10426000B901882777FD8095982F0E94B55B698BEF
:104270007A8B8B8B9C8B9B01AC01C701B6010E9492
:10428000505A905820E030E040E05FE30E942D5DFE
:10429000F801658776878787908B29853A85B901EC
:1042A000882777FD8095982F0E94B55B2B013C01F4
:1042B0004B855C85BA01882777FD8095982F0E94F1
:1042C000B55B6D8B7E8B8F8B988F9B01AC01C3018F
:1042D000B2010E94505A905820E030E040E05FE385
:1042E0000E942D5DF801618B728B838B948B2D85E1
:1042F0003E85B901882777FD8095982F0E94B55B90
:104300004B015C014F855889BA01882777FD80955C
:10431000982F0E94B55B698F7A8F8B8F9C8F9B0142
:10432000AC01C501B4010E94505A905820E030E021
:1043300040E05FE30E942D5DF801658B768B878BF3
:10434000908F80E090E0A0E8BFE3818F928FA38FF1
:10435000B48F29893A894B895C89C701B6010E94CB
:104360004F5A6B017C012D893E894F89588DC301BD
:10437000B2010E944F5AA70196010E941A5BF801F0
:10438000658F768F878F90A3298D3A8D4B8D5C8DAD
:10439000C501B4010E944F5AA70196010E941A5B01
:1043A000F80161A372A383A394A32F813885221AF5
:1043B000330A37FE03C031942194310889859A85E8
:1043C0004B855C85841B950B97FF03C09195819568
:1043D00091092D853E85EF85F8892E1B3F0B37FF10
:1043E00003C0319521953109821593052CF02215D2
:1043F000330514F081E009C0281639062CF028177F
:10440000390714F082E001C083E0F80185A3B80108
:10441000635F7F4FC801EDDC61E0C8010E94A741E6
:1044200062E0C8010E947541811102C0A895F8CFD1
:10443000A89564E670E080E090E00E944C536C9692
:104440000FB6F894DEBF0FBECDBFDF91CF911F91A5
:104450000F91FF90EF90DF90CF90BF90AF909F9023
:104460008F907F906F905F904F903F902F90089526
:10447000CF93DF93EC0187E79AE00E94EC4B61E079
:10448000CE010E94A74140E760E070E0CE0140DD30
:1044900040E261E070E0CE013BDD81E08C8741E0ED
:1044A00062E070E0CE0134DDCE0123DCCE01DF918D
:1044B000CF91F0CD60934D0840934C08FC01608390
:1044C0004183D6CF2F923F924F925F926F927F920D
:1044D0008F929F92AF92BF92CF92DF92EF92FF9214
:1044E0000F931F93CF93DF93CDB7DEB762970FB6CD
:1044F000F894DEBF0FBECDBF8C01CCDD9E012F5FD7
:104500003F4FAE014D5F5F4FBE016B5F7F4FC801F4
:1045100079DD882349F0682F772767FD7095872F0D
:10452000972F0E94B55BC5C0F80184812D803E8025
:104530002B813C8138872F83882309F478C04584F8
:10454000568467847088818C928CA38CB48CB9015A
:10455000882777FD8095982F0E94B55BF801218907
:104560003289438954890E94505AF801258D368D2D
:10457000478D50A10E942D5D0E94825B6F837887DA
:1045800089879A8769817A81882777FD8095982F16
:104590000E94B55BF801258936894789508D0E94B4
:1045A000505AF80121A132A143A154A10E942D5DCE
:1045B0000E94825B6B877C878D879E87F80115A19F
:1045C000113041F42B853C85B901882777FD809512
:1045D000982F32C0B101882777FD8095982F0E94CF
:1045E000B55BA30192010E94505AA50194010E945B
:1045F0002D5D0E94825B4B015C01123089F42B859A
:104600003C85B901882777FD8095982F0E94B55B7E
:104610009B01AC01B401882777FD8095982F17C0C6
:10462000133019F5882777FD8095982F05C0B101C3
:10463000882777FD8095982F0E94B55B9B01AC0180
:10464000EF81F885BF01882777FD8095982F2F8708
:10465000388B498B5A8B0E94B55B2F8538894989E5
:104660005A890E94C35A6B017C0120E030E0A90105
:10467000C701B6010E94165B87FF0DC02BED3FE01E
:1046800049EC50E4C701B6010E94505A20E030E0E6
:1046900044E353E406C020E030E044E353E4C701C0
:1046A000B6010E942D5D2BED3FE049E450E40E94ED
:1046B0001A5B62960FB6F894DEBF0FBECDBFDF91D6
:1046C000CF911F910F91FF90EF90DF90CF90BF900F
:1046D000AF909F908F907F906F905F904F903F90A2
:1046E0002F90089560E00E945F4181E080938000F8
:1046F0008BE08093810083E08093B00084E080931E
:10470000B1000895CF93DF93EC010E94D34184EF71
:1047100091E09F838E83DF91CF9108950F931F9334
:10472000CF93DF938C016F3F710519F014F06FEF99
:1047300070E0EB0161308FEF780714F4C1E0DFEF38
:10474000F801868197818C179D07C9F0D783C683AE
:10475000D7FD06C061E0C8010E94A741BE0108C0A4
:1047600060E0C8010E94A741662777276C1B7D0B7C
:10477000C801DF91CF911F910F910C94CF41DF9130
:10478000CF911F910F9108954F925F926F927F92F8
:104790008F929F92AF92BF92CF92DF92EF92FF9251
:1047A0000F931F93CF93DF9300D01F92CDB7DEB747
:1047B000FC01C982DA82EB82FC8295EA9083218334
:1047C000C2828A8183838B8184838C818583460125
:1047D0005701CF0106963801C12CD12C7601C8149F
:1047E000D904EA04FB0461F0D3012D913D01DC0101
:1047F0002D93CD01BFEFCB1ADB0AEB0AFB0AEFCFFB
:104800002401350126E0420E511C611C711CD801A7
:10481000C12CD12C760180E0C814D904EA04FB0431
:1048200041F09D9189279FEFC91AD90AE90AF90A2F
:10483000F3CFDF01A40DB51D8C9397018601085FAE
:104840001F4F2F4F3F4FA7E0CA0ED11CE11CF11C98
:10485000EC0DFD1D8AE58083401751076207730741
:1048600028F460E070E080E090E002C0B801C90187
:104870000F900F900F900F90DF91CF911F910F919C
:10488000FF90EF90DF90CF90BF90AF909F908F9070
:104890007F906F905F904F9008951F93CF93DF9319
:1048A000EC01162F60E00E945F4111501C8389E0EB
:1048B0008D83DF91CF911F910895CF93DF93EC010A
:1048C00060E00E945F411C8289E08D83DF91CF917F
:1048D00008958EE498E00C9446358EE498E00C94AC
:1048E0006F35AF92BF92CF92DF92EF92FF920F930C
:1048F0001F93CF93DF93EC016B017A0159016D8116
:1049000087E79AE00E94034CA501B60187E79AE089
:104910000E94824B87E79AE00E941F4C82E090E061
:104920000E9471536D8170E0A80187E79AE00E94B0
:10493000014C82E090E00E947153C0E087E79AE06A
:104940000E94574B892B51F087E79AE00E945F4BFA
:10495000F701EC0FF11D8083CF5FF0CFDF91CF9196
:104960001F910F91FF90EF90DF90CF90BF90AF908D
:1049700008956F927F928F929F92AF92BF92CF9243
:10498000DF92EF92FF920F931F93CF93DF93CDB7F8
:10499000DEB768970FB6F894DEBF0FBECDBF3C01FF
:1049A0008AE04E012BE0820E911CF401282F119217
:1049B0002A95E9F7FE0131965F0111928A95E9F790
:1049C000F30184818F8B87E0888F82E0C82ED12C01
:1049D000E12CF12C8E01095E1F4F21E04AE050E0EE
:1049E00060E070E0C401D0DE0AE010E02AE030E0D0
:1049F000A501B401C30175DF2AE030E040E050E0DA
:104A0000B5018EE498E00E94A8351E8A1D8A22E036
:104A100030E040E050E0BE016B5E7F4F8EE498E0F6
:104A20000E94B73781E09E89911101C080E06896AD
:104A30000FB6F894DEBF0FBECDBFDF91CF911F91AF
:104A40000F91FF90EF90DF90CF90BF90AF909F902D
:104A50008F907F906F900895CF93DF93EC0187E75D
:104A60009AE00E94EC4BCE01DF91CF9182CF6F9202
:104A70007F928F929F92AF92BF92CF92DF92EF92EE
:104A8000FF920F931F93CF93DF93CDB7DEB76E974F
:104A90000FB6F894DEBF0FBECDBF3C016A017B01AB
:104AA00020E030E048E453E4C701B6010E94DD5C39
:104AB00018168CF020E030E048E453ECC701B60152
:104AC0000E94165B87FF0DC0C12CD12C58E4E52E47
:104AD00053ECF52E06C0C12CD12C68E4E62E63E41D
:104AE000F62ECE0101964C018EE0F40111928A95CA
:104AF000E9F75E01FFE0AF0EB11C8AE0F50111920B
:104B00008A95E9F78E01075E1F4F86E0F801119242
:104B10008A95E9F7F3018481898F85E08A8FCB8EAE
:104B2000DC8EED8EFE8E46E0C42ED12CE12CF12CD5
:104B300021E04EE050E060E070E0C40125DE0AE0D4
:104B400010E02EE030E0A501B401C301CADE2AE086
:104B500030E040E050E0B5018EE498E00E94A835D6
:104B60008EE498E00E944B3680E06E960FB6F89483
:104B7000DEBF0FBECDBFDF91CF911F910F91FF9090
:104B8000EF90DF90CF90BF90AF909F908F907F90ED
:104B90006F9008952F923F924F925F926F927F9203
:104BA0008F929F92AF92BF92CF92DF92EF92FF923D
:104BB0000F931F93CF93DF93CDB7DEB7A8970FB6B0
:104BC000F894DEBF0FBECDBF4C011A012B01680166
:104BD000790120E030E048E453E4C701B6010E94C7
:104BE000DD5C18168CF020E030E048E453ECC7019F
:104BF000B6010E94165B87FF0DC0C12CD12CE8E4E2
:104C0000EE2EE3ECFE2E06C0C12CD12CF8E4EF2EE4
:104C1000F3E4FF2E20E030E0A901C201B1010E94BF
:104C2000165B811105C0B701A601C40120DF59C080
:104C3000CE0101963C0182E1F30111928A95E9F7D8
:104C40008AE05E01FDE1AF0EB11CF501982F1192D3
:104C50009A95E9F78E010D5E1F4FF80111928A9522
:104C6000E9F7F40184818B8B81E18C8B2D8A3E8A5C
:104C70004F8A588EC98EDA8EEB8EFC8E7AE0C72E64
:104C8000D12CE12CF12C21E042E150E060E070E019
:104C9000C3017ADD0AE010E022E130E0A501B301B2
:104CA000C4011FDE2AE030E040E050E0B5018EE4B0
:104CB00098E00E94A8358EE498E00E944B3618A632
:104CC0001FA222E030E040E050E0BE01695D7F4F6E
:104CD0008EE498E00E94B73781E098A5911101C059
:104CE00080E0A8960FB6F894DEBF0FBECDBFDF916F
:104CF000CF911F910F91FF90EF90DF90CF90BF90D9
:104D0000AF909F908F907F906F905F904F903F906B
:104D10002F9008958E589F4FFC01808108958259ED
:104D20009F4FFC0180810895FC0146A357A360A713
:104D300071A70895FC0146A157A160A571A54F5F19
:104D40005F4F6F4F7F4F46A357A360A771A708958A
:104D5000FC0146A157A160A571A541505109610907
:104D6000710946A357A360A771A70895FC01628546
:104D7000738584859585089522E0FC0120839B013D
:104D80006F3F710519F014F02FEF30E02130FFEF85
:104D90003F0714F421E03FEFFC0137832683089599
:104DA000EF92FF920F931F93CF93DF93FC016F3F1E
:104DB000710519F014F06FEF70E0EB0161308FEFC7
:104DC000780714F4C1E0DFEF808591858C179D078B
:104DD00091F1D187C087D583C483DF01A059BF4F2C
:104DE000CF018F589F4F7C018F0101591F4FD7FF73
:104DF0000EC060E08C910E94545561E0F701808103
:104E00000E945455662777276C1B7D0B0AC061E012
:104E10008C910E94545560E0F70180810E945455A6
:104E2000BE01F8018081DF91CF911F910F91FF901A
:104E3000EF900C940354DF91CF911F910F91FF904D
:104E4000EF9008959F92AF92BF92CF92DF92EF9230
:104E5000FF920F931F93CF93DF93EC01DC01AD58CA
:104E6000BF4F6C9385E0982E969EF0011124EC5C68
:104E7000FD4F80818E0103591F4FD8018C935E0135
:104E8000BEE6AB0EB11C9181D5019C931196928127
:104E90009C936E01B0E7CB0ED11C9381D6019C93FD
:104EA0007E01B1E7EB0EF11C9481F701908362E083
:104EB0000E941B5562E0D5018C910E941B5562E057
:104EC000F60180810E941B5562E0D7018C910E94FF
:104ED0001B551EA21FA218A619A684EF91E0998760
:104EE0008887188289E090E09B838A8348E651E1B5
:104EF0006DE172E44E8B5F8B688F798FF801808152
:104F0000823119F4359690821AC0833111F484E00D
:104F100003C0843131F483E0FE01EE58FF4F8083FB
:104F20000EC0853111F482E0F7CF833011F481E0B7
:104F3000F3CF823021F4FE01EE58FF4F108260E083
:104F400070E0CE012DDF1EA21FA218A619A60E9496
:104F50001D53CA58DF4F688379838A839B83DF910F
:104F6000CF911F910F91FF90EF90DF90CF90BF9066
:104F7000AF909F9008952F923F924F925F926F92C1
:104F80007F928F929F92AF92BF92CF92DF92EF92D9
:104F9000FF920F931F93CF93DF9300D000D0CDB734
:104FA000DEB79E838D830E941D530D811E810A589A
:104FB0001F4FF801C080D180E280F3806C197D0919
:104FC0008E099F09653171058105910508F465C059
:104FD0000E941D5369837A838B839C83ED81FE81BC
:104FE000C6A0D7A0E0A4F1A482A193A1A4A1B5A1D9
:104FF0002280338046885788608C718CA701960187
:10500000281B390B4A0B5B0BCA01B9010E94B55B27
:105010004B015C01F8018081918169817A81681B73
:10502000790B80E090E00E94B35B9B01AC0160E0F3
:1050300070E08AE794E40E941A5B9B01AC01C50111
:10504000B4010E942D5D20E030E040E752E40E9470
:105050002D5D4B015C01B101882777FD8095982F6C
:105060000E94B55BA30192010E942D5D9B01AC01E2
:10507000C501B4010E941A5BED81FE8162877387CE
:1050800084879587C2A2D3A2E4A2F5A20E941D53F1
:10509000F801608371838283938326960FB6F89418
:1050A000DEBF0FBECDBFDF91CF911F910F91FF905B
:1050B000EF90DF90CF90BF90AF909F908F907F90B8
:1050C0006F905F904F903F902F900895AF92BF9256
:1050D000CF92DF92EF92FF920F931F93CF93DF93C4
:1050E00000D01F92CDB7DEB75C01FC0166A177A1AD
:1050F00080A591A50281138126893789408D518D24
:1051000029833A834B835C830E94B55B6B017C01EE
:10511000B801882777FD8095982F0E94B55B29817B
:105120003A814B815C810E942D5D9B01AC01C701DE
:10513000B6010E941A5B20E030E044EB53E40E9489
:105140002D5D0E94825BF501628F738F848F958F36
:105150000F900F900F900F90DF91CF911F910F91B3
:10516000FF90EF90DF90CF90BF90AF900895FC013B
:10517000628D738D848D958D0895FC0181E080830F
:10518000818346875787608B718BE659FF4F10826A
:105190000895CF92DF92EF920F931F93FC01068741
:1051A0001787208B318BDC01A459BF4FEC921297EB
:1051B0001C9281E080831182468F578F60A371A378
:1051C0005496CD92DC92468D578D60A171A1028DCF
:1051D000138D248D358D401B510B620B730BE559DC
:1051E000FF4F141615061606170614F4808301C027
:1051F00010821F910F91EF90DF90CF9008958F92C2
:105200009F92AF92BF92CF92DF92EF92FF920F9355
:105210001F93FC01828C938CA48CB58C840E951EFC
:10522000A61EB71E868E978EA0A2B1A2468D578D60
:1052300060A171A1AEDF1F910F91FF90EF90DF9001
:10524000CF90BF90AF909F908F900895CF92DF92B4
:10525000EF92FF920F931F93FC0142A753A764A7FD
:1052600075A706A717A720AB31ABC2AAD3AAE4AA99
:10527000F5AA1F910F91FF90EF90DF90CF900895C6
:10528000CF92DF92EF92FF920F931F93FC01E65BA8
:10529000FF4F40835183628373833496008311836D
:1052A000228333833496C082D182E282F3821F91BB
:1052B0000F91FF90EF90DF90CF900895FC017383E2
:1052C00062830895CF93DF93EC01882777FD809563
:1052D000982F0E94B55B6E8B7F8B888F998FDF91A3
:1052E000CF910895FC01608308952F923F924F92D1
:1052F0005F926F927F928F929F92AF92BF92CF9266
:10530000DF92EF92FF920F931F93CF93DF9300D022
:105310001F92CDB7DEB71C01DC015E966D917D91C9
:105320008D919C9191975A960D911D912D913C9143
:105330005D97601B710B820B930B0E94B55B6B0139
:105340007C015101BAE6AB0EB11CF50180818101EF
:105350000C581F4F8111ABC13196808120E030E0A5
:10536000A901882339F0C701B6010E94165B87FFA7
:1053700032C006C0C701B6010E94DD5C18165CF59C
:10538000D1011A962D913D914D915C911D97F1019E
:10539000EE5AFF4F60817181828193810E942D5D61
:1053A000DC01CB01B058F101E65AFF4F80839183B5
:1053B000A283B38360817181828193810E94825B29
:1053C000F8017183608321E0D5012C93F10175838D
:1053D0006483CB01B7C220E030E0A901C701B60168
:1053E0000E94DD5C26013701181624F077FA7094CC
:1053F00077F87094D1011E966D917D918D919C915D
:10540000519720E030E040EC50E40E942D5D9B017C
:10541000AC01C301B2010E94DD5C87FFE5C120E061
:1054200030E0A901C701B6010E94DD5C18165CF4EA
:1054300020E030E040E251E4C701B6010E94DD5CAB
:1054400018165CF034C120E030E040E251ECC701B6
:10545000B6010E94165B87FF2AC1F101468457847A
:105460006088718820E030E040E251E4C701B60175
:105470000E944F5A4B015C0120E030E040EC50E4C8
:10548000C301B2010E942D5DA50194010E942D5D12
:1054900020E030E0A9010E94DD5C181694F4D101EF
:1054A0001E966D917D918D919C91519720E030E0F9
:1054B00040EC50E40E942D5DA50194010E942D5DF9
:1054C00010C0F101668577858089918920E030E000
:1054D00040EC50E40E942D5DA50194010E942D5DD9
:1054E00090580E94E05D20E030E040EC50E40E94E3
:1054F0001A5B2B013C01D1011A968D909D90AD90C5
:10550000BC901D9720E030E0A901C701B6010E94C0
:10551000DD5CA701960118160CF05058B1016E5AC7
:105520007F4FDB018D919D910D90BC91A02D8983C2
:105530009A83AB83BC83C701B6010E941A5B9B01AF
:10554000AC01C301B2010E942D5D9B01AC01C501FC
:10555000B4010E944F5A9B01AC0169817A818B8111
:105560009C810E942D5D4B015C0120E030E040EA0F
:1055700051EC0E94165B87FD11C020E030E040EA4C
:1055800051E4C501B4010E94DD5C18166CF4812C55
:10559000912C50EAA52E51E4B52E06C0812C912CF9
:1055A00040EAA42E41ECB42EF80160817181882775
:1055B00077FD8095982F0E94B55BFAE52F0E311C80
:1055C000D1016D937D938D939C9313976D917D91F4
:1055D0008D919C91A50194010E944F5AF101608325
:1055E00071838283938320E030E0A901C701B60173
:1055F0000E94DD5CD10187FD23C06D917D918D916D
:105600009C9120E030E048EC51E40E94165B87FD5D
:1056100012C0F101608171818281938120E030E0CC
:105620004FE753E40E94DD5C18161CF580E090E023
:10563000AFE7B3E42DC080E090E0A8ECB1E428C06F
:105640006D917D918D919C9120E030E04FE753EC7E
:105650000E94165B87FD13C0F10160817181828118
:10566000938120E030E048EC51EC0E94DD5C18169C
:105670005CF0F10180819181A281B38109C080E059
:1056800090E0AFE7B3EC04C080E090E0A8ECB1ECB0
:10569000F10180839183A283B383608171818281D0
:1056A00093810E94825BF8017183608399C081E0DD
:1056B000D5018C93F101E258FF4F0190F081E02D6C
:1056C000309749F0D101A459BF4F6C9170E0179603
:1056D0008C9190E01995F10122853385448555859B
:1056E000EE5AFF4F60817181828193810E942D5D0E
:1056F0004B015C0120E030E040EA51EC0E94165B77
:1057000087FD11C020E030E040EA51E4C501B4015A
:105710000E94DD5C18166CF4812C912C30EAA32ECB
:1057200031E4B32E06C0812C912C20EAA22E21EC6C
:10573000B22EF101E65BFF4F20813181428153811E
:10574000C701B6010E942D5DFAE52F0E311CD10173
:105750006D937D938D939C9313976D917D918D9116
:105760009C91A50194010E944F5AF10160837183BD
:1057700082839383608171818281938120E030E014
:105780004FE753EC0E94165B87FD13C0D1016D916A
:105790007D918D919C9120E030E04FE753E40E9491
:1057A000DD5C18165CF0F10180819181A281B381EA
:1057B00009C080E090E0AFE7B3EC04C080E090E087
:1057C000AFE7B3E4F10180839183A283B383608167
:1057D0007181828193810E94825BD8016D937C9359
:1057E000F80180819181AEC0D1011A968D919D9171
:1057F0000D90BC91A02D89839A83AB83BC83F1016A
:1058000086849784A088B18820E030E0A901C70190
:10581000B6010E94DD5C181624F0A70196015058CD
:1058200002C0A7019601F10142A453A464A475A487
:10583000C701B6010E941A5B9B01AC01C501B4010E
:105840000E942D5D9B01AC0169817A818B819C81D5
:105850000E944F5A9B01AC01C301B2010E942D5D11
:105860006B017C0120E030E048EC51EC0E94165BBB
:1058700087FD11C020E030E048EC51E4C701B601DB
:105880000E94DD5C18166CF4C12CD12C78ECE72E4C
:1058900071E4F72E06C0C12CD12C68ECE62E61EC29
:1058A000F62ED8016D917C91882777FD8095982FF1
:1058B0000E94B55BF10162AF73AF84AF95AF62AD8B
:1058C00073AD84AD95ADA70196010E944F5AD101E9
:1058D000DA966D937D938D939C93DD97DA966D9117
:1058E0007D918D919C91DD9720E030E04FE753EC66
:1058F0000E94165B87FD13C0F10162AD73AD84ADEC
:1059000095AD20E030E04FE753E40E94DD5C1816CF
:105910005CF0F10182AD93ADA4ADB5AD09C080E0FE
:1059200090E0AFE7B3EC04C080E090E0AFE7B3E411
:10593000F10182AF93AFA4AFB5AF62AD73AD84ADEB
:1059400095AD49CF0F900F900F900F90DF91CF91B1
:105950001F910F91FF90EF90DF90CF90BF90AF908D
:105960009F908F907F906F905F904F903F902F907F
:105970000895AF92BF92CF92DF92EF92FF920F9372
:105980001F93CF93DF93EC016A857B858C859D8582
:105990002E853F8548895989CAA4DBA4ECA4FDA4BF
:1059A0000E944F5A9B01AC01C701B6010E942D5DB8
:1059B0006B017C0120E030E048EC51EC0E94165B6A
:1059C00087FD11C020E030E048EC51E4C701B6018A
:1059D0000E94DD5C18166CF4C12CD12CF8ECEF2E73
:1059E000F1E4FF2E06C0C12CD12CE8ECEE2EE1EC48
:1059F000FE2E8E010C581F4FF8016081718188279F
:105A000077FD8095982F0E94B55B6AAF7BAF8CAF16
:105A10009DAF6AAD7BAD8CAD9DADA70196010E9497
:105A20004F5A6AAF7BAF8CAF9DAF5E01FAE6AF0E07
:105A3000B11CF5018081882329F01AAE1BAE1CAE83
:105A40001DAE1EC06E857F858889998920E030E073
:105A5000A9010E94165B811113C020E030E0A9016A
:105A6000C701B6010E94DD5C18168CF520E030E01D
:105A700040E751E4C701B6010E94165B87FD31C0C3
:105A80006AAD7BAD8CAD9DAD20E030E04FE753ECCF
:105A90000E94165B87FD11C06AAD7BAD8CAD9DADDC
:105AA00020E030E04FE753E40E94DD5C181654F02C
:105AB0008AAD9BADACADBDAD1CC080E090E0AFE762
:105AC000B3EC17C080E090E0AFE7B3E412C020E091
:105AD00030E040E751ECC701B6010E94DD5C1816CA
