:1000000017C300000C943A420C946B420C949C422F
:100010000C94CD420C94FE420C942F430C946043FC
:100020000C9491430C9410400C9410400C9410408C
:1000300030C300000C94962A2CC300002AC3000091
:1000400028C300000C942F3A24C3000022C30000F0
:1000500020C300001EC300001CC300000C94C24358
:1000600018C300000C9459480C948F4812C3000028
:1000700010C300000EC300000CC300000AC3000040
:100080000C945C3A06C3000004C3000002C30000E5
:1000900000C30000FEC20000FCC200000C94F13D51
:1000A000F8C20000F6C200000C94893AF2C20000C7
:1000B000F0C20000EEC20000ECC200000C94B63AA0
:1000C000E8C20000E6C20000E4C200000C9404494B
:1000D0000C943A49DEC20000DCC20000DAC2000023
:1000E000D8C2000047162114581479147914B51495
:1000F0003716791434173417341734173417341764
:1001000034171E15D51436153417341734176B15DC
:10011000CE16CE15EB151116A715961434173417F5
:1001200055165D16341734173417341780166B16AE
:100130003417341734173417341734173417341767
:100140003417341734173417AF16B816341734175A
:100150003417341734173417341734170C17E816BC
:100160001442DE41E641F241FF4120422D42174553
:100170001C4521452B453545AE453F4547454F4537
:10018000594563456D457C458645AE4590459A4544
:10019000A445D045D345C245C645CC450A46D745BA
:1001A000DB45E145E545E945EF45F345F7450A46B9
:1001B000FD4501460546084AD73B3BCE016E84BC4F
:1001C000BFFDC12F3D6C74319ABD56833DDA3D00B1
:1001D000C77F11BED9E4BB4C3E916BAAAABE0000FA
:1001E00000803F08000000BE922449123EABAAAA3C
:1001F0002ABECDCCCC4C3E00000080BEABAAAAAA41
:100200003E00000000BF000000803F000000000032
:10021000084178D3BB4387D1133D190E3CC3BD427F
:1002200082AD2B3E68EC8276BED98FE1A93E4C8030
:10023000EFFFBE01C4FF7F3F0000000000076342E4
:1002400036B79BD8A71A39685618AEBAAB558C1D6D
:100250003CB7CC5763BD6DEDFD753EF6177231BFEF
:10026000000000803F003F065B4F666D7D077F6F9B
:10027000777C395E7971BF86DBCFE6EDFD87FFEFD6
:10028000F7FCB9DEF9F100407C447C007C005C5452
:100290007454547C70107C74545C7C545C40407C7E
:1002A0007C547C74547C000400202020000000203A
:1002B00000000000000030007C82827C003100429F
:1002C000FE0200003200468A92620033004492929D
:1002D0006C0034001C64FE04003500F292928C0025
:1002E00036007C92924C003700C08E90E0003800BF
:1002F0006C92926C0039006492927C006100042A36
:100300002A1E006200FE12120C0063000C12121270
:100310000064000C1212FE0065001C2A2A180066F8
:1003200000103E50500067000815151E006800FEC2
:10033000101E00006900002E0000006A0002012E5D
:1003400000006B00FE081412006C0000FE020000AA
:100350006D001E100E100E6E001E10100E006F00AD
:100360000C12120C0070001F12120C0071000C1203
:10037000121F0072001E08101000730012292512AF
:10038000007400103E12000075001C02021E007670
:100390001804020418007718061C061800780012CA
:1003A0000C0C120079001805051E007A0012161AAE
:1003B000120041007E88887E004200FE92926C000E
:1003C00043007C828244004400FE82827C0045001F
:1003D000FE929282004600FE9090800047007C8250
:1003E000925C004800FE1010FE00490082FE820070
:1003F000004A000C0202FC004B00FE1028C6004C14
:1004000000FE020202004D00FE403040FE4E00FEA3
:10041000403008FE4F007C8282827C5000FE90902B
:10042000600051007C828A847A5200FE98946200B7
:1004300053006492924C00540080FE80800055006E
:10044000FC0202FC005600F00C020CF05700FE0407
:100450003804FE5800C63838C60059C0201E20C0D7
:10046000005A00869AB2C2002C00010E0C00002E29
:10047000000006060000257254781E2A4E21000056
:100480007A0000003F00204A3000002D00101010BC
:1004900010002B08083E0808002F00020C30400016
:1004A0002A2214081422003A00001400000022003E
:1004B000C000C000002328FE28FE28002800007C81
:1004C000820000290000827C00003B000224000022
:1004D000007E0040804080003B0002240000003D80
:1004E0000028282828007C0000FE0000003E008232
:1004F000442810003C001028448200400000000006
:10050000000000000A0B02090C0D0E08070304018D
:1005100000000000000000000000000000000000DB
:1005200000000000000000000000000000001211A8
:1005300010000000000000000000000000000000AB
:100540000000000000000000010210202008081038
:100550002040102040800201020108040201010233
:10056000040810204080804020100804020180040C
:100570000201804020100804020108040201010267
:100580000408102040800102040810204080050566
:100590000505070508080808020202020A0A0808F9
:1005A0000404040401010101010101010303030327
:1005B00003030303040707070C0C0C0C0C0C0C0CB6
:1005C0000202020206060606060606060B0B0B0BC7
:1005D0000B0B0B0B000020002300260029002C0031
:1005E0002F00320000010000030106010901000094
:1005F0002200250028002B002E00310034000201CB
:100600000000050108010B01000021002400270063
:100610002A002D0030003300010100000401070111
:100620000A01BB120722103DC1486C4932130A224D
:1006300011241FBECFEFD1E2DEBFCDBF00E00CBF63
:1006400013E0A0E0B2E0EAE6F9EA00E00BBF02C086
:1006500007900D92A038B107D9F72CE0A0E8B3E0DD
:1006600001C01D92A330B207E1F716E0CCE2D6E05C
:1006700000E006C022970109FE010BBF0E94E6516F
:10068000C232D10780E00807A9F70E94B0490C9454
:10069000A454B6CCCF92DF92EF92FF920F931F93A8
:1006A000E82FF92F05C0015011092109310961F125
:1006B000908196239417B9F305C0015011092109BF
:1006C000310911F1908196239413F7CFC12CD12CCD
:1006D000E12CF12C0AC08FEFC81AD80AE80AF80AF0
:1006E0000C151D052E053F0579F0808186238417A2
:1006F00091F36C2D7D2D8E2D9F2D1F910F91FF90CD
:10070000EF90DF90CF90089560E070E080E090E09F
:100710001F910F91FF90EF90DF90CF9008958EE59D
:1007200095E00E9410220E947946892B21F48EE5E3
:1007300095E00C942D228EE595E00C941F2286E125
:1007400095E00E9410220E947946892B21F486E1CF
:1007500095E00C942D2286E195E00C941F220C94D8
:1007600090540C948854CF92DF92EF92FF920F93A3
:100770001F93CF93DF931F921F92CDB7DEB76C010B
:100780008B017C0184E0E80EF11CC60169837A8349
:100790000E948854F80181938F01FFEFCF1ADF0A7E
:1007A00069817A81CE14DF0481F7CB010F900F901D
:1007B000DF91CF911F910F91FF90EF90DF90CF903D
:1007C0000895EF92FF920F931F93CF93DF931F92A1
:1007D000CDB7DEB77C01FC0100811181C8016983BE
:1007E0000E9488546981681719F0C8010E949054CA
:1007F000C7010F90DF91CF911F910F91FF90EF9064
:100800000895BF92CF92DF92EF92FF920F931F93C2
:10081000CF93DF9300D0CDB7DEB78C01B62EE62E96
:10082000F72E6C0184E0C80ED11CF70161917F01A5
:100830001A830983CE0101967B83C3DF0F5F1F4FAD
:100840007B810C151D0589F78B2D972F0F900F902D
:100850000F90DF91CF911F910F91FF90EF90DF905C
:10086000CF90BF900895CF92DF92EF92FF920F93B7
:100870001F93CF93DF931F921F92CDB7DEB76C010A
:100880008C0183E5E82EF12CF80161918F01FA8249
:10089000E982CE01019695DFFFEFEF1AFF0A87E5A7
:1008A000E816F10489F7C6010F900F90DF91CF9100
:1008B0001F910F91FF90EF90DF90CF9008956BEA1A
:1008C00080E590E04CDF6DEC81E590E048DF6BEA7D
:1008D00082E590E044DF8AE092E0C5DF66E274E002
:1008E00087E590E08EDF6AE274E08BE590E089DFD7
:1008F0006EE274E08FE590E084DF66E074E083E60A
:1009000090E07FDF6AE074E087E690E07ADF6EE0F7
:1009100074E08BE690E075DF66EE73E08FE690E0C2
:1009200070DF6FEE83E790E01ADF6BEA82E890E019
:1009300016DF6091B00483E690E011DF6FEE84E88B
:1009400090E00DCF6BEA80E890E009DF6DEC81E884
:1009500090E005DF6BEA82E890E001DF6091B0048F
:1009600083E890E0FCDE6FEE84E890E0F8CE0F9331
:100970001F93CF93DF9380E590E0F3DE8B3A29F469
:1009800081E590E0EEDE8D3C71F099DF80E890E04B
:10099000E8DE8B3A09F04BC081E890E0E2DE8D3C66
:1009A00009F045C046C082E590E0DBDE8B3A09F0F5
:1009B00037C083E790E0D5DE8F3E91F50AE012E084
:1009C000C3E5D0E0CE010E948854F80181938F01E5
:1009D0002196C735D105B1F766E274E087E590E06E
:1009E000C2DE6AE274E08BE590E0BDDE6EE274E0A8
:1009F0008FE590E0B8DE66E074E083E690E0B3DE79
:100A00006AE074E087E690E0AEDE6EE074E08BE6CC
:100A100090E0A9DE66EE73E08FE690E0A4DEB6CF4C
:100A200061E772E08FEB9AE00E94274AAFCF8ADF3E
:100A30001BC082E890E095DE8B3A61F484E890E098
:100A400090DE8F3E39F483E890E00E9488548093D2
:100A5000B0040AC067E972E08FEB9AE0DF91CF91B2
:100A60001F910F910C94274A80E090E0DF91CF9185
:100A70001F910F9108956091120270911302719568
:100A8000619571098EE595E00E9441226091120204
:100A90007091130286E195E00C944122609112025C
:100AA000709113028EE595E00E944122609112023E
:100AB0007091130271956195710986E195E00C942E
:100AC0004122609112027091130277FF02C06D5FA4
:100AD0007F4F75956795759567958EE595E00E94B2
:100AE0004122609112027091130271956195710912
:100AF00086E195E00C9441226091120270911302FC
:100B00008EE595E00E9441226091120270911302DD
:100B100077FF02C06D5F7F4F7595679575956795F7
:100B200071956195710986E195E00C94412260917F
:100B30001202709113027195619571098EE595E02D
:100B40000E944122609112027091130277FF02C04D
:100B50006F5F7F4F7595679586E195E00C94412214
:100B6000609112027091130277FF02C06F5F7F4F96
:100B7000759567957195619571098EE595E00E946F
:100B80004122609112027091130286E195E00C946B
:100B90004122609112027091130271956195710961
:100BA0008EE595E00E94412260911202709113023D
:100BB00071956195710986E195E00C9441226091EF
:100BC0001202709113028EE595E00E94412260911D
:100BD00012027091130286E195E00C94412210926A
:100BE000BE041092BF041092C0041092C10410926F
:100BF000BA041092BB041092BC041092BD0410926F
:100C0000B6041092B7041092B8041092B90410926E
:100C1000B2041092B3041092B4041092B50460E0D0
:100C200070E08EE595E00E94412260E070E086E190
:100C300095E00C9441228FEB9AE00C94144AFC014D
:100C4000EA58FB4F808180930205818180930305E0
:100C500080910205909103050895ACE0B5E0FC0198
:100C6000EA58FB4F80818C93818180930D058281AE
:100C700080930E05838180930F056D917D918D91F9
:100C80009C910895E2E9F3E020E030E08A589B4F20
:100C90002617370744F4DC01A20FB31F4C91419390
:100CA0002F5F3F4FF5CFFB01EE56FC4F108282E9DC
:100CB00093E00895E2E8F3E020E030E08A589B4FAB
:100CC000261737075CF42031310541F0DC01A20F13
:100CD000B31F4C9141932F5F3F4FF2CF82E893E0D7
:100CE0000895EAECF4E020E030E04191519148179A
:100CF000590791F0452B41F4F901EE0FFF1FE65320
:100D0000FB4F9183808308C02F5F3F4F2830310510
:100D100061F780E090E00895C90108958F929F9255
:100D2000AF92BF92CF92DF92EF92FF920F931F93F9
:100D3000CF93DF93CDB7DEB7E6970FB6F894DEBF5B
:100D40000FBECDBFD0907C04ED2CF12C80329105EC
:100D500009F4E6C344F58930910509F430C364F41D
:100D60008530910509F4E6C08830910509F4B0C2D8
:100D7000039709F091C49BC38B30910509F4F5C228
:100D80000CF442C08431910509F4A6C34E9709F0D2
:100D900083C461E08D2D0E940B4660917D048D2DF2
:100DA0000E94444679C48932910509F420C354F461
:100DB0008232910509F4C0C30CF4DEC3889709F4AC
:100DC000FDC06AC48433910509F4F6C3B4F4C29734
:100DD00009F062C40E940C440E94344E20E030E0CE
:100DE0004AE754E40E949B4D60937204709373042D
:100DF00080937404909375044FC48C33910509F467
:100E000095C2CD9781F048C487E090E018DF8C014F
:100E10006D2D88E597E00E940D33B80188E597E0D5
:100E20000E94D22139C4EF2809F036C410917D0404
:100E300088E090E004DF1130E1F5BC01882777FD00
:100E40008095982F0E94364E6B017C016093B6040A
:100E50007093B7048093B8049093B9042DEC3CECE4
:100E60004CE45FE36091BE047091BF048091C004C4
:100E70009091C1040E94AE4F4B015C012DEC3CEC03
:100E80004CE45EE3C701B6010E94AE4F9B01AC018A
:100E9000C501B4010E94D14C6093BE047093BF049D
:100EA0008093C0049093C1040E94034E8EE595E0A8
:100EB0003EC0123009F0F0C3BC01882777FD809551
:100EC000982F0E94364E6B017C016093B2047093A0
:100ED000B3048093B4049093B5042DEC3CEC4CE443
:100EE0005FE36091BA047091BB048091BC0490915F
:100EF000BD040E94AE4F4B015C012DEC3CEC4CE478
:100F00005EE3C701B6010E94AE4F9B01AC01C50173
:100F1000B4010E94D14C6093BA047093BB048093D7
:100F2000BC049093BD040E94034E86E195E00E94AC
:100F30004122B2C386E090E082DEBC01882777FDC3
:100F40008095982F0E94364E6B017C016093B60409
:100F50007093B7048093B8049093B9042DEC3CECE3
:100F60004CE45FE36091BE047091BF048091C004C3
:100F70009091C1040E94AE4F4B015C012DEC3CEC02
:100F80004CE45EE3C701B6010E94AE4F9B01AC0189
:100F9000C501B4010E94D14C6093BE047093BF049C
:100FA0008093C0049093C1040E94034E8EE595E0A7
:100FB0000E94412288E090E042DE7ECF87E090E010
:100FC0003EDE8C0189E090E03ADE5C0181E0E816CB
:100FD000F10409F0BBC061E0CE0101960E948635A4
:100FE0008B819C81AD81BE818093DC059093DD0572
:100FF000A093DE05B093DF058F818093E00588859F
:101000009985AA85BB858093E1059093E205A0931D
:10101000E305B093E4058C859D85AE85BF858093FF
:10102000E5059093E605A093E705B093E805888968
:101030009989AA89BB898093E9059093EA05A093D1
:10104000EB05B093EC058C899D89AE89BF898093AF
:10105000ED059093EE05A093EF05B093F005888D14
:10106000998DAA8DBB8D8093F1059093F205A09385
:10107000F305B093F4058C8D9D8DAE8DBF8D80935F
:10108000F5059093F605A093F705B093F80588A1B0
:1010900099A1AAA1BBA18093F9059093FA05A09309
:1010A000FB05B093FC058CA19DA1AEA1BFA18093CF
:1010B000FD059093FE05A093FF05B093000688A55B
:1010C00099A5AAA5BBA58093010690930206A093BB
:1010D0000306B09304068CA59DA5AEA5BFA580937D
:1010E000050690930606A0930706B093080688A904
:1010F00099A9AAA9BBA98093090690930A06A0936F
:101100000B06B0930C068CA980930D068DA98093D5
:101110000E06A501662757FD6095762F8AED95E0AE
:101120000E948837B801882777FD8095982F0E9404
:10113000364E6B017C01AB01BC018AED95E00E944B
:101140009E37B701A6018AED95E0BFC082E0E816A0
:10115000F10409F0A1C262E0CE0101960E94863539
:101160008B819C81AD81BE81809311069093120684
:10117000A0931306B09314068F818093150688857B
:101180009985AA85BB858093160690931706A09330
:101190001806B09319068C859D85AE85BF85809312
:1011A0001A0690931B06A0931C06B0931D0688890F
:1011B0009989AA89BB8980931E0690931F06A093E4
:1011C0002006B09321068C899D89AE89BF898093C2
:1011D000220690932306A0932406B0932506888DBB
:1011E000998DAA8DBB8D8093260690932706A09398
:1011F0002806B09329068C8D9D8DAE8DBF8D809372
:101200002A0690932B06A0932C06B0932D0688A156
:1012100099A1AAA1BBA180932E0690932F06A0931B
:101220003006B09331068CA19DA1AEA1BFA18093E1
:10123000320690933306A0933406B093350688A502
:1012400099A5AAA5BBA58093360690933706A093CF
:101250003806B09339068CA59DA5AEA5BFA5809391
:101260003A0690933B06A0933C06B0933D06C8A86F
:10127000D9A8EAA8FBA8C0923E06D0923F06E09209
:101280004006F09241068CA9809342068DA9809376
:101290004306A501662757FD6095762F8FE096E0FF
:1012A0000E948837B801882777FD8095982F0E9483
:1012B000364E6B017C01AB01BC018FE096E00E94D1
:1012C0009E37B701A6018FE096E00E94F837E4C18F
:1012D00040917D04B0907E0410917F04C090800402
:1012E00000918104EF2831F06D2D88E397E00E9492
:1012F000363305C06CE288E397E00E947E33BB2062
:1013000049F06FEF6B0D2C2D412F88E397E00E9481
:10131000CF3307C0202F4C2D612F88E397E00E9428
:101320001E3488E397E00E944A34B6C110917D04D0
:1013300081E1D812B1C153DC153050F41093B004E0
:1013400083E890E00EDA811709F4A6C1612F09C085
:101350001092B00483E890E004DA882309F49CC179
:1013600060E083E890E0FBD997C120917D04C7013C
:10137000880F991FFC01EE5AFD4F213011F40081B6
:1013800001C0018110E0D0907E04C801AADCFC01FC
:10139000EE0FFF1FE80FF91FE25AF84F208131814D
:1013A000428129833A834B8384EB8D1508F474C101
:1013B000B801CE0101960E94AE3B6D2DF7C08CE2C4
:1013C00097E00E94B932282F30E02E153F0529F012
:1013D0006D2D8CE297E00E94BB1B87E090E03DDC26
:1013E000AB01BC018CE297E00E94DC1B55C187EF8A
:1013F00096E00E94B932282F30E02E153F0529F0E3
:101400006D2D87EF96E00E94192C80917D0490E06D
:1014100081309105B1F400917E04112707FD1095EC
:1014200040917F046091800470E08BE090E04EABCF
:1014300029DC9C014EA9B80187EF96E00E94352E69
:101440002BC18230910599F4F0907E0440917F0485
:1014500060E170E08AE090E04EAB2CDC8C0120E192
:101460004EA96F2D87EF96E00E94402C15C1833066
:10147000910579F421E080917E04811101C020E082
:101480004091800460917F0487EF96E00E946F2E68
:1014900003C1049709F000C188E090E0DEDBAB01F6
:1014A000BC0123E087EF96E00E943F2FF5C088E261
:1014B00097E00E94B932282F30E02E153F0529F021
:1014C0006D2D88E297E00E940D3361E080917D04EC
:1014D000811118C060E016C088E297E00E94B9321E
:1014E000282F30E02E153F0529F06D2D88E297E07A
:1014F0000E940D3360917D04862F90E0823091052B
:1015000034F4617088E297E00E94E132C5C061E086
:10151000029709F460E088E297E00E94F132BCC0D3
:1015200061E08D2D0E940B4620917D04622F70E0BA
:101530008D2D0E94F344B0C061E08D2D0E940B46BA
:1015400087E090E07CDB6C0189E090E078DB1816A6
:10155000190664F48C01222717FD2095322FA6016D
:10156000B70186ED95E00E94511C96C0B70186ED4B
:1015700095E00E94B81C90C010917D04153B08F0C6
:101580008BC0C701AEDBFC01EE0FFF1FE80FF91F98
:10159000E25AF84F80819181A28189839A83AB833B
:1015A000B701CE0101960E94AE3B612F70E0CE01E3
:1015B00001960E94E63B70C0EF2809F06DC087E0FD
:1015C00090E03DDB5C0189E090E039DBBC018827DD
:1015D00077FD8095982F0E94364E20E030E040E85D
:1015E0005EE30E94AE4F6B017C0160931204709326
:1015F00013048093140490931504B501882777FD94
:101600008095982F0E94364E90582CEE31E548E395
:101610005EE30E94AE4F6093F2037093F3038093F6
:10162000F4039093F503C701B6010E94034E9B019A
:1016300077FF04C022273327261B370B22303105C2
:101640001CF081E080934C0468EB72E08FEB9AE031
:101650000E940C4A4091F2035091F3036091F4030D
:101660007091F50322E030E08FEB9AE00E94AC4BE2
:1016700061EC72E08FEB9AE00E940C4A40911204F8
:1016800050911304609114047091150422E030E02D
:101690008FEB9AE00E94AD4BE6960FB6F894DEBF52
:1016A0000FBECDBFDF91CF911F910F91FF90EF90B3
:1016B000DF90CF90BF90AF909F908F900895BC0126
:1016C000882777FD8095982F0E94364E9B01AC01AC
:1016D00060E070EC8FE794E40E949B4D20E030E0E6
:1016E00040E85FE30E94D04C9B01AC0160E070E4F5
:1016F0008CE196E40E949B4D20E030E44CE156E4FE
:101700000E949B4D0E946E4F20E030E443E555E47B
:101710000E949B4D2FE03FEC4BE55BE30E94D14CD8
:101720009B01AC0160E070E080E89FE30E949B4D6C
:1017300023E333E948E853E40C94D04C08958AE35A
:101740000E94CE449093C5048093C404BC018827B2
:1017500077FD8095982F0E94364E20E030E040E8DB
:101760005AE30E94AE4F20E030E040E751E40C9491
:10177000AE4F08954F925F926F927F928F929F9299
:10178000AF92BF92CF92DF92EF92FF928FE696E0F8
:101790000E947F23905860936A0470936B04809337
:1017A0006C0490936D042091320430913304409185
:1017B0003404509135040E94D04C6B017C01809020
:1017C0003A0490903B04A0903C04B0903D040E94E9
:1017D000034E672B79F0A7019601C501B4010E9461
:1017E000D14C60933A0470933B0480933C049093F3
:1017F0003D0408C010923A0410923B0410923C043D
:1018000010923D0480905E0490905F04A09060046C
:10181000B090610480923E0490923F04A0924004F4
:10182000B09241042091260430912704409128046D
:1018300050912904C701B6010E94AE4F6B017C0193
:1018400020913A0430913B0440913C0450913D0476
:1018500060912A0470912B0480912C0490912D04A6
:101860000E94AE4F9B01AC01C701B6010E94D14C52
:101870006B017C0120912E0430912F0440913004A3
:1018800050913104C501B4010E94AE4F9B01AC01DF
:10189000C701B6010E94D14C6B017C0120E030E011
:1018A000A9010E945E4F20E030E040EA50E41816A3
:1018B0002CF4C701B6010E94D14C04C0C701B60187
:1018C0000E94D04C609336047093370480933804A0
:1018D0009093390440903604509037046090380457
:1018E00070903904C090F603D090F703E090F803AD
:1018F000F090F903A7019601C301B2010E94D04CF8
:101900004B015C01C301B2019058A70196010E94EE
:10191000D04C6B017C0120E030E04FE753ECC50177
:10192000B4010E94974D87FD11C020E030E04FE7E1
:1019300053E4C501B4010E945E4F18166CF4812C6B
:10194000912C8FE7A82E83E4B82E06C0812C912C11
:10195000BFE7AB2EB3ECBB2E20E030E04FE753ECFB
:10196000C701B6010E94974D87FD11C020E030E00D
:101970004FE753E4C701B6010E945E4F18166CF49E
:10198000C12CD12CAFE7EA2EA3E4FA2E06C0C12C5D
:10199000D12CFFE7EF2EF3ECFF2EC501B4010E941E
:1019A000034E8EE595E00E944122C701B6010E94D8
:1019B000034E86E195E0FF90EF90DF90CF90BF90CF
:1019C000AF909F908F907F906F905F904F900C940E
:1019D00041224F925F926F927F928F929F92AF922D
:1019E000BF92CF92DF92EF92FF920F931F93CF930C
:1019F000DF9386E195E00E943B226B017C018EE53E
:101A000095E00E943B229B01AC01C701B6010E94F8
:101A1000D04C20E030E040E05FE30E94AE4F4B014D
:101A20005C01C0901204D0901304E0901404F09074
:101A300015042DEC3CEC4CE45FE360916204709182
:101A4000630480916404909165040E94AE4F2B0161
:101A50003C012DEC3CEC4CE45EE3C701B6010E9476
:101A6000AE4F9B01AC01C301B2010E94D14C609307
:101A7000620470936304809364049093650480917E
:101A80004C04882321F1C501B4010E94034E695F13
:101A90007F4F6F307105D8F420E030E0A901C70115
:101AA000B6010E94974D811112C010924C04109201
:101AB0006204109263041092640410926504109200
:101AC0001A0410921B0410921C0410921D04209101
:101AD0006204309163044091640450916504C5012F
:101AE000B4010E94D04C20911A0430911B04409103
:101AF0001C0450911D040E94D14C8B01D82FC92F7A
:101B000020E030E84BEB54EC0E94974D87FD10C06D
:101B100020E030E84BEB54E4B8018D2F9C2F0E945D
:101B20005E4F18164CF400E010E8DBEBC4E404C090
:101B300000E010E8DBEBC4ECC801AD2FBC2F8093B4
:101B40001A0490931B04A0931C04B0931D042091CD
:101B50000604309107044091080450910904C5011E
:101B6000B4010E94AE4F4B015C0120910A043091F8
:101B70000B0440910C0450910D04B8018D2F9C2F43
:101B80000E94AE4F9B01AC01C501B4010E94D14C33
:101B90008B01D82FC92F20E030E040E751EC0E94A4
:101BA000974D87FD10C020E030E040E751E4B801D8
:101BB0008D2F9C2F0E945E4F18164CF400E010E011
:101BC000D0E7C1E404C000E010E0D0E7C1ECA80118
:101BD0006D2F7C2F409316045093170460931804C4
:101BE0007093190420911604309117044091180441
:101BF0005091190460910A0270910B0280910C02BD
:101C000090910D020E94D04C609332047093330483
:101C10008093340490933504DF91CF911F910F91FD
:101C2000FF90EF90DF90CF90BF90AF909F908F90FC
:101C30007F906F905F904F90089580914D04811137
:101C400011C08FE696E00E947F230E94034E9B0105
:101C500077FF04C022273327261B370B2530310599
:101C60000CF477C080914D04882309F47CC08FE682
:101C700096E00E947F230E94034E9B0177FF04C0E1
:101C800022273327261B370B213231050CF46BC07A
:101C9000109281031092800360E070E08EE595E081
:101CA0000E94412260E070E086E195E00E944122BE
:101CB00010921A0410921B0410921C0410921D041E
:101CC00080910A0290910B02A0910C02B0910D023A
:101CD0008093320490933304A0933404B09335047A
:101CE000109212041092130410921404109215040E
:101CF0001092F2031092F3031092F4031092F50382
:101D000040E050E0BA018EE595E00E94192240E0E3
:101D100050E0BA0186E195E00E94192210921A045F
:101D200010921B0410921C0410921D0410924D047A
:101D3000109262041092630410926404109265047D
:101D4000109266041092670410926804109269045D
:101D5000089580918003909181030196909381036F
:101D6000809380037FCF809180039091810345977A
:101D70000CF44CC0109281031092800310921A044C
:101D800010921B0410921C0410921D0460E070E07D
:101D90008EE595E00E94412260E070E086E195E0EA
:101DA0000E94412280910A0290910B02A0910C02A4
:101DB000B0910D028093320490933304A0933404C5
:101DC000B093350440E050E0BA018EE595E00E9402
:101DD000192240E050E0BA0186E195E00E94192204
:101DE0000E940C44609356047093570480935804E7
:101DF0009093590460935204709353048093540455
:101E00009093550481E080934D0408950895CF92F6
:101E1000DF92EF92FF9211DF80914D04882309F445
:101E200072C00E940C44C0905604D0905704E090B9
:101E30005804F09059046C197D098E099F096B3084
:101E400071058105910558F095DC0E940C44609362
:101E500056047093570480935804909359040E9439
:101E60000C44C0905204D0905304E0905404F0907D
:101E700055046C197D098E099F0965367105810528
:101E8000910508F450C0A5DD2DEC3CEC4CE45FE37B
:101E90006091660470916704809168049091690470
:101EA0000E94AE4F6B017C012DEC3CEC4CE45EE3F8
:101EB0006091F2037091F3038091F4039091F50324
:101EC0000E94AE4F9B01AC01C701B6010E94D14CEC
:101ED0006093660470936704809368049093690428
:101EE0006093F6037093F7038093F8039093F903DC
:101EF0000E940C44609352047093530480935404E2
:101F00009093550410C060E070E08EE595E00E946B
:101F1000412260E070E086E195E0FF90EF90DF9075
:101F2000CF900C944122FF90EF90DF90CF900895D6
:101F30008F929F92AF92BF92CF92DF92EF92FF92D9
:101F40008090B6049090B704A090B804B090B90403
:101F50002DEC3CEC4CE45FE36091BE047091BF0457
:101F60008091C0049091C1040E94AE4F6B017C012E
:101F70002DEC3CEC4CE45EE3C501B4010E94AE4F95
:101F80009B01AC01C701B6010E94D14C6B017C01E1
:101F900020E030E0A901C501B4010E94974D8823DB
:101FA00049F0C092BE04D092BF04E092C004F09207
:101FB000C10411C0C701B6010E94034E6C5E7F4F81
:101FC0006932710570F71092BE041092BF0410922E
:101FD000C0041092C1046091BE047091BF0480914E
:101FE000C0049091C1040E94034E8EE595E00E94CA
:101FF00041228090B2049090B304A090B404B090B9
:10200000B5042DEC3CEC4CE45FE36091BA047091B4
:10201000BB048091BC049091BD040E94AE4F6B0143
:102020007C012DEC3CEC4CE45EE3C501B4010E9464
:10203000AE4F9B01AC01C701B6010E94D14C6B01B0
:102040007C0120E030E0A901C501B4010E94974D58
:10205000882349F0C092BA04D092BB04E092BC0439
:10206000F092BD0411C0C701B6010E94034E6C5E20
:102070007F4F6932710570F71092BA041092BB0459
:102080001092BC041092BD046091BA047091BB041C
:102090008091BC049091BD040E94034E86E195E0BE
:1020A000FF90EF90DF90CF90BF90AF909F908F9078
:1020B0000C944122CF93DF938091F5069091F60620
:1020C000892B79F48BE790E00E94BC49EC0168E031
:1020D0000E942E2AD093F606C093F506CE010E94E8
:1020E000432A8091F5069091F6060E94722A80910B
:1020F000F5069091F6060E946D2A8093AD04843413
:1021000009F48DC09091B004933009F0A7C08931D3
:1021100009F447C008F5893009F447C078F48730DE
:1021200009F447C0883009F095C080910E02909163
:102130000F02880F991F880F991F66C0863109F416
:1021400089C0883109F45AC08C3009F083C080916D
:102150000E0290910F0258C08A3479F168F48034ED
:10216000E1F0823481F18C3109F074C020910E02CB
:1021700030910F0245E032C08A3559F18E35A1F118
:10218000823509F067C080910E0290910F0263E0E2
:10219000880F991F6A95E1F737C0DF91CF910C94B2
:1021A0003B05DF91CF910C944E05DF91CF910C94BC
:1021B000B005DF91CF910C94970520910E023091DC
:1021C0000F0249E00BC020910E0230910F0247E050
:1021D00005C020910E0230910F0246E0429FC001DF
:1021E000439F900D112410C020910E0230910F02D8
:1021F000C901880F991F820F931F06C080910E029C
:1022000090910F02880F991F2091100230911102B6
:10221000820F931F90931302809312021FC00E949B
:10222000EF058091F5069091F6060E94522A8823C8
:1022300039F08091F5069091F6060E94722AF1CF4E
:102240008091B0048F5F8093B004853039F4109290
:10225000B00404C0DF91CF910C94EF05DF91CF91D2
:10226000089580E195E00E94503128E730E03093F6
:10227000130220931202813059F028F0823099F035
:10228000833001F108950E943B058AE090E015C07B
:102290000E943B058091C2049091C3048230910555
:1022A0004CF101970AC00E943B058091C2049091B5
:1022B000C30484319105F4F401969093C304809390
:1022C000C20408958091C2049091C3040A9711F446
:1022D0000E944E058091C2049091C3040A9714F4A1
:1022E0000E94C9058091C2049091C3040B9714F019
:1022F0000C94DF0508950F931F9365E070E080E074
:1023000090E00E943B448EE595E00E940D2243E060
:1023100050E06FE873E00E94C94186E195E00E94B9
:102320000D2243E050E06FE973E00E94C941109232
:10233000D2031092D3031092D4031092D5031092BB
:10234000B2031092B3031092B4031092B5036CE27F
:1023500088E397E00E947E3361E070E080E090E0E7
:102360000E943B4420E040E060E088E397E00E9468
:102370001E3488E397E00E944A3465E070E080E014
:1023800090E00E943B442FE088E190E00FB6F89483
:10239000A895809360000FBE2093600065E070E018
:1023A00080E090E00E943B4482EB96E00E94CF28C0
:1023B00065E070E080E090E00E943B44A8958FE6E5
:1023C00096E00E94CF2864E670E080E090E00E94F2
:1023D0003B44A89526E040E052EC61E070E08FEBD2
:1023E0009AE00E94DB4764EF71E080E090E00E9499
:1023F0003B4404E610E020E030E044EF51E06DE2C1
:1024000070E086ED95E00E94511C64E670E080E08B
:1024100090E00E943B446DE270E086ED95E00E9402
:10242000B81C64EF71E080E090E00E943B44A89506
:1024300081E0809380008AE08093810083E0809334
:10244000B00082E08093B1001092BE041092BF04ED
:102450001092C0041092C1041092BA041092BB04EE
:102460001092BC041092BD041092B6041092B704EE
:102470001092B8041092B9041092B2041092B304EE
:102480001092B4041092B50410924F0410924E04AE
:1024900080910A0290910B02A0910C02B0910D0262
:1024A0008093320490933304A0933404B0933504A2
:1024B00080E090E0A8E8B1E480932604909327049C
:1024C000A0932804B093290410922A0410922B049C
:1024D00010922C0410922D048DEC9CECACE4BEEB1D
:1024E00080932E0490932F04A0933004B093310472
:1024F0008DEC9CECACECBDEB809306049093070450
:10250000A0930804B09309048FE692E1A3E0BCEB2A
:1025100080930A0490930B04A0930C04B0930D04D1
:102520000E94B7046FED72E08FEB9AE00E940C4AB4
:1025300066E474E08FEB9AE00E94174A0E940C4414
:1025400060935604709357048093580490935904F1
:1025500060935204709353048093540490935504F1
:1025600060935A0470935B0480935C0490935D04C1
:102570001F910F910895CF93DF93CEE5D7E0CE0161
:102580000E94E33A239687E0C637D807C1F788E56B
:1025900097E00E94C22185E497E00E94933888E387
:1025A00097E00E94C6338CE297E05CD788E297E020
:1025B0000E94A03287EF96E00E94C62B48E660E0BA
:1025C00082EB96E00E94642349E661E08FE696E0A4
:1025D0000E94642388E496E00E94C31C84E496E091
:1025E0000E944F2B8AED95E00E9479358FE096E0AE
:1025F0000E94793586ED95E00E944B1C8FEC95E0AA
:102600000E944B2989EC95E00E943A2383EC95E0E7
:102610000E944F238DEB95E00E94133986EA95E0E6
:102620008AD661E08EE595E00E94742262E086E140
:1026300095E00E94742269E080E195E00E944F31AC
:10264000CAEDD4E0CE010E94FB212A9685E0C2307B
:10265000D807C1F769EE72E086E494E0DF91CF918C
:102660000C948B4C86E494E00E94244C88E397E021
:102670000C945D34682F8FEB9AE00C9477478FEFC2
:10268000F9DF85E5F7CF8FEFF5DF85E5F3DF0C9414
:102690001B06CF93C82F81E0EDDF8C2FCF91EACFBF
:1026A000EF92FF920F931F93CF93DF937C01FC0176
:1026B000C4810C2F158184E0DDDF8C2FDBDFC0E0CF
:1026C000D0E0C017D1073CF4BE01C7010E94CE4C38
:1026D000D1DF2196F6CFDF91CF911F910F91FF901F
:1026E000EF900895FF920F931F93CF93DF931F9264
:1026F000CDB7DEB78B01F82E82E09983BBDFA8014E
:102700006F2D9981792F40930C0550930D0560939F
:102710000E0570930F05802FADDF80910D05AADFA8
:1027200080910E05A7DF80910F050F90DF91CF916B
:102730001F910F91FF909ECF1F93CF93DF9300D0F7
:10274000CDB7DEB7182F86E069837A839B8392DF4B
:10275000698160930C057A8170930D0510930E05C5
:102760009B8190930F05862F85DF80910D0582DF79
:1027700080910E057FDF80910F050F900F900F90D5
:10278000DF91CF911F9176CF1F93CF93DF931F924D
:10279000CDB7DEB7182F83E099836CDF1093020565
:1027A000998190930305812F65DF809103050F9038
:1027B000DF91CF911F915ECFFF920F931F93CF9325
:1027C000DF931F92CDB7DEB78B01F82E85E099839A
:1027D00051DFA8016F2D9981792F40930405509303
:1027E00005056093060570930705802F43DF8091F0
:1027F000050540DF809106053DDF809107050F90BC
:10280000DF91CF911F910F91FF9034CFCF92DF9244
:10281000EF92FF920F931F93CF93DF93CDB7DEB765
:1028200027970FB6F894DEBF0FBECDBF10917C0482
:102830008E33910508F018C3FC01EE58FF4F0C943D
:10284000C7518091360790913707009781F00E9419
:10285000B93290E0212F332727FD30958217930757
:1028600091F080913607909137070E94BE4985E02C
:1028700090E00E94BC497C01612F0E941739F092C0
:102880003707E092360760E573EC80913607909148
:1028900037070E945A396B017C0184E690E00E9460
:1028A0006144EDDE8091B104E5DEC701B601DBC213
:1028B00000917D0485E497E00E94B93290E0212FD9
:1028C000332727FD30958217930709F0B0C285E4BE
:1028D00097E00E94BC3290E0202F332727FD3095EF
:1028E0008217930709F0A3C285E497E00E94AD38F0
:1028F000BAC288E297E00E94B93290E0212F3327D4
:1029000027FD30958217930761F0612F88E297E0E9
:102910000E940D3388E297E00E94333360E00E940A
:102920000B4688E297E00E94053337C088E297E0C3
:102930000E94B93290E0212F332727FD309582176E
:10294000930761F0612F88E297E00E940D3388E2DF
:1029500097E00E94333360E00E940B4688E297E0E4
:102960000E9405330E945F0B7EC200917D0484E4C7
:1029700096E00E94B93290E0212F332727FD309551
:102980008217930729F0612F84E496E00E940D33AB
:10299000602F84E496E00E94512BBC01882777FDCC
:1029A0008095982F0E94364E5EC28091F5069091D8
:1029B000F606009711F14F960E94B93290E0212F50
:1029C000332727FD30958217930731F1E090F50604
:1029D000F090F606E114F10481F08DE293E0F70146
:1029E00091838083C70182599F4F0E94244CC70165
:1029F0000E948E40C7010E94BE498BE790E00E9472
:102A0000BC497C01612F0E942E2AF092F606E092CA
:102A1000F506C7010E94432A8091F5069091F606BB
:102A20000E946D2A682F8093AD048FEF860F8E3F32
:102A300008F487C060E070E0CB0115C288E297E03F
:102A40000E94B93290E0212F332727FD309582175D
:102A5000930709F470C0612F88E297E00E940D335C
:102A600088E297E00E94333360E063C088E297E039
:102A70000E94B93290E0212F332727FD309582172D
:102A8000930799F0612F88E297E00E940D3388E266
:102A900097E00E94303360E00E940B4688E297E0A6
:102AA0000E94333360E00E940B4660E088E297E0CA
:102AB0000E94BF32182F60E088E297E00E94D03277
:102AC000612F70E0660F771F680F711D882777FDF3
:102AD0008095982F67CF00917D0488E297E00E944F
:102AE000B93290E0212F332727FD309582179307C5
:102AF00009F0A4C188E297E00E94BC3290E0202F48
:102B0000332727FD30958217930709F097C188E294
:102B100097E0013059F40E94303362E00E940B4686
:102B200060E088E297E00E94BF320AC00E9433331F
:102B300062E00E940B4660E088E297E00E94D0329B
:102B4000682F70E080E090E00E94344E8CC188E4F1
:102B500096E00E94B93290E0212F332727FD30956F
:102B600082179307A9F0612F88E496E00E940D3345
:102B700088E496E00E943333482F88E496E04F8340
:102B80000E9430334F81682F88E496E00E94AA208B
:102B900088E496E00E94B2200FDE66C100917D04B9
:102BA0008FEC95E00E94B93290E0212F332727FD6A
:102BB00030958217930729F0612F8FEC95E00E94E2
:102BC0000D338FEC95E00E944E29602F8FEC95E03D
:102BD0000E94272A2AC189EC95E00E94B93290E030
:102BE000212F332727FD309582179307A9F0612FF6
:102BF00089EC95E00E940D3389EC95E00E9430331A
:102C0000482F89EC95E04F830E9433334F81682F22
:102C100089EC95E00E943D2389EC95E00E944D23CC
:102C20006DC083EC95E00E94B93290E0212F3327EC
:102C300027FD309582179307A9F0612F83EC95E06B
:102C40000E940D3383EC95E00E943033482F83ECD3
:102C500095E04F830E9433334F81682F83EC95E0DA
:102C60000E94522383EC95E00E94622347C060914A
:102C70007D041111EAC082EB96E06F830E947A23F3
:102C80006F81883609F0F0C082EB96E0EAC066E416
:102C900074E0CE0101960E94B54CCE01019600DD94
:102CA000CE0101960E94244CDFC060E0812F0E947B
:102CB0000B46812F0E94794670CEE12FEE0FFF0B5D
:102CC000EC5EFD4F108160E0812F0E940B46812F4A
:102CD0000E94CE4462CE87E090E00E941F067C01F5
:102CE00060E0812F0E940B469701442737FD4095F5
:102CF000542F61E0812F0E94A146CB0145DDB4C075
:102D000000917D0461E0812F0E940B4660E0812FDD
:102D10000E94444682E090E00E94614461E0812F7D
:102D20000E9444468AE090E00E94614460E0812F66
:102D30000E94444660E0802F0E940B4620E335E766
:102D400040E050E061E0802F0E94A1460E94344E96
:102D500020E030E048E652E40E949B4D84C0609140
:102D60006E0470916F0480917004909171047BC027
:102D70008DEB95E00E94B93290E0212F332727FD9B
:102D800030958217930729F0612F8DEB95E00E9413
:102D90000D338DEB95E00E94153947C086EA95E02A
:102DA0000E94B93290E0212F332727FD30958217FA
:102DB000930729F0612F86EA95E00E940D3381E0A8
:102DC0002091AB0490917D04291779F180E02DC00A
:102DD00011114AC090917D0480917E04913059F484
:102DE000813019F48EE595E00CC0823009F03CC0CA
:102DF0008EE595E00EC09230B9F5813031F486E170
:102E000095E00E94132298DC2FC0823069F586E19C
:102E100095E00E943B2227C0103719F40E949F0BB7
:102E200022C0113709F58091B00433DC1DC0402F5A
:102E3000612F85E497E00E949C3856CD402F612F8A
:102E400088E297E00E941D3362CE113069F48FE66C
:102E500096E06F830E947A236F81893629F48FE68A
:102E600096E00E948B233EDC27960FB6F894DEBFD7
:102E70000FBECDBFDF91CF911F910F91FF90EF90CB
:102E8000DF90CF9008950F931F93CF93DF931F92FE
:102E9000CDB7DEB7109251048091790490917A04F5
:102EA00000917B0410E08093B1049230D1F018F4CB
:102EB000913039F076C09430C1F0953009F46BC090
:102EC00070C00130110521F08983D9DB8981D2DB03
:102ED000C8019CDC0F90DF91CF911F910F910C9452
:102EE0001B06C8010E948E0656C060E070E08EE5A9
:102EF00095E00E94412260E070E086E195E00E944A
:102F0000412240E050E0BA018EE595E00E9419228E
:102F100040E050E0BA0186E195E00E94192210924B
:102F2000D2031092D3031092D4031092D5031092BF
:102F3000B2031092B3031092B4031092B50361E090
:102F400088E597E00E940D3360E070E088E597E047
:102F50000E94D22162E088E597E00E940D3360E094
:102F600070E088E597E00E94D22163E088E597E071
:102F70000E940D3360E070E088E597E00E94D22166
:102F800064E088E597E00E940D3360E070E088E53A
:102F900097E00E94D2210F90DF91CF911F910F9166
:102FA00072CB0F90DF91CF911F910F9108951092E6
:102FB00050048FEB9AE00E94CD46181619064CF487
:102FC00081E0809350048FEB9AE00E94E646809364
:102FD000AA040895ECDF80915004882309F447C0C7
:102FE0008091AA0490915104853561F491110AC031
:102FF0008091AC048F3FE1F481E08093AF04809333
:10300000510416C08093AC04992391F0E091AF0471
:10301000E23019F48093AE0407C0E33028F09091B9
:10302000AE0491509093AE04F0E0EA58FB4F8083D9
:103030008091AF048F5F843318F48093AF0404C091
:103040001092AF041092510480915104882369F0CA
:103050008091AE04811109C08091AF04843028F0C2
:103060001092510410DF1092AF0481E0089508958A
:10307000CF93DF938091360790913707892B61F4C6
:1030800085E090E00E94BC49EC016AE00E9417399B
:10309000D0933707C093360786E990E090931302E8
:1030A000809312028091360790913707009709F4B8
:1030B00069C060E971E00E945A390E94034E9B0189
:1030C0007093C9046093C804655171096331710537
:1030D000F8F46CE271E080E090E00E94BD4B7093E8
:1030E000C7046093C6046F3B71055CF080914E0489
:1030F000811107C081E080934F04DF91CF910C9440
:10310000970581E080934E04DF91CF910C94B00538
:10311000243131057CF56CE271E080E090E00E94A2
:10312000BD4B7093C7046093C6046F3B71058CF070
:103130000E946105CCE2D1E0A8954CDF811122C04C
:1031400062E070E080E090E00E943B442197A1F7AC
:1031500019C00E947C05CCE2D1E0A8953BDF81112B
:1031600011C062E070E080E090E00E943B44219753
:10317000A1F708C010924F0410924E04DF91CF9136
:103180000C943B05DF91CF9108950F931F930E94FC
:103190000C440E94344E20E030E04AE754E40E94A0
:1031A0009B4D2091720430917304409174045091AE
:1031B00075040E94D04C60936E0470936F048093EA
:1031C00070049093710486EA95E0B7D08093AB04C5
:1031D000A8958091F5069091F606892B11F00E9432
:1031E0005A108AED95E00E9472388FE096E00E94B6
:1031F00072380E949F0B8EE595E00E94C72286E1FF
:1032000095E00E94C722D3DE80915004882309F400
:1032100045C08091AA0490915104853561F49111C3
:103220000AC08091AC048F3FE1F481E08093AF0449
:103230008093510416C08093AC04992391F0E091DF
:10324000AF04E23019F48093AE0407C0E33028F0F5
:103250009091AE0491509093AE04F0E0EA58FB4F89
:1032600080838091AF048F5F843318F48093AF0420
:1032700004C01092AF04109251048091510488232D
:1032800069F08091AE04811109C08091AF0484304F
:1032900028F010925104F7DD1092AF048FE696E00B
:1032A0000E94FA2582EB96E00E94FA238FE696E0D0
:1032B0000E94852360935E0470935F048093600492
:1032C000909361048091B004811121C00E940C444C
:1032D00000915A0410915B0420915C0430915D04CC
:1032E000601B710B820B930B653171058105910594
:1032F000F8F00E940C4460935A0470935B0480932E
:103300005C0490935D041F910F910C94980F813091
:1033100019F41F910F91ACCE823021F41F910F91BF
:103320000C94070F843021F41F910F910C943111EC
:103330001F910F9108950C94A032CF92DF92EF92DB
:10334000FF920F931F93CF93DF93EC010C891D899C
:103350000E940C44CC80DD80EE80FF809B01AC019C
:103360002C193D094E095F0969017A0139E0C3163C
:10337000D104E104F104E8F16C837D838E839F83A3
:10338000CE010E940533488559856A857B85452B8A
:10339000462B472B49F4AC01662757FD6095762FE5
:1033A000488B598B6A8B7B8B488959896A897B89C1
:1033B000841B950B97FF03C09195819591094497C4
:1033C00064F44C855D856E857F854F5F5F4F6F4FE1
:1033D0007F4F4C875D876E877F87488559856A85D3
:1033E0007B854F5F5F4F6F4F7F4F488759876A8755
:1033F0007B8788859985AA85BB850597A105B10539
:10340000D1F4188619861A861B868C859D85AE8513
:10341000BF850397A105B10540F088899989AA89DC
:10342000BB898C019D8B8C8B02C00C891D891C86ED
:103430001D861E861F86C80164E670E00E947651D4
:103440006830710528F4FB01ED50FD4F808101C00B
:1034500080E0DF91CF911F910F91FF90EF90DF906F
:10346000CF9008950C94A0320F931F93CF93DF93C6
:10347000EC01062F18E060E088850E94444600FFBA
:1034800002C061E001C060E089850E944446069563
:1034900061E088850E944446115069F760E08885A4
:1034A0000E94444661E089850E94444661E0888527
:1034B0000E94444660E089850E940B4618EC89858D
:1034C0000E947946892B59F01150C9F761E089852E
:1034D0000E940B4660E089850E944446EFCF61E080
:1034E0008985DF91CF911F910F910C940B46CF935B
:1034F000DF93EC0161E088850E94444661E08985A4
:103500000E94444660E089850E94444660E08885C8
:10351000DF91CF910C944446CF93DF93EC0160E0B0
:1035200088850E94444660E089850E94444661E0A7
:1035300088850E94444661E08985DF91CF910C9493
:103540004446CF92DF92FF920F931F93CF93DF9366
:103550001F92CDB7DEB76C01F62E7983C8DF60E429
:10356000C60182DFC601D8DFC601C1DFF601658171
:10357000C6017ADF0F2D7981172F84E0F82EF8012C
:1035800061918F01C60170DFFA94C9F7C601C4DFEB
:10359000C601ADDFF6016681C60166DFC6010F9088
:1035A000DF91CF911F910F91FF90DF90CF90B4CF1B
:1035B0004F925F926F927F928F929F92AF92BF9243
:1035C000CF92DF92EF92FF920F931F93CF93DF93EF
:1035D00000D01F92CDB7DEB76A017B01890137FDAC
:1035E00048C0B9016F5F7F4F882777FD8095982F7E
:1035F0000E94364E9B01AC0160E070E080E291E4F5
:103600000E9411504B015C019B01AC01C701B60146
:103610000E949B4D0E94714E2B013C01B8018827EE
:1036200077FD8095982F0E94364E9B01AC0160E09B
:1036300070E080E291E40E94115069837A838B8369
:103640009C83A5019401C301B2010E94AE4F9B016E
:10365000AC01C701B6010E94D04C29813A814B814F
:103660005C810E949B4D0E94714E0E94034ECB01D3
:103670001FC088249924821A930AA12CB12C20E01F
:1036800030E040E251E4C701B6010E94AE4F6B0149
:103690007C018FEFA81AB80AA814B90484F3C701F3
:1036A000B6010E94034ECB016AE070E00E947651A1
:1036B0000F900F900F900F90DF91CF911F910F916E
:1036C000FF90EF90DF90CF90BF90AF909F908F9042
:1036D0007F906F905F904F900895DB0180E090E2C3
:1036E0002C91223208F09C93EC91F0E0EA59FD4FC6
:1036F000E491ED938F5F843099F70895EF92FF92F4
:103700000F931F93CF93DF9300D01F92CDB7DEB7F7
:103710008C01DB01FE013196CE0105967F012D91D2
:103720002193E817F907D9F7B701C801D6DFB70128
:10373000C80107DF0F900F900F900F90DF91CF918E
:103740001F910F91FF90EF900895CF93DF9300D0DA
:103750001F92CDB7DEB720E229832A832B832C83E7
:10376000BE016F5F7F4FCADF0F900F900F900F90D9
:10377000DF91CF910895CF93DF93EC016A83E62F19
:10378000F0E0EE0FFF1FEE5AFD4F8181898390819B
:1037900098838887998761E00E940B4661E089855C
:1037A0000E940B4680E48C8380EC8D838AE88E83B4
:1037B000CE01DF91CF91C9CF8F929F92AF92BF92EE
:1037C000CF92DF92EF92FF920F931F93CF93DF93ED
:1037D00000D01F92CDB7DEB75C016A017B01198270
:1037E0001A821B821C8220E030E0A901C701B601C9
:1037F0000E94974D87FF09C0F7FAF094F7F8F0940C
:1038000081E289839924939401C0912C03E010E014
:10381000812C9801B701A601C501CADE1816190648
:103820002CF0002319F08820B9F00CC001110AC057
:10383000E1E0F0E0EC0FFD1FE90DF11D20E1280FA4
:10384000208307C0E1E0F0E0EC0FFD1FE90DF11D62
:10385000808393948824839483E0891530F0015009
:1038600011090C3F8FEF1807A1F6BE016F5F7F4F64
:10387000C50144DF0F900F900F900F90DF91CF9113
:103880001F910F91FF90EF90DF90CF90BF90AF907E
:103890009F908F9008950E94A03288E080937607D1
:1038A00008954F925F926F927F928F929F92AF9204
:1038B000BF92CF92DF92EF92FF920F931F93CF931D
:1038C000DF93762E68017901609376079A0140E0D4
:1038D00050E060E472E48FE090E00E94AB51E901B7
:1038E000590137FF03C08FEFA81AB80A8501159553
:1038F000079561E0872D0E940B46A8EEB3E0A70173
:1039000096010E94DC512B013C01C12CD12C760187
:103910004E01AA2497FCA094BA2CC414D504E60442
:10392000F704A8F461E0809176070E944446C8013C
:103930000E94614460E0809176070E944446C8017D
:103940000E946144C80CD91CEA1CFB1CE6CFDF9125
:10395000CF911F910F91FF90EF90DF90CF90BF908C
:10396000AF909F908F907F906F905F904F90089551
:10397000862F6093760761E00E940B4660E080919D
:1039800076070C944446CF93DF93EC0160E00E94ED
:10399000A9328EE18B871C82DF91CF910895AF927F
:1039A000BF92CF92DF92EF92FF920F931F93CF932C
:1039B000DF93CDB7DEB76A970FB6F894DEBF0FBEC0
:1039C000CDBF8C01CE0101967C01C12CD12C5C01B4
:1039D000C6010E948854F70181937F01FFEFCF1A3F
:1039E000DF0A8AE1C816D10499F72D813E814F8103
:1039F000588569817A818B819C810E94D14C29856F
:103A00003A854B855C850E94D14C2D853E854F853E
:103A100058890E94D14C29893A894B895C890E9436
:103A2000D14C2D893E894F89588D0E94D14C6B0114
:103A30007C01698D70E080E090E00E94364E9B0131
:103A4000AC01C701B6010E94D14C20E030E04AE24F
:103A500053E40E94D14C0E94084E8A8D68130CC01A
:103A60008AE1F501D8011D9601900D928A95E1F742
:103A700081E0F801848302C0F80114826A960FB6CF
:103A8000F894DEBF0FBECDBFDF91CF911F910F9194
:103A9000FF90EF90DF90CF90BF90AF900895CF92BE
:103AA000DF92EF92FF920F931F93CF93DF938C01DE
:103AB000EB012C813D814E815F81688179818A8112
:103AC0009B810E94D14C288539854A855B850E945F
:103AD000D14C2C853D854E855F850E94D14C28892F
:103AE00039894A895B890E94D14C2C893D894E894C
:103AF0005F890E94D14C6B017C01688D70E080E091
:103B000090E00E94364E9B01AC01C701B6010E94B5
:103B1000D14C20E030E04AE253E40E94D14C0E94B4
:103B2000084E698FE12CF12C6991C7010E949054D5
:103B30008FEFE81AF80AEAE1EE16F104A9F781E03E
:103B4000F8018483DF91CF911F910F91FF90EF9047
:103B5000DF90CF900895EF92FF921F93CF93DF9362
:103B60001F92CDB7DEB7162F7A01FC01638582EA7A
:103B700099E029830E94F43C612F82EA99E00E9437
:103B8000A13C2981813091F4422F50E0B70182EAB3
:103B900099E00E94753C61E082EA99E00F90DF9124
:103BA000CF911F91FF90EF900C94FE3C8FEF0F9000
:103BB000DF91CF911F91FF90EF900895CF93DF9306
:103BC0001F92CDB7DEB7498321E0AE014F5F5F4F53
:103BD000C2DF0F90DF91CF910895EF92FF920F9384
:103BE0001F93CF93DF93EC01F62E8A01E22E6B85B3
:103BF00082EA99E00E94F43C6F2D82EA99E00E94EB
:103C0000A13C813001F560E082EA99E00E94FE3C2F
:103C100081112EC081E090E00E94614421E04E2D90
:103C20006B8582EA99E00E94E83CE80100E010E040
:103C3000F12C82EA99E00E944A3C892B31F00E1562
:103C40001F0574F002C08FEF13C081E090E00E9466
:103C5000614481E00E151F0509F480E0819508C0DC
:103C60000F5F1F4F82EA99E00E94523C8993E1CF97
:103C7000DF91CF911F910F91FF90EF900895CF9317
:103C8000DF93EC01AC014B5F5F4F23E06AE0A5DFFF
:103C900081110AC08D81883439F48E81843321F4F6
:103CA00081E09F81933309F080E0DF91CF91089507
:103CB000CF92DF92EF92FF920F931F93CF93DF93F8
:103CC000EC016B018A0179013BD0AE014B5F5F4F84
:103CD00026E063E0CE0181DF882321F0992787FD6C
:103CE000909525C08C85813029F441E062E070E038
:103CF000CE0164DF8D8190E0982F88272E81822B62
:103D0000F60191838083898590E0982F88272A8502
:103D1000822BF801918380838F8190E0982F8827F0
:103D20002885822BF7019183808380E090E0DF91EA
:103D3000CF911F910F91FF90EF90DF90CF9008955A
:103D40002F923F924F925F926F927F928F929F92AB
:103D5000AF92BF92CF92DF92EF92FF920F931F9399
:103D6000CF93DF93CDB7DEB76C970FB6F894DEBF75
:103D70000FBECDBF8C0162E00E94BF328111AFC186
:103D80006AE070E080E090E00E943B4462E0C8019D
:103D90000E94BF328111A3C1C80171DF882309F4D9
:103DA0009EC10E940C446B017C01712CBB24B39416
:103DB00062E0C8010E94BF32811115C00E940C440C
:103DC0006C197D098E099F09693C71058105910572
:103DD00078F30E940C446B017C017B24672DC801A1
:103DE0000E94F132E5CF64E670E080E090E00E944E
:103DF0003B440E940C444B015C012FEF3FE7388BA2
:103E00002F8740E050E85E874D878FEF9FE79C87C4
:103E10008B87E0E0F0E8FA87E98738872F83212C49
:103E200050E8352E662463940E940C446C197D0979
:103E30008E099F09693C71058105910548F00E9432
:103E40000C446B017C017624672DC8010E94F1327D
:103E50000E940C44681979098A099B096B30710525
:103E600081059105D8F19E012F5F3F4FAE014D5F57
:103E70005F4FBE016B5F7F4FC8011ADF8D819E814E
:103E80004F815885841795072CF02816390624F49D
:103E90001C0102C098878F838B819C81EB85FC85F8
:103EA0008E179F0744F029853A85281739072CF487
:103EB0009A87898702C09C878B8789819A814F85E1
:103EC00058898417950744F0ED85FE85E817F907B2
:103ED0002CF49E878D8702C0988B8F8762E0C80183
:103EE0000E94BF328111A0CF60E0C8010E94F13270
:103EF000B101882777FD8095982F0E94364E6B017F
:103F00007C012F813885B901882777FD8095982F0E
:103F10000E94364E698B7A8B8B8B9C8B9B01AC01FC
:103F2000C701B6010E94D14C905820E030E040E03B
:103F30005FE30E94AE4FF801658776878787908B95
:103F400029853A85B901882777FD8095982F0E94A9
:103F5000364E2B013C014B855C85BA01882777FDE5
:103F60008095982F0E94364E6D8B7E8B8F8B988F0D
:103F70009B01AC01C301B2010E94D14C905820E0DA
:103F800030E040E05FE30E94AE4FF801618B728B3E
:103F9000838B948B2D853E85B901882777FD80958D
:103FA000982F0E94364E4B015C014F855889BA010B
:103FB000882777FD8095982F0E94364E698F7A8FDB
:103FC0008B8F9C8F9B01AC01C501B4010E94D14C29
:103FD000905820E030E040E05FE30E94AE4FF801EF
:103FE000658B768B878B908F80E090E0A0E8BFE3B5
:103FF000818F928FA38FB48F29893A894B895C89ED
:10400000C701B6010E94D04C6B017C012D893E890D
:104010004F89588DC301B2010E94D04CA70196016F
:104020000E949B4DF801658F768F878F90A3298D15
:104030003A8D4B8D5C8DC501B4010E94D04CA70117
:1040400096010E949B4DF80161A372A383A394A3E0
:104050002F813885221A330A37FE03C03194219408
:10406000310889859A854B855C85841B950B97FF64
:1040700003C09195819591092D853E85EF85F8893D
:104080002E1B3F0B37FF03C0319521953109821557
:1040900093052CF02215330514F081E009C0281691
:1040A00039062CF02817390714F082E001C083E0AC
:1040B000F80185A3B801635F7F4FC801F0DC61E0C0
:1040C000C8010E94F13262E0C8010E94BF32882319
:1040D000D1F364E670E080E090E00E943B446C968F
:1040E0000FB6F894DEBF0FBECDBFDF91CF911F9109
:1040F0000F91FF90EF90DF90CF90BF90AF909F9087
:104100008F907F906F905F904F903F902F90089589
:10411000CF93DF93EC0182EA99E00E94DF3C61E0FB
:10412000CE010E94F13240E760E070E0CE0146DD52
:1041300040E261E070E0CE0141DD81E08C8741E04A
:1041400062E070E0CE013ADDCE0129DCCE01DF91E4
:10415000CF91F6CD6093780740937707FC01608399
:104160004183D6CF2F923F924F925F926F927F9270
:104170008F929F92AF92BF92CF92DF92EF92FF9277
:104180000F931F93CF93DF93CDB7DEB762970FB630
:10419000F894DEBF0FBECDBF8C01D2DD9E012F5F34
:1041A0003F4FAE014D5F5F4FBE016B5F7F4FC80158
:1041B0007FDD882349F0682F772767FD7095872F6B
:1041C000972F0E94364EC5C0F80184812D803E8015
:1041D0002B813C8138872F83882309F478C045845C
:1041E000568467847088818C928CA38CB48CB901BE
:1041F000882777FD8095982F0E94364EF8012189F7
:104200003289438954890E94D14CF801258D368D1D
:10421000478D50A10E94AE4F0E94034E6F83788756
:1042200089879A8769817A81882777FD8095982F79
:104230000E94364EF801258936894789508D0E94A3
:10424000D14CF80121A132A143A154A10E94AE4F4B
:104250000E94034E6B877C878D879E87F80115A18E
:10426000113041F42B853C85B901882777FD809575
:10427000982F32C0B101882777FD8095982F0E9432
:10428000364EA30192010E94D14CA50194010E94D7
:10429000AE4F0E94034E4B015C01123089F42B8516
:1042A0003C85B901882777FD8095982F0E94364E6E
:1042B0009B01AC01B401882777FD8095982F17C02A
:1042C000133019F5882777FD8095982F05C0B10127
:1042D000882777FD8095982F0E94364E9B01AC0170
:1042E000EF81F885BF01882777FD8095982F2F876C
:1042F000388B498B5A8B0E94364E2F8538894989D5
:104300005A890E94444D6B017C0120E030E0A901F4
:10431000C701B6010E94974D87FF0DC02BED3FE00E
:1043200049EC50E4C701B6010E94D14C20E030E0D6
:1043300044E353E406C020E030E044E353E4C70123
:10434000B6010E94AE4F2BED3FE049E450E40E94DD
:104350009B4D62960FB6F894DEBF0FBECDBFDF91C6
:10436000CF911F910F91FF90EF90DF90CF90BF9072
:10437000AF909F908F907F906F905F904F903F9005
:104380002F90089560E00E94A93281E08093800020
:104390008BE08093810083E08093B00084E0809381
:1043A000B10008950F931F93CF93DF938C016F3F5C
:1043B000710519F014F06FEF70E0EB0161308FEFD1
:1043C000780714F4C1E0DFEFD7FD06C061E0C80153
:1043D0000E94F132BE0108C060E0C8010E94F132C3
:1043E000662777276C1B7D0BC801DF91CF911F914A
:1043F0000F910C940933CF93DF93EC0160E00E949E
:10440000A9321C8289E08D83DF91CF91089589E7DD
:1044100097E017C789E797E03DC7FC0183A9089596
:10442000FC0187A50895FC016489758986899789AF
:104430000895FC01448B558B668B778B0895FC01A6
:1044400044895589668977894F5F5F4F6F4F7F4FEA
:10445000448B558B668B778B0895FC014489558975
:10446000668977894150510961097109448B558BDF
:10447000668B778B0895FC016085718582859385B5
:1044800008950F931F93CF93DF93EC016F3F710556
:1044900019F014F06FEF70E08B0161308FEF780747
:1044A00014F401E01FEF1B830A8317FF0DC060E0C7
:1044B00089A90E94444661E08AA90E944446662771
:1044C0007727601B710B09C061E089A90E944446EF
:1044D00060E08AA90E944446B80188A9DF91CF9183
:1044E0001F910F910C94F3441F93CF93DF93EC0132
:1044F0006CAB15E0169FF0011124EC5CFD4F808140
:104500008EA791819FA7928198AB938199AB94815B
:104510009AAB62E00E940B4662E08FA50E940B46B8
:1045200062E089A90E940B4662E08AA90E940B46BC
:104530001C8A1D8A1E8A1F8A8EA5823111F41BAB2C
:1045400014C0833111F484E003C0843119F483E092
:104550008BAB0BC0853111F482E0FACF833011F4BC
:1045600081E0F6CF823009F41BAA60E070E0CE0152
:1045700088DF1C8A1D8A1E8A1F8A0E940C446DAB2C
:104580007EAB8FAB98AFDF91CF911F9108954F9283
:104590005F926F927F928F929F92AF92BF92CF92D3
:1045A000DF92EF92FF92CF93DF93EC010E940C44D5
:1045B000CDA8DEA8EFA8F8AC6C197D098E099F097B
:1045C000653171058105910508F445C00E940C44D0
:1045D0002B013C01CC88DD88EE88FF8889AD9AAD3F
:1045E000ABADBCADA7019601281B390B4A0B5B0B89
:1045F000CA01B9010E94364E26E636EA42EB53E480
:104600000E949B4D4B015C018DA99EA9B201681BC4
:10461000790B88EE93E00E94625180E090E00E9466
:10462000344E9B01AC01C501B4010E94AE4F20E0A5
:1046300030E040E752E40E94AE4F688779878A876E
:104640009B87C9AEDAAEEBAEFCAE0E940C446DABFC
:104650007EAB8FAB98AFDF91CF91FF90EF90DF9063
:10466000CF90BF90AF909F908F907F906F905F9012
:104670004F90089560E00C94A932CF93DF93EC0142
:104680006C834D838C8160E00E940B468D81888312
:104690008C818983DF91CF9108950C94013360E080
:1046A0000C94A932CF93DF93EC016C834D838C8102
:1046B00060E00E940B468D8188838C818983DF9125
:1046C000CF9108950C9401330F931F93CF93DF93F1
:1046D0001F92CDB7DEB78C0149830E94A932F80141
:1046E000EE5BFF4F498140830F90DF91CF911F9187
:1046F0000F9108958E5B9F4FFC0180810895FC010E
:1047000062857385848595850895FC01628D738D1E
:10471000848D958D0895FC01613029F432852385BF
:10472000948585850DC0623029F43685278590896A
:10473000818906C0633029F4328923899489858967
:10474000AC01632F722F852F942F0895EF92FF9263
:104750000F931F93CF93DF93F62E8A01E22EEC0185
:10476000CE5BDF4F688182EA99E00E94F43C6F2DB6
:1047700082EA99E00E94A13C813001F560E082EA82
:1047800099E00E94FE3C81112EC081E090E00E94E1
:10479000614421E04E2D688182EA99E00E94E83C64
:1047A000E80100E010E0F12C82EA99E00E944A3C26
:1047B000892B31F00E151F0574F002C08FEF13C066
:1047C00081E090E00E94614481E00E151F0509F42C
:1047D00080E0819508C00F5F1F4F82EA99E00E9438
:1047E000523C8993E1CFDF91CF911F910F91FF90C0
:1047F000EF9008954F925F926F927F928F929F9267
:10480000AF92BF92CF92DF92EF92FF920F931F93DE
:10481000CF93DF93CDB7DEB72C970FB6F894DEBFFA
:104820000FBECDBF8C01AC014C5C5F4F2EE06BE343
:104830008DDF8111C8C1F801A4A8B12CBA2CAA241B
:1048400085A9A82AB3A2A2A2E6A8F12CFE2CEE24E8
:1048500087A9E82AF5A2E4A280AC912C982C8824A0
:1048600081AD882A97A286A2468057806084718491
:1048700064AD70E0762F662785AD682B882777FDBD
:104880008095982F0E94364EF80120A531A542A5AB
:1048900053A50E94D04CA30192010E949B4DF801A8
:1048A000668B778B808F918F66AD70E0762F662751
:1048B00087AD682B882777FD8095982F0E94364E0C
:1048C000F80124A535A546A557A50E94D04CA30103
:1048D00092010E949B4DF801628F738F848F958F98
:1048E000E05CFF4F608170E0762F66273196808113
:1048F000682B882777FD8095982F0E94364EF80107
:1049000020A931A942A953A90E94D04CA301920128
:104910000E949B4DF801668F778F80A391A3B7010A
:10492000882777FD8095982F0E94364E6B017C0179
:10493000B401882777FD8095982F0E94364E9B0101
:10494000AC010E94AE4F2B013C01A7019601C701AB
:10495000B6010E94AE4FA30192010E94D14C0E9469
:1049600061509B01AC01B501882777FD8095982F98
:1049700029873A874B875C870E94364E4B015C0142
:1049800029853A854B855C850E94444D20E030E0C6
:1049900044E353E40E94AE4F2AED3FE049E450E483
:1049A0000E949B4D69837A838B839C83A50194012C
:1049B000C501B4010E94AE4FA30192010E94D14CE7
:1049C0000E9461509B01AC01C701B6010E94444D99
:1049D00020E030E044E353E40E94AE4F2AED3FE094
:1049E00049E450E40E949B4D6D837E838F839887BA
:1049F0000E940C44C0909808D0909908E0909A08C2
:104A0000F0909B086C197D098E099F090E94344E15
:104A100020E030E04AE754E40E949B4D6B017C01AA
:104A20000E940C44609398087093990880939A08A8
:104A300090939B08F80186A197A11816190644F5D2
:104A4000228D338D448D558DC701B6010E94AE4F26
:104A50009B01AC01F80162857385848595850E9470
:104A6000D04CF801628773878487958726893789B8
:104A7000408D518DC701B6010E94AE4F9B01AC0124
:104A8000F80166857785808991890E94D14C28C07C
:104A9000F801228D338D448D558DC701B6010E94DA
:104AA000AE4F9B01AC01F8016285738584859585C5
:104AB0000E94D14CF8016287738784879587268985
:104AC0003789408D518DC701B6010E94AE4F9B01C1
:104AD000AC01F80166857785808991890E94D04C68
:104AE000F80166877787808B918BF801268D378D4B
:104AF00040A151A1C701B6010E94AE4F9B01AC017C
:104B0000F80162897389848995890E94D14CF801E2
:104B1000628B738B848B958B20E030E040E05FE309
:104B2000C701B6010E94D14C9B01AC0160E070E06E
:104B300080E09FE30E949B4D6B017C019B01AC01D7
:104B400060E070E080E89FE30E94D04C4B015C0184
:104B5000F8012285338544855585C701B6010E9439
:104B6000AE4F2B013C01A501940169817A818B81B3
:104B70009C810E94AE4F9B01AC01C301B2010E9417
:104B8000D14CF8016287738784879587268537859E
:104B900040895189C701B6010E94AE4F6B017C016B
:104BA000A50194016D817E818F8198850E94AE4F11
:104BB0009B01AC01C701B6010E94D14CF801668788
:104BC0007787808B918B2C960FB6F894DEBF0FBE43
:104BD000CDBFDF91CF911F910F91FF90EF90DF90AC
:104BE000CF90BF90AF909F908F907F906F905F908D
:104BF0004F9008952F923F924F925F926F927F92C3
:104C00008F929F92AF92BF92CF92DF92EF92FF92DC
:104C10000F931F93CF93DF93CDB7DEB768970FB68F
:104C2000F894DEBF0FBECDBF8C010E940C444B0137
:104C30005C01C0909408D0909508E0909608F090A0
:104C400097080E940C446093940870939508809391
:104C5000960890939708A8014C5C5F4F2EE06BE399
:104C6000C80174DD811190C1C501B4016C197D09C1
:104C70008E099F090E94344E20E030E04AE754E458
:104C80000E949B4D1B012C01D801D4966C90D497A7
:104C9000712C762C6624D5968C91D597682A93969C
:104CA0007C926E929297D696AC90D697B12CBA2CF5
:104CB000AA24D7968C91D797A82A9596BC92AE92A3
:104CC0009497D8968C90D897912C982C8824D99624
:104CD0008C91D997882A97969C928E929697169641
:104CE000CD90DD90ED90FC901997DC966C91DC975F
:104CF00070E0762F6627DD968C91682B882777FDEC
:104D00008095982F0E94364EF80120A531A542A526
:104D100053A50E94D04CA70196010E949B4D698328
:104D20007A838B839C83D80156966D937D938D9364
:104D30009C935997DE966C91DE9770E0762F6627EC
:104D4000DF968C91682B882777FD8095982F0E949D
:104D5000364EF80124A535A546A557A50E94D04C8E
:104D6000A70196010E949B4D6D837E838F83988758
:104D7000D8015A966D937D938D939C935D97F8011E
:104D8000E05CFF4F608170E0762F6627319680816E
:104D9000682B882777FD8095982F0E94364EF80162
:104DA00020A931A942A953A90E94D04CA70196017C
:104DB0000E949B4D69877A878B879C87D8015E9676
:104DC0006D937D938D939C939197B501882777FD83
:104DD0008095982F0E94364E6B017C01B401882784
:104DE00077FD8095982F0E94364E9B01AC010E9462
:104DF000AE4F6D877E878F87988BA7019601C7017D
:104E0000B6010E94AE4F2D853E854F8558890E9480
:104E1000D14C0E9461509B01AC01B301882777FD02
:104E20008095982F2D8B3E8B4F8B588F0E94364E3E
:104E30004B015C012D893E894F89588D0E94444D5C
:104E4000698B7A8B8B8B9C8BA5019401C501B40176
:104E50000E94AE4F2D853E854F8558890E94D14CCA
:104E60000E9461509B01AC01C701B6010E94444DF4
:104E70006B017C01A201910169857A858B859C85F6
:104E80000E94AE4F9B01AC01F8016289738984894D
:104E900095890E94D14CD80152966D937D938D9344
:104EA0009C935597A201910169817A818B819C81A4
:104EB0000E94AE4FF80126853785408951890E94AE
:104EC000D14C28E431EE4AE75FE30E94AE4F4B013C
:104ED0005C0120E030E044E353E4C701B6010E94E6
:104EE000AE4F2AED3FE049E450E40E949B4D2AE09A
:104EF00037ED43EA5CE30E94AE4F9B01AC01C50174
:104F0000B4010E94D14CD8011E966D937D938D9370
:104F10009C935197A20191016D817E818F8198852B
:104F20000E94AE4FF80122853385448555850E9445
:104F3000D14C28E431EE4AE75FE30E94AE4F6B01AB
:104F40007C0120E030E044E353E469897A898B896D
:104F50009C890E94AE4F2AED3FE049E450E40E9454
:104F60009B4D2AE037ED43EA5CE30E94AE4F9B0184
:104F7000AC01C701B6010E94D14CD8011A966D93BD
:104F80007D938D939C931D9768960FB6F894DEBF22
:104F90000FBECDBFDF91CF911F910F91FF90EF908A
:104FA000DF90CF90BF90AF909F908F907F906F9049
:104FB0005F904F903F902F9008952F923F924F9285
:104FC0005F926F927F928F929F92AF92BF92CF9299
:104FD000DF92EF92FF920F931F93CF93DF9300D056
:104FE0001F92CDB7DEB71C0104EF11E0812C912C8C
:104FF0005401412C512C320119821A821B821C82CD
:105000007C0124E3E20EF11C26E0A70163E4C10168
:105010009DDBF10184A990E0982F882725A9822B98
:10502000AA2797FDA095BA2F29813A814B815C81EF
:10503000280F391F4A1F5B1F29833A834B835C83E8
:1050400086A990E0982F882727A9822BAA2797FD69
:10505000A095BA2F480E591E6A1E7B1E80AD90E0A7
:10506000982F882721AD822BAA2797FDA095BA2FCC
:10507000880E991EAA1EBB1E0150110929F624EFA5
:10508000C22EDD24D394E12CF12C69817A818B81AD
:105090009C81A70196010E94AB51CA01B9010E94EF
:1050A000364EF10160A771A782A793A7C301B20191
:1050B000A70196010E94AB51CA01B9010E94364E68
:1050C000F10164A775A786A797A7C501B401A70139
:1050D00096010E94AB51CA01B9010E94364EF101FE
:1050E00060AB71AB82AB93AB0F900F900F900F90B2
:1050F000DF91CF911F910F91FF90EF90DF90CF90B4
:10510000BF90AF909F908F907F906F905F904F90E7
:105110003F902F900895EF92FF921F93CF93DF93CC
:105120001F92CDB7DEB7162F7A018E5B9F4FFC0121
:10513000608182EA99E029830E94F43C612F82EA2F
:1051400099E00E94A13C2981813091F4422F50E0E6
:10515000B70182EA99E00E94753C61E082EA99E039
:105160000F90DF91CF911F91FF90EF900C94FE3C38
:105170008FEF0F90DF91CF911F91FF90EF900895E7
:10518000CF93DF931F92CDB7DEB7498321E0AE0105
:105190004F5F5F4FC0DF0F90DF91CF910895CF93A6
:1051A000DF93EC0140E050E063E872E44E835F83FC
:1051B000688779871A861B861C861D861E861F8631
:1051C000188A198A1A8A1B8A1C8A1D8A1E8A1F8AB3
:1051D000188E198E1A8E1B8E1C8E1D8E1E8E1F8E83
:1051E00018A219A21BA21AA21DA21CA21FA21EA2D3
:1051F00018A619A61AA61BA61CA61DA61EA61FA6A3
:1052000018AA19AA1AAA1BAA82EA99E00E94DF3CEE
:1052100060E273E080E090E00E943B4440E06BE697
:1052200070E0CE01ADDF41E06AE170E0CE01A8DFC1
:1052300048E06BE170E0CE01A3DFCE01DF91CF91BA
:10524000BCCE21E030E0FC0131832083EE5FFE4FD5
:10525000108211821282138234961082118212827D
:105260001382349610823196108231961082118208
:1052700012821382349611821082329610823196F5
:10528000108211821282138234961082118212824D
:1052900013820895089560E00C94A9324F925F92B2
:1052A0006F927F928F929F92AF92BF92CF92DF9236
:1052B000EF92FF920F931F93CF93DF9300D01F9233
:1052C0001F92CDB7DEB78C01CE0101966C0185E04F
:1052D000F60111928A95E9F760E0C8010E94F13267
:1052E00064E170E080E090E00E943B4461E0C8012E
:1052F0000E94F13288E290E00E94614460E0C801BF
:105300000E94F1320E940C444B015C0160E0C80134
:105310000E94D03281110EC00E940C446819790994
:105320008A099B09633071058105910578F3F801BD
:10533000148215820E940C444B015C0160E0C8019C
:105340000E94D032882359F00E940C4468197909D0
:105350008A099B09633071058105910578F3E12C79
:10536000F12C0E940C444B015C0160E0C8010E94DA
:10537000D03281110BC00E940C44681979098A0946
:105380009B09633071058105910578F30E941844EB
:105390004B015C010E940C442B013C0160E0C80100
:1053A0000E94D032882359F00E940C446419750978
:1053B00086099709633071058105910578F30E948C
:1053C0001844681979098A099B09F70123E0F595C2
:1053D000E7952A95E1F7693271058105910530F06D
:1053E000EC0DFD1D8081880F816004C0EC0DFD1D5A
:1053F0008081880F8083FFEFEF1AFF0A88E2E816AA
:10540000F10409F0AECF59814B81842F90E0850FD4
:10541000911D2D8130E08217930719F4F801548310
:1054200045830F900F900F900F900F90DF91CF91C9
:105430001F910F91FF90EF90DF90CF90BF90AF90B2
:105440009F908F907F906F905F904F900895FC0198
:10545000611102C08481089585810895CF93DF93FF
:10546000EC010E9469348FEF92E09983888388A1D0
:10547000FE01E858FF4F80838F8DC758DF4F888328
:10548000DF91CF910895CF93DF93EC0140E855E28F
:1054900060E070E00E94A43460E08F8DDF91CF91D6
:1054A0000C940B461F93CF93DF93EC018BA18823C1
:1054B00019F0CE010E94D23460E0CE014F960E94D6
:1054C000BF32182F8BA1882311F0CE01DCDF81E0E1
:1054D0008127DF91CF911F91089586589F4FFC013E
:1054E00080810895CF93DF93EC01DCDF8823A1F066
:1054F000CE010E943E35181619068CF4E881F98118
:105500000680F781E02DCE0119958F3F91053CF47F
:10551000C658DF4F888303C0C658DF4F1882DF911B
:10552000CF9108950E942535992708951F920F92D3
:105530000FB60F9211240BB60F920F931F932F9358
:105540003F934F935F936F937F938F939F93AF930B
:10555000BF93CF93EF93FF9382E00E947946C82FC9
:105560002091A2083091A3082F5F3F4F3093A308EA
:105570002093A20880910809843618F085E0809372
:105580009D0890919D08933079F018F4923039F08D
:1055900070C0943011F1953009F44AC06AC0C1114D
:1055A00068C01092080929C0C13009F062C0E091BA
:1055B000080981E08E0F80930809F0E08091A2082D
:1055C0009091A308E456F74F80871092A308109299
:1055D000A20884E080939D084CC0C11114C0E091E2
:1055E000080981E08E0F80930809F0E08091A208FD
:1055F0009091A308E456F74F80871092A308109269
:10560000A20883E0E7CF8091A2089091A308853695
:10561000910578F185E080939D080E940C44609389
:105620009E0870939F088093A0089093A10821C0C2
:105630000E940C4400919E0810919F082091A008A0
:105640003091A108601B710B820B930B693C7105B3
:105650008105910540F0109208091092A30810925C
:10566000A20882E0B7CFC11104C01092A308109223
:10567000A208FF91EF91CF91BF91AF919F918F9130
:105680007F916F915F914F913F912F911F910F915A
:105690000F900BBE0F900FBE0F901F90189560E0FB
:1056A00058C7613041F4ADD78A5E914020910B0913
:1056B00030910C0909C0623051F4A7D78A5E91403D
:1056C0002091090930910A09820F931F089580E003
:1056D00090E00895CF92DF92EF92FF920F931F9385
:1056E000CF93DF93EC01162FF42EE52ED22E106C03
:1056F00061E08C810E94444660E08D810E944446B6
:1057000008E060E08C810E944446612F61708D81C9
:105710000E94444661E08C810E94444616950150E7
:1057200081F7CF2C0F2D1E2D802F8C198D15B0F4E5
:10573000F801E1908F0188E0F82E60E08C810E94F2
:1057400044466E2D60788D810E94444661E08C81D4
:105750000E944446EE0CFA9481F7E6CF60E08C811B
:105760000E94444660E08D810E94444661E08C8145
:105770000E94444661E08D81DF91CF911F910F918E
:10578000FF90EF90DF90CF900C944446D9C60F93D2
:105790001F93CF93DF93EC01162F61E08C810E9461
:1057A000444660E08D810E94444608E060E08C81C0
:1057B0000E944446612F61708D810E94444661E0E1
:1057C0008C810E9444461695015081F760E08C81DF
:1057D0000E94444660E08D810E94444661E08C81D5
:1057E0000E94444661E08D81DF91CF911F910F911E
:1057F0000C94444620E030E0FC01E20FF31F1086D9
:105800002F5F3F4F20313105B9F721E0FC0126839E
:105810001782AC01485F5F4F20E160E05BCF6930E9
:1058200018F4662321F001C068E061506860606888
:10583000AECFCF93DF93EC01E62FF0E0EE0FFF1F2A
:10584000EE5AFD4F80818C8391819D836A8361E054
:105850000E940B4661E08D810E940B4661E08C81C5
:105860000E94444661E08D810E94444660E4CE017E
:105870008EDF65E0CE01D3DFCE01DF91CF91BACFCD
:105880008F929F92AF92BF92CF92DF92EF92FF9250
:105890000F931F93CF93DF9360310CF084C0483097
:1058A0000CF081C0222309F47EC0FC013681A42FB4
:1058B000BB27A7FDB095E8E0F0E0EA1BFB0B5FEF2C
:1058C00001C0550FEA95EAF74801C0E0D0E077271C
:1058D00067FD70956C01C60ED71EAA24BB24AA1AB8
:1058E000BB0A332379F1C21778F58E01060F171F13
:1058F00017FD1AC07601EC0EFD1EF7013085352329
:10590000F4010081141644F410E00A2E02C015952B
:1059100007950A94E2F705C00A2C01C0000F0A940B
:10592000EAF7032BF70100872196FFEF8F1A9F0AF2
:10593000DACF8E01060F171F17FF18C02196FFEF51
:105940008F1A9F0AC217A8F3AC01485F5F4F20E18E
:1059500060E0DF91CF911F910F91FF90EF90DF906A
:10596000CF90BF90AF909F908F90B4CE7601EC0E09
:10597000FD1EF70130853523F401008110E000950C
:10598000109514163CF40A2E02C0159507950A943A
:10599000E2F705C00A2C01C0000F0A94EAF7032BB6
:1059A000F7010087CBCFDF91CF911F910F91FF902F
:1059B000EF90DF90CF90BF90AF909F908F90089521
:1059C0008F929F92AF92BF92CF92DF92EF92FF920F
:1059D0000F931F93CF93DF93EC01088D198D101651
:1059E00011060CF073C080E090E0F82E801791074C
:1059F00051F001968131910509F4E7C0FE01E80FED
:105A0000F91F1782F2CF40E1841709F4DEC00B8D35
:105A10001C8DE12C67E0D62E70E2C72E4E2D50E093
:105A2000401751070CF049C0B12CDE01A40FB51F7F
:105A30005D962B2D30E0D29EC001D39E900D112497
:105A400081559D4FFC016491603441F1FC016491EA
:105A5000EC91FF27E7FDF09570E0E617F707E1F41A
:105A6000D29EB001D39E700D112420E030E060552D
:105A70007D4FFB01E20FF31FE491DE01AF0DB11D7D
:105A80001896EC93F394FFE0FF1540F02F5F3F4F23
:105A90002630310571F702C0B394CBCFFC0184915D
:105AA000803429F4FE01E40FF51FC58EEA94E394D7
:105AB000FFE0FF1508F0B2CF88C0FE01EF0DF11D29
:105AC0001086F39440E1F412F8CF7FC0EB8CFC8C8D
:105AD0002AEFA7012403C001259F900D1124081768
