:1000000017C300000C947A400C94AB400C94DC4075
:100010000C940D410C943E410C946F410C94A04102
:100020000C94D1410C94503E0C94503E0C94503E94
:1000300030C300000C94F62A2CC300002AC3000031
:1000400028C300000C946A3824C3000022C30000B7
:1000500020C300001EC300001CC300000C94024219
:1000600018C300000C9499460C94CF4612C30000AC
:1000700010C300000EC300000CC300000AC3000040
:100080000C94973806C3000004C3000002C30000AC
:1000900000C30000FEC20000FCC200000C94313C12
:1000A000F8C20000F6C200000C94C438F2C200008E
:1000B000F0C20000EEC20000ECC200000C94F13867
:1000C000E8C20000E6C20000E4C200000C9444470D
:1000D0000C947A47DEC20000DCC20000DAC20000E5
:1000E000D8C2000097187516A016C116C116DE16E4
:1000F0005F18C1164019401940194019401940199C
:1001000040194617FE166A174019401940199F17E3
:100110004019F51713183918CE17C1164019401990
:10012000A518AD18401940194019BB18D01840192E
:1001300040194019401940194019401940194019F7
:100140004019401940194019FF1840194019401929
:100150004019401940194019401940192B19081924
:1001600054401E40264032403F4060406D4057435F
:100170005C4361436B437543EE437F4387438F4347
:100180009943A343AD43BC43C643EE43D043DA4354
:10019000E44310441344024406440C444A441744C4
:1001A0001B442144254429442F44334437444A44C2
:1001B0003D4441444544084AD73B3BCE016E84BC94
:1001C000BFFDC12F3D6C74319ABD56833DDA3D00B1
:1001D000C77F11BED9E4BB4C3E916BAAAABE0000FA
:1001E00000803F08000000BE922449123EABAAAA3C
:1001F0002ABECDCCCC4C3E00000080BEABAAAAAA41
:100200003E00000000BF000000803F000000000032
:10021000084178D3BB4387D1133D190E3CC3BD427F
:1002200082AD2B3E68EC8276BED98FE1A93E4C8030
:10023000EFFFBE01C4FF7F3F0000000000076342E4
:1002400036B79BD8A71A39685618AEBAAB558C1D6D
:100250003CB7CC5763BD6DEDFD753EF6177231BFEF
:10026000000000803F003F065B4F666D7D077F6F9B
:10027000777C395E7971BF86DBCFE6EDFD87FFEFD6
:10028000F7FCB9DEF9F100407C447C007C005C5452
:100290007454547C70107C74545C7C545C40407C7E
:1002A0007C547C74547C000400202020000000203A
:1002B00000000000000030007C82827C003100429F
:1002C000FE0200003200468A92620033004492929D
:1002D0006C0034001C64FE04003500F292928C0025
:1002E00036007C92924C003700C08E90E0003800BF
:1002F0006C92926C0039006492927C006100042A36
:100300002A1E006200FE12120C0063000C12121270
:100310000064000C1212FE0065001C2A2A180066F8
:1003200000103E50500067000815151E006800FEC2
:10033000101E00006900002E0000006A0002012E5D
:1003400000006B00FE081412006C0000FE020000AA
:100350006D001E100E100E6E001E10100E006F00AD
:100360000C12120C0070001F12120C0071000C1203
:10037000121F0072001E08101000730012292512AF
:10038000007400103E12000075001C02021E007670
:100390001804020418007718061C061800780012CA
:1003A0000C0C120079001805051E007A0012161AAE
:1003B000120041007E88887E004200FE92926C000E
:1003C00043007C828244004400FE82827C0045001F
:1003D000FE929282004600FE9090800047007C8250
:1003E000925C004800FE1010FE00490082FE820070
:1003F000004A000C0202FC004B00FE1028C6004C14
:1004000000FE020202004D00FE403040FE4E00FEA3
:10041000403008FE4F007C8282827C5000FE90902B
:10042000600051007C828A847A5200FE98946200B7
:1004300053006492924C00540080FE80800055006E
:10044000FC0202FC005600F00C020CF05700FE0407
:100450003804FE5800C63838C60059C0201E20C0D7
:10046000005A00869AB2C2002C00010E0C00002E29
:10047000000006060000257254781E2A4E21000056
:100480007A0000003F00204A3000002D00101010BC
:1004900010002B08083E0808002F00020C30400016
:1004A0002A2214081422003A00001400000022003E
:1004B000C000C000002328FE28FE28002800007C81
:1004C000820000290000827C00003B000224000022
:1004D000007E0040804080003B0002240000003D80
:1004E0000028282828007C0000FE0000003E008232
:1004F000442810003C001028448200400000000006
:10050000000000000A0B02090C0D0E08070304018D
:1005100000000000000000000000000000000000DB
:1005200000000000000000000000000000001211A8
:1005300010000000000000000000000000000000AB
:100540000000000000000000010210202008081038
:100550002040102040800201020108040201010233
:10056000040810204080804020100804020180040C
:100570000201804020100804020108040201010267
:100580000408102040800102040810204080050566
:100590000505070508080808020202020A0A0808F9
:1005A0000404040401010101010101010303030327
:1005B00003030303040707070C0C0C0C0C0C0C0CB6
:1005C0000202020206060606060606060B0B0B0BC7
:1005D0000B0B0B0B000020002300260029002C0031
:1005E0002F00320000010000030106010901000094
:1005F0002200250028002B002E00310034000201CB
:100600000000050108010B01000021002400270063
:100610002A002D0030003300010100000401070111
:100620000A0118150A25503B0147AC477B150D25DB
:1006300011241FBECFEFD1E2DEBFCDBF00E00CBF63
:1006400013E0A0E0B2E0E8EFF5EA00E00BBF02C083
:1006500007900D92AC34B107D9F72BE0ACE4B3E0CE
:1006600001C01D92A23DB207E1F716E0CCE2D6E050
:1006700000E006C022970109FE010BBF0E942D5029
:10068000C232D10780E00807A9F70E94F0470C9416
:10069000EB52B6CCCF92DF92EF92FF920F931F9363
:1006A000E82FF92F05C0015011092109310961F125
:1006B000908196239417B9F305C0015011092109BF
:1006C000310911F1908196239413F7CFC12CD12CCD
:1006D000E12CF12C0AC08FEFC81AD80AE80AF80AF0
:1006E0000C151D052E053F0579F0808186238417A2
:1006F00091F36C2D7D2D8E2D9F2D1F910F91FF90CD
:10070000EF90DF90CF90089560E070E080E090E09F
:100710001F910F91FF90EF90DF90CF90089587EA9F
:1007200095E00E9447250E94B944892B21F487EA6D
:1007300095E00C94642587EA95E00C94562585E7AE
:1007400095E00E9447250E94B944892B21F485E752
:1007500095E00C94642585E795E00C9456250C945F
:10076000D7520C94CF52CF92DF92EF92FF920F9319
:100770001F93CF93DF931F921F92CDB7DEB76C010B
:100780008B017C0184E0E80EF11CC60169837A8349
:100790000E94CF52F80181938F01FFEFCF1ADF0A39
:1007A00069817A81CE14DF0481F7CB010F900F901D
:1007B000DF91CF911F910F91FF90EF90DF90CF903D
:1007C0000895EF92FF920F931F93CF93DF931F92A1
:1007D000CDB7DEB77C01FC0100811181C8016983BE
:1007E0000E94CF526981681719F0C8010E94D75240
:1007F000C7010F90DF91CF911F910F91FF90EF9064
:100800000895BF92CF92DF92EF92FF920F931F93C2
:10081000CF93DF9300D0CDB7DEB78C01B62EE62E96
:10082000F72E6C0184E0C80ED11CF70161917F01A5
:100830001A830983CE0101967B83C3DF0F5F1F4FAD
:100840007B810C151D0589F78B2D972F0F900F902D
:100850000F90DF91CF911F910F91FF90EF90DF905C
:10086000CF90BF900895CF92DF92EF92FF920F93B7
:100870001F93CF93DF931F921F92CDB7DEB76C010A
:100880008C0183E5E82EF12CF80161918F01FA8249
:10089000E982CE01019695DFFFEFEF1AFF0A87E5A7
:1008A000E816F10489F7C6010F900F90DF91CF9100
:1008B0001F910F91FF90EF90DF90CF9008956BEA1A
:1008C00080E590E04CDF6DEC81E590E048DF6BEA7D
:1008D00082E590E044DF8AE092E0C5DF62EF73E0FA
:1008E00087E590E08EDF66EF73E08BE590E089DFCF
:1008F0006AEF73E08FE590E084DF62ED73E083E6FA
:1009000090E07FDF66ED73E087E690E07ADF6AEDE6
:1009100073E08BE690E075DF62EB73E08FE690E0CA
:1009200070DF6FEE83E790E01ADF6BEA82E890E019
:1009300016DF6091D60483E690E011DF6FEE84E865
:1009400090E00DCF6BEA80E890E009DF6DEC81E884
:1009500090E005DF6BEA82E890E001DF6091D60469
:1009600083E890E0FCDE6FEE84E890E0F8CE0F9331
:100970001F93CF93DF9380E590E0F3DE8B3A29F469
:1009800081E590E0EEDE8D3C71F099DF80E890E04B
:10099000E8DE8B3A09F04BC081E890E0E2DE8D3C66
:1009A00009F045C046C082E590E0DBDE8B3A09F0F5
:1009B00037C083E790E0D5DE8F3E91F50AE012E084
:1009C000C3E5D0E0CE010E94CF52F80181938F01A0
:1009D0002196C735D105B1F762EF73E087E590E066
:1009E000C2DE66EF73E08BE590E0BDDE6AEF73E098
:1009F0008FE590E0B8DE62ED73E083E690E0B3DE71
:100A000066ED73E087E690E0AEDE6AED73E08BE6BC
:100A100090E0A9DE62EB73E08FE690E0A4DEB6CF53
:100A20006FE572E08EE89AE00E946748AFCF8ADFF8
:100A30001BC082E890E095DE8B3A61F484E890E098
:100A400090DE8F3E39F483E890E00E94CF5280938D
:100A5000D6040AC065E872E08EE89AE0DF91CF9193
:100A60001F910F910C94674880E090E0DF91CF9147
:100A70001F910F910895609112027091130277FFF8
:100A800002C06F5F7F4F7595679587EA95E00E947A
:100A90007E25609112027091130271956195710922
:100AA00085E795E00C947E25609112027091130207
:100AB00087EA95E00E947E256091120270911302F0
:100AC00077FF02C06F5F7F4F759567957195619550
:100AD000710985E795E00C947E2560911202709172
:100AE000130287EA95E00E947E25609112027091C0
:100AF000130277FF02C06F5F7F4F7595679585E79B
:100B000095E00C947E25609112027091130271950C
:100B10006195710987EA95E00E947E256091120235
:100B20007091130277FF02C06F5F7F4F75956795D5
:100B300071956195710985E795E00C947E2560E0DB
:100B400070E087EA95E00E947E2560E070E085E72E
:100B500095E00E947E251092D8041092D704089543
:100B60008EE89AE00C945448FC01E356FB4F8081D8
:100B70008093EF0481818093F0048091EF04909141
:100B8000F0040895A9EFB4E0FC01E356FB4F808127
:100B90008C9381818093FA0482818093FB0483810A
:100BA0008093FC046D917D918D919C910895EEE56B
:100BB000F3E020E030E083569B4F2617370744F4DC
:100BC000DC01A20FB31F4C9141932F5F3F4FF5CF34
:100BD000FB01E25AFC4F10828EE593E00895EEE4AB
:100BE000F3E020E030E083569B4F261737075CF494
:100BF0002031310541F0DC01A20FB31F4C9141932C
:100C00002F5F3F4FF2CF8EE493E00895EFEDF4E0D5
:100C100020E030E0419151914817590791F0452B60
:100C200041F4F901EE0FFF1FE152FB4F91838083E6
:100C300008C02F5F3F4F2830310561F780E090E01A
:100C40000895C9010895AF92BF92CF92DF92EF92BB
:100C5000FF920F931F93CF93DF93CDB7DEB7E69745
:100C60000FB6F894DEBF0FBECDBFD090A304ED2C1D
:100C7000F12C8032910509F443C344F58930910584
:100C800009F49BC264F48530910509F483C088306F
:100C9000910509F426C2039709F0FBC3F8C28B3013
:100CA000910509F460C20CF442C08431910509F445
:100CB00003C34E9709F0EDC361E08D2D0E944B44B4
:100CC0006091A4048D2D0E948444E3C38932910570
:100CD00009F48BC254F48232910509F41DC30CF45B
:100CE0003BC3889709F473C0D4C38433910509F4D6
:100CF00053C3B4F4C29709F0CCC30E944C420E9483
:100D00007B4C20E030E04AE754E40E94E24B6093E1
:100D1000990470939A0480939B0490939C04B9C3A4
:100D20008C33910509F40BC2CD9739F0B2C387E03B
:100D300090E01ADF8C016D2D40C0EF2809F0A9C3A7
:100D40001091A40488E090E00FDF113081F4BC0121
:100D5000882777FD8095982F0E947D4C60939E0395
:100D600070939F038093A0039093A10392C31230CA
:100D700009F08FC3BC01882777FD8095982F0E94CA
:100D80007D4C60937E0370937F03809380039093E8
:100D900081037FC386E090E0E7DE8C0169E08BE2AF
:100DA00097E00E944C31B8018BE297E00E94E12469
:100DB00088E090E0D9DE8C016AE08BE297E00E9447
:100DC0004C31B8018BE297E00E94E12462C387E0D6
:100DD00090E0CADE8C0189E090E0C6DE5C0181E033
:100DE000E816F10409F0BBC061E0CE0101960E9453
:100DF000C5338B819C81AD81BE818093F205909338
:100E0000F305A093F405B093F5058F818093F60563
:100E100088859985AA85BB858093F7059093F80509
:100E2000A093F905B093FA058C859D85AE85BF85A5
:100E30008093FB059093FC05A093FD05B093FE0500
:100E400088899989AA89BB898093FF0590930006B8
:100E5000A0930106B09302068C899D89AE89BF8953
:100E60008093030690930406A0930506B0930606AC
:100E7000888D998DAA8DBB8D809307069093080667
:100E8000A0930906B0930A068C8D9D8DAE8DBF8D03
:100E900080930B0690930C06A0930D06B0930E065C
:100EA00088A199A1AAA1BBA180930F0690931006D7
:100EB000A0931106B09312068CA19DA1AEA1BFA173
:100EC0008093130690931406A0931506B09316060C
:100ED00088A599A5AAA5BBA5809317069093180687
:100EE000A0931906B0931A068CA59DA5AEA5BFA523
:100EF00080931B0690931C06A0931D06B0931E06BC
:100F000088A999A9AAA9BBA980931F069093200636
:100F1000A0932106B09322068CA9809323068DA965
:100F200080932406A501662757FD6095762F80EFF4
:100F300095E00E94C735B801882777FD8095982FE6
:100F40000E947D4C6B017C01AB01BC0180EF95E000
:100F50000E94DD35B701A60180EF95E0BFC082E0B9
:100F6000E816F10409F095C262E0CE0101960E94F4
:100F7000C5338B819C81AD81BE8180932706909380
:100F80002806A0932906B0932A068F8180932B060A
:100F900088859985AA85BB8580932C0690932D061C
:100FA000A0932E06B0932F068C859D85AE85BF85B8
:100FB0008093300690933106A0933206B0933306A7
:100FC00088899989AA89BB898093340690933506CC
:100FD000A0933606B09337068C899D89AE89BF8968
:100FE0008093380690933906A0933A06B0933B0657
:100FF000888D998DAA8DBB8D80933C0690933D067C
:10100000A0933E06B0933F068C8D9D8DAE8DBF8D17
:101010008093400690934106A0934206B093430606
:1010200088A199A1AAA1BBA18093440690934506EB
:10103000A0934606B09347068CA19DA1AEA1BFA187
:101040008093480690934906A0934A06B0934B06B6
:1010500088A599A5AAA5BBA580934C0690934D069B
:10106000A0934E06B0934F068CA59DA5AEA5BFA537
:101070008093500690935106A0935206B093530666
:10108000C8A8D9A8EAA8FBA8C0925406D0925506D1
:10109000E0925606F09257068CA9809358068DA9C7
:1010A00080935906A501662757FD6095762F85E246
:1010B00096E00E94C735B801882777FD8095982F64
:1010C0000E947D4C6B017C01AB01BC0185E296E086
:1010D0000E94DD35B701A60185E296E00E94373611
:1010E000D8C14091A404B090A5041091A604C0906A
:1010F000A7040091A804EF2831F06D2D8BE097E054
:101100000E94753105C06CE28BE097E00E94BD3112
:10111000BB2049F06FEF6B0D2C2D412F8BE097E03A
:101120000E940E3207C0202F4C2D612F8BE097E0DC
:101130000E945D328BE097E00E948932AAC16091E3
:10114000A40481E1D812A5C16EABF9DC6EA96430AC
:1011500018F46093D60403C01092D60460E083E8CC
:1011600090E0FDDA96C12091A404C701880F991F71
:10117000FC01EC5CFD4F213011F4008101C00181C4
:1011800010E0D090A504C80141DDFC01EE0FFF1F67
:10119000E80FF91FEF5CF84F2081318142812983EC
:1011A0003A834B8384EB8D1508F473C1B801CE01EB
:1011B00001960E94E9396D2DE9C08FEF96E00E94FB
:1011C000F830282F30E02E153F0529F06D2D8FEFD8
:1011D00096E00E94D71E87E090E0D4DCAB01BC0112
:1011E0008FEF96E00E94F81E54C18AEC96E00E94B0
:1011F000F830282F30E02E153F0529F06D2D8AECB0
:1012000096E00E94792C8091A40490E081309105B1
:10121000B1F40091A504112707FD10954091A60493
:101220006091A70470E08BE090E04EABC0DC9C01C5
:101230004EA9B8018AEC96E00E94952E2AC1823010
:10124000910599F4F090A5044091A60460E170E046
:101250008AE090E04EABC3DC8C0120E14EA96F2DFB
:101260008AEC96E00E94A02C14C1039709F011C1EA
:1012700021E08091A504811101C020E04091A704E4
:101280006091A6048AEC96E00E94CF2E02C18BEFFB
:1012900096E00E94F830282F30E02E153F0529F007
:1012A0006D2D8BEF96E00E944C3161E08091A4049B
:1012B000811118C060E016C08BEF96E00E94F830F4
:1012C000282F30E02E153F0529F06D2D8BEF96E08D
:1012D0000E944C316091A404862F90E082309105E9
:1012E00034F461708BEF96E00E942031D2C061E04F
:1012F000029709F460E08BEF96E00E943031C9C09C
:1013000061E08D2D0E944B442091A404622F70E077
:101310008D2D0E943343BDC061E08D2D0E944B4452
:1013200087E090E021DC6C0189E090E01DDC18167C
:10133000190664F48C01222717FD2095322FA6018F
:10134000B7018CEE95E00E946D1FA3C0B7018CEE33
:1013500095E00E94D41F9DC01091A404153B08F095
:1013600098C0C70153DCFC01EE0FFF1FE80FF91F07
:10137000EF5CF84F80819181A28189839A83AB834E
:10138000B701CE0101960E94E939612F70E0CE01CC
:1013900001960E94213A7DC0EF2809F07AC087E0CB
:1013A00090E0E2DB5C0189E090E0DEDB8C01BC01D7
:1013B000882777FD8095982F0E947D4C2DEC3CEC82
:1013C0004CE45EE30E94F54D6B017C016093DE030B
:1013D0007093DF038093E0039093E103B5018827C6
:1013E00077FD8095982F0E947D4C90582AE939E925
:1013F00049E95EE30E94F54D6093BE037093BF031D
:101400008093C0039093C103C701B6010E944A4C68
:101410009B0177FF04C022273327261B370B81E06F
:10142000809312042230310514F4012B49F166EA4D
:1014300072E08EE89AE00E944C484091BE035091C1
:10144000BF036091C0037091C10322E030E08EE8D9
:101450009AE00E94EC496FEA72E08EE89AE00E94FE
:101460004C484091DE035091DF036091E00370919E
:10147000E10322E030E08EE89AE00E94ED4909C0E5
:101480001092E6031092E7031092E8031092E9032A
:10149000CECFE6960FB6F894DEBF0FBECDBFDF917C
:1014A000CF911F910F91FF90EF90DF90CF90BF9061
:1014B000AF9008958AE30E940E439093DA048093DC
:1014C000D904BC01882777FD8095982F0E947D4C18
:1014D00020E030E040E85AE30E94F54D20E030E0A3
:1014E00040E751E40C94F54D08954F925F926F924E
:1014F0007F928F929F92AF92BF92CF92DF92EF92A4
:10150000FF92C0906304D0906404E0906504F09072
:101510006604F7FAF094F7F8F094C0921F04D092A2
:101520002004E0922104F09222042091FE033091E5
:10153000FF034091000450910104C701B6010E94CD
:10154000174B4B015C0140900604509007046090DB
:101550000804709009040E944A4C672B79F0A50199
:101560009401C301B2010E94184B6093060470936A
:101570000704809308049093090408C0109206049D
:1015800010920704109208041092090420911B0481
:1015900030911C0440911D0450911E04C701B601F6
:1015A0000E94174B2B013C0160930A0470930B04BB
:1015B00080930C0490930D04C0921B04D0921C04E1
:1015C000E0921D04F0921E042091F2033091F30387
:1015D0004091F4035091F503C501B4010E94F54D0B
:1015E0006B017C01209106043091070440910804AE
:1015F000509109046091F6037091F7038091F8030C
:101600009091F9030E94F54D9B01AC01C701B60111
:101610000E94184B6B017C012091FA033091FB036F
:101620004091FC035091FD03C301B2010E94F54DAE
:101630009B01AC01C701B6010E94184B6B017C01F4
:1016400020E030E0A9010E94A54D20E030E040EE0E
:1016500050E418162CF4C701B6010E94184B04C0C0
:10166000C701B6010E94174B6093020470930304F4
:101670008093040490930504409002045090030466
:101680006090040470900504C090C203D090C3031E
:10169000E090C403F090C503A7019601C301B20115
:1016A0000E94174B4B015C01C301B2019058A70186
:1016B00096010E94174B6B017C0120E030E04FE760
:1016C00053ECC501B4010E94DE4B87FD11C020E040
:1016D00030E04FE753E4C501B4010E94A54D181650
:1016E0006CF4812C912C8FE7A82E83E4B82E06C0D1
:1016F000812C912CBFE7AB2EB3ECBB2E20E030E069
:101700004FE753ECC701B6010E94DE4B87FD11C0C5
:1017100020E030E04FE753E4C701B6010E94A54D39
:1017200018166CF4C12CD12CAFE7EA2EA3E4FA2EE4
:1017300006C0C12CD12CFFE7EF2EF3ECFF2EC50124
:10174000B4010E944A4C87EA95E00E947E25C701B9
:10175000B6010E944A4C85E795E0FF90EF90DF903C
:10176000CF90BF90AF909F908F907F906F905F9041
:101770004F900C947E254F925F926F927F928F9242
:101780009F92AF92BF92CF92DF92EF92FF920F9310
:101790001F93CF93DF9385E795E00E9478256B0137
:1017A0007C0187EA95E00E9478259B01AC01C70186
:1017B000B6010E94174B20E030E040E05FE30E945A
:1017C000F54D4B015C01C090DE03D090DF03E0904B
:1017D000E003F090E1032DEC3CEC4CE45FE360911E
:1017E00013047091140480911504909116040E94C2
:1017F000F54D2B013C012DEC3CEC4CE45EE3C701C4
:10180000B6010E94F54D9B01AC01C301B2010E94DB
:10181000184B6093130470931404809315049093F1
:10182000160480911204882321F1C501B4010E949D
:101830004A4C695F7F4F6F307105D8F420E030E08B
:10184000A901C701B6010E94DE4B811112C010929E
:1018500012041092130410921404109215041092A2
:1018600016041092E6031092E7031092E803109218
:10187000E903209113043091140440911504509110
:101880001604C501B4010E94174B6B017C01209125
:10189000E6033091E7034091E8035091E9030E9489
:1018A000184B8B01D82FC92F80911204882309F47B
:1018B00087C020E030E046E154ECB8018D2F9C2F2A
:1018C0000E94DE4B87FD10C020E030E046E154E48A
:1018D000B8018D2F9C2F0E94A54D18164CF400E0E6
:1018E00010E0D6E1C4E404C000E010E0D6E1C4ECAE
:1018F000B8018D2F9C2F0E944A4C9B0177FF04C09A
:1019000022273327261B370B2835324061F0C801C8
:10191000AD2FBC2F8093E6039093E703A093E803D9
:10192000B093E90308C01092E6031092E703109207
:10193000E8031092E9032091D2033091D303409140
:10194000D4035091D503C701B6010E94F54D6B0138
:101950007C012091E6033091E7034091E803509128
:10196000E9036091D6037091D7038091D8039091D9
:10197000D9030E94F54D9B01AC01C701B6010E943D
:10198000184B8B01D82FC92F20E030E040E251ECFA
:101990000E94DE4B87FD10C020E030E040E251E4C1
:1019A000B8018D2F9C2F0E94A54D18160CF072C007
:1019B00000E010E0D0E268C000E010E0D0E269C0D2
:1019C00020E030E046E954ECB8018D2F9C2F0E94B6
:1019D000DE4B87FD10C020E030E046E954E4B8015A
:1019E0008D2F9C2F0E94A54D18164CF400E010E09E
:1019F000D6E9C4E404C000E010E0D6E9C4ECC801B4
:101A0000AD2FBC2F8093E6039093E703A093E803E8
:101A1000B093E9032091D2033091D3034091D403D2
:101A20005091D503C501B4010E94F54D4B015C01F5
:101A30002091D6033091D7034091D8035091D90318
:101A4000B8018D2F9C2F0E94F54D9B01AC01C50163
:101A5000B4010E94184B8B01D82FC92F20E030E031
:101A600040EA51EC0E94DE4B87FD10C020E030E0E0
:101A700040EA51E4B8018D2F9C2F0E94A54D181605
:101A80004CF400E010E0D0EAC1E404C000E010E053
:101A9000D0EAC1ECA8016D2F7C2F4093E203509354
:101AA000E3036093E4037093E5032091E203309134
:101AB000E3034091E4035091E50360910A027091C1
:101AC0000B0280910C0290910D020E94174B6093C3
:101AD000FE037093FF038093000490930104DF9151
:101AE000CF911F910F91FF90EF90DF90CF90BF901B
:101AF000AF909F908F907F906F905F904F900895E0
:101B0000CF92DF92EF92FF920F931F93CF93DF93C9
:101B100081E799E00E941A3B8CE794E00E943E1D09
:101B2000C9ECD0E0219709F4BDC037E6C32E34E0FC
:101B3000D32E49E6E42E44E0F42E0BE614E02DE625
:101B400034E04FE654E061E774E08CE794E00E94F3
:101B5000C71C4091710450917204662757FD60952F
:101B6000762F8091570490915804A0915904B09118
:101B70005A04840F951FA61FB71F80935704909394
:101B80005804A0935904B0935A0440916F045091A3
:101B90007004662757FD6095762F809153049091CD
:101BA0005404A0915504B0915604840F951FA61FAC
:101BB000B71F8093530490935404A0935504B0939B
:101BC000560440916D0450916E04662757FD609550
:101BD000762F80914F0490915004A0915104B091C0
:101BE0005204840F951FA61FB71F80934F04909334
:101BF0005004A0935104B093520440916B0450914F
:101C00006C04662757FD6095762F80914B04909168
:101C10004C04A0914D04B0914E04840F951FA61F53
:101C2000B71F80934B0490934C04A0934D04B09342
:101C30004E044091690450916A04662757FD6095EF
:101C4000762F8091470490914804A0914904B09167
:101C50004A04840F951FA61FB71F809347049093D3
:101C60004804A0934904B0934A04409167045091FA
:101C70006804662757FD6095762F80914304909104
:101C80004404A0914504B0914604840F951FA61FFB
:101C9000B71F8093430490934404A0934504B093EA
:101CA000460440CF609157047091580480915904C4
:101CB00090915A0428ECC22ED12CE12CF12CA701D2
:101CC00096010E94F24F209357043093580440939A
:101CD000590450935A0460915304709154048091B4
:101CE000550490915604A70196010E94F24F20934B
:101CF0005304309354044093550450935604609118
:101D00004F04709150048091510490915204A701A6
:101D100096010E94F24F20934F0430935004409359
:101D200051045093520460914B0470914C04809183
:101D30004D0490914E04A70196010E94F24F20930A
:101D40004B0430934C0440934D0450934E046091E7
:101D50004704709148048091490490914A04A70176
:101D600096010E94F24F2093470430934804409319
:101D7000490450934A046091430470914404809153
:101D8000450490914604A70196010E94F24F2093CA
:101D90004304309344044093450450934604DF9138
:101DA000CF911F910F91FF90EF90DF90CF9008950A
:101DB0004F925F926F927F928F929F92AF92BF925B
:101DC000CF92DF92EF92FF920F931F93CF93DF9307
:101DD000CDB7DEB760970FB6F894DEBF0FBECDBFAC
:101DE0000E944C426B017C018091770490917804B1
:101DF000A0917904B0917A04A7019601281B390BB0
:101E00004A0B5B0BCA01B9010E947B4C20E030E019
:101E10004AE754E40E94E24B6093730470937404A5
:101E20008093750490937604C0927704D0927804DE
:101E3000E0927904F0927A0457E6C52E54E0D52E4C
:101E400069E6E62E64E0F62E0BE614E02DE634E0BB
:101E50004FE654E061E774E08CE794E00E94C71C11
:101E60006091710470917204882777FD8095982F96
:101E70000E947D4C6B017C0160916D0470916E0439
:101E8000882777FD8095982F0E947D4C9B01AC019F
:101E90000E94F54D69837A838B839C83A701960109
:101EA000C701B6010E94F54D29813A814B815C81C1
:101EB0000E94184B0E94A84E9B01AC0160916F04D8
:101EC00070917004882777FD8095982F2D873E8725
:101ED0004F87588B0E947D4C4B015C012D853E85C0
:101EE0004F8558890E948B4B20EE3EE245E652E436
:101EF0000E94F54D2B013C0160933B0470933C0420
:101F000080933D0490933E04A5019401C501B40162
:101F10000E94F54D29813A814B815C810E94184BCA
:101F20000E94A84E9B01AC01C701B6010E948B4BD9
:101F300020EE3EE245E652E40E94F54D4B015C0185
:101F400060933F0470934004809341049093420453
:101F500060916B0470916C04882777FD8095982FB1
:101F6000C0904B04D0904C04E0904D04F0904E048F
:101F70006C197D098E099F090E947D4C20E030E09C
:101F800043E053E40E94E24B6D837E838F83988706
:101F90006091690470916A04882777FD8095982F75
:101FA000C0904704D0904804E0904904F0904A045F
:101FB0006C197D098E099F090E947D4C20E030E05C
:101FC00043E053E40E94E24B69877A878B879C87C2
:101FD000C0907304D0907404E0907504F09076047F
:101FE0006091670470916804882777FD8095982F29
:101FF0000E947D4C69837A838B839C836091430428
:102000007091440480914504909146040E947D4C57
:102010009B01AC0169817A818B819C810E94174B65
:1020200020E030E043E053E40E94E24BA701960138
:102030000E94F54D209137043091380440913904C5
:1020400050913A040E94184B69837A838B839C8356
:1020500060933704709338048093390490933A0462
:10206000A70196016D817E818F8198850E94F54D33
:1020700020915F04309160044091610450916204AA
:102080000E94184B28E431EE4AE75FE30E94F54DC9
:102090006D837E838F8398872AE037ED43EA5CE384
:1020A000C301B2010E94F54D9B01AC016D817E819F
:1020B0008F8198850E94184B60935F047093600431
:1020C0008093610490936204A701960169857A85E3
:1020D0008B859C850E94F54D2091630430916404AA
:1020E00040916504509166040E94184B28E431EE3B
:1020F0004AE75FE30E94F54D6B017C012AE037ED72
:1021000043EA5CE3C501B4010E94F54D9B01AC01BB
:10211000C701B6010E94184B609363047093640476
:10212000809365049093660489819A81AB81BC8118
:1021300080935B0490935C04A0935D04B0935E0471
:1021400060960FB6F894DEBF0FBECDBFDF91CF9182
:102150001F910F91FF90EF90DF90CF90BF90AF90C5
:102160009F908F907F906F905F904F900895809197
:102170007B0481116BC06091630470916404809151
:102180006504909166040E944A4C6C5F7F4F6930F1
:10219000710548F480914C0390914D030196909302
:1021A0004D0380934C0380914C0390914D034597D0
:1021B0000CF4C2C010924D0310924C031092E6032F
:1021C0001092E7031092E8031092E90360E070E0D8
:1021D00087EA95E00E947E2560E070E085E795E063
:1021E0000E947E2580910A0290910B02A0910C0220
:1021F000B0910D028093FE039093FF03A09300041F
:10220000B093010440E050E0BA0187EA95E00E94F3
:10221000502540E050E0BA0185E795E00E94502546
:102220000E944C4260932F047093300480933104D9
:102230009093320460932B0470932C0480932D04AC
:1022400090932E0481E080937B0408956091630451
:102250007091640480916504909166040E944A4CD8
:102260009B0177FF04C022273327261B370B21321F
:1022700031050CF498CF10924D0310924C0360E09E
:1022800070E087EA95E00E947E2560E070E085E7D7
:1022900095E00E947E251092E6031092E7031092CB
:1022A000E8031092E90380910A0290910B02A09139
:1022B0000C02B0910D028093FE039093FF03A09354
:1022C0000004B09301041092DE031092DF03109219
:1022D000E0031092E1031092BE031092BF0310922C
:1022E000C0031092C10340E050E0BA0187EA95E0D4
:1022F0000E94502540E050E0BA0185E795E00E9439
:1023000050251092E6031092E7031092E803109212
:10231000E90310927B04109213041092140410929B
:1023200015041092160410921704109218041092BB
:10233000190410921A0408950895CF92DF92EF9233
:10234000FF9215DF80917B04882309F472C00E94FC
:102350004C42C0902F04D0903004E0903104F090B3
:1023600032046C197D098E099F096B307105810556
:10237000910558F0BAD80E944C4260932F04709394
:10238000300480933104909332040E944C42C090F8
:102390002B04D0902C04E0902D04F0902E046C19A6
:1023A0007D098E099F09653671058105910508F43F
:1023B00050C0E1D92DEC3CEC4CE45FE36091170494
:1023C000709118048091190490911A040E94F54D9F
:1023D0006B017C012DEC3CEC4CE45EE36091BE03B0
:1023E0007091BF038091C0039091C1030E94F54D8D
:1023F0009B01AC01C701B6010E94184B6093170402
:10240000709318048093190490931A046093C20384
:102410007093C3038093C4039093C5030E944C42FE
:1024200060932B0470932C0480932D0490932E04BE
:1024300010C060E070E087EA95E00E947E2560E0D1
:1024400070E085E795E0FF90EF90DF90CF900C94DF
:102450007E25FF90EF90DF90CF9008950F931F930C
:102460000E944C4200912B0410912C0420912D04C9
:1024700030912E04601B710B820B930B653171053B
:102480008105910530F187EA95E00E94782585E77E
:1024900095E00E94782560919E0370919F03809142
:1024A000A0039091A1030E944A4C87EA95E00E9404
:1024B0007E2560917E0370917F03809180039091CF
:1024C00081030E944A4C85E795E01F910F910C947F
:1024D0007E251F910F910895CF93DF93C091120233
:1024E000D0911302662777276C1B7D0B882777FD19
:1024F0008095982F0E947D4C60939E0370939F035C
:102500008093A0039093A103BE01882777FD809557
:10251000982F0E947D4C60937E0370937F0380937D
:1025200080039093810381E090E09093D80480939E
:10253000D704DF91CF9192CF60E971E080910907D4
:1025400090910A070E9495370E944A4C7093DE04CE
:102550006093DD048AE30E940E43BC01882777FD67
:102560008095982F0E94FD498091DD049091DE04B2
:102570009C012B5031092D313105D8F46CE271E00A
:1025800080E090E00E94044A7093DC046093DB04D6
:102590006F3B71054CF080919104811105C081E081
:1025A000809392040C946D0581E0809391040C94C7
:1025B00083050A978CF46CE271E080E090E00E9461
:1025C000044A7093DC046093DB046F3B710514F0E4
:1025D0000C943B050C9454051092920410929104B3
:1025E0007BCFCF93DF93C0911202D0911302BE0133
:1025F000882777FD8095982F0E947D4C60939E03DD
:1026000070939F038093A0039093A103662777277D
:102610006C1B7D0B882777FD8095982F0E947D4C41
:1026200060937E0370937F03809380039093810374
:1026300082E090E09093D8048093D704DF91CF910B
:102640000DCF8091C8069091C9060E94D22A809130
:10265000C8069091C9060E94CD2A8093D304843481
:1026600029F08091D604833009F0A6C08091D70468
:102670009091D804019709F42FDF8091D3048C3115
:1026800009F45BC0C0F48C3009F477C050F4883092
:1026900009F459C0893071F1873009F08DC00C946C
:1026A0006D05883109F462C0893119F1863109F06C
:1026B00083C00C949F058A34F9F048F4823411F1F8
:1026C000843409F45FC0803409F076C005CF8A35C0
:1026D00071F18E3509F440C0823509F06DC08091EA
:1026E0000E0290910F02A3E0880F991FAA95E1F7BF
:1026F00013C077CF0C94830520910E0230910F0206
:1027000049E005C020910E0230910F0247E0429F40
:10271000C001439F900D11242091100230911102AD
:10272000820F931F909313028093120208952091B9
:102730000E0230910F0246E0EACF20910E02309156
:102740000F0245E0E4CF80910E0290910F02880FB6
:10275000991F880F991FE0CF20910E0230910F0230
:10276000C901880F991F820F931FD6CF80910E0247
:1027700090910F02880F991FCFCF80910E029091F8
:102780000F02CACF0E949F058091C8069091C9068A
:102790000E94B32A882339F08091C8069091C90617
:1027A0000E94D22AF1CF8091D6048F5F8093D60405
:1027B000843011F41092D60408950F931F93CF9391
:1027C000DF9365E070E080E090E00E947B4260E093
:1027D00070E087EA95E00E947E2560E070E085E782
:1027E00095E00E947E2587EA95E00E94442543E01B
:1027F00050E06FE873E00E94094085E795E00E9491
:10280000442543E050E06FE973E00E94094040E056
:1028100050E0BA0187EA95E00E94502540E050E080
:10282000BA0185E795E00E94502510929E03109210
:102830009F031092A0031092A10310927E031092A6
:102840007F0310928003109281036CE28BE097E08B
:102850000E94BD3161E070E080E090E00E947B4228
:1028600020E040E060E08BE097E00E945D328BE08A
:1028700097E00E94893244D964E670E080E090E0FD
:102880000E947B4226E040E052EC61E070E08EE87E
:102890009AE00E941B4664EF71E080E090E00E94A5
:1028A0007B4204E610E020E030E044EF51E06DE2CE
:1028B00070E08CEE95E00E946D1F64E670E080E0B1
:1028C00090E00E947B426DE270E08CEE95E00E9409
:1028D000D41F64EF71E080E090E00E947B42109290
:1028E00092041092910480E00E940E43BC0188275C
:1028F00077FD8095982F0E94FD4985E896E00E941B
:10290000382980910A0290910B02A0910C02B0919B
:102910000D028093FE039093FF03A0930004B093F5
:10292000010480E090E0A0E2B1E48093F203909390
:10293000F303A093F403B093F5031092F6031092FF
:10294000F7031092F8031092F9038DEC9CECACECB9
:10295000BEEB8093FA039093FB03A093FC03B09328
:10296000FD038AE999E9A9E9BEEB8093D20390932C
:10297000D303A093D403B093D5038FE692E1A3E0F1
:10298000BDEB8093D6039093D703A093D803B09365
:10299000D9030E94B7048091D604813069F485E0A0
:1029A00090E00E94FC47EC0168E00E945237D0930F
:1029B0000A07C093090711C0833079F48BE790E0D0
:1029C0000E94FC47EC0166E00E948F2AD093C90662
:1029D000C093C806CE010E94A42A62EB72E08EE882
:1029E0009AE00E944C486BE874E08EE89AE00E94FE
:1029F00057480E944C4260932F0470933004809398
:102A000031049093320460932B0470932C048093D0
:102A10002D0490932E0460933304709334048093B8
:102A2000350490933604DF91CF911F910F91089553
:102A3000CF93DF93C1E3D7E0CE010E941E392396E6
:102A400087E0C934D807C1F78BE297E00E94DE2403
:102A500088E197E00E94D2368BE097E00E94053231
:102A60008FEF96E00E944E1D8BEF96E00E94DF30C4
:102A70008AEC96E00E94262C85E896E00E94CF25FD
:102A80008EE596E00E94DF1F8AE596E00E94AF2B5C
:102A900080EF95E00E94B83385E296E00E94B8335B
:102AA0008CEE95E00E94671F85EE95E00E94B429A8
:102AB0008FED95E00E94A52589ED95E00E94BA254D
:102AC00061E087EA95E00E94102562E085E795E0E5
:102AD0000E94102569E08DEF94E00E94A8326CEB13
:102AE00072E08BE894E00E94D24A69E68CE794E0B9
:102AF000DF91CF9135C78BE894E00E946B4A88EF55
:102B000092E09093FE048093FD048BE695E00E9492
:102B10006B4A8DEF94E00E94CE3E8BE097E00C94E0
:102B20009C32682F8EE89AE00C94B7458FEFF9DF5E
:102B300085E5F7CF8FEFF5DF85E5F3DF0C94B00582
:102B4000CF93C82F81E0EDDF8C2FCF91EACFEF92AA
:102B5000FF920F931F93CF93DF937C01FC01C481FD
:102B60000C2F158184E0DDDF8C2FDBDFC0E0D0E0AF
:102B7000C017D1073CF4BE01C7010E94154BD1DF3D
:102B80002196F6CFDF91CF911F910F91FF90EF909B
:102B90000895FF920F931F93CF93DF931F92CDB7AA
:102BA000DEB78B01F82E82E09983BBDFA8016F2D81
:102BB0009981792F4093F9045093FA046093FB04B0
:102BC0007093FC04802FADDF8091FA04AADF80911E
:102BD000FB04A7DF8091FC040F90DF91CF911F9140
:102BE0000F91FF909ECF1F93CF93DF9300D0CDB76F
:102BF000DEB7182F86E069837A839B8392DF698131
:102C00006093F9047A817093FA041093FB049B811A
:102C10009093FC04862F85DF8091FA0482DF8091F7
:102C2000FB047FDF8091FC040F900F900F90DF91E9
:102C3000CF911F9176CF1F93CF93DF931F92CDB784
:102C4000DEB7182F83E099836CDF1093EF0499812E
:102C50009093F004812F65DF8091F0040F90DF9155
:102C6000CF911F915ECFFF920F931F93CF93DF936E
:102C70001F92CDB7DEB78B01F82E85E0998351DF27
:102C8000A8016F2D9981792F4093F1045093F2049C
:102C90006093F3047093F404802F43DF8091F20477
:102CA00040DF8091F3043DDF8091F4040F90DF91C9
:102CB000CF911F910F91FF9034CFFF920F931F93ED
:102CC000CF93DF93CDB7DEB727970FB6F894DEBF6B
:102CD0000FBECDBFF090A3048E33910508F0D0C293
:102CE000FC01EE58FF4F0C940E5080910907909113
:102CF0000A07009781F00E94F83090E02F2D3327CB
:102D000027FD30958217930791F0809109079091E4
:102D10000A070E94FE4785E090E00E94FC478C0174
:102D20006F2D0E94523710930A070093090760E93C
:102D300071E08091090790910A070E94953790C22F
:102D40001091A40488E197E00E94F83090E02F2DC4
:102D5000332727FD30958217930709F083C288E156
:102D600097E00E94FB3090E0212F332727FD30951C
:102D70008217930709F076C288E197E00E94EC364B
:102D80006FC28BEF96E00E94F83090E02F2D332732
:102D900027FD30958217930761F06F2D8BEF96E03A
:102DA0000E944C318BEF96E00E94723160E00E94ED
:102DB0004B448BEF96E00E94443118C01091A4045C
:102DC0008AE596E00E94F83090E02F2D332727FD0A
:102DD00030958217930729F06F2D8AE596E00E94BF
:102DE0004C31612F8AE596E00E94B12BBC01882707
:102DF00077FD8095982F0E947D4C32C28091C80645
:102E00009091C906009711F14F960E94F83090E01A
:102E10002F2D332727FD30958217930731F100912D
:102E2000C8061091C9060115110581F088EF92E0DE
:102E3000F80191838083C80182599F4F0E946B4A99
:102E4000C8010E94CE3EC8010E94FE478BE790E079
:102E50000E94FC478C016F2D0E948F2A1093C90697
:102E60000093C806C8010E94A42A8091C8069091C8
:102E7000C9060E94CD2A682F8093D3048FEF860F56
:102E80008E3F10F160E070E0CB01EAC18BEF96E07D
:102E90000E94F83090E02F2D332727FD30958217C0
:102EA000930761F06F2D8BEF96E00E944C318BEF12
:102EB00096E00E94723160E00E944B4460E08BEF2C
:102EC00096E00E940F31682F70E080E090E00E9451
:102ED0007B4CC6C18BEF96E00E94F83090E02F2D1E
:102EE000332727FD30958217930799F06F2D8BEFCD
:102EF00096E00E944C318BEF96E00E946F3160E0CB
:102F00000E944B448BEF96E00E94723160E00E9479
:102F10004B4460E08BEF96E00E94FE30182F60E09B
:102F20008BEF96E00E940F31612F70E0660F771FE4
:102F3000680F711D882777FD8095982F5CCF1091C1
:102F4000A4048BEF96E00E94F83090E02F2D3327F9
:102F500027FD30958217930709F08BC18BEF96E020
:102F60000E94FB3090E0212F332727FD30958217F8
:102F7000930709F07EC18BEF96E0113059F40E945F
:102F80006F3162E00E944B4460E08BEF96E00E945C
:102F9000FE3099CF0E94723162E08ECF8EE596E0CE
:102FA0000E94F83090E02F2D332727FD30958217AF
:102FB0009307A9F06F2D8EE596E00E944C318EE5C7
:102FC00096E00E947231482F8EE596E04F830E9472
:102FD0006F314F81682F8EE596E00E94C6238EE503
:102FE00096E00E94CE233FDE4BC11091A40485EEF3
:102FF00095E00E94F83090E02F2D332727FD309583
:103000008217930729F06F2D85EE95E00E944C31D1
:1030100085EE95E00E94B629612F85EE95E00E942D
:10302000882A8EDD2DC18FED95E00E94F83090E06A
:103030002F2D332727FD309582179307A9F06F2D89
:103040008FED95E00E944C318FED95E00E946F313D
:10305000482F8FED95E04F830E9472314F81682F8A
:103060008FED95E00E94A8258FED95E00E94B82590
:1030700095C089ED95E00E94F83090E02F2D332720
:1030800027FD309582179307A9F06F2D89ED95E004
:103090000E944C3189ED95E00E946F31482F89EDF7
:1030A00095E04F830E9472314F81682F89ED95E042
:1030B0000E94BD2589ED95E00E94CD256FC06091ED
:1030C000A404F1100BC085E896E06F830E944826A7
:1030D0006F8185E896E00E94DC25C2C0F1E0FF1216
:1030E000CFC070E06130710549F460916304709164
:1030F00064048091650490916604B2C062307105E9
:1031000049F460915F047091600480916104909132
:103110006204A6C06330710509F0B2C060915B041F
:1031200070915C0480915D0490915E0499C06BE89D
:1031300074E0CE0101960E94FC4ACE01019607DDA3
:10314000CE0101960E946B4A9BC060E08F2D0E94C9
:103150004B448F2D0E94B94449CEEF2DEE0FFF0B4B
:10316000EC5EFD4F108160E0812F0E944B44812F67
:103170000E940E433BCE87E090E00E94B4058C0194
:1031800060E08F2D0E944B449801442737FD409505
:10319000542F61E08F2D0E94E144CB014CDD70C0C3
:1031A0001091A40461E08F2D0E944B4460E08F2DAC
:1031B0000E94844482E090E00E94A14261E08F2D51
:1031C0000E9484448AE090E00E94A14260E08F2D3A
:1031D0000E94844460E0812F0E944B4420E335E745
:1031E00040E050E061E0812F0E94E1440E947B4C6E
:1031F00020E030E048E652E40E94E24B31C06091AA
:10320000950470919604809197049091980428C039
:10321000F11036C09091A4048091A504913051F42E
:10322000813019F487EA95E00BC0823049F587EACE
:1032300095E00EC0923021F5813031F485E795E0BC
:103240000E944A25D0DC1CC08230D1F485E795E08D
:103250000E94782505C080E7F81212C00E945A0A21
:1032600098DC0EC0412F6F2D88E197E00E94DB367D
:1032700083CD412F6F2D8BEF96E00E945C317BCE8A
:1032800027960FB6F894DEBF0FBECDBFDF91CF916A
:103290001F910F91FF9008950F931F93CF93DF938A
:1032A0001F92CDB7DEB7109294048091A0040091D4
:1032B000A20410E09091A1049230B9F080F4913012
:1032C00009F073C0898332DC89812BDCC801F5DC0D
:1032D0000F90DF91CF911F910F910C94B005943016
:1032E00041F0953009F45BC060C0C8010E9423061C
:1032F00056C060E070E087EA95E00E947E2560E0BD
:1033000070E085E795E00E947E2540E050E0BA013C
:1033100087EA95E00E94502540E050E0BA0185E739
:1033200095E00E94502510929E0310929F031092E8
:10333000A0031092A10310927E0310927F031092BB
:1033400080031092810369E08BE297E00E944C3188
:1033500060E070E08BE297E00E94E1246AE08BE29B
:1033600097E00E944C3160E070E08BE297E00E94B1
:10337000E12461E08BE297E00E944C3160E070E074
:103380008BE297E00E94E12462E08BE297E00E94EA
:103390004C3160E070E08BE297E00E94E1240F90F6
:1033A000DF91CF911F910F91C5CB0F90DF91CF91FE
:1033B0001F910F910895109293048EE89AE00E9455
:1033C0000D45181619064CF481E0809393048EE89D
:1033D0009AE00E9426458093D10408954F925F920F
:1033E0006F927F928F929F92AF92BF92CF92DF9215
:1033F000EF92FF920E944C420E947B4C20E030E012
:103400004AE754E40E94E24B2091990430919A04D7
:1034100040919B0450919C040E94174B609395042B
:103420007093960480939704909398048091C806B3
:103430009091C906892B09F004D980EF95E00E948C
:10344000B13685E296E00E94B136B5DF0E945A0A95
:1034500080919304882309F445C08091D104909110
:103460009404853561F491110AC08091D2048F3F94
:10347000E1F481E08093D5048093940416C0809396
:10348000D204992391F0E091D504E23019F48093AD
:10349000D40407C0E33028F09091D4049150909365
:1034A000D404F0E0E356FB4F80838091D5048F5F16
:1034B000843318F48093D50404C01092D50410927C
:1034C000940480919404882369F08091D40481113C
:1034D00009C08091D504843028F010929404DCDE79
:1034E0001092D5040E94D80E0E944C42C090330422
:1034F000D0903404E0903504F09036046C197D09C6
:103500008E099F09653171058105910508F48AC00E
:103510000E944C4220913304309134043B01621AE2
:10352000730A87EA95E00E944A254B015C0185E712
:1035300095E00E944A256B017C0188EE93E0B3017F
:103540000E94A94F80E090E00E947B4C2B013C013F
:103550008091270490912804A0912904B0912A0415
:10356000A5019401281B390B4A0B5B0BCA01B90159
:103570000E947D4C26E636EA42EB53E40E94E24B81
:10358000A30192010E94F54D20E030E040E752E4B3
:103590000E94F54DAB01BC0187EA95E00E947225BF
:1035A0008091230490912404A0912504B0912604D5
:1035B000A7019601281B390B4A0B5B0BCA01B90105
:1035C0000E947D4C26E636EA42EB53E40E94E24B31
:1035D000A30192010E94F54D20E030E040E752E463
:1035E0000E94F54DAB01BC0185E795E00E94722574
:1035F0008092270490922804A0922904B0922A0471
:10360000C0922304D0922404E0922504F092260470
:103610000E944C42609333047093340480933504C9
:10362000909336048091D604811102C00E942E121C
:103630008091D604813011F40E949C128091D604AE
:10364000823071F4FF90EF90DF90CF90BF90AF90F9
:103650009F908F907F906F905F904F900C949D11F2
:10366000FF90EF90DF90CF90BF90AF909F908F90A2
:103670007F906F905F904F900895EF92FF920F931D
:103680001F93CF93DF931F921F92CDB7DEB7062F04
:10369000142F682F81E799E029833A830E94313BF8
:1036A000602F81E799E00E94DC3A2981022FE22E07
:1036B0003A81F32E8E2D801B811740F4F701619122
:1036C0007F0181E799E00E94DC3AF4CF81E799E03D
:1036D0000E944E3B91E0811190E0892F0F900F9056
:1036E000DF91CF911F910F91FF90EF900895CF93AD
:1036F000DF931F92CDB7DEB749839E012F5F3F4F07
:1037000041E0BBDF0F90DF91CF9108953F924F9240
:103710005F926F927F928F929F92AF92BF92CF9261
:10372000DF92EF92FF920F931F93CF93DF9300D01E
:1037300000D0CDB7DEB7682E562E742E3A8329837B
:103740000E944C426B017C01312C412C872D90E072
:103750009C838B834801A12CB12C3714B0F5662DC6
:1037600081E799E00E94313B652D81E799E00E9455
:10377000DC3A81E799E00E944E3B662D81E799E0B3
:103780000E94313B4B815C81431951094132510503
:1037900014F040E250E0662D81E799E00E942F3B53
:1037A00081E799E00E94853A892B59F101151105AD
:1037B00079F10E944C426C197D098E099F096815A8
:1037C00079058A059B0520F11CC00115110589F1B9
:1037D0000E944C426C197D098E099F0920E030E05F
:1037E000601771078207930720F1872D90E0242D41
:1037F000332727FD309528173907DCF444244A94F1
:1038000018C0872D90E2971508F480E2380EA5CFF6
:10381000E981FA81E40DF11D47FCFA95FE83ED8301
:1038200081E799E00E948D3AED81FE818083439487
:10383000B7CF842D26960FB6F894DEBF0FBECDBF4E
:10384000DF91CF911F910F91FF90EF90DF90CF907C
:10385000BF90AF909F908F907F906F905F904F90B0
:103860003F9008950F931F9389019A0141E04EDF25
:103870001F910F910895EF92FF920F931F93CF9393
:10388000DF931F92CDB7DEB7182F062FF42EE22E4E
:103890002091520230915302AE014F5F5F4FE2DF41
:1038A000898121E030E00F2C01C0220F0A94EAF751
:1038B000EE2019F0482F422B03C0422F4095482399
:1038C0004983602F812F13DF0F90DF91CF911F91DC
:1038D0000F91FF90EF900895DF92EF92FF920F9378
:1038E0001F93CF93DF931F92CDB7DEB7F82EE62E4E
:1038F000D42E122F2091520230915302AE014F5F0D
:103900005F4FB0DF882311F14D2D50E0411B51096D
:103910004F5F5F4FE1E0F0E002C0EE0FFF1F1A952E
:10392000E2F73197042E01C0EE0F0A94EAF701C0C6
:10393000000F4A95EAF74E2F409589814823E023EE
:103940004E2B49836E2D8F2DD2DE01C080E00F906B
:10395000DF91CF911F910F91FF90EF90DF9008952D
:10396000FC01608308950F93062F22E044E06BE191
:10397000FC018081B1DF0F9108950F93062F22E0A3
:1039800044E06CE1FC018081A7DF0F9108954F9224
:103990005F926F927F928F929F92AF92BF92CF92DF
:1039A000DF92EF92FF920F931F93CF93DF93EC017F
:1039B0005B013A0149012801009152021091530222
:1039C0009C012F5F3F4F4EE06BE388819FDE898132
:1039D00090E0982F88272A81822BF501918380839C
:1039E0008B8190E0982F88272C81822BF301918383
:1039F00080838D8190E0982F88272E81822BF4017F
:103A000091838083898590E0982F88272A85822B4F
:103A1000F201918380838B8590E0982F88272C85F5
:103A2000822BF701918380838D8590E0982F8827E2
:103A30002E85822BF60191838083DF91CF911F9198
:103A40000F91FF90EF90DF90CF90BF90AF909F903D
:103A50008F907F906F905F904F900895262F46E053
:103A60006BE6FC01808107CF0F93062F23E042E035
:103A70006BE6FC01808130DF0F910895CF93DF93D7
:103A8000EC0161E0F1DF60E0CE016DDF60E0CE01CE
:103A900074DF60E0CE01DF91CF91E0CF0C94DF3096
:103AA0000F931F93CF93DF93EC01062F18E060E094
:103AB00088850E94844400FF02C061E001C060E08C
:103AC00089850E948444069561E088850E9484442B
:103AD000115069F760E088850E94844461E089851F
:103AE0000E94844461E088850E94844460E0898566
:103AF0000E944B4418EC89850E94B944892B59F0E7
:103B00001150C9F761E089850E944B4460E08985C6
:103B10000E948444EFCF61E08985DF91CF911F91AE
:103B20000F910C944B44CF93DF93EC0161E08885B7
:103B30000E94844461E089850E94844460E0898514
:103B40000E94844460E08885DF91CF910C94844486
:103B5000CF93DF93EC0160E088850E94844460E0AD
:103B600089850E94844461E088850E94844461E0E4
:103B70008985DF91CF910C948444CF92DF92FF929C
:103B80000F931F93CF93DF931F92CDB7DEB76C01D6
:103B9000F62E7983C8DF60E4C60182DFC601D8DF74
:103BA000C601C1DFF6016581C6017ADF0F2D79817B
:103BB000172F84E0F82EF80161918F01C60170DFA4
:103BC000FA94C9F7C601C4DFC601ADDFF60166810C
:103BD000C60166DFC6010F90DF91CF911F910F9153
:103BE000FF90DF90CF90B4CF4F925F926F927F9211
:103BF0008F929F92AF92BF92CF92DF92EF92FF92FD
:103C00000F931F93CF93DF9300D01F92CDB7DEB7F2
:103C10006A017B01890137FD48C0B9016F5F7F4FA1
:103C2000882777FD8095982F0E947D4C9B01AC01E1
:103C300060E070E080E291E40E94584E4B015C012C
:103C40009B01AC01C701B6010E94E24B0E94B84C37
:103C50002B013C01B801882777FD8095982F0E94A1
:103C60007D4C9B01AC0160E070E080E291E40E9439
:103C7000584E69837A838B839C83A5019401C30189
:103C8000B2010E94F54D9B01AC01C701B6010E9433
:103C9000174B29813A814B815C810E94E24B0E9443
:103CA000B84C0E944A4CCB011FC088249924821A28
:103CB000930AA12CB12C20E030E040E251E4C7018E
:103CC000B6010E94F54D6B017C018FEFA81AB80A6E
:103CD000A814B90484F3C701B6010E944A4CCB0171
:103CE0006AE070E00E94BD4F0F900F900F900F9010
:103CF000DF91CF911F910F91FF90EF90DF90CF90C8
:103D0000BF90AF909F908F907F906F905F904F90FB
:103D10000895DB0180E090E22C91223208F09C9320
:103D2000EC91F0E0EA59FD4FE491ED938F5F843020
:103D300099F70895EF92FF920F931F93CF93DF931C
:103D400000D01F92CDB7DEB78C01DB01FE013196AA
:103D5000CE0105967F012D912193E817F907D9F738
:103D6000B701C801D6DFB701C80107DF0F900F9078
:103D70000F900F90DF91CF911F910F91FF90EF90D7
:103D80000895CF93DF9300D01F92CDB7DEB720E226
:103D900029832A832B832C83BE016F5F7F4FCADF69
:103DA0000F900F900F900F90DF91CF910895CF93C8
:103DB000DF93EC016A83E62FF0E0EE0FFF1FEC5C6F
:103DC000FD4F81818983908198838887998761E0FD
:103DD0000E944B4461E089850E944B4480E48C83BF
:103DE00080EC8D838AE88E83CE01DF91CF91C9CF9D
:103DF0008F929F92AF92BF92CF92DF92EF92FF92FB
:103E00000F931F93CF93DF9300D01F92CDB7DEB7F0
:103E10005C016A017B0119821A821B821C8220E0EC
:103E200030E0A901C701B6010E94DE4B87FF09C03F
:103E3000F7FAF094F7F8F09481E289839924939447
:103E400001C0912C03E010E0812C9801B701A6017C
:103E5000C501CADE181619062CF0002319F08820B7
:103E6000B9F00CC001110AC0E1E0F0E0EC0FFD1F59
:103E7000E90DF11D20E1280F208307C0E1E0F0E00B
:103E8000EC0FFD1FE90DF11D80839394882483942A
:103E900083E0891530F0015011090C3F8FEF1807AE
:103EA000A1F6BE016F5F7F4FC50144DF0F900F90F9
:103EB0000F900F90DF91CF911F910F91FF90EF9096
:103EC000DF90CF90BF90AF909F908F9008950E9409
:103ED000DF3088E08093490708954F925F926F9298
:103EE0007F928F929F92AF92BF92CF92DF92EF928A
:103EF000FF920F931F93CF93DF93762E6801790182
:103F0000609349079A0140E050E060E472E48FE07A
:103F100090E00E94F24FE901590137FF03C08FEF93
:103F2000A81AB80A85011595079561E0872D0E94AA
:103F30004B44A8EEB3E0A70196010E9423502B0149
:103F40003C01C12CD12C76014E01AA2497FCA094EF
:103F5000BA2CC414D504E604F704A8F461E08091F7
:103F600049070E948444C8010E94A14260E08091F8
:103F700049070E948444C8010E94A142C80CD91C70
:103F8000EA1CFB1CE6CFDF91CF911F910F91FF90B0
:103F9000EF90DF90CF90BF90AF909F908F907F90E9
:103FA0006F905F904F900895862F6093490761E06E
:103FB0000E944B4460E0809149070C948444CF9365
:103FC000DF93EC0160E00E94E8308EE18B871C8279
:103FD000DF91CF910895AF92BF92CF92DF92EF928F
:103FE000FF920F931F93CF93DF93CDB7DEB76A97FE
:103FF0000FB6F894DEBF0FBECDBF8C01CE01019687
:104000007C01C12CD12C5C01C6010E94CF52F7016A
:1040100081937F01FFEFCF1ADF0A8AE1C816D1042E
:1040200099F72D813E814F81588569817A818B81F5
:104030009C810E94184B29853A854B855C850E949E
:10404000184B2D853E854F8558890E94184B29892C
:104050003A894B895C890E94184B2D893E894F898A
:10406000588D0E94184B6B017C01698D70E080E0D7
:1040700090E00E947D4C9B01AC01C701B6010E94FB
:10408000184B20E030E04AE253E40E94184B0E94B3
:104090004F4C8A8D68130CC08AE1F501D8011D963A
:1040A00001900D928A95E1F781E0F801848302C0C6
:1040B000F80114826A960FB6F894DEBF0FBECDBF2A
:1040C000DF91CF911F910F91FF90EF90DF90CF90F4
:1040D000BF90AF900895CF92DF92EF92FF920F932F
:1040E0001F93CF93DF938C01EB012C813D814E8197
:1040F0005F81688179818A819B810E94184B288524
:1041000039854A855B850E94184B2C853D854E85F7
:104110005F850E94184B288939894A895B890E94EA
:10412000184B2C893D894E895F890E94184B6B0181
:104130007C01688D70E080E090E00E947D4C9B01E6
:10414000AC01C701B6010E94184B20E030E04AE202
:1041500053E40E94184B0E944F4C698FE12CF12CC4
:104160006991C7010E94D7528FEFE81AF80AEAE175
:10417000EE16F104A9F781E0F8018483DF91CF9175
:104180001F910F91FF90EF90DF90CF900895EF92E5
:10419000FF921F93CF93DF931F92CDB7DEB7162FF9
:1041A0007A01FC01638581E799E029830E94313B14
:1041B000612F81E799E00E94DC3A2981813091F4F6
:1041C000422F50E0B70181E799E00E94B03A61E0E8
:1041D00081E799E00F90DF91CF911F91FF90EF90D1
:1041E0000C943C3B8FEF0F90DF91CF911F91FF908C
:1041F000EF900895CF93DF931F92CDB7DEB7498339
:1042000021E0AE014F5F5F4FC2DF0F90DF91CF9192
:104210000895EF92FF920F931F93CF93DF93EC01DA
:10422000F62E8A01E22E6B8581E799E00E94313BF0
:104230006F2D81E799E00E94DC3A813001F560E062
:1042400081E799E00E943C3B81112EC081E090E023
:104250000E94A14221E04E2D6B8581E799E00E94EA
:10426000233BE80100E010E0F12C81E799E00E9497
:10427000853A892B31F00E151F0574F002C08FEFBF
:1042800013C081E090E00E94A14281E00E151F055D
:1042900009F480E0819508C00F5F1F4F81E799E026
:1042A0000E948D3A8993E1CFDF91CF911F910F91B9
:1042B000FF90EF900895CF93DF93EC01AC014B5F3B
:1042C0005F4F23E06AE0A5DF81110AC08D81883449
:1042D00039F48E81843321F481E09F81933309F096
:1042E00080E0DF91CF910895CF92DF92EF92FF921D
:1042F0000F931F93CF93DF93EC016B018A01790138
:104300003BD0AE014B5F5F4F26E063E0CE0181DF23
:10431000882321F0992787FD909525C08C858130D1
:1043200029F441E062E070E0CE0164DF8D8190E02D
:10433000982F88272E81822BF6019183808389858F
:1043400090E0982F88272A85822BF801918380831B
:104350008F8190E0982F88272885822BF701918301
:10436000808380E090E0DF91CF911F910F91FF90CB
:10437000EF90DF90CF9008952F923F924F925F92EF
:104380006F927F928F929F92AF92BF92CF92DF9265
:10439000EF92FF920F931F93CF93DF93CDB7DEB7CA
:1043A0006C970FB6F894DEBF0FBECDBF8C0162E0F4
:1043B0000E94FE308111AFC16AE070E080E090E0C1
:1043C0000E947B4262E0C8010E94FE308111A3C1BD
:1043D000C80171DF882309F49EC10E944C426B0121
:1043E0007C01712CBB24B39462E0C8010E94FE30B2
:1043F000811115C00E944C426C197D098E099F09DC
:10440000693C71058105910578F30E944C426B016E
:104410007C017B24672DC8010E943031E5CF64E622
:1044200070E080E090E00E947B420E944C424B0191
:104430005C012FEF3FE7388B2F8740E050E85E8725
:104440004D878FEF9FE79C878B87E0E0F0E8FA8746
:10445000E98738872F83212C50E8352E6624639412
:104460000E944C426C197D098E099F09693C7105B7
:104470008105910548F00E944C426B017C01762435
:10448000672DC8010E9430310E944C426819790999
:104490008A099B096B30710581059105D8F19E0150
:1044A0002F5F3F4FAE014D5F5F4FBE016B5F7F4F90
:1044B000C8011ADF8D819E814F8158858417950729
:1044C0002CF02816390624F41C0102C098878F832B
:1044D0008B819C81EB85FC858E179F0744F0298595
:1044E0003A85281739072CF49A87898702C09C8758
:1044F0008B8789819A814F8558898417950744F065
:10450000ED85FE85E817F9072CF49E878D8702C09C
:10451000988B8F8762E0C8010E94FE308111A0CF86
:1045200060E0C8010E943031B101882777FD809595
:10453000982F0E947D4C6B017C012F813885B90139
:10454000882777FD8095982F0E947D4C698B7A8B08
:104550008B8B9C8B9B01AC01C701B6010E94184B51
:10456000905820E030E040E05FE30E94F54DF80114
:10457000658776878787908B29853A85B901882753
:1045800077FD8095982F0E947D4C2B013C014B8537
:104590005C85BA01882777FD8095982F0E947D4C15
:1045A0006D8B7E8B8F8B988F9B01AC01C301B20109
:1045B0000E94184B905820E030E040E05FE30E94FA
:1045C000F54DF801618B728B838B948B2D853E8525
:1045D000B901882777FD8095982F0E947D4C4B016B
:1045E0005C014F855889BA01882777FD8095982FFF
:1045F0000E947D4C698F7A8F8B8F9C8F9B01AC01C1
:10460000C501B4010E94184B905820E030E040E012
:104610005FE30E94F54DF801658B768B878B908F59
:1046200080E090E0A0E8BFE3818F928FA38FB48FEA
:1046300029893A894B895C89C701B6010E94174BC9
:104640006B017C012D893E894F89588DC301B201D0
:104650000E94174BA70196010E94E24BF801658F5B
:10466000768F878F90A3298D3A8D4B8D5C8DC501F8
:10467000B4010E94174BA70196010E94E24BF8017A
:1046800061A372A383A394A32F813885221A330ACE
:1046900037FE03C031942194310889859A854B8572
:1046A0005C85841B950B97FF03C0919581959109BB
:1046B0002D853E85EF85F8892E1B3F0B37FF03C004
:1046C000319521953109821593052CF0221533057A
:1046D00014F081E009C0281639062CF02817390794
:1046E00014F082E001C083E0F80185A3B801635FA4
:1046F0007F4FC801F0DC61E0C8010E94303162E008
:10470000C8010E94FE308823D1F364E670E080E0A7
:1047100090E00E947B426C960FB6F894DEBF0FBE0D
:10472000CDBFDF91CF911F910F91FF90EF90DF9060
:10473000CF90BF90AF909F908F907F906F905F9041
:104740004F903F902F900895CF93DF93EC0181E736
:1047500099E00E941A3B61E0CE010E94303140E7AF
:1047600060E070E0CE0146DD40E261E070E0CE0145
:1047700041DD81E08C8741E062E070E0CE013ADD0E
:10478000CE0129DCCE01DF91CF91F6CD60934B07AE
:1047900040934A07FC0160834183D6CF2F923F921A
:1047A0004F925F926F927F928F929F92AF92BF9241
:1047B000CF92DF92EF92FF920F931F93CF93DF93ED
:1047C000CDB7DEB762970FB6F894DEBF0FBECDBF90
:1047D0008C01D2DD9E012F5F3F4FAE014D5F5F4FD9
:1047E000BE016B5F7F4FC8017FDD882349F0682FD2
:1047F000772767FD7095872F972F0E947D4CC5C046
:10480000F80184812D803E802B813C8138872F8365
:10481000882309F478C04584568467847088818C25
:10482000928CA38CB48CB901882777FD8095982F42
:104830000E947D4CF80121893289438954890E9464
:10484000184BF801258D368D478D50A10E94F54DEE
:104850000E944A4C6F83788789879A8769817A8119
:10486000882777FD8095982F0E947D4CF801258937
:1048700036894789508D0E94184BF80121A132A139
:1048800043A154A10E94F54D0E944A4C6B877C873E
:104890008D879E87F80115A1113041F42B853C8549
:1048A000B901882777FD8095982F32C0B1018827FC
:1048B00077FD8095982F0E947D4CA30192010E9464
:1048C000184BA50194010E94F54D0E944A4C4B01E2
:1048D0005C01123089F42B853C85B901882777FD6E
:1048E0008095982F0E947D4C9B01AC01B4018827D4
:1048F00077FD8095982F17C0133019F5882777FD1D
:104900008095982F05C0B101882777FD8095982F55
:104910000E947D4C9B01AC01EF81F885BF01882787
:1049200077FD8095982F2F87388B498B5A8B0E9463
:104930007D4C2F85388949895A890E948B4B6B01A0
:104940007C0120E030E0A901C701B6010E94DE4BE6
:1049500087FF0DC02BED3FE049EC50E4C701B601E5
:104960000E94184B20E030E044E353E406C020E00E
:1049700030E044E353E4C701B6010E94F54D2BED4E
:104980003FE049E450E40E94E24B62960FB6F8948F
:10499000DEBF0FBECDBFDF91CF911F910F91FF9072
:1049A000EF90DF90CF90BF90AF909F908F907F90CF
:1049B0006F905F904F903F902F90089560E00C941F
:1049C000E8300F931F93CF93DF938C016F3F7105F6
:1049D00019F014F06FEF70E0EB0161308FEF7807A2
:1049E00014F4C1E0DFEFD7FD06C061E0C8010E940A
:1049F0003031BE0108C060E0C8010E943031662736
:104A000077276C1B7D0BC801DF91CF911F910F9110
:104A10000C9448318CE497E07DC48CE497E0A3C407
:104A20001F93CF93DF93EC0115E0169FF001112443
:104A3000EC5AFD4F80818CA791819DA792819EA702
:104A400093819FA7948198AB62E00E944B4462E0FF
:104A50008DA50E944B4462E08FA50E944B4462E00A
:104A600088A90E944B441C8A1D8A1E8A1F8A8CA515
:104A7000833119F484E089AB03C0823109F419ABA6
:104A8000DF91CF911F910895FC0181A90895FC0148
:104A900085A50895FC01648975898689978908959B
:104AA000FC01448B558B668B778B0895FC01448900
:104AB0005589668977894F5F5F4F6F4F7F4F448B72
:104AC000558B668B778B0895FC01448955896689DF
:104AD00077894150510961097109448B558B668B67
:104AE000778B0895FC01408751876287738708950B
:104AF000FC01608571858285938508950F931F93CE
:104B0000CF93DF93EC018B017B836A8377FF0DC02A
:104B100060E08FA50E94844461E088A90E948444DB
:104B200066277727601B710B09C061E08FA50E9483
:104B3000844460E088A90E948444B8018EA5DF9176
:104B4000CF911F910F910C94334360E00C94E830A7
:104B5000CF93DF93EC016C834D838C8160E00E94E6
:104B60004B448D8188838C818983DF91CF91089517
:104B70000C94403160E00C94E830CF93DF93EC016B
:104B80006C834D838C8160E00E944B448D818883CF
:104B90008C818983DF91CF9108950C944031CF931C
:104BA000DF93EC0160E00E94E830CE5BDF4F88E6E7
:104BB0008883DF91CF910895FC01613029F432851B
:104BC0002385948585850DC0623029F43685278537
:104BD0009089818906C0633029F4328923899489B8
:104BE0008589AC01632F722F852F942F0895EF9242
:104BF000FF920F931F93CF93DF93C62F8A01E22E6C
:104C000068E681E799E00E94313B6C2F81E799E0EB
:104C10000E94DC3A813001F560E081E799E00E9472
:104C20003C3B81112EC081E090E00E94A14221E036
:104C30004E2D68E681E799E00E94233BE80100E001
:104C400010E0F12C81E799E00E94853A892B31F040
:104C50000E151F0574F002C08FEF13C081E090E0C5
:104C60000E94A14281E00E151F0509F480E08195A4
:104C700008C00F5F1F4F81E799E00E948D3A89932A
:104C8000E1CFDF91CF911F910F91FF90EF900895A9
:104C90004F925F926F927F928F929F92AF92BF924C
:104CA000CF92DF92EF92FF920F931F93CF93DF93F8
:104CB000CDB7DEB72C970FB6F894DEBF0FBECDBFD1
:104CC0008C01AC014C5C5F4F2EE06BE390DF8111F7
:104CD000C8C1F801A4A8B12CBA2CAA2485A9A82A75
:104CE000B3A2A2A2E6A8F12CFE2CEE2487A9E82A02
:104CF000F5A2E4A280AC912C982C882481AD882A5E
:104D000097A286A2468057806084718464AD70E06B
:104D1000762F662785AD682B882777FD8095982F9D
:104D20000E947D4CF80120A531A542A553A50E9403
:104D3000174BA30192010E94E24BF801668B778B1F
:104D4000808F918F66AD70E0762F662787AD682BD8
:104D5000882777FD8095982F0E947D4CF80124A527
:104D600035A546A557A50E94174BA30192010E94A5
:104D7000E24BF801628F738F848F958FE05CFF4F59
:104D8000608170E0762F662731968081682B8827B6
:104D900077FD8095982F0E947D4CF80120A931A9BC
:104DA00042A953A90E94174BA30192010E94E24B12
:104DB000F801668F778F80A391A3B701882777FDCD
:104DC0008095982F0E947D4C6B017C01B40188274F
:104DD00077FD8095982F0E947D4C9B01AC010E942D
:104DE000F54D2B013C01A7019601C701B6010E94B8
:104DF000F54DA30192010E94184B0E94A84E9B0101
:104E0000AC01B501882777FD8095982F29873A87CF
:104E10004B875C870E947D4C4B015C0129853A855C
:104E20004B855C850E948B4B20E030E044E353E4EB
:104E30000E94F54D2AED3FE049E450E40E94E24B28
:104E400069837A838B839C83A5019401C501B40196
:104E50000E94F54DA30192010E94184B0E94A84E9A
:104E60009B01AC01C701B6010E948B4B20E030E0F2
:104E700044E353E40E94F54D2AED3FE049E450E459
:104E80000E94E24B6D837E838F8398870E944C4201
:104E9000C0906708D0906808E0906908F0906A08B0
:104EA0006C197D098E099F090E947B4C20E030E03F
:104EB0004AE754E40E94E24B6B017C010E944C42A1
:104EC00060936708709368088093690890936A08F4
:104ED000F80186A197A11816190644F5228D338D85
:104EE000448D558DC701B6010E94F54D9B01AC0163
:104EF000F80162857385848595850E94174BF801BA
:104F0000628773878487958726893789408D518D7D
:104F1000C701B6010E94F54D9B01AC01F801668501
:104F20007785808991890E94184B28C0F801228DCD
:104F3000338D448D558DC701B6010E94F54D9B01FF
:104F4000AC01F80162857385848595850E94184BB4
:104F5000F801628773878487958726893789408D12
:104F6000518DC701B6010E94F54D9B01AC01F801BE
:104F700066857785808991890E94174BF80166873D
:104F80007787808B918BF801268D378D40A151A1B9
:104F9000C701B6010E94F54D9B01AC01F801628981
:104FA0007389848995890E94184BF801628B738BF1
:104FB000848B958B20E030E040E05FE3C701B601D1
:104FC0000E94184B9B01AC0160E070E080E09FE321
:104FD0000E94E24B6B017C019B01AC0160E070E040
:104FE00080E89FE30E94174B4B015C01F80122858A
:104FF000338544855585C701B6010E94F54D2B01C7
:105000003C01A501940169817A818B819C810E9478
:10501000F54D9B01AC01C301B2010E94184BF80190
:10502000628773878487958726853785408951896C
:10503000C701B6010E94F54D6B017C01A5019401E9
:105040006D817E818F8198850E94F54D9B01AC0119
:10505000C701B6010E94184BF80166877787808BDD
:10506000918B2C960FB6F894DEBF0FBECDBFDF91AB
:10507000CF911F910F91FF90EF90DF90CF90BF9055
:10508000AF909F908F907F906F905F904F9008951A
:105090002F923F924F925F926F927F928F929F9248
:1050A000AF92BF92CF92DF92EF92FF920F931F9336
:1050B000CF93DF9300D01F92CDB7DEB71C0104EF72
:1050C00011E0812C912C5401412C512C3201198278
:1050D0001A821B821C827C0124E3E20EF11C26E072
:1050E000A70163E4C10183DDF10184A990E0982F59
:1050F000882725A9822BAA2797FDA095BA2F298159
:105100003A814B815C81280F391F4A1F5B1F29831D
:105110003A834B835C8386A990E0982F882727A940
:10512000822BAA2797FDA095BA2F480E591E6A1EFA
:105130007B1E80AD90E0982F882721AD822BAA2777
:1051400097FDA095BA2F880E991EAA1EBB1E01506E
:10515000110929F664EFC62EDD24D394E12CF12C3D
:1051600069817A818B819C81A70196010E94F24F0F
:10517000CA01B9010E947D4CF10160A771A782A705
:1051800093A7C301B201A70196010E94F24FCA0181
:10519000B9010E947D4CF10164A775A786A797A766
:1051A000C501B401A70196010E94F24FCA01B901DD
:1051B0000E947D4CF10160AB71AB82AB93AB0F9061
:1051C0000F900F900F90DF91CF911F910F91FF9053
:1051D000EF90DF90CF90BF90AF909F908F907F9097
:1051E0006F905F904F903F902F900895EF92FF92B5
:1051F0001F93CF93DF931F92CDB7DEB7162F7A019F
:1052000068E670E081E799E029830E943B3B612FCB
:1052100081E799E00E94DC3A2981813091F4422FA4
:1052200050E0B70181E799E00E94B03A61E081E780
:1052300099E00F90DF91CF911F91FF90EF900C9428
:105240003C3B8FEF0F90DF91CF911F91FF90EF903C
:105250000895CF93DF931F92CDB7DEB7498321E046
:10526000AE014F5F5F4FC2DF0F90DF91CF91089586
:10527000CF93DF93EC0140E050E063E872E44E83AB
:105280005F83688779871A861B861C861D861E8623
:105290001F86188A198A1A8A1B8A1C8A1D8A1E8AE6
:1052A0001F8A188E198E1A8E1B8E1C8E1D8E1E8EB6
:1052B0001F8E18A219A21BA21AA21DA21CA21FA215
:1052C0001EA218A619A61AA61BA61CA61DA61EA6D7
:1052D0001FA618AA19AA1AAA1BAA81E799E00E9478
:1052E0001A3B60E273E080E090E00E947B4240E085
:1052F0006BE670E0CE01ADDF41E06AE170E0CE0127
:10530000A8DF48E06BE170E0CE01A3DFCE01DF91C2
:10531000CF91BECE21E030E0FC0131832083EE5FEF
:10532000FE4F1082118212821382349610821182F3
:105330001282138234961082319610823196108236
:105340001182128213823496118210823296108258
:105350003196108211821282138234961082118249
:10536000128213820895089560E032C74F925F92CF
:105370006F927F928F929F92AF92BF92CF92DF9265
:10538000EF92FF920F931F93CF93DF9300D01F9262
:105390001F92CDB7DEB78C01CE0101966C0185E07E
:1053A000F60111928A95E9F760E0C80159D764E1E6
:1053B00070E080E090E00E947B4261E0C80150D73D
:1053C00088E290E00E94A14260E0C80149D70E94B3
:1053D0004C424B015C0160E0C80121D781110EC035
:1053E0000E944C42681979098A099B09633071054A
:1053F0008105910580F3F801148215820E944C42C8
:105400004B015C0160E0C8010AD7882359F00E9473
:105410004C42681979098A099B0963307105810535
:10542000910580F3E12CF12C0E944C424B015C0170
:1054300060E0C801F4D681110BC00E944C4268198B
:1054400079098A099B09633071058105910580F30B
:105450000E9458424B015C010E944C422B013C01CE
:1054600060E0C801DCD6882359F00E944C426419E0
:10547000750986099709633071058105910580F3E7
:105480000E945842681979098A099B09F70123E0AB
:10549000F595E7952A95E1F7693271058105910542
:1054A00030F0EC0DFD1D8081880F816004C0EC0D93
:1054B000FD1D8081880F8083FFEFEF1AFF0A88E2CD
:1054C000E816F10409F0B0CF59814B81842F90E0A8
:1054D000850F911D2D8130E08217930719F4F80193
:1054E000548345830F900F900F900F900F90DF9192
:1054F000CF911F910F91FF90EF90DF90CF90BF90D1
:10550000AF909F908F907F906F905F904F90089595
:10551000FC01611102C08481089585810895CF93B3
:10552000DF93EC010E94A8328AEC92E09983888391
:1055300088A1FE01E858FF4F80838F8DC758DF4F49
:105540008883DF91CF910895CF93DF93EC0140E8FA
:1055500055E260E070E00E94E33260E08F8DDF9101
:10556000CF910C944B441F93CF93DF93EC018BA10D
:10557000882319F0CE010E94113360E0CE014F96CE
:105580003DD6182F8BA1882311F0CE01DDDF81E0FD
:105590008127DF91CF911F91089586589F4FFC017D
:1055A00080810895CF93DF93EC01DDDF8823A1F0A4
:1055B000CE010E947D33181619068CF4E881F9811A
:1055C0000680F781E02DCE0119958F3F91053CF4BF
:1055D000C658DF4F888303C0C658DF4F1882DF915B
:1055E000CF9108950E946433992708951F920F92D6
:1055F0000FB60F9211240BB60F920F931F932F9398
:105600003F934F935F936F937F938F939F93AF934A
:10561000BF93CF93EF93FF9382E00E94B944C82FCA
:1056200020917108309172082F5F3F4F30937208BC
:10563000209371088091D708843618F085E0809314
:105640006C0890916C08933079F018F4923039F02E
:1056500070C0943011F1953009F44AC06AC0C1118C
:1056600068C01092D70829C0C13009F062C0E0912B
:10567000D70881E08E0F8093D708F0E08091710801
:1056800090917208E559F74F808710927208109236
:10569000710884E080936C084CC0C11114C0E09183
:1056A000D70881E08E0F8093D708F0E080917108D1
:1056B00090917208E559F74F808710927208109206
:1056C000710883E0E7CF8091710890917208853668
:1056D000910578F185E080936C080E944C426093BC
:1056E0006D0870936E0880936F089093700821C0C6
:1056F0000E944C4200916D0810916E0820916F0835
:1057000030917008601B710B820B930B693C710523
:105710008105910540F01092D708109272081092FE
:10572000710882E0B7CFC11104C0109272081092C4
:105730007108FF91EF91CF91BF91AF919F918F91A0
:105740007F916F915F914F913F912F911F910F9199
:105750000F900BBE0F900FBE0F901F90189560E03A
:1057600037C5613041F48CD58A5E91402091DA08CA
:105770003091DB0809C0623051F486D58A5E9140D1
:105780002091D8083091D908820F931F089580E0A6
:1057900090E00895CF92DF92EF92FF920F931F93C4
:1057A000CF93DF93EC01162FF42EE52ED22E106C42
:1057B00061E08C810E94844460E08D810E94844479
:1057C00008E060E08C810E948444612F61708D81CB
:1057D0000E94844461E08C810E94844416950150AB
:1057E00081F7CF2C0F2D1E2D802F8C198D15B0F425
:1057F000F801E1908F0188E0F82E60E08C810E9432
:1058000084446E2D60788D810E94844461E08C8197
:105810000E948444EE0CFA9481F7E6CF60E08C811C
:105820000E94844460E08D810E94844461E08C8108
:105830000E94844461E08D81DF91CF911F910F918F
:10584000FF90EF90DF90CF900C948444B8C40F93F6
:105850001F93CF93DF93EC01162F61E08C810E94A0
:10586000844460E08D810E94844408E060E08C8183
:105870000E948444612F61708D810E94844461E0A4
:105880008C810E9484441695015081F760E08C81E0
:105890000E94844460E08D810E94844461E08C8198
:1058A0000E94844461E08D81DF91CF911F910F911F
:1058B0000C94844420E030E0FC01E20FF31F1086DA
:1058C0002F5F3F4F20313105B9F721E0FC012683DE
:1058D0001782AC01485F5F4F20E160E05BCF693029
:1058E00018F4662321F001C068E0615068606068C8
:1058F000AECFCF93DF93EC01E62FF0E0EE0FFF1F6A
:10590000EC5CFD4F80818C8391819D836A8361E093
:105910000E944B4461E08D810E944B4461E08C8188
:105920000E94844461E08D810E94844460E4CE0141
:105930008EDF65E0CE01D3DFCE01DF91CF91BACF0C
:105940008F929F92AF92BF92CF92DF92EF92FF928F
:105950000F931F93CF93DF9360310CF084C04830D6
:105960000CF081C0222309F47EC0FC013681A42FF3
:10597000BB27A7FDB095E8E0F0E0EA1BFB0B5FEF6B
:1059800001C0550FEA95EAF74801C0E0D0E077275B
:1059900067FD70956C01C60ED71EAA24BB24AA1AF7
:1059A000BB0A332379F1C21778F58E01060F171F52
:1059B00017FD1AC07601EC0EFD1EF7013085352368
:1059C000F4010081141644F410E00A2E02C015956B
:1059D00007950A94E2F705C00A2C01C0000F0A944B
:1059E000EAF7032BF70100872196FFEF8F1A9F0A32
:1059F000DACF8E01060F171F17FF18C02196FFEF91
:105A00008F1A9F0AC217A8F3AC01485F5F4F20E1CD
:105A100060E0DF91CF911F910F91FF90EF90DF90A9
:105A2000CF90BF90AF909F908F90B4CE7601EC0E48
:105A3000FD1EF70130853523F401008110E000954B
:105A4000109514163CF40A2E02C0159507950A9479
:105A5000E2F705C00A2C01C0000F0A94EAF7032BF5
:105A6000F7010087CBCFDF91CF911F910F91FF906E
:105A7000EF90DF90CF90BF90AF909F908F90089560
:105A80008F929F92AF92BF92CF92DF92EF92FF924E
:105A90000F931F93CF93DF93EC01088D198D101690
:105AA00011060CF073C080E090E0F82E801791078B
:105AB00051F001968131910509F4E7C0FE01E80F2C
:105AC000F91F1782F2CF40E1841709F4DEC00B8D75
:105AD0001C8DE12C67E0D62E70E2C72E4E2D50E0D3
