:100000000C9426020C944E020C944E020C944E0258
:100010000C944E020C944E020C944E020C944E0220
:100020000C944E020C9401110C94222D0C94EE2B86
:100030000C944E020C944E020C944E020C944E0200
:100040000C944E020C943E0B0C944E020C944E02F7
:100050000C944E020C944E020C944E020C94E72326
:100060000C944E020C94F3280C9425290C944E0207
:100070000C944E020C944E020C944E020C944E02C0
:100080000C944E020C944E020C944E020C944E02B0
:100090000C94E10E0C944E020C944E020C944E0201
:1000A0000C944E020C944E020C944E025309A2077B
:1000B000B607D007D007E9073009D007250A250A77
:1000C000250A250A250A250A250A470802085B0889
:1000D000250A250A250A8C08F509C808E508070934
:1000E000250A250A250A250A62096A09250A250A18
:1000F000250A250A96097F09250A250A250A250ABF
:10010000250A250A250A250A250A250A250A250A77
:10011000C809D309402545254A2554255E25A8252B
:10012000A825A825682572257C2586259325A82540
:100130009B25C925CC25BB25BF25C525ED25ED254E
:10014000ED25D025D425D825DE25E225ED25E82589
:10015000084AD73B3BCE016E84BCBFFDC12F3D6C2E
:1001600074319ABD56833DDA3D00C77F11BED9E494
:10017000BB4C3E916BAAAABE000000803F08000065
:1001800000BE922449123EABAAAA2ABECDCCCC4CCA
:100190003E00000080BEABAAAAAA3E00000000BF3D
:1001A000000000803F0000000000084178D3BB43FE
:1001B00087D1133D190E3CC3BD4282AD2B3E68EC86
:1001C0008276BED98FE1A93E4C80EFFFBE01C4FF0D
:1001D0007F3F000000000007634236B79BD8A71A94
:1001E00039685618AEBAAB558C1D3CB7CC5763BDB9
:1001F0006DEDFD753EF6177231BF000000803F00C7
:100200003F065B4F666D7D077F6F777C395E797146
:10021000BF86DBCFE6EDFD87FFEFF7FCB9DEF9F136
:100220000040070605040100080A0B0C0D09000038
:10023000000200090F0000030401000C0000000090
:10024000000000000000000000000000040802019F
:10025000104080401020408040800802040180400F
:100260002010020110801020404004040404040304
:100270000405020202020403020202020606060646
:100280000606040402020204000000002300260007
:1002900029002C002F0000000000250028002B0062
:1002A0002E00310000000000240027002A002D004D
:1002B0003000080B000202020100090400000102E4
:1002C000020000052400100105240101010424029C
:1002D00006052406000107058103100040090401FA
:1002E00000020A0000000705020240000007058323
:1002F0000240000000C18081C11201000202000022
:100300004041233680000101020001120100020079
:100310000000404123368000010102000141726467
:1003200075696E6F204C4C430041726475696E6F45
:10033000204C656F6E6172646F0004030904000055
:100340000000000000002A2B280000000000000030
:1003500000000000000000000000000000002C9ED3
:10036000B4A0A1A2A434A6A7A5AE362D3738271E67
:100370001F20212223242526B333B62EB7B89F840D
:1003800085868788898A8B8C8D8E8F9091929394A5
:1003900095969798999A9B9C9D2F3130A3AD3504E3
:1003A00005060708090A0B0C0D0E0F101112131485
:1003B00015161718191A1B1C1DAFB1B0B50009048A
:1003C0000200010300000009210101000122650073
:1003D0000705840340000105010902A1010901A1EB
:1003E00000850105091901290315002501950375EB
:1003F0000181029501750581030501093009310963
:10040000381581257F750895038106C0C00501094F
:1004100006A1018502050719E029E71500250175E8
:1004200001950881029501750881039506750815E7
:100430000025650507190029658100C08E06FF0D9E
:10044000151675275529CB2FE206191611241FBE44
:10045000CFEFDAE0DEBFCDBF11E0A0E0B1E0E4EC29
:10046000FEE602C005900D92AE3FB107D9F727E036
:10047000AEEFB1E001C01D92AE32B207E1F714E079
:10048000C8E4D4E004C02297FE010E94D234CC33E9
:10049000D107C9F70E9499290C9455370C94000094
:1004A000CF92DF92EF92FF920F931F93E82FF92FD5
:1004B00005C0015011092109310961F1908196238C
:1004C0009417B9F305C0015011092109310911F13F
:1004D000908196239413F7CFC12CD12CE12CF12CD1
:1004E0000AC08FEFC81AD80AE80AF80A0C151D05C9
:1004F0002E053F0579F080818623841791F36C2DBA
:100500007D2D8E2D9F2D1F910F91FF90EF90DF90ED
:10051000CF90089560E070E080E090E01F910F912F
:10052000FF90EF90DF90CF90089561E08DE00E9402
:10053000EE2561E08DE00E9427266CE271E080E00C
:1005400090E00E94602460E08DE00E94272640E059
:1005500052EC61E070E081E296E00E946F2764EF68
:1005600071E080E090E00E9460246A9A729A64E6EA
:1005700070E080E090E00E9460246A9A729826E021
:1005800040E052EC61E070E081E796E00E9475285F
:1005900084E393E00C94AA1920918402FC012223A5
:1005A00019F0E45EFD4F02C0E05BFD4F80810895CD
:1005B00020918402FC01222319F0E45EFD4F02C069
:1005C000E05BFD4F6083089581E296E00E94EE2992
:1005D00081E796E00C94EE29CF93DF93EC010E9423
:1005E000CC0280938C02CE0101960E94CC028093B3
:1005F0008D0280918C0290918D02DF91CF910895B0
:100600000F931F93CF93DF93EC010E94CC020EE86F
:1006100012E0F8018083CE0101960E94CC02809303
:100620008F02CE0102960E94CC0280939002CE01EE
:1006300003960E94CC0280939102F801608171813F
:1006400082819381DF91CF911F910F910895E7E00F
:10065000F2E020E030E0419151914817590791F0C4
:10066000452B41F4F901EE0FFF1FE95FFD4F918328
:10067000808308C02F5F3F4F2830310561F780E04D
:1006800090E00895C9010895AF92BF92CF92DF9292
:10069000EF92FF920F931F93CF93DF93CDB7DEB707
:1006A000E6970FB6F894DEBF0FBECDBF8C0186E093
:1006B00090E00E94CC02D82EE82EF12C0C301105CF
:1006C00009F4E4C14CF50830110509F4E8C1F4F46B
:1006D0000330110509F463C20530110509F00DC39B
:1006E00086E090E00E94EC028C0169E08CEA93E0E5
:1006F0000E94451DB8018CEA93E00E94EC1588E049
:1007000090E00E94EC028C016AE02AC00A301105D8
:1007100009F10CF42BC2FAC10132110509F4B8C277
:100720006CF40E31110509F479C20032110509F497
:1007300081C20431110509F0E0C248C20832110536
:10074000C9F00233110509F4C6C20232110509F0DD
:10075000D4C27DC287E090E00E94EC028C016D2D36
:100760008CEA93E00E94451DB8018CEA93E00E9458
:10077000EC15C3C287E090E00E94EC028C0189E096
:1007800090E00E94EC025C0181E0E816F10409F0BF
:10079000BBC061E0CE0101960E94D21F8B819C817B
:1007A000AD81BE818093C8029093C902A093CA0212
:1007B000B093CB028F818093CC0288859985AA85DE
:1007C000BB858093CD029093CE02A093CF02B093CD
:1007D000D0028C859D85AE85BF858093D102909394
:1007E000D202A093D302B093D40288899989AA89AE
:1007F000BB898093D5029093D602A093D702B09381
:10080000D8028C899D89AE89BF898093D902909343
:10081000DA02A093DB02B093DC02888D998DAA8D59
:10082000BB8D8093DD029093DE02A093DF02B09334
:10083000E0028C8D9D8DAE8DBF8D8093E1029093F3
:10084000E202A093E302B093E40288A199A1AAA1D5
:10085000BBA18093E5029093E602A093E702B093D8
:10086000E8028CA19DA1AEA1BFA18093E902909363
:10087000EA02A093EB02B093EC0288A599A5AAA581
:10088000BBA58093ED029093EE02A093EF02B0938C
:10089000F0028CA59DA5AEA5BFA58093F102909313
:1008A000F202A093F302B093F40288A999A9AAA92D
:1008B000BBA98093F5029093F602A093F702B09340
:1008C000F8028CA98093F9028DA98093FA02A50100
:1008D000662757FD6095762F86EC92E00E94D62120
:1008E000B801882777FD8095982F0E943E316B01D3
:1008F0007C01AB01BC0186EC92E00E94ED21B701C6
:10090000A60186EC92E0BFC082E0E816F10409F08F
:10091000F4C162E0CE0101960E94D21F8B819C81BE
:10092000AD81BE818093FD029093FE02A093FF02F1
:10093000B09300038F818093010388859985AA85F0
:10094000BB858093020390930303A0930403B093A9
:1009500005038C859D85AE85BF85809306039093A6
:100960000703A0930803B093090388899989AA898A
:10097000BB8980930A0390930B03A0930C03B0935D
:100980000D038C899D89AE89BF8980930E03909356
:100990000F03A0931003B0931103888D998DAA8D36
:1009A000BB8D8093120390931303A0931403B09311
:1009B00015038C8D9D8DAE8DBF8D80931603909306
:1009C0001703A0931803B093190388A199A1AAA1B2
:1009D000BBA180931A0390931B03A0931C03B093B5
:1009E0001D038CA19DA1AEA1BFA180931E03909376
:1009F0001F03A0932003B093210388A599A5AAA55E
:100A0000BBA58093220390932303A0932403B09368
:100A100025038CA59DA5AEA5BFA580932603909325
:100A20002703A0932803B0932903C8A8D9A8EAA84C
:100A3000FBA8C0922A03D0922B03E0922C03F092E1
:100A40002D038CA980932E038DA980932F03A501DC
:100A5000662757FD6095762F8BEF92E00E94D62196
:100A6000B801882777FD8095982F0E943E316B0151
:100A70007C01AB01BC018BEF92E00E94ED21B7013C
:100A8000A6018BEF92E00E94482237C187E090E0F8
:100A90000E94EC0289E090E00E94EC022EC187E007
:100AA00090E00E94CC02482F88E090E04EAB0E947C
:100AB000CC02E82E89E090E00E94CC02182F8AE058
:100AC00090E00E94CC02F82E8BE090E00E94CC02D5
:100AD000082F4EA96D2D8CE893E00E946E1DEE202C
:100AE00049F06FEF6E0D2F2D412F8CE893E00E949F
:100AF000EC1D07C0202F4F2D612F8CE893E00E9442
:100B00003D1E8CE893E00E946A1EF7C087E090E0EB
:100B10000E94CC029701220F331FF901EE5DFE4FB8
:100B2000813011F4008101C0018110E088E090E083
:100B30000E94CC02D82EC8010E942703FC01EE0FB0
:100B4000FF1FE80FF91FEE54FC4F208131814281D5
:100B500029833A834B8384EB8D1508F4CEC0B8010A
:100B6000CE0101960E94940C6D2DAFC08DE793E0ED
:100B70000E94F11C282F30E02E153F0529F06D2D25
:100B80008DE793E00E94DE1487E090E00E9400036E
:100B9000AB01BC018DE793E00E940015AEC089E770
:100BA00093E00E94F11C282F30E02E153F0529F01C
:100BB0006D2D89E793E00E94451D87E090E00E943B
:100BC000CC0261E081111BC060E019C089E793E0AD
:100BD0000E94F11C282F30E02E153F0529F06D2DC5
:100BE00089E793E00E94451D87E090E00E94CC02D7
:100BF000282F30E0223031053CF4682F617089E7FE
:100C000093E00E94191D79C061E02230310509F49A
:100C100060E089E793E00E94291D6FC061E00E94B7
:100C2000EE2587E090E00E94CC02682F8D2D0E9477
:100C3000272663C061E00E94EE2587E090E00E94D5
:100C4000CC02682F70E08D2D0E941A2556C061E0FD
:100C50000E94EE2587E090E00E94EC026C0189E0A2
:100C600090E00E94EC021816190664F48C01222709
:100C700017FD2095322FA601B70182EC92E00E9469
:100C800077153BC0B70182EC92E00E94DE1535C0BB
:100C900087E090E00E94CC02182F853B70F5C701D9
:100CA0000E942703FC01EE0FFF1FE80FF91FEE540F
:100CB000FC4F20813181428129833A834B83B701E4
:100CC000CE0101960E94940C612F70E0CE01019636
:100CD0000E94CD0C12C00E9431240E943C3120E0C1
:100CE00030E04AE754E40E94A3306093020270931C
:100CF00003028093040290930502E6960FB6F894DF
:100D0000DEBF0FBECDBFDF91CF911F910F91FF903E
:100D1000EF90DF90CF90BF90AF900895CF93DF9387
:100D2000C2EBD3E0CE010E94FA0B239683E0CA3CCB
:100D3000D807C1F78CEA93E00E94E91589E993E0AE
:100D40000E94E4228CE893E00E94E11D87E893E092
:100D50000E948A238DE793E00E94481389E793E07D
:100D60000E94D81C84E393E00E94471680E393E03E
:100D70000E94771B86EC92E00E94C41F8BEF92E0EA
:100D80000E94C41F82EC92E00E9471158BEB92E0EE
:100D90000E942A1A85EB92E00E941D168FEA92E0CB
:100DA0000E94321689EA92E00E94702382E992E062
:100DB0000E94AD126BE471E086E892E0DF91CF9182
:100DC0000C944B2E86E892E00E94DD2D8CE893E097
:100DD0000C947E1ECF93C82F682F81E296E00E946C
:100DE000B2266C2F81E796E0CF910C9410288FEFFC
:100DF0000E94EA0685E50C94EA068FEF0E94EA0657
:100E000085E50E94EA060C94E402CF93C82F81E0A6
:100E10000E94EA068C2FCF910C94EA06EF92FF9283
:100E20000F931F93CF93DF937C01FC01C4810C2FA0
:100E3000158184E00E94EA068C2F0E94EA06C0E039
:100E4000D0E0C017D10744F4BE01C7010E94922E22
:100E50000E94EA062196F5CFDF91CF911F910F9165
:100E6000FF90EF900895FF920F931F93CF93DF931E
:100E70001F92CDB7DEB78B01F82E82E099830E94D6
:100E8000EA06A8016F2D9981792F40938E02509325
:100E90008F026093900270939102802F0E94EA0665
:100EA00080918F020E94EA06809190020E94EA06D9
:100EB000809191020F90DF91CF911F910F91FF9040
:100EC0000C94EA06CF92DF92EF92FF926B017C01C5
:100ED00083E00E94EA06C701B6010E940B31862F0B
:100EE000262F372F30938D0220938C020E94EA0622
:100EF00080918D02FF90EF90DF90CF900C94EA06E6
:100F0000CF92DF92EF92FF920F931F93CF93DF93D5
:100F1000CDB7DEB727970FB6F894DEBF0FBECDBFB3
:100F20007C0186E090E00E94CC02D82E082F10E0D1
:100F300084E3E816F10408F088C2F701EA5AFF4F8B
:100F40000C94D03487E893E00E94F11C90E0801765
:100F5000910729F06D2D87E893E00E94451D60E917
:100F600071E087E893E00E94D2231AC287E090E004
:100F70000E94CC02F82E89E993E00E94F11C282FF0
:100F800030E02017310709F052C289E993E00E944E
:100F9000F41C8F114CC289E993E00E94022300C225
:100FA00089E793E00E94F11C90E08017910761F0BF
:100FB0006D2D89E793E00E94451D89E793E00E942B
:100FC0006B1D60E00E94EE2589E793E00E943D1DC5
:100FD0008EC187E090E00E94CC02F82E80E393E07F
:100FE0000E94F11C282F30E02017310729F06D2DC9
:100FF00080E393E00E94451D6F2D80E393E00E9403
:101000007A1B75C180917703909178030097F1F076
:101010004F960E94F11C90E08017910731F10091EA
:101020007703109178030115110581F08DEA91E0A5
:10103000F80191838083C80182599F4F0E94DD2D62
:10104000C8010E947B11C8010E94AE298BE790E085
:101050000E94AC298C016D2D0E940D1B109378030A
:1010600000937703C8010E94221B8091770390911F
:1010700078030E944D1B682F809318028FEF860F14
:101080008E3F08F47FC060E070E0CB0189C189E742
:1010900093E00E94F11C90E08017910709F46CC066
:1010A0006D2D89E793E00E94451D89E793E00E943A
:1010B0006B1D60E05FC089E793E00E94F11C90E047
:1010C0008017910799F06D2D89E793E00E94451DE7
:1010D00089E793E00E94681D60E00E94EE2589E7A1
:1010E00093E00E946B1D60E00E94EE2560E089E7BE
:1010F00093E00E94F71C182F60E089E793E00E94BC
:10110000081D612F70E0660F771F680F711D88271B
:1011100077FD8095982FF0C087E090E00E94CC0288
:10112000C82EE82EF12C89E793E00E94F11C282FAD
:1011300030E02017310709F081C189E793E00E9470
:10114000F41C282F30E02E153F0509F077C189E700
:1011500093E0EA94EF2859F40E94681D62E00E942F
:10116000EE2560E089E793E00E94F71C0AC00E9428
:101170006B1D62E00E94EE2560E089E793E00E942B
:10118000081D682F70E080E090E00E943C3108C1AB
:1011900087E090E00E94CC02F82E8BEB92E00E9458
:1011A000F11C282F30E02017310729F06D2D8BEB33
:1011B00092E00E94451D8BEB92E00E942D1A6F2D4C
:1011C0008BEB92E00E94061B2FC185EB92E00E9400
:1011D000F11C90E080179107A9F06D2D85EB92E04E
:1011E0000E94451D85EB92E00E94681D482F85EB0B
:1011F00092E04F830E946B1D4F81682F85EB92E038
:101200000E94201685EB92E00E94301621C08FEAE2
:1012100092E00E94F11C90E080179107A9F06D2DDB
:101220008FEA92E00E94451D8FEA92E00E94681DBD
:10123000482F8FEA92E04F830E946B1D4F81682FE9
:101240008FEA92E00E9435168FEA92E00E944516DE
:10125000BC01882777FD8095982F0E943E3163C09E
:1012600087E090E00E94CC02082F10E084E393E036
:101270000E94B7160130110529F484E393E00E941F
:1012800054168EC00230110529F484E393E00E94C5
:101290005A1686C00330110509F0D7C084E393E0E5
:1012A0000E9460167DC066E872E0CE0101960E9441
:1012B000782ECE0101960E940E07CE0101960E9463
:1012C000DD2DC3C060E08D2D0E94EE258D2D0E9486
:1012D0005D260DC0F801EE0FFF1FE65FFE4F108187
:1012E00060E0812F0E94EE25812F0E94E924BC013D
:1012F000882777FD8095982F0E943E3151C087E066
:1013000090E00E94EC028C0160E08D2D0E94EE25A1
:101310009801442737FD4095542F61E08D2D0E94A0
:1013200086260E943C310E9462078FC087E090E0D1
:101330000E94CC02182F61E08D2D0E94EE2560E006
:101340008D2D0E94272682E090E00E94882461E093
:101350008D2D0E9427268AE090E00E94882460E07C
:101360008D2D0E94272660E0812F0E94EE2520E32C
:1013700035E740E050E061E0812F0E9486260E9420
:101380003C3120E030E048E652E40E94A33008C03F
:101390006091FE017091FF01809100029091010225
:1013A0000E94330752C089EA92E00E94F11C90E04B
:1013B00080179107A9F06D2D89EA92E00E94451DE2
:1013C00089EA92E00E946B1D482F89EA92E04F83E0
:1013D0000E94681D4F81682F89EA92E00E94732362
:1013E00089EA92E00E9487231FC082E992E00E946E
:1013F000F11C90E08017910751F06D2D82E992E089
:101400000E94451D6D2D82E992E00E94AF1282E993
:1014100092E00E94B312182F87E090E00E94CC0265
:1014200091E0181390E0892F0E9405070EC04F2D00
:101430006D2D89E993E00E94EF22ADCD4C2D6D2DED
:1014400089E793E00E94551D82CE27960FB6F89447
:10145000DEBF0FBECDBFDF91CF911F910F91FF90E7
:10146000EF90DF90CF9008950F931F93CF93DF936A
:101470001092190283E090E00E94CC02082F84E0D1
:1014800090E00E94CC02182F85E090E00E94CC02F0
:10149000C82FD0E01230B9F088F4113009F049C0FB
:1014A0000E94F706802F0E94EA06CE010E94800764
:1014B000DF91CF911F910F910C94E402143039F019
:1014C000153089F136C0CE010E9444032CC069E07A
:1014D0008CEA93E00E94451D60E070E08CEA93E0A6
:1014E0000E94EC156AE08CEA93E00E94451D60E0E2
:1014F00070E08CEA93E00E94EC1561E08CEA93E0E6
:101500000E94451D60E070E08CEA93E00E94EC15BB
:1015100062E08CEA93E00E94451D60E070E08CEA96
:1015200093E00E94EC15DF91CF911F910F910C94E5
:10153000FD06DF91CF911F910F91089510928502C2
:1015400081E296E00E94DC26181619065CF481E020
:10155000809385021092840281E296E00E94EC263C
:101560008093170281E796E00E94922718161906C9
:101570005CF481E0809385028093840281E796E0A9
:101580000E94AB278093170208950E9431240E9485
:101590003C3120E030E04AE754E40E94A33020913F
:1015A00002023091030240910402509105020E9410
:1015B000D82F6093FE017093FF01809300029093F7
:1015C00001028091770390917803009711F00E94B7
:1015D000521B0E949E0A86EC92E00E94C2228BEF70
:1015E00092E00E94C22280918502882309F445C0BE
:1015F0006091170280911902653561F481110AC06A
:10160000809106028F3FD9F481E080931B02809382
:10161000190215C060930602882389F080911B028D
:10162000823019F460931A0207C0833028F0909139
:101630001A02915090931A0290E00E94D802809171
:101640001B028F5F843318F480931B0204C0109236
:101650001B021092190280911902882371F0809167
:101660001A0281110AC080911B02843030F010925E
:1016700019020E94340A10921B0208951F920F92C1
:101680000FB60F9211242F933F934F935F936F9355
:101690007F938F939F93AF93BF93EF93FF9380912B
:1016A000CB0387FF05C010928500109284001AC0FA
:1016B0002091CB03332727FD30958091CA0390E01A
:1016C000281739077CF48091CB03992787FD9095E3
:1016D000FC01EE0FFF1FE80FF91FE453FC4F808160
:1016E00086FD15C08091CB038F5F8093CB03209143
:1016F000CB03332727FD30958091CA0390E028174C
:101700003907BCF48091CB038C305CF112C080911E
:10171000CB03992787FD9095FC01EE0FFF1FE80F83
:10172000F91FE453FC4F808160E08F730E942726ED
:10173000D9CF8091840090918500049680349C4993
:1017400018F480E49CE905C08091840090918500A4
:10175000049690938900809388008FEF8093CB0349
:1017600038C020918400309185008091CB03992767
:1017700087FD9095FC01EE0FFF1FE80FF91FE45362
:10178000FC4F81819281820F931F909389008093F7
:1017900088008091CB03992787FD9095FC01EE0F7F
:1017A000FF1FE80FF91FE453FC4F808186FF11C033
:1017B0008091CB03992787FD9095FC01EE0FFF1FC9
:1017C000E80FF91FE453FC4F808161E08F730E94A2
:1017D0002726FF91EF91BF91AF919F918F917F91BC
:1017E0006F915F914F913F912F910F900FBE0F908E
:1017F0001F9018952091CA032C30A0F431E0320FCD
:101800003093CA03FC012083822F90E0FC01EE0F8D
:10181000FF1FE80FF91FE453FC4F88EB9BE0928316
:10182000818308952FEFFC0120830895DF92EF92CA
:10183000FF920F931F93CF93DF93EC01D62E7A0183
:10184000890188818C3008F066C061E08D2D0E948E
:10185000EE258881A82FB0E0FD01EE0FFF1FEA0FF3
:10186000FB1FE453FC4F2D2D2F739081907C922B06
:10187000908360E272E06E197F0977FF02C06D5FAE
:101880007F4F7595679575956795698340E659E033
:10189000401B510B57FF02C04D5F5F4F5595479559
:1018A000559547954A836CE00E945B349CE0899F84
:1018B000B001112420E030E0A901460F571FFA01C2
:1018C000EE0FFF1FE40FF51FE453FC4F908196FDD0
:1018D00016C02F5F3F4F2C30310571F781110FC0BB
:1018E0001092800082E08093810010928500109217
:1018F0008400B19A80916F00826080936F0088812C
:1019000090E0FC01EE0FFF1FE80FF91FE453FC4FBE
:101910008081806480838881DF91CF911F910F91B6
:10192000FF90EF90DF90089520E639E040E252E02A
:101930000C94160CFC0180818C3070F5918128E8A4
:1019400030E0291B310997FD3395220F331F220FF9
:10195000331F621773077CF0928128E532E0291B60
:10196000310997FD3395220F331F220F331F621762
:1019700073070CF49B0122503109220F331F4FB71C
:10198000F89490E0FC01EE0FFF1FE80FF91FE453FD
:10199000FC4F328321834FBF08954F925F926F9225
:1019A0007F92AF92BF92CF92DF92EF92FF920F930E
:1019B0001F93CF93DF93EC01603282E078070CF045
:1019C00040C077FD06C0653B71052CF064EB70E00C
:1019D00002C060E070E0898128E830E0281B31090E
:1019E00087FD3395220F331F220F331F5901CC245B
:1019F000B7FCC094DC2C882777FD8095982F2A812E
:101A000048E552E0421B510927FD5395440F551FED
:101A1000440F551F2A01662457FC6094762C7F9250
:101A20006F925F924F9214EBE12EF12C00E010E0E8
:101A300020E030E0A9010E94962D0F900F900F90AA
:101A40000F90CE01DF91CF911F910F91FF90EF90FA
:101A5000DF90CF90BF90AF907F906F905F904F904E
:101A60000C949A0C8091200490E020912104821B18
:101A7000910908952091210480912004281750F4A1
:101A8000E22FF0E0EE5DFB4F808190E02F5F20932E
:101A9000210408958FEF9FEF0895E0912104809134
:101AA0002004E81730F4F0E0EE5DFB4F808190E019
:101AB00008958FEF9FEF08950895CF92DF92EF92F0
:101AC000FF920F931F93CF93DF937C01CB018A0189
:101AD0002091FC03222389F0EB016B01C40ED51E7B
:101AE000CC15DD0569F06991D701ED91FC9101906C
:101AF000F081E02DC7010995F3CF642F0E94B80E45
:101B0000C801DF91CF911F910F91FF90EF90DF906F
:101B1000CF900895CF93DF931F92CDB7DEB769833F
:101B20002091FC032223D1F02091FD03203240F0CC
:101B300021E030E0FC013383228380E090E015C097
:101B40008091FE03E82FF0E0E150FC4F99819083F3
:101B50008F5F8093FE038093FD0305C061E0CE019B
:101B600001960E94B80E81E090E00F90DF91CF9136
:101B70000895FC011382128248EE53E060E070E0A9
:101B8000448355836683778387E591E091838083DF
:101B9000089510922104109220041092FE031092D6
:101BA000FD030C94030E862F413208F040E262E2FE
:101BB00074E00E94210E1092210480932004089565
:101BC00081E08093FC0360931F041092FE03109247
:101BD000FD0308950C94E00D0F93062F21E0409132
:101BE000FD036FEF73E080911F040E94650E109259
:101BF000FE031092FD031092FC030F91089580EFF5
:101C000093E00C94B90D1092AF0481E08093AD0481
:101C10001092AC0461E082E00E94272661E083E03C
:101C20000E942726E9EBF0E080818E7F808380810F
:101C30008D7F808388E48093B80085E48093BC0026
:101C40000895413208F03FC09091AF049111FCCF4C
:101C500091E09093AF042093AD042FEF20934204C2
:101C600010928704240F209386049093AE049091E1
:101C7000AE04880F892B8093AE048091AC04813030
:101C800041F41092AC048091AE048093BB0085ECCB
:101C900001C085EE8093BC008091AF048130E1F3F8
:101CA00080918704841710F44091870428E834E079
:101CB000FB01D9018A2F821B841718F48D9181931F
:101CC000F9CF842F089580E008950F93413208F0F2
:101CD00046C09091AF049111FCCF92E09093AF0475
:101CE0000093AD049FEF90934204109287044093B9
:101CF0008604FB0168E874E0DB019A2F961B9417B9
:101D000018F491919D93F9CF1092AE049091AE0486
:101D1000880F892B8093AE048091AC04813041F40C
:101D20001092AC048091AE048093BB0085EC01C09E
:101D300085EE8093BC00222321F08091AF04823095
:101D4000E1F3809142048F3F61F080914204803240
:101D500051F080914204803341F483E007C081E078
:101D600005C080E003C082E001C084E00F910895C7
:101D7000613298F42091AF04243089F460936404B4
:101D8000FC0186E694E0DC012A2F281B261718F4B4
:101D900021912D93F9CF80E0089581E0089582E0AC
:101DA000089585ED8093BC008091BC0084FDFCCF3C
:101DB0001092AF04089585EC8093BC001092AF049C
:101DC00008951F920F920FB60F9211242F933F93F5
:101DD0004F935F936F937F938F939F93AF93BF9333
:101DE000EF93FF938091B900887F803609F49CC0FF
:101DF00068F5883209F45BC090F4803109F454C06E
:101E000038F4882309F4F5C0883009F44DC0F5C0D2
:101E1000883109F44CC0803209F45DC0EEC08034D2
:101E200009F468C048F4803309F455C0883309F0D8
:101E3000E4C080934204A8C0803509F44FC08835BF
:101E400009F45DC0883409F0D8C0D5C0883909F4D8
:101E5000C6C0A8F4883709F467C038F4883609F496
:101E600063C0803709F460C0C8C0883809F4B7C0BF
:101E7000803909F45FC0803809F0BFC05BC0803B87
:101E800009F485C038F4803A09F466C0883A09F448
:101E90007EC0B3C0803C09F4A6C0883C09F4A3C04E
:101EA000883B09F489C0A9C08091AE0410C090910C
:101EB000870480918604981770F5E091870481E08B
:101EC0008E0F80938704F0E0E857FB4F808180936A
:101ED000BB0085EC85C0809342048DC0E0918704EF
:101EE00081E08E0F809387048091BB00F0E0E8577B
:101EF000FB4F808390918704809186046DC0E091B0
:101F0000870481E08E0F809387048091BB00F0E00E
:101F1000E857FB4F80838091AD0481116CC081E054
:101F20008093AC0484EA60C083E08093AF04109295
:101F30004304CFCF80914304803208F050C0E09139
:101F4000430481E08E0F809343048091BB00F0E056
:101F5000EC5BFB4F8083BDCF80914304803230F433
:101F6000E0914304F0E0EC5BFB4F10820E94D10E45
:101F70006091430470E0E091A804F091A90484E426
:101F800094E00995109243040E94DB0E36C084E071
:101F90008093AF041092650410926404E091AA0447
:101FA000F091AB04099580916404811105C081E032
:101FB0008093640410926604E091650481E08E0FC2
:101FC00080936504F0E0EA59FB4F80818093BB0069
:101FD0009091650480916404981708F47ACF85E89D
:101FE0008093BC000AC085EC8093BC001092AF04C3
:101FF00004C0109242040E94D10EFF91EF91BF9154
:10200000AF919F918F917F916F915F914F913F9190
:102010002F910F900FBE0F901F9018952091F204F2
:102020003091F30428173907B9F49091B0048091E6
:10203000B104981789F0E091B004F0E0EE54FB4F42
:1020400080812091B00430E02F5F3F4F2F73332702
:102050002093B00490E008958FEF9FEF08951F93B1
:10206000CF93DF93DC015C968D919C915D970097F7
:1020700049F481E090E013969C938E93129780E050
:1020800090E03BC05196ED91FC91529750962C9167
:102090005097322F30951FB75E964C915E9741FB5B
:1020A000772770F941FD6095F8944081772311F00E
:1020B000422B01C043234083EC012197F1F748E014
:1020C000508160FF02C0522B01C053235083EC01AA
:1020D0002197F1F76695415099F78081772311F0A8
:1020E000832301C0822B80831FBF5C968D919C91BE
:1020F0005D970197F1F781E090E0DF91CF911F911B
:1021000008952091F2043091F3042817390781F4DF
:102110009091B0048091B104981751F0E091B0040F
:10212000F0E0EE54FB4F8081992787FD909508954C
:102130008FEF9FEF08952091F2043091F304281758
:10214000390771F48091B1042091B00490E0805C73
:102150009F4F821B910960E470E00E947B340895D8
:1021600080E090E008952091F2043091F304281764
:10217000390739F48FB7F8941092B1041092B00473
:102180008FBF0895E091F204F091F304E817F90786
:1021900069F4A389B4899C918589809589238C935E
:1021A0001092F3041092F20481E0089580E0089503
:1021B000CF93DF93EC018A8D9B8D892BF1F0809179
:1021C000F2049091F3048C179D07B9F0009711F079
:1021D0000E94C2108E8D8E7F8E8F1092B10410924D
:1021E000B004D093F304C093F204EB89FC8980819E
:1021F0009D89892B808381E001C080E0DF91CF91B0
:1022000008951F920F920FB60F9211242F933F93B0
:102210004F935F936F937F938F939F93AF93BF93EE
:10222000EF93FF93E091F204F091F304309709F4F7
:1022300051C0868DA685B785958581FF04C08C9198
:10224000892329F447C08C91892309F043C0A389CD
:10225000B4899C918589809589238C9386899789F7
:102260000197F1F7208D318DA685B785758558E0EA
:1022700040E0C9010197F1F7842F90E0959587958B
:10228000482F6C91672309F04068515091F7868D73
:1022900081FD40958091B10490E001968F7399275C
:1022A0002091B004281749F0A091B104B0E0AE54D9
:1022B000BB4F4C938093B10403C0868D8160868FA1
:1022C000828D938D0197F1F7A389B4898C919589BB
:1022D000892B8C93FF91EF91BF91AF919F918F913B
:1022E0007F916F915F914F913F912F910F900FBE12
:1022F0000F901F90189527E631E0FC013183208371
:102300000C94C2101F93CF93DF93EC01162F6E8DA8
:102310006695617081E06827812F0E94272661E021
:10232000812F0E94EE25812F90E0FC01E45BFD4FA0
:10233000E491E88BFC01E659FD4FE491F0E0EE0FEB
:10234000FF1FEA56FD4F859194919A8B898BDF91FF
:10235000CF911F9108951F93CF93DF93EC01162F18
:1023600060E0812F0E94EE258E8D81FD04C061E02A
:10237000812F0E9427261C87812F90E0FC01E45BBF
:10238000FD4FE491ED87FC01E659FD4FE491F0E04B
:10239000EE0FFF1FE857FD4F859194919F878E8721
:1023A000DF91CF911F910895FF920F931F93CF93C9
:1023B000DF93EC01F62E522F1B821A8208EE13E0F7
:1023C00020E030E00C831D832E833F8387E691E07D
:1023D000998388831F8A1E8A198E188E1B8E1A8EE7
:1023E0001D8E1C8E8E8D8E7F50FB81F98E8F642FFB
:1023F000CE010E9482116F2DCE01DF91CF911F91EE
:102400000F91FF900C94AB11CF93DF93EC019A01E5
:10241000AB011B8E1A8E198E188E1F8A1E8A60E0E1
:1024200079E08DE390E00E94B134C9012430310598
:1024300020F0B9016350710902C061E070E07D8F46
:102440006C8FEC85F8EFFE0FF43048F062EF6E0F02
:10245000643028F066EE6E0F633008F06FC0B9018B
:10246000769567956431710518F06351710902C062
:1024700061E070E07F8B6E8B069718F0C9010597BD
:1024800002C081E090E0998F888FC901880F991F61
:10249000820F931F96958795969587958D30910518
:1024A00010F00C9702C081E090E09B8F8A8FF4308F
:1024B00058F082EF8E0F843038F0EA51E33008F0A4
:1024C00042C0A8E6B0E041C0A8E6B0E0E8E6F0E02F
:1024D000808181608C932C8538EF320F343040F04E
:1024E00082EF820F843020F086EE820F833018F462
:1024F0008BE690E002C080E090E09C8B8B8B3430C8
:1025000010F4245009C02E3069F02F3069F02031CA
:1025100069F0213169F0265181E001C0880F2A95C8
:10252000EAF707C088E005C082E003C084E001C08C
:1025300081E08D8B8C8D9D8D0197F1F7CE01DF9120
:10254000CF910C94D810A0E0B0E0E33008F4BECFF7
:10255000E0E0F0E0BDCF0C94C2100C94D81CFC015C
:10256000668B61830895CF92DF92EF92FF920F9373
:102570001F93CF93DF93EC010C891D890E943124B6
:10258000CC80DD80EE80FF809B01AC012C193D09E1
:102590004E095F0969017A0139E0C316D104E104EB
:1025A000F104E8F16C837D838E839F83CE010E94CA
:1025B0003D1D488559856A857B85452B462B472BD4
:1025C00049F4AC01662757FD6095762F488B598BEF
:1025D0006A8B7B8B488959896A897B89841B950B17
:1025E00097FF03C0919581959109449764F44C85B8
:1025F0005D856E857F854F5F5F4F6F4F7F4F4C8747
:102600005D876E877F87488559856A857B854F5FA3
:102610005F4F6F4F7F4F488759876A877B878885D1
:102620009985AA85BB850597A105B105D1F41886C2
:1026300019861A861B868C859D85AE85BF85039776
:10264000A105B10540F088899989AA89BB898C01C7
:102650009D8B8C8B02C00C891D891C861D861E8655
:102660001F86C80164E670E00E947B346830710503
:1026700028F4FB01ED58FE4F808101C080E0DF911E
:10268000CF911F910F91FF90EF90DF90CF90089521
:102690000C94D81C0F931F93CF93DF93EC01062F5C
:1026A00018E060E088850E94272600FF02C061E0F4
:1026B00001C060E089850E942726069561E0888533
:1026C0000E942726115069F760E088850E9427261E
:1026D00061E089850E94272661E088850E9427267F
:1026E00060E089850E94EE2518EC89850E945D26B0
:1026F000892B59F01150C9F761E089850E94EE25B8
:1027000060E089850E942726EFCF61E08985DF910F
:10271000CF911F910F910C94EE25CF93DF93EC0195
:1027200061E088850E94272661E089850E9427262E
:1027300060E089850E94272660E08885DF91CF913F
:102740000C942726CF93DF93EC0160E088850E94EC
:10275000272660E089850E94272661E088850E94FF
:10276000272661E08985DF91CF910C942726CF92AF
:10277000DF92FF920F931F93CF93DF931F92CDB7FA
:10278000DEB76C01F62E79830E948D1360E4C601DA
:102790000E944A13C6010E94A213C6010E948D1313
:1027A000F6016581C6010E944A130F2D7981172F0A
:1027B00084E0F82EF80161918F01C6010E944A134E
:1027C000FA94C1F7C6010E94A213C6010E948D139C
:1027D000F6016681C6010E944A13C6010F90DF917F
:1027E000CF911F910F91FF90DF90CF900C94A21387
:1027F0004F925F926F927F928F929F92AF92BF9211
:10280000CF92DF92EF92FF920F931F93CF93DF93BC
:1028100000D000D0CDB7DEB76A017B01890137FD5A
:1028200048C0B9016F5F7F4F882777FD8095982F4B
:102830000E943E319B01AC0160E070E080E291E4D7
:102840000E9419334B015C019B01AC01C701B60129
:102850000E94A3300E9479312B013C01B8018827E6
:1028600077FD8095982F0E943E319B01AC0160E07E
:1028700070E080E291E40E94193369837A838B834C
:102880009C83A5019401C301B2010E94B6329B0151
:10289000AC01C701B6010E94D82F29813A814B8132
:1028A0005C810E94A3300E9479310E940B31CB01E0
:1028B0001FC088249924821A930AA12CB12C20E0ED
:1028C00030E040E251E4C701B6010E94B6326B012C
:1028D0007C018FEFA81AB80AA814B90484F3C701C1
:1028E000B6010E940B31CB016AE070E00E947B349C
:1028F0000F900F900F900F90DF91CF911F910F913C
:10290000FF90EF90DF90CF90BF90AF909F908F900F
:102910007F906F905F904F900895DB0180E090E290
:102920002C91223208F09C93EC91F0E0E050FE4FA5
:10293000E491ED938F5F843099F70895EF92FF92C1
:102940000F931F93CF93DF9300D000D0CDB7DEB7A6
:102950008C01DB01FE013196CE0105967F012D91A0
:102960002193E817F907D9F7B701C8010E948D1420
:10297000B701C8010E94B7130F900F900F900F90EE
:10298000DF91CF911F910F91FF90EF900895CF931A
:10299000DF9300D000D0CDB7DEB720E229832A83B1
:1029A0002B832C83BE016F5F7F4F0E949E140F907C
:1029B0000F900F900F90DF91CF910895CF93DF93F9
:1029C000EC016A83E62FF0E0EE0FFF1FEE5DFE4F95
:1029D00081818983908198838887998761E00E94AB
:1029E000EE2561E089850E94EE2580E48C8380ECF1
:1029F0008D838AE88E83CE01DF91CF910C94C7142A
:102A00008F929F92AF92BF92CF92DF92EF92FF92FE
:102A10000F931F93CF93DF9300D000D0CDB7DEB7D5
:102A20005C016A017B0119821A821B821C8220E0F0
:102A300030E0A901C701B6010E949F3087FF09C09D
:102A4000F7FAF094F7F8F09481E28983992493944B
:102A500001C0912C03E010E0812C9801B701A60180
:102A6000C5010E94F813181619062CF0002319F05E
:102A70008820B9F00CC001110AC0E1E0F0E0EC0FD1
:102A8000FD1FE90DF11D20E1280F208307C0E1E0C3
:102A9000F0E0EC0FFD1FE90DF11D80839394882475
:102AA000839483E0891530F0015011090C3F8FEFBA
:102AB000180799F6BE016F5F7F4FC5010E949E14F3
:102AC0000F900F900F900F90DF91CF911F910F916A
:102AD000FF90EF90DF90CF90BF90AF909F908F903E
:102AE00008950E94D81C88E08093F40408954F92C2
:102AF0005F926F927F928F929F92AF92BF92CF928E
:102B0000DF92EF92FF920F931F93CF93DF93762E76
:102B1000680179016093F4049A0140E050E060E4B8
:102B200072E48FE090E00E94B134E901590137FF6F
:102B300003C08FEFA81AB80A85011595079561E0C3
:102B4000872D0E94EE25A8EEB3E0A70196010E9412
:102B5000E5342B013C01C12CD12C76014E01AA2475
:102B600097FCA094BA2CC414D504E604F704A8F486
:102B700061E08091F4040E942726C8010E94882405
:102B800060E08091F4040E942726C8010E948824F6
:102B9000C80CD91CEA1CFB1CE6CFDF91CF911F911A
:102BA0000F91FF90EF90DF90CF90BF90AF909F90EC
:102BB0008F907F906F905F904F900895862F6093D5
:102BC000F40461E00E94EE2560E08091F4040C942E
:102BD000272660E00C94E11C0F931F93CF93DF93A3
:102BE0008C016F3F710519F014F06FEF70E0EB018D
:102BF00061308FEF780714F4C1E0DFEFD7FD06C036
:102C000061E0C8010E94291DBE0108C060E0C80142
:102C10000E94291D662777276C1B7D0BC801DF9159
:102C2000CF911F910F910C94411D85EF94E00C946E
:102C3000001A85EF94E00C94291A60E00C94E11CD2
:102C4000CF93DF93EC016C834D838C8160E00E9415
:102C5000EE258D8188838C818983DF91CF910895C2
:102C60000C94391D60E00C94E11CCF93DF93EC01D0
:102C70006C834D838C8160E00E94EE258D8188837A
:102C80008C818983DF91CF9108950C94391DCF9366
:102C9000DF93EC0160E00E94E11CCE5BDF4F88E631
:102CA0008883DF91CF910895FC01628573858485C7
:102CB00095850895FC0166857785808991890895B9
:102CC000FC0162897389848995890895EF92FF9246
:102CD0000F931F93CF93DF93C62F8A01E22E68E6EE
:102CE00080EF93E00E94E00D6C2F80EF93E00E9454
:102CF0008A0D813001F560E080EF93E00E94EC0DD9
:102D000081112EC081E090E00E94882421E04E2DA8
:102D100068E680EF93E00E94D30DE80100E010E048
:102D2000F12C80EF93E00E94320D892B31F00E15CB
:102D30001F0574F002C08FEF13C081E090E00E9485
:102D4000882481E00E151F0509F480E0819508C0F4
:102D50000F5F1F4F80EF93E00E943A0D8993E1CF00
:102D6000DF91CF911F910F91FF90EF9008954F92B7
:102D70005F926F927F928F929F92AF92BF92CF920B
:102D8000DF92EF92FF920F931F93CF93DF93CDB714
:102D9000DEB72C970FB6F894DEBF0FBECDBF8C0107
:102DA000AC014C5C5F4F2EE06BE30E946616811114
:102DB000C8C1F801A4A8B12CBA2CAA2485A9A82AB4
:102DC000B3A2A2A2E6A8F12CFE2CEE2487A9E82A41
:102DD000F5A2E4A280AC912C982C882481AD882A9D
:102DE00097A286A2468057806084718464AD70E0AB
:102DF000762F662785AD682B882777FD8095982FDD
:102E00000E943E31F80120A531A542A553A50E949C
:102E1000D82FA30192010E94A330F801668B778B13
:102E2000808F918F66AD70E0762F662787AD682B17
:102E3000882777FD8095982F0E943E31F80124A5C0
:102E400035A546A557A50E94D82FA30192010E943F
:102E5000A330F801628F738F848F958FE05CFF4FF2
:102E6000608170E0762F662731968081682B8827F5
:102E700077FD8095982F0E943E31F80120A931A955
:102E800042A953A90E94D82FA30192010E94A33006
:102E9000F801668F778F80A391A3B701882777FD0C
:102EA0008095982F0E943E316B017C01B4018827E8
:102EB00077FD8095982F0E943E319B01AC010E94C6
:102EC000B6322B013C01A7019601C701B6010E9451
:102ED000B632A30192010E94D92F0E9469339B014F
:102EE000AC01B501882777FD8095982F29873A870F
:102EF0004B875C870E943E314B015C0129853A85F6
:102F00004B855C850E944C3020E030E044E353E484
:102F10000E94B6322AED3FE049E450E40E94A3301B
:102F200069837A838B839C83A5019401C501B401D5
:102F30000E94B632A30192010E94D92F0E946933E8
:102F40009B01AC01C701B6010E944C3020E030E08B
:102F500044E353E40E94B6322AED3FE049E450E4F2
:102F60000E94A3306D837E838F8398870E943124D3
:102F7000C0901006D0901106E0901206F090130653
:102F80006C197D098E099F090E943C3120E030E0D8
:102F90004AE754E40E94A3306B017C010E94312473
:102FA0006093100670931106809312069093130697
:102FB000F80186A197A11816190644F5228D338DC4
:102FC000448D558DC701B6010E94B6329B01AC01FC
:102FD000F80162857385848595850E94D82FF80154
:102FE000628773878487958726893789408D518DBD
:102FF000C701B6010E94B6329B01AC01F80166859B
:103000007785808991890E94D92F28C0F801228D67
:10301000338D448D558DC701B6010E94B6329B0198
:10302000AC01F80162857385848595850E94D92F4E
:10303000F801628773878487958726893789408D51
:10304000518DC701B6010E94B6329B01AC01F80157
:1030500066857785808991890E94D82FF8016687D7
:103060007787808B918BF801268D378D40A151A1F8
:10307000C701B6010E94B6329B01AC01F80162891A
:103080007389848995890E94D92FF801628B738B8B
:10309000848B958B20E030E040E05FE3C701B60110
:1030A0000E94D92F9B01AC0160E070E080E09FE3BB
:1030B0000E94A3306B017C019B01AC0160E070E0D9
:1030C00080E89FE30E94D82F4B015C01F801228524
:1030D000338544855585C701B6010E94B6322B0160
:1030E0003C01A501940169817A818B819C810E94B8
:1030F000B6329B01AC01C301B2010E94D92FF80185
:1031000062877387848795872685378540895189AB
:10311000C701B6010E94B6326B017C01A501940182
:103120006D817E818F8198850E94B6329B01AC01B2
:10313000C701B6010E94D92FF80166877787808B77
:10314000918B2C960FB6F894DEBF0FBECDBFDF91EA
:10315000CF911F910F91FF90EF90DF90CF90BF9094
:10316000AF909F908F907F906F905F904F90089559
:103170002F923F924F925F926F927F928F929F9287
:10318000AF92BF92CF92DF92EF92FF920F931F9375
:10319000CF93DF9300D000D0CDB7DEB71C0104EF92
:1031A00011E0812C912C5401412C512C32011982B7
:1031B0001A821B821C827C0124E3E20EF11C26E0B1
:1031C000A70163E4C1010E946616F10184A990E0A1
:1031D000982F882725A9822BAA2797FDA095BA2F7B
:1031E00029813A814B815C81280F391F4A1F5B1F5F
:1031F00029833A834B835C8386A990E0982F8827A4
:1032000027A9822BAA2797FDA095BA2F480E591EF1
:103210006A1E7B1E80AD90E0982F882721AD822BFF
:10322000AA2797FDA095BA2F880E991EAA1EBB1E2D
:103230000150110921F664EFC62EDD24D394E12C50
:10324000F12C69817A818B819C81A70196010E9472
:10325000B134CA01B9010E943E31F10160A771A7E2
:1032600082A793A7C301B201A70196010E94B134BE
:10327000CA01B9010E943E31F10164A775A786A772
:1032800097A7C501B401A70196010E94B134CA01F4
:10329000B9010E943E31F10160AB71AB82AB93ABDF
:1032A0000F900F900F900F90DF91CF911F910F9182
:1032B000FF90EF90DF90CF90BF90AF909F908F9056
:1032C0007F906F905F904F903F902F900895EF9276
:1032D000FF921F93CF93DF931F92CDB7DEB7162FC8
:1032E0007A0168E670E080EF93E029830E94EA0D9E
:1032F000612F80EF93E00E948A0D2981813091F443
:10330000422F50E0B70180EF93E00E945D0D61E035
:1033100080EF93E00F90DF91CF911F91FF90EF909E
:103320000C94EC0D8FEF0F90DF91CF911F91FF90D8
:10333000EF900895CF93DF931F92CDB7DEB7498307
:1033400021E0AE014F5F5F4F0E9467190F90DF9140
:10335000CF910895CF93DF93EC0140E050E063E814
:1033600072E44E835F83688779871A861B861C8682
:103370001D861E861F86188A198A1A8A1B8A1C8A2D
:103380001D8A1E8A1F8A188E198E1A8E1B8E1C8EFD
:103390001D8E1E8E1F8E18A219A21BA21AA21DA27C
:1033A0001CA21FA21EA218A619A61AA61BA61CA61E
:1033B0001DA61EA61FA618AA19AA1AAA1BAA80EF44
:1033C00093E00E94C90D60E273E080E090E00E940B
:1033D000602440E06BE670E0CE010E949A1941E063
:1033E0006AE170E0CE010E949A1948E06BE170E05A
:1033F000CE010E949A19CE01DF91CF910C94B8189A
:1034000021E030E0FC0131832083EE5FFE4F10822B
:1034100011821282138234961082118212821382D8
:103420003496108231961082319610821182128267
:103430001382349611821082329610823196108255
:1034400011821282138234961082118212821382A8
:103450000895089560E00C94E11C4F925F926F9282
:103460007F928F929F92AF92BF92CF92DF92EF9214
:10347000FF920F931F93CF93DF9300D000D01F9242
:10348000CDB7DEB78C01CE0101966C0185E0F60167
:1034900011928A95E9F760E0C8010E94291D64E154
:1034A00070E080E090E00E94602461E0C8010E942A
:1034B000291D88E290E00E94882460E0C8010E94F3
:1034C000291D0E9431244B015C0160E0C8010E946B
:1034D000081D81110EC00E943124681979098A09DA
:1034E0009B09633071058105910578F3F801148219
:1034F00015820E9431244B015C0160E0C8010E94EA
:10350000081D882359F00E943124681979098A0915
:103510009B09633071058105910578F3E12CF12C4D
:103520000E9431244B015C0160E0C8010E94081D2B
:1035300081110BC00E943124681979098A099B09FD
:10354000633071058105910578F30E943D244B019C
:103550005C010E9431242B013C0160E0C8010E9403
:10356000081D882359F00E943124641975098609C1
:103570009709633071058105910578F30E943D2418
:10358000681979098A099B09F70123E0F595E79500
:103590002A95E1F7693271058105910530F0EC0D4E
:1035A000FD1D8081880F816004C0EC0DFD1D8081B0
:1035B000880F8083FFEFEF1AFF0A88E2E816F10414
:1035C00009F0AECF59814B81842F90E0850F911D7A
:1035D0002D8130E08217930719F4F8015483458355
:1035E0000F900F900F900F900F90DF91CF911F9140
:1035F0000F91FF90EF90DF90CF90BF90AF909F9092
:103600008F907F906F905F904F900895FC016111B3
:1036100002C08481089585810895CF93DF93EC01E2
:103620000E948A1E8FE791E09983888388A1FE011A
:10363000E858FF4F80838F8DC758DF4F8883DF9115
:10364000CF910895CF93DF93EC0140E855E260E01D
:1036500070E00E94C71E60E08F8DDF91CF910C94C7
:10366000EE251F93CF93DF93EC018BA1882319F0F4
:10367000CE010E94041F60E0CE014F960E94F71C0D
:10368000182F8BA1882319F0CE010E94221B81E004
:103690008127DF91CF911F91089586589F4FFC019C
:1036A00080810895CF93DF93EC010E94311B882322
:1036B000A1F0CE010E947F1F181619068CF4E88134
:1036C000F9810680F781E02DCE0109958F3F9105A4
:1036D0003CF4C658DF4F888303C0C658DF4F1882BA
:1036E000DF91CF9108950E945E1F9927089560E0B1
:1036F0000C94E11C613049F40E94391D8A5E9140AE
:1037000020911606309117060AC0623059F40E94C3
:103710003D1D8A5E91402091140630911506820F5E
:10372000931F089580E090E00895089570E0FB01F4
:10373000E45BFD4FE491DC01EC93FB01E659FD4FA6
:10374000E491F0E0EE0FFF1FE857FD4F2591349113
:10375000FC013283218308951F93CF93DF93FC01F3
:103760001081C181D2819981812F8095892389839C
:103770008A81812B8A838AE090E00E948824988144
:10378000912381E009F480E0DF91CF911F910895AA
:10379000FF920F931F93CF93DF93FC011081C181A0
:1037A000D281F8948981F12EF0948F2189838A81C6
:1037B000812B8A8378940DE7015041F182E090E0FB
:1037C0000E94882488818123B9F3F8948A818F210B
:1037D0008A838981812B8983789480EE91E00E948D
:1037E0008824F89489818F2189838A81812B8A8317
:1037F00086E490E00E9488248881812301E009F01A
:1038000000E078948AE991E00E948824802FDF917B
:10381000CF911F910F91FF9008951F93CF93DF9346
:10382000FC011081C181D281912F909560FF12C05F
:10383000F8948A8189238A838981812B89838AE00C
:1038400090E00E9488248A81812B8A83789487E380
:1038500090E011C0F8948A8189238A838981812B21
:10386000898381E490E00E9488248A81812B8A8365
:10387000789485E090E0DF91CF911F910C9488249B
:103880000F931F93CF93DF93FC011081C181D281ED
:10389000F8948981812B89838A81012F0095802367
:1038A0008A8383E090E00E94882489818023898331
:1038B0008A81812B8A838AE090E00E948824C881D3
:1038C000789485E390E00E9488241C2381E009F429
:1038D00080E0DF91CF911F910F910895CF92DF92F9
:1038E000EF92FF920F931F93CF93DF931F92CDB769
:1038F000DEB76C01E62E08E010E0FF24F39461E0EF
:103900009F2D9E2109F460E0C60149830E940D1C91
:10391000FF0C0150110949810115110581F7411171
:103920001DC0F894D6011196ED91FC9112979181EA
:103930008C918095892381831196ED91FC9112974A
:1039400082819C91892B82831196ED91FC91129733
:1039500092818C9180958923828378940F90DF9156
:10396000CF911F910F91FF90EF90DF90CF9008952E
:10397000EF92FF920F931F93CF93DF938C01C8E0D8
:10398000D0E0F12CEE24E394C8010E94401C811188
:10399000FE28EE0C2197C1F78F2DDF91CF911F915B
:1039A0000F91FF90EF90089540E06CEC0C946E1C2A
:1039B000FC01809122018083809123018183128206
:1039C0000895DC01E62FF0E0EE0FFF1FEE5DFE4FE5
:1039D00080818C93818111968C93119712966C93B0
:1039E0000895FC0182810895FC0183810895CF939D
:1039F000DF93EC0188810E94EE2588810E945D267C
:103A000021E0892B09F420E0822FDF91CF910895E6
:103A1000CF93DF93EC0189810E94EE2589810E947A
:103A20005D2621E0892B09F420E0822FDF91CF91E0
:103A300008951F93CF93DF93EC01162F61E08881E7
:103A40000E94EE25612F8881DF91CF911F910C9408
:103A500027261F93CF93DF93EC01162F61E0898116
:103A60000E94EE25612F8981DF91CF911F910C94E7
:103A70002726FC0180810C94E924FC0181810C94AF
:103A8000E924FC0180810C941A25DC01E62FF0E08A
:103A9000EE0FFF1FEE5DFE4F80818C9381811196AA
:103AA0008C93119712966C930895DC01E62FF0E049
:103AB000EE0FFF1FEE5DFE4F80818C93818111968A
:103AC0008C93119712966C93129713964C930895BA
:103AD000FC0180810895FC0181810895DC0112962A
:103AE0006C931297E62FF0E0EE0FFF1FEE5DFE4F96
:103AF000918111969C93119780818C934230D9F4D7
:103B0000292F30E0F901E45BFD4FE4911C96EC9322
:103B10001C97F901E659FD4FE491F0E0EE0FFF1F0D
:103B2000EA56FD4F2591349119963C932E931897A0
:103B300061E0892F19C0282F30E0F901E45BFD4FC7
:103B4000E4911C96EC931C97F901E659FD4FE49122
:103B5000F0E0EE0FFF1FEA56FD4F259134911996C4
:103B60003C932E93189761E00C94EE25CF93DF934E
:103B7000EC01262F30E03D832C8323E0629FC001BF
:103B800011240E94F0349F838E83892B21F48BE8CB
:103B900091E00E94F13680E090E04C815D819A01D5
:103BA000220F331F240F351F8217930738F4EE813D
:103BB000FF81E80FF91F10820196EFCFDF91CF91BF
:103BC0000895CF93DF93EC010E94D81C60E2CE01F0
:103BD000DF91CF910C94B61D0F93FC01A62FB0E09E
:103BE00084819581A817B907B8F4862F880F860FAE
:103BF00090E0A681B781A80FB91F2C93A681B78149
:103C0000A80FB91F11964C930680F781E02DE80F9D
:103C1000F91F028381E001C080E00F910895CF92E7
:103C2000DF92EF92FF920F931F93CF93DF937C016C
:103C3000142FD22EC02E611113C0C0E0D0E0F701C6
:103C400084819581C817D90748F40C2D2D2D412F5B
:103C50006C2FC7010E94EC1D2196F1CF81E004C0BA
:103C600061500E94EC1D80E0DF91CF911F910F9178
:103C7000FF90EF90DF90CF9008950F93022F242FA5
:103C8000462F60E00E940F1E0F9108950F931F931F
:103C9000D8013FB7F8949C91822F80958923292BD6
:103CA000FB01460F571FE417F50781F0919168E07B
:103CB0002C9300C097FF8C93990F00C000C000C0E8
:103CC00008F48C9300C06A9599F7EDCF3FBF1F9120
:103CD0000F9108950F931F93FC0100851185248196
:103CE0003581A901440F551F420F531F668177810B
:103CF00024850E94461E1F910F910895CF93DF9354
:103D0000EC018E819F810E9488351F821E82DF9187
:103D1000CF910895FF920F931F93CF93DF93EC0100
:103D2000F62E8C01015E1F4FC8010E94E11CEF2D91
:103D3000F0E0EE0FFF1FEE5DFE4F20E0408161815D
:103D4000CE010E94D4118DEA91E09983888361EEBF
:103D500071E0CE0182599F4F0E944B2E1DA21BA2E3
:103D60001CA288A1FE01EA58FF4F80838F8D3196F7
:103D70008083C8010E94F11C91E0843009F090E03A
:103D80009BA3DF91CF911F910F91FF900895CF9248
:103D9000DF92EF92FF92CF93DF93EC016A017B01F8
:103DA00060E472E48FE090E0A70196010E94B134D4
:103DB0003FA32EA38BA18823E1F08DA1882361F07E
:103DC000B701A60181E296E0DF91CF91FF90EF90DD
:103DD000DF90CF900C946F2726E0B701A60181E712
:103DE00096E0DF91CF91FF90EF90DF90CF900C9411
:103DF0007528B701A601CE01DF91CF91FF90EF901A
:103E0000DF90CF900C940412FC0123A1222321F017
:103E100081E796E00C94D7280C94AB12CF92DF92F6
:103E2000EF92FF920F931F93CF93DF93FC01C6A1F4
:103E3000D7A123976C01F6E7CF0ED11CF601808144
:103E40000E945D26892BF1F400E010E0E12CF12CBA
:103E5000CE010E948824F60180810E945D26002EFA
:103E600002C0880F991F0A94E2F7E82AF92A0F5F27
:103E70001F4F0830110561F7CE010E948824C70149
:103E8000992702C08FEF9FEFDF91CF911F910F9184
:103E9000FF90EF90DF90CF900895FC0123A12223A3
:103EA00059F085A1882321F081E296E00C94B22696
:103EB00081E796E00C9410280C942F10FC0184A14B
:103EC000882359F080A591A52FEF3FEF31A720A7B8
:103ED00097FF14C0CF010C940E1F83A1882359F0C3
:103EE00085A1882321F081E296E00C94EC2681E7FD
:103EF00096E00C94AB27CF010C940E100895CF934D
:103F0000DF93EC018CA1882371F0CE010E940E1F7B
:103F100088A799A7892F8095881F8827881F90E0F8
:103F2000DF91CF9108958BA1882379F08DA188230B
:103F300031F081E296E0DF91CF910C94DC2681E7AD
:103F400096E0DF91CF910C949227CE01DF91CF9133
:103F50000C949B10CF93DF93EC018E81813011F490
:103F600060E001C061E08A810E94272661E08B81C8
:103F70000E94272681E090E00E94882460E08B81E7
:103F8000DF91CF910C942726CF93DF93EC0160E073
:103F900002960E94E11C8DEB91E099838883DF916A
:103FA000CF910895CF93DF93EC0102960E94E11C1C
:103FB0008DEB91E0998388831F82188619861A8673
:103FC0001B861C861D861E861F8A188E198E1A8EC9
:103FD0000E943D246F8F78A389A39AA31F86188A15
:103FE000198A1A8A81E08E831F82188619861A869A
:103FF0001B861C861D861E861BA21CA21DA21EA23D
:104000001B8E1C8E1D8E1E8E61E08A810E94EE2505
:1040100061E08B81DF91CF910C94EE250F931F937C
:10402000CF93DF93EC014B8D5C8D6D8D7E8D452B99
:10403000462B472B11F480E035C00E943D240F8DA4
:1040400018A129A13AA1601B710B820B930B0B8D58
:104050001C8D2D8D3E8D061717072807390758F739
:104060008E814F81588569857A85813029F44F5F2B
:104070005F4F6F4F7F4F04C0415051096109710973
:104080004F83588769877A87E881F9810190F081A9
:10409000E02DCE0109950E943D246F8F78A389A35E
:1040A0009AA381E0DF91CF911F910F9108952F92F4
:1040B0003F924F925F926F927F928F929F92AF92B8
:1040C000BF92CF92DF92EF92FF920F931F93CF9305
:1040D000DF9300D000D000D0CDB7DEB79E838D83B4
:1040E000FC01C384D484E584F68487819085A1850E
:1040F000B285C81AD90AEA0AFB0A678570898189DC
:1041000092899B01AC010E94B6324B015C01ED81AA
:10411000FE816789708D818D928D9B01AC010E941B
:10412000D92F9B01AC01C501B4010E94A3300E94AC
:104130000B31C114D104E104F104A9F4623071051A
:10414000810591050CF082C0ED81FE81138E148EE5
:10415000158E168E1786108A118A128A13A214A23F
:1041600015A216A20AC1ED81FE8103A114A125A109
:1041700036A11C141D041E041F040CF51016110694
:10418000120613064CF46C157D058E059F056CF523
:10419000268121115BC029C00115110521053105BA
:1041A00009F454C06C157D058E059F050CF04EC0BA
:1041B000ED81FE818681813009F048C03CC0101637
:1041C0001106120613060CF50027112798010C1989
:1041D0001D092E093F0960177107820793072CF408
:1041E000ED81FE812681213089F59B01AC01882774
:1041F0009927DC01821B930BA40BB50BED81FE818B
:1042000083A394A3A5A3B6A321C00115110521057D
:104210003105E1F08824992454018C189D08AE08DA
:10422000BF08681579058A059B0584F4ED81FE8138
:10423000868181110BC030952095109501951F4FF7
:104240002F4F3F4F03A314A325A336A3ED81FE8177
:1042500083A094A0A5A0B6A081149104A104B104E8
:1042600099F487A190A5A1A5B2A583A794A7A5A716
:10427000B6A781E01C141D041E041F040CF080E08E
:10428000ED81FE81868342C0ED81FE81C3A4D4A46A
:10429000E5A4F6A4A7019601C701B6010E94D92F93
:1042A0002B013C01C501B4010E943E3120E030E009
:1042B00040E850E40E94B63220E030E040E85FE39E
:1042C0000E94D92F9B01AC01C301B2010E94A3300F
:1042D0009B01AC01C701B6010E94D82F1B012C0124
:1042E000ED81FE8167A470A801A912A99301A8011C
:1042F0000E946632181614F431018201A301B8013C
:10430000ED81FE8143A754A765A776A7FFEF8F1A1B
:104310009F0AAF0ABF0AED81FE8183A294A2A5A2E3
:10432000B6A223A534A545A556A5CA01B90129837E
:104330003A834B835C830E941031ED81FE81638F51
:10434000748F858F968F29813A814B815C8160E0E3
:1043500074E284E799E40E94A330ED81FE816787CF
:10436000708B818B928B2681211107C0DC01CB01E0
:10437000B0588787908BA18BB28B26960FB6F89496
:10438000DEBF0FBECDBFDF91CF911F910F91FF9088
:10439000EF90DF90CF90BF90AF909F908F907F90E5
:1043A0006F905F904F903F902F9008950F931F93C1
:1043B000FC01038514852585368504171507260716
:1043C000370741F043875487658776871F910F91A0
:1043D0000C9457201F910F910895CF92DF92EF9286
:1043E000FF92CF93DF93EC016A017B019A01AB014D
:1043F0006B897C898D899E890E949F30882309F46E
:1044000040C0CB8ADC8AED8AFE8AA701960160E073
:1044100074E284E799E40E94A3306FA778AB89AB7C
:104420009AAB8BA19CA1ADA1BEA1181619061A06C4
:104430001B063CF56F85788989899A899B01AC01B7
:104440000E94B6326B017C016F89788D898D9A8DBF
:104450009B01AC010E94D92F9B01AC01C701B601A1
:104460000E94A3300E940B316BA37CA38DA39EA35B
:10447000CE01DF91CF91FF90EF90DF90CF900C9421
:104480005720DF91CF91FF90EF90DF90CF9008956C
:104490006F927F928F929F92AF92BF92CF92DF9254
:1044A000EF92FF920F931F93CF93DF93EC013A01AA
:1044B0008B012F85388949895A89B301C8010E9427
:1044C0009F30882309F44FC0CB88DC88ED88FE88B4
:1044D00046015701B7FAB094B7F8B094A50194011A
:1044E000B301C8010E949F3087FD0BC0A701960150
:1044F000B301C8010E94663218162CF436018701F8
:1045000002C03401850120E030E0A901B301C801F7
:104510000E949F30811105C01B8E1C8E1D8E1E8E29
:104520001CC09301A80160E074E284E799E40E9452
:10453000A3309F770E9410316B8F7C8F8D8F9E8F61
:10454000FF24F39420E030E0A901B301C8010E94E8
:10455000663218160CF0F12CFE82C301D8018F8749
:10456000988BA98BBA8BDF91CF911F910F91FF9000
:10457000EF90DF90CF90BF90AF909F908F907F9003
:104580006F9008950F931F93FC0103851485258573
:104590003685478150856185728504171507260782
:1045A000370771F040175107620773071CF421E0C9
:1045B000268302C0FC0116821F910F910C940E20DD
:1045C00080E01F910F910895CF93DF93EC010E943B
:1045D000D81CCE010496DF91CF910C94951B1F93AC
:1045E000CF93DF93EC01142F0E94551D123011F46C
:1045F000698101C06881CE010496DF91CF911F913E
:104600000C94961BCF92DF92EF92FF920F931F9321
:10461000CF93DF93CDB7DEB72C970FB6F894DEBFFC
:104620000FBECDBF8C010C5F1F4FC8010E94C81B7D
:10463000C8010E94D41C40E064E4C8010E946E1CC2
:104640000E9431246B017C01C8010E94AC1B8111C6
:104650000BC00E9431246C197D098E099F096E3EA2
:1046600072408105910580F3C8010E94C81BC801F2
:104670000E94D41C40E06EEBC8010E946E1CCE016B
:1046800001967C016E0196E0C90ED11CC8010E9402
:10469000B81CF70181937F01EC15FD05B9F76A811C
:1046A00070E0762F66278981682B882777FD8095B3
:1046B000982F0E943E3120E030E040E85DE30E9408
:1046C000B6322C960FB6F894DEBF0FBECDBFDF9189
:1046D000CF911F910F91FF90EF90DF90CF900895B1
:1046E00060E00C94E11CCF93DF93EC016C834D836D
:1046F0008C8161E00E94EE258D8160E00E94EE25B4
:104700008C8188838D818983DF91CF91089560E0CA
:104710000C94081D60E00C94E11CCF92DF92EF92A4
:10472000FF92CF93DF9300D000D0CDB7DEB77C01EE
:104730009A01AB0160E029833A834B835C830E943A
:10474000291D82E090E00E94882461E0C7010E9458
:10475000291D8AE090E00E94882460E0C7010E9441
:10476000291D60E0F70181810E94EE2529813A81AF
:104770004B815C8161E0F70181810E9486266B019B
:104780007C0184E690E00E948824C701B6010F9066
:104790000F900F900F90DF91CF91FF90EF90DF90EF
:1047A000CF90089527E3269FA001279F500D112445
:1047B00048535F4F60E070E00E948D230E943E31BD
:1047C00020E030E048E652E40E94A33008951F92B2
:1047D0000F920FB60F9211242F933F938F939F93B5
:1047E000AF93BF938091190690911A06A0911B0672
:1047F000B0911C063091180623E0230F2D3720F4CA
:104800000196A11DB11D05C026E8230F0296A11D2A
:10481000B11D209318068093190690931A06A09351
:104820001B06B0931C0680911D0690911E06A09158
:104830001F06B09120060196A11DB11D80931D0693
:1048400090931E06A0931F06B0932006BF91AF91D0
:104850009F918F913F912F910F900FBE0F901F90BE
:1048600018952FB7F8946091190670911A068091E7
:104870001B0690911C062FBF08953FB7F8948091B6
:104880001D0690911E06A0911F06B091200626B528
:10489000A89B05C02F3F19F00196A11DB11D3FBF78
:1048A0006627782F892F9A2F620F711D811D911D08
:1048B00042E0660F771F881F991F4A95D1F7089528
:1048C000CF92DF92EF92FF92CF93DF936B017C0147
:1048D0000E943D24EB01C114D104E104F10489F0EC
:1048E0000E94942E0E943D246C1B7D0B683E7340F9
:1048F00090F381E0C81AD108E108F108C851DC4FF3
:10490000EACFDF91CF91FF90EF90DF90CF900895A5
:104910008230910538F0880F991F880F991F0597ED
:104920000197F1F70895789484B5826084BD84B5C9
:10493000816084BD85B5826085BD85B5816085BD9A
:10494000EEE6F0E0808181608083E1E8F0E01082B3
:10495000808182608083808181608083E0E8F0E0F4
:10496000808181608083E1E9F0E0808182608083E2
:10497000808181608083E0E9F0E0808181608083D4
:10498000E1ECF0E0808184608083808182608083BC
:10499000808181608083E3ECF0E0808181608083AE
:1049A000E0ECF0E0808182608083E2ECF0E08081E6
:1049B00081608083EAE7F0E0808184608083808189
:1049C0008260808380818160808380818068808331
:1049D0000895823108F08251E82FF0E0EE5DFD4F3E
:1049E000E49180917B00E3FB222720F930E095E001
:1049F000220F331F9A95E1F78F7D822B80937B00E6
:104A0000E7708091400120E4829FC0011124E82BCF
:104A1000E0937C0080917A00806480937A0080919A
:104A20007A0086FDFCCF809178002091790090E09B
:104A3000922B08951F93CF93DF93182FEB0161E022
:104A40000E94EE25209711F460E004C0CF3FD1050D
:104A500039F461E0812FDF91CF911F910C942726CB
:104A6000E12FF0E0E25DFD4F449150E0FA01319713
:104A7000EF30F10508F06CC0E657FF4F0C94D034CE
:104A800084B5806884BDC7BD68C084B5806284BDBC
:104A9000C8BD63C080918000806880938000D093FF
:104AA0008900C093880059C0809180008062809303
:104AB0008000D0938B00C0938A004FC0809180000B
:104AC000886080938000D0938D00C0938C0045C097
:104AD00080919000806880939000D0939900C0935B
:104AE00098003BC080919000806280939000D093AA
:104AF0009B00C0939A0031C08091900088608093A1
:104B00009000D0939D00C0939C0027C08091C0006E
:104B100080688093C0008091C0008F7B8093C0002C
:104B2000C093CF001AC08091C00080628093C00003
:104B3000C093D00012C08091C20088608093C200F0
:104B40008091C2008B7F8093C200C093D20005C0C9
:104B5000C038D1050CF07DCF77CFDF91CF911F9179
:104B6000089590E0FC013197EF30F105B0F5E7567C
:104B7000FF4F0C94D034809180008F7703C08091D8
:104B800080008F7D80938000089580918000877FD2
:104B9000F9CF84B58F7702C084B58F7D84BD089529
:104BA000809190008F7707C0809190008F7D03C027
:104BB00080919000877F8093900008958091C0003D
:104BC0008F7703C08091C0008F7D8093C0000895CF
:104BD0008091C200877F8093C2000895CF93DF93B6
:104BE00090E0FC01E45BFD4F2491FC01E659FD4F90
:104BF0008491882349F190E0880F991FFC01EC55BE
:104C0000FD4FA591B4918A569D4FFC01C591D49159
:104C10009FB7611108C0F8948C91209582238C93E2
:104C2000888182230AC0623051F4F8948C91322F2B
:104C3000309583238C938881822B888304C0F894D9
:104C40008C91822B8C939FBFDF91CF9108950F930E
:104C50001F93CF93DF931F92CDB7DEB7282F30E09D
:104C6000F901E25DFD4F8491F901E45BFD4F149180
:104C7000F901E659FD4F04910023C9F0882321F082
:104C800069830E94B1256981E02FF0E0EE0FFF1FDC
:104C9000EA56FD4FA591B4919FB7F8948C9161119C
:104CA00003C01095812301C0812B8C939FBF0F906F
:104CB000DF91CF911F910F910895CF93DF93282F0C
:104CC00030E0F901E25DFD4F8491F901E45BFD4FB5
:104CD000D491F901E659FD4FC491CC2391F0811193
:104CE0000E94B125EC2FF0E0EE0FFF1FE857FD4FBB
:104CF000A591B4912C912D2381E090E021F480E0E6
:104D000002C080E090E0DF91CF9108950F931F9350
:104D1000762F90E0FC01E45BFD4F6491FC01E659C5
:104D2000FD4FE4917111762FF0E0EE0FFF1FE85771
:104D3000FD4F8591949189019A013F70472F0E9400
:104D40005002611571058105910531F06F5F7F4F4C
:104D50008F4F9F4F9F7003C060E070E0CB011F91A9
:104D60000F910895CF93DF931F92CDB7DEB769837C
:104D7000DC01ED91FC910280F381E02D41E050E0F7
:104D8000BE016F5F7F4F09950F90DF91CF9108951E
:104D9000CF93DF93EC018C859D8597FF05C082E062
:104DA0000E94C32A9D878C878C859D85DF91CF913A
:104DB000089583E00C94182DFC018485958597FD5A
:104DC00006C082E00E946B2A90E00196089582E07E
:104DD0000E946B2A90E00895FC018485958597FDDB
:104DE00005C02FEF3FEF35872487089582E00C94AC
:104DF000C32ACF93DF93EC0180914801882331F0DF
:104E000083E00E94F42A1816190634F081E090E03D
:104E10009B838A8380E090E0DF91CF910895FC012D
:104E200020812E5F208342E450E062EB72E080E854
:104E30000C948F2BFC0181819081913A59F481323D
:104E400009F03CC047E050E061E471E080E00E947E
:104E50008F2B43C0913291F5803239F467E070E0D6
:104E600081E491E00E94C02B06C0823209F035C077
:104E70008281809348018091410190914201A091EB
:104E80004301B0914401803B9440A105B105C1F4B8
:104E90008091480180FD14C087E797E7909301084F
:104EA000809300082BE088E190E00FB6F894A89575
:104EB000809360000FBE209360000FC080E00895D3
:104EC00088E10FB6F89480936000109260000FBEE6
:104ED000A895109201081092000881E008952FEF24
:104EE0003FEFFC0135872487089510922406109225
:104EF000230688EE93E0A0E0B0E08093250690932F
:104F00002606A0932706B093280683EC91E09093A1
:104F10002206809321068FEF9FEF90932E068093B9
:104F20002D060895FC01818D228D90E0805C9F4FBD
:104F3000821B91098F7399270895FC01918D828DB1
:104F4000981731F0828DE80FF11D858D90E008955E
:104F50008FEF9FEF0895FC01918D828D981761F07E
:104F6000828DDF01A80FB11D5D968C91928D9F5FA0
:104F70009F73928F90E008958FEF9FEF08958BE4D9
:104F800099E2892B49F080E090E0892B29F00E947A
:104F90004B2981110C9400000895FC01848DDF01E0
:104FA000A80FB11DA35ABF4F2C91848D90E001969C
:104FB0008F739927848FA689B7892C93A089B1898B
:104FC0008C9180648C93938D848D981306C0028895
:104FD000F389E02D80818F7D80830895CF93DF93C7
:104FE000EC01888D8823C9F0EA89FB89808185FDE1
:104FF00005C0A889B9898C9186FD0FC00FB607FC42
:10500000F5CF808185FFF2CFA889B9898C9185FF82
:10501000EDCFCE010E94CD27E7CFDF91CF9108954C
:10502000CF92DF92FF920F931F93CF93DF931F9244
:10503000CDB7DEB76C0181E0D60158968C935897B6
:105040005B969C915B975C968C915C97981307C0DC
:105050005096ED91FC915197808185FD2EC0F6010F
:10506000038D10E00F5F1F4F0F731127F02EF60115
:10507000848DF81211C00FB607FCF9CFD6015096F7
:10508000ED91FC915197808185FFF1CFC601698335
:105090000E94CD276981EBCF838DE80FF11DE35A84
:1050A000FF4F6083D6015B960C935B975296ED9110
:1050B000FC915397808180620CC0D6015696ED9189
:1050C000FC91579760835096ED91FC9151978081A8
:1050D0008064808381E090E00F90DF91CF911F91F9
:1050E0000F91FF90DF90CF900895BF92CF92DF9203
:1050F000EF92FF92CF93DF93EC016A017B01B22E16
:10510000E889F98982E08083411581EE58076105BD
:105110007105A1F060E079E08DE390E0A7019601D0
:105120000E948F3421503109410951095695479504
:1051300037952795211580E1380798F0E889F98996
:10514000108260E874E88EE190E0A70196010E9469
:105150008F342150310941095109569547953795AA
:105160002795EC85FD853083EE85FF852083188E9D
:10517000EC89FD89B082EA89FB8980818061808326
:10518000EA89FB89808188608083EA89FB89808144
:1051900080688083EA89FB8980818F7D8083DF91AD
:1051A000CF91FF90EF90DF90CF90BF900895FC01DA
:1051B000938D848D9813FCCFA289B3898C918F7EB7
:1051C0008C93A289B3898C91877F8C93A289B389B0
:1051D0008C918F778C93A289B3898C918F7D8C93DE
:1051E000828D818F08951F920F920FB60F92112416
:1051F0002F938F939F93EF93FF93E0918106F0910C
:1052000082068081E0918706F091880682FD12C0B7
:10521000908180918A068F5F8F7320918B06821711
:1052200051F0E0918A06F0E0EF58F94F958F8093A6
:105230008A0601C08081FF91EF919F918F912F91FC
:105240000F900FBE0F901F9018951F920F920FB6E0
:105250000F9211242F933F934F935F936F937F93FC
:105260008F939F93AF93BF93EF93FF9381E796E064
:105270000E94CD27FF91EF91BF91AF919F918F91A8
:105280007F916F915F914F913F912F910F900FBE42
:105290000F901F90189581E796E00E94922721E0D9
:1052A000892B09F420E0822F089510927406109241
:1052B000730688EE93E0A0E0B0E0809375069093CB
:1052C0007606A0937706B093780683ED91E09093ED
:1052D0007206809371068DEC90E090937E06809329
:1052E0007D068CEC90E09093800680937F0688EC9E
:1052F00090E0909382068093810689EC90E09093F1
:105300008406809383068AEC90E0909386068093CF
:1053100085068EEC90E09093880680938706109225
:105320008A0610928B0610928C0610928D060895B4
:1053300008950E9493240E9498298EE097E00E948D
:10534000782D0E949502CFEBD7E20E94C50A2097E4
:10535000E1F30E94BF27F9CF0C94F0340C94883508
:10536000CF92DF92EF92FF920F931F93CF93DF9331
:105370006C017A01EB01E60EF71E00E010E0CE159D
:10538000DF0561F06991D601ED91FC910190F0810A
:10539000E02DC6010995080F191FF1CFC801DF9153
:1053A000CF911F910F91FF90EF90DF90CF900895D4
:1053B0006115710581F0DB010D900020E9F7AD0169
:1053C00041505109461B570BDC01ED91FC910280C5
:1053D000F381E02D099480E090E008956FED71E095
:1053E0000C94D8294091120750911307209110076F
:1053F0003091110742175307B4F49091E80095706B
:10540000E1F39091E80092FD19C08093F100809142
:1054100012079091130701968F739927892B19F41E
:105420008EEF8093E8008091120790911307019608
:10543000909313078093120781E0089580E0089508
:10544000CF92DF92FF920F931F93CF93DF931F9220
:10545000CDB7DEB7082F162F862F880F8E5F998362
:105460000E94F22983E00E94F229F02EC02E998139
:10547000D92E8C2D8F19811778F4F60184910E9412
:10548000F229082F80E00E94F2298023FFEFCF1A33
:10549000DF0A8111EECF01C081E00F90DF91CF9143
:1054A0001F910F91FF90DF90CF900895615030F0E1
:1054B0002091F100FC0120830196F8CF289884E622
:1054C0008093150708952FB7FC012083F894677027
:1054D0006093E9000895CF93DF931F92CDB7DEB7B5
:1054E000682FCE0101960E94632A8091F200998173
:1054F0009FBF0F90DF91CF910895FF920F931F935D
:10550000CF93DF9300D0CDB7DEB7F62E8A0190910E
:105510001407992311F057FF03C08FEF9FEF2BC0A3
:10552000682FCE0101967A830E94632A8091F2004F
:1055300090E0A8017A81801791070CF4AC01EF2D5F
:10554000F72FF40E84E6FE1639F02898809315079D
:105550009091F1009193F7CF4115510521F0809181
:10556000F200882321F089818FBFCA0104C08BE635
:105570008093E800F8CF0F900F90DF91CF911F91AB
:105580000F91FF900895CF93DF931F92CDB7DEB7B1
:1055900041E050E0BE016F5F7F4F0E947D2A01977E
:1055A00019F4898190E002C08FEF9FEF0F90DF9197
:1055B000CF910895CF93DF931F92CDB7DEB7682FB9
:1055C000CE0101960E94632A9091E800892F807293
:1055D00095FF04C09091F20080E4891B99819FBFE0
:1055E0000F90DF91CF9108956F927F928F929F924B
:1055F000AF92BF92CF92DF92EF92FF920F931F93E1
:10560000CF93DF931F92CDB7DEB7782E7B01C42EE8
:10561000B52E80911407882369F0042F152F8AEF87
:10562000D82E872D8072982E9AE3A92E872D80740C
:10563000882E11C08FEF9FEF57C0872D0E94DA2A66
:10564000682E81110CC0DA94A9F361E070E080E06B
:1056500090E00E9460240115110579F73BC0282FC6
:1056600030E0021713070CF4602E672DCE0101966F
:105670000E94632A8091E80085FF29C0262D30E032
:10568000021B130B992039F06A948FEF6816B1F062
:105690001092F100F9CFF701862D77FE07C08150F7
:1056A00058F094919093F1003196F9CF815020F009
:1056B00091919093F100FACFE20EF31E8091E800F1
:1056C00085FF0FC00115110511F481100AC08981F1
:1056D0008FBFC1CF5D9884E6809316078C2D9B2DDC
:1056E00003C0A092E800F3CF0F90DF91CF911F91FC
:1056F0000F91FF90EF90DF90CF90BF90AF909F9071
:105700008F907F906F9008951092E9001092130788
:105710001092120790931107809310070895CF926B
:10572000DF92FF920F931F93CF93DF9300D0CDB7FB
:10573000DEB7F82E8A016B0101151105B1F0F601F3
:10574000F7FE02C0849101C0808149835A830E9480
:10575000F22901501109FFEFCF1ADF0A49815A815E
:105760008111EACF8FEF9FEF01C0CA010F900F9018
:10577000DF91CF911F910F91FF90DF90CF9008950F
:105780001F93CF93DF931F92CDB7DEB7162F2091D3
:10579000E80022FFFCCF612F79830E94562A8BEF0D
:1057A0008093E800812F7981972F0F90DF91CF911F
:1057B0001F910895CF93DF931F92CDB7DEB7198263
:1057C000CE0101960E940F27CE0101960E94B32EB2
:1057D000898190E00F90DF91CF9108951F920F92F1
:1057E0000FB60F921124EF92FF920F931F932F93F6
:1057F0003F934F935F936F937F938F939F93AF9359
:10580000BF93EF93FF93CF93DF93CDB7DEB762974C
:10581000DEBFCDBF1092E9008091E80083FFEBC0AE
:1058200068E0CE010A960E94562A82EF8093E80033
:105830009A8597FF05C08091E80080FFFCCF03C0E8
:105840008EEF8093E800892F807609F0B9C08B85B0
:10585000811105C01092F1001092F100C5C0282FEF
:105860002D7F213009F4C0C0853049F48091E800D3
:1058700080FFFCCF8C8580688093E300B5C08630C4
:1058800009F076C02D85E888F988223071F580E02E
:1058900090E02A8B0E94842B0E94DA2B99E08E01E3
:1058A0000F5F1F4FF801392F11923A95E9F799834D
:1058B0002A892A8391E09E8390E898879AEF9987B6
:1058C0002091120730911307275F3F4F3C832B83B2
:1058D0008D83C7010E94842B49E050E0B80180E02D
:1058E0000E948F2B0E94DA2B7FC0C7012A8B0E9457
:1058F000842B2A89223241F482E290E00E94BE2E5B
:10590000892B09F071C074C0213069F488899989A4
:10591000089711F420930F0780910F07811118C089
:105920006BE073E01AC0233009F062C08C858823D5
:1059300091F0823021F460E189E293E006C0813089
:1059400009F056C06BE08DE193E00E94202A4AC026
:1059500069EF72E002C06AE373E06115710509F452
:1059600047C0FB01449150E080E80E948F2B3CC06F
:10597000873009F43DC0883021F481E08093F10044
:1059800033C0893089F5937099F5E5EFF2E081E055
:1059900021E096E38093E9002093EB00349130936B
:1059A000EC009093ED008F5F3196853099F78EE78C
:1059B0008093EA001092EA008C858093140714C04B
:1059C000888999890E94842B8E85811105C0CE011A
:1059D0000A960E941A2706C0823051F4CE010A9618
:1059E0000E94E62E882321F08EEF8093E80003C00A
:1059F00081E28093EB0062960FB6F894DEBF0FBE93
:105A0000CDBFDF91CF91FF91EF91BF91AF919F916A
:105A10008F917F916F915F914F913F912F911F9146
:105A20000F91FF90EF900F900FBE0F901F90189561
:105A30008093E9008091F200882319F08AE3809333
:105A4000E80008951F920F920FB60F9211242F9322
:105A50003F934F935F936F937F938F939F93AF93F6
:105A6000BF93EF93FF938091E1001092E10083FFD9
:105A70000FC01092E90091E09093EB001092EC00BF
:105A800092E39093ED001092140798E09093F00049
:105A900082FF1DC083E00E94182D80911607882385
:105AA00039F080911607815080931607882369F09A
:105AB00080911507882359F08091150781508093B4
:105AC0001507811104C0289A02C05D9AF1CFFF9199
:105AD000EF91BF91AF919F918F917F916F915F9166
