:100000000C9449020C9471020C9471020C947102CC
:100010000C9471020C9471020C9471020C94F61AF7
:100020000C9471020C9471020C9471020C9483274D
:100030000C9471020C9471020C9471020C94710274
:100040000C9477290C9471020C940C2D0C943E2D79
:100050000C9471020C9471020C9471020C94710254
:100060000C94550C0C947102EC08040726073C070D
:100070003C075507DF083C075C095C095C095C0923
:100080005C096A078607BE075C09D207B3075C09EB
:100090005C090308360978089108B30856085C091A
:1000A0005C095C09FB0803095C095C095C093C0804
:1000B0005C095C095C095C095C095C095C095C0918
:1000C0005C095C095C095C095C095C091809230985
:1000D000084AD73B3BCE016E84BCBFFDC12F3D6CAF
:1000E00074319ABD56833DDA3D00C77F11BED9E415
:1000F000BB4C3E916BAAAABE000000803F080000E6
:1001000000BE922449123EABAAAA2ABECDCCCC4C4A
:100110003E00000080BEABAAAAAA3E00000000BFBD
:10012000000000803F0000000000084178D3BB437E
:1001300087D1133D190E3CC3BD4282AD2B3E68EC06
:100140008276BED98FE1A93E4C80EFFFBE01C4FF8D
:100150007F3F000000000007634236B79BD8A71A14
:1001600039685618AEBAAB558C1D3CB7CC5763BD39
:100170006DEDFD753EF6177231BF000000803F0047
:100180000E000F00100011001200130014001500E3
:100190003F065B4F666D7D077F6F777C395E7971B7
:1001A000BF86DBCFE6EDFD87FFEFF7FCB9DEF9F1A7
:1001B00000407C447C007C005C547454547C70107F
:1001C0007C74545C7C545C40407C7C547C74547CD7
:1001D000000400202020000000200000000000009B
:1001E00030007C82827C00310042FE02000032003E
:1001F000468A92620033004492926C0034001C6480
:10020000FE04003500F292928C0036007C92924CF3
:10021000003700C08E90E00038006C92926C00397C
:10022000006492927C006100042A2A1E006200FE93
:1002300012120C0063000C1212120064000C121255
:10024000FE0065001C2A2A18006600103E5050006F
:1002500067000815151E006800FE101E00006900EA
:10026000002E0000006A0002012E00006B00FE0854
:100270001412006C0000FE0200006D001E100E1033
:100280000E6E001E10100E006F000C12120C00708B
:10029000001F12120C0071000C12121F0072001EBF
:1002A00008101000730012292512007400103E126D
:1002B000000075001C02021E0076180402041800DB
:1002C0007718061C0618007800120C0C1200790032
:1002D0001805051E007A0012161A120041007E88C9
:1002E000887E004200FE92926C0043007C82824431
:1002F000004400FE82827C004500FE92928200460D
:1003000000FE9090800047007C82925C004800FED6
:100310001010FE00490082FE8200004A000C02021A
:10032000FC004B00FE1028C6004C00FE020202003A
:100330004D00FE403040FE4E00FE403008FE4F00B3
:100340007C8282827C5000FE9090600051007C8212
:100350008A847A5200FE9894620053006492924C10
:1003600000540080FE8080005500FC0202FC005614
:1003700000F00C020CF05700FE043804FE5800C6D2
:100380003838C60059C0201E20C0005A00869AB2D4
:10039000C2002C00010E0C00002E0000060600001A
:1003A000257254781E2A4E2100007A0000003F007A
:1003B000204A3000002D0010101010002B08083EBD
:1003C0000808002F00020C3040002A2214081422D2
:1003D000003A0000140000002200C000C00000230A
:1003E00028FE28FE28002800007C8200002900004A
:1003F000827C00003B0002240000007E0040804020
:1004000080003B0002240000003D0028282828002E
:100410007C0000FE0000003E0082442810003C00EA
:100420001028448200400000000000000000000886
:1004300000020100000304070000000000000000AB
:10044000010204081020408001020408102001026B
:100450000408102004040404040404040202020238
:10046000020203030303030300000000230026002D
:10047000290000000000250028002B0000000000DB
:10048000240027002A00B705730BF0156E2D170600
:10049000F41511241FBECFEFD8E0DEBFCDBF11E0B1
:1004A000A0E0B1E0E6E3FEE602C005900D92A239BD
:1004B000B107D9F726E0A2E9B1E001C01D92A83941
:1004C000B207E1F714E0CEE8D4E004C02297FE01C1
:1004D0000E947534C638D107C9F70E94B22D0C941A
:1004E0000E370C940000CF92DF92EF92FF920F93A1
:1004F0001F93E82FF92F05C0015011092109310977
:1005000061F1908196239417B9F305C00150110948
:100510002109310911F1908196239413F7CFC12C51
:10052000D12CE12CF12C0AC08FEFC81AD80AE80AA6
:10053000F80A0C151D052E053F0579F080818623EC
:10054000841791F36C2D7D2D8E2D9F2D1F910F9172
:10055000FF90EF90DF90CF90089560E070E080E032
:1005600090E01F910F91FF90EF90DF90CF90089552
:1005700089EE92E00C94AB1061E08DE00E94032BB9
:1005800061E08DE00E943C2B6CE271E080E090E045
:100590000E94F02960E08DE00E943C2B26E040E0C4
:1005A00052EC61E070E081EF95E00E94AA2C64EFCC
:1005B00071E080E090E00E94F02922E330E040E02A
:1005C00050E064EF71E089EE92E00E94481062E32F
:1005D00070E080E090E00E94F0290E94B80285EC73
:1005E00092E00E94AB1B6DE081E393E00E947C25CA
:1005F00020E040E060E081E393E00E94472681E351
:1006000093E00E94742682E892E00E94931969E2C6
:1006100071E081EF95E00E940D2E6BE172E081EFB9
:1006200095E00E94132E66E08DEE92E00E940F1E70
:1006300061E08DEE92E00C94441E81EF95E00C9405
:100640000F2EFC01EA51FE4F8081809321028181AF
:100650008093220280912102909122020895A3E2C8
:10066000B2E0FC01EA51FE4F80818C93818180933E
:1006700024028281809325028381809326026D91DA
:100680007D918D919C910895E2EAF1E020E030E0C7
:100690008A519E4F2617370744F4DC01A20FB31F7F
:1006A0004C9141932F5F3F4FF5CFFB01EE55FE4F2D
:1006B000108282EA91E00895E2E9F1E020E030E082
:1006C0008A519E4F261737075CF42031310541F0DF
:1006D000DC01A20FB31F4C9141932F5F3F4FF2CF2C
:1006E00082E991E00895E1EDF1E020E030E0419110
:1006F00051914817590791F0452B41F4F901EE0F3C
:10070000FF1FEF52FE4F9183808308C02F5F3F4F42
:100710002830310561F780E090E00895C90108951F
:10072000CF92DF92EF92FF920F931F93CF93DF93BD
:10073000CDB7DEB72D970FB6F894DEBF0FBECDBF95
:10074000D090EC010D2D10E08D30910509F441C1E0
:1007500084F58830910509F461C014F58330910562
:1007600009F422C1059709F0F3C186E090E00E94E8
:1007700021038C0169E081E593E00E940B25B8011B
:1007800081E593E00E94C71588E090E00E94210374
:100790008C016AE081E593E00E940B25B80139C025
:1007A0008A30910519F10CF484C00B9709F45CC0F0
:1007B000CFC18132910509F49EC164F48E31910557
:1007C00009F467C18032910509F46DC1449709F0BD
:1007D000BFC13BC18932910509F483C082339105C1
:1007E00009F4A4C1829709F0B3C169C187E090E020
:1007F0000E9421037C0181E593E00E94B72490E0F0
:100800008017910729F06D2D81E593E00E940B255B
:10081000B70181E593E00E94C7159AC1E090EE010F
:100820001091EF01F090F0010091F1014091ED0184
:100830006D2D81E393E00E943425EE2049F06FEFA7
:100840006E0D2F2D412F81E393E00E94F62507C006
:10085000202F4F2D612F81E393E00E94472681E3F3
:1008600093E00E94742674C18091ED01000F111F66
:10087000F801E65FFE4F813011F4E08001C0E180B5
:10088000D090EE0184EB8D1508F462C1F12CC70104
:100890000E9473038C01000F111F080F191F095AC2
:1008A0001C4FB701C8010E94D9286D2D70E0C80106
:1008B0003AC182E293E00E94B72490E0801791074A
:1008C00029F06D2D82E293E00E94AF0F87E090E067
:1008D0000E942F03AB01BC0182E293E00E94D10F82
:1008E00037C18DEE92E00E94B724282F30E0201708
:1008F000310729F06D2D8DEE92E00E941A1E809135
:10090000ED0190E081309105B9F40091EE011127DD
:1009100007FD10954091EF016091F00170E08BE0D0
:1009200090E04D870E9444039C014D85B8018DEEF7
:1009300092E00E943E200CC182309105A1F4F0901B
:10094000EE014091EF0160E170E08AE090E04D87B8
:100950000E945C038C0120E14D856F2D8DEE92E0AD
:100960000E94471EF5C08330910579F421E0809103
:10097000EE01811101C020E04091F0016091EF0192
:100980008DEE92E00E947920E3C0049709F0E0C068
:1009900088E090E00E942F03AB01BC0123E08DEEC4
:1009A00092E00E944A21D4C08EE193E00E94B724D5
:1009B000282F30E02017310729F06D2D8EE193E0CC
:1009C0000E940B2561E08091ED01811154C060E02F
:1009D00052C063E871E0CE0107960E94DA2E0091C2
:1009E000E80110E0035011096CEEC62E61E0D62E2E
:1009F000E12CF12CE016F1065CF4F60161916F0137
:100A0000CE0107960E94542FFFEFEF1AFF0AF2CF94
:100A1000BE01695F7F4FCE0101960E94072FBE0184
:100A20006F5F7F4F85EC92E00E940B1DCE01019617
:100A30000E946C2E63E871E0CE0107960E94102F91
:100A4000CE0107960E946C2E83C08EE193E00E9437
:100A5000B724282F30E02017310729F06D2D8EE1C3
:100A600093E00E940B256091ED01862F90E082308B
:100A7000910534F461708EE193E00E94DF2468C038
:100A800061E0029709F460E08EE193E00E94EF24B8
:100A90005FC061E08D2D0E94032B6091ED018D2DD3
:100AA0000E943C2B55C061E08D2D0E94032B2091AC
:100AB000ED01622F70E08D2D0E947B2A49C086E0F7
:100AC00090E00E9421038C0188E090E00E942103C5
:100AD000101611065CF49C01442737FD4095542FF5
:100AE000B80189EE92E00E94481032C089EE92E08F
:100AF0000E94AB102DC0D090ED0184EB8D1540F11C
:100B0000C8010E9473037C01EE0CFF1CE80EF91E65
:100B1000F701E95AFC4F7F01B801CF010E94D928A3
:100B20006D2D70E0C7010E94122912C00E94C129D8
:100B30000E94DF3020E030E04AE754E40E94463073
:100B40006093BE017093BF018093C0019093C10177
:100B50002D960FB6F894DEBF0FBECDBFDF91CF91BB
:100B60001F910F91FF90EF90DF90CF900895CF935A
:100B7000DF93C7E5D3E0CE010E943F28239683E0B0
:100B8000CF36D807C1F781E593E00E94C4158EE304
:100B900093E00E9494264EE160E081E393E00E949E
:100BA000C4258CE293E00E94262782E293E00E9413
:100BB000190E8EE193E00E949E248DEE92E00E9439
:100BC000C41D89EE92E00E94421085EC92E00E94E2
:100BD000BE1B82E892E00E9422168EE792E00E94FD
:100BE0004A1D87E592E00E94B51080E592E00E94E0
:100BF000131A8AE492E00E94F81584E492E00E94BD
:100C00000D168EE392E00E94202787E292E00E9478
:100C1000820D63E371E08BE192E00E94DA2E63E8DB
:100C200071E082EC91E0DF91CF910C94DA2E82ECAE
:100C300091E00E946C2E8BE192E00E946C2E8FED71
:100C400092E00E946C2E89ED92E00E946C2E81E36E
:100C500093E00C948826682F81EF95E00C94452C46
:100C60008FEF0E942B0685E50C942B068FEF0E94D8
:100C70002B0685E50E942B060C941D03CF93C82FED
:100C800081E00E942B068C2FCF910C942B06CF93E2
:100C9000E82FF0E0EE0FFF1FE058FE4FC49160E038
:100CA0008C2F0E94032B8C2F0E945E2AC1E00B9791
:100CB0000CF0C0E08091CF018C1769F0C093CF0198
:100CC0000E94300680E80E942B068C2F0E943E0670
:100CD000CF910C941D03CF910895EF92FF920F9343
:100CE0001F93CF93DF937C01FC01C4810C2F1581EE
:100CF00084E00E942B068C2F0E942B06C0E0D0E0DF
:100D0000C017D10744F4BE01C7010E94782F0E948A
:100D10002B062196F5CFDF91CF911F910F91FF9078
:100D2000EF900895FF920F931F93CF93DF931F923D
:100D3000CDB7DEB78B01F82E82E099830E942B0697
:100D4000A8016F2D9981792F40932302509324029B
:100D50006093250270932602802F0E942B068091BB
:100D600024020E942B06809125020E942B0680916E
:100D700026020F90DF91CF911F910F91FF900C945D
:100D80002B06CF92DF92EF92FF926B017C0183E002
:100D90000E942B06C701B6010E94AE30862F262F77
:100DA000372F30932202209321020E942B0680913C
:100DB00022020E942B06809123020E942B06809122
:100DC0002402FF90EF90DF90CF900C942B06CF92EF
:100DD000DF92EF92FF920F931F93CF93DF93CDB7E4
:100DE000DEB727970FB6F894DEBF0FBECDBF1091C8
:100DF000EC01E12EF12C8433910508F05DC2FC0179
:100E0000EC5CFF4F0C9473348CE293E00E94B724A7
:100E100090E08E159F0529F0612F8CE293E00E94EF
:100E20000B2560E573EC8CE293E00E946E276B016A
:100E30007C0184E690E00E94182A0E94300680918E
:100E4000E1010E942B06C701B601FAC10091ED0134
:100E50008EE393E00E94B72490E08E159F0509F081
:100E60001DC28EE393E00E94BA24801317C28EE362
:100E700093E00E94B226E4C18EE193E00E94B72481
:100E800090E08E159F0561F0612F8EE193E00E9446
:100E90000B258EE193E00E94312560E00E94032B38
:100EA0008EE193E00E940325BBC10091ED018EE726
:100EB00092E00E94B72490E08E159F0529F0612FE3
:100EC0008EE792E00E940B25602F8EE792E00E9451
:100ED0004D1DA6C18091C801882309F4EDC162ECC3
:100EE00071E0CE0101960E94072FCE0101960E946B
:100EF0006D06CE0101960E946C2E1092C80163E827
:100F000071E082EC91E00E94102FD6C1F090ED01CB
:100F10000E94C1290E94DF3020E030E04AE754E41B
:100F20000E9446302091B6013091B7014091B8013E
:100F30005091B9010E947B2F2DEC3CEC4CE45EE318
:100F40000E94093218165CF04091C901552747FDEF
:100F500050952F2D30E081E04217530709F080E0D3
:100F60000E943E0606C08091C9010E943E06109272
:100F7000C9011092CB011092CA019EC18EE193E08B
:100F80000E94B72490E08E159F0509F469C0612F77
:100F90008EE193E00E940B258EE193E00E943125C3
:100FA00060E05CC08EE193E00E94B72490E08E1573
:100FB0009F0599F0612F8EE193E00E940B258EE151
:100FC00093E00E942E2560E00E94032B8EE193E0C7
:100FD0000E94312560E00E94032B60E08EE193E0E7
:100FE0000E94BD24182F60E08EE193E00E94CE2481
:100FF000612F70E0660F771F680F711D882777FDDE
:101000008095982F12C10091ED01C02ED12C8EE158
:1010100093E00E94B72490E08E159F0509F045C12A
:101020008EE193E00E94BA2490E08C159D0509F0B2
:101030003CC1CA94CD2869F48EE193E00E942E252C
:1010400062E00E94032B60E08EE193E00E94BD24E9
:101050000CC08EE193E00E94312562E00E94032BD8
:1010600060E08EE193E00E94CE24682F70E080E083
:1010700090E00E94DF30E4C0F701EE0FFF1FE05860
:10108000FE4FE4900091ED0160E08E2D0E94032B55
:101090008E2D0E945E2A11E00B970CF010E0812F3C
:1010A00080270E943E061093CF0106C187E592E09B
:1010B0000E94B72490E08E159F05A9F0612F87E567
:1010C00092E00E940B2587E592E00E943125482F8F
:1010D00087E592E04F830E942E254F81682F87E598
:1010E00092E00E94A91487E592E00E94B214A8C081
:1010F0000091ED0180E592E00E94B72490E08E150A
:101100009F0529F0612F80E592E00E940B2580E584
:1011100092E00E94161A602F80E592E00E94EF1A7A
:10112000BAC08AE492E00E94B72490E08E159F0531
:10113000A9F0612F8AE492E00E940B258AE492E0F4
:101140000E942E25482F8AE492E04F830E94312589
:101150004F81682F8AE492E00E94FB158AE492E0B6
:101160000E940B1622C084E492E00E94B724282F2C
:1011700030E02E153F05A9F0612F84E492E00E9433
:101180000B2584E492E00E942E25482F84E492E00F
:101190004F830E9431254F81682F84E492E00E94A2
:1011A000101684E492E00E942016BC01882777FD87
:1011B0008095982F0E94E1300E94C1067DC0609109
:1011C000ED0182E892E06F830E949E166F8182E8B3
:1011D00092E00E942F1634C06BE172E0CE010196BE
:1011E0000E94072FCE0101960E946D06CE01019646
:1011F0000E946C2E61C060E0812F0E94032B812F22
:101200000E94722B0DC0F701EE0FFF1FE058FE4F3A
:10121000E49060E08E2D0E94032B8E2D0E945E2AAA
:10122000BC01882777FD8095982F0E94E13008C087
:101230006091BA017091BB018091BC019091BD0198
:101240000E94920639C08EE392E00E94B724282FB4
:1012500030E02E153F0529F0612F8EE392E00E94C9
:101260000B258EE392E00E94232715C087E292E0CF
:101270000E94B724282F30E02E153F0529F0612F5A
:1012800087E292E00E940B2581E02091CE019091AF
:10129000ED01291380E00E943E060EC0402F612F11
:1012A0008EE393E00E949F26E2CD402F612F8EE1D6
:1012B00093E00E941B25BDCE27960FB6F894DEBFA3
:1012C0000FBECDBFDF91CF911F910F91FF90EF9097
:1012D000DF90CF9008950F931F93CF93DF931F92CA
:1012E000CDB7DEB71092E3018091E9018093E1016F
:1012F0000091EB0110E09091EA019230E1F018F4D6
:10130000913031F03BC09430D1F0953081F136C04E
:101310000130110531F089830E94300689810E94D5
:101320002B06C8010E94E7060F90DF91CF911F9115
:101330000F910C941D03C8010E94900318C069E02E
:1013400081E593E00E940B2560E070E081E593E089
:101350000E94C7156AE081E593E00E940B2560E0DA
:1013600070E081E593E00E94C7150E94B8020F90DB
:10137000DF91CF911F910F910C9436060F90DF9162
:10138000CF911F910F91089510921A0281EF95E06D
:101390000E94C72B181619064CF481E080931A029C
:1013A00081EF95E00E94E02B8093E201089560E0D8
:1013B00087E00E94470687E292E00E94840D8093B6
:1013C000CE010E94C1290E94DF3020E030E04AE7D0
:1013D00054E40E9446302091BE013091BF014091FB
:1013E000C0015091C1010E947B2F6093BA0170939C
:1013F000BB018093BC019093BD0185EC92E00E94FB
:10140000551C892B09F440C08091C8028093C90102
:101410000E94C1290E94DF3020E030E04AE754E416
:101420000E9446306093B6017093B7018093B80173
:101430009093B9016091C9016A3011F06D3041F4A7
:101440001092CB011092CA0181E08093C8012EC096
:1014500082EC91E00E94542F8091CA019091CB01BF
:101460000196813491052CF49093CB018093CA01AD
:101470001DC01092CB011092CA0163E871E082ECAA
:1014800091E00E94102F12C08091CC019091CD016B
:1014900001969093CD018093CC012091C901121641
:1014A0004CF48938934134F01092C9011092CD0167
:1014B0001092CC010E94C40980911A02882309F479
:1014C00046C08091E2019091E301853561F491116C
:1014D0000AC08091D0018F3FE1F481E08093E50163
:1014E0008093E30116C08093D001992391F0E0919D
:1014F000E501E23019F48093E40107C0E33028F0FD
:101500009091E40191509093E401F0E0EA51FE4F94
:1015100080838091E5018F5F843318F48093E50127
:1015200004C01092E5011092E3018091E301882349
:1015300071F08091E40181110AC08091E50184304D
:1015400030F01092E3010E946B091092E5010895BA
:1015500080919F0390E02091A003821B9109089540
:101560002091A00380919F03281750F4E22FF0E010
:10157000EF55FC4F808190E02F5F2093A0030895EA
:101580008FEF9FEF0895E091A00380919F03E817EC
:1015900030F4F0E0EF55FC4F808190E008958FEF3C
:1015A0009FEF08950895CF92DF92EF92FF920F93ED
:1015B0001F93CF93DF937C01CB018A0120917B03A2
:1015C000222389F0EB016B01C40ED51ECC15DD057D
:1015D00069F06991D701ED91FC910190F081E02DC6
:1015E000C7010995F3CF642F0E942C0CC801DF912D
:1015F000CF911F910F91FF90EF90DF90CF900895C2
:10160000CF93DF931F92CDB7DEB7698320917B0321
:101610002223D1F020917C03203240F021E030E001
:10162000FC013383228380E090E015C080917D032C
:10163000E82FF0E0E258FC4F998190838F5F809310
:101640007D0380937C0305C061E0CE0101960E947A
:101650002C0C81E090E00F90DF91CF910895FC0178
:101660001382128248EE53E060E070E044835583B9
:101670006683778381E491E091838083089510925B
:10168000A00310929F0310927D0310927C030C9490
:10169000770B862F413208F040E261EA73E00E9446
:1016A000950B1092A00380939F03089581E080938F
:1016B0007B0360939E0310927D0310927C03089538
:1016C0000F93062F21E040917C036EE773E0809139
:1016D0009E030E94D90B10927D0310927C031092FE
:1016E0007B030F9108958FE693E00C942F0B1092DB
:1016F0002E0481E080932C0410922B0461E082E19F
:101700000E943C2B61E083E10E943C2BE9EBF0E07E
:1017100080818E7F808380818D7F808388E4809329
:10172000B80085E48093BC000895413208F03FC0C2
:1017300090912E049111FCCF91E090932E04209370
:101740002C042FEF2093C10310920604240F209342
:10175000050490932D0490912D04880F892B80937C
:101760002D0480912B04813041F410922B04809140
:101770002D048093BB0085EC01C085EE8093BC00F6
:1017800080912E048130E1F380910604841710F4D7
:101790004091060427E034E0FB01D9018A2F821B27
:1017A000841718F48D918193F9CF842F089580E0E8
:1017B00008950F93413208F046C090912E04911184
:1017C000FCCF92E090932E0400932C049FEF909313
:1017D000C1031092060440930504FB0167E074E026
:1017E000DB019A2F961B941718F491919D93F9CFD2
:1017F00010922D0490912D04880F892B80932D0435
:1018000080912B04813041F410922B0480912D049F
:101810008093BB0085EC01C085EE8093BC00222341
:1018200021F080912E048230E1F38091C1038F3F3B
:1018300061F08091C103803251F08091C103803307
:1018400041F483E007C081E005C080E003C082E08E
:1018500001C084E00F910895613298F420912E0424
:10186000243089F46093E303FC0185EE93E0DC010E
:101870002A2F281B261718F421912D93F9CF80E0E9
:10188000089581E0089582E0089585ED8093BC007D
:101890008091BC0084FDFCCF10922E04089585EC4D
:1018A0008093BC0010922E0408951F920F920FB6E1
:1018B0000F9211242F933F934F935F936F937F93D6
:1018C0008F939F93AF93BF93EF93FF938091B90052
:1018D000887F803609F49CC068F5883209F45BC0C3
:1018E00090F4803109F454C038F4882309F4F5C029
:1018F000883009F44DC0F5C0883109F44CC08032FD
:1019000009F45DC0EEC0803409F468C048F4803347
:1019100009F455C0883309F0E4C08093C103A8C01E
:10192000803509F44FC0883509F45DC0883409F06A
:10193000D8C0D5C0883909F4C6C0A8F4883709F4DE
:1019400067C038F4883609F463C0803709F460C092
:10195000C8C0883809F4B7C0803909F45FC080383E
:1019600009F0BFC05BC0803B09F485C038F4803A01
:1019700009F466C0883A09F47EC0B3C0803C09F41B
:10198000A6C0883C09F4A3C0883B09F489C0A9C05B
:1019900080912D0410C09091060480910504981741
:1019A00070F5E091060481E08E0F80930604F0E06C
:1019B000E95FFB4F80818093BB0085EC85C08093FD
:1019C000C1038DC0E091060481E08E0F8093060470
:1019D0008091BB00F0E0E95FFB4F808390910604AB
:1019E000809105046DC0E091060481E08E0F809324
:1019F00006048091BB00F0E0E95FFB4F808380919B
:101A00002C0481116CC081E080932B0484EA60C0B7
:101A100083E080932E041092C203CFCF8091C20343
:101A2000803208F050C0E091C20381E08E0F8093B5
:101A3000C2038091BB00F0E0ED53FC4F8083BDCF2B
:101A40008091C203803230F4E091C203F0E0ED53A4
:101A5000FC4F10820E94450C6091C20370E0E0913F
:101A60002704F091280483EC93E009951092C203B7
:101A70000E944F0C36C084E080932E041092E40341
:101A80001092E303E0912904F0912A0409958091D2
:101A9000E303811105C081E08093E3031092E50325
:101AA000E091E40381E08E0F8093E403F0E0EB51DA
:101AB000FC4F80818093BB009091E4038091E3030D
:101AC000981708F47ACF85E88093BC000AC085ECAB
:101AD0008093BC0010922E0404C01092C1030E9497
:101AE000450CFF91EF91BF91AF919F918F917F91A5
:101AF0006F915F914F913F912F910F900FBE0F907B
:101B00001F9018950C949E24CF92DF92EF92FF9233
:101B10000F931F93CF93DF93EC010C891D890E94D3
:101B2000C129CC80DD80EE80FF809B01AC012C19A7
:101B30003D094E095F0969017A0139E0C316D104F4
:101B4000E104F104E8F16C837D838E839F83CE01F1
:101B50000E940325488559856A857B85452B462B40
:101B6000472B49F4AC01662757FD6095762F488BCB
:101B7000598B6A8B7B8B488959896A897B89841B3D
:101B8000950B97FF03C0919581959109449764F453
:101B90004C855D856E857F854F5F5F4F6F4F7F4FB3
:101BA0004C875D876E877F87488559856A857B85E9
:101BB0004F5F5F4F6F4F7F4F488759876A877B879B
:101BC00088859985AA85BB850597A105B105D1F4BE
:101BD000188619861A861B868C859D85AE85BF85DD
:101BE0000397A105B10540F088899989AA89BB8925
:101BF0008C019D8B8C8B02C00C891D891C861D86D7
:101C00001E861F86C80164E670E00E941E3468309C
:101C1000710528F4FB01E35BFE4F808101C080E089
:101C2000DF91CF911F910F91FF90EF90DF90CF90B8
:101C300008950C949E240F931F93CF93DF93EC0190
:101C4000062F18E060E088850E943C2B00FF02C050
:101C500061E001C060E089850E943C2B069561E04F
:101C600088850E943C2B115069F760E088850E94AE
:101C70003C2B61E089850E943C2B61E088850E94B5
:101C80003C2B60E089850E94032B18EC89850E941B
:101C9000722B892B59F01150C9F761E089850E9498
:101CA000032B60E089850E943C2BEFCF61E08985A2
:101CB000DF91CF911F910F910C94032BCF93DF9362
:101CC000EC0161E088850E943C2B61E089850E94DF
:101CD0003C2B60E089850E943C2B60E08885DF9189
:101CE000CF910C943C2BCF93DF93EC0160E088857F
:101CF0000E943C2B60E089850E943C2B61E0888536
:101D00000E943C2B61E08985DF91CF910C943C2BA4
:101D1000CF92DF92FF920F931F93CF93DF931F9287
:101D2000CDB7DEB76C01F62E79830E945E0E60E4BB
:101D3000C6010E941B0EC6010E94730EC6010E94BE
:101D40005E0EF6016581C6010E941B0E0F2D798182
:101D5000172F84E0F82EF80161918F01C6010E94CF
:101D60001B0EFA94C1F7C6010E94730EC6010E94B1
:101D70005E0EF6016681C6010E941B0EC6010F9021
:101D8000DF91CF911F910F91FF90DF90CF900C9436
:101D9000730E4F925F926F927F928F929F92AF924B
:101DA000BF92CF92DF92EF92FF920F931F93CF9348
:101DB000DF9300D000D0CDB7DEB76A017B01890187
:101DC00037FD48C0B9016F5F7F4F882777FD809549
:101DD000982F0E94E1309B01AC0160E070E080E24E
:101DE00091E40E94BC324B015C019B01AC01C70134
:101DF000B6010E9446300E941C312B013C01B80103
:101E0000882777FD8095982F0E94E1309B01AC01D7
:101E100060E070E080E291E40E94BC3269837A83E2
:101E20008B839C83A5019401C301B2010E945932A6
:101E30009B01AC01C701B6010E947B2F29813A8129
:101E40004B815C810E9446300E941C310E94AE3062
:101E5000CB011FC088249924821A930AA12CB12C8B
:101E600020E030E040E251E4C701B6010E9459325F
:101E70006B017C018FEFA81AB80AA814B90484F387
:101E8000C701B6010E94AE30CB016AE070E00E944B
:101E90001E340F900F900F900F90DF91CF911F91F4
:101EA0000F91FF90EF90DF90CF90BF90AF909F90F9
:101EB0008F907F906F905F904F900895DB0180E04E
:101EC00090E22C91223208F09C93EC91F0E0E057E4
:101ED000FE4FE491ED938F5F843099F70895EF9270
:101EE000FF920F931F93CF93DF9300D000D0CDB715
:101EF000DEB78C01DB01FE013196CE0105967F0134
:101F00002D912193E817F907D9F7B701C8010E946D
:101F10005E0FB701C8010E94880E0F900F900F90BE
:101F20000F90DF91CF911F910F91FF90EF90089547
:101F3000CF93DF9300D000D0CDB7DEB720E2298366
:101F40002A832B832C83BE016F5F7F4F0E946F0F0C
:101F50000F900F900F900F90DF91CF910895CF9336
:101F6000DF93EC016A83E62FF0E0EE0FFF1FE65FE0
:101F7000FE4F81818983908198838887998761E06A
:101F80000E94032B61E089850E94032B80E48C83EF
:101F900080EC8D838AE88E83CE01DF91CF910C9403
:101FA000980F8F929F92AF92BF92CF92DF92EF9253
:101FB000FF920F931F93CF93DF9300D000D0CDB744
:101FC000DEB75C016A017B0119821A821B821C82C6
:101FD00020E030E0A901C701B6010E94423087FF2E
:101FE00009C0F7FAF094F7F8F09481E28983992414
:101FF000939401C0912C03E010E0812C9801B7016B
:10200000A601C5010E94C90E181619062CF000235E
:1020100019F08820B9F00CC001110AC0E1E0F0E02D
:10202000EC0FFD1FE90DF11D20E1280F208307C0F3
:10203000E1E0F0E0EC0FFD1FE90DF11D80839394CA
:102040008824839483E0891530F0015011090C3FF6
:102050008FEF180799F6BE016F5F7F4FC5010E9491
:102060006F0F0F900F900F900F90DF91CF911F91F6
:102070000F91FF90EF90DF90CF90BF90AF909F9027
:102080008F9008950E949E2488E080932F040895E5
:102090004F925F926F927F928F929F92AF92BF9278
:1020A000CF92DF92EF92FF920F931F93CF93DF9324
:1020B00069017A019B0140E050E060E472E48FE046
:1020C00090E00E945434E901890137FF02C00F5F9C
:1020D0001F4F1595079561E080912F040E94032BF7
:1020E000A8EEB3E0A70196010E9488344B015C0181
:1020F000C12CD12C76012E01662457FC6094762CDD
:10210000C814D904EA04FB04A8F461E080912F0408
:102110000E943C2BC8010E94182A60E080912F0485
:102120000E943C2BC8010E94182AC40CD51CE61C36
:10213000F71CE6CFDF91CF911F910F91FF90EF90A9
:10214000DF90CF90BF90AF909F908F907F906F90D7
:102150005F904F90089561E080912F040E94032BBF
:1021600060E080912F040C943C2BCF93DF93EC0123
:1021700060E00E94A7248EE18B871C82DF91CF91C3
:102180000895AF92BF92CF92DF92EF92FF920F939A
:102190001F93CF93DF93CDB7DEB76A970FB6F8944E
:1021A000DEBF0FBECDBF8C01CE0101967C01C12CDC
:1021B000D12C5C01C6010E94C136F70181937F01D9
:1021C000FFEFCF1ADF0A8AE1C816D10499F72D81F3
:1021D0003E814F81588569817A818B819C810E94E3
:1021E0007C2F29853A854B855C850E947C2F2D8527
:1021F0003E854F8558890E947C2F29893A894B89D1
:102200005C890E947C2F2D893E894F89588D0E94C0
:102210007C2F6B017C01698D70E080E090E00E9472
:10222000E1309B01AC01C701B6010E947C2F20E088
:1022300030E04AE253E40E947C2F0E94B3308A8D42
:1022400068130CC08AE1F501D8011D9601900D922A
:102250008A95E1F781E0F801848302C0F8011482D5
:102260006A960FB6F894DEBF0FBECDBFDF91CF9157
:102270001F910F91FF90EF90DF90CF90BF90AF90A4
:102280000895CF92DF92EF92FF920F931F93CF9317
:10229000DF938C01EB012C813D814E815F81688150
:1022A00079818A819B810E947C2F288539854A8586
:1022B0005B850E947C2F2C853D854E855F850E9425
:1022C0007C2F288939894A895B890E947C2F2C8937
:1022D0003D894E895F890E947C2F6B017C01688D4E
:1022E00070E080E090E00E94E1309B01AC01C7010A
:1022F000B6010E947C2F20E030E04AE253E40E94C5
:102300007C2F0E94B330698FE12CF12C6991C701B9
:102310000E94C9368FEFE81AF80AEAE1EE16F104D6
:10232000A9F781E0F8018483DF91CF911F910F918C
:10233000FF90EF90DF90CF900895EF92FF921F9360
:10234000CF93DF931F92CDB7DEB7162F7A01FC0132
:1023500063858FE693E029830E94560B612F8FE6F9
:1023600093E00E94000B2981813091F4422F50E0CC
:10237000B7018FE693E00E94D30A61E08FE693E015
:102380000F90DF91CF911F91FF90EF900C94600B15
:102390008FEF0F90DF91CF911F91FF90EF900895F5
:1023A000CF93DF931F92CDB7DEB7498321E0AE0113
:1023B0004F5F5F4F0E949D110F90DF91CF91089565
:1023C000EF92FF920F931F93CF93DF93EC01F62EC2
:1023D0008A01E22E6B858FE693E00E94560B6F2DEB
:1023E0008FE693E00E94000B813001F560E08FE6FC
:1023F00093E00E94600B81112EC081E090E00E946A
:10240000182A21E04E2D6B858FE693E00E94490B40
:10241000E80100E010E0F12C8FE693E00E94A80AAA
:10242000892B31F00E151F0574F002C08FEF13C019
:1024300081E090E00E94182A81E00E151F0509F442
:1024400080E0819508C00F5F1F4F8FE693E00E94E8
:10245000B00A8993E1CFDF91CF911F910F91FF9047
:10246000EF900895CF93DF93EC01AC014B5F5F4F8A
:1024700023E06AE00E94E01181110AC08D81883456
:1024800039F48E81843321F481E09F81933309F004
:1024900080E0DF91CF910895CF92DF92EF92FF928B
:1024A0000F931F93CF93DF93EC016B018A017901A6
:1024B0000E949712AE014B5F5F4F26E063E0CE01B2
:1024C0000E94E011882321F0992787FD909526C06E
:1024D0008C85813031F441E062E070E0CE010E94F1
:1024E000D0118D8190E0982F88272E81822BF601C4
:1024F00091838083898590E0982F88272A85822B75
:10250000F801918380838F8190E0982F8827288518
:10251000822BF7019183808380E090E0DF91CF915F
:102520001F910F91FF90EF90DF90CF9008952F9221
:102530003F924F925F926F927F928F929F92AF9253
:10254000BF92CF92DF92EF92FF920F931F93CF93A0
:10255000DF93CDB7DEB76C970FB6F894DEBF0FBE32
:10256000CDBF8C0162E00E94BD248111B2C16AE03E
:1025700070E080E090E00E94F02962E0C8010E94D3
:10258000BD248111A6C1C8010E943212882309F41A
:10259000A0C10E94C1296B017C01712CBB24B394A2
:1025A00062E0C8010E94BD24811115C00E94C129AA
:1025B0006C197D098E099F09693C7105810591059A
:1025C00078F30E94C1296B017C017B24672DC8012F
:1025D0000E94EF24E5CF64E670E080E090E00E9486
:1025E000F0290E94C1294B015C012FEF3FE7388B96
:1025F0002F8740E050E85E874D878FEF9FE79C87ED
:102600008B87E0E0F0E8FA87E98738872F83212C71
:1026100050E8352E662463940E94C1296C197D0907
:102620008E099F09693C71058105910548F00E945A
:10263000C1296B017C017624672DC8010E94EF241B
:102640000E94C129681979098A099B096B307105B3
:1026500081059105E0F19E012F5F3F4FAE014D5F77
:102660005F4FBE016B5F7F4FC8010E944C128D818E
:102670009E814F815885841795072CF028163906BE
:1026800024F41C0102C098878F838B819C81EB8589
:10269000FC858E179F0744F029853A85281739074E
:1026A0002CF49A87898702C09C878B8789819A81BD
:1026B0004F8558898417950744F0ED85FE85E81706
:1026C000F9072CF49E878D8702C0988B8F8762E074
:1026D000C8010E94BD2481119FCF60E0C8010E9403
:1026E000EF24B101882777FD8095982F0E94E13073
:1026F0006B017C012F813885B901882777FD809592
:10270000982F0E94E130698B7A8B8B8B9C8B9B017D
:10271000AC01C701B6010E947C2F905820E030E048
:1027200040E05FE30E945932F8016587768787872A
:10273000908B29853A85B901882777FD8095982F58
:102740000E94E1302B013C014B855C85BA01882752
:1027500077FD8095982F0E94E1306D8B7E8B8F8B5B
:10276000988F9B01AC01C301B2010E947C2F90584D
:1027700020E030E040E05FE30E945932F801618BD5
:10278000728B838B948B2D853E85B901882777FDCD
:102790008095982F0E94E1304B015C014F8558894C
:1027A000BA01882777FD8095982F0E94E130698FC4
:1027B0007A8F8B8F9C8F9B01AC01C501B4010E9465
:1027C0007C2F905820E030E040E05FE30E945932D7
:1027D000F801658B768B878B908F80E090E0A0E886
:1027E000BFE3818F928FA38FB48F29893A894B8958
:1027F0005C89C701B6010E947B2F6B017C012D898A
:102800003E894F89588DC301B2010E947B2FA701D9
:1028100096010E944630F801658F768F878F90A3CE
:10282000298D3A8D4B8D5C8DC501B4010E947B2FA3
:10283000A70196010E944630F80161A372A383A309
:1028400094A32F813885221A330A37FE03C03194AE
:102850002194310889859A854B855C85841B950B6D
:1028600097FF03C09195819591092D853E85EF8550
:10287000F8892E1B3F0B37FF03C031952195310995
:10288000821593052CF02215330514F081E009C060
:10289000281639062CF02817390714F082E001C0F9
:1028A00083E0F80185A3B801635F7F4FC8010E94F0
:1028B000411161E0C8010E94EF2462E0C8010E945A
:1028C000BD248823D1F364E670E080E090E00E94AC
:1028D000F0296C960FB6F894DEBF0FBECDBFDF9126
:1028E000CF911F910F91FF90EF90DF90CF90BF900D
:1028F000AF909F908F907F906F905F904F903F90A0
:102900002F900895CF93DF93EC018FE693E00E9420
:102910003F0B61E0CE010E94EF2440E760E070E0F1
:10292000CE010E94D01140E261E070E0CE010E9431
:10293000D01181E08C8741E062E070E0CE010E941E
:10294000D011CE010E94C110CE01DF91CF910C9425
:1029500097126093310440933004FC0160834183FB
:102960000C9482142F923F924F925F926F927F92BB
:102970008F929F92AF92BF92CF92DF92EF92FF928F
:102980000F931F93CF93DF93CDB7DEB762970FB648
:10299000F894DEBF0FBECDBF8C010E9497129E013E
:1029A0002F5F3F4FAE014D5F5F4FBE016B5F7F4FAB
:1029B000C8010E944C12882349F0682F772767FDD1
:1029C0007095872F972F0E94E130C5C0F801848150
:1029D0002D803E802B813C8138872F83882309F40A
:1029E00078C04584568467847088818C928CA38CCF
:1029F000B48CB901882777FD8095982F0E94E1302B
:102A0000F80121893289438954890E947C2FF80179
:102A1000258D368D478D50A10E9459320E94AE30CF
:102A20006F83788789879A8769817A81882777FD7C
:102A30008095982F0E94E130F801258936894789D1
:102A4000508D0E947C2FF80121A132A143A154A1F5
:102A50000E9459320E94AE306B877C878D879E879B
:102A6000F80115A1113041F42B853C85B901882767
:102A700077FD8095982F32C0B101882777FD80952A
:102A8000982F0E94E130A30192010E947C2FA501A2
:102A900094010E9459320E94AE304B015C01123009
:102AA00089F42B853C85B901882777FD8095982F7F
:102AB0000E94E1309B01AC01B401882777FD80952D
:102AC000982F17C0133019F5882777FD8095982F18
:102AD00005C0B101882777FD8095982F0E94E130CD
:102AE0009B01AC01EF81F885BF01882777FD8095B8
:102AF000982F2F87388B498B5A8B0E94E1302F8576
:102B0000388949895A890E94EF2F6B017C0120E0A6
:102B100030E0A901C701B6010E94423087FF0DC015
:102B20002BED3FE049EC50E4C701B6010E947C2F39
:102B300020E030E044E353E406C020E030E044E32A
:102B400053E4C701B6010E9459322BED3FE049E43E
:102B500050E40E94463062960FB6F894DEBF0FBE76
:102B6000CDBFDF91CF911F910F91FF90EF90DF903C
:102B7000CF90BF90AF909F908F907F906F905F901D
:102B80004F903F902F90089560E00C94A7240F93EE
:102B90001F93CF93DF938C016F3F710519F014F0F1
:102BA0006FEF70E0EB0161308FEF780714F4C1E054
:102BB000DFEFD7FD06C061E0C8010E94EF24BE012F
:102BC00008C060E0C8010E94EF24662777276C1BCD
:102BD0007D0BC801DF91CF911F910F910C940725B8
:102BE00082E394E00C94E91982E394E00C94121AC5
:102BF00060E00C94A724CF93DF93EC016C834D83AA
:102C00008C8160E00E94032B8D8188838C81898375
:102C1000DF91CF9108950C94FF2460E00C94A724D9
:102C2000CF93DF93EC016C834D838C8160E00E9435
:102C3000032B8D8188838C818983DF91CF910895C7
:102C40000C94FF24CF93DF93EC0160E00E94A72453
:102C5000CE5BDF4F88E68883DF91CF910895FC013A
:102C6000613029F432852385948585850DC06230D5
:102C700029F4368527859089818906C0633029F437
:102C80003289238994898589AC01632F722F852F1E
:102C9000942F0895EF92FF920F931F93CF93DF939A
:102CA000F62E8A01E22EEC01CE5BDF4F68818FE6C3
:102CB00093E00E94560B6F2D8FE693E00E94000B6D
:102CC000813001F560E08FE693E00E94600B811196
:102CD0002EC081E090E00E94182A21E04E2D6881EC
:102CE0008FE693E00E94490BE80100E010E0F12C30
:102CF0008FE693E00E94A80A892B31F00E151F057C
:102D000074F002C08FEF13C081E090E00E94182A97
:102D100081E00E151F0509F480E0819508C00F5F62
:102D20001F4F8FE693E00E94B00A8993E1CFDF91B5
:102D3000CF911F910F91FF90EF9008954F925F9266
:102D40006F927F928F929F92AF92BF92CF92DF92BB
:102D5000EF92FF920F931F93CF93DF93CDB7DEB720
:102D60002C970FB6F894DEBF0FBECDBF8C01AC011F
:102D70004C5C5F4F2EE06BE30E944A168111C8C184
:102D8000F801A4A8B12CBA2CAA2485A9A82AB3A218
:102D9000A2A2E6A8F12CFE2CEE2487A9E82AF5A22F
:102DA000E4A280AC912C982C882481AD882A97A22B
:102DB00086A2468057806084718464AD70E0762F6F
:102DC000662785AD682B882777FD8095982F0E9410
:102DD000E130F80120A531A542A553A50E947B2F23
:102DE000A30192010E944630F801668B778B808F99
:102DF000918F66AD70E0762F662787AD682B8827A8
:102E000077FD8095982F0E94E130F80124A535A523
:102E100046A557A50E947B2FA30192010E94463030
:102E2000F801628F738F848F958FE05CFF4F608114
:102E300070E0762F662731968081682B882777FD92
:102E40008095982F0E94E130F80120A931A942A96C
:102E500053A90E947B2FA30192010E944630F801E2
:102E6000668F778F80A391A3B701882777FD809520
:102E7000982F0E94E1306B017C01B401882777FD17
:102E80008095982F0E94E1309B01AC010E9459323D
:102E90002B013C01A7019601C701B6010E945932DE
:102EA000A30192010E947C2F0E940C339B01AC0174
:102EB000B501882777FD8095982F29873A874B871A
:102EC0005C870E94E1304B015C0129853A854B8586
:102ED0005C850E94EF2F20E030E044E353E40E9441
:102EE00059322AED3FE049E450E40E9446306983BC
:102EF0007A838B839C83A5019401C501B4010E9450
:102F00005932A30192010E947C2F0E940C339B0135
:102F1000AC01C701B6010E94EF2F20E030E044E38E
:102F200053E40E9459322AED3FE049E450E40E9404
:102F300046306D837E838F8398870E94C129C0901D
:102F40004D05D0904E05E0904F05F09050056C195E
:102F50007D098E099F090E94DF3020E030E04AE7BA
:102F600054E40E9446306B017C010E94C1296093A9
:102F70004D0570934E0580934F0590935005F801D1
:102F800086A197A11816190644F5228D338D448D1C
:102F9000558DC701B6010E9459329B01AC01F80161
:102FA00062857385848595850E947B2FF8016287F1
:102FB00073878487958726893789408D518DC7010E
:102FC000B6010E9459329B01AC01F80166857785F4
:102FD000808991890E947C2F28C0F801228D338D31
:102FE000448D558DC701B6010E9459329B01AC0139
:102FF000F80162857385848595850E947C2FF80190
:10300000628773878487958726893789408D518D9C
:10301000C701B6010E9459329B01AC01F8016685D7
:103020007785808991890E947B2FF8016687778751
:10303000808B918BF801268D378D40A151A1C7015E
:10304000B6010E9459329B01AC01F8016289738973
:10305000848995890E947C2FF801628B738B848B05
:10306000958B20E030E040E05FE3C701B6010E94AD
:103070007C2F9B01AC0160E070E080E09FE30E9448
:1030800046306B017C019B01AC0160E070E080E8A0
:103090009FE30E947B2F4B015C01F8012285338561
:1030A00044855585C701B6010E9459322B013C0168
:1030B000A501940169817A818B819C810E9459329A
:1030C0009B01AC01C301B2010E947C2FF801628711
:1030D0007387848795872685378540895189C701FD
:1030E000B6010E9459326B017C01A50194016D81EA
:1030F0007E818F8198850E9459329B01AC01C70166
:10310000B6010E947C2FF80166877787808B918BB0
:103110002C960FB6F894DEBF0FBECDBFDF91CF91D6
:103120001F910F91FF90EF90DF90CF90BF90AF90E5
:103130009F908F907F906F905F904F9008952F9207
:103140003F924F925F926F927F928F929F92AF9237
:10315000BF92CF92DF92EF92FF920F931F93CF9384
:10316000DF9300D000D0CDB7DEB71C0104EF11E033
:10317000812C912C5401412C512C320119821A823C
:103180001B821C827C0124E3E20EF11C26E0A701D5
:1031900063E4C1010E944A16F10184A990E0982FCE
:1031A000882725A9822BAA2797FDA095BA2F2981C8
:1031B0003A814B815C81280F391F4A1F5B1F29838D
:1031C0003A834B835C8386A990E0982F882727A9B0
:1031D000822BAA2797FDA095BA2F480E591E6A1E6A
:1031E0007B1E80AD90E0982F882721AD822BAA27E7
:1031F00097FDA095BA2F880E991EAA1EBB1E0150DE
:10320000110921F624EFC22EDD24D394E12CF12CF8
:1032100069817A818B819C81A70196010E94543437
:10322000CA01B9010E94E130F10160A771A782A72C
:1032300093A7C301B201A70196010E945434CA01A9
:10324000B9010E94E130F10164A775A786A797A78D
:10325000C501B401A70196010E945434CA01B90105
:103260000E94E130F10160AB71AB82AB93AB0F9088
:103270000F900F900F90DF91CF911F910F91FF90C2
:10328000EF90DF90CF90BF90AF909F908F907F9006
:103290006F905F904F903F902F900895EF92FF9224
:1032A0001F93CF93DF931F92CDB7DEB7162F7A010E
:1032B0008E5B9F4FFC0160818FE693E029830E9423
:1032C000560B612F8FE693E00E94000B298181301D
:1032D00091F4422F50E0B7018FE693E00E94D30AA9
:1032E00061E08FE693E00F90DF91CF911F91FF9007
:1032F000EF900C94600B8FEF0F90DF91CF911F91A7
:10330000FF90EF900895CF93DF931F92CDB7DEB774
:10331000498321E0AE014F5F5F4F0E944E190F902D
:10332000DF91CF910895CF93DF93EC0140E050E01F
:1033300063E872E44E835F83688779871A861B8609
:103340001C861D861E861F86188A198A1A8A1B8A61
:103350001C8A1D8A1E8A1F8A188E198E1A8E1B8E31
:103360001C8E1D8E1E8E1F8E18A219A21BA21AA2C1
:103370001DA21CA21FA21EA218A619A61AA61BA651
:103380001CA61DA61EA61FA618AA19AA1AAA1BAA21
:103390008FE693E00E943F0B60E273E080E090E0F4
:1033A0000E94F02940E06BE670E0CE010E94831994
:1033B00041E06AE170E0CE010E94831948E06BE1D0
:1033C00070E0CE010E948319CE01DF91CF910C9461
:1033D0009F1821E030E0FC0131832083EE5FFE4F37
:1033E000108211821282138234961082118212820C
:1033F0001382349610823196108231961082118297
:103400001282138234961182108232961082319683
:1034100010821182128213823496108211821282DB
:1034200013820895089560E00C94A7244F925F9250
:103430006F927F928F929F92AF92BF92CF92DF92C4
:10344000EF92FF920F931F93CF93DF9300D000D0A2
:103450001F92CDB7DEB78C01CE0101966C0185E0DD
:10346000F60111928A95E9F760E0C8010E94EF2405
:1034700064E170E080E090E00E94F02961E0C80122
:103480000E94EF2488E290E00E94182A60E0C801C0
:103490000E94EF240E94C1294B015C0160E0C80139
:1034A0000E94CE2481110EC00E94C1296819790999
:1034B0008A099B09633071058105910578F3F8014C
:1034C000148215820E94C1294B015C0160E0C80191
:1034D0000E94CE24882359F00E94C12968197909D5
:1034E0008A099B09633071058105910578F3E12C08
:1034F000F12C0E94C1294B015C0160E0C8010E94CF
:10350000CE2481110BC00E94C129681979098A094A
:103510009B09633071058105910578F30E94CD29DF
:103520004B015C010E94C1292B013C0160E0C801F4
:103530000E94CE24882359F00E94C129641975097C
:1035400086099709633071058105910578F30E941A
:10355000CD29681979098A099B09F70123E0F595B6
:10356000E7952A95E1F7693271058105910530F0FB
:10357000EC0DFD1D8081880F816004C0EC0DFD1DE8
:103580008081880F8083FFEFEF1AFF0A88E2E81638
:10359000F10409F0AECF59814B81842F90E0850F63
:1035A000911D2D8130E08217930719F4F80154839F
:1035B00045830F900F900F900F900F90DF91CF9158
:1035C0001F910F91FF90EF90DF90CF90BF90AF9041
:1035D0009F908F907F906F905F904F900895FC0127
:1035E000611102C084810895858108951F920F9210
:1035F0000FB60F9211240F931F932F933F934F9366
:103600005F936F937F938F939F93AF93BF93CF936A
:10361000EF93FF9382E00E94722BC82F20915705F1
:10362000309158052F5F3F4F309358052093570531
:103630008091BD05843618F085E080935205909105
:103640005205933079F018F4923039F070C094300C
:1036500011F1953009F44AC06AC0C11168C01092D6
:10366000BD0529C0C13009F062C0E091BD0581E00F
:103670008E0F8093BD05F0E080915705909158051D
:10368000EF5AFA4F8087109258051092570584E040
:10369000809352054CC0C11114C0E091BD0581E07A
:1036A0008E0F8093BD05F0E08091570590915805ED
:1036B000EF5AFA4F8087109258051092570583E011
:1036C000E7CF80915705909158058536910578F19F
:1036D00085E0809352050E94C12960935305709341
:1036E0005405809355059093560521C00E94C12929
:1036F00000915305109154052091550530915605C0
:10370000601B710B820B930B693C71058105910560
:1037100040F01092BD05109258051092570582E0B6
:10372000B7CFC11104C01092580510925705FF91F0
:10373000EF91CF91BF91AF919F918F917F916F91B9
:103740005F914F913F912F911F910F910F900FBE5D
:103750000F901F901895F89482E08093B0008093AA
:10376000B10094E69093B3001092B2008093700081
:1037700078941092BD058093520508950F931F937E
:10378000CF93DF93EC018C010C5E1F4F63E871E077
:10379000C8010E94DA2E63E871E0CE014A960E94C9
:1037A000DA2E60E082E00E94032B82E080935105D4
:1037B00018A219A21AA21BA21B861A861C861A8A94
:1037C00063E871E0C8010E94102F1B8ACE010E949D
:1037D000AB1B61E083E00E94032B60E083E0DF919C
:1037E000CF911F910F910C943C2B1F93CF93DF939C
:1037F000FC01A681B7818C9186588D3558F480855F
:10380000918583309105A1F411968C911197815285
:10381000893118F080E090E044C012968C91885075
:103820008730C0F7158281E0808381E090E039C065
:10383000833491057CF311968C91119783548F32C8
:1038400048F782E090E040E050E0BA019D012F5F30
:103850003F4FEC01CA0FDB1FC881C850C730D0F6FC
:10386000E901C80FD91F18811751133180F47695DB
:10387000679557954795706802968234910549F788
:1038800080E285834183528363837483CCCFC88174
:10389000C850C73008F0BECF7695679557954795C5
:1038A000EBCFDF91CF911F9108950F931F93CF938B
:1038B000DF93EC0189E595E09F838E838091BD05C0
:1038C00090E09987888780915205853081F4CE01F8
:1038D0000E94F51B8C01CE010115110529F00E94F3
:1038E000AB1B01E010E005C00E94AB1B02C000E072
:1038F00010E0C801DF91CF911F910F910895CB0186
:10390000E0EBF0E02081206220830C94182ACB01A8
:10391000E0EBF0E020812F7D20830C94182A109298
:103920007000262F30E040E050E060E47FE180E06E
:1039300090E00E94543481E08093B00089E080934D
:10394000B1002093B3008BEA289F212D11242695E6
:103950002093B4000895F89482E08093B00080939F
:10396000B10094E69093B3001092B200809370007F
:103970007894809352051092BD058091510560E0C6
:103980000C94032BAF92BF92CF92DF92EF92FF92F3
:103990000F931F93CF93DF93EC016A017B015901D1
:1039A00066E20E948F1C68E273E2CE010E947F1CD7
:1039B00064E971E1CE010E94871C00E010E060E341
:1039C00072E0CE010A151B05ACF4C0FE05C00E94D2
:1039D0007F1C60E476E004C00E947F1C60E372E01C
:1039E000CE010E94871CF694E794D794C7940F5F8A
:1039F0001F4FE5CF0E947F1C60E070E0CE01DF9199
:103A0000CF911F910F91FF90EF90DF90CF90BF90DB
:103A1000AF900C94871CEF92FF920F931F93CF935C
:103A2000DF937C018B016AE0C8010E94542FC0E043
:103A3000D0E0F80184819581C817D90710F5BE013F
:103A4000C8010E94782F482F409550E060E070E058
:103A5000762F652F542F4427480F511D611D711D6E
:103A6000BA01552744274F6F20E230E0C7010E947A
:103A7000C21C64E170E080E090E00E94F029219691
:103A8000D8CFC701DF91CF911F910F91FF90EF9099
:103A90000C94AB1C60E00C94A724613049F40E94A4
:103AA000FF248A5E91402091C0053091C1050AC073
:103AB000623059F40E9403258A5E91402091BE0530
:103AC0003091BF05820F931F089580E090E0089524
:103AD000CF92DF92EF92FF920F931F93CF93DF93DA
:103AE000EC01162FF42EE52ED22E106C61E08C81A5
:103AF0000E943C2B60E08D810E943C2B08E060E03E
:103B00008C810E943C2B612F61708D810E943C2B27
:103B100061E08C810E943C2B1695015081F7CF2CDF
:103B20000F2D1E2D802F8C198D15B0F4F801E1900A
:103B30008F0188E0F82E60E08C810E943C2B6E2D76
:103B400060788D810E943C2B61E08C810E943C2B2F
:103B5000EE0CFA9481F7E6CF60E08C810E943C2B5A
:103B600060E08D810E943C2B61E08C810E943C2BA7
:103B700061E08D81DF91CF911F910F91FF90EF90C8
:103B8000DF90CF900C943C2B0C949E240F931F93AA
:103B9000CF93DF93EC01162F61E08C810E943C2BC8
:103BA00060E08D810E943C2B08E060E08C810E94E7
:103BB0003C2B612F61708D810E943C2B61E08C81D8
:103BC0000E943C2B1695015081F760E08C810E9489
:103BD0003C2B60E08D810E943C2B61E08C810E9437
:103BE0003C2B61E08D81DF91CF911F910F910C945F
:103BF0003C2B20E030E0FC01E20FF31F10862F5F2A
:103C00003F4F20313105B9F721E0FC0126831782AF
:103C1000AC01485F5F4F20E160E00C94681D6930A3
:103C200018F4662321F001C068E0615068606068A4
:103C30000C94C61DCF93DF93EC01E62FF0E0EE0F5E
:103C4000FF1FE65FFE4F80818C8391819D836A8395
:103C500061E00E94032B61E08D810E94032B61E0F3
:103C60008C810E943C2B61E08D810E943C2B60E4A2
:103C7000CE010E94C61D65E0CE010E940F1ECE013E
:103C8000DF91CF910C94F91DFC01668308958F920A
:103C90009F92AF92BF92CF92DF92EF92FF920F93DB
:103CA0001F93CF93DF9360310CF085C048300CF048
:103CB00082C0222309F47FC0FC013681A42FBB27D8
:103CC000A7FDB095E8E0F0E0EA1BFB0B5FEF01C059
:103CD000550FEA95EAF74801C0E0D0E0772767FD85
:103CE00070956C01C60ED71EAA24BB24AA1ABB0A63
:103CF000332379F1C21778F58E01060F171F17FDD0
:103D00001AC07601EC0EFD1EF70130853523F40153
:103D10000081141644F410E00A2E02C01595079590
:103D20000A94E2F705C00A2C01C0000F0A94EAF7D2
:103D3000032BF70100872196FFEF8F1A9F0ADACF36
:103D40008E01060F171F17FF19C02196FFEF8F1A5C
:103D50009F0AC217A8F3AC01485F5F4F20E160E003
:103D6000DF91CF911F910F91FF90EF90DF90CF9057
:103D7000BF90AF909F908F900C94681D7601EC0ED1
:103D8000FD1EF70130853523F401008110E0009518
:103D9000109514163CF40A2E02C0159507950A9446
:103DA000E2F705C00A2C01C0000F0A94EAF7032BC2
:103DB000F7010087CACFDF91CF911F910F91FF903C
:103DC000EF90DF90CF90BF90AF909F908F9008952D
:103DD0008F929F92AF92BF92CF92DF92EF92FF921B
:103DE0000F931F93CF93DF93EC01088D198D10165D
:103DF00011060CF073C080E090E0F82E8017910758
:103E000051F001968131910509F4E7C0FE01E80FF8
:103E1000F91F1782F2CF40E1841709F4DEC00B8D41
:103E20001C8DE12C67E0D62E70E2C72E4E2D50E09F
:103E3000401751070CF049C0B12CDE01A40FB51F8B
:103E40005D962B2D30E0D29EC001D39E900D1124A3
:103E500087529E4FFC016491603441F1FC016491F2
:103E6000EC91FF27E7FDF09570E0E617F707E1F426
:103E7000D29EB001D39E700D112420E030E0665236
:103E80007E4FFB01E20FF31FE491DE01AF0DB11D88
:103E90001896EC93F394FFE0FF1540F02F5F3F4F2F
:103EA0002630310571F702C0B394CBCFFC01849169
:103EB000803429F4FE01E40FF51FC58EEA94E394E3
:103EC000FFE0FF1508F0B2CF88C0FE01EF0DF11D35
:103ED0001086F39440E1F412F8CF7FC0EB8CFC8C99
:103EE0002AEFA7012403C001259F900D1124081774
:103EF000190759F480E090E0FE01E80FF91F1086E1
:103F0000019680319105C1F768C022273327201B15
:103F1000310BC90166E070E00E941E34398F288F92
:103F20009B0190E047E0B42E50E2A52E2E153F05F0
:103F30000CF04BC0912CDE01A20FB31F5D96692DD2
:103F400070E0B69EA001B79E500D112447525E4FFF
:103F5000FA01D490F0E4DF1631F1FA018490CC90AC
:103F6000DD24C7FCD094E82DF0E0CE16DF06C1F4C6
:103F7000B69ED001B79EB00D1124FD01E80FF11DD2
:103F800087FDFA95E652FE4F6491FE01E90FF11D9F
:103F900060879F5F903130F48F5F863071F702C089
:103FA0009394CDCF80E0FA014491403431F4FE0186
:103FB000E20FF31FA58E215031092F5F3F4F903143
:103FC00008F4B4CF198F088F08C0FE01E90FF11D66
:103FD00010869F5F9031C9F7F5CF4A8D552747FD71
:103FE000509527E030E0241B350B80E090E037FD52
:103FF00012C0FE01E80FF91F4085022E01C0440FD8
:104000000A94EAF7408701968031910591F78E81F5
:104010008823A1F01FC047505109FE01E80FF91F86
:10402000208530E0042E02C0359527950A94E2F7EA
:10403000208701968031910581F7E9CF80E090E0FB
:10404000FE01E80FF91F2085209520870196803119
:104050009105B1F7AE01485F5F4F20E160E0CE010E
:10406000DF91CF911F910F91FF90EF90DF90CF9054
:10407000BF90AF909F908F900C94681D0F931F93EB
:10408000FC0181E08783148E138E038D148DD9017A
:10409000A00FB11F8C91DF01A00FB11F882319F071
:1040A0000331110564F05D961C922AEF2003C001D4
:1040B000219F900D11246817790774F007C05D9651
:1040C0008C930F5F1F4F148F038FDFCFCB016131B4
:1040D000710514F080E190E0918F808F40310CF0F9
:1040E0004FE047FD4FEF428FCF011F910F910C948E
:1040F000E81ECF93DF93DC01362F862F6AE00E9403
:10410000FE33C82FD0E0FE01EE0FFF1FEC0FFD1FA6
:10411000EE54FE4FE4911896EC931897FE01EE0FC3
:10412000FF1FEC0FFD1FED54FE4FE4911996EC9329
:104130001997FE01EE0FFF1FEC0FFD1FEC54FE4F11
:10414000E4911A96EC931A971B961C921B97832F57
:104150000E94FE33692F70E0FB01EE0FFF1FE60F98
:10416000F71FEE54FE4FE4911C96EC931C97FB0155
:10417000EE0FFF1FE60FF71FED54FE4FE4911D9663
:10418000EC931D97FB01EE0FFF1FE60FF71FEC549A
:10419000FE4FE4911E96EC931E97842F6AE00E94D6
:1041A000FE33682F70E0FB01EE0FFF1FE60FF71FD5
:1041B000EE54FE4FE4915196EC935197FB01EE0FB4
:1041C000FF1FE60FF71FED54FE4FE4915296EC935C
:1041D0005297FB01EE0FFF1FE60FF71FEC54FE4F47
:1041E000E4915396EC93539754961C925497842FD2
:1041F0006AE00E94FE33892F90E0FC01EE0FFF1F62
:10420000E80FF91FEE54FE4FE4915596EC93559745
:10421000FC01EE0FFF1FE80FF91FED54FE4FE49174
:104220005696EC935697FC01EE0FFF1FE80FF91F0F
:10423000EC54FE4FE4915796EC935797222341F0AC
:1042400088E21F968C931F9750968C93509706C0C8
:104250001F961C921F9750961C92509716968C9101
:104260001697882351F0AD01485F5F4F20E160E071
:10427000CD01DF91CF910C94681D80E090E0FD01AD
:10428000E80FF91F20852095208701968031910540
:10429000B1F7E9CF2F923F924F925F926F927F9248
:1042A0008F929F92AF92BF92CF92DF92EF92FF9246
:1042B0000F931F93CF93DF93CDB7DEB72A970FB637
:1042C000F894DEBF0FBECDBF8C016A017B01922E38
:1042D0002A013B0177FA709477F8709420E030E07F
:1042E000A901C701B6010E94423087FF05C0498677
:1042F0005A86362C272C04C0C986DA863E2C2F2CF1
:104300007AE0A72EB12C20E03EE34CE156E4C70151
:10431000B6010E94093287FD03C089E08D83C5C0C4
:1043200020E030EE49E754ECC701B6010E9442306C
:10433000181624F08BE08D8389E0B7C020E030E0D0
:10434000A901C701B6010E944230882E881C88242A
:10435000881C712C60E070E080E09FE3791441F0EC
:1043600020E030E040E251E40E9446307394F6CF02
:104370009B01AC0169857A85832D922D0E947C2F4B
:104380002B013C010E94B3309B01462F972FE0E0A8
:10439000842FB5010E940A34A1E0B0E0AC0FBD1F2C
:1043A000AE0FB11D8AE0689F401911244C93EF5F56
:1043B0006115710519F0462F972FEACF8E2F880DC2
:1043C000982F990D953020F064E0962E981A9BCF87
:1043D0008CE08D838E838F83888784E0891B88207F
:1043E00041F0DE01A80FB11D8BE015968C9385E09E
:1043F000891BF82EFE0E8F2D8E1BEE2379F045E0E3
:1044000050E04C0F5D1F480F511DCE018E0F911DC6
:10441000DC018C91DA018C93E150EDCF992009F405
:1044200080C0B90180E090E00E94DF309B01AC01C8
:10443000C301B2010E947B2FFB01DC01E62EDF2EBF
:10444000C82EBB2E83E0F8120FC020E030E040E21F
:1044500051E4BF01CD010E9459320E94AE30672B5A
:1044600039F58CE088875DC082E0F8120EC020E04C
:1044700030E048EC52E4BF01CD010E9459320E9465
:10448000AE30672BA9F48CE011C081E0F81210C0A7
:1044900020E030E04AE754E4BF01CD010E945932E8
:1044A0000E94AE30672B21F48CE08E838F83DACFAD
:1044B000AA24A394AF0CE5E0F0E0EC0FFD1FEF0D94
:1044C000F11D8AE080839A94AFEF9A1651F120E0B3
:1044D00030E040E251E46E2D7D2D8C2D9B2D0E940D
:1044E00059326B017C010E94AE30882483948A0C7F
:1044F000E5E0F0E0EC0FFD1FEA0DF11D6083882779
:1045000077FD8095982F0E94E1309B01AC01C70197
:10451000B6010E947B2FE62ED72EC82EB92EA82CCE
:10452000D2CF8D8190E0FC01EE0FFF1FE80FF91F45
:10453000EE54FE4FE491D8011896EC93FC01EE0F77
:10454000FF1FE80FF91FED54FE4FE491D8011996B3
:10455000EC93FC01EE0FFF1FE80FF91FEC54FE4F28
:10456000E491D8011A96EC931A971B961C928E81AF
:1045700090E0FC01EE0FFF1FE80FF91FEE54FE4F15
:10458000E491D8011C96EC93FC01EE0FFF1FE80F9D
:10459000F91FED54FE4FE491D8011D96EC93FC01F8
:1045A000EE0FFF1FE80FF91FEC54FE4FE491D80106
:1045B0001E96EC931E971F961C928F8190E0FC0133
:1045C000EE0FFF1FE80FF91FEE54FE4FE491D801E4
:1045D0005096EC93FC01EE0FFF1FE80FF91FED540E
:1045E000FE4FE491D8015196EC93FC01EE0FFF1FB2
:1045F000E80FF91FEC54FE4FE491D8015296EC936A
:10460000529753961C92888590E0FC01EE0FFF1F95
:10461000E80FF91FEE54FE4FE491D8015496EC9345
:10462000FC01EE0FFF1FE80FF91FED54FE4FE49160
:10463000D8015596EC93FC01EE0FFF1FE80FF91F10
:10464000EC54FE4FE491D8015696EC93569757964A
:104650001C92579716968C91882301F1A801485F08
:104660005F4F20E160E0C8012A960FB6F894DEBFE4
:104670000FBECDBFDF91CF911F910F91FF90EF90B3
:10468000DF90CF90BF90AF909F908F907F906F9072
:104690005F904F903F902F900C94681D80E090E0C9
:1046A000F801E80FF91F20852095208701968031B9
:1046B0009105B1F7D3CF089570E0FB01E05CFB4FAB
:1046C000E491DC01EC93FB01EC5AFB4FE491F0E048
:1046D000EE0FFF1FE859FB4F25913491FC01328307
:1046E000218308951F93CF93DF93FC011081C18133
:1046F000D2819981812F8095892389838A81812B19
:104700008A838AE090E00E94182A9881912381E0B0
:1047100009F480E0DF91CF911F910895FF920F93EC
:104720001F93CF93DF93FC011081C181D281F89454
:104730008981F12EF0948F2189838A81812B8A834C
:1047400078940DE7015041F182E090E00E94182A30
:1047500088818123B9F3F8948A818F218A838981A2
:10476000812B8983789480EE91E00E94182AF89436
:1047700089818F2189838A81812B8A8386E490E0D5
:104780000E94182A8881812301E009F000E07894D2
:104790008AE991E00E94182A802FDF91CF911F9122
:1047A0000F91FF9008951F93CF93DF93FC01108129
:1047B000C181D281912F909560FF12C0F8948A81B7
:1047C00089238A838981812B89838AE090E00E94F2
:1047D000182A8A81812B8A83789487E390E011C01C
:1047E000F8948A8189238A838981812B898381E452
:1047F00090E00E94182A8A81812B8A83789485E030
:1048000090E0DF91CF911F910C94182A0F931F9382
:10481000CF93DF93FC011081C181D281F89489810B
:10482000812B89838A81012F009580238A8383E0ED
:1048300090E00E94182A8981802389838A81812BB4
:104840008A838AE090E00E94182AC881789485E3E0
:1048500090E00E94182A1C2381E009F480E0DF9197
:10486000CF911F910F910895CF92DF92EF92FF9217
:104870000F931F93CF93DF931F92CDB7DEB76C01D9
:10488000E62E08E010E0FF24F39461E09F2D9E21C6
:1048900009F460E0C60149830E94D323FF0C015054
:1048A000110949810115110581F741111DC0F894C5
:1048B000D6011196ED91FC91129791818C91809582
:1048C000892381831196ED91FC91129782819C91AD
:1048D000892B82831196ED91FC91129792818C9194
:1048E00080958923828378940F90DF91CF911F91D7
:1048F0000F91FF90EF90DF90CF900895EF92FF928D
:104900000F931F93CF93DF938C01C8E0D0E0F12C7D
:10491000EE24E394C8010E9406248111FE28EE0CC7
:104920002197C1F78F2DDF91CF911F910F91FF90AC
:10493000EF90089540E06CEC0C943424FC018091DD
:104940000A01808380910B01818312820895DC012A
:10495000E62FF0E0EE0FFF1FE65FFE4F80818C93A5
:10496000818111968C93119712966C930895FC0196
:1049700082810895FC0183810895CF93DF93EC0138
:1049800088810E94032B88810E94722B21E0892B51
:1049900009F420E0822FDF91CF910895CF93DF9328
:1049A000EC0189810E94032B89810E94722B21E0F6
:1049B000892B09F420E0822FDF91CF9108951F9376
:1049C000CF93DF93EC01162F61E088810E94032BC7
:1049D000612F8881DF91CF911F910C943C2B1F9305
:1049E000CF93DF93EC01162F61E089810E94032BA6
:1049F000612F8981DF91CF911F910C943C2BFC0199
:104A000080810C945E2AFC0181810C945E2AFC0159
:104A100080810C947B2ADC01E62FF0E0EE0FFF1F73
:104A2000E65FFE4F80818C93818111968C93119764
:104A300012966C930895DC01E62FF0E0EE0FFF1F55
:104A4000E65FFE4F80818C93818111968C93119744
:104A500012966C93129713964C930895FC018081E3
:104A60000895FC0181810895DC0112966C931297E0
:104A7000E62FF0E0EE0FFF1FE65FFE4F91811196EB
:104A80009C93119780818C934230D9F4292F30E088
:104A9000F901E05CFB4FE4911C96EC931C97F90143
:104AA000EC5AFB4FE491F0E0EE0FFF1FEE58FB4F86
:104AB0002591349119963C932E93189761E0892F94
:104AC00019C0282F30E0F901E05CFB4FE4911C96FF
:104AD000EC931C97F901EC5AFB4FE491F0E0EE0FD8
:104AE000FF1FEE58FB4F2591349119963C932E935E
:104AF000189761E00C94032BDC01862F262F30E001
:104B0000F901E05CFB4FE4911C96EC931C97F901D2
:104B1000EC5AFB4FE491F0E0EE0FFF1FEE58FB4F15
:104B20002591349119963C932E93189761E00C943B
:104B3000032BCF93DF93EC01262F30E03D832C83B2
:104B400023E0629FC00111240E9493349F838E83CF
:104B5000892B21F485E591E00E94943680E090E075
:104B60004C815D819A01220F331F240F351F82175C
:104B7000930738F4EE81FF81E80FF91F1082019648
:104B8000EFCFDF91CF9108950F931F93CF93DF93D2
:104B90001F92CDB7DEB78C0149830E94A724D801AC
:104BA00011968C91282F30E0F901E05CFB4FE491E5
:104BB000D8011C96EC93F901EC5AFB4FE491F0E01C
:104BC000EE0FFF1FEE58FB4F25913491F80131870E
:104BD000208761E00E94032B4981642FC8010F9058
:104BE000DF91CF911F910F910C9499250F93FC01A8
:104BF000A62FB0E084819581A817B907B8F4862F55
:104C0000880F860F90E0A681B781A80FB91F2C935B
:104C1000A681B781A80FB91F11964C930680F78122
:104C2000E02DE80FF91F028381E001C080E00F91C1
:104C30000895CF92DF92EF92FF920F931F93CF933D
:104C4000DF937C01142FD22EC02E611113C0C0E05F
:104C5000D0E0F70184819581C817D90748F40C2D5D
:104C60002D2D412F6C2FC7010E94F6252196F1CFE3
:104C700081E004C061500E94F62580E0DF91CF9171
:104C80001F910F91FF90EF90DF90CF9008950F93B9
:104C9000022F242F462F60E00E9419260F910895BD
:104CA0000F931F93D8013FB7F8949C91822F809562
:104CB0008923292BFB01460F571FE417F50781F0C5
:104CC000919168E02C9300C097FF8C93990F00C0DE
:104CD00000C000C008F48C9300C06A9599F7EDCF2E
:104CE0003FBF1F910F9108950F931F93FC01008503
:104CF000118524813581A901440F551F420F531F8F
:104D00006681778124850E9450261F910F91089516
:104D1000CF93DF93EC018E819F810E942B351F8200
:104D20001E82DF91CF910895CF93DF93EC010E9413
:104D30009E24CE010496DF91CF910C945B231F93A8
:104D4000CF93DF93EC01142F0E941B25123011F436
:104D5000698101C06881CE010496DF91CF911F91D6
:104D60000C945C23CF92DF92EF92FF920F931F93EC
:104D7000CF93DF93CDB7DEB72C970FB6F894DEBF95
:104D80000FBECDBF8C010C5F1F4FC8010E948E2348
:104D9000C8010E949A2440E064E4C8010E943424BF
:104DA0000E94C1296B017C01C8010E9472238111FC
:104DB0000BC00E94C1296C197D098E099F096E3EA6
:104DC00072408105910580F3C8010E948E23C801BD
:104DD0000E949A2440E06EEBC8010E943424CE0168
:104DE00001967C016E0196E0C90ED11CC8010E949B
:104DF0007E24F70181937F01EC15FD05B9F76A81E7
:104E000070E0762F66278981682B882777FD80954B
:104E1000982F0E94E13020E030E040E85DE30E94FE
:104E200059322C960FB6F894DEBF0FBECDBFDF917E
:104E3000CF911F910F91FF90EF90DF90CF90089549
:104E400060E00C94A72460E00C94CE2460E00C9405
:104E5000A724CF92DF92EF92FF92CF93DF9300D0FF
:104E600000D0CDB7DEB77C019A01AB0160E02983A9
:104E70003A834B835C830E94EF2482E090E00E949F
:104E8000182A61E0C7010E94EF248AE090E00E94A6
:104E9000182A60E0C7010E94EF2460E0F7018181D9
:104EA0000E94032B29813A814B815C8161E0F701EB
:104EB00081810E949B2B6B017C0188EC90E00E9419
:104EC000182AC701B6010F900F900F900F90DF9135
:104ED000CF91FF90EF90DF90CF90089527E3269F2A
:104EE000A001279F500D112448535F4F60E070E0F0
:104EF0000E9429270E94E13020E030E048E652E499
:104F00000E94463008951F920F920FB60F921124FF
:104F10002F933F934F935F936F937F938F939F93C1
:104F2000AF93BF93EF93FF938091C30587FF05C0B5
:104F300010928500109284001AC02091C305332777
:104F400027FD30958091C20590E0281739077CF441
:104F50008091C305992787FD9095FC01EE0FFF1FF7
:104F6000E80FF91FEC53FA4F808187FD15C080913F
:104F7000C3058F5F8093C3052091C305332727FDA9
:104F800030958091C20590E028173907BCF48091D4
:104F9000C3058C305CF112C08091C305992787FD51
:104FA0009095FC01EE0FFF1FE80FF91FEC53FA4F2D
:104FB000808160E08F770E943C2BD9CF8091840064
:104FC00090918500049680349C4918F480E49CE913
:104FD00005C080918400909185000496909389008B
:104FE000809388008FEF8093C30538C020918400A0
:104FF000309185008091C305992787FD9095FC012C
:10500000EE0FFF1FE80FF91FEC53FA4F81819281D9
:10501000820F931F90938900809388008091C3052D
:10502000992787FD9095FC01EE0FFF1FE80FF91FF0
:10503000EC53FA4F808187FF11C08091C3059927F7
:1050400087FD9095FC01EE0FFF1FE80FF91FEC5351
:10505000FA4F808161E08F770E943C2BFF91EF91A6
:10506000BF91AF919F918F917F916F915F914F9180
:105070003F912F910F900FBE0F901F901895209188
:10508000C2052C30A0F431E0320F3093C205FC0190
:105090002083822F90E0FC01EE0FFF1FE80FF91F25
:1050A000EC53FA4F88EB9BE09283818308952FEFB6
:1050B000FC0120830895DF92EF92FF920F931F93DC
:1050C000CF93DF93EC01D62E7A01890188818C3051
:1050D00008F066C061E08D2D0E94032B8881A82F07
:1050E000B0E0FD01EE0FFF1FEA0FFB1FEC53FA4F7C
:1050F0002D2D2F7790819078922B908360E272E033
:105100006E197F0977FF02C06D5F7F4F75956795B8
:1051100075956795698340E659E0401B510B57FF31
:1051200002C04D5F5F4F55954795559547954A830A
:105130006CE00E94FE339CE0899FB001112420E0C6
:1051400030E0A901460F571FFA01EE0FFF1FE40FD1
:10515000F51FEC53FA4F908197FD16C02F5F3F4F1C
:105160002C30310571F781110FC01092800082E060
:10517000809381001092850010928400B19A8091F2
:105180006F00826080936F00888190E0FC01EE0FD9
:10519000FF1FE80FF91FEC53FA4F8081806880836E
:1051A0008881DF91CF911F910F91FF90EF90DF9059
:1051B000089520E639E040E252E00C945B28FC01BF
:1051C00080818C3070F5918128E830E0291B31090D
:1051D00097FD3395220F331F220F331F621773077A
:1051E0007CF0928128E532E0291B310997FD339547
:1051F000220F331F220F331F621773070CF49B011A
:1052000022503109220F331F4FB7F89490E0FC0170
:10521000EE0FFF1FE80FF91FEC53FA4F3283218383
:105220004FBF08954F925F926F927F92AF92BF925D
:10523000CF92DF92EF92FF920F931F93CF93DF9362
:10524000EC01603282E078070CF040C077FD06C0C8
:10525000653B71052CF064EB70E002C060E070E02B
:10526000898128E830E0281B310987FD3395220F1A
:10527000331F220F331F5901CC24B7FCC094DC2C00
:10528000882777FD8095982F2A8148E552E0421BB8
:10529000510927FD5395440F551F440F551F2A01EF
:1052A000662457FC6094762C7F926F925F924F92A7
:1052B00014EBE12EF12C00E010E020E030E0A90139
:1052C0000E94252E0F900F900F900F90CE01DF912E
:1052D000CF911F910F91FF90EF90DF90CF90BF90F3
:1052E000AF907F906F905F904F900C94DF281F924B
:1052F0000F920FB60F9211242F933F938F939F938A
:10530000AF93BF938091E9059091EA05A091EB05D9
:10531000B091EC053091E80523E0230F2D3720F400
:105320000196A11DB11D05C026E8230F0296A11DFF
:10533000B11D2093E8058093E9059093EA05A093B9
:10534000EB05B093EC058091ED059091EE05A091F1
:10535000EF05B091F0050196A11DB11D8093ED05FB
:105360009093EE05A093EF05B093F005BF91AF9138
:105370009F918F913F912F910F900FBE0F901F9093
:1053800018952FB7F8946091E9057091EA0580911E
:10539000EB059091EC052FBF08953FB7F8948091ED
:1053A000ED059091EE05A091EF05B091F00526B5C1
:1053B000A89B05C02F3F19F00196A11DB11D3FBF4D
:1053C0006627782F892F9A2F620F711D811D911DDD
:1053D00042E0660F771F881F991F4A95D1F70895FD
:1053E000CF92DF92EF92FF92CF93DF936B017C011C
:1053F0000E94CD29EB01C114D104E104F10489F02C
:105400000E947A2F0E94CD296C1B7D0B683E734051
:1054100090F381E0C81AD108E108F108C851DC4FC7
:10542000EACFDF91CF91FF90EF90DF90CF9008957A
:105430008230910538F0880F991F880F991F0597C2
:105440000197F1F70895789484B5826084BD84B59E
:10545000816084BD85B5826085BD85B5816085BD6F
:10546000EEE6F0E0808181608083E1E8F0E0108288
:10547000808182608083808181608083E0E8F0E0C9
:10548000808181608083E1EBF0E0808184608083B3
:10549000E0EBF0E0808181608083EAE7F0E08081EA
:1054A000846080838081826080838081816080834A
:1054B0008081806880831092C10008958E3008F04A
:1054C0008E5087702091280190E4299F900111242B
:1054D000822B80937C0080917A00806480937A0094
:1054E00080917A0086FDFCCF809178002091790030
:1054F00090E0922B08951F93CF93DF93182FEB0129
:1055000061E00E94032B209711F460E004C0CF3FBC
:10551000D10539F461E0812FDF91CF911F910C9477
:105520003C2BE12FF0E0E45DFB4FE491E330F9F038
:1055300048F4E130B9F0E230A1F584B5806284BD71
:10554000C8BD34C0E730E9F0E83019F1E43049F57E
:1055500080918000806280938000D0938B00C09304
:105560008A0024C084B5806884BDC7BD1FC08091F7
:105570008000806880938000D0938900C093880069
:1055800015C08091B00080688093B000C093B300D4
:105590000DC08091B00080628093B000C093B400D1
:1055A00005C0C038D1050CF0B5CFAFCFDF91CF919A
:1055B0001F910895833081F028F4813099F0823072
:1055C000A1F008958730A9F08830B9F08430D1F483
:1055D000809180008F7D03C0809180008F778093C1
:1055E0008000089584B58F7702C084B58F7D84BD17
:1055F00008958091B0008F7703C08091B0008F7DB7
:105600008093B0000895CF93DF9390E0FC01E05CBD
:10561000FB4F2491FC01EC5AFB4F8491882349F104
:1056200090E0880F991FFC01E458FB4FA591B491BD
:105630008E589B4FFC01C591D4919FB7611108C052
:10564000F8948C91209582238C93888182230AC0C0
:10565000623051F4F8948C91322F309583238C93DF
:105660008881822B888304C0F8948C91822B8C9340
:105670009FBFDF91CF9108950F931F93CF93DF9337
:105680001F92CDB7DEB7282F30E0F901E45DFB4F64
:105690008491F901E05CFB4F1491F901EC5AFB4F46
:1056A00004910023C9F0882321F069830E94DA2A3B
:1056B0006981E02FF0E0EE0FFF1FEE58FB4FA59140
:1056C000B4919FB7F8948C91611103C01095812318
:1056D00001C0812B8C939FBF0F90DF91CF911F91C1
:1056E0000F910895CF93DF93282F30E0F901E45D07
:1056F000FB4F8491F901E05CFB4FD491F901EC5A26
:10570000FB4FC491CC2391F081110E94DA2AEC2F37
:10571000F0E0EE0FFF1FE859FB4FA591B4912C91DB
:105720002D2381E090E021F480E002C080E090E051
:10573000DF91CF9108950F931F93762F90E0FC0196
:10574000E05CFB4F6491FC01EC5AFB4FE49171115A
:10575000762FF0E0EE0FFF1FE859FB4F85919491F3
:1057600089019A013F70472F0E94730261157105EC
:105770008105910531F06F5F7F4F8F4F9F4F9F7075
:1057800003C060E070E0CB011F910F910895FC0110
:10579000818D228D90E0805C9F4F821B91098F73D9
:1057A00099270895FC01918D828D981731F0828D93
:1057B000E80FF11D858D90E008958FEF9FEF08951C
:1057C000FC01918D828D981761F0828DDF01A80F09
:1057D000B11D5D968C91928D9F5F9F73928F90E02B
:1057E00008958FEF9FEF089584E69DE2892B49F09D
:1057F00080E090E0892B29F00E94642D81110C94A7
:1058000000000895FC01848DDF01A80FB11DA35A8B
:10581000BF4F2C91848D90E001968F739927848FD0
:10582000A689B7892C93A089B1898C9180648C93C7
:10583000938D848D981306C00288F389E02D8081B2
:105840008F7D80830895CF93DF93EC01888D88232B
:10585000C9F0EA89FB89808185FD05C0A889B989DD
:105860008C9186FD0FC00FB607FCF5CF808185FFB8
:10587000F2CFA889B9898C9185FFEDCFCE010E9426
:10588000022CE7CFDF91CF910895CF92DF92FF9264
:105890000F931F93CF93DF931F92CDB7DEB76C01A9
:1058A00081E0D60158968C9358975B969C915B97B4
:1058B0005C968C915C97981307C05096ED91FC9183
:1058C0005197808185FD2EC0F601038D10E00F5F9A
:1058D0001F4F0F731127F02EF601848DF81211C09F
:1058E0000FB607FCF9CFD6015096ED91FC91519778
:1058F000808185FFF1CFC60169830E94022C6981F6
:10590000EBCF838DE80FF11DE35AFF4F6083D60183
:105910005B960C935B975296ED91FC915397808127
:1059200080620CC0D6015696ED91FC91579760832A
:105930005096ED91FC91519780818064808381E045
:1059400090E00F90DF91CF911F910F91FF90DF902A
:10595000CF900895BF92CF92DF92EF92FF92CF93B4
:10596000DF93EC016A017B01B22EE889F98982E0BC
:105970008083411581EE580761057105A1F060E053
:1059800079E08DE390E0A70196010E943234215026
:1059900031094109510956954795379527952115A4
:1059A00080E1380798F0E889F989108260E874E8A6
:1059B0008EE190E0A70196010E9432342150310916
:1059C000410951095695479537952795EC85FD85F1
:1059D0003083EE85FF852083188EEC89FD89B082A7
:1059E000EA89FB89808180618083EA89FB898081E3
:1059F00088608083EA89FB89808180688083EA8966
:105A0000FB8980818F7D8083DF91CF91FF90EF9024
:105A1000DF90CF90BF9008951F920F920FB60F9214
:105A200011242F938F939F93EF93FF93E09101069F
:105A3000F09102068081E0910706F091080682FD50
:105A400012C0908180910A068F5F8F7320910B06A0
:105A5000821751F0E0910A06F0E0EF50FA4F958F6F
:105A600080930A0601C08081FF91EF919F918F91F1
:105A70002F910F900FBE0F901F9018951F920F92AD
:105A80000FB60F9211242F933F934F935F936F9311
:105A90007F938F939F93AF93BF93EF93FF9381EF88
:105AA00095E00E94022CFF91EF91BF91AF919F91E1
:105AB0008F917F916F915F914F913F912F910F90B7
:105AC0000FBE0F901F90189581EF95E00E94C72B95
:105AD00021E0892B09F420E0822F08951092F4052B
