:100000000C9498000C94C0000C94C0000C94C00098
:100010000C94C0000C94C0000C94C0000C944B0DC8
:100020000C949F0A0C94C0000C94C0000C946513AF
:100030000C94C0000C94C0000C94C0000C94C00040
:100040000C94AC170C94C0000C94A51A0C94F71ADD
:100050000C94C0000C94C0000C94C0000C94C00020
:100060000C94E6140C94C0004106AC04BE04DE04FB
:10007000DE04F4047806DE0478067806780678064E
:1000800078062B05470587057806A7057C057806C1
:100090007806D70578067806780678067806780612
:1000A0007806780650065806780678067806200600
:1000B0007806780678067806780678067806780650
:1000C0007806780678067806780678066E060000C8
:1000D0000000240027002A0000000000250028005E
:1000E0002B00000000002300260029000404040463
:1000F00004040404020202020202030303030303D2
:1001000001020408102040800102040810200102AE
:10011000040810200000000700020100000304068C
:100120000000000000000000AA015314661CA30197
:1001300011241FBECFEFD8E0DEBFCDBF11E0A0E09D
:10014000B1E0E4E2F4E402C005900D92AA38B107F0
:10015000D9F714E0AAE8B1E001C01D92A539B107B2
:10016000E1F711E0CEE2D1E004C02297FE010E9447
:100170000122C832D107C9F70E94BD1C0C94052288
:100180000C940000FB01DC0102C001900D92415073
:100190005040D8F70895DC0101C06D9341505040A4
:1001A000E0F70895FB01DC0101900D920020E1F7DA
:1001B00008956330C1F58BE080931C018CE080933F
:1001C0001D0189E080931E018AE080931F0180E178
:1001D0008093200181E1809321018EE080932201B0
:1001E0008FE08093230146E04093240137E0309371
:1001F000250125E02093260194E09093270185E1D5
:10020000809328018DE08093290188E080932A0162
:1002100084E180932B0140932C0130932D01209396
:100220002E0190932F0108953091FC01332321F08A
:10023000FC01EF5CFD4F03C0FC01E350FE4FE08189
:10024000E093EF01FC013196332319F0EF5CFD4F91
:1002500002C0E350FE4F20812093F001FC01329652
:10026000332319F0EF5CFD4F02C0E350FE4F2081B5
:100270002093F101FC013396332319F0EF5CFD4F1D
:1002800002C0E350FE4F80818093F2012091EF0184
:100290003091F0014091F101582FB901CA01089540
:1002A00081309105D1F56F5F7F4F09F04BC08AE82F
:1002B00091E063E00E94D9008BE891E00E94600B1E
:1002C00080E991E00E94211283E991E00E94A90B4C
:1002D0008AE991E00E94C1118DEA91E00E9411111A
:1002E00089EB91E00E941D128FEB91E00E94490A78
:1002F0008AEC91E00E943C0F8FEC91E00E94310D5E
:1003000085EF91E060E071E00E941B1E80E792E0C3
:1003100068E071E00E941B1E0895892B99F46F5FBD
:100320007F4F81F480E792E00E946E1E85EF91E09E
:100330000E946E1E80EE91E00E946E1E8DEA91E09A
:100340000E948710089580E090E06FEF7FEF0E9499
:100350005001089581E090E06FEF7FEF0E9450011F
:1003600008958BE891E064EF71E020E030E040E038
:1003700050E00E940C0B08958BE891E00E94010B65
:1003800008957F928F929F92AF92BF92CF92DF9209
:10039000EF92FF920F931F93DF93CF93CDB7DEB70A
:1003A0002C970FB6F894DEBF0FBECDBF2091FC0195
:1003B000222319F0B090370202C0B0900302CB2C78
:1003C000DD248D30910509F42BC18E309105D4F4D4
:1003D0008830910509F49BC08930910544F483303D
:1003E000910509F402C1059709F00BC24DC08A308E
:1003F000910519F18A3091050CF4DEC00B9709F0D4
:1004000000C2B4C08032910509F498C181329105CF
:1004100044F48431910509F454C14E9709F0F1C1B7
:100420007CC18232910509F49BC1823291050CF4A2
:10043000BEC1C29709F0E5C1D2C1222319F0809153
:10044000380202C0809104028093F301222319F044
:100450008091390202C0809105028093F401E090FE
:10046000F301F090F40183E991E00E94550F90E0D0
:100470008C159D0529F083E991E06B2D0E945B0F9F
:1004800083E991E0B70140C0222319F0809137023F
:1004900002C0809103028093F301222319F080911E
:1004A000380202C0809104028093F4010091F301AC
:1004B0001091F40183E991E069E00E945B0F83E908
:1004C00091E0B8010E94660B9091FC01992319F00C
:1004D0008091390202C0809105028093F301992333
:1004E00019F080913A0202C0809106028093F401D3
:1004F0000091F3011091F40183E991E06AE00E9418
:100500005B0F83E991E0B8010E94660B7AC1222358
:1005100049F0F0903802D0903902E0903A02009110
:100520003B0208C0F0900402D0900502E090060261
:10053000009107028DEA91E06B2D0E94E710FF20E9
:1005400049F0FA948DEA91E06F2D4D2D2E2D0E94E9
:10055000DC0F07C08DEA91E06D2D4E2D202F0E94FB
:1005600007108DEA91E00E9458104BC1222319F028
:100570008091380202C080910402F601EE0FFF1F45
:10058000813021F4E65EFE4F308103C0E65EFE4F0F
:100590003181222319F06091390202C06091050275
:1005A000E62EFF2485EBE816F10408F02AC180E965
:1005B00091E0632F70E00BC18FEB91E00E94550F2B
:1005C00090E08C159D0529F08FEB91E06B2D0E943A
:1005D000410887E090E00E941401AB01BC018FEB61
:1005E00091E021E00E942F090CC18AEC91E00E9469
:1005F000550F90E08C159D0529F08AEC91E06B2D4C
:100600000E945B0F8091FC01882319F080913802D1
:1006100002C08091040260E0882309F470C06EC0BB
:10062000222319F08091330202C08091FF01882EAD
:100630009924EDEFFFEF8E0E9F1E8E010F5F1F4F6F
:10064000C80168E071E00E941B1E97E3A92E92E0AA
:10065000B92E83E0C82E82E0D82EEE24FF24702E1F
:10066000012F15C08091FC01882311F0F50101C014
:10067000F6016081872D902F0E94D51D0894E11C02
:10068000F11C0894A11CB11C0894C11CD11CE814D5
:10069000F90444F38E01095F1F4FC8017E010894DD
:1006A000E11CF11CB7010E94641E8FEC91E0B801BF
:1006B0000E94FD0CC8010E946E1EC7010E946E1EA2
:1006C000A0C08AEC91E00E94550F90E08C159D052A
:1006D00029F08AEC91E06B2D0E945B0F8091FC0168
:1006E000882319F08091380202C08091040290E0C2
:1006F000823091054CF460E0892B09F061E08AECCE
:1007000091E00E94A10F7DC060E0029709F061E0D6
:100710008AEC91E00E948E0F74C08B2D61E00E94E4
:1007200022198091FC01882319F06091380202C0DF
:10073000609104028B2D0E94611963C08B2D61E0D2
:100740000E9422198091FC01882319F060913802DF
:1007500002C0609104028B2D70E00E94C21851C04B
:10076000222319F08091370202C080910302809306
:10077000F301222319F08091380202C08091040213
:100780008093F4016091F3017091F401161617063D
:100790004CF48BE891E020E030E040E050E00E9433
:1007A0000C0B2FC08BE891E00E94010B2AC0222382
:1007B00019F06091380202C060910402E62EFF2415
:1007C000F5EBEF16F104E8F480E991E0B6010E9440
:1007D0005E1380E991E0B7010E94771212C00E9477
:1007E000F4170E94572020E030E04AE754E40E94CA
:1007F000BE1F609376027093770280937802909385
:1008000079022C960FB6F894DEBF0FBECDBFCF9104
:10081000DF911F910F91FF90EF90DF90CF90BF90ED
:10082000AF909F908F907F9008951092FB018FE67C
:1008300094E00E94B91B181619065CF481E08093BD
:10084000FB011092FC018FE694E00E94ED1B809367
:1008500068020895682F8FE694E00E94261C089590
:10086000EF92FF920F931F937B018C0182E00E9415
:100870002A04E092EF01F092F0010093F10110934D
:10088000F2018091EF010E942A048091F0010E9400
:100890002A048091F1010E942A048091F2010E94B1
:1008A0002A041F910F91FF90EF900895EF92FF920D
:1008B0000F931F93CF93DF937C01FC01048115817B
:1008C00084E00E942A04802F0E942A04C0E0D0E025
:1008D00007C0C701BE010E94611D0E942A04219623
:1008E000C017D107B4F3DF91CF911F910F91FF9003
:1008F000EF9008951F93182F81E00E942A04812F02
:100900000E942A041F910895CF92DF92EF92FF92E6
:100910000F931F93DF93CF93CDB7DEB72C970FB60E
:10092000F894DEBF0FBECDBF2091FC01222319F049
:10093000F090370202C0F09003020F2D10E0FC018E
:100940008333910508F0D4C1EC5CFF4FEE0FFF1F1D
:100950000590F491E02D099489EB91E00E94550FE8
:1009600090E08017910729F089EB91E06F2D0E94AC
:100970005B0F89EB91E00E941812B8C1222319F095
:10098000E090380202C0E09004028AE991E00E94FF
:10099000550F90E08017910731F48AE991E00E94A9
:1009A000580F8E1531F08AE991E06F2D4E2D0E947F
:1009B000AD118AE991E00E94361198C18AEC91E06C
:1009C0000E94550F90E08017910709F43FC08AEC10
:1009D00091E06F2D0E945B0F8AEC91E00E94810FE5
:1009E00060E00E94221932C0222319F0809138025F
:1009F00002C080910402C82EDD248AEC91E00E949E
:100A0000550F90E08017910799F08AEC91E06F2DD7
:100A10000E945B0F8AEC91E00E947E0F60E00E94D2
:100A200022198AEC91E00E94810F60E00E94221955
:100A300081E0C816D10429F48AEC91E00E94890F64
:100A400044C1E2E0CE16D10409F052C18AEC91E033
:100A50000E94840F3AC180916F02882309F448C133
:100A60008E010F5F1F4FC80160E772E00E94641E95
:100A7000C8010E945604C8010E946E1E10926F02A7
:100A800080E792E068E071E00E94341E31C12223C9
:100A900019F01091380202C0109104020E94F4175C
:100AA0000E94572020E030E04AE754E40E94BE1F35
:100AB00020917E0230917F0240918002509181020C
:100AC0000E94551F2DEC3CEC4CE45EE30E94092192
:100AD000181614F480E00DC040E080916E02992752
:100AE00087FD9095212F30E08217930709F441E0AC
:100AF000842F0E947A0406C080916E020E947A04BC
:100B000010926E0210926D0210926C02F1C08AEC8B
:100B100091E00E94550F90E08017910761F08AECF8
:100B200091E06F2D0E945B0F8AEC91E00E94810F93
:100B300060E00E9422198AEC91E00E94B40F90E0DC
:100B4000A0E0B0E0BC01CD010E945720CFC08AECEC
:100B500091E00E94550F90E08017910799F08AEC80
:100B600091E06F2D0E945B0F8AEC91E00E947E0F56
:100B700060E00E9422198AEC91E00E94810F60E0FF
:100B80000E9422198AEC91E00E94C80FE82E8AEC9C
:100B900091E00E94B40FFF24EE0CFF1CE80EF11C44
:100BA0000027F7FC0095102FC801B70194C022233D
:100BB00019F0E090380202C0E0900402CE2CDD244F
:100BC0008AEC91E00E94550F90E08017910741F464
:100BD0008AEC91E00E94580F90E08C159D0531F051
:100BE0008AEC91E06F2D4E2D0E946B0FF1E0CF1635
:100BF000D10461F48AEC91E00E947E0F62E00E94D1
:100C000022198AEC91E00E94C80F0BC08AEC91E097
:100C10000E94810F62E00E9422198AEC91E00E94FA
:100C2000B40F90E0A0E0B0E0BC01CD010E945720DD
:100C3000E62F2E2F372F482F592FB901CA0156C042
:100C4000000F111F065F1E4FF8011081222319F0BB
:100C50000091380202C000910402812F60E00E94DE
:100C60002219812F0E94A01810E00B970CF411E0BC
:100C700080E0111181E080270E947A0410938202A3
:100C800037C08E01095F1F4FC80165EF71E00E94F8
:100C9000641EC8010E945604C8010E946E1E28C02E
:100CA0008F2D60E00E9422198F2D0E94B5190DC072
:100CB000000F111F065F1E4FF8011081812F60E0A9
:100CC0000E942219812F0E94A018AA2797FDA095A3
:100CD000BA2FBC01CD010E94592008C060917A0250
:100CE00070917B0280917C0290917D020E94300481
:100CF0002C960FB6F894DEBF0FBECDBFCF91DF911B
:100D00001F910F91FF90EF90DF90CF9008958FEF9C
:100D10000E942A0485E50E942A0408958FE694E043
:100D20000E94F81C08958FEF0E942A0485E50E9416
:100D30002A040E948E0608950F931F931092670253
:100D40008091FC01882339F00091340280913502B2
:100D50001091360206C000910002809101021091AC
:100D600002028230B1F0833018F4813089F505C079
:100D70008430A1F0853061F529C00E948706802F5C
:100D80000E942A04812F90E00E9484040E948E0613
:100D90001FC0812F90E00E94C10118C083E991E03B
:100DA00069E00E945B0F83E991E060E070E00E94DF
:100DB000660B83E991E06AE00E945B0F83E991E0B2
:100DC00060E070E00E94660B0E94BC010E949306E6
:100DD0001F910F9108950E94F4170E94572020E060
:100DE00030E04AE754E40E94BE1F20917602309121
:100DF000770240917802509179020E94551F6093CA
:100E00007A0270937B0280937C0290937D028FEC38
:100E100091E00E94760C892B09F44BC08091D0019F
:100E20009091D101A091D201B091D301CD01AA2717
:100E3000BB2780936E020E94F4170E94572020E087
:100E400030E04AE754E40E94BE1F60937E02709334
:100E50007F02809380029093810281E080938302DD
:100E600060916E026A3011F06D3041F410926D02A3
:100E700010926C0281E080936F022EC080E792E0B6
:100E80000E94D51D80916C0290916D020196909305
:100E90006D0280936C0281349105F4F010926D0222
:100EA00010926C0280E792E068E071E00E94341ECC
:100EB00013C020916A0230916B022F5F3F4F309335
:100EC0006B0220936A0280916E0218164CF4295826
:100ED000334134F010926E0210926B0210926A024B
:100EE0000E9415048091FB01882309F44FC02091D2
:100EF0006802253571F480916702882351F480914E
:100F000069028F3F31F581E080936502809367022B
:100F100020C020936902809167028823D1F09091CC
:100F20006502923019F42093660207C0933028F0CE
:100F300080916602815080936602E92FF0E08091F3
:100F4000FC01882319F0EF5CFD4F02C0E350FE4F17
:100F50002083809165028F5F80936502843320F047
:100F6000109265021092670280916702882371F0E7
:100F700080916602882351F480916502843030F0BC
:100F8000109267020E949C061092650208950F93CA
:100F90001F938DE061E00E9422198DE061E00E94C4
:100FA00061196CE271E080E090E00E9402188DE02F
:100FB00060E00E9461198FE694E040E052EC61E04D
:100FC00070E00E94321B64EF71E080E090E00E94CC
:100FD00002180E94B10162E370E080E090E00E949C
:100FE00002180E94BC018FEC91E00E94440C0DEAB3
:100FF00011E0C8016DE00E94E710C80162E00E94A4
:10100000D010C80160E040E020E00E940710C80155
:101010000E9458101F910F9108950F931F938C01F8
:10102000FC01818160E00E946119F801808160E02B
:101030000E946119F801818161E00E946119F80143
:10104000808161E00E9461191F910F9108950F93B3
:101050001F938C01FC01818161E00E946119F801FC
:10106000808161E00E946119F801808160E00E9446
:101070006119F801818160E00E9461191F910F914F
:1010800008950F931F938C01E62FDC0112966C9349
:101090001297F0E0EE0FFF1FE65EFE4F8181119682
:1010A0008C93119790819C9361E00E942219F80122
:1010B000808161E00E94221980E4D80115968C930A
:1010C000159780EC16968C9316978AE817968C9352
:1010D0001F910F910895FF920F931F93CF93DF936A
:1010E000EC01162FFF24898160E00E946119012F15
:1010F000112707FD109500FF03C0888161E002C041
:10110000888160E00E946119898161E00E94611913
:10111000F39488E0F81621F015950795102FE3CF8A
:10112000898160E00E946119888161E00E946119F3
:10113000898161E00E946119888160E00E94221922
:101140000BC01F5F183C49F4888161E00E9422199E
:10115000888160E00E94611910E088810E94B519C1
:10116000892B79F7888161E00E942219DF91CF9164
:101170001F910F91FF900895EF92FF920F931F938D
:10118000CF93DF93EC017B010E942708CE0160E43E
:101190000E946B08CE010E940D08CE010E94270814
:1011A000CE016E810E946B0800E010E0F701E00FB5
:1011B000F11FCE0160810E946B080F5F1F4F04304A
:1011C0001105A1F7CE010E940D08CE010E9427084B
:1011D000CE016F810E946B08CE010E940D08DF9145
:1011E000CF911F910F91FF90EF9008950F931F9350
:1011F000DF93CF9300D000D0CDB7DEB78C0120E0D5
:1012000030E0AE014F5F5F4FFA01E20FF31FDB01E9
:10121000A20FB31F8C9180832F5F3F4F2430310585
:1012200099F7DA019E012B5F3F4FEC91FF27E7FD15
:10123000F095E95CFE4F80818D93A217B307A9F763
:10124000C801BE016F5F7F4F0E94BC080F900F90D6
:101250000F900F90CF91DF911F910F9108952F92D2
:101260003F924F925F926F927F928F929F92AF9236
:10127000BF92CF92DF92EF92FF920F931F93DF9373
:10128000CF93CDB7DEB72E970FB6F894DEBF0FBE63
:10129000CDBF9A8789874A015B01322EDB01CA01E3
:1012A000B0588B879C87AD87BE87C501B40120E00D
:1012B0003EE34CE156E40E940921882354F4C50121
:1012C000B40120E030EE49E754EC0E94BA1F181632
:1012D00034F080E28C838B838A838983BAC0C50112
:1012E000B40120E030E040E050E00E94BA1F87FDEA
:1012F00004C075016401222406C0CB84DC84ED8423
:10130000FE842224239420E030E040E05FE310E0FC
:101310000BC0CA01B90120E030E040E251E40E9474
:10132000BE1F9B01AC011F5F131598F3C701B601E7
:101330000E94561F7B018C010E942B206B0180E0D4
:1013400090E00E9457209B01AC01C801B7010E94A8
:10135000551F2B013C0110E0C6016AE070E00E94BD
:101360009B21AB01E5E0F0E0EC0FFD1FE10FF11D6B
:10137000CB01880F991F9A0163E0220F331F6A95F2
:10138000E1F7820F931FAC2DA81BA0831F5F4115AF
:10139000510511F06A01E0CF812F820D282F230D16
:1013A000253020F024E0322E381A7FCF80E28C8363
:1013B0008B838A83898394E0921B222031F0FE0183
:1013C000E90FF11D81E281839F5F392F212FBE013B
:1013D0006F5F7F4FAE014C5F5F4F0AC0FB01E30FB1
:1013E000F11DDA01A20FB11D8C9180833F5F215066
:1013F0002223A1F7D92ED10E332059F1FE01ED0D94
:10140000F11D8081805F80835E010894A11CB11C66
:10141000C301B20120E030E040E251E40E940D211E
:101420007B018C010E942620F501ED0DF11D6083EA
:10143000D394882777FD8095982F0E9459209B018F
:10144000AC01C801B7010E94551F2B013C013A9421
:10145000F9F689859A85BE016F5F7F4F0E94F60875
:101460002E960FB6F894DEBF0FBECDBFCF91DF91A1
:101470001F910F91FF90EF90DF90CF90BF90AF90B2
:101480009F908F907F906F905F904F903F902F90A4
:1014900008950E94330F0895CF92DF92EF92FF924A
:1014A0001F93CF93DF936B017C011092B0001092D9
:1014B000B1008091B0008C7F82608093B0008091F9
:1014C000B100877F8093B10062E17AE780E090E02D
:1014D000A70196010E94C22110E01F5FE12FF0E0FA
:1014E000EE0FFF1FE75AFE4FC081D181C217D3070D
:1014F000A0F360E072E18AE790E0A70196010E9404
:10150000C221CA01B9019E0140E050E00E94C221FF
:1015100021502093B3008091B1001770887F182B61
:101520001093B10080917000846080937000DF910F
:10153000CF911F91FF90EF90DF90CF9008951F9271
:101540000F920FB60F9211242F933F934F935F93F7
:101550006F937F938F939F93AF93BF93EF93FF937B
:101560008091850290918602A0918702B0918802B5
:101570000097A105B10551F1E0918902F0918A022D
:10158000808190918B028927808380918502909140
:101590008602A0918702B0918802181619061A06D1
:1015A0001B06F4F48091850290918602A091870237
:1015B000B09188020197A109B109809385029093A7
:1015C0008602A0938702B09388020AC080917000BF
:1015D0008B7F809370008091840260E00E9461198B
:1015E000FF91EF91BF91AF919F918F917F916F91FB
:1015F0005F914F913F912F910F900FBE0F901F90D1
:101600001895E0E7F0E080818B7F808380918402F1
:1016100060E00E9461190895EF92FF920F931F936B
:10162000CF93DF93EB0179018A0180918402482FE7
:1016300050E0FA01E451FF4FE491F0E0EE0FFF1F9C
:10164000E852FF4F2591349130938A02209389020A
:1016500040505F4FFA01949190938B0261E00E9499
:101660002219E114F1040105110529F48FEF9FEF10
:10167000AFEFBFEF11C0BE01660F771F80E090E0B3
:10168000A80197010E94702128EE33E040E050E06D
:101690000E94C221C901DA018093850290938602DB
:1016A000A0938702B0938802BE0180E090E00E9480
:1016B0004C0ADF91CF911F910F91FF90EF90089509
:1016C0000E94330F88E0809384020895EF92FF9286
:1016D0000F931F93CF93DF93EC018B016F3F710545
:1016E00019F014F00FEF10E078018FEF01301807B8
:1016F0002CF481E0E82E8FEFF82E11C017FD0FC0FB
:10170000888161E00E942219898161E00E9422198A
:10171000898161E00E9461198881B80111C08881C6
:1017200061E00E942219898161E00E942219898169
:1017300060E00E946119662777276E197F0988810A
:101740000E94C218DF91CF911F910F91FF90EF90EF
:10175000089560E00E94450F0895CF93DF93EC0158
:10176000AE81BF818C9190E0863891050CF45EC00B
:10177000833E91050CF05AC0888599858330910588
:1017800009F05AC011968C91119790E08132910521
:101790000CF44CC0CA970CF049C012968C9190E0A2
:1017A000883091050CF442C00F970CF03FC01D82A9
:1017B00038C011968C91119790E083349105B4F163
:1017C000823791059CF5FD01339620E030E040E042
:1017D00050E0BD016D5B7F4F8291319690E0883083
:1017E000910524F10F9714F5808190E087319105E0
:1017F00044F18A9734F55695479537952795506863
:1018000006C00F979CF456954795379527953296C5
:10181000E617F70709F780E28D8329833A834B8324
:101820005C8381E0888321E030E002C020E030E08A
:10183000C901DF91CF910895833491050CF0B9CFA0
:10184000F5CF808190E08830910584F3DACF109253
:101850007000262F30E040E050E060E47FE180E05F
:1018600090E00E94E421822F91E09093B00099E0F3
:101870009093B1002093B30063E00E948F21E4EBCA
:10188000F0E08083E08108950F931F938C01F8941A
:1018900092E09093B0009093B10084E68093B300FF
:1018A000E2EBF0E01082E08190937000789482E0A7
:1018B00080938D021092F80280E090E0A0E0B0E00A
:1018C000F801878B908FA18FB28F138612861586B1
:1018D000148616861786C801419669E071E00E9459
:1018E000341EF801108A1F910F910895CF93DF9352
:1018F000EC0184E992E09F838E838091F8028887CF
:10190000198680918D02853071F4CE010E94AD0B55
:10191000892B31F0CE010E94440C21E030E005C05B
:10192000CE010E94440C20E030E0C901DF91CF914C
:101930000895CB01E0EBF0E020812F7D20830E9411
:101940005B180895CB01E0EBF0E02081206220835A
:101950000E945B180895AF92BF92CF92DF92EF92F0
:10196000FF920F931F93CF93DF93EC017A018B01CA
:10197000590166E20E94270CCE0168E273E20E94E0
:10198000A20CCE0164E971E10E94990CCC24DD2403
:101990001CC0E0FE09C0CE0160E372E00E94A20C10
:1019A000CE0160E476E008C0CE0160E372E00E9400
:1019B000A20CCE0160E372E00E94990C1695079587
:1019C000F794E7940894C11CD11CCA14DB040CF3EF
:1019D000CE0160E372E00E94A20CCE0160E070E0F4
:1019E0000E94990CDF91CF911F910F91FF90EF9082
:1019F000DF90CF90BF90AF900895EF92FF920F933A
:101A00001F93CF93DF937C018B01C0E0D0E013C024
:101A1000C801BE010E94611D482F552747FD509502
:101A2000652F752FBA0155274427C70120E230E002
:101A30000E94AB0C2196F80184819581C817D907C3
:101A400038F3C70140E050E06AE070E020E230E0A7
:101A50000E94AB0CDF91CF911F910F91FF90EF90FF
:101A600008950F931F938C01419669E071E00E94E5
:101A70001B1E82E060E00E942219C8010E94440CF3
:101A800083E061E00E94221983E060E00E94611916
:101A90001F910F9108951F920F920FB60F9211246C
:101AA0002F933F934F935F936F937F938F939F9366
:101AB000AF93BF93EF93FF9382E00E94B519282F55
:101AC0008091920290919302019690939302809359
:101AD00092028091F802843618F085E080938D029E
:101AE00080918D02833091F0843020F4823009F0AF
:101AF0004AC006C0843011F1853009F044C03DC0B1
:101B0000222309F040C01092F80228C02130D9F5F4
:101B10002091F802E22FF0E08091920290919302DE
:101B2000E457FD4F80872F5F2093F80210929302B5
:101B30001092920284E080938D0225C02223A1F4AA
:101B40002091F802E22FF0E08091920290919302AE
:101B5000E457FD4F80872F5F2093F8021092930285
:101B60001092920283E0E7CF8091920290919302CB
:101B70008536910540F085E0DECF222321F41092D6
:101B8000930210929202FF91EF91BF91AF919F91BA
:101B90008F917F916F915F914F913F912F910F9016
:101BA0000FBE0F901F9018950895DC01862F90E0CE
:101BB000FC01E050FF4FE491EC9384519F4FFC01F6
:101BC0006491E62FF0E0EE0FFF1FEE51FF4F85917D
:101BD000949112969C938E9311970895DF92EF92B1
:101BE000FF920F931F93FC01E08001811281F89412
:101BF000F80181818E2981838281DE2CD0948D2110
:101C0000828383E090E00E945B18F80181818D213E
:101C1000818382818E2982838AE090E00E945B1812
:101C2000F8010081789485E390E00E945B1880E0E1
:101C300010E0FF240E211F21012B09F081E01F91EC
:101C40000F91FF90EF90DF900895EF92FF920F9326
:101C50001F93CF93DF937C0101E010E0C0E0D0E060
:101C6000C7010E94EE0D8111102B000F2196C83084
:101C7000D105B1F7812FDF91CF911F910F91FF9087
:101C8000EF9008951F93CF93DF93FC011081C181E2
:101C9000D281912F909560FF12C0F8948A81892398
:101CA0008A838981812B89838AE090E00E945B1876
:101CB0008A81812B8A83789487E390E011C0F8941D
:101CC0008A8189238A838981812B898381E490E0B9
:101CD0000E945B188A81812B8A83789485E090E04A
:101CE0000E945B18DF91CF911F910895CF92DF92F0
:101CF000EF92FF920F931F93CF93DF93EC01E42EAB
:101D0000FF24F39400E010E0C62EDD2460E08F2D68
:101D100090E08C219D21892B09F061E0CE010E9489
:101D2000420EFF0C0F5F1F4F0830110579F7EE20B0
:101D3000B1F4F894E981FA819181888180959823A2
:101D40009183E981FA8182819881892B8283E9815B
:101D5000FA81928188818095982392837894DF918B
:101D6000CF911F910F91FF90EF90DF90CF9008954A
:101D70006CEC40E00E94760E0895DF92EF92FF92A5
:101D80000F931F93CF93DF93FC010081C181D28118
:101D9000F8948981D02ED0948D2189838A81802BDB
:101DA0008A8378941DE7E02EFF24115071F182E0C0
:101DB00090E00E945B18888190E08E219F21892B02
:101DC000A1F3F8948A818D218A838981802B89836C
:101DD000789480EE91E00E945B18F89489818D21BF
:101DE00089838A81802B8A8386E490E00E945B1835
:101DF000888110E090E0E822F922EF2809F411E050
:101E000078948AE991E00E945B18812FDF91CF914D
:101E10001F910F91FF90EF90DF900895EF92FF9246
:101E20000F931F93FC01E08001811281F8018181F1
:101E30009E2D90958923818382818E2982838AE0D9
:101E400090E00E945B18F801808120E090E0FF2480
:101E50008E219F21892B09F021E0822F1F910F9164
:101E6000FF90EF900895FC0180911A01808380918A
:101E70001B01818312820895FC0180911A018083E5
:101E800080911B01818312820895DC01E62FF0E02E
:101E9000EE0FFF1FE65EFE4F80818C9381811196CD
:101EA0008C93119712966C930895FC01828108958A
:101EB000FC0183810895DC01E62FF0E0EE0FFF1FA7
:101EC000E65EFE4F80818C93818111968C931197F1
:101ED00012966C930895DC01E62FF0E0EE0FFF1FE1
:101EE000E65EFE4F80818C93818111968C931197D1
:101EF00012966C93129713964C930895FC0180816F
:101F00000895FC0181810895FC0181810E94A0183F
:101F10000895FC0180810E94A0180895FF920F93FC
:101F20001F938C01F62EFC01818161E00E94221931
:101F3000F80181816F2D0E9461191F910F91FF900F
:101F40000895FF920F931F938C01F62EFC01808160
:101F500061E00E942219F80180816F2D0E946119B1
:101F60001F910F91FF9008950F931F938C01FC0117
:101F7000818160E00E942219F80181810E94B519D7
:101F800020E0892B09F021E0822F1F910F91089505
:101F90000F931F938C01FC01808160E00E94221945
:101FA000F80180810E94B51920E0892B09F021E019
:101FB000822F1F910F9108950F93DC01522F262F2E
:101FC00030E015968D919C9116972817390710F0DF
:101FD00080E01BC083E0689F802D112490E017965D
:101FE000ED91FC911897E80FF91F50831796ED912A
:101FF000FC911897E80FF91F41831796ED91FC911A
:102000001897E80FF91F028381E00F910895DC0112
:10201000722F20E030E050E016C0852F90E0E80FEE
:10202000F91F40831796ED91FC911897E80FF91F5F
:1020300061831796ED91FC911897E80FF91F728351
:102040002F5F3F4F5D5F15968D919C911697179668
:10205000ED91FC91189728173907F8F29C01220F8F
:10206000331F280F391F1B969C911B9719960D90B3
:10207000BC91A02D5FB7F8948C91492F40954823CF
:10208000982B11C0819168E09C9300C087FF4C930E
:10209000880F00C000C000C008F44C9300C06A95CF
:1020A00099F7215030402115310561F75FBF089540
:1020B000CF93DF93FC01C781D085858196819C01F8
:1020C000220F331F280F391F9385A185B2855FB773
:1020D000F8948C91492F40954823982B11C08991F1
:1020E00068E09C9300C087FF4C93880F00C000C03D
:1020F00000C008F44C9300C06A9599F72150304015
:102100002115310561F75FBFDF91CF9108950895E3
:102110000F931F93CF93DF938C01DC0115968D9164
:102120009C9116979C01220F331F280F391F179679
:102130008C91179718969C9160E070E0A9010E941D
:10214000CB00E801EF81F8858D819E819C01220FF3
:10215000331F280F391F9B85A985BA855FB7F8946F
:102160008C91492F40954823982B11C0819168E0AC
:102170009C9300C087FF4C93880F00C000C000C034
:1021800008F44C9300C06A9599F72150304021150E
:10219000310561F75FBFDF91CF911F910F910895D6
:1021A0000F931F938C0170E0FC0176836583CB0154
:1021B000880F991F860F971F0E947716F801878353
:1021C0009087C8010E9488101F910F910895DC012B
:1021D000E62FF0E0EE0FFF1FE65EFE4F81811196C5
:1021E0008C93119790819C93282F30E0F901E05057
:1021F000FF4FE4911B96EC931B9724513F4FF9013D
:102200009491E92FF0E0EE0FFF1FE852FF4F259168
:1022100034911A963C932E93199761E00E942219EB
:1022200008950F931F938C010E94330FEDE0F1E0AE
:10223000E491D8011B96EC931B97E9EFF0E0E49151
:10224000F0E0EE0FFF1FE852FF4F859194911A9630
:102250009C938E9319978DE061E00E942219C8012A
:1022600062E00E94D0101F910F910895AF92BF922B
:10227000CF92DF92EF92FF920F931F93DF93CF9352
:10228000CDB7DEB72C970FB6F894DEBF0FBECDBF2B
:1022900025E0E22EF12CE80EF91EC7010E94BD0ECA
:1022A000C7010E94B80EC70164E440E00E94760EA8
:1022B0000E94F4175B016C01C7010E940E0F882376
:1022C000C1F50E94F4176A197B098C099D096E5E9D
:1022D00072408040904068F5EFCFC7010E94250E04
:1022E000F80181938F01EC15FD05B9F77A8160E063
:1022F000298130E0622B732B882777FD8095982FFA
:102300000E94592020E030E040E85DE30E940D216A
:102310002C960FB6F894DEBF0FBECDBFCF91DF91E4
:102320001F910F91FF90EF90DF90CF90BF90AF90F3
:102330000895C7010E94BD0EC7010E94B80EC701D3
:102340006EEB40E00E94760E8E010F5F1F4F86E01D
:10235000C82ED12CCC0EDD1EC0CF1F93CF93DF93A0
:10236000EC01142F0E946B0F123011F4698101C02F
:102370006881CE0105960E94D50DDF91CF911F9106
:1023800008950F931F938C010E94330FC801059687
:102390000E94D40D1F910F910895CF92DF92EF927A
:1023A000FF920F931F938C016A017B01FC018181D5
:1023B00060E00E94611982E090E00E945B18F801E1
:1023C000818161E00E9461198AE090E00E945B18BF
:1023D000F801818160E00E946119F801818160E06B
:1023E0000E942219F801818161E0A70196010E94F3
:1023F000081A1F910F91FF90EF90DF90CF900895F2
:1024000027E330E0629FA001639F500D729F500D43
:10241000112448535F4F60E070E00E94CD110E948C
:10242000592020E030E048E652E40E94BE1F0895A3
:1024300060E971E00E940012089560E00E94450F7B
:102440000895FC018091F9028C3090F480838F5FB5
:102450008093F902815090E0FC01EE0FFF1FE80F1E
:10246000F91FE650FD4F88EB9BE09283818308952E
:102470008FEF80830895FC0120812C30B8F5818195
:10248000992787FD909548E850E0481B590B440F69
:10249000551F440F551F6417750784F082819927D3
:1024A00087FD909548E552E0481B590B440F551F96
:1024B000440F551F641775070CF4AB014250504090
:1024C000CA01AA2797FDA095BA2F880F991FAA1FA6
:1024D000BB1F4FB7F89430E0F901EE0FFF1FE20F7A
:1024E000F31FE650FD4F928381834FBF0895AF9253
:1024F000BF92CF92DF92EF92FF920F931F93CF93F1
:10250000DF93EC019B0182E0603278070CF048C059
:1025100077FF03C020E030E005C0653B710514F093
:1025200024EB30E000D000D0B901882777FD8095FA
:10253000982F2981332727FD3095E8E8AE2EB12C5E
:10254000A21AB30AAA0CBB1CAA0CBB1CCC24B7FC55
:10255000C094DC2CEA81FF27E7FDF09528E532E006
:102560002E1B3F0B220F331F220F331F442737FD33
:102570004095542FEDB7FEB72183328343835483B4
:1025800020E030E040E050E004EBE02EF12C012DA3
:10259000112D0E94181D9B010F900F900F900F900E
:1025A000CE01B9010E943B12DF91CF911F910F9193
:1025B000FF90EF90DF90CF90BF90AF900895CF92B3
:1025C000DF92EF92FF921F93CF93DF93EC01162FD0
:1025D0007A01690188818C3008F064C0862F61E03F
:1025E0000E942219888190E0FC01EE0FFF1FE80F86
:1025F000F91FE650FD4F1F738081807C812B808303
:1026000080E292E08E199F0964E070E00E94AF21A1
:10261000698380E699E08C199D0964E070E00E946E
:10262000AF216A83A8818A2F6CE00E948F21682FD6
:1026300070E0AB01440F551F460F571F440F551F45
:10264000440F551F20E030E0C901840F951FFC01A5
:10265000EE0FFF1FE80FF91FE650FD4F808186FD4A
:1026600015C02F5F3F4F2C30310571F724C01092F9
:10267000800082E080938100109285001092840097
:10268000B19A80916F00826080936F008A2F90E0F2
:10269000FC01EE0FFF1FE80FF91FE650FD4F808190
:1026A000806480838881DF91CF911F91FF90EF90AC
:1026B000DF90CF900895672BD1F2E8CF40E252E04F
:1026C00020E639E00E94DF1208951F920F920FB6A4
:1026D0000F9211242F933F934F935F936F937F93A8
:1026E0008F939F93AF93BF93EF93FF9380911E03BC
:1026F00087FF05C010928500109284002BC02091A6
:102700001E03332727FD30958091F90290E02817AA
:10271000390704F580911E03992787FD9095FC01E8
:10272000EE0FFF1FE80FF91FE650FD4F808186FF77
:1027300011C080911E03992787FD9095FC01EE0F33
:10274000FF1FE80FF91FE650FD4F80818F7360E097
:102750000E94611980911E038F5F80931E03209158
:102760001E03332727FD30958091F90290E028174A
:1027700039070CF04EC080911E038C300CF049C01C
:10278000209184003091850080911E03992787FD58
:102790009095FC01EE0FFF1FE80FF91FE650FD4F6B
:1027A00081819281280F391F3093890020938800FE
:1027B00080911E03992787FD9095FC01EE0FFF1F66
:1027C000E80FF91FE650FD4F808186FF2BC08091F6
:1027D0001E03992787FD9095FC01EE0FFF1FE80F60
:1027E000F91FE650FD4F80818F7361E00E946119EF
:1027F00019C080E49CE905C0809184009091850017
:10280000049690938900809388008FEF80931E0335
:1028100009C08091840090918500049680549C4961
:1028200040F3EACFFF91EF91BF91AF919F918F91CC
:102830007F916F915F914F913F912F910F900FBEBC
:102840000F901F9018952091400330E080913F0336
:10285000281B3109C901089540913F03809140032D
:10286000481718F02FEF3FEF0AC0E42FF0E0E15EC9
:10287000FC4F8081282F30E04F5F40933F03C90118
:102880000895E0913F0380914003E81718F0EFEFBF
:10289000FFEF06C0F0E0E15EFC4F8081E82FF0E042
:1028A000CF0108950895109267031092660388EE91
:1028B00093E0A0E0B0E08093680390936903A09355
:1028C0006A03B0936B038DE691E090936503809368
:1028D00064030895CF92DF92EF92FF920F931F93BC
:1028E000CF93DF937C016B018A018091630388237E
:1028F000A1F0C0E0D0E00DC0D701ED91FC91D60170
:10290000AC0FBD1F0190F081E02DC7016C910995BE
:102910002196C017D10780F304C0CB01642F0E9419
:10292000CB14C801DF91CF911F910F91FF90EF90D1
:10293000DF90CF900895DF93CF930F92CDB7DEB79E
:10294000FC016983809163038823C9F0809162034D
:10295000803238F081E090E09383828320E030E0A1
:1029600015C080916103E82FF0E0EF5BFC4F998187
:1029700090838F5F809361038093620305C0CE01D3
:10298000019661E00E94CB1421E030E0C9010F9074
:10299000CF91DF910895482F613210F081E00895C2
:1029A00080917003843011F082E008956093BB033E
:1029B000AAE9B3E0842F9C01F90102C081918D93B3
:1029C0008E2F841B8617D0F380E008951F920F92FC
:1029D0000FB60F9211242F933F934F935F936F93F2
:1029E0007F938F939F93AF93BF93EF93FF938091C8
:1029F000B90090E0887F90708036910509F4F2C0AC
:102A000081369105CCF58832910509F47BC0893275
:102A10009105B4F48031910509F46FC081319105BD
:102A20003CF4009709F447C1089709F04FC165C00D
:102A30008831910509F466C0809709F047C182C0CA
:102A40008034910509F4A4C08134910544F48033A5
:102A5000910509F482C0C89709F038C189C0803552
:102A6000910509F489C08835910509F496C0883428
:102A7000910509F02BC1AEC08839910509F413C145
:102A800089399105ECF48837910509F4ABC0893791
:102A900091054CF48836910509F4A4C0803791055E
:102AA00009F014C19FC08838910509F4FCC0803931
:102AB000910509F49DC08038910509F007C198C0BF
:102AC000803B910509F4C6C0813B91054CF4803AE6
:102AD000910509F49FC0883A910509F0F7C0BAC082
:102AE000803C910509F4E3C0883C910509F4DFC0FE
:102AF000883B910509F0EAC0C2C0809171038093C0
:102B0000BB00CFC09091980380919903981768F407
:102B100090919803E92FF0E0E858FC4F8081809372
:102B2000BB009F5F90939803BCC080917203882381
:102B300009F44BC085ED8093BC008091BC0084FDFE
:102B4000FCCFC2C080E28093DD0385ED8093BC00A2
:102B50008091BC0084FDFCCFB7C080E38093DD038F
:102B600085ED8093BC008091BC0084FDFCCFACC09F
:102B700088E38093DD039BC0809198039091BB0014
:102B8000E82FF0E0E858FC4F90838F5F8093980324
:102B9000909198038091990382C0809198039091BD
:102BA000BB00E82FF0E0E858FC4F90838F5F8093E4
:102BB000980380917203882341F085ED8093BC00D7
:102BC0008091BC0084FDFCCF7FC081E080937303C3
:102BD00084EA6EC085ED8093BC008091BC0084FDCA
:102BE000FCCF72C083E0809370031092DC0359C065
:102BF0008091DC03803208F056C08091DC03909114
:102C0000BB00E82FF0E0E454FC4F90838F5F80938B
:102C1000DC0347C08091DC03803230F4E091DC03B8
:102C2000F0E0E454FC4F108285ED8093BC0080916D
:102C3000BC0084FDFCCF109270036091DC03E09136
:102C40007603F09177038CEB93E070E00995109296
:102C5000DC032DC084E0809370031092BA031092BD
:102C6000BB03E0917403F091750309958091BB0358
:102C7000882329F481E08093BB0310929A039091FA
:102C8000BA03E92FF0E0E656FC4F80818093BB0049
:102C90009F5F9093BA039091BA038091BB039817FA
:102CA00010F485EC01C085E88093BC000FC085EC72
:102CB0008093BC0009C01092DD0385ED8093BC00B9
:102CC0008091BC0084FDFCCF10927003FF91EF91C6
:102CD000BF91AF919F918F917F916F915F914F9134
:102CE0003F912F910F900FBE0F901F9018950F934B
:102CF0001F93CF93DF93BC018230910510F462E003
:102D000070E0E0919304F0919404A0E0B0E040E022
:102D100050E024C08081918186179707D0F08617F4
:102D2000970771F482819381109729F013969C93F1
:102D30008E9312972CC0909394048093930427C091
:102D40004115510519F08417950718F4EF018D010D
:102D5000AC01DF01828193819C01F9013097D1F6AA
:102D600041155105F9F0CA01861B970B8430910576
:102D700080F48A819B810115110521F0F80193836C
:102D8000828304C09093940480939304FE0132964E
:102D900045C0FE01E80FF91F619371930297998373
:102DA00088833CC08091910490919204892B41F4D6
:102DB0008091320190913301909392048093910419
:102DC00040913401509135014115510541F44DB701
:102DD0005EB78091300190913101481B590B2091D1
:102DE00091043091920424173507B0F4CA01821B74
:102DF000930B8617970780F0AB014E5F5F4F8417E8
:102E0000950750F0420F531F509392044093910442
:102E1000F9016193719302C0E0E0F0E0CF01DF912E
:102E2000CF911F910F910895CF93DF939C0100974D
:102E300009F48FC0EC0122971B821A8260919304DF
:102E4000709194046115710581F488819981820FD4
:102E5000931F20919104309192042817390739F576
:102E6000D0939204C093910474C0DB0140E050E021
:102E7000AC17BD0708F1BB83AA83FE0121913191F4
:102E8000E20FF31FAE17BF0779F48D919C91119754
:102E9000280F391F2E5F3F4F3983288312968D915B
:102EA0009C9113979B838A834115510571F4D093AC
:102EB0009404C09393044DC012968D919C911397E6
:102EC000AD01009711F0DC01D3CFDA011396DC934A
:102ED000CE931297FA0121913191E20FF31FCE1791
:102EE000DF0769F488819981280F391F2E5F3F4FD2
:102EF000FA01318320838A819B8193838283E0E07E
:102F0000F0E0DB0112968D919C911397009719F0D8
:102F1000BC01FD01F6CFAB014E5F5F4FDB018D9130
:102F20009C91840F951F2091910430919204281751
:102F3000390779F4309729F410929404109293048D
:102F400002C0138212824250504050939204409328
:102F50009104DF91CF9108951F920F920FB60F92B7
:102F600011242F933F938F939F93AF93BF9380919F
:102F7000E2039091E303A091E403B091E503309163
:102F8000E6030196A11DB11D232F2D5F2D3720F0E3
:102F90002D570196A11DB11D2093E6038093E203F6
:102FA0009093E303A093E403B093E5038091DE03E1
:102FB0009091DF03A091E003B091E1030196A11D80
:102FC000B11D8093DE039093DF03A093E003B093E1
:102FD000E103BF91AF919F918F913F912F910F90FE
:102FE0000FBE0F901F9018958FB7F8942091E203B1
:102FF0003091E3034091E4035091E5038FBFB901A1
:10300000CA0108959B01AC017FB7F8948091DE035B
:103010009091DF03A091E003B091E10366B5A89B16
:1030200005C06F3F19F00196A11DB11D7FBFBA2FDA
:10303000A92F982F8827860F911DA11DB11D62E031
:10304000880F991FAA1FBB1F6A95D1F7BC012DC01D
:10305000FFB7F8948091DE039091DF03A091E00325
:10306000B091E103E6B5A89B05C0EF3F19F00196CA
:10307000A11DB11DFFBFBA2FA92F982F88278E0F32
:10308000911DA11DB11DE2E0880F991FAA1FBB1F52
:10309000EA95D1F7861B970B885E9340C8F22150C2
:1030A00030404040504068517C4F2115310541056A
:1030B000510571F60895019739F0880F991F880F0F
:1030C000991F02970197F1F70895789484B582606B
:1030D00084BD84B5816084BD85B5826085BD85B5BC
:1030E000816085BDEEE6F0E0808181608083E1E86B
:1030F000F0E01082808182608083808181608083A3
:10310000E0E8F0E0808181608083E1EBF0E08081A5
:1031100084608083E0EBF0E0808181608083EAE777
:10312000F0E0808184608083808182608083808100
:10313000816080838081806880831092C1000895BF
:10314000982F8E3008F09E509770809136018295AE
:10315000880F880F807C892B80937C0080917A0077
:10316000806480937A0080917A0086FDFCCF209164
:10317000780040917900942F80E030E0282B392BA3
:10318000C90108951F93CF93DF93182FEB0161E0DE
:103190000E942219209709F44AC0CF3FD10509F4B3
:1031A00049C0E12FF0E0EC5EFE4F84918330C1F026
:1031B000843028F4813051F08230B1F50CC0863073
:1031C00019F1873049F1843079F514C084B58068ED
:1031D00084BDC7BD33C084B5806284BDC8BD2EC068
:1031E00080918000806880938000D0938900C09394
:1031F000880024C080918000806280938000D093FA
:103200008B00C0938A001AC08091B00080688093C0
:10321000B000C093B30012C08091B0008062809370
:10322000B000C093B4000AC0C038D1051CF4812F8F
:1032300060E002C0812F61E00E946119DF91CF91AF
:103240001F910895CF93DF93482F50E0CA0180501B
:103250009F4FFC01349144515F4FFA0184918823C0
:1032600069F190E0880F991FFC01E253FF4FA5918F
:10327000B491FC01E852FF4FC591D491662351F4FB
:103280002FB7F8948C91932F909589238C938881F4
:1032900089230BC0623061F42FB7F8948C91932F7F
:1032A000909589238C938881832B88832FBF06C0B8
:1032B0009FB7F8948C91832B8C939FBFDF91CF9114
:1032C0000895482F50E0CA018C5E9E4FFC01249166
:1032D000CA0180509F4FFC01949144515F4FFA0105
:1032E0003491332309F440C0222351F1233071F08B
:1032F000243028F42130A1F0223011F514C02630FA
:10330000B1F02730C1F02430D9F404C0809180009E
:103310008F7703C0809180008F7D8093800010C0E4
:1033200084B58F7702C084B58F7D84BD09C080913C
:10333000B0008F7703C08091B0008F7D8093B00084
:10334000E32FF0E0EE0FFF1FE852FF4FA591B4917D
:103350002FB7F894662321F48C919095892302C0AD
:103360008C91892B8C932FBF0895682F70E0CB012F
:103370008C5E9E4FFC012491CB0180509F4FFC013D
:10338000449164517F4FFB019491992319F420E0FB
:1033900030E03CC0222351F1233071F0243028F476
:1033A0002130A1F0223011F514C02630B1F02730C1
:1033B000C1F02430D9F404C0809180008F7703C01D
:1033C000809180008F7D8093800010C084B58F77BE
:1033D00002C084B58F7D84BD09C08091B0008F7715
:1033E00003C08091B0008F7D8093B000892F90E062
:1033F000880F991F8E519F4FFC01A591B4918C911C
:1034000020E030E0842311F021E030E0C90108958C
:103410008F929F92AF92BF92CF92DF92EF92FF92E4
:103420000F931F93CF93DF93A82FB0E0CD0180506F
:103430009F4FFC018490A451BF4FFD0184916623EE
:1034400011F4992401C0982C6FEFA62E6FEFB62EC1
:103450006FEFC62E6FE0D62EA222B322C422D52251
:10346000682F70E0660F771F6E517F4FEE24FF24A8
:103470008701FB01A591B4910BC0EA14FB040C0574
:103480001D0509F44EC00894E11CF11C011D111D1D
:103490008C918821891589F30CC0EA14FB040C0572
:1034A0001D0509F43EC00894E11CF11C011D111D0D
:1034B00003C0FB01A591B4918C918821891569F70E
:1034C00020E030E040E050E0FB01C591D4910FC016
:1034D000DA01C9018E0D9F1DA01FB11F8A159B0522
:1034E000AC05BD05F1F02F5F3F4F4F4F5F4F888117
:1034F0008821891569F3CA01B90125E130E040E06E
:1035000050E00E9470219B01AC01205F3F4F4F4F64
:103510005F4F84E056954795379527958A95D1F763
:1035200004C020E030E040E050E0B901CA01DF9182
:10353000CF911F910F91FF90EF90DF90CF90BF90B0
:10354000AF909F908F90089508951F920F920FB69D
:103550000F9211242F933F934F938F939F93EF9349
:10356000FF938091C00082FD1DC04091C600209154
:103570002704309128042F5F3F4F2F7330708091C4
:10358000290490912A042817390771F0E091270443
:10359000F0912804E951FC4F408330932804209394
:1035A000270402C08091C600FF91EF919F918F91F7
:1035B0004F913F912F910F900FBE0F901F90189534
:1035C000E0917B04F0917C04E05CFF4F819191914C
:1035D00020813181805C9F4F821B930B60E470E0FF
:1035E0000E94AF21892B11F00E94A41A08951F9206
:1035F0000F920FB60F9211242F933F938F939F93A7
:10360000EF93FF9320916B0430916C0480916D04D3
:1036100090916E042817390731F48091C1008F7D95
:103620008093C10014C0E0916D04F0916E04E55DDB
:10363000FB4F208180916D0490916E0401968F73F1
:10364000907090936E0480936D042093C600FF9158
:10365000EF919F918F913F912F910F900FBE0F90FF
:103660001F901895AF92BF92DF92EF92FF920F9347
:103670001F93CF93DF93EC017A018B01DD2440305F
:1036800081EE580780E0680780E0780711F0DD24BC
:10369000D39491E0A92EB12CEC89FD89DD2069F04D
:1036A000C50108A002C0880F991F0A94E2F7808321
:1036B00060E079E08DE390E005C0108260E874E896
:1036C0008EE190E0A80197010E94C2212150304074
:1036D00040405040569547953795279580E12030DA
:1036E000380720F0DD2011F0DD24D6CFE889F989F4
:1036F0003083EA89FB89208319A2EE89FF89408102
:1037000021E030E0C9010C8C02C0880F991F0A9497
:10371000E2F7482B4083EE89FF894081C9010D8C77
:1037200002C0880F991F0A94E2F7482B4083EE8964
:10373000FF894081C9010E8C02C0880F991F0A942D
:10374000E2F7482B4083EE89FF8980810F8C02C00D
:10375000220F331F0A94E2F7209528232083DF915C
:10376000CF911F910F91FF90EF90DF90BF90AF909E
:103770000895DC011C96ED91FC911D97E05CFF4FD4
:103780008191919120813181805C9F4F821B930BAD
:1037900060E470E00E94AF210895DC011C96ED9179
:1037A000FC911D97E05CFF4F20813181E054F04097
:1037B000DF01AE5BBF4F8D919C91119728173907A0
:1037C00019F42FEF3FEF07C08D919C91E80FF91F7F
:1037D0008081282F30E0C9010895DC011C96ED910D
:1037E000FC911D97E05CFF4F20813181E054F04057
:1037F000DF01AE5BBF4F8D919C9111972817390760
:1038000019F42FEF3FEF10C08D919C911197E80FA5
:10381000F91F20818D919C91119701968F73907063
:1038200011969C938E9330E0C9010895DC01919626
:103830008C919197882339F05496ED91FC9155978E
:10384000808186FFF9CF91961C920895CF93DF93E4
:10385000EC01EE85FF85E05CFF4F20813181E05473
:10386000F0402F5F3F4F2F733070DF01AE5BBF4FD3
:103870008D919C91119728173907D1F3E05CFF4F88
:1038800080819181E054F040E80FF91F6083EE855C
:10389000FF85E05CFF4F31832083EE89FF89208123
:1038A00081E090E00F8C02C0880F991F0A94E2F724
:1038B000282B208381E089A3EC89FD8980818064A5
:1038C000808381E090E0DF91CF910895109272049F
:1038D0001092710488EE93E0A0E0B0E0809373044E
:1038E00090937404A0937504B09376048DE791E0EF
:1038F0009093700480936F0487EE93E090937C0420
:1039000080937B048BE294E090937E0480937D040B
:1039100085EC90E09093800480937F0484EC90E0A9
:10392000909382048093810480EC90E090938404CF
:103930008093830481EC90E09093860480938504C7
:1039400082EC90E0909388048093870486EC90E06A
:1039500090938A048093890484E080938B0483E0AD
:1039600080938C0487E080938D0485E080938E049F
:1039700081E080938F0408950895CF93DF930E9490
:1039800065180E94BC1C0E94C707C0EEDAE10E94C5
:10399000EB062097E1F30E94E01AF9CFCF92DF9275
:1039A000EF92FF920F931F93CF93DF937C016B01F4
:1039B0008A01C0E0D0E00FC0D6016D916D01D70142
:1039C000ED91FC910190F081E02DC7010995C80FA0
:1039D000D91F015010400115110571F7CE01DF917B
:1039E000CF911F910F91FF90EF90DF90CF900895AE
:1039F000EF92FF920F931F938C01DC01ED91FC91EC
:103A00000190F081E02D6DE009957C01D801ED91E8
:103A1000FC910190F081E02DC8016AE009959C01BC
:103A20002E0D3F1DC9011F910F91FF90EF9008953A
:103A30002F923F924F925F926F927F928F929F92BE
:103A4000AF92BF92CF92DF92EF92FF920F931F93AC
:103A5000DF93CF93CDB7DEB73B014C0119012A01AB
:103A60006D897E898F89988D6A197B098C099D09DA
:103A7000621A730A840A950AA40193010E947021B4
:103A8000E218F30804091509A80197010E94E4212E
:103A90002A0D3B1D4C1D5D1DB901CA01CF91DF915F
:103AA0001F910F91FF90EF90DF90CF90BF90AF905C
:103AB0009F908F907F906F905F904F903F902F904E
:103AC0000895FC01848195816817790748F4019075
:103AD000F081E02D309721F0E60FF71F80810895E7
:103AE00080E008950F931F93CF93DF93EC018B0138
:103AF0006F5F7F4F888199810E94741E009711F437
:103B000080E005C0998388831B830A8381E0DF916D
:103B1000CF911F910F910895CF93DF93EC0188818E
:103B20009981892B29F08A819B818617970760F4F8
:103B3000CE010E94721D882341F08C819D81892BCA
:103B400019F4E881F981108281E0DF91CF91089525
:103B5000EF92FF920F931F93CF93DF93EC017B01C2
:103B60006C817D81E114F104C1F04115510599F09A
:103B70008A01060F171FB8010E948C1D882369F067
:103B8000888199812C813D81820F931FB7010E940A
:103B9000D2001D830C8381E001C080E0DF91CF91D2
:103BA0001F910F91FF90EF900895DF93CF9300D076
:103BB000CDB7DEB769831A82BE016F5F7F4F41E0E8
:103BC00050E00E94A81D0F900F90CF91DF910895B3
:103BD000CF93DF93EC0188819981009711F00E94C7
:103BE0001417198218821D821C821B821A82DF918F
:103BF000CF910895EF92FF920F931F93CF93DF938E
:103C0000EC017B018A01BA010E948C1D882321F4FA
:103C1000CE010E94E81D07C01D830C838881998115
:103C2000B7010E94D200CE01DF91CF911F910F9179
:103C3000FF90EF900895CF93DF93EC0119821882E3
:103C40001B821A821D821C826115710551F0DB01F5
:103C50000D900020E9F71197A61BB70BAD010E944C
:103C6000FA1DDF91CF9108950F931F93182F092FFD
:103C70006115710559F0DB010D900020E9F71197EE
:103C8000A61BB70BAD010E94FA1D02C00E94E81DE1
:103C9000812F902F1F910F910895CF93DF93EC0107
:103CA000FB018617970761F06081718161157105CD
:103CB00029F0448155810E94FA1D02C00E94E81D2E
:103CC000CE01DF91CF910895FC0111821082138201
:103CD0001282158214820E944D1E0895FC0180817B
:103CE00091810E94141708956F927F928F929F92F4
:103CF000AF92BF92CF92DF92EF92FF920F931F93FA
:103D0000CF93DF938C01009729F4CB010E947716A3
:103D10008C01BBC08EEFE82E8FEFF82EE00EF11E67
:103D20004801860E971E8E149F0408F4ACC0D7017C
:103D30004D915C91119746175707B8F045305105E2
:103D400008F4A3C0CA0104978617970708F49DC01A
:103D500042505040461B570BF401419351936D93D1
:103D60007C93CF010E94141790C05B01A41AB50A7E
:103D70003801640E751EA0919304B0919404CC2474
:103D8000DD24E0E0F0E047C0A615B705A9F5CD9128
:103D9000DC911197CE0102968A159B0568F1CE0140
:103DA0008A199B09029612962C91129713963C91B0
:103DB000059758F0F40122833383CA19DB09D183B4
:103DC000C083D7016D937C9309C04E5F5F4F4C0F4A
:103DD0005D1FF70151834083C901FC01C114D10467
:103DE00031F0D6011396FC93EE9312974EC0F093E8
:103DF0009404E093930449C08D919C911197E81726
:103E0000F90708F4FC016D0112968C911297139634
:103E10009C919C01D901109709F0B6CF8091910433
:103E20009091920486159705E9F4E617F707D0F408
:103E300020913401309135012115310541F42DB720
:103E40003EB78091300190913101281B390B8216C9
:103E50009306C8F49092920480929104F7017183C2
:103E6000608313C0CB010E947716EC01009759F0D4
:103E7000D7014D915C91B8010E94C200C8010E9417
:103E800014178E0102C000E010E0C801DF91CF914D
:103E90001F910F91FF90EF90DF90CF90BF90AF9068
:103EA0009F908F907F906F9008955058BB27AA27BE
:103EB0000ED075C166D130F06BD120F031F49F3F48
:103EC00011F41EF45BC10EF4E095E7FB51C1E92F3C
:103ED00077D180F3BA17620773078407950718F044
:103EE00071F49EF58FC10EF4E0950B2EBA2FA02D24
:103EF0000B01B90190010C01CA01A0011124FF2797
:103F0000591B99F0593F50F4503E68F11A16F04091
:103F1000A22F232F342F4427585FF3CF4695379590
:103F20002795A795F0405395C9F77EF41F16BA0B55
:103F3000620B730B840BBAF09150A1F0FF0FBB1F03
:103F4000661F771F881FC2F70EC0BA0F621F731F4C
:103F5000841F48F4879577956795B795F7959E3FA9
:103F600008F0B3CF9395880F08F09927EE0F979537
:103F700087950895D9D008F481E008950CD00FC139
:103F800007D140F0FED030F021F45F3F19F0F0C0CF
:103F9000511139C1F3C014D198F39923C9F35523B2
:103FA000B1F3951B550BBB27AA276217730784072C
:103FB00038F09F5F5F4F220F331F441FAA1FA9F3E2
:103FC00033D00E2E3AF0E0E830D091505040E695D4
:103FD000001CCAF729D0FE2F27D0660F771F881F35
:103FE000BB1F261737074807AB07B0E809F0BB0B24
:103FF000802DBF01FF2793585F4F2AF09E3F510548
:1040000068F0B6C000C15F3FECF3983EDCF38695E4
:1040100077956795B795F7959F5FC9F7880F911DBD
:104020009695879597F90895E1E0660F771F881FA9
:10403000BB1F621773078407BA0720F0621B730B5C
:10404000840BBA0BEE1F88F7E095089504D06894AE
:10405000B111D9C00895BCD088F09F5790F0B92F06
:104060009927B751A0F0D1F0660F771F881F991FCD
:104070001AF0BA95C9F712C0B13081F0C3D0B1E0DF
:104080000895C0C0672F782F8827B85F39F0B93FEF
:10409000CCF3869577956795B395D9F73EF49095CF
:1040A0008095709561957F4F8F4F9F4F0895E8944D
:1040B00009C097FB3EF490958095709561957F4F70
:1040C0008F4F9F4F9923A9F0F92F96E9BB2793951E
:1040D000F695879577956795B795F111F8CFFAF42E
:1040E000BB0F11F460FF1BC06F5F7F4F8F4F9F4F5F
:1040F00016C0882311F096E911C0772321F09EE8BD
:10410000872F762F05C0662371F096E8862F70E022
:1041100060E02AF09A95660F771F881FDAF7880FFC
:104120009695879597F90895990F0008550FAA0B52
:10413000E0E8FEEF16161706E807F907C0F01216BA
:104140001306E407F50798F0621B730B840B950BBD
:1041500039F40A2661F0232B242B252B21F4089512
:104160000A2609F4A140A6958FEF811D811D0895AF
:1041700097F99F6780E870E060E008959FEF80EC1A
:10418000089500240A9416161706180609060895BD
:1041900000240A9412161306140605060895092E23
:1041A0000394000C11F4882352F0BB0F40F4BF2B92
:1041B00011F460FF04C06F5F7F4F8F4F9F4F0895D2
:1041C00057FD9058440F551F59F05F3F71F04795C8
:1041D000880F97FB991F61F09F3F79F087950895AD
:1041E000121613061406551FF2CF4695F1DF08C0CC
:1041F000161617061806991FF1CF869571056105E9
:1042000008940895E894BB2766277727CB0197F990
:1042100008958ADF08F48FEF08950BD0C0CFB1DF87
:1042200028F0B6DF18F0952309F0A2CFA7CF11240C
:10423000EACFC6DFA0F3959FD1F3950F50E0551F4D
:10424000629FF001729FBB27F00DB11D639FAA27EB
:10425000F00DB11DAA1F649F6627B00DA11D661F3A
:10426000829F2227B00DA11D621F739FB00DA11D5B
:10427000621F839FA00D611D221F749F3327A00D15
:10428000611D231F849F600D211D822F762F6A2FB1
:1042900011249F5750408AF0E1F088234AF0EE0F36
:1042A000FF1FBB1F661F771F881F91505040A9F743
:1042B0009E3F510570F05CCFA6CF5F3FECF3983E78
:1042C000DCF3869577956795B795F795E7959F5FAA
:1042D000C1F7FE2B880F911D9695879597F9089544
:1042E000629FD001739FF001829FE00DF11D649FDA
:1042F000E00DF11D929FF00D839FF00D749FF00D66
:10430000659FF00D9927729FB00DE11DF91F639F06
:10431000B00DE11DF91FBD01CF0111240895991BB6
:1043200079E004C0991F961708F0961B881F7A95AC
:10433000C9F780950895AA1BBB1B51E107C0AA1FAE
:10434000BB1FA617B70710F0A61BB70B881F991F36
:104350005A95A9F780959095BC01CD01089597FBDA
:10436000092E07260AD077FD04D0E5DF06D000200D
:104370001AF4709561957F4F0895F6F790958195A1
:104380009F4F0895A1E21A2EAA1BBB1BFD010DC071
:10439000AA1FBB1FEE1FFF1FA217B307E407F507F5
:1043A00020F0A21BB30BE40BF50B661F771F881FD1
:1043B000991F1A9469F760957095809590959B0167
:1043C000AC01BD01CF01089597FB092E05260ED043
:1043D00057FD04D0D7DF0AD0001C38F45095409523
:1043E000309521953F4F4F4F5F4F0895F6F79095C9
:1043F0008095709561957F4F8F4F9F4F0895EE0F79
:10440000FF1F0590F491E02D099411E0CEE2D1E078
:1044100004C0FE010E9401222296C033D107C9F7D1
:04442000F894FFCF3E
:10442400312E322E3130330000000E000F00100008
:1044340011001200130014001500FFFF0B0A0309FA
:104444000C0D0802FFFF1011140F150E06070504CA
:10445400800095040000013F065B4F666D7D077F79
:104464006F777C395E7971BF86DBCFE6EDFD87FF20
:10447400EFF7FCB9DEF9F10040000001000800206C
:10448400004000800000010004000000009B146A4A
:104494001423142C144114521400000000261CCEC2
:0A44A4001CB91BED1BCD1B161C00FC
:00000001FF
