:100000000C941E020C9446020C9446020C94460278
:100010000C9446020C9446020C9446020C94F31C79
:100020000C9446020C9446020C9446020C94B00ABE
:100030000C9446020C9446020C9446020C94460220
:100040000C9482270C9446020C94172B0C94492B89
:100050000C9446020C9446020C9446020C94460200
:100060000C94530E0C944602E8080E07220738073A
:1000700038075107DB0838077009700970097009E3
:10008000700966078207BA077009CE07AF077009C3
:100090007009FF07420974088D08AF0852087009FB
:1000A00070097009F708FF087009700970093808AD
:1000B0007009700970097009700970097009700978
:1000C00070097009700970097009700914091F0915
:1000D000084AD73B3BCE016E84BCBFFDC12F3D6CAF
:1000E00074319ABD56833DDA3D00C77F11BED9E415
:1000F000BB4C3E916BAAAABE000000803F080000E6
:1001000000BE922449123EABAAAA2ABECDCCCC4C4A
:100110003E00000080BEABAAAAAA3E00000000BFBD
:10012000000000803F0000000000084178D3BB437E
:1001300087D1133D190E3CC3BD4282AD2B3E68EC06
:100140008276BED98FE1A93E4C80EFFFBE01C4FF8D
:100150007F3F000000000007634236B79BD8A71A14
:1001600039685618AEBAAB558C1D3CB7CC5763BD39
:100170006DEDFD753EF6177231BF000000803F0047
:100180000E000F00100011001200130014001500E3
:100190003F065B4F666D7D077F6F777C395E7971B7
:1001A000BF86DBCFE6EDFD87FFEFF7FCB9DEF9F1A7
:1001B00000407C447C00007C5C547454547C70107F
:1001C0007C74545C7C545C40407C7C547C74547CD7
:1001D0002000000000000030007C82827C003100A2
:1001E00042FE0200003200468A92620033004492CE
:1001F000926C0034001C64FE04003500F292928C74
:100200000036007C92924C003700C08E90E000389F
:10021000006C92926C0039006492927C0061000440
:100220002A2A1E006200FE12120C0063000C121239
:10023000120064000C1212FE0065001C2A2A18002D
:100240006600103E50500067000815151E0068003B
:10025000FE101E00006900002E0000006A0002016E
:100260002E00006B00FE081412006C0000FE02005D
:10027000006D001E100E100E6E001E10100E006F8E
:10028000000C12120C0070001F12120C0071000CF6
:1002900012121F0072001E08101000730012292590
:1002A00012007400103E12000075001C02021E00B5
:1002B000761804020418007718061C061800780047
:1002C000120C0C120079001805051E007A00121697
:1002D0001A120041007E88887E004200FE92926CD5
:1002E0000043007C828244004400FE82827C004500
:1002F00000FE929282004600FE9090800047007CB3
:1003000082925C004800FE1010FE00490082FE82CE
:1003100000004A000C0202FC004B00FE1028C60040
:100320004C00FE020202004D00FE403040FE4E0036
:10033000FE403008FE4F007C8282827C5000FE909E
:1003400090600051007C828A847A5200FE98946208
:100350000053006492924C00540080FE808000554F
:1003600000FC0202FC005600F00C020CF05700FEEC
:10037000043804FE5800C63838C60059C0201E2074
:10038000C0005A00869AB2C2002C00010E0C000078
:100390002E000006060000257254781E2A4E210009
:1003A000007A0000003F00204A3000002D001010AD
:1003B0001010002B08083E0808002F00020C3040E7
:1003C000002A2214081422003A0000140000004001
:1003D000000000000000000000080002010000030F
:1003E00004070000000000000000010204081020C3
:1003F00040800102040810200102040810200404B7
:1004000004040404040402020202020203030303BC
:100410000303000000002300260029000000000064
:10042000250028002B0000000000240027002A00DF
:10043000C105710DF217792B2106F61711241FBE85
:10044000CFEFD8E0DEBFCDBF11E0A0E0B1E0ECE43B
:10045000FAE602C005900D92A239B107D9F726E05D
:10046000A2E9B1E001C01D92A639B207E1F714E09C
:10047000C8E3D4E004C02297FE010E948032C0335A
:10048000D107C9F70E94BD2B0C9419350C940000BC
:10049000CF92DF92EF92FF920F931F93E82FF92FE5
:1004A00005C0015011092109310961F1908196239C
:1004B0009417B9F305C0015011092109310911F14F
:1004C000908196239413F7CFC12CD12CE12CF12CE1
:1004D0000AC08FEFC81AD80AE80AF80A0C151D05D9
:1004E0002E053F0579F080818623841791F36C2DCA
:1004F0007D2D8E2D9F2D1F910F91FF90EF90DF90FE
:10050000CF90089560E070E080E090E01F910F913F
:10051000FF90EF90DF90CF90089587EE92E00C94DB
:10052000AD1261E08DE00E940E2961E08DE00E9435
:1005300047296CE271E080E090E00E94FB2760E0D8
:100540008DE00E94472926E040E052EC61E070E037
:100550008FEE95E00E94B52A64EF71E080E090E0B4
:100560000E94FB2722E330E040E050E064EF71E0BE
:1005700087EE92E00E944A1262E370E080E090E031
:100580000E94FB270E948D0283EC92E00E94A81D2E
:100590006DE08FE293E00E94672520E040E060E09C
:1005A0008FE293E00E9432268FE293E00E945F2662
:1005B00080E892E00E94901B69E271E08FEE95E086
:1005C0000E94182C69E172E08FEE95E00C941E2CCD
:1005D0008FEE95E00C941A2CFC01EC51FE4F8081BB
:1005E00080931F0281818093200280911F0290914D
:1005F00020020895A1E2B2E0FC01EC51FE4F80819F
:100600008C93818180932202828180932302838153
:10061000809324026D917D918D919C910895E2EAE1
:10062000F1E020E030E08C519E4F2617370744F46C
:10063000DC01A20FB31F4C9141932F5F3F4FF5CFC9
:10064000FB01EE55FE4F108282EA91E00895E2E947
:10065000F1E020E030E08C519E4F261737075CF424
:100660002031310541F0DC01A20FB31F4C914193C1
:100670002F5F3F4FF2CF82E991E00895E0EDF1E086
:1006800020E030E0419151914817590791F0452BF6
:1006900041F4F901EE0FFF1FE053FE4F9183808379
:1006A00008C02F5F3F4F2830310561F780E090E0B0
:1006B0000895C9010895BF92CF92DF92EF92FF9201
:1006C0000F931F93CF93DF93CDB7DEB72E970FB65F
:1006D000F894DEBF0FBECDBFD090EA010D2D10E023
:1006E0008D30910509F47EC184F58830910509F4B7
:1006F00061C014F58330910509F45FC1059709F0D5
:1007000030C286E090E00E94EC028C0169E08FE448
:1007100093E00E94F624B8018FE493E00E94C91789
:1007200088E090E00E94EC028C016AE08FE493E0A4
:100730000E94F624B80139C08A30910519F10CF4F1
:1007400084C00B9709F45CC00CC28132910509F496
:10075000DBC164F48E31910509F4A4C180329105A6
:1007600009F4AAC1449709F0FCC178C18932910506
:1007700009F483C08233910509F4E1C1829709F03D
:10078000F0C1A6C187E090E00E94EC027C018FE4FA
:1007900093E00E94A22490E08017910729F06D2D2C
:1007A0008FE493E00E94F624B7018FE493E00E9467
:1007B000C917D7C1E090EC011091ED01F090EE0166
:1007C0000091EF014091EB016D2D8FE293E00E94CB
:1007D0001F25EE2049F06FEF6E0D2F2D412F8FE278
:1007E00093E00E94E12507C0202F4F2D612F8FE25B
:1007F00093E00E9432268FE293E00E945F26B1C10F
:100800008091EB01000F111FF801E65FFE4F813070
:1008100011F4E08001C0E180D090EC0184EB8D15F3
:1008200008F49FC1F12CC7010E943E038C01000F08
:10083000111F080F191F0B5A1C4FB701C8010E9446
:10084000060C6D2D70E0C80177C180E293E00E9434
:10085000A22490E08017910729F06D2D80E293E0AB
:100860000E94B11187E090E00E94FA02AB01BC0146
:1008700080E293E00E94D31174C18BEE92E00E945B
:10088000A224282F30E02017310729F06D2D8BEEA0
:1008900092E00E9417208091EB0190E08130910559
:1008A00079F5D090EC01B090ED018AE090E00E94E3
:1008B000EC028C018CE090E00E94EC02C82E60916A
:1008C000F20170E08FE090E00E940F037C018BEE5C
:1008D00092E00E94F61F61E0B11001C060E08BEE73
:1008E00092E00E9440206D2D8BEE92E00E940C2041
:1008F00097014C2DB8018BEE92E00E943A2231C153
:100900008230910579F5E090EC012091ED018AE0CB
:1009100090E02D870E94EC02F82E8CE090E00E947F
:10092000EC02482FE091F2016E2F70E08FE090E032
:100930004E870E9427038C018BEE92E00E94F61FE7
:1009400061E08BEE92E00E9440206E2D8BEE92E0F3
:100950000E940C202D854E856F2D8BEE92E00E941B
:100960004320FFC0039709F0FCC0F090EC01009118
:10097000ED018AE090E00E94EC02182F8CE090E0FC
:100980000E94EC02482F8BEE92E04E870E94F61FE9
:1009900061E08BEE92E00E9440206F2D8BEE92E0A2
:1009A0000E940C2021E04E85011101C020E0612F42
:1009B0008BEE92E00E947522D4C08CE193E00E94FD
:1009C000A224282F30E02017310729F06D2D8CE16B
:1009D00093E00E94F62461E08091EB01811154C004
:1009E00060E052C063E871E0CE0107960E94E52CFA
:1009F0000091E60110E0035011096AEEC62E61E095
:100A0000D62EE12CF12CE016F1065CF4F601619192
:100A10006F01CE0107960E945F2DFFEFEF1AFF0ACC
:100A2000F2CFBE01695F7F4FCE0101960E94122D69
:100A3000BE016F5F7F4F83EC92E00E94081FCE01E2
:100A400001960E94772C63E871E0CE0107960E9420
:100A50001B2DCE0107960E94772C83C08CE193E07A
:100A60000E94A224282F30E02017310729F06D2D95
:100A70008CE193E00E94F6246091EB01862F90E0D8
:100A80008230910534F461708CE193E00E94CA24B5
:100A900068C061E0029709F460E08CE193E00E9495
:100AA000DA245FC061E08D2D0E940E296091EB0178
:100AB0008D2D0E94472955C061E08D2D0E940E2981
:100AC0002091EB01622F70E08D2D0E94862849C095
:100AD00086E090E00E94EC028C0188E090E00E94A9
:100AE000EC02101611065CF49C01442737FD40957A
:100AF000542FB80187EE92E00E944A1232C087EE6E
:100B000092E00E94AD122DC0D090EB0184EB8D15C8
:100B100040F1C8010E943E037C01EE0CFF1CE80E70
:100B2000F91EF701EB5AFC4F7F01B801CF010E947B
:100B3000060C6D2D70E0C7010E943F0C12C00E9490
:100B4000CC270E94EA2E20E030E04AE754E40E94DD
:100B5000512E6093BE017093BF018093C0019093AA
:100B6000C1012E960FB6F894DEBF0FBECDBFDF9148
:100B7000CF911F910F91FF90EF90DF90CF90BF909A
:100B80000895CF93DF93C5E5D3E0CE010E946C0BAF
:100B9000239683E0CD36D807C1F78FE493E00E9417
:100BA000C6178CE393E00E947F264EE160E08FE25F
:100BB00093E00E94AF258AE293E00E94252780E21D
:100BC00093E00E941B108CE193E00E9489248BEE3D
:100BD00092E00E94C11F87EE92E00E94441283ECD3
:100BE00092E00E94BB1D80E892E00E9424188CE7EE
:100BF00092E00E94471F85E592E00E94B7128EE4C2
:100C000092E00E94101C88E492E00E94FA1782E4AD
:100C100092E00E940F188CE392E00E940B2785E27D
:100C200092E00E94800F63E371E089E192E00E940C
:100C3000E52C63E871E082EC91E0DF91CF910C94B8
:100C4000E52C82EC91E00E94772C89E192E00E94F1
:100C5000772C8DED92E00E94772C87ED92E00E9438
:100C6000772C8FE293E00C947326682F8FEE95E03B
:100C70000C94502A8FEF0E94350685E50C943506BA
:100C80008FEF0E94350685E50E9435060C94E80238
:100C9000CF93C82F81E00E9435068C2FCF910C9402
:100CA0003506CF93E82FF0E0EE0FFF1FE058FE4F20
:100CB000C49160E08C2F0E940E298C2F0E9469281D
:100CC000C1E00B970CF0C0E08091CE018C1769F069
:100CD000C093CE010E943A0680E80E9435068C2F10
:100CE0000E944806CF910C94E802CF910895EF92AC
:100CF000FF920F931F93CF93DF937C01FC01C4817C
:100D00000C2F158184E00E9435068C2F0E94350639
:100D1000C0E0D0E0C017D10744F4BE01C7010E9473
:100D2000832D0E9435062196F5CFDF91CF911F913B
:100D30000F91FF90EF900895FF920F931F93CF9321
:100D4000DF931F92CDB7DEB78B01F82E82E0998337
:100D50000E943506A8016F2D9981792F40932102B9
:100D6000509322026093230270932402802F0E94EA
:100D70003506809122020E943506809123020E944E
:100D80003506809124020F90DF91CF911F910F9132
:100D9000FF900C943506CF92DF92EF92FF926B0199
:100DA0007C0183E00E943506C701B6010E94B92E7E
:100DB000862F262F372F3093200220931F020E9468
:100DC0003506809120020E943506809121020E9402
:100DD000350680912202FF90EF90DF90CF900C9427
:100DE0003506CF92DF92EF92FF920F931F93CF932E
:100DF000DF93CDB7DEB727970FB6F894DEBF0FBEEF
:100E0000CDBFD090EA010D2D10E08433910508F09C
:100E100067C2FC01EC5CFF4F0C947E328AE293E0E7
:100E20000E94A22490E08017910729F06D2D8AE29C
:100E300093E00E94F62460E573EC8AE293E00E945E
:100E40006D27FAC1F090EB018CE393E00E94A2249D
:100E500090E08017910709F035C28CE393E00E947F
:100E6000A5248F112FC28CE393E00E949D26E4C13C
:100E70008CE193E00E94A22490E08017910761F03A
:100E80006D2D8CE193E00E94F6248CE193E00E94AA
:100E90001C2560E00E940E298CE193E00E94EE2464
:100EA000BBC1F090EB018CE792E00E94A22490E09D
:100EB0008017910729F06D2D8CE792E00E94F624AF
:100EC0006F2D8CE792E00E944A1FA6C18091C80155
:100ED000882309F405C262EC71E0CE0101960E94FC
:100EE000122DCE0101960E947706CE0101960E9436
:100EF000772C1092C80163E871E082EC91E00E94C7
:100F00001B2DEEC11091EB010E94CC270E94EA2E0E
:100F100020E030E04AE754E40E94512E2091B601CF
:100F20003091B7014091B8015091B9010E94862DCE
:100F30002DEC3CEC4CE45EE30E94143018165CF09F
:100F40004091C901552747FD5095212F30E081E0A0
:100F50004217530709F080E00E94480606C08091BE
:100F6000C9010E9448061092C9011092CB0110924B
:100F7000CA01B6C18CE193E00E94A22490E08017E0
:100F8000910709F469C06D2D8CE193E00E94F6246D
:100F90008CE193E00E941C2560E05CC08CE193E052
:100FA0000E94A22490E08017910799F06D2D8CE1AA
:100FB00093E00E94F6248CE193E00E94192560E002
:100FC0000E940E298CE193E00E941C2560E00E94A3
:100FD0000E2960E08CE193E00E94A824182F60E0C5
:100FE0008CE193E00E94B924612F70E0660F771FB7
:100FF000680F711D882777FD8095982F12C1C090CA
:10100000EB01EC2CF12C8CE193E00E94A22490E007
:101010008017910709F05DC18CE193E00E94A5243F
:1010200090E08E159F0509F054C1EA94EF2869F409
:101030008CE193E00E94192562E00E940E2960E095
:101040008CE193E00E94A8240CC08CE193E00E9404
:101050001C2562E00E940E2960E08CE193E00E9472
:10106000B924682F70E080E090E00E94EA2EE4C08E
:10107000F801EE0FFF1FE058FE4F0491F090EB01D6
:1010800060E0802F0E940E29802F0E94692811E0C5
:101090000B970CF010E0812F8F250E9448061093CB
:1010A000CE011EC185E592E00E94A22490E0801747
:1010B0009107A9F06D2D85E592E00E94F62485E563
:1010C00092E00E941C25482F85E592E04F830E9404
:1010D00019254F81682F85E592E00E94AB1685E5C2
:1010E00092E00E94B416A8C0F090EB018EE492E06A
:1010F0000E94A22490E08017910729F06D2D8EE4C4
:1011000092E00E94F6248EE492E00E94131C6F2D60
:101110008EE492E00E94EC1CD2C088E492E00E942F
:10112000A22490E080179107A9F06D2D88E492E049
:101130000E94F62488E492E00E941925482F88E452
:1011400092E04F830E941C254F81682F88E492E033
:101150000E94FD1788E492E00E940D1822C082E4EC
:1011600092E00E94A224282F30E020173107A9F036
:101170006D2D82E492E00E94F62482E492E00E94C7
:101180001925482F82E492E04F830E941C254F814D
:10119000682F82E492E00E94121882E492E00E949A
:1011A0002218BC01882777FD8095982F0E94EC2E8D
:1011B0000E94CB0695C06091EB0180E892E06F83BE
:1011C0000E949D186F8180E892E00E94311834C01F
:1011D00069E172E0CE0101960E94122DCE010196C6
:1011E0000E947706CE0101960E94772C79C060E0BC
:1011F0008D2D0E940E298D2D0E947D290DC0F80194
:10120000EE0FFF1FE058FE4F049160E0802F0E9418
:101210000E29802F0E946928BC01882777FD8095C0
:10122000982F0E94EC2E08C06091BA017091BB010A
:101230008091BC019091BD010E949C0651C08CE33D
:1012400092E00E94A224282F30E020173107A9F055
:101250006D2D8CE392E00E94F6248CE392E00E94D4
:101260001C25482F8CE392E04F830E9419254F8163
:10127000682F8CE392E00E940E278CE392E00E949C
:1012800022271DC085E292E00E94A224282F30E090
:101290002017310751F06D2D85E292E00E94F6246F
:1012A0006D2D85E292E00E94820F85E292E00E941D
:1012B000860F91E02091EB01821390E0892F0E942C
:1012C00048060EC04F2D6D2D8CE393E00E948A26B8
:1012D000CACD4C2D6D2D8CE193E00E940625A5CE44
:1012E00027960FB6F894DEBF0FBECDBFDF91CF912A
:1012F0001F910F91FF90EF90DF90CF9008950F9383
:101300001F93CF93DF931F92CDB7DEB71092E10109
:101310008091E7010091E90110E09091E80192309D
:10132000C1F090F49130C1F589830E943A06898119
:101330000E943506C8010E94F1060F90DF91CF91FF
:101340001F910F910C94E802943039F09530E9F038
:1013500023C0C8010E945B0318C069E08FE493E0DA
:101360000E94F62460E070E08FE493E00E94C917C9
:101370006AE08FE493E00E94F62460E070E08FE47E
:1013800093E00E94C9170E948D020F90DF91CF91C8
:101390001F910F910C9440060F90DF91CF911F91F8
:1013A0000F910895109218028FEE95E00E94D229B5
:1013B000181619064CF481E0809318028FEE95E020
:1013C0000E94EB298093E001089560E087E00E948D
:1013D00051060E94CC270E94EA2E20E030E04AE726
:1013E00054E40E94512E2091BE013091BF014091E2
:1013F000C0015091C1010E94862D6093BA01709383
:10140000BB018093BC019093BD0183EC92E00E94EC
:10141000521E892B09F440C08091C6028093C901F5
:101420000E94CC270E94EA2E20E030E04AE754E4F4
:101430000E94512E6093B6017093B7018093B8015A
:101440009093B9016091C9016A3011F06D3041F497
:101450001092CB011092CA0181E08093C8012EC086
:1014600082EC91E00E945F2D8091CA019091CB01A6
:101470000196813491052CF49093CB018093CA019D
:101480001DC01092CB011092CA0163E871E082EC9A
:1014900091E00E941B2D12C08091CC019091CD0152
:1014A00001969093CD018093CC012091C901121631
:1014B0004CF48938934134F01092C9011092CD0157
:1014C0001092CC010E94D20980911802882309F45D
:1014D00046C08091E0019091E101853561F4911160
:1014E0000AC08091CF018F3FE1F481E08093E30156
:1014F0008093E10116C08093CF01992391F0E09190
:10150000E301E23019F48093E20107C0E33028F0F0
:101510009091E20191509093E201F0E0EC51FE4F86
:1015200080838091E3018F5F843318F48093E3011B
:1015300004C01092E3011092E1018091E10188233F
:1015400071F08091E20181110AC08091E301843041
:1015500030F01092E1010E947F091092E30108959A
:101560001F920F920FB60F9211242F933F934F9318
:101570005F936F937F938F939F93AF93BF93EF93FB
:10158000FF9380916E0387FF05C010928500109233
:1015900084001AC020916E03332727FD3095809177
:1015A0006D0390E0281739077CF480916E0399272A
:1015B00087FD9095FC01EE0FFF1FE80FF91FE15921
:1015C000FC4F808186FD15C080916E038F5F8093F4
:1015D0006E0320916E03332727FD309580916D03B4
:1015E00090E028173907BCF480916E038C305CF1D1
:1015F00012C080916E03992787FD9095FC01EE0F34
:10160000FF1FE80FF91FE159FC4F808160E08F73E5
:101610000E944729D9CF809184009091850004963B
:1016200080349C4918F480E49CE905C080918400D2
:1016300090918500049690938900809388008FEFA5
:1016400080936E0338C02091840030918500809192
:101650006E03992787FD9095FC01EE0FFF1FE80FA1
:10166000F91FE159FC4F81819281820F931F909362
:1016700089008093880080916E03992787FD90955B
:10168000FC01EE0FFF1FE80FF91FE159FC4F8081AD
:1016900086FF11C080916E03992787FD9095FC010C
:1016A000EE0FFF1FE80FF91FE159FC4F808161E049
:1016B0008F730E944729FF91EF91BF91AF919F9146
:1016C0008F917F916F915F914F913F912F910F90EB
:1016D0000FBE0F901F90189520916D032C30A0F431
:1016E00031E0320F30936D03FC012083822F90E0B4
:1016F000FC01EE0FFF1FE80FF91FE159FC4F88EBCB
:101700009BE09283818308952FEFFC01208308954D
:10171000DF92EF92FF920F931F93CF93DF93EC0131
:10172000D62E7A01890188818C3008F066C061E08C
:101730008D2D0E940E298881A82FB0E0FD01EE0FAB
:10174000FF1FEA0FFB1FE159FC4F2D2D2F739081D6
:10175000907C922B908360E272E06E197F0977FF94
:1017600002C06D5F7F4F7595679575956795698325
:1017700040E659E0401B510B57FF02C04D5F5F4FE1
:1017800055954795559547954A836CE00E940932D7
:101790009CE0899FB001112420E030E0A901460FB0
:1017A000571FFA01EE0FFF1FE40FF51FE159FC4F21
:1017B000908196FD16C02F5F3F4F2C30310571F799
:1017C00081110FC01092800082E0809381001092FE
:1017D000850010928400B19A80916F00826080939E
:1017E0006F00888190E0FC01EE0FFF1FE80FF91FEA
:1017F000E159FC4F8081806480838881DF91CF91A3
:101800001F910F91FF90EF90DF90089520E639E04F
:1018100040E252E00C94880BFC0180818C3070F522
:10182000918128E830E0291B310997FD3395220F7B
:10183000331F220F331F621773077CF0928128E554
:1018400032E0291B310997FD3395220F331F220FF8
:10185000331F621773070CF49B0122503109220FCA
:10186000331F4FB7F89490E0FC01EE0FFF1FE80F15
:10187000F91FE159FC4F328321834FBF08954F92E6
:101880005F926F927F92AF92BF92CF92DF92EF9270
:10189000FF920F931F93CF93DF93EC01603282E0AE
:1018A00078070CF040C077FD06C0653B71052CF051
:1018B00064EB70E002C060E070E0898128E830E00D
:1018C000281B310987FD3395220F331F220F331F49
:1018D0005901CC24B7FCC094DC2C882777FD809577
:1018E000982F2A8148E552E0421B510927FD539564
:1018F000440F551F440F551F2A01662457FC60945E
:10190000762C7F926F925F924F9214EBE12EF12C26
:1019100000E010E020E030E0A9010E94302C0F90A0
:101920000F900F900F90CE01DF91CF911F910F91EB
:10193000FF90EF90DF90CF90BF90AF907F906F902F
:101940005F904F900C940C0C8091C30390E0209119
:10195000C403821B910908952091C4038091C3039D
:10196000281750F4E22FF0E0EB53FC4F808190E019
:101970002F5F2093C40308958FEF9FEF0895E091A8
:10198000C4038091C303E81730F4F0E0EB53FC4F3D
:10199000808190E008958FEF9FEF08950895CF9292
:1019A000DF92EF92FF920F931F93CF93DF937C010F
:1019B000CB018A0120919F03222389F0EB016B0167
:1019C000C40ED51ECC15DD0569F06991D701ED91E6
:1019D000FC910190F081E02DC7010995F3CF642FB0
:1019E0000E942A0EC801DF91CF911F910F91FF90A5
:1019F000EF90DF90CF900895CF93DF931F92CDB7F4
:101A0000DEB7698320919F032223D1F02091A003A8
:101A1000203240F021E030E0FC013383228380E07B
:101A200090E015C08091A103E82FF0E0EE55FC4F47
:101A3000998190838F5F8093A1038093A00305C059
:101A400061E0CE0101960E942A0E81E090E00F90A5
:101A5000DF91CF910895FC011382128248EE53E08A
:101A600060E070E0448355836683778381E491E08E
:101A70009183808308951092C4031092C30310923F
:101A8000A1031092A0030C94750D862F413208F02B
:101A900040E265EC73E00E94930D1092C4038093C2
:101AA000C303089581E080939F036093C203109263
:101AB000A1031092A00308950C94520D0F93062FCA
:101AC00021E04091A00362EA73E08091C2030E948A
:101AD000D70D1092A1031092A00310929F030F91B3
:101AE000089583E993E00C942B0D1092520481E049
:101AF0008093500410924F0461E082E10E944729D4
:101B000061E083E10E944729E9EBF0E080818E7F6C
:101B1000808380818D7F808388E48093B80085E412
:101B20008093BC000895413208F03FC09091520468
:101B30009111FCCF91E090935204209350042FEF29
:101B40002093E50310922A04240F209329049093F4
:101B5000510490915104880F892B809351048091F6
:101B60004F04813041F410924F04809151048093CE
:101B7000BB0085EC01C085EE8093BC0080915204CF
:101B80008130E1F380912A04841710F440912A04F3
:101B90002BE234E0FB01D9018A2F821B841718F451
:101BA0008D918193F9CF842F089580E008950F934C
:101BB000413208F046C0909152049111FCCF92E05E
:101BC00090935204009350049FEF9093E50310927A
:101BD0002A0440932904FB016BE274E0DB019A2F95
:101BE000961B941718F491919D93F9CF109251047C
:101BF00090915104880F892B8093510480914F0458
:101C0000813041F410924F04809151048093BB00C5
:101C100085EC01C085EE8093BC00222321F08091E9
:101C200052048230E1F38091E5038F3F61F08091AF
:101C3000E503803251F08091E503803341F483E085
:101C400007C081E005C080E003C082E001C084E0FD
:101C50000F910895613298F420915204243089F450
:101C600060930704FC0189E094E0DC012A2F281B23
:101C7000261718F421912D93F9CF80E0089581E083
:101C8000089582E0089585ED8093BC008091BC00AA
:101C900084FDFCCF10925204089585EC8093BC0023
:101CA0001092520408951F920F920FB60F921124B2
:101CB0002F933F934F935F936F937F938F939F9354
:101CC000AF93BF93EF93FF938091B900887F8036E5
:101CD00009F49CC068F5883209F45BC090F4803147
:101CE00009F454C038F4882309F4F5C0883009F4A5
:101CF0004DC0F5C0883109F44CC0803209F45DC094
:101D0000EEC0803409F468C048F4803309F455C04B
:101D1000883309F0E4C08093E503A8C0803509F456
:101D20004FC0883509F45DC0883409F0D8C0D5C0EB
:101D3000883909F4C6C0A8F4883709F467C038F4B4
:101D4000883609F463C0803709F460C0C8C0883899
:101D500009F4B7C0803909F45FC0803809F0BFC00A
:101D60005BC0803B09F485C038F4803A09F466C052
:101D7000883A09F47EC0B3C0803C09F4A6C0883C10
:101D800009F4A3C0883B09F489C0A9C0809151041B
:101D900010C090912A0480912904981770F5E09161
:101DA0002A0481E08E0F80932A04F0E0E55DFB4F6A
:101DB00080818093BB0085EC85C08093E5038DC056
:101DC000E0912A0481E08E0F80932A048091BB0069
:101DD000F0E0E55DFB4F808390912A048091290417
:101DE0006DC0E0912A0481E08E0F80932A048091D7
:101DF000BB00F0E0E55DFB4F8083809150048111D2
:101E00006CC081E080934F0484EA60C083E08093DB
:101E100052041092E603CFCF8091E603803208F09F
:101E200050C0E091E60381E08E0F8093E60380913D
:101E3000BB00F0E0E951FC4F8083BDCF8091E60309
:101E4000803230F4E091E603F0E0E951FC4F10827B
:101E50000E94430E6091E60370E0E0914B04F09124
:101E60004C0487EE93E009951092E6030E944D0E14
:101E700036C084E080935204109208041092070444
:101E8000E0914D04F0914E04099580910704811171
:101E900005C081E08093070410920904E0910804D2
:101EA00081E08E0F80930804F0E0E75FFB4F8081B4
:101EB0008093BB009091080480910704981708F460
:101EC0007ACF85E88093BC000AC085EC8093BC0083
:101ED0001092520404C01092E5030E94430EFF9139
:101EE000EF91BF91AF919F918F917F916F915F9192
:101EF0004F913F912F910F900FBE0F901F9018950B
:101F00000C948924FC01668B61830895CF92DF9243
:101F1000EF92FF920F931F93CF93DF93EC010C8905
:101F20001D890E94CC27CC80DD80EE80FF809B0144
:101F3000AC012C193D094E095F0969017A0139E0AC
:101F4000C316D104E104F104E8F16C837D838E8330
:101F50009F83CE010E94EE24488559856A857B8542
:101F6000452B462B472B49F4AC01662757FD60955E
:101F7000762F488B598B6A8B7B8B488959896A8964
:101F80007B89841B950B97FF03C0919581959109DF
:101F9000449764F44C855D856E857F854F5F5F4F08
:101FA0006F4F7F4F4C875D876E877F874885598548
:101FB0006A857B854F5F5F4F6F4F7F4F488759879B
:101FC0006A877B8788859985AA85BB850597A10542
:101FD000B105D1F4188619861A861B868C859D85D5
:101FE000AE85BF850397A105B10540F08889998921
:101FF000AA89BB898C019D8B8C8B02C00C891D89A1
:102000001C861D861E861F86C80164E670E00E943D
:1020100029326830710528F4FB01E35BFE4F8081B3
:1020200001C080E0DF91CF911F910F91FF90EF9061
:10203000DF90CF9008950C9489240F931F93CF9332
:10204000DF93EC01062F18E060E088850E944729A5
:1020500000FF02C061E001C060E089850E9447295D
:10206000069561E088850E944729115069F760E074
:1020700088850E94472961E089850E94472961E09F
:1020800088850E94472960E089850E940E2918EC06
:1020900089850E947D29892B59F01150C9F761E08B
:1020A00089850E940E2960E089850E944729EFCF2B
:1020B00061E08985DF91CF911F910F910C940E29DA
:1020C000CF93DF93EC0161E088850E94472961E0AE
:1020D00089850E94472960E089850E94472960E040
:1020E0008885DF91CF910C944729CF93DF93EC0142
:1020F00060E088850E94472960E089850E94472921
:1021000061E088850E94472961E08985DF91CF9150
:102110000C944729CF92DF92FF920F931F93CF9396
:10212000DF931F92CDB7DEB76C01F62E79830E9444
:10213000601060E4C6010E941D10C6010E94751067
:10214000C6010E946010F6016581C6010E941D1043
:102150000F2D7981172F84E0F82EF80161918F01FE
:10216000C6010E941D10FA94C1F7C6010E947510A5
:10217000C6010E946010F6016681C6010E941D1012
:10218000C6010F90DF91CF911F910F91FF90DF90CB
:10219000CF900C9475104F925F926F927F928F92B6
:1021A0009F92AF92BF92CF92DF92EF92FF920F93E6
:1021B0001F93CF93DF9300D000D0CDB7DEB76A0175
:1021C0007B01890137FD48C0B9016F5F7F4F8827C8
:1021D00077FD8095982F0E94EC2E9B01AC0160E06A
:1021E00070E080E291E40E94C7304B015C019B01EA
:1021F000AC01C701B6010E94512E0E94272F2B016E
:102200003C01B801882777FD8095982F0E94EC2E1D
:102210009B01AC0160E070E080E291E40E94C73075
:1022200069837A838B839C83A5019401C301B201E6
:102230000E9464309B01AC01C701B6010E94862D4B
:1022400029813A814B815C810E94512E0E94272F67
:102250000E94B92ECB011FC088249924821A930AA8
:10226000A12CB12C20E030E040E251E4C701B601DE
:102270000E9464306B017C018FEFA81AB80AA81481
:10228000B90484F3C701B6010E94B92ECB016AE0FC
:1022900070E00E9429320F900F900F900F90DF9105
:1022A000CF911F910F91FF90EF90DF90CF90BF9053
:1022B000AF909F908F907F906F905F904F90089518
:1022C000DB0180E090E22C91223208F09C93EC91AB
:1022D000F0E0E057FE4FE491ED938F5F843099F783
:1022E0000895EF92FF920F931F93CF93DF9300D047
:1022F00000D0CDB7DEB78C01DB01FE013196CE01F7
:1023000005967F012D912193E817F907D9F7B701B9
:10231000C8010E946011B701C8010E948A100F9085
:102320000F900F900F90DF91CF911F910F91FF9021
:10233000EF900895CF93DF9300D000D0CDB7DEB7F4
:1023400020E229832A832B832C83BE016F5F7F4F7A
:102350000E9471110F900F900F900F90DF91CF910D
:102360000895CF93DF93EC016A83E62FF0E0EE0F40
:10237000FF1FE65FFE4F8181898390819883888764
:10238000998761E00E940E2961E089850E940E29EB
:1023900080E48C8380EC8D838AE88E83CE01DF918C
:1023A000CF910C949A118F929F92AF92BF92CF923D
:1023B000DF92EF92FF920F931F93CF93DF9300D0A2
:1023C00000D0CDB7DEB75C016A017B0119821A82A9
:1023D0001B821C8220E030E0A901C701B6010E94E7
:1023E0004D2E87FF09C0F7FAF094F7F8F09481E2D8
:1023F00089839924939401C0912C03E010E0812CEF
:102400009801B701A601C5010E94CB101816190644
:102410002CF0002319F08820B9F00CC001110AC07B
:10242000E1E0F0E0EC0FFD1FE90DF11D20E1280FC8
:10243000208307C0E1E0F0E0EC0FFD1FE90DF11D86
:10244000808393948824839483E0891530F001502D
:1024500011090C3F8FEF180799F6BE016F5F7F4F90
:10246000C5010E9471110F900F900F900F90DF9196
:10247000CF911F910F91FF90EF90DF90CF90BF9081
:10248000AF909F908F9008950E94892488E0809358
:10249000530408954F925F926F927F928F929F9212
:1024A000AF92BF92CF92DF92EF92FF920F931F9362
:1024B000CF93DF9369017A019B0140E050E060E433
:1024C00072E48FE090E00E945F32E901890137FFFA
:1024D00002C00F5F1F4F1595079561E0809153046F
:1024E0000E940E29A8EEB3E0A70196010E94933244
:1024F0004B015C01C12CD12C76012E01662457FCC6
:102500006094762CC814D904EA04FB04A8F461E0B2
:10251000809153040E944729C8010E94232860E04B
:10252000809153040E944729C8010E942328C40CAB
:10253000D51CE61CF71CE6CFDF91CF911F910F91C0
:10254000FF90EF90DF90CF90BF90AF909F908F90D3
:102550007F906F905F904F90089561E08091530459
:102560000E940E2960E0809153040C944729CF9378
:10257000DF93EC0160E00E9492248EE18B871C8245
:10258000DF91CF910895AF92BF92CF92DF92EF92F9
:10259000FF920F931F93CF93DF93CDB7DEB76A9768
:1025A0000FB6F894DEBF0FBECDBF8C01CE010196F1
:1025B0007C01C12CD12C5C01C6010E94CC34F701F6
:1025C00081937F01FFEFCF1ADF0A8AE1C816D10499
:1025D00099F72D813E814F81588569817A818B8160
:1025E0009C810E94872D29853A854B855C850E94B8
:1025F000872D2D853E854F8558890E94872D2989F5
:102600003A894B895C890E94872D2D893E894F89A3
:10261000588D0E94872D6B017C01698D70E080E0F0
:1026200090E00E94EC2E9B01AC01C701B6010E9414
:10263000872D20E030E04AE253E40E94872D0E947B
:10264000BE2E8A8D68130CC08AE1F501D8011D9653
:1026500001900D928A95E1F781E0F801848302C030
:10266000F80114826A960FB6F894DEBF0FBECDBF94
:10267000DF91CF911F910F91FF90EF90DF90CF905E
:10268000BF90AF900895CF92DF92EF92FF920F9399
:102690001F93CF93DF938C01EB012C813D814E8101
:1026A0005F81688179818A819B810E94872D28853D
:1026B00039854A855B850E94872D2C853D854E8511
:1026C0005F850E94872D288939894A895B890E9404
:1026D000872D2C893D894E895F890E94872D6B014A
:1026E0007C01688D70E080E090E00E94EC2E9B0100
:1026F000AC01C701B6010E94872D20E030E04AE21C
:1027000053E40E94872D0E94BE2E698FE12CF12C8C
:102710006991C7010E94D4348FEFE81AF80AEAE100
:10272000EE16F104A9F781E0F8018483DF91CF91DF
:102730001F910F91FF90EF90DF90CF900895EF924F
:10274000FF921F93CF93DF931F92CDB7DEB7162F63
:102750007A01FC01638583E993E029830E94520D8D
:10276000612F83E993E00E94FC0C2981813091F470
:10277000422F50E0B70183E993E00E94CF0C61E063
:1027800083E993E00F90DF91CF911F91FF90EF903D
:102790000C945E0D8FEF0F90DF91CF911F91FF9002
:1027A000EF900895CF93DF931F92CDB7DEB74983A3
:1027B00021E0AE014F5F5F4F0E949F130F90DF91AA
:1027C000CF910895EF92FF920F931F93CF93DF93D2
:1027D000EC01F62E8A01E22E6B8583E993E00E94DC
:1027E000520D6F2D83E993E00E94FC0C813001F5BE
:1027F00060E083E993E00E945E0D81112EC081E0CC
:1028000090E00E94232821E04E2D6B8583E993E020
:102810000E94450DE80100E010E0F12C83E993E00F
:102820000E94A40C892B31F00E151F0574F002C014
:102830008FEF13C081E090E00E94232881E00E1505
:102840001F0509F480E0819508C00F5F1F4F83E9E1
:1028500093E00E94AC0C8993E1CFDF91CF911F915F
:102860000F91FF90EF900895CF93DF93EC01AC01AF
:102870004B5F5F4F23E06AE00E94E21381110AC0C0
:102880008D81883439F48E81843321F481E09F81F5
:10289000933309F080E0DF91CF910895CF92DF92DA
:1028A000EF92FF920F931F93CF93DF93EC016B0195
:1028B0008A0179010E949914AE014B5F5F4F26E0B7
:1028C00063E0CE010E94E213882321F0992787FD5F
:1028D000909526C08C85813031F441E062E070E053
:1028E000CE010E94D2138D8190E0982F88272E81EF
:1028F000822BF60191838083898590E0982F882729
:102900002A85822BF801918380838F8190E0982F14
:1029100088272885822BF7019183808380E090E0CF
:10292000DF91CF911F910F91FF90EF90DF90CF90AB
:1029300008952F923F924F925F926F927F928F9263
:102940009F92AF92BF92CF92DF92EF92FF920F933E
:102950001F93CF93DF93CDB7DEB76C970FB6F89484
:10296000DEBF0FBECDBF8C0162E00E94A8248111A2
:10297000B2C16AE070E080E090E00E94FB2762E074
:10298000C8010E94A8248111A6C1C8010E94341464
:10299000882309F4A0C10E94CC276B017C01712C13
:1029A000BB24B39462E0C8010E94A824811115C021
:1029B0000E94CC276C197D098E099F09693C71051D
:1029C0008105910578F30E94CC276B017C017B2463
:1029D000672DC8010E94DA24E5CF64E670E080E04C
:1029E00090E00E94FB270E94CC274B015C012FEF57
:1029F0003FE7388B2F8740E050E85E874D878FEFA9
:102A00009FE79C878B87E0E0F0E8FA87E9873887C3
:102A10002F83212C50E8352E662463940E94CC2706
:102A20006C197D098E099F09693C71058105910525
:102A300048F00E94CC276B017C017624672DC801E9
:102A40000E94DA240E94CC27681979098A099B0917
:102A50006B30710581059105E0F19E012F5F3F4FBD
:102A6000AE014D5F5F4FBE016B5F7F4FC8010E949B
:102A70004E148D819E814F815885841795072CF0C7
:102A80002816390624F41C0102C098878F838B8195
:102A90009C81EB85FC858E179F0744F029853A853C
:102AA000281739072CF49A87898702C09C878B875F
:102AB00089819A814F8558898417950744F0ED855F
:102AC000FE85E817F9072CF49E878D8702C0988B46
:102AD0008F8762E0C8010E94A82481119FCF60E027
:102AE000C8010E94DA24B101882777FD8095982FCC
:102AF0000E94EC2E6B017C012F813885B90188275B
:102B000077FD8095982F0E94EC2E698B7A8B8B8BAA
:102B10009C8B9B01AC01C701B6010E94872D905888
:102B200020E030E040E05FE30E946430F801658718
:102B300076878787908B29853A85B901882777FD25
:102B40008095982F0E94EC2E2B013C014B855C85D3
:102B5000BA01882777FD8095982F0E94EC2E6D8B07
:102B60007E8B8F8B988F9B01AC01C301B2010E94B9
:102B7000872D905820E030E040E05FE30E94643011
:102B8000F801618B728B838B948B2D853E85B90107
:102B9000882777FD8095982F0E94EC2E4B015C01D1
:102BA0004F855889BA01882777FD8095982F0E9414
:102BB000EC2E698F7A8F8B8F9C8F9B01AC01C501A6
:102BC000B4010E94872D905820E030E040E05FE3A0
:102BD0000E946430F801658B768B878B908F80E044
:102BE00090E0A0E8BFE3818F928FA38FB48F2989F3
:102BF0003A894B895C89C701B6010E94862D6B0119
:102C00007C012D893E894F89588DC301B2010E94F4
:102C1000862DA70196010E94512EF801658F768FAF
:102C2000878F90A3298D3A8D4B8D5C8DC501B401A2
:102C30000E94862DA70196010E94512EF80161A3E2
:102C400072A383A394A32F813885221A330A37FEF7
:102C500003C031942194310889859A854B855C8520
:102C6000841B950B97FF03C09195819591092D8544
:102C70003E85EF85F8892E1B3F0B37FF03C031954A
:102C800021953109821593052CF02215330514F096
:102C900081E009C0281639062CF02817390714F0EE
:102CA00082E001C083E0F80185A3B801635F7F4F34
:102CB000C8010E94431361E0C8010E94DA2462E067
:102CC000C8010E94A8248823D1F364E670E080E064
:102CD00090E00E94FB276C960FB6F894DEBF0FBE03
:102CE000CDBFDF91CF911F910F91FF90EF90DF90BB
:102CF000CF90BF90AF909F908F907F906F905F909C
:102D00004F903F902F900895CF93DF93EC0183E98C
:102D100093E00E943B0D61E0CE010E94DA2440E77F
:102D200060E070E0CE010E94D21340E261E070E00A
:102D3000CE010E94D21381E08C8741E062E070E016
:102D4000CE010E94D213CE010E94C312CE01DF91A8
:102D5000CF910C9499146093550440935404FC0152
:102D6000608341830C9484162F923F924F925F921E
:102D70006F927F928F929F92AF92BF92CF92DF928B
:102D8000EF92FF920F931F93CF93DF93CDB7DEB7F0
:102D900062970FB6F894DEBF0FBECDBF8C010E94C4
:102DA00099149E012F5F3F4FAE014D5F5F4FBE01F3
:102DB0006B5F7F4FC8010E944E14882349F0682F33
:102DC000772767FD7095872F972F0E94EC2EC5C03F
:102DD000F80184812D803E802B813C8138872F83B0
:102DE000882309F478C04584568467847088818C70
:102DF000928CA38CB48CB901882777FD8095982F8D
:102E00000E94EC2EF80121893289438954890E945D
:102E1000872DF801258D368D478D50A10E94643095
:102E20000E94B92E6F83788789879A8769817A8112
:102E3000882777FD8095982F0E94EC2EF801258930
:102E400036894789508D0E94872DF80121A132A132
:102E500043A154A10E9464300E94B92E6B877C87E5
:102E60008D879E87F80115A1113041F42B853C8593
:102E7000B901882777FD8095982F32C0B101882746
:102E800077FD8095982F0E94EC2EA30192010E945D
:102E9000872DA50194010E9464300E94B92E4B0138
:102EA0005C01123089F42B853C85B901882777FDB8
:102EB0008095982F0E94EC2E9B01AC01B4018827CD
:102EC00077FD8095982F17C0133019F5882777FD67
:102ED0008095982F05C0B101882777FD8095982FA0
:102EE0000E94EC2E9B01AC01EF81F885BF01882781
:102EF00077FD8095982F2F87388B498B5A8B0E94AE
:102F0000EC2E2F85388949895A890E94FA2D6B0148
:102F10007C0120E030E0A901C701B6010E944D2EDE
:102F200087FF0DC02BED3FE049EC50E4C701B6012F
:102F30000E94872D20E030E044E353E406C020E007
:102F400030E044E353E4C701B6010E9464302BED46
:102F50003FE049E450E40E94512E62960FB6F89487
:102F6000DEBF0FBECDBFDF91CF911F910F91FF90BC
:102F7000EF90DF90CF90BF90AF909F908F907F9019
:102F80006F905F904F903F902F90089560E00C9469
:102F900092240F931F93CF93DF938C016F3F7105A2
:102FA00019F014F06FEF70E0EB0161308FEF7807EC
:102FB00014F4C1E0DFEFD7FD06C061E0C8010E9454
:102FC000DA24BE0108C060E0C8010E94DA24662746
:102FD00077276C1B7D0BC801DF91CF911F910F915B
:102FE0000C94F22486E594E00C94E61B86E594E0CC
:102FF0000C940F1C60E00C949224CF93DF93EC01AF
:103000006C834D838C8160E00E940E298D818883C2
:103010008C818983DF91CF9108950C94EA2460E03C
:103020000C949224CF93DF93EC016C834D838C81BD
:1030300060E00E940E298D8188838C818983DF91D5
:10304000CF9108950C94EA24CF93DF93EC0160E0D4
:103050000E949224CE5BDF4F88E68883DF91CF9178
:103060000895FC01613029F4328523859485858596
:103070000DC0623029F4368527859089818906C084
:10308000633029F43289238994898589AC01632FBF
:10309000722F852F942F0895EF92FF920F931F9315
:1030A000CF93DF93C62F8A01E22E68E683E993E08F
:1030B0000E94520D6C2F83E993E00E94FC0C81303A
:1030C00001F560E083E993E00E945E0D81112EC05E
:1030D00081E090E00E94232821E04E2D68E683E9FC
:1030E00093E00E94450DE80100E010E0F12C83E937
:1030F00093E00E94A40C892B31F00E151F0574F08B
:1031000002C08FEF13C081E090E00E94232881E08D
:103110000E151F0509F480E0819508C00F5F1F4F51
:1031200083E993E00E94AC0C8993E1CFDF91CF91CA
:103130001F910F91FF90EF9008954F925F926F92C1
:103140007F928F929F92AF92BF92CF92DF92EF9237
:10315000FF920F931F93CF93DF93CDB7DEB72C97DA
:103160000FB6F894DEBF0FBECDBF8C01AC014C5C36
:103170005F4F2EE06BE30E944C188111C8C1F8012B
:10318000A4A8B12CBA2CAA2485A9A82AB3A2A2A2C9
:10319000E6A8F12CFE2CEE2487A9E82AF5A2E4A2E9
:1031A00080AC912C982C882481AD882A97A286A285
:1031B000468057806084718464AD70E0762F662706
:1031C00085AD682B882777FD8095982F0E94EC2E7F
:1031D000F80120A531A542A553A50E94862DA30183
:1031E00092010E94512EF801668B778B808F918F10
:1031F00066AD70E0762F662787AD682B882777FD50
:103200008095982F0E94EC2EF80124A535A546A59F
:1032100057A50E94862DA30192010E94512EF8010C
:10322000628F738F848F958FE05CFF4F608170E0B9
:10323000762F662731968081682B882777FD8095C9
:10324000982F0E94EC2EF80120A931A942A953A978
:103250000E94862DA30192010E94512EF801668FD3
:10326000778F80A391A3B701882777FD8095982F4A
:103270000E94EC2E6B017C01B401882777FD8095BC
:10328000982F0E94EC2E9B01AC010E9464302B0110
:103290003C01A7019601C701B6010E946430A30159
:1032A00092010E94872D0E9417319B01AC01B5014C
:1032B000882777FD8095982F29873A874B875C87E9
:1032C0000E94EC2E4B015C0129853A854B855C857B
:1032D0000E94FA2D20E030E044E353E40E94643081
:1032E0002AED3FE049E450E40E94512E69837A833D
:1032F0008B839C83A5019401C501B4010E946430B5
:10330000A30192010E94872D0E9417319B01AC01FD
:10331000C701B6010E94FA2D20E030E044E353E4F7
:103320000E9464302AED3FE049E450E40E94512EAF
:103330006D837E838F8398870E94CC27C090710510
:10334000D0907205E0907305F09074056C197D09BA
:103350008E099F090E94EA2E20E030E04AE754E4FB
:103360000E94512E6B017C010E94CC276093710555
:10337000709372058093730590937405F80186A18C
:1033800097A11816190644F5228D338D448D558D5D
:10339000C701B6010E9464309B01AC01F80162854F
:1033A0007385848595850E94862DF80162877387D1
:1033B0008487958726893789408D518DC701B6014D
:1033C0000E9464309B01AC01F80166857785808995
:1033D00091890E94872D28C0F801228D338D448D5C
:1033E000558DC701B6010E9464309B01AC01F80104
:1033F00062857385848595850E94872DF801628793
:1034000073878487958726893789408D518DC701B9
:10341000B6010E9464309B01AC01F8016685778596
:10342000808991890E94862DF80166877787808B35
:10343000918BF801268D378D40A151A1C701B601AE
:103440000E9464309B01AC01F80162897389848910
:1034500095890E94872DF801628B738B848B958BE5
:1034600020E030E040E05FE3C701B6010E94872D15
:103470009B01AC0160E070E080E09FE30E94512E70
:103480006B017C019B01AC0160E070E080E89FE390
:103490000E94862D4B015C01F8012285338544850D
:1034A0005585C701B6010E9464302B013C01A5017E
:1034B000940169817A818B819C810E9464309B0197
:1034C000AC01C301B2010E94872DF80162877387A6
:1034D000848795872685378540895189C701B6013C
:1034E0000E9464306B017C01A50194016D817E8195
:1034F0008F8198850E9464309B01AC01C701B601A1
:103500000E94872DF80166877787808B918B2C9698
:103510000FB6F894DEBF0FBECDBFDF91CF911F91E4
:103520000F91FF90EF90DF90CF90BF90AF909F9062
:103530008F907F906F905F904F9008952F923F9261
:103540004F925F926F927F928F929F92AF92BF92B3
:10355000CF92DF92EF92FF920F931F93CF93DF935F
:1035600000D000D0CDB7DEB71C0104EF11E0812CF4
:10357000912C5401412C512C320119821A821B8248
:103580001C827C0124E3E20EF11C26E0A70163E427
:10359000C1010E944C18F10184A990E0982F88275E
:1035A00025A9822BAA2797FDA095BA2F29813A81B8
:1035B0004B815C81280F391F4A1F5B1F29833A8387
:1035C0004B835C8386A990E0982F882727A9822BBC
:1035D000AA2797FDA095BA2F480E591E6A1E7B1E7A
:1035E00080AD90E0982F882721AD822BAA2797FDE8
:1035F000A095BA2F880E991EAA1EBB1E0150110954
:1036000021F664EFC62EDD24D394E12CF12C6981E0
:103610007A818B819C81A70196010E945F32CA0149
:10362000B9010E94EC2EF10160A771A782A793A7B0
:10363000C301B201A70196010E945F32CA01B9011C
:103640000E94EC2EF10164A775A786A797A7C50174
:10365000B401A70196010E945F32CA01B9010E941C
:10366000EC2EF10160AB71AB82AB93AB0F900F907E
:103670000F900F90DF91CF911F910F91FF90EF90DE
:10368000DF90CF90BF90AF909F908F907F906F9082
:103690005F904F903F902F900895EF92FF921F936D
:1036A000CF93DF931F92CDB7DEB7162F7A0168E66E
:1036B00070E083E993E029830E945C0D612F83E928
:1036C00093E00E94FC0C2981813091F4422F50E05C
:1036D000B70183E993E00E94CF0C61E083E993E0B6
:1036E0000F90DF91CF911F91FF90EF900C945E0DA2
:1036F0008FEF0F90DF91CF911F91FF90EF90089582
:10370000CF93DF931F92CDB7DEB7498321E0AE019F
:103710004F5F5F4F0E944D1B0F90DF91CF91089537
:10372000CF93DF93EC0140E050E063E872E44E8316
:103730005F83688779871A861B861C861D861E868E
:103740001F86188A198A1A8A1B8A1C8A1D8A1E8A51
:103750001F8A188E198E1A8E1B8E1C8E1D8E1E8E21
:103760001F8E18A219A21BA21AA21DA21CA21FA280
:103770001EA218A619A61AA61BA61CA61DA61EA642
:103780001FA618AA19AA1AAA1BAA83E993E00E94E5
:103790003B0D60E273E080E090E00E94FB2740E098
:1037A0006BE670E0CE010E94801B41E06AE170E0B0
:1037B000CE010E94801B48E06BE170E0CE010E94C8
:1037C000801BCE01DF91CF910C949E1A21E030E056
:1037D000FC0131832083EE5FFE4F10821182128242
:1037E00013823496108211821282138234961082D0
:1037F0003196108231961082118212821382349691
:1038000011821082329610823196108211821282B9
:1038100013823496108211821282138208950895C1
:1038200060E00C9492244F925F926F927F928F92FD
:103830009F92AF92BF92CF92DF92EF92FF920F933F
:103840001F93CF93DF9300D000D01F92CDB7DEB788
:103850008C01CE0101966C0185E0F60111928A95EA
:10386000E9F760E0C8010E94DA2464E170E080E0DA
:1038700090E00E94FB2761E0C8010E94DA2488E200
:1038800090E00E94232860E0C8010E94DA240E9490
:10389000CC274B015C0160E0C8010E94B924811172
:1038A0000EC00E94CC27681979098A099B096330E8
:1038B00071058105910578F3F801148215820E9443
:1038C000CC274B015C0160E0C8010E94B924882329
:1038D00059F00E94CC27681979098A099B0963303D
:1038E00071058105910578F3E12CF12C0E94CC271C
:1038F0004B015C0160E0C8010E94B92481110BC03A
:103900000E94CC27681979098A099B0963307105DF
:103910008105910578F30E94D8274B015C010E9434
:10392000CC272B013C0160E0C8010E94B924882308
:1039300059F00E94CC2764197509860997096330EC
:1039400071058105910578F30E94D82768197909D6
:103950008A099B09F70123E0F595E7952A95E1F798
:10396000693271058105910530F0EC0DFD1D8081F6
:10397000880F816004C0EC0DFD1D8081880F80835D
:10398000FFEFEF1AFF0A88E2E816F10409F0AECF64
:1039900059814B81842F90E0850F911D2D8130E05E
:1039A0008217930719F4F801548345830F900F9001
:1039B0000F900F900F90DF91CF911F910F91FF907B
:1039C000EF90DF90CF90BF90AF909F908F907F90BF
:1039D0006F905F904F900895FC01611102C0848147
:1039E0000895858108951F920F920FB60F921124AA
:1039F0000F931F932F933F934F935F936F937F93F7
:103A00008F939F93AF93BF93CF93EF93FF9382E0F6
:103A10000E947D29C82F20917B0530917C052F5F66
:103A20003F4F30937C0520937B058091E1058436E0
:103A300018F085E08093760590917605933079F0C3
:103A400018F4923039F070C0943011F1953009F4C7
:103A50004AC06AC0C11168C01092E10529C0C130D6
:103A600009F062C0E091E10581E08E0F8093E105ED
:103A7000F0E080917B0590917C05EB58FA4F8087B0
:103A800010927C0510927B0584E0809376054CC0F3
:103A9000C11114C0E091E10581E08E0F8093E10532
:103AA000F0E080917B0590917C05EB58FA4F808780
:103AB00010927C0510927B0583E0E7CF80917B0517
:103AC00090917C058536910578F185E080937605A7
:103AD0000E94CC27609377057093780580937905D1
:103AE00090937A0521C00E94CC2700917705109110
:103AF00078052091790530917A05601B710B820B56
:103B0000930B693C71058105910540F01092E10528
:103B100010927C0510927B0582E0B7CFC11104C0E2
:103B200010927C0510927B05FF91EF91CF91BF9190
:103B3000AF919F918F917F916F915F914F913F9145
:103B40002F911F910F910F900FBE0F901F901895FE
:103B5000F89482E08093B0008093B10094E6909353
:103B6000B3001092B2008093700078941092E10537
:103B70008093760508950F931F93CF93DF93EC0105
:103B80008C010C5E1F4F63E871E0C8010E94E52CB8
:103B900063E871E0CE014A960E94E52C60E082E085
:103BA0000E940E2982E08093750518A219A21AA21C
:103BB0001BA21B861A861C861A8A63E871E0C8015C
:103BC0000E941B2D1B8ACE010E94A81D61E083E08C
:103BD0000E940E2960E083E0DF91CF911F910F9149
:103BE0000C9447291F93CF93DF93FC01A681B781E3
:103BF0008C9186588D3558F4808591858330910558
:103C0000A1F411968C9111978152893118F080E0BE
:103C100090E044C012968C9188508730C0F715828E
:103C200081E0808381E090E039C0833491057CF3AA
:103C300011968C91119783548F3248F782E090E06F
:103C400040E050E0BA019D012F5F3F4FEC01CA0FE9
:103C5000DB1FC881C850C730D0F6E901C80FD91F93
:103C600018811751133180F47695679557954795CC
:103C7000706802968234910549F780E2858341831A
:103C8000528363837483CCCFC881C850C73008F097
:103C9000BECF7695679557954795EBCFDF91CF913E
:103CA0001F9108950F931F93CF93DF93EC018DE73E
:103CB00095E09F838E838091E10590E099878887C6
:103CC00080917605853081F4CE010E94F21D8C0131
:103CD000CE010115110529F00E94A81D01E010E098
:103CE00005C00E94A81D02C000E010E0C801DF91DD
:103CF000CF911F910F910895CB01E0EBF0E020816F
:103D0000206220830C942328CB01E0EBF0E020819B
:103D10002F7D20830C94232810927000262F30E0F2
:103D200040E050E060E47FE180E090E00E945F329C
:103D300081E08093B00089E08093B1002093B300CC
:103D40008BEA289F212D112426952093B4000895F5
:103D5000F89482E08093B0008093B10094E6909351
:103D6000B3001092B200809370007894809376052F
:103D70001092E1058091750560E00C940E29AF92D8
:103D8000BF92CF92DF92EF92FF920F931F93CF9348
:103D9000DF93EC016A017B01590166E20E948C1EEF
:103DA00068E273E2CE010E947C1E64E971E1CE01FB
:103DB0000E94841E00E010E060E372E0CE010A156C
:103DC0001B05ACF4C0FE05C00E947C1E60E476E0DA
:103DD00004C00E947C1E60E372E0CE010E94841E3B
:103DE000F694E794D794C7940F5F1F4FE5CF0E94D6
:103DF0007C1E60E070E0CE01DF91CF911F910F91AA
:103E0000FF90EF90DF90CF90BF90AF900C94841E06
:103E1000EF92FF920F931F93CF93DF937C018B015F
:103E20006AE0C8010E945F2DC0E0D0E0F801848103
:103E30009581C817D90710F5BE01C8010E94832DCE
:103E4000482F409550E060E070E0762F652F542FAA
:103E50004427480F511D611D711DBA015527442784
:103E60004F6F20E230E0C7010E94BF1E64E170E0A6
:103E700080E090E00E94FB272196D8CFC701DF9118
:103E8000CF911F910F91FF90EF900C94A81E60E0CE
:103E90000C949224613049F40E94EA248A5E914095
:103EA0002091E4053091E5050AC0623059F40E9482
:103EB000EE248A5E91402091E2053091E305820F65
:103EC000931F089580E090E00895CF92DF92EF92E3
:103ED000FF920F931F93CF93DF93EC01162FF42ED5
:103EE000E52ED22E106C61E08C810E94472960E0A3
:103EF0008D810E94472908E060E08C810E9447295B
:103F0000612F61708D810E94472961E08C810E9440
:103F100047291695015081F7CF2C0F2D1E2D802F8C
:103F20008C198D15B0F4F801E1908F0188E0F82E1E
:103F300060E08C810E9447296E2D60788D810E94FF
:103F4000472961E08C810E944729EE0CFA9481F7A1
:103F5000E6CF60E08C810E94472960E08D810E945D
:103F6000472961E08C810E94472961E08D81DF91C2
:103F7000CF911F910F91FF90EF90DF90CF900C9415
:103F800047290C9489240F931F93CF93DF93EC015F
:103F9000162F61E08C810E94472960E08D810E948C
:103FA000472908E060E08C810E944729612F6170F9
:103FB0008D810E94472961E08C810E9447291695D6
:103FC000015081F760E08C810E94472960E08D817B
:103FD0000E94472961E08C810E94472961E08D8120
:103FE000DF91CF911F910F910C94472920E030E091
:103FF000FC01E20FF31F10862F5F3F4F2031310588
:10400000B9F721E0FC0126831782AC01485F5F4FBE
:1040100020E160E00C94651F693018F4662321F0FC
:1040200001C068E06150686060680C94C31FCF9362
:10403000DF93EC01E62FF0E0EE0FFF1FE65FFE4F8F
:1040400080818C8391819D8361E00E940E2961E0D3
:104050008D810E940E2961E08C810E94472961E0D8
:104060008D810E94472960E4CE010E94C31F65E054
:10407000CE010E940C20CE01DF91CF910C94F61F4F
:10408000FC01668308958F929F92AF92BF92CF9268
:10409000DF92EF92FF920F931F93CF93DF936031E4
:1040A0000CF085C048300CF082C0222309F47FC098
:1040B000FC013681A42FBB27A7FDB095E8E0F0E016
:1040C000EA1BFB0B5FEF01C0550FEA95EAF74801C9
:1040D000C0E0D0E0772767FD70956C01C60ED71E53
:1040E000AA24BB24AA1ABB0A332379F1C21778F594
:1040F0008E01060F171F17FD1AC07601EC0EFD1E6C
:10410000F70130853523F4010081141644F410E0E2
:104110000A2E02C0159507950A94E2F705C00A2CED
:1041200001C0000F0A94EAF7032BF70100872196DC
:10413000FFEF8F1A9F0ADACF8E01060F171F17FFA6
:1041400019C02196FFEF8F1A9F0AC217A8F3AC017E
:10415000485F5F4F20E160E0DF91CF911F910F91A9
:10416000FF90EF90DF90CF90BF90AF909F908F9097
:104170000C94651F7601EC0EFD1EF701308535238A
:10418000F401008110E00095109514163CF40A2EFD
:1041900002C0159507950A94E2F705C00A2C01C0E4
:1041A000000F0A94EAF7032BF7010087CACFDF91CB
:1041B000CF911F910F91FF90EF90DF90CF90BF9024
:1041C000AF909F908F9008958F929F92AF92BF92E1
:1041D000CF92DF92EF92FF920F931F93CF93DF93D3
:1041E000EC01088D198D101611060CF073C080E0DB
:1041F00090E0F82E8017910751F0019681319105DA
:1042000009F4E7C0FE01E80FF91F1782F2CF40E181
:10421000841709F4DEC00B8D1C8DE12C67E0D62ECF
:1042200070E2C72E4E2D50E0401751070CF049C0E8
:10423000B12CDE01A40FB51F5D962B2D30E0D29E70
:10424000C001D39E900D112480539E4FFC016491B8
:10425000603441F1FC016491EC91FF27E7FDF0959A
:1042600070E0E617F707E1F4D29EB001D39E700D1F
:10427000112420E030E06F527E4FFB01E20FF31F6C
:10428000E491DE01AF0DB11D1896EC93F394FFE0BD
:10429000FF1540F02F5F3F4F2630310571F702C008
:1042A000B394CBCFFC018491803429F4FE01E40F58
:1042B000F51FC58EEA94E394FFE0FF1508F0B2CF36
:1042C00088C0FE01EF0DF11D1086F39440E1F41259
:1042D000F8CF7FC0EB8CFC8C2AEFA7012403C00130
:1042E000259F900D11240817190759F480E090E0DC
:1042F000FE01E80FF91F1086019680319105C1F784
:1043000068C022273327201B310BC90166E070E00B
:104310000E942932398F288F9B0190E047E0B42E0C
:1043200050E2A52E2E153F050CF04BC0912CDE015E
:10433000A20FB31F5D96692D70E0B69EA001B79ED7
:10434000500D112440535E4FFA01D490F0E4DF1673
:1043500031F1FA018490CC90DD24C7FCD094E82D93
:10436000F0E0CE16DF06C1F4B69ED001B79EB00DC8
:104370001124FD01E80FF11D87FDFA95EF52FE4F64
:104380006491FE01E90FF11D60879F5F903130F469
:104390008F5F863071F702C09394CDCF80E0FA0131
:1043A0004491403431F4FE01E20FF31FA58E2150F9
:1043B00031092F5F3F4F903108F4B4CF198F088F28
:1043C00008C0FE01E90FF11D10869F5F9031C9F70B
:1043D000F5CF4A8D552747FD509527E030E0241B47
:1043E000350B80E090E037FD12C0FE01E80FF91FA9
:1043F0004085022E01C0440F0A94EAF740870196D7
:104400008031910591F78E818823A1F01FC047501C
:104410005109FE01E80FF91F208530E0042E02C08B
:10442000359527950A94E2F720870196803191050A
:1044300081F7E9CF80E090E0FE01E80FF91F2085C9
:1044400020952087019680319105B1F7AE01485F34
:104450005F4F20E160E0CE01DF91CF911F910F917E
:10446000FF90EF90DF90CF90BF90AF909F908F9094
:104470000C94651F0F931F93FC0181E08783148EBA
:10448000138E038D148DD901A00FB11F8C91DF0104
:10449000A00FB11F882319F00331110564F05D9658
:1044A0001C922AEF2003C001219F900D1124681750
:1044B000790774F007C05D968C930F5F1F4F148FC0
:1044C000038FDFCFCB016131710514F080E190E003
:1044D000918F808F40310CF04FE047FD4FEF428FBE
:1044E000CF011F910F910C94E420CF93DF93DC0157
:1044F000362F862F6AE00E940932C82FD0E0FE01D5
:10450000EE0FFF1FEC0FFD1FEE54FE4FE4911896C7
:10451000EC931897FE01EE0FFF1FEC0FFD1FED54FB
:10452000FE4FE4911996EC931997FE01EE0FFF1FD1
:10453000EC0FFD1FEC54FE4FE4911A96EC931A9782
:104540001B961C921B97832F0E940932692F70E0E3
:10455000FB01EE0FFF1FE60FF71FEE54FE4FE49135
:104560001C96EC931C97FB01EE0FFF1FE60FF71F45
:10457000ED54FE4FE4911D96EC931D97FB01EE0F59
:10458000FF1FE60FF71FEC54FE4FE4911E96EC93CD
:104590001E97842F6AE00E940932682F70E0FB01A9
:1045A000EE0FFF1FE60FF71FEE54FE4FE4915196FA
:1045B000EC935197FB01EE0FFF1FE60FF71FED5431
:1045C000FE4FE4915296EC935297FB01EE0FFF1FC2
:1045D000E60FF71FEC54FE4FE4915396EC9353977C
:1045E00054961C925497842F6AE00E940932892FB6
:1045F00090E0FC01EE0FFF1FE80FF91FEE54FE4F95
:10460000E4915596EC935597FC01EE0FFF1FE80FD0
:10461000F91FED54FE4FE4915696EC935697FC012A
:10462000EE0FFF1FE80FF91FEC54FE4FE491579671
:10463000EC935797222341F088E21F968C931F97A3
:1046400050968C93509706C01F961C921F975096B9
:104650001C92509716968C911697882351F0AD01B5
:10466000485F5F4F20E160E0CD01DF91CF910C9476
:10467000651F80E090E0FD01E80FF91F208520957F
:104680002087019680319105B1F7E9CF089570E058
:10469000FB01E651FC4FE491DC01EC93FB01E2509D
:1046A000FC4FE491F0E0EE0FFF1FEE5EFB4F259113
:1046B0003491FC013283218308951F93CF93DF93BC
:1046C000FC011081C181D2819981812F809589233C
:1046D00089838A81812B8A838AE090E00E94232843
:1046E0009881912381E009F480E0DF91CF911F91BF
:1046F0000895FF920F931F93CF93DF93FC011081D6
:10470000C181D281F8948981F12EF0948F2189831F
:104710008A81812B8A8378940DE7015041F182E0F0
:1047200090E00E94232888818123B9F3F8948A813C
:104730008F218A838981812B8983789480EE91E00F
:104740000E942328F89489818F2189838A81812B73
:104750008A8386E490E00E9423288881812301E0F7
:1047600009F000E078948AE991E00E942328802FE4
:10477000DF91CF911F910F91FF9008951F93CF93D9
:10478000DF93FC011081C181D281912F909560FF50
:1047900012C0F8948A8189238A838981812B898335
:1047A0008AE090E00E9423288A81812B8A83789472
:1047B00087E390E011C0F8948A8189238A838981F4
:1047C000812B898381E490E00E9423288A81812BB8
:1047D0008A83789485E090E0DF91CF911F910C94CB
:1047E00023280F931F93CF93DF93FC011081C18186
:1047F000D281F8948981812B89838A81012F009548
:1048000080238A8383E090E00E942328898180238B
:1048100089838A81812B8A838AE090E00E94232801
:10482000C881789485E390E00E9423281C2381E0CE
:1048300009F480E0DF91CF911F910F910895CF92FD
:10484000DF92EF92FF920F931F93CF93DF931F920C
:10485000CDB7DEB76C01E62E08E010E0FF24F3943C
:1048600061E09F2D9E2109F460E0C60149830E940A
:10487000BE23FF0C0150110949810115110581F773
:1048800041111DC0F894D6011196ED91FC9112973B
:1048900091818C918095892381831196ED91FC9172
:1048A000129782819C91892B82831196ED91FC91C4
:1048B000129792818C9180958923828378940F90AE
:1048C000DF91CF911F910F91FF90EF90DF90CF90EC
:1048D0000895EF92FF920F931F93CF93DF938C0174
:1048E000C8E0D0E0F12CEE24E394C8010E94F1234B
:1048F0008111FE28EE0C2197C1F78F2DDF91CF910A
:104900001F910F91FF90EF90089540E06CEC0C9494
:104910001F24FC0180910A01808380910B01818317
:1049200012820895DC01E62FF0E0EE0FFF1FE65F34
:10493000FE4F80818C93818111968C9311971296F2
:104940006C930895FC0182810895FC018381089590
:10495000CF93DF93EC0188810E940E2988810E9409
:104960007D2921E0892B09F420E0822FDF91CF916E
:104970000895CF93DF93EC0189810E940E298981EC
:104980000E947D2921E0892B09F420E0822FDF910C
:10499000CF9108951F93CF93DF93EC01162F61E021
:1049A00088810E940E29612F8881DF91CF911F910C
:1049B0000C9447291F93CF93DF93EC01162F61E0EE
:1049C00089810E940E29612F8981DF91CF911F91EA
:1049D0000C944729FC0180810C946928FC01818199
:1049E0000C946928FC0180810C948628DC01E62F58
:1049F000F0E0EE0FFF1FE65FFE4F80818C93818118
:104A000011968C93119712966C930895DC01E62F02
:104A1000F0E0EE0FFF1FE65FFE4F80818C938181F7
:104A200011968C93119712966C93129713964C9340
:104A30000895FC0180810895FC0181810895DC01C5
:104A400012966C931297E62FF0E0EE0FFF1FE65FD1
:104A5000FE4F918111969C93119780818C934230E7
:104A6000D9F4292F30E0F901E651FC4FE4911C966E
:104A7000EC931C97F901E250FC4FE491F0E0EE0F4B
:104A8000FF1FE45EFB4F2591349119963C932E93C2
:104A9000189761E0892F19C0282F30E0F901E651FD
:104AA000FC4FE4911C96EC931C97F901E250FC4FEB
:104AB000E491F0E0EE0FFF1FE45EFB4F259134918F
:104AC00019963C932E93189761E00C940E29DC0103
:104AD000862F262F30E0F901E651FC4FE4911C9619
:104AE000EC931C97F901E250FC4FE491F0E0EE0FDB
:104AF000FF1FE45EFB4F2591349119963C932E9352
:104B0000189761E00C940E29CF93DF93EC01262FC8
:104B100030E03D832C8323E0629FC00111240E947A
:104B20009E329F838E83892B21F485E591E00E943C
:104B30009F3480E090E04C815D819A01220F331F09
:104B4000240F351F8217930738F4EE81FF81E80F99
:104B5000F91F10820196EFCFDF91CF9108950F9347
:104B60001F93CF93DF931F92CDB7DEB78C0149839C
:104B70000E949224D80111968C91282F30E0F901DF
:104B8000E651FC4FE491D8011C96EC93F901E250F8
:104B9000FC4FE491F0E0EE0FFF1FE45EFB4F259128
:104BA0003491F8013187208761E00E940E29498104
:104BB000642FC8010F90DF91CF911F910F910C943A
:104BC00084250F93FC01A62FB0E084819581A8175E
:104BD000B907B8F4862F880F860F90E0A681B781B9
:104BE000A80FB91F2C93A681B781A80FB91F1196E2
:104BF0004C930680F781E02DE80FF91F028381E0D6
:104C000001C080E00F910895CF92DF92EF92FF9262
:104C10000F931F93CF93DF937C01142FD22EC02EBE
:104C2000611113C0C0E0D0E0F70184819581C817FD
:104C3000D90748F40C2D2D2D412F6C2FC7010E9450
:104C4000E1252196F1CF81E004C061500E94E12569
:104C500080E0DF91CF911F910F91FF90EF90DF9057
:104C6000CF9008950F93022F242F462F60E00E94CB
:104C700004260F9108950F931F93D8013FB7F8941E
:104C80009C91822F80958923292BFB01460F571F6A
:104C9000E417F50781F0919168E02C9300C097FF2D
:104CA0008C93990F00C000C000C008F48C9300C022
:104CB0006A9599F7EDCF3FBF1F910F9108950F931C
:104CC0001F93FC010085118524813581A901440FC2
:104CD000551F420F531F6681778124850E943B2612
:104CE0001F910F910895CF93DF93EC018E819F81E7
:104CF0000E9436331F821E82DF91CF910895CF9399
:104D0000DF93EC010E948924CE010496DF91CF91BC
:104D10000C9446231F93CF93DF93EC01142F0E9432
:104D20000625123011F4698101C06881CE01049614
:104D3000DF91CF911F910C944723CF92DF92EF9296
:104D4000FF920F931F93CF93DF93CDB7DEB72C97CE
:104D50000FB6F894DEBF0FBECDBF8C010C5F1F4FA6
:104D6000C8010E947923C8010E94852440E064E4C0
:104D7000C8010E941F240E94CC276B017C01C8013E
:104D80000E945D2381110BC00E94CC276C197D0904
:104D90008E099F096E3E72408105910580F3C8011E
:104DA0000E947923C8010E94852440E06EEBC8016F
:104DB0000E941F24CE0101967C016E0196E0C90E6F
:104DC000D11CC8010E946924F70181937F01EC1571
:104DD000FD05B9F76A8170E0762F66278981682B17
:104DE000882777FD8095982F0E94EC2E20E030E0F8
:104DF00040E85DE30E9464302C960FB6F894DEBF65
:104E00000FBECDBFDF91CF911F910F91FF90EF901B
:104E1000DF90CF90089560E00C949224CF93DF93BD
:104E2000EC016C834D838C8161E00E940E298D81A1
:104E300060E00E940E298C8188838D818983DF91B7
:104E4000CF91089560E00C94B92460E00C94922412
:104E5000CF92DF92EF92FF92CF93DF9300D000D0FA
:104E6000CDB7DEB77C019A01AB0160E029833A83BC
:104E70004B835C830E94DA2482E090E00E94232826
:104E800061E0C7010E94DA248AE090E00E942328B2
:104E900060E0C7010E94DA2460E0F70181810E948E
:104EA0000E2929813A814B815C8161E0F701818182
:104EB0000E94A6296B017C0184E690E00E942328D1
:104EC000C701B6010F900F900F900F90DF91CF9117
:104ED000FF90EF90DF90CF90089527E3269FA001E9
:104EE000279F500D112448535F4F60E070E00E94EF
:104EF00028270E94EC2E20E030E048E652E40E9491
:104F0000512E08951F920F920FB60F9211242F93D6
:104F10003F938F939F93AF93BF938091E7059091B9
:104F2000E805A091E905B091EA053091E60523E096
:104F3000230F2D3720F40196A11DB11D05C026E8D1
:104F4000230F0296A11DB11D2093E6058093E7056E
:104F50009093E805A093E905B093EA058091EB05ED
:104F60009091EC05A091ED05B091EE050196A11D83
:104F7000B11D8093EB059093EC05A093ED05B093E4
:104F8000EE05BF91AF919F918F913F912F910F901F
:104F90000FBE0F901F9018952FB7F8946091E705FA
:104FA0007091E8058091E9059091EA052FBF089579
:104FB0003FB7F8948091EB059091EC05A091ED0539
:104FC000B091EE0526B5A89B05C02F3F19F00196BC
:104FD000A11DB11D3FBF6627782F892F9A2F620F21
:104FE000711D811D911D42E0660F771F881F991F5B
:104FF0004A95D1F70895CF92DF92EF92FF92CF9327
:10500000DF936B017C010E94D827EB01C114D1040E
:10501000E104F10489F00E94852D0E94D8276C1BC1
:105020007D0B683E734090F381E0C81AD108E10817
:10503000F108C851DC4FEACFDF91CF91FF90EF909C
:10504000DF90CF9008958230910538F0880F991F36
:10505000880F991F05970197F1F70895789484B503
:10506000826084BD84B5816084BD85B5826085BD64
:1050700085B5816085BDEEE6F0E08081816080834A
:10508000E1E8F0E01082808182608083808181602D
:105090008083E0E8F0E0808181608083E1EBF0E0F4
:1050A000808184608083E0EBF0E080818160808398
:1050B000EAE7F0E080818460808380818260808381
:1050C0008081816080838081806880831092C100AC
:1050D00008958E3008F08E5087702091280190E45A
:1050E000299F90011124822B80937C0080917A006B
:1050F000806480937A0080917A0086FDFCCF809155
:1051000078002091790090E0922B08951F93CF931F
:10511000DF93182FEB0161E00E940E29209711F414
:1051200060E004C0CF3FD10539F461E0812FDF9109
:10513000CF911F910C944729E12FF0E0EA52FC4FE8
:10514000E491E330F9F048F4E130B9F0E230A1F550
:1051500084B5806284BDC8BD34C0E730E9F0E83072
:1051600019F1E43049F580918000806280938000DD
:10517000D0938B00C0938A0024C084B5806884BD1E
:10518000C7BD1FC080918000806880938000D0934D
:105190008900C093880015C08091B000806880931A
:1051A000B000C093B3000DC08091B00080628093C6
:1051B000B000C093B40005C0C038D1050CF0B5CF25
:1051C000AFCFDF91CF911F910895833081F028F404
:1051D000813099F08230A1F008958730A9F08830AD
:1051E000B9F08430D1F4809180008F7D03C080912C
:1051F00080008F7780938000089584B58F7702C0F8
:1052000084B58F7D84BD08958091B0008F7703C0F1
:105210008091B0008F7D8093B0000895CF93DF938D
:1052200090E0FC01E651FC4F2491FC01E250FC4F60
:105230008491882349F190E0880F991FFC01EA5D71
:10524000FB4FA591B491845E9B4FFC01C591D49115
:105250009FB7611108C0F8948C91209582238C939C
:10526000888182230AC0623051F4F8948C91322FE5
:10527000309583238C938881822B888304C0F89493
:105280008C91822B8C939FBFDF91CF9108950F93C8
:105290001F93CF93DF931F92CDB7DEB7282F30E057
:1052A000F901EA52FC4F8491F901E651FC4F149147
:1052B000F901E250FC4F04910023C9F0882321F04A
:1052C00069830E94E5286981E02FF0E0EE0FFF1F5F
:1052D000E45EFB4FA591B4919FB7F8948C91611156
:1052E00003C01095812301C0812B8C939FBF0F9029
:1052F000DF91CF911F910F910895CF93DF93282FC6
:1053000030E0F901EA52FC4F8491F901E651FC4F7B
:10531000D491F901E250FC4FC491CC2391F081115A
:105320000E94E528EC2FF0E0EE0FFF1FEE5EFB4F32
:10533000A591B4912C912D2381E090E021F480E09F
:1053400002C080E090E0DF91CF9108950F931F930A
:10535000762F90E0FC01E651FC4F6491FC01E25095
:10536000FC4FE4917111762FF0E0EE0FFF1FEE5E1F
:10537000FB4F8591949189019A013F70472F0E94BC
:105380004802611571058105910531F06F5F7F4F0E
:105390008F4F9F4F9F7003C060E070E0CB011F9163
:1053A0000F910895FC01818D228D90E0805C9F4FCC
:1053B000821B91098F7399270895FC01918D828D2D
:1053C000981731F0828DE80FF11D858D90E00895DA
:1053D0008FEF9FEF0895FC01918D828D981761F0FA
:1053E000828DDF01A80FB11D5D968C91928D9F5F1C
:1053F0009F73928F90E008958FEF9FEF08958FE64F
:105400009BE2892B49F080E090E0892B29F00E94F3
:105410006F2B81110C9400000895FC01848DDF0135
:10542000A80FB11DA35ABF4F2C91848D90E0019617
:105430008F739927848FA689B7892C93A089B18906
:105440008C9180648C93938D848D981306C0028810
:10545000F389E02D80818F7D80830895CF93DF9342
:10546000EC01888D8823C9F0EA89FB89808185FD5C
:1054700005C0A889B9898C9186FD0FC00FB607FCBD
:10548000F5CF808185FFF2CFA889B9898C9185FFFE
:10549000EDCFCE010E940D2AE7CFDF91CF91089585
:1054A000CF92DF92FF920F931F93CF93DF931F92C0
:1054B000CDB7DEB76C0181E0D60158968C93589732
:1054C0005B969C915B975C968C915C97981307C058
:1054D0005096ED91FC915197808185FD2EC0F6018B
:1054E000038D10E00F5F1F4F0F731127F02EF60191
:1054F000848DF81211C00FB607FCF9CFD601509673
:10550000ED91FC915197808185FFF1CFC6016983B0
:105510000E940D2A6981EBCF838DE80FF11DE35ABC
:10552000FF4F6083D6015B960C935B975296ED918B
:10553000FC915397808180620CC0D6015696ED9104
:10554000FC91579760835096ED91FC915197808123
:105550008064808381E090E00F90DF91CF911F9174
:105560000F91FF90DF90CF900895BF92CF92DF927E
:10557000EF92FF92CF93DF93EC016A017B01B22E91
:10558000E889F98982E08083411581EE5807610539
:105590007105A1F060E079E08DE390E0A70196014C
:1055A0000E943D32215031094109510956954795D4
:1055B00037952795211580E1380798F0E889F98912
:1055C000108260E874E88EE190E0A70196010E94E5
:1055D0003D3221503109410951095695479537957A
:1055E0002795EC85FD853083EE85FF852083188E19
:1055F000EC89FD89B082EA89FB89808180618083A2
:10560000EA89FB89808188608083EA89FB898081BF
:1056100080688083EA89FB8980818F7D8083DF9128
:10562000CF91FF90EF90DF90CF90BF9008951F92A1
:105630000F920FB60F9211242F938F939F93EF9396
:10564000FF93E091FF05F09100068081E09105064F
:10565000F091060682FD12C09081809108068F5F4E
:105660008F7320910906821751F0E0910806F0E04F
:10567000E151FA4F958F8093080601C08081FF9118
:10568000EF919F918F912F910F900FBE0F901F90D0
:1056900018951F920F920FB60F9211242F933F93DC
:1056A0004F935F936F937F938F939F93AF93BF932A
:1056B000EF93FF938FEE95E00E940D2AFF91EF91FB
:1056C000BF91AF919F918F917F916F915F914F911A
:1056D0003F912F910F900FBE0F901F9018958FEE56
:1056E00095E00E94D22921E0892B09F420E0822F45
:1056F00008951092F2051092F10588EE93E0A0E073
:10570000B0E08093F3059093F405A093F505B09372
:10571000F60585E791E09093F0058093EF0585EC21
:1057200090E09093FC058093FB0584EC90E09093CF
:10573000FE058093FD0580EC90E090930006809339
:10574000FF0581EC90E0909302068093010682ECC5
:1057500090E0909304068093030686EC90E090938B
:10576000060680930506109208061092090610920C
:105770000A0610920B06089508950E942E280E9492
:10578000BC2B0E949102CFEFD9E20E94E50920973D
:10579000E1F30E94FF29F9CFCF92DF92EF92FF92BF
:1057A0000F931F93CF93DF936C017A01EB01E60E09
:1057B000F71E00E010E0CE15DF0561F06991D6011B
:1057C000ED91FC910190F081E02DC6010995080F43
:1057D000191FF1CFC801DF91CF911F910F91FF9059
:1057E000EF90DF90CF9008956115710581F0DB0196
:1057F0000D900020E9F7AD0141505109461B570BB0
:10580000DC01ED91FC910280F381E02D099480E0B0
:1058100090E00895DC01ED91FC91DB0114964D912F
:105820005C9115976D917C910280F381E02D099434
:105830000C94F42B61E871E00C94F42B0F931F93FC
:10584000CF93DF93EC010E940A2C8C01CE010E94C1
:105850001A2C800F911FDF91CF911F910F91089506
:105860004F925F926F927F92AF92BF92CF92DF92F0
:10587000EF92FF920F931F93CF93DF93CDB7DEB7D5
:1058800029013A01621B730B840B950B29893A8914
:105890004B895C892A193B094C095D09298B3A8B94
:1058A0004B8B5C8B9B01AC0169897A898B899C89C4
:1058B0000E94F931E418F50806091709A8019701B3
:1058C0000E945F322A0D3B1D4C1D5D1DCA01B901AE
:1058D000DF91CF911F910F91FF90EF90DF90CF90CC
:1058E000BF90AF907F906F905F904F900895FC01B4
:1058F000808191810C943633CF93DF93EC018881C2
:105900009981009711F00E943633198218821D8206
:105910001C821B821A82DF91CF9108950F931F93EF
:10592000CF93DF93EC018B016F5F7F4F888199816B
:105930000E94C533009731F0998388831B830A83C3
:1059400081E001C080E0DF91CF911F910F91089518
:10595000CF93DF93EC0188819981892B29F08A818B
:105960009B818617970760F4CE010E948E2C8823B6
:1059700041F08C819D81892B19F4E881F981108295
:1059800081E0DF91CF910895EF92FF920F931F93E3
:10599000CF93DF93EC017B018A01BA010E94A82C0E
:1059A000811104C0CE010E947C2C07C01D830C8392
:1059B000B701888199810E949834CE01DF91CF91FF
:1059C0001F910F91FF90EF900895FC0111821082BA
:1059D00013821282158214826115710559F0FB0140
:1059E00001900020E9F7AF0141505109461B570BC8
:1059F0000C94C42C0895CF93DF93EC01FB01861720
:105A0000970761F0608171816115710529F044810A
:105A100055810E94C42C02C00E947C2CCE01DF91D3
:105A2000CF910895FC011182108213821282158297
:105A300014820C94FB2CCF93DF93EC01611571055C
:105A400061F0FB0101900020E9F7AF0141505109DD
:105A5000461B570B0E94C42C02C00E947C2CCE0116
:105A6000DF91CF910895EF92FF920F931F93CF9301
:105A7000DF93EC017B010C811D816115710511F42F
:105A800080E016C04115510591F0040F151FB801B3
:105A90000E94A82C8823A1F3288139818C819D81C3
:105AA000B701820F931F0E9498341D830C8381E0FD
:105AB000DF91CF911F910F91FF90EF900895CF93B9
:105AC000DF9300D0CDB7DEB769831A8241E050E0A2
:105AD000BE016F5F7F4F0E94332D0F900F90DF91BB
