:100000000C94D4010C94FC010C94FC010C94FC01A4
:100010000C94FC010C94FC010C94FC010C947B19D5
:100020000C94FC010C94FC010C94FC010C94B90A96
:100030000C94FC010C94FC010C94FC010C94FC014C
:100040000C9468230C94FC010C94FD260C942F272F
:100050000C94FC010C94FC010C94FC010C94FC012C
:100060000C945A0E0C94FC013209320746076007C3
:1000700060077507770960077709770977097709B6
:100080007709A907C507000877091408F507770954
:10009000770945087709C408E3080609A008770925
:1000A00077097709410949097709770977098308A9
:1000B0007709770977097709770977097709770940
:1000C0007709770977097709770977095E09084A77
:1000D000D73B3BCE016E84BCBFFDC12F3D6C74315C
:1000E0009ABD56833DDA3D00C77F11BED9E4BB4CB3
:1000F0003E916BAAAABE000000803F003F065B4F06
:10010000666D7D077F6F777C395E7971BF86DBCF47
:10011000E6EDFD87FFEFF7FCB9DEF9F100407C4426
:100120007C00007C5C547454547C70107C74545C6F
:100130007C545C40407C7C547C74547C20000000E7
:1001400000000030007C82827C00310042FE020010
:10015000003200468A92620033004492926C00346E
:10016000001C64FE04003500F292928C0036007C84
:1001700092924C003700C08E90E00038006C929252
:100180006C0039006492927C006100042A2A1E00EF
:100190006200FE12120C0063000C121212006400C6
:1001A0000C1212FE0065001C2A2A18006600103E80
:1001B00050500067000815151E006800FE101E0054
:1001C000006900002E0000006A0002012E00006B92
:1001D00000FE081412006C0000FE0200006D001EFC
:1001E000100E100E6E001E10100E006F000C12127A
:1001F0000C0070001F12120C0071000C12121F0074
:1002000072001E08101000730012292512007400DD
:10021000103E12000075001C02021E007618040237
:100220000418007718061C0618007800120C0C122F
:100230000079001805051E007A0012161A120041F6
:10024000007E88887E004200FE92926C0043007C13
:10025000828244004400FE82827C004500FE92922D
:1002600082004600FE9090800047007C82925C00F5
:100270004800FE1010FE00490082FE8200004A0085
:100280000C0202FC004B00FE1028C6004C00FE02CF
:100290000202004D00FE403040FE4E00FE4030089D
:1002A000FE4F007C8282827C5000FE909060005164
:1002B000007C828A847A5200FE9894620053006423
:1002C00092924C00540080FE8080005500FC020297
:1002D000FC005600F00C020CF05700FE043804FE3F
:1002E0005800C63838C60059C0201E20C0005A0029
:1002F000869AB2C2002C00010E0C00002E000006EF
:10030000060000257254781E2A4E2100007A000053
:10031000003F00204A3000002D0010101010002B6C
:1003200008083E0808002F00020C3040002A221462
:10033000081422003A0000140000004000000000F1
:100340000000000000080002010000030407000094
:10035000000000000000010204081020408001029B
:1003600004081020010204081020040404040404FA
:100370000404020202020202030303030303000057
:1003800000002300260029000000000025002800AE
:100390002B0000000000240027002A00DB05780D58
:1003A00032185F272B06361811241FBECFEFD8E076
:1003B000DEBFCDBF12E0A0E0B1E0ECECF1E602C0A0
:1003C00005900D92A23AB107D9F727E0A2EAB2E070
:1003D00001C01D92AF36B207E1F713E0C4EAD3E0E3
:1003E00004C02297FE010E94402ECC39D107C9F7E4
:1003F0000E94A3270C94D9300C940000CF92DF9276
:10040000EF92FF920F931F93E82FF92F05C0015031
:1004100011092109310961F1908196239417B9F3EB
:1004200005C0015011092109310911F1908196236C
:100430009413F7CFC12CD12CE12CF12C0AC08FEFF3
:10044000C81AD80AE80AF80A0C151D052E053F053A
:1004500079F080818623841791F36C2D7D2D8E2D6C
:100460009F2D1F910F91FF90EF90DF90CF900895F7
:1004700060E070E080E090E01F910F91FF90EF90BE
:10048000DF90CF90089588EC93E00C94251261E002
:100490008DE00E94F42461E08DE00E942D256CE245
:1004A00071E080E090E00E94E12360E08DE00E9436
:1004B0002D2526E040E052EC61E070E088EC96E00B
:1004C0000E949B2664EF71E080E090E00E94E123AF
:1004D00022E330E040E050E064EF71E088EC93E02C
:1004E0000E94CD1162E370E080E090E00E94E12381
:1004F0000E94430288EA93E00E94FF196DE08FE0BA
:1005000094E00E94712120E040E060E08FE094E000
:100510000E943F228FE094E00C946C2220915D03B6
:10052000FC01222319F0EB50FD4F02C0E75DFC4FA8
:100530008081089520915D03FC01222319F0EB5086
:10054000FD4F02C0E75DFC4F6083089588EC96E0A4
:100550000C94F927CF93DF93EC010E948E028093D5
:100560006503CE0101960E948E02809366038091FE
:10057000650390916603DF91CF9108950F931F93C8
:10058000CF93DF93EC010E948E020FE613E0F80197
:100590008083CE0101960E948E0280937003CE016B
:1005A00002960E948E0280937103CE0103960E94F0
:1005B0008E0280937203F801608171818281938140
:1005C000DF91CF911F910F910895EF92FF920F93BA
:1005D0001F93CF93DF938B01C2EBD2E0825B9240FB
:1005E0007C01CE01825B9240801791073CF4C701E9
:1005F0008C0F9D1F0E948E028993F3CFF801EE5459
:10060000FD4F108282EB92E0DF91CF911F910F910D
:10061000FF90EF900895CF92DF92EF92FF920F93A9
:100620001F93CF93DF937B0102EA12E0C0E0D0E09A
:10063000825A92406C01CE15DF056CF4C031D105B1
:1006400051F0C601800F911F0E948E02F801819324
:100650008F012196F0CF82EA92E0DF91CF911F9136
:100660000F91FF90EF90DF90CF900895E1EEF2E0D0
:1006700020E030E0419151914817590791F0452B06
:1006800041F4F901EE0FFF1FEF51FD4F918380837D
:1006900008C02F5F3F4F2830310561F780E090E0C0
:1006A0000895C9010895BF92CF92DF92EF92FF9211
:1006B0000F931F93CF93DF93CDB7DEB72E970FB66F
:1006C000F894DEBF0FBECDBF8C0186E090E00E94A3
:1006D0008E02D82EE82EF12C0D30110509F499C1A7
:1006E0006CF50830110509F460C0F4F4033011050D
:1006F00009F478C10530110509F04DC286E090E09B
:100700000E94AA028C0169E08EE294E00E941D2101
:10071000B8018EE294E00E94091888E090E00E94FF
:10072000AA028C016AE037C00A30110531F10CF4DD
:1007300087C00B30110509F469C02DC201321105C3
:1007400009F4FBC16CF40E31110509F4C1C100328A
:10075000110509F4C9C10431110509F01CC290C189
:100760000932110509F485C00233110509F401C2EB
:100770000232110509F00FC2C4C187E090E00E9467
:10078000AA028C018EE294E00E94C92090E08E15AE
:100790009F0529F06D2D8EE294E00E941D21B80185
:1007A0008EE294E00E940918F6C187E090E00E9472
:1007B0008E02F82E88E090E00E948E02182F89E0C9
:1007C00090E00E948E02482F8AE090E04E870E94BF
:1007D0008E02082F6D2D8FE094E00E9446214E85F9
:1007E000FF2049F06FEF6F0D242F412F8FE094E031
:1007F0000E94EE2106C0202F612F8FE094E00E941E
:100800003F228FE094E00E946C22C5C187E090E017
:100810000E948E029701220F331FF901E65EFE4F00
:10082000813011F4E08001C0E18088E090E00E9416
:100830008E02D82E84EB8D1508F4ADC1F12C85C144
:1008400081E094E00E94C92090E08E159F0529F078
:100850006D2D81E094E00E94881087E090E00E9476
:10086000BE02AB01BC0121E081E094E00E94A31034
:1008700092C18CEC93E00E94C920282F30E02E1505
:100880003F0529F06D2D8CEC93E00E94321C87E02F
:1008900090E00E948E0290E081309105C1F588E0E1
:1008A00090E00E948E02D82E89E090E00E948E0295
:1008B000B82E8AE090E00E94AA028C018CE090E0C1
:1008C0000E94AA02C82E8EE090E00E948E02682F3D
:1008D00070E08FE090E00E94E5027C018CEC93E0F8
:1008E0000E94111C61E0B11001C060E08CEC93E04B
:1008F0000E945B1C6D2D8CEC93E00E94271C9701DD
:100900004C2DB8018CEC93E00E94551E44C18230FE
:100910009105B9F588E090E00E948E02E82E89E00A
:1009200090E00E948E02282F8AE090E02D870E949E
:10093000AA02F82E8CE090E00E94AA02482F8EE0D6
:1009400090E04E870E948E02682F70E08FE090E06A
:100950000E940B038C018CEC93E00E94111C61E05F
:100960008CEC93E00E945B1C6E2D8CEC93E00E945B
:10097000271C2D854E856F2D8CEC93E00E945E1C0C
:100980000AC1039709F007C188E090E00E948E0237
:10099000F82E89E090E00E948E02082F8AE090E015
:1009A0000E94AA02182F8CE090E00E94AA02482F11
:1009B0008CEC93E04E870E94111C61E08CEC93E07C
:1009C0000E945B1C6F2D8CEC93E00E94271C21E0A1
:1009D0004E85011101C020E0612F8CEC93E00E9454
:1009E000901ED9C08DEF93E00E94C920282F30E0DF
:1009F0002E153F0529F06D2D8DEF93E00E941D21EE
:100A000087E090E00E948E0261E0811152C060E0B8
:100A100050C082E090E00E948E02E82EF12C83E02C
:100A2000E81AF10865E972E0CE0107960E94682A8B
:100A300000E010E00E151F0564F4C80106960E9440
:100A40008E02682FCE0107960E94E22A0F5F1F4F89
:100A5000F1CFBE01695F7F4FCE0101960E94952ABA
:100A6000BE016F5F7F4F88EA93E00E94411BCE0179
:100A700001960E94FA29CE0107960E94FA298BC09E
:100A80008DEF93E00E94C920282F30E02E153F05FE
:100A900029F06D2D8DEF93E00E941D2187E090E0FD
:100AA0000E948E02282F30E0223031053CF4682F5E
:100AB00061708DEF93E00E94F1206DC061E0223003
:100AC000310509F460E08DEF93E00E94012163C0DD
:100AD00061E00E94F42487E090E00E948E02682F7B
:100AE0008D2D0E942D2557C061E00E94F42487E0DF
:100AF00090E00E948E02682F70E08D2D0E946C2481
:100B00004AC086E090E00E94AA028C0188E090E052
:100B10000E94AA02101611065CF49C01442737FDBE
:100B20004095542FB80188EC93E00E94CD1133C05A
:100B300088EC93E00E9425122EC087E090E00E948E
:100B40008E02D82E84EB8D1530F1C7010E9436033A
:100B50008C01000F111F080F191F0E5C1B4FB701EE
:100B6000C8010E940F0C6D2D70E0C8010E94480C56
:100B700012C00E94B2230E946D2C20E030E04AE7B0
:100B800054E40E94D42B6093D0027093D1028093DE
:100B9000D2029093D3022E960FB6F894DEBF0FBE0A
:100BA000CDBFDF91CF911F910F91FF90EF90DF901C
:100BB000CF90BF900895CF93DF93C2E3D4E0CE01EE
:100BC0000E94750B239684E0CA34D807C1F78EE2E1
:100BD00094E00E9406188CE194E00E948C2244E08C
:100BE00060E08FE094E00E94BC218BE094E00E94E2
:100BF000182381E094E00E94870F8DEF93E00E941C
:100C0000A4208CEC93E00E94DC1B88EC93E00E9413
:100C1000C71188EA93E00E94121A81E893E00E94CB
:100C20002A128BE793E00E94981887E793E00E94CE
:100C30003A1883E793E00E94541861E371E08FE56E
:100C400093E00E94682A65E972E084ED92E0DF910A
:100C5000CF910C94682A84ED92E00E94FA298FE5E6
:100C600093E00E94FA2989EB93E00E94FA298FE031
:100C700094E00C948022682F88EC96E00C94362641
:100C80008FEF0E943B0685E50C943B068FEF0E9498
:100C90003B0685E50E943B060C94A602CF93C82F25
:100CA00081E00E943B068C2FCF910C943B06EF9283
:100CB000FF920F931F93CF93DF937C01FC01C481BC
:100CC0000C2F158184E00E943B068C2F0E943B066E
:100CD000C0E0D0E0C017D10744F4BE01C7010E94B4
:100CE000062B0E943B062196F5CFDF91CF911F91F5
:100CF0000F91FF90EF900895FF920F931F93CF9362
:100D0000DF931F92CDB7DEB78B01F82E82E0998377
:100D10000E943B06A8016F2D9981792F40936F03A4
:100D2000509370036093710370937203802F0E943D
:100D30003B06809170030E943B06809171030E94E4
:100D40003B06809172030F90DF91CF911F910F911D
:100D5000FF900C943B06CF92DF92EF92FF926B01D3
:100D60007C0183E00E943B06C701B6010E943C2C37
:100D7000862F262F372F30936603209365030E941A
:100D80003B06809166030E943B06809167030E94A8
:100D90003B0680916803FF90EF90DF90CF900C941A
:100DA0003B06FF920F931F93CF93DF931F92CDB714
:100DB000DEB78B01F82E85E099830E943B06A801DF
:100DC0006F2D9981792F4093670350936803609347
:100DD000690370936A03802F0E943B068091680329
:100DE0000E943B06809169030E943B0680916A0342
:100DF0000E943B0680916B030E943B0680916C032E
:100E00000E943B0680916D030E943B0680916E0319
:100E10000F90DF91CF911F910F91FF900C943B06A3
:100E2000CF92DF92EF92FF920F931F93CF93DF93B6
:100E3000CDB7DEB727970FB6F894DEBF0FBECDBF94
:100E40007C0186E090E00E948E02D82E082F10E0F0
:100E500083E3E816F10408F04AC2F701EC5CFF4FA7
:100E60000C943E2E8BE094E00E94C92090E0801705
:100E7000910729F06D2D8BE094E00E941D2160E523
:100E800073EC8BE094E00E94532320C287E090E053
:100E90000E948E02F82E8CE194E00E94C920282F37
:100EA00030E02017310709F014C28CE194E00E9471
:100EB000CC208F110EC28CE194E00E94AA2206C2BF
:100EC0008DEF93E00E94C92090E080179107E1F137
:100ED0006D2D8DEF93E00E941D218DEF93E00E9418
:100EE000432160E00E94F4242FC087E090E00E943C
:100EF0008E02E82EF12C8DEF93E00E94C92090E045
:100F00008017910799F06D2D8DEF93E00E941D21C0
:100F10008DEF93E00E94402160E00E94F4248DEF69
:100F200093E00E94432160E00E94F42481E0E816EF
:100F3000F10429F48DEF93E00E941121B7C182E002
:100F4000E816F10409F0D3C18DEF93E00E9415215A
:100F5000ADC18091DA02882309F4C9C164ED72E061
:100F6000CE0101960E94952ACE0101960E94570655
:100F7000CE0101960E94FA291092DA0265E972E028
:100F800084ED92E00E949E2AB2C187E090E00E9428
:100F90008E02182F0E94B2230E946D2C20E030E0B8
:100FA0004AE754E40E94D42B2091C8023091C90230
:100FB0004091CA025091CB020E94092B2DEC3CECCF
:100FC0004CE45EE30E94442D18165CF04091DB0275
:100FD000552747FD5095212F30E081E042175307F8
:100FE00009F080E00E944E0606C08091DB020E945C
:100FF0004E061092DB021092DD021092DC0277C1E5
:101000008DEF93E00E94C92090E08017910709F4CA
:101010006EC06D2D8DEF93E00E941D218DEF93E04A
:101020000E94432160E061C08DEF93E00E94C920DF
:1010300090E08017910799F06D2D8DEF93E00E945D
:101040001D218DEF93E00E94402160E00E94F42476
:101050008DEF93E00E94432160E00E94F42460E061
:101060008DEF93E00E94CF20182F60E08DEF93E08A
:101070000E94E020612F70E0660F771F680F711DDE
:10108000882777FD8095982F16C187E090E00E9411
:101090008E02C82EE82EF12C8DEF93E00E94C9201D
:1010A000282F30E02017310709F01AC18DEF93E0A7
:1010B0000E94CC20282F30E02E153F0509F010C1EA
:1010C000EA94EF2869F48DEF93E00E94402162E0FA
:1010D0000E94F42460E08DEF93E00E94CF200CC0CA
:1010E0008DEF93E00E94432162E00E94F42460E0CF
:1010F0008DEF93E00E94E020682F70E080E090E0A8
:101100000E946D2CE3C087E090E00E948E02F82ED2
:10111000F801EE0FFF1FE65FFE4F108160E0812FA8
:101120000E94F424812F0E944F2411E00B970CF0B1
:1011300010E0812F8F250E944E061093C702D7C062
:1011400081E893E00E94C92090E080179107A9F000
:101150006D2D81E893E00E941D2181E893E00E94BB
:101160004321482F81E893E04F830E9440214F8123
:10117000682F81E893E00E94EB1681E893E00E94DB
:10118000F4160E94D106B3C087E090E00E948E0260
:10119000F82E8BE793E00E94C920282F30E020171B
:1011A000310729F06D2D8BE793E00E941D218BE71D
:1011B00093E00E949B186F2D8BE793E00E947419B7
:1011C0000E944E0694C087E793E00E94C920282F12
:1011D00030E020173107A9F06D2D87E793E00E94DA
:1011E0001D2187E793E00E944021482F87E793E085
:1011F0004F830E9443214F81682F87E793E00E942D
:101200003D1887E793E00E94521822C083E793E0DD
:101210000E94C920282F30E020173107A9F06D2D3A
:1012200083E793E00E941D2183E793E00E94402121
:10123000482F83E793E04F830E9443214F81682F1B
:1012400083E793E00E94571883E793E00E946C18AD
:10125000BC01882777FD8095982F0E946F2C0E94F3
:10126000AB0645C06FE573E0CE0101960E94952A5A
:10127000CE0101960E945706CE0101960E94FA29DE
:1012800036C060E08D2D0E94F4248D2D0E946325D0
:101290000DC0F801EE0FFF1FE65FFE4F108160E00A
:1012A000812F0E94F424812F0E944F24BC018827A3
:1012B00077FD8095982F0E946F2C08C06091CC021A
:1012C0007091CD028091CE029091CF020E947C0657
:1012D0000EC04F2D6D2D8CE194E00E949722EBCD36
:1012E0004C2D6D2D8DEF93E00E942D21E9CE279698
:1012F0000FB6F894DEBF0FBECDBFDF91CF911F9127
:101300000F91FF90EF90DF90CF9008950F931F9370
:10131000CF93DF931092F20283E090E00E948E025E
:10132000082F84E090E00E948E02182F85E090E064
:101330000E948E02C82FD0E01230B1F080F411303C
:10134000A9F50E944006802F0E943B06CE010E9414
:101350001007DF91CF911F910F910C94A6021430CA
:1013600039F01530E9F022C0CE010E94530318C0B5
:1013700069E08EE294E00E941D2160E070E08EE260
:1013800094E00E9409186AE08EE294E00E941D2118
:1013900060E070E08EE294E00E9409180E9443022F
:1013A000DF91CF911F910F910C944606DF91CF9161
:1013B0001F910F91089510925E0388EC96E00E94B1
:1013C000B825181619065CF481E080935E0310922C
:1013D0005D0388EC96E00E94D1258093F102089588
:1013E0000E94B2230E946D2C20E030E04AE754E4D2
:1013F0000E94D42B2091D0023091D1024091D20290
:101400005091D3020E94092B6093CC027093CD02BD
:101410008093CE029093CF0288EA93E00E94A21AB2
:10142000892B09F443C08091AB038093DB020E94B7
:10143000B2230E946D2C20E030E04AE754E40E9481
:10144000D42B6093C8027093C9028093CA02909310
:10145000CB0281E08093C6026091DB026A3011F01A
:101460006D3041F41092DD021092DC0281E0809335
:10147000DA022EC084ED92E00E94E22A8091DC0222
:101480009091DD020196813491052CF49093DD0258
:101490008093DC021DC01092DD021092DC0265E92F
:1014A00072E084ED92E00E949E2A12C08091DE02DA
:1014B0009091DF0201969093DF028093DE022091EB
:1014C000DB0212164CF48938934134F01092DB029F
:1014D0001092DF021092DE020E94DB0980915E030F
:1014E000882309F445C06091F1028091F2026535CC
:1014F00061F481110AC08091E0028F3FD9F481E04C
:101500008093F4028093F20215C06093E002882376
:1015100089F08091F402823019F46093F30207C0DD
:10152000833028F09091F30291509093F30290E071
:101530000E949A028091F4028F5F843318F48093A2
:10154000F40204C01092F4021092F2028091F202AE
:10155000882371F08091F30281110AC08091F40216
:10156000843030F01092F2020E9486091092F40248
:1015700008951F920F920FB60F9211242F933F934D
:101580004F935F936F937F938F939F93AF93BF938B
:10159000EF93FF9380914B0487FF05C01092850065
:1015A000109284001AC020914B04332727FD3095F8
:1015B00080914A0490E0281739077CF480914B040D
:1015C000992787FD9095FC01EE0FFF1FE80FF91F8B
:1015D000E45BFB4F808186FD15C080914B048F5FDB
:1015E00080934B0420914B04332727FD3095809145
:1015F0004A0490E028173907BCF480914B048C30E2
:101600005CF112C080914B04992787FD9095FC01F5
:10161000EE0FFF1FE80FF91FE45BFB4F808160E0D6
:101620008F730E942D25D9CF8091840090918500E1
:10163000049680349C4918F480E49CE905C08091AC
:10164000840090918500049690938900809388008F
:101650008FEF80934B0438C0209184003091850037
:1016600080914B04992787FD9095FC01EE0FFF1F99
:10167000E80FF91FE45BFB4F81819281820F931F7A
:10168000909389008093880080914B04992787FD6F
:101690009095FC01EE0FFF1FE80FF91FE45BFB4F75
:1016A000808186FF11C080914B04992787FD90951A
:1016B000FC01EE0FFF1FE80FF91FE45BFB4F808179
:1016C00061E08F730E942D25FF91EF91BF91AF9143
:1016D0009F918F917F916F915F914F913F912F914A
:1016E0000F900FBE0F901F90189520914A042C3038
:1016F000A0F431E0320F30934A04FC012083822FA2
:1017000090E0FC01EE0FFF1FE80FF91FE45BFB4FB9
:1017100088EB9BE09283818308952FEFFC01208367
:101720000895DF92EF92FF920F931F93CF93DF9371
:10173000EC01D62E7A01890188818C3008F066C0D0
:1017400061E08D2D0E94F4248881A82FB0E0FD0176
:10175000EE0FFF1FEA0FFB1FE45BFB4F2D2D2F73D6
:101760009081907C922B908360E272E06E197F09E9
:1017700077FF02C06D5F7F4F75956795759567958B
:10178000698340E659E0401B510B57FF02C04D5F93
:101790005F4F55954795559547954A836CE00E9454
:1017A000C92D9CE0899FB001112420E030E0A901FF
:1017B000460F571FFA01EE0FFF1FE40FF51FE45B02
:1017C000FB4F908196FD16C02F5F3F4F2C303105A7
:1017D00071F781110FC01092800082E08093810028
:1017E0001092850010928400B19A80916F008260FF
:1017F00080936F00888190E0FC01EE0FFF1FE80FDF
:10180000F91FE45BFB4F8081806480838881DF91D6
:10181000CF911F910F91FF90EF90DF90089520E6F8
:1018200039E040E252E00C94910BFC0180818C3055
:1018300070F5918128E830E0291B310997FD339537
:10184000220F331F220F331F621773077CF0928120
:1018500028E532E0291B310997FD3395220F331F0C
:10186000220F331F621773070CF49B0122503109BA
:10187000220F331F4FB7F89490E0FC01EE0FFF1FCB
:10188000E80FF91FE45BFB4F328321834FBF0895BC
:101890004F925F926F927F92AF92BF92CF92DF9200
:1018A000EF92FF920F931F93CF93DF93EC0160327F
:1018B00082E078070CF040C077FD06C0653B7105FB
:1018C0002CF064EB70E002C060E070E0898128E8F1
:1018D00030E0281B310987FD3395220F331F220F7B
:1018E000331F5901CC24B7FCC094DC2C882777FD2A
:1018F0008095982F2A8148E552E0421B510927FD27
:101900005395440F551F440F551F2A01662457FC59
:101910006094762C7F926F925F924F9214EBE12E3F
:10192000F12C00E010E020E030E0A9010E94B32992
:101930000F900F900F900F90CE01DF91CF911F91DC
:101940000F91FF90EF90DF90CF90BF90AF907F907E
:101950006F905F904F900C94150C8091A00490E0D4
:101960002091A104821B910908952091A1048091E6
:10197000A004281750F4E22FF0E0EE55FB4F8081D1
:1019800090E02F5F2093A10408958FEF9FEF0895BB
:10199000E091A1048091A004E81730F4F0E0EE5546
:1019A000FB4F808190E008958FEF9FEF0895089599
:1019B000CF92DF92EF92FF920F931F93CF93DF931B
:1019C0007C01CB018A0120917C04222389F0EB0168
:1019D0006B01C40ED51ECC15DD0569F06991D701E8
:1019E000ED91FC910190F081E02DC7010995F3CFB5
:1019F000642F0E94310EC801DF91CF911F910F918A
:101A0000FF90EF90DF90CF900895CF93DF931F92D8
:101A1000CDB7DEB7698320917C042223D1F02091D9
:101A20007D04203240F021E030E0FC01338322834A
:101A300080E090E015C080917E04E82FF0E0E1584E
:101A4000FB4F998190838F5F80937E0480937D0408
:101A500005C061E0CE0101960E94310E81E090E068
:101A60000F90DF91CF910895FC011382128248EE0E
:101A700053E060E070E044835583668377838DE3B1
:101A800091E09183808308951092A1041092A004A4
:101A900010927E0410927D040C947C0D862F4132AE
:101AA00008F040E262EA74E00E949A0D1092A104EC
:101AB0008093A004089581E080937C0460939F0448
:101AC00010927E0410927D0408950F93062F21E05A
:101AD00040917D046FE774E080919F040E94DE0DC9
:101AE00010927E0410927D0410927C040F91089550
:101AF00080E794E00C94340D10922F0581E08093E0
:101B00002D0510922C0561E082E10E942D2561E0F7
:101B100083E10E942D25E9EBF0E080818E7F8083B8
:101B200080818D7F808388E48093B80085E48093F2
:101B3000BC000895413208F03FC090912F059111EB
:101B4000FCCF91E090932F0520932D052FEF20934C
:101B5000C20410920705240F2093060590932E05CA
:101B600090912E05880F892B80932E0580912C054E
:101B7000813041F410922C0580912E058093BB009A
:101B800085EC01C085EE8093BC0080912F058130EB
:101B9000E1F380910705841710F44091070528E0D0
:101BA00035E0FB01D9018A2F821B841718F48D912F
:101BB0008193F9CF842F089580E008950F934132E7
:101BC00008F046C090912F059111FCCF92E09093C0
:101BD0002F0500932D059FEF9093C20410920705E7
:101BE00040930605FB0168E075E0DB019A2F961B28
:101BF000941718F491919D93F9CF10922E0590911E
:101C00002E05880F892B80932E0580912C0581301D
:101C100041F410922C0580912E058093BB0085EC39
:101C200001C085EE8093BC00222321F080912F0516
:101C30008230E1F38091C2048F3F61F08091C20451
:101C4000803251F08091C204803341F483E007C0B8
:101C500081E005C080E003C082E001C084E00F9114
:101C60000895613298F420912F05243089F460930F
:101C7000E404FC0186EE94E0DC012A2F281B2617E1
:101C800018F421912D93F9CF80E0089581E0089513
:101C900082E0089585ED8093BC008091BC0084FDB6
:101CA000FCCF10922F05089585EC8093BC00109214
:101CB0002F0508951F920F920FB60F9211242F93A4
:101CC0003F934F935F936F937F938F939F93AF93C4
:101CD000BF93EF93FF938091B900887F803609F41A
:101CE0009CC068F5883209F45BC090F4803109F437
:101CF00054C038F4882309F4F5C0883009F44DC085
:101D0000F5C0883109F44CC0803209F45DC0EEC0E2
:101D1000803409F468C048F4803309F455C088332E
:101D200009F0E4C08093C204A8C0803509F44FC014
:101D3000883509F45DC0883409F0D8C0D5C0883929
:101D400009F4C6C0A8F4883709F467C038F48836A7
:101D500009F463C0803709F460C0C8C0883809F44A
:101D6000B7C0803909F45FC0803809F0BFC05BC0DC
:101D7000803B09F485C038F4803A09F466C0883A9B
:101D800009F47EC0B3C0803C09F4A6C0883C09F4C5
:101D9000A3C0883B09F489C0A9C080912E0510C05A
:101DA0009091070580910605981770F5E091070559
:101DB00081E08E0F80930705F0E0E85FFA4F8081A5
:101DC0008093BB0085EC85C08093C2048DC0E091F8
:101DD000070581E08E0F809307058091BB00F0E03E
:101DE000E85FFA4F808390910705809106056DC0EA
:101DF000E091070581E08E0F809307058091BB007D
:101E0000F0E0E85FFA4F808380912D0581116CC06E
:101E100081E080932C0584EA60C083E080932F05E5
:101E20001092C304CFCF8091C304803208F050C019
:101E3000E091C30481E08E0F8093C3048091BB00C6
:101E4000F0E0EC53FB4F8083BDCF8091C304803220
:101E500030F4E091C304F0E0EC53FB4F10820E9499
:101E60004A0E6091C30470E0E0912805F0912905C5
:101E700084EC94E009951092C3040E94540E36C07D
:101E800084E080932F051092E5041092E404E09121
:101E90002A05F0912B0509958091E404811105C074
:101EA00081E08093E4041092E604E091E50481E08F
:101EB0008E0F8093E504F0E0EA51FB4F8081809320
:101EC000BB009091E5048091E404981708F47ACF60
:101ED00085E88093BC000AC085EC8093BC0010921A
:101EE0002F0504C01092C2040E944A0EFF91EF9188
:101EF000BF91AF919F918F917F916F915F914F9122
:101F00003F912F910F900FBE0F901F9018950C943A
:101F1000A4200F931F93CF93DF93EC01062F18E0BB
:101F200060E088850E942D2500FF02C061E001C0AD
:101F300060E089850E942D25069561E088850E94D4
:101F40002D25115069F760E088850E942D2561E0FC
:101F500089850E942D2561E088850E942D2560E0FD
:101F600089850E94F42418EC89850E946325892BB9
:101F700059F01150C9F761E089850E94F42460E0AE
:101F800089850E942D25EFCF61E08985DF91CF9172
:101F90001F910F910C94F424CF93DF93EC0161E037
:101FA00088850E942D2561E089850E942D2560E0AD
:101FB00089850E942D2560E08885DF91CF910C9462
:101FC0002D25CF93DF93EC0160E088850E942D25BD
:101FD00060E089850E942D2561E088850E942D257D
:101FE00061E08985DF91CF910C942D25CF92DF920E
:101FF000FF920F931F93CF93DF931F92CDB7DEB75E
:102000006C01F62E79830E94CC0F60E4C6010E9419
:10201000890FC6010E94E10FC6010E94CC0FF60194
:102020006581C6010E94890F0F2D7981172F84E0E9
:10203000F82EF80161918F01C6010E94890FFA9470
:10204000C1F7C6010E94E10FC6010E94CC0FF60144
:102050006681C6010E94890FC6010F90DF91CF9162
:102060001F910F91FF90DF90CF900C94E10FDB0157
:1020700080E090E22C91223208F09C93EC91F0E009
:10208000E450FF4FE491ED938F5F843099F708950A
:10209000EF92FF920F931F93CF93DF9300D000D066
:1020A000CDB7DEB78C01DB01FE013196CE0105967E
:1020B0007F012D912193E817F907D9F7B701C801DE
:1020C0000E943710B701C8010E94F60F0F900F90C1
:1020D0000F900F90DF91CF911F910F91FF90EF9094
:1020E0000895CF93DF9300D000D0CDB7DEB720E2C4
:1020F00029832A832B832C83BE016F5F7F4F0E942D
:1021000048100F900F900F900F90DF91CF9108958E
:10211000CF93DF93EC010E94881089818887988192
:10212000998761E00E94F42461E089850E94F4248B
:1021300080E48C8380EC8D838AE88E83CE01DF91EE
:10214000CF910C9471102F923F924F925F926F92A9
:102150007F928F929F92AF92BF92CF92DF92EF9237
:10216000FF920F931F93CF93DF93CDB7DEB72A97DC
:102170000FB6F894DEBF0FBECDBF8C016A017B01A4
:10218000922E2A013B0177FA709477F8709420E040
:1021900030E0A901C701B6010E94D02B87FF05C01E
:1021A00049865A86362C272C04C0C986DA863E2CEE
:1021B0002F2C2AE0A22EB12C20E03EE34CE156E485
:1021C000C701B6010E94442D87FD07C080E28D83C0
:1021D0008E838F838EE08887BBC020E030EE49E796
:1021E00054ECC701B6010E94D02B18167CF720E0F2
:1021F00030E0A901C701B6010E94D02B882E881CAF
:102200008824881C712C60E070E080E09FE37914E2
:1022100041F020E030E040E251E40E94D42B73947E
:10222000F6CF9B01AC0169857A85832D922D0E94A2
:102230000A2B2B013C010E94412C9B01462F972F1A
:10224000E0E0842FB5010E94D52DA1E0B0E0AC0FF5
:10225000BD1FAE0FB11D8AE0689F401911244C9339
:10226000EF5F6115710519F0462F972FEACF8E2F7A
:10227000880D982F990D953020F094E0992E981A9A
:102280009BCF80E28D838E838F83888784E0891B38
:10229000882051F0A5E0B0E0AC0FBD1FA80FB11D24
:1022A00081E28C9385E0891B482F4E0FB42E942F2A
:1022B0009E1BEE2379F065E070E06C0F7D1F690FC7
:1022C000711DCE018E0F911DDC018C91DB018C9371
:1022D000E150ECCF9920E1F1B90180E090E00E945B
:1022E0006D2C9B01AC01C301B2010E94092BEB2DA7
:1022F000F0E0319725E030E02C0F3D1FE20FF31F97
:102300002081205F20839B0CB91411F120E030E084
:1023100040E251E40E944F2D6B017C010E943C2C55
:10232000AA24A394AB0CE5E0F0E0EC0FFD1FEB0D4D
:10233000F11D6083882777FD8095982F0E946F2C70
:102340009B01AC01C701B6010E94092BBA2CDCCF5E
:10235000BE016B5F7F4FC8010E9448102A960FB6DE
:10236000F894DEBF0FBECDBFDF91CF911F910F91CB
:10237000FF90EF90DF90CF90BF90AF909F908F90A5
:102380007F906F905F904F903F902F9008950E94A4
:10239000A42088E08093300508954F925F926F9259
:1023A0007F928F929F92AF92BF92CF92DF92EF92E5
:1023B000FF92CF93DF9369017A019B0140E050E0E7
:1023C00060E472E48FE090E00E941F2EF901E901C1
:1023D00037FD2196D595C795A8EEB3E0A7019601E4
:1023E0000E94532E4B015C01C12CD12C76012F0190
:1023F000662457FC6094762CC814D904EA04FB04C4
:10240000A8F461E0809130050E942D25CE010E9444
:10241000092460E0809130050E942D25CE010E94A4
:102420000924C40CD51CE61CF71CE6CFDF91CF9124
:10243000FF90EF90DF90CF90BF90AF909F908F90E4
:102440007F906F905F904F90089560E0809130058D
:102450000C942D25CF93DF93EC0160E00E94AD201A
:102460008EE18B871C82DF91CF910895AF92BF924E
:10247000CF92DF92EF92FF920F931F93CF93DF9350
:10248000CDB7DEB76A970FB6F894DEBF0FBECDBFEB
:102490008C01CE0101967C01C12CD12C5C01C601BE
:1024A0000E948C30F70181937F01FFEFCF1ADF0A82
:1024B0008AE1C816D10499F72D813E814F81588554
:1024C00069817A818B819C810E940A2B29853A85BA
:1024D0004B855C850E940A2B2D853E854F8558894A
:1024E0000E940A2B29893A894B895C890E940A2B10
:1024F0002D893E894F89588D0E940A2B6B017C01E2
:10250000698D70E080E090E00E946F2C9B01AC012F
:10251000C701B6010E940A2B20E030E04AE253E4F2
:102520000E940A2B0E94412C8A8D681312C069E414
:1025300071E088EC96E00E94FD278AE1F501D80160
:102540001D9601900D928A95E1F781E0F801848350
:1025500008C062E671E088EC96E00E94FD27F80171
:1025600014826A960FB6F894DEBF0FBECDBFDF911E
:10257000CF911F910F91FF90EF90DF90CF90BF9080
:10258000AF900895CF92DF92EF92FF920F931F9337
:10259000CF93DF938C01EB012C813D814E815F81D4
:1025A000688179818A819B810E940A2B28853985DF
:1025B0004A855B850E940A2B2C853D854E855F856B
:1025C0000E940A2B288939894A895B890E940A2B33
:1025D0002C893D894E895F890E940A2B6B017C0101
:1025E000688D70E080E090E00E946F2C9B01AC0150
:1025F000C701B6010E940A2B20E030E04AE253E412
:102600000E940A2B0E94412C698FE12CF12C6991C8
:10261000C7010E9494308FEFE81AF80AEAE1EE163B
:10262000F104A9F781E0F80184836CE771E088EC9C
:1026300096E0DF91CF911F910F91FF90EF90DF9087
:10264000CF900C94FD27EF92FF921F93CF93DF93CF
:102650001F92CDB7DEB7162F7A01FC01638580E7A4
:1026600094E029830E945B0D612F80E794E00E9433
:10267000050D2981813091F4422F50E0B70180E7A8
:1026800094E00E94D80C61E080E794E00F90DF9125
:10269000CF911F91FF90EF900C94650D8FEF0F90ED
:1026A000DF91CF911F91FF90EF900895CF93DF932B
:1026B0001F92CDB7DEB7498321E0AE014F5F5F4F78
:1026C0000E9423130F90DF91CF910895EF92FF9214
:1026D0000F931F93CF93DF93EC01F62E8A01E22E26
:1026E0006B8580E794E00E945B0D6F2D80E794E09E
:1026F0000E94050D813001F560E080E794E00E94C2
:10270000650D81112EC081E090E00E94092421E036
:102710004E2D6B8580E794E00E944E0DE80100E0AD
:1027200010E0F12C80E794E00E94AD0C892B31F091
:102730000E151F0574F002C08FEF13C081E090E00A
:102740000E94092481E00E151F0509F480E081959F
:1027500008C00F5F1F4F80E794E00E94B50C89937B
:10276000E1CFDF91CF911F910F91FF90EF900895EE
:10277000CF93DF93EC01AC014B5F5F4F23E06AE046
:102780000E94661381110AC08D81883439F48E81CC
:10279000843321F481E09F81933309F080E0DF915D
:1027A000CF910895CF92DF92EF92FF920F931F93F4
:1027B000CF93DF93EC016B018A0179010E941D1414
:1027C000AE014B5F5F4F26E063E0CE010E946613CF
:1027D000882321F0992787FD909526C08C8581302C
:1027E00031F441E062E070E0CE010E9456138D8129
:1027F00090E0982F88272E81822BF6019183808389
:10280000898590E0982F88272A85822BF80191836B
:1028100080838F8190E0982F88272885822BF7016D
:102820009183808380E090E0DF91CF911F910F91A1
:10283000FF90EF90DF90CF9008952F923F924F92AC
:102840005F926F927F928F929F92AF92BF92CF9240
:10285000DF92EF92FF920F931F93CF93DF93CDB749
:10286000DEB76C970FB6F894DEBF0FBECDBF8C01FC
:1028700062E00E94CF2081116EC26AE070E080E0C9
:1028800090E00E94E12362E0C8010E94CF20811104
:1028900062C2C8010E94B813811107C06BE971E0E0
:1028A00088EC96E00E94FD2756C265EB71E088EC4B
:1028B00096E00E94FD270E94B2236B017C01712CDF
:1028C000BB24B39462E0C8010E94CF2081111BC0D9
:1028D0000E94B2236C197D098E099F09693C71051C
:1028E0008105910578F30E94B2236B017C017B2462
:1028F000672DC8010E9401216DEC71E088EC96E023
:102900000E94FD27DFCF67EE71E088EC96E00E9421
:10291000FD2764E670E080E090E00E94E1230E94E1
:10292000B2234B015C012FEF3FE7388B2F8740E04C
:1029300050E85E874D878FEF9FE79C878B87E0E0AD
:10294000F0E8FA87E98738872F83212C50E8352E65
:10295000662463940E94B2236C197D098E099F0935
:10296000693C71058105910548F00E94B2236B0115
:102970007C017624672DC8010E9401210E94B223A8
:10298000681979098A099B096B30710581059105E0
:10299000E0F19E012F5F3F4FAE014D5F5F4FBE01E3
:1029A0006B5F7F4FC8010E94D2138D819E814F8142
:1029B0005885841795072CF02816390624F41C0135
:1029C00002C098878F838B819C81EB85FC858E1755
:1029D0009F0744F029853A85281739072CF49A87F0
:1029E000898702C09C878B8789819A814F85588906
:1029F0008417950744F0ED85FE85E817F9072CF458
:102A00009E878D8702C0988B8F8762E0C8010E94E5
:102A1000CF2081119FCF60E0C8010E940121B10148
:102A2000882777FD8095982F0E946F2C6B017C0181
:102A30002F813885B901882777FD8095982F0E94CE
:102A40006F2C698B7A8B8B8B9C8B9B01AC01C701A4
:102A5000B6010E940A2B905820E030E040E05FE38E
:102A60000E944F2DF801658776878787908B29858F
:102A70003A85B901882777FD8095982F0E946F2CA1
:102A80002B013C014B855C85BA01882777FD809539
:102A9000982F0E946F2C6D8B7E8B8F8B988F9B0154
:102AA000AC01C301B2010E940A2B905820E030E033
:102AB00040E05FE30E944F2DF801618B728B838BA6
:102AC000948B2D853E85B901882777FD8095982FB9
:102AD0000E946F2C4B015C014F855889BA018827F1
:102AE00077FD8095982F0E946F2C698F7A8F8B8F3E
:102AF0009C8F9B01AC01C501B4010E940A2B905828
:102B000020E030E040E05FE30E944F2DF801658B4C
:102B1000768B878B908F80E090E0A0E8BFE3818F79
:102B2000928FA38FB48F29893A894B895C89C70119
:102B3000B6010E94092B6B017C012D893E894F89CA
:102B4000588DC301B2010E94092BA70196010E9472
:102B5000D42BF801658F768F878F90A3298D3A8DBE
:102B60004B8D5C8DC501B4010E94092BA701960114
:102B70000E94D42BF80161A372A383A394A32F8195
:102B80003885221A330A37FE03C031942194310864
:102B900089859A854B855C85841B950B97FF03C0BF
:102BA0009195819591092D853E85EF85F8892E1B9C
:102BB0003F0B37FF03C031952195310982159305ED
:102BC0002CF02215330514F081E009C028163906CF
:102BD0002CF02817390714F082E001C083E0F801D7
:102BE00085A36DEF71E088EC96E00E94FD276AE115
:102BF00072E088EC96E00E94F027F8014585568542
:102C00006785708921E030E088EC96E00E94B12968
:102C10006BE472E088EC96E00E94FD2768E272E0C7
:102C200088EC96E00E94F027F80141895289638977
:102C3000748921E030E088EC96E00E94B1296BE4D1
:102C400072E088EC96E00E94FD2766E372E088EC73
:102C500096E00E94F027F801458956896789708DB2
:102C600021E030E088EC96E00E94B1296BE472E04C
:102C700088EC96E00E94FD2764E472E088EC96E020
:102C80000E94F027F801418D528D638D748D21E0F3
:102C900030E088EC96E00E94B1296BE472E088ECA9
:102CA00096E00E94FD276DE472E088EC96E00E94B9
:102CB000F027F801458D568D678D70A121E030E039
:102CC00088EC96E00E94B1296BE472E088EC96E013
:102CD0000E94FD2766E572E088EC96E00E94F027EE
:102CE000F80141A152A163A174A121E030E088EC78
:102CF00096E00E94B1296BE472E088EC96E00E94B5
:102D0000FD276FE572E088EC96E00E94F0274AE02C
:102D100050E0F80165A188EC96E00E94BF286BE4C2
:102D200072E088EC96E00E94FD27B801635F7F4F58
:102D3000C8010E94C21261E0C8010E94012162E044
:102D4000C8010E94CF208823D1F364E670E080E0C0
:102D500090E00E94E1236C960FB6F894DEBF0FBEA0
:102D6000CDBFDF91CF911F910F91FF90EF90DF903A
:102D7000CF90BF90AF909F908F907F906F905F901B
:102D80004F903F902F900895CF93DF93EC0180E711
:102D900094E00E94440D61E0CE010E94012140E7D1
:102DA00060E070E0CE010E94561340E261E070E006
:102DB000CE010E94561381E08C8741E062E070E012
:102DC000CE010E945613CE010E943612CE01DF9131
:102DD000CF910C941D146093320540933105FC0192
:102DE000608341830C94C4162F923F924F925F925E
:102DF0006F927F928F929F92AF92BF92CF92DF920B
:102E0000EF92FF920F931F93CF93DF93CDB7DEB76F
:102E100062970FB6F894DEBF0FBECDBF8C010E9443
:102E20001D149E012F5F3F4FAE014D5F5F4FBE01EE
:102E30006B5F7F4FC8010E94D213882349F0682F2F
:102E4000772767FD7095872F972F0E946F2CC5C03D
:102E5000F80184812D803E802B813C8138872F832F
:102E6000882309F478C04584568467847088818CEF
:102E7000928CA38CB48CB901882777FD8095982F0C
:102E80000E946F2CF80121893289438954890E945C
:102E90000A2BF801258D368D478D50A10E944F2DAC
:102EA0000E943C2C6F83788789879A8769817A8111
:102EB000882777FD8095982F0E946F2CF80125892F
:102EC00036894789508D0E940A2BF80121A132A131
:102ED00043A154A10E944F2D0E943C2C6B877C87FC
:102EE0008D879E87F80115A1113041F42B853C8513
:102EF000B901882777FD8095982F32C0B1018827C6
:102F000077FD8095982F0E946F2CA30192010E945B
:102F10000A2BA50194010E944F2D0E943C2C4B01CD
:102F20005C01123089F42B853C85B901882777FD37
:102F30008095982F0E946F2C9B01AC01B4018827CB
:102F400077FD8095982F17C0133019F5882777FDE6
:102F50008095982F05C0B101882777FD8095982F1F
:102F60000E946F2C9B01AC01EF81F885BF0188277F
:102F700077FD8095982F2F87388B498B5A8B0E942D
:102F80006F2C2F85388949895A890E947D2B6B01C6
:102F90007C0120E030E0A901C701B6010E94D02BDE
:102FA00087FF0DC02BED3FE049EC50E4C701B601AF
:102FB0000E940A2B20E030E044E353E406C020E006
:102FC00030E044E353E4C701B6010E944F2D2BEDDE
:102FD0003FE049E450E40E94D42B62960FB6F89487
:102FE000DEBF0FBECDBFDF91CF911F910F91FF903C
:102FF000EF90DF90CF90BF90AF909F908F907F9099
:103000006F905F904F903F902F90089560E00C94E8
:10301000AD200F931F93CF93DF938C016F3F71050A
:1030200019F014F06FEF70E0EB0161308FEF78076B
:1030300014F4C1E0DFEFD7FD06C061E0C8010E94D3
:103040000121BE0108C060E0C8010E94012166277D
:1030500077276C1B7D0BC801DF91CF911F910F91DA
:103060000C94192183E395E00C946E1883E395E0AA
:103070000C94971860E00C94AD20CF93DF93EC0193
:1030800060934F0640934E0680914F0660E00E9489
:10309000F42480914E06888380914F068983DF91C6
:1030A000CF9108950C94112160E00C94AD20CF9342
:1030B000DF93EC01609351064093500680915106D6
:1030C00060E00E94F424809150068883809151062C
:1030D0008983DF91CF9108950C94112121E030E094
:1030E000FC0131832083EE5FFE4F10821182128239
:1030F00013823496108211821282138234961082C7
:103100003196108231961082118212821382349687
:1031100011821082329610823196108211821282B0
:1031200013823496108211821282138208950895B8
:1031300060E00C94AD204F925F926F927F928F92DD
:103140009F92AF92BF92CF92DF92EF92FF920F9336
:103150001F93CF93DF9300D000D01F92CDB7DEB77F
:103160008C01CE0101966C0185E0F60111928A95E1
:10317000E9F760E0C8010E94012164E170E080E0AD
:1031800090E00E94E12361E0C8010E94012188E2F1
:1031900090E00E94092460E0C8010E9401210E9481
:1031A000B2234B015C0160E0C8010E94E020811164
:1031B0000EC00E94B223681979098A099B096330FD
:1031C00071058105910578F3F801148215820E943A
:1031D000B2234B015C0160E0C8010E94E02088231B
:1031E00059F00E94B223681979098A099B09633052
:1031F00071058105910578F3E12CF12C0E94B22331
:103200004B015C0160E0C8010E94E02081110BC00D
:103210000E94B223681979098A099B0963307105F4
:103220008105910578F30E94BE234B015C010E9449
:10323000B2232B013C0160E0C8010E94E0208823FA
:1032400059F00E94B2236419750986099709633001
:1032500071058105910578F30E94BE2368197909EB
:103260008A099B09F70123E0F595E7952A95E1F78F
:10327000693271058105910530F0EC0DFD1D8081ED
:10328000880F816004C0EC0DFD1D8081880F808354
:10329000FFEFEF1AFF0A88E2E816F10409F0AECF5B
:1032A00059814B81842F90E0850F911D2D8130E055
:1032B0008217930719F4F801548345830F900F90F8
:1032C0000F900F900F90DF91CF911F910F91FF9072
:1032D000EF90DF90CF90BF90AF909F908F907F90B6
:1032E0006F905F904F900895FC01611102C084813E
:1032F0000895858108951F920F920FB60F921124A1
:103300002F933F934F935F936F937F938F939F93ED
:10331000AF93BF93EF93FF9382E00E9463252091C8
:103320005806309159062F5F3F4F3093590620932E
:1033300058069091BE06943618F095E09093530687
:1033400090915306933071F018F4923031F046C0EA
:103350009430F9F09530E1F141C081113FC01092F5
:10336000BE0627C08130D1F5E091BE068E0F809356
:10337000BE06F0E08091580690915906EE5AF94F3A
:103380008087109259061092580684E08093530665
:1033900025C0811114C0E091BE0681E08E0F80939C
:1033A000BE06F0E08091580690915906EE5AF94F0A
:1033B0008087109259061092580683E0E7CF8091DB
:1033C0005806909159068536910540F085E0DECF8C
:1033D000811104C01092590610925806FF91EF9186
:1033E000BF91AF919F918F917F916F915F914F911D
:1033F0003F912F910F900FBE0F901F901895F8944A
:1034000082E08093B0008093B10094E69093B30083
:103410001092B2008093700078941092BE06809350
:10342000530608950F931F93CF93DF93EC018C0104
:103430000F5E1F4F65E972E0C8010E94682A60E0D4
:1034400082E00E94F4241F8A188E198E1A8E1B8621
:103450001A861D861C861E861F8665E972E0C801D5
:103460000E949E2A188ACE010E94FF1961E083E023
:103470000E94F42460E083E0DF91CF911F910F91CF
:103480000C942D251F93CF93DF93FC01A681B78168
:103490008C9186588D3558F48085918583309105BF
:1034A000A1F411968C9111978152893118F080E026
:1034B00090E044C012968C9188508730C0F71582F6
:1034C00081E0808381E090E039C0833491057CF312
:1034D00011968C91119783548F3248F782E090E0D7
:1034E00040E050E0BA019D012F5F3F4FEC01CA0F51
:1034F000DB1FC881C850C730D0F6E901C80FD91FFB
:1035000018811751133180F4769567955795479533
:10351000706802968234910549F780E28583418381
:10352000528363837483CCCFC881C850C73008F0FE
:10353000BECF7695679557954795EBCFDF91CF91A5
:103540001F9108950F931F93CF93DF93EC018AE5AA
:1035500096E09F838E838091BE0690E0998788874E
:1035600080915306853081F4CE010E94421A8C016D
:10357000CE010115110529F00E94FF1901E010E0AC
:1035800005C00E94FF1902C000E010E0C801DF91F1
:10359000CF911F910F910895CB01E0EBF0E02081D6
:1035A000206220830C940924CB01E0EBF0E0208121
:1035B0002F7D20830C94092410927000262F30E078
:1035C00040E050E060E47FE180E090E00E941F2E48
:1035D00081E08093B00089E08093B1002093B30034
:1035E0008BEA289F212D112426952093B40008955D
:1035F000AF92BF92CF92DF92EF92FF920F931F9301
:10360000CF93DF93EC016A017B01590166E20E94CE
:10361000DC1A68E273E2CE010E94CC1A64E971E11F
:10362000CE010E94D41A00E010E060E372E0CE0107
:103630000A151B05ACF4C0FE05C00E94CC1A60E45C
:1036400076E004C00E94CC1A60E372E0CE010E94D2
:10365000D41AF694E794D794C7940F5F1F4FE5CF21
:103660000E94CC1A60E070E0CE01DF91CF911F91F3
:103670000F91FF90EF90DF90CF90BF90AF900C94A0
:10368000D41AEF92FF920F931F93CF93DF938C0185
:103690007B01C0E0D0E0F70184819581C817D9078C
:1036A000D0F4BE01C7010E94062B482F552747FDC5
:1036B0005095652F752FBA015527442720E230E039
:1036C000C8010E94F81A66E070E080E090E00E9475
:1036D000E1232196E0CF20E230E040E050E06AE0D4
:1036E00070E0C8010E94F81A66E070E080E090E0A7
:1036F000DF91CF911F910F91FF90EF900C94E123F8
:10370000CF92DF92EF92FF920F931F93CF93DF93AD
:10371000EC01162FF42EE52ED22E106C61E08C8178
:103720000E942D2560E08D810E942D2508E060E03B
:103730008C810E942D25612F61708D810E942D2525
:1037400061E08C810E942D251695015081F7CF2CC8
:103750000F2D1E2D802F8C198D15B0F4F801E190DE
:103760008F0188E0F82E60E08C810E942D256E2D5F
:1037700060788D810E942D2561E08C810E942D252D
:10378000EE0CFA9481F7E6CF60E08C810E942D2543
:1037900060E08D810E942D2561E08C810E942D25A5
:1037A00061E08D81DF91CF911F910F91FF90EF909C
:1037B000DF90CF900C942D250C94A4200F931F9391
:1037C000CF93DF93EC01162F61E08C810E942D25B1
:1037D00060E08D810E942D2508E060E08C810E94D0
:1037E0002D25612F61708D810E942D2561E08C81D6
:1037F0000E942D251695015081F760E08C810E9472
:103800002D2560E08D810E942D2561E08C810E9434
:103810002D2561E08D81DF91CF911F910F910C9447
:103820002D2520E030E0FC01E20FF31F10862F5F12
:103830003F4F20313105B9F721E0FC012683178283
:10384000AC01485F5F4F20E160E00C94801B693061
:1038500018F4662321F001C068E061506860606878
:103860000C94DE1BCF93DF93EC01E62FF0E0EE0F1C
:10387000FF1FE65EFE4F80818C8391819D8361E016
:103880000E94F42461E08D810E94F42461E08C8127
:103890000E942D2561E08D810E942D2560E4CE01DE
:1038A0000E94DE1B65E0CE010E94271CCE01DF9145
:1038B000CF910C94111CFC01668308958F929F9206
:1038C000AF92BF92CF92DF92EF92FF920F931F932E
:1038D000CF93DF9360310CF085C048300CF082C08C
:1038E000222309F47FC0FC013681A42FBB27A7FD4A
:1038F000B095E8E0F0E0EA1BFB0B5FEF01C0550F6D
:10390000EA95EAF74801C0E0D0E0772767FD7095B7
:103910006C01C60ED71EAA24BB24AA1ABB0A3323E5
:1039200079F1C21778F58E01060F171F17FD1AC01F
:103930007601EC0EFD1EF70130853523F401008180
:10394000141644F410E00A2E02C0159507950A9447
:10395000E2F705C00A2C01C0000F0A94EAF7032B16
:10396000F70100872196FFEF8F1A9F0ADACF8E01A9
:10397000060F171F17FF19C02196FFEF8F1A9F0A16
:10398000C217A8F3AC01485F5F4F20E160E0DF9110
:10399000CF911F910F91FF90EF90DF90CF90BF904C
:1039A000AF909F908F900C94801B7601EC0EFD1EC3
:1039B000F70130853523F401008110E00095109562
:1039C00014163CF40A2E02C0159507950A94E2F7E6
:1039D00005C00A2C01C0000F0A94EAF7032BF70177
:1039E0000087CACFDF91CF911F910F91FF90EF9089
:1039F000DF90CF90BF90AF909F908F9008958F925F
:103A00009F92AF92BF92CF92DF92EF92FF920F936D
:103A10001F93CF93DF93EC01088D198D10161106BB
:103A20000CF073C080E090E0F82E8017910751F001
:103A300001968131910509F4E7C0FE01E80FF91FF5
:103A40001782F2CF40E1841709F4DEC00B8D1C8D84
:103A5000E12C67E0D62E70E2C72E4E2D50E04017C5
:103A600051070CF049C0B12CDE01A40FB51F5D96C3
:103A70002B2D30E0D29EC001D39E900D1124845C8A
:103A80009E4FFC016491603441F1FC016491EC9122
:103A9000FF27E7FDF09570E0E617F707E1F4D29E07
:103AA000B001D39E700D112420E030E0635C7E4FA6
:103AB000FB01E20FF31FE491DE01AF0DB11D18967B
:103AC000EC93F394FFE0FF1540F02F5F3F4F26305B
:103AD000310571F702C0B394CBCFFC0184918034DF
:103AE00029F4FE01E40FF51FC58EEA94E394FFE08C
:103AF000FF1508F0B2CF88C0FE01EF0DF11D108652
:103B0000F39440E1F412F8CF7FC0EB8CFC8C2AEFE9
:103B1000A7012403C001259F900D11240817190740
:103B200059F480E090E0FE01E80FF91F108601963D
:103B300080319105C1F768C022273327201B310B44
:103B4000C90166E070E00E94E92D398F288F9B0142
:103B500090E047E0B42E50E2A52E2E153F050CF064
:103B60004BC0912CDE01A20FB31F5D96692D70E052
:103B7000B69EA001B79E500D1124445C5E4FFA0121
:103B8000D490F0E4DF1631F1FA018490CC90DD247A
:103B9000C7FCD094E82DF0E0CE16DF06C1F4B69E47
:103BA000D001B79EB00D1124FD01E80FF11D87FD76
:103BB000FA95E35CFE4F6491FE01E90FF11D608709
:103BC0009F5F903130F48F5F863071F702C093941D
:103BD000CDCF80E0FA014491403431F4FE01E20F90
:103BE000F31FA58E215031092F5F3F4F903108F40C
:103BF000B4CF198F088F08C0FE01E90FF11D1086A0
:103C00009F5F9031C9F7F5CF4A8D552747FD5095F5
:103C100027E030E0241B350B80E090E037FD12C038
:103C2000FE01E80FF91F4085022E01C0440F0A94DF
:103C3000EAF7408701968031910591F78E818823BC
:103C4000A1F01FC047505109FE01E80FF91F208560
:103C500030E0042E02C0359527950A94E2F72087BC
:103C600001968031910581F7E9CF80E090E0FE0177
:103C7000E80FF91F20852095208701968031910556
:103C8000B1F7AE01485F5F4F20E160E0CE01DF9108
:103C9000CF911F910F91FF90EF90DF90CF90BF9049
:103CA000AF909F908F900C94801B0F931F93FC01FB
:103CB00081E08783148E138E038D148DD901A00F9C
:103CC000B11F8C91DF01A00FB11F882319F00331C0
:103CD000110564F05D961C922AEF2003C001219F1C
:103CE000900D11246817790774F007C05D968C93C6
:103CF0000F5F1F4F148F038FDFCFCB016131710531
:103D000014F080E190E0918F808F40310CF04FE013
:103D100047FD4FEF428FCF011F910F910C94FF1C75
:103D2000CF93DF93DC01362F862F6AE00E94C92DE6
:103D3000C82FD0E0FE01EE0FFF1FEC0FFD1FE25E6B
:103D4000FE4FE4911896EC931897FE01EE0FFF1FBB
:103D5000EC0FFD1FE15EFE4FE4911996EC9319976D
:103D6000FE01EE0FFF1FEC0FFD1FE05EFE4FE49122
:103D70001A96EC931A971B961C921B97832F0E94FE
:103D8000C92D692F70E0FB01EE0FFF1FE60FF71F33
:103D9000E25EFE4FE4911C96EC931C97FB01EE0F44
:103DA000FF1FE60FF71FE15EFE4FE4911D96EC93B7
:103DB0001D97FB01EE0FFF1FE60FF71FE05EFE4FA2
:103DC000E4911E96EC931E97842F6AE00E94C92D01
:103DD000682F70E0FB01EE0FFF1FE60FF71FE25E9A
:103DE000FE4FE4915196EC935197FB01EE0FFF1FAC
:103DF000E60FF71FE15EFE4FE4915296EC93529767
:103E0000FB01EE0FFF1FE60FF71FE05EFE4FE49190
:103E10005396EC93539754961C925497842F6AE0D0
:103E20000E94C92D892F90E0FC01EE0FFF1FE80FC3
:103E3000F91FE25EFE4FE4915596EC935597FC0115
:103E4000EE0FFF1FE80FF91FE15EFE4FE49156965B
:103E5000EC935697FC01EE0FFF1FE80FF91FE05E91
:103E6000FE4FE4915796EC935797222341F088E256
:103E70001F968C931F9750968C93509706C01F9651
:103E80001C921F9750961C92509716968C911697DD
:103E9000882351F0AD01485F5F4F20E160E0CD0124
:103EA000DF91CF910C94801B80E090E0FD01E80F42
:103EB000F91F208520952087019680319105B1F763
:103EC000E9CF089570E0FB01EA5AFC4FE491DC0170
:103ED000EC93FB01E659FC4FE491F0E0EE0FFF1F7D
:103EE000E258FC4F25913491FC01328321830895DF
:103EF0001F93CF93DF93FC011081C181D2819981FF
:103F0000812F8095892389838A81812B8A838AE006
:103F100090E00E9409249881912381E009F480E0D7
:103F2000DF91CF911F910895FF920F931F93CF932D
:103F3000DF93FC011081C181D281F8948981F12E37
:103F4000F0948F2189838A81812B8A8378940DE76D
:103F5000015041F182E090E00E9409248881812390
:103F6000B9F3F8948A818F218A838981812B89838F
:103F7000789480EE91E00E940924F89489818F2141
:103F800089838A81812B8A8386E490E00E940924B8
:103F90008881812301E009F000E078948AE991E0CA
:103FA0000E940924802FDF91CF911F910F91FF90E4
:103FB00008951F93CF93DF93FC011081C181D281BB
:103FC000912F909560FF12C0F8948A8189238A838B
:103FD0008981812B89838AE090E00E9409248A816B
:103FE000812B8A83789487E390E011C0F8948A81CA
:103FF00089238A838981812B898381E490E00E94CF
:1040000009248A81812B8A83789485E090E0DF916E
:10401000CF911F910C9409240F931F93CF93DF939B
:10402000FC011081C181D281F8948981812B89831F
:104030008A81012F009580238A8383E090E00E948B
:1040400009248981802389838A81812B8A838AE05C
:1040500090E00E940924C881789485E390E00E9452
:1040600009241C2381E009F480E0DF91CF911F91A6
:104070000F910895CF92DF92EF92FF920F931F93CB
:10408000CF93DF931F92CDB7DEB76C01E62E08E029
:1040900010E0FF24F39461E09F2D9E2109F460E07D
:1040A000C60149830E94D91FFF0C015011094981A3
:1040B0000115110581F741111DC0F894D601119623
:1040C000ED91FC91129791818C9180958923818348
:1040D0001196ED91FC91129782819C91892B82839C
:1040E0001196ED91FC91129792818C918095892384
:1040F000828378940F90DF91CF911F910F91FF9061
:10410000EF90DF90CF900895EF92FF920F931F935F
:10411000CF93DF938C01C8E0D0E0F12CEE24E39440
:10412000C8010E940C208111FE28EE0C2197C1F7D6
:104130008F2DDF91CF911F910F91FF90EF900895F8
:1041400040E06CEC0C943A20FC0180911A018083D1
:1041500080911B01818312820895DC01E62FF0E03B
:10416000EE0FFF1FE65EFE4F80818C9381811196DA
:104170008C93119712966C9381E0809380008BE072
:104180008093810083E08093B00084E08093B1004D
:104190000895FC0182810895FC0183810895CF93E5
:1041A000DF93EC0188810E94F42488810E946325BA
:1041B00021E0892B09F420E0822FDF91CF9108952F
:1041C000CF93DF93EC0189810E94F42489810E94BE
:1041D000632521E0892B09F420E0822FDF91CF9124
:1041E00008951F93CF93DF93EC01162F61E0888130
:1041F0000E94F424612F8881DF91CF911F910C944C
:104200002D251F93CF93DF93EC01162F61E0898159
:104210000E94F424612F8981DF91CF911F910C942A
:104220002D25FC0180810C944F24FC0181810C948C
:104230004F24FC0180810C946C24DC01E62FF0E01B
:10424000EE0FFF1FE65EFE4F80818C9381811196F9
:104250008C93119712966C930895DC01E62FF0E091
:10426000EE0FFF1FE65EFE4F80818C9381811196D9
:104270008C93119712966C93129713964C93089502
:10428000FC0180810895FC0181810895DC01129672
:104290006C931297E62FF0E0EE0FFF1FE65EFE4FE5
:1042A000818111968C93119790819C93282F30E0F7
:1042B000F901EA5AFC4FE4911C96EC931C97F90122
:1042C000E659FC4FE491F0E0EE0FFF1FE857FC4F7A
:1042D0002591349119963C932E93189761E00C9494
:1042E000F424DC01862F12961C921297262F30E0C0
:1042F000F901EA5AFC4FE4911C96EC931C97F901E2
:10430000E659FC4FE491F0E0EE0FFF1FE857FC4F39
:104310002591349119963C932E93189761E00C9453
:10432000F424CF93DF93EC01262F30E03D832C83E0
:1043300023E0629FC00111240E945E2E9F838E8322
:10434000892B21F487E692E00E945F3080E090E0C4
:104350004C815D819A01220F331F240F351F821774
:10436000930738F4EE81FF81E80FF91F1082019660
:10437000EFCFDF91CF9108950F931F93CF93DF93EA
:104380001F92CDB7DEB78C0149830E94AD20D801C2
:1043900011968C91282F30E0F901EA5AFC4FE491F4
:1043A000D8011C96EC93F901E659FC4FE491F0E03A
:1043B000EE0FFF1FE857FC4F25913491F80131872C
:1043C000208761E00E94F4244981642FC8010F9086
:1043D000DF91CF911F910F910C9491210F93FC01CC
:1043E000A62FB0E084819581A817B907B8F4862F6D
:1043F000880F860F90E0A681B781A80FB91F2C9374
:10440000A681B781A80FB91F11964C930680F7813A
:10441000E02DE80FF91F028381E001C080E00F91D9
:104420000895CF92DF92EF92FF920F931F93CF9355
:10443000DF937C01142FD22EC02E611113C0C0E077
:10444000D0E0F70184819581C817D90748F40C2D75
:104450002D2D412F6C2FC7010E94EE212196F1CF07
:1044600081E004C061500E94EE2180E0DF91CF9195
:104470001F910F91FF90EF90DF90CF9008950F93D1
:10448000022F242F462F60E00E9411220F910895E1
:104490000F931F93D8013FB7F8949C91822F80957A
:1044A0008923292BFB01460F571FE417F50781F0DD
:1044B000919168E02C9300C097FF8C93990F00C0F6
:1044C00000C000C008F48C9300C06A9599F7EDCF46
:1044D0003FBF1F910F9108950F931F93FC0100851B
:1044E000118524813581A901440F551F420F531FA7
:1044F0006681778124850E9448221F910F9108953B
:10450000CF93DF93EC018E819F810E94F62E1F8254
:104510001E82DF91CF910895CF93DF93EC010E942B
:10452000A420CE010496DF91CF910C94611F1F93BC
:10453000CF93DF93EC01142F0E942D21123011F440
:10454000698101C06881CE010496DF91CF911F91EE
:104550000C94621FCF92DF92EF92FF920F931F9302
:10456000CF93DF93CDB7DEB72C970FB6F894DEBFAD
:104570000FBECDBF8C010C5F1F4FC8010E94941F5E
:10458000C8010E94A02040E064E4C8010E943A20D3
:104590000E94B2236B017C01C8010E94781F811127
:1045A0000BC00E94B2236C197D098E099F096E3ED3
:1045B00072408105910580F3C8010E94941FC801D3
:1045C0000E94A02040E06EEBC8010E943A20CE017C
:1045D00001967C016E0196E0C90ED11CC8010E94B3
:1045E0008420F70181937F01EC15FD05B9F76A81FD
:1045F00070E0762F66278981682B882777FD809564
:10460000982F0E946F2C20E030E040E85DE30E948C
:104610004F2D2C960FB6F894DEBF0FBECDBFDF91A5
:10462000CF911F910F91FF90EF90DF90CF90089561
:1046300060E00C94AD200F931F93CF93DF9300D0D5
:1046400000D0CDB7DEB78C019A01AB0160E02983C1
:104650003A834B835C830E94012182E090E00E94B8
:10466000092461E0C8010E9401218AE090E00E94D3
:10467000092460E0C8010E94012160E0F801818105
:104680000E94F42429813A814B815C8161E0F80128
:1046900081810F900F900F900F90DF91CF911F911C
:1046A0000F910C948C2527E3269FA001279F500D86
:1046B000112448535F4F60E070E00E941B230E946A
:1046C0006F2C20E030E048E652E40E94D42B08959D
:1046D0001F920F920FB60F9211242F933F938F9337
:1046E0009F93AF93BF938091C0069091C106A09114
:1046F000C206B091C3063091BF0623E0230F2D37C9
:1047000020F40196A11DB11D05C026E8230F0296D5
:10471000A11DB11D2093BF068093C0069093C106D2
:10472000A093C206B093C3068091C4069091C506BB
:10473000A091C606B091C7060196A11DB11D809338
:10474000C4069093C506A093C606B093C706BF9152
:10475000AF919F918F913F912F910F900FBE0F902E
:104760001F9018952FB7F8946091C0067091C106FC
:104770008091C2069091C3062FBF08953FB7F89469
:104780008091C4069091C506A091C606B091C70657
:1047900026B5A89B05C02F3F19F00196A11DB11D9C
:1047A0003FBF6627782F892F9A2F620F711D811DB9
:1047B000911D42E0660F771F881F991F4A95D1F718
:1047C0000895CF92DF92EF92FF92CF93DF936B0128
:1047D0007C010E94BE23EB01C114D104E104F10469
:1047E00089F00E94082B0E94BE236C1B7D0B683E43
:1047F000734090F381E0C81AD108E108F108C8516C
:10480000DC4FEACFDF91CF91FF90EF90DF90CF9018
:1048100008958230910538F0880F991F880F991FED
:1048200005970197F1F70895789484B5826084BD67
:1048300084B5816084BD85B5826085BD85B58160A4
:1048400085BDEEE6F0E0808181608083E1E8F0E004
:104850001082808182608083808181608083E0E833
:10486000F0E0808181608083E1EBF0E08081846012
:104870008083E0EBF0E0808181608083EAE7F0E014
:104880008081846080838081826080838081816078
:1048900080838081806880831092C10008958E306B
:1048A00008F08E5087702091300190E4299F90018C
:1048B0001124822B80937C0080917A008064809305
:1048C0007A0080917A0086FDFCCF8091780020915B
:1048D000790090E0922B08951F93CF93DF93182FC8
:1048E000EB0161E00E94F424209711F460E004C021
:1048F000CF3FD10539F461E0812FDF91CF911F9136
:104900000C942D25E12FF0E0EE5BFC4FE491E330B9
:10491000F9F048F4E130B9F0E230A1F584B58062F5
:1049200084BDC8BD34C0E730E9F0E83019F1E430A7
:1049300049F580918000806280938000D0938B0045
:10494000C0938A0024C084B5806884BDC7BD1FC0E1
:1049500080918000806880938000D0938900C0930C
:10496000880015C08091B00080688093B000C0932B
:10497000B3000DC08091B00080628093B000C093FE
:10498000B40005C0C038D1050CF0B5CFAFCFDF9172
:10499000CF911F910895833081F028F4813099F0F0
:1049A0008230A1F008958730A9F08830B9F08430C2
:1049B000D1F4809180008F7D03C0809180008F773B
:1049C00080938000089584B58F7702C084B58F7D71
:1049D00084BD08958091B0008F7703C08091B000AE
:1049E0008F7D8093B0000895CF93DF9390E0FC011A
:1049F000EA5AFC4F2491FC01E659FC4F849188232C
:104A000049F190E0880F991FFC01EE56FC4FA591EB
:104A1000B49188579C4FFC01C591D4919FB7611107
:104A200008C0F8948C91209582238C9388818223EE
:104A30000AC0623051F4F8948C91322F3095832360
:104A40008C938881822B888304C0F8948C91822B6C
:104A50008C939FBFDF91CF9108950F931F93CF93B6
:104A6000DF931F92CDB7DEB7282F30E0F901EE5B60
:104A7000FC4F8491F901EA5AFC4F1491F901E6596F
:104A8000FC4F04910023C9F0882321F069830E9420
:104A9000CB246981E02FF0E0EE0FFF1FE857FC4FB9
:104AA000A591B4919FB7F8948C91611103C01095B2
:104AB000812301C0812B8C939FBF0F90DF91CF91F9
:104AC0001F910F910895CF93DF93282F30E0F901C4
:104AD000EE5BFC4F8491F901EA5AFC4FD491F90145
:104AE000E659FC4FC491CC2391F081110E94CB2454
:104AF000EC2FF0E0EE0FFF1FE258FC4FA591B491B0
:104B00002C912D2381E090E021F480E002C080E030
:104B100090E0DF91CF9108950F931F93762F90E04F
:104B2000FC01EA5AFC4F6491FC01E659FC4FE49108
:104B30007111762FF0E0EE0FFF1FE258FC4F8591C8
:104B4000949189019A013F70472F0E94FE016115DF
:104B500071058105910531F06F5F7F4F8F4F9F4F3A
:104B60009F7003C060E070E0CB011F910F9108952A
:104B7000FC01818D228D90E0805C9F4F821B91090A
:104B80008F7399270895FC01918D828D981731F0CC
:104B9000828DE80FF11D858D90E008958FEF9FEFD6
:104BA0000895FC01918D828D981761F0828DDF014F
:104BB000A80FB11D5D968C91928D9F5F9F73928F10
:104BC00090E008958FEF9FEF089585E597E2892B98
:104BD00049F080E090E0892B29F00E94552781114F
:104BE0000C9400000895FC01848DDF01A80FB11D15
:104BF000A35ABF4F2C91848D90E001968F73992713
:104C0000848FA689B7892C93A089B1898C918064FF
:104C10008C93938D848D981306C00288F389E02DC0
:104C200080818F7D80830895CF93DF93EC01888D01
:104C30008823C9F0EA89FB89808185FD05C0A889A0
:104C4000B9898C9186FD0FC00FB607FCF5CF808126
:104C500085FFF2CFA889B9898C9185FFEDCFCE0170
:104C60000E94F325E7CFDF91CF910895CF92DF9295
:104C7000FF920F931F93CF93DF931F92CDB7DEB7B1
:104C80006C0181E0D60158968C9358975B969C9165
:104C90005B975C968C915C97981307C05096ED914A
:104CA000FC915197808185FD2EC0F601038D10E0A7
:104CB0000F5F1F4F0F731127F02EF601848DF8122E
:104CC00011C00FB607FCF9CFD6015096ED91FC91BB
:104CD0005197808185FFF1CFC60169830E94F3253A
:104CE0006981EBCF838DE80FF11DE35AFF4F60839D
:104CF000D6015B960C935B975296ED91FC9153977E
:104D0000808180620CC0D6015696ED91FC91579738
:104D100060835096ED91FC915197808180648083EF
:104D200081E090E00F90DF91CF911F910F91FF9064
:104D3000DF90CF900895BF92CF92DF92EF92FF92D3
:104D4000CF93DF93EC016A017B01B22EE889F989E8
:104D500082E08083411581EE580761057105A1F05D
:104D600060E079E08DE390E0A70196010E94FD2DBF
:104D70002150310941095109569547953795279595
:104D8000211580E1380798F0E889F989108260E8F8
:104D900074E88EE190E0A70196010E94FD2D21505C
:104DA0003109410951095695479537952795EC8565
:104DB000FD853083EE85FF852083188EEC89FD8983
:104DC000B082EA89FB89808180618083EA89FB89DE
:104DD000808188608083EA89FB8980818068808304
:104DE000EA89FB8980818F7D8083DF91CF91FF905D
:104DF000EF90DF90CF90BF9008951F920F920FB663
:104E00000F9211242F938F939F93EF93FF93E09131
:104E1000D806F091D9068081E091DE06F091DF0698
:104E200082FD12C090818091E1068F5F8F73209187
:104E3000E206821751F0E091E106F0E0E853F94F05
:104E4000958F8093E10601C08081FF91EF919F9142
:104E50008F912F910F900FBE0F901F9018951F925A
:104E60000F920FB60F9211242F933F934F935F939E
:104E70006F937F938F939F93AF93BF93EF93FF9322
:104E800088EC96E00E94F325FF91EF91BF91AF91DE
:104E90009F918F917F916F915F914F913F912F9152
:104EA0000F900FBE0F901F90189588EC96E00E940F
:104EB000B82521E0892B09F420E0822F0895109273
:104EC000CB061092CA0688EE93E0A0E0B0E0809393
:104ED000CC069093CD06A093CE06B093CF0687E87C
:104EE00092E09093C9068093C80685EC90E0909379
:104EF000D5068093D40684EC90E09093D7068093F7
:104F0000D60680EC90E09093D9068093D80681EC89
:104F100090E09093DB068093DA0682EC90E0909329
:104F2000DD068093DC0686EC90E09093DF068093AC
:104F3000DE061092E1061092E2061092E30610924D
:104F4000E406089508950E9414240E94A2270E9456
:104F50004702C5EED5E20E94F0092097E1F30E94D6
:104F6000E525F9CFCF92DF92EF92FF920F931F9337
:104F7000CF93DF936C017A01EB01E60EF71E00E0A0
:104F800010E0CE15DF0561F06991D601ED91FC913D
:104F90000190F081E02DC6010995080F191FF1CF8E
:104FA000C801DF91CF911F910F91FF90EF90DF909B
:104FB000CF9008956115710581F0DB010D900020FF
:104FC000E9F7AD0141505109461B570BDC01ED914A
:104FD000FC910280F381E02D099480E090E0089537
:104FE0000C94DA27DC01ED91FC910190F081E02D29
:104FF000099463E972E00C94DA270F931F93CF931F
:10500000DF93EC010E94DA278C01CE010E94F92780
:10501000800F911FDF91CF911F910F9108958F9273
:105020009F92AF92BF92CF92DF92EF92FF920F9337
:105030001F93CF93DF93CDB7DEB7A1970FB6F89448
:10504000DEBF0FBECDBF7C01C42EE52FCB01D22E1B
:1050500019A221E02D1510F02AE0D22E8E010F5D4D
:105060001F4F8D2C912CA12CB12C6C2D7E2FA501C6
:1050700094010E94FD2D8C2DD29E80191124015087
:1050800011098A3014F4805D01C0895CF8018083C5
:10509000211531054105510521F0C22EE32FCA012A
:1050A000E4CFB801C7010E94DA27A1960FB6F894A1
:1050B000DEBF0FBECDBFDF91CF911F910F91FF904B
:1050C000EF90DF90CF90BF90AF909F908F9008951A
:1050D000CF92DF92EF92FF920F931F93CF93DF93C4
:1050E000EC016A017B012115310579F4E881F98130
:1050F0000190F081E02D642FDF91CF911F910F91EE
:10510000FF90EF90DF90CF9009942A303105E9F4B9
:1051100077FF1AC06DE20E94F2278C0144275527C1
:10512000BA014C195D096E097F092AE0CE010E947F
:105130000F28800F911FDF91CF911F910F91FF904A
:10514000EF90DF90CF9008952AE0B701A601CE013D
:10515000DF91CF911F910F91FF90EF90DF90CF9053
:105160000C940F282115310541F4DC01ED91FC91DF
:105170000190F081E02D642F09940C940F289A017E
:10518000462F50E060E070E00C94B2284F925F929E
:105190006F927F928F929F92AF92BF92CF92DF9247
:1051A000EF92FF920F931F93CF93DF93EC016A016D
:1051B0007B01B22E9A01AB01C701B6010E94B52D49
:1051C000882319F066E972E027C026013701E894C8
:1051D00077F82FEF3FEF4FE75FE7C301B2010E947F
:1051E000B52D81110DC02FEF3FEF4FE75FE7C301F2
:1051F000B2010E94D02B18161CF46AE972E00CC0B0
:105200002FEF3FEF4FE75FE4C701B6010E94442D47
:105210001816ACF46EE972E0CE01DF91CF911F91C8
:105220000F91FF90EF90DF90CF90BF90AF909F9045
:105230008F907F906F905F904F900C94DA272FEFB4
:105240003FEF4FE75FECC701B6010E94D02B87FD0F
:10525000E1CF20E030E0A901C701B6010E94D02BC8
:1052600087FF0AC06DE2CE010E94F2278C01F7FA97
:10527000F094F7F8F09402C000E010E0A12C60E098
:1052800070E080E09FE3AB1441F020E030E040E2CA
:1052900051E40E94D42BA394F6CF9B01AC01C7012B
:1052A000B6010E940A2B6B017C010E94412C2B014C
:1052B0003C010E946D2C9B01AC01C701B6010E940C
:1052C000092B6B017C012AE0B301A201CE010E94EF
:1052D0000F28080F191FBB2039F06BEF71E0CE01CA
:1052E0000E94DA27080F191F7B2C772041F120E05C
:1052F00030E040E251E4C701B6010E944F2D6B013E
:105300007C010E943C2C4B01AA2497FCA094BA2C4F
:105310002AE030E0B501A401CE010E946828080F00
:10532000191FC501B4010E946F2C9B01AC01C7017C
:10533000B6010E94092B6B017C017A94D6CFC8017B
:10534000DF91CF911F910F91FF90EF90DF90CF9061
:10535000BF90AF909F908F907F906F905F904F9095
:1053600008950C94C6284F925F926F927F92AF92ED
:10537000BF92CF92DF92EF92FF920F931F93CF9342
:10538000DF93CDB7DEB729013A01621B730B840BA3
:10539000950B29893A894B895C892A193B094C0963
:1053A0005D09298B3A8B4B8B5C8B9B01AC01698926
:1053B0007A898B899C890E94B92DE418F508060921
:1053C0001709A80197010E941F2E2A0D3B1D4C1D95
:1053D0005D1DCA01B901DF91CF911F910F91FF901F
:1053E000EF90DF90CF90BF90AF907F906F905F90E5
:1053F0004F900895FC01808191810C94F62ECF93FB
:10540000DF93EC0188819981009711F00E94F62EBC
:10541000198218821D821C821B821A82DF91CF9111
:1054200008950F931F93CF93DF93EC018B016F5F70
:105430007F4F888199810E94852F009731F0998351
:1054400088831B830A8381E001C080E0DF91CF91D4
:105450001F910F910895CF93DF93EC01888199817B
:10546000892B29F08A819B818617970760F4CE01EA
:105470000E94112A882341F08C819D81892B19F487
:10548000E881F981108281E0DF91CF910895EF9258
:10549000FF920F931F93CF93DF93EC017B018A015F
:1054A000BA010E942B2A811104C0CE010E94FF295B
:1054B00007C01D830C83B701888199810E945830F1
:1054C000CE01DF91CF911F910F91FF90EF90089542
:1054D000FC011182108213821282158214826115DE
:1054E000710559F0FB0101900020E9F7AF0141502F
:1054F0005109461B570B0C94472A0895CF93DF930D
:10550000EC01FB018617970761F0608171816115DD
:10551000710529F0448155810E94472A02C00E94EA
:10552000FF29CE01DF91CF910895FC0111821082F5
:1055300013821282158214820C947E2ACF93DF93F9
:10554000EC016115710561F0FB0101900020E9F7A4
:10555000AF0141505109461B570B0E94472A02C018
:105560000E94FF29CE01DF91CF910895EF92FF9223
:105570000F931F93CF93DF93EC017B010C811D816F
:105580006115710511F480E016C04115510591F0C7
:10559000040F151FB8010E942B2A8823A1F328812C
:1055A00039818C819D81B701820F931F0E945830F1
:1055B0001D830C8381E0DF91CF911F910F91FF90AC
:1055C000EF900895CF93DF9300D0CDB7DEB7698316
:1055D0001A8241E050E0BE016F5F7F4F0E94B62A01
:1055E0000F900F90DF91CF910895FC0124813581B8
:1055F0006217730748F480819181009729F0FC01BC
:10560000E60FF71F8081089580E008950C94F52A35
:1056100008955058BB27AA270ED0FCC1EDD130F019
:10562000F2D120F031F49F3F11F41EF4BDC10EF40D
:10563000E095E7FBB3C1E92FFED180F3BA1762070B
:1056400073078407950718F071F49EF516C20EF4DF
:10565000E0950B2EBA2FA02D0B01B90190010C0182
:10566000CA01A0011124FF27591B99F0593F50F49A
:10567000503E68F11A16F040A22F232F342F4427F2
:10568000585FF3CF469537952795A795F0405395EA
:10569000C9F77EF41F16BA0B620B730B840BBAF0BA
:1056A0009150A1F0FF0FBB1F661F771F881FC2F725
:1056B0000EC0BA0F621F731F841F48F48795779539
:1056C0006795B795F7959E3F08F0B3CF9395880FF0
:1056D00008F09927EE0F9795879508958DD158F08A
:1056E00080E891E009F49EEF8ED128F040E851E087
:1056F00059F45EEF09C058C1C0C1E92FE0789BD1D1
:1057000068F3092E052AC1F32617370748075907FA
:1057100038F00E2E07F8E02569F0E025E0640AC0B5
:10572000EF6307F8009407FADB01B9019D01DC0182
:10573000CA01AD01EF9347D06DD10AD05F915523D7
:1057400031F02BED3FE049E450FD49EC63CF089583
:10575000DF93DD27B92FBF7740E85FE31616170602
:1057600048075B0710F4D92F93D19F938F937F93B2
:105770006F93F8D1EEECF0E01AD14CD12F913F911C
:105780004F915F9198D1DD2349F09058A2EA2AED1C
:105790003FE049EC5FE3D0785D274DDFDF913AC110
:1057A000D9D008F481E008950CD034C12CD140F058
:1057B00023D130F021F45F3F19F0F0C051115EC1E8
:1057C000F3C039D198F39923C9F35523B1F3951B4D
:1057D000550BBB27AA2762177307840738F09F5F12
:1057E0005F4F220F331F441FAA1FA9F333D00E2E81
:1057F0003AF0E0E830D091505040E695001CCAF7EE
:1058000029D0FE2F27D0660F771F881FBB1F2617B2
:1058100037074807AB07B0E809F0BB0B802DBF0185
:10582000FF2793585F4F2AF09E3F510568F0B6C09E
:1058300025C15F3FECF3983EDCF38695779567953D
:10584000B795F7959F5FC9F7880F911D9695879536
:1058500097F90895E1E0660F771F881FBB1F621755
:1058600073078407BA0720F0621B730B840BBA0B13
:10587000EE1F88F7E095089504D06894B111FEC03A
:105880000895E1D088F09F5790F0B92F9927B7512C
:10589000A0F0D1F0660F771F881F991F1AF0BA95F4
:1058A000C9F712C0B13081F0E8D0B1E00895E5C089
:1058B000672F782F8827B85F39F0B93FCCF38695EA
:1058C00077956795B395D9F73EF490958095709547
:1058D00061957F4F8F4F9F4F0895E89409C097FBC4
:1058E0003EF490958095709561957F4F8F4F9F4FB7
:1058F0009923A9F0F92F96E9BB279395F6958795FB
:1059000077956795B795F111F8CFFAF4BB0F11F4BD
:1059100060FF1BC06F5F7F4F8F4F9F4F16C0882364
:1059200011F096E911C0772321F09EE8872F762F9A
:1059300005C0662371F096E8862F70E060E02AF0DB
:105940009A95660F771F881FDAF7880F96958795C7
:1059500097F90895990F0008550FAA0BE0E8FEEF9C
:1059600016161706E807F907C0F012161306E40723
:10597000F50798F0621B730B840B950B39F40A261C
:1059800061F0232B242B252B21F408950A2609F4FA
:10599000A140A6958FEF811D811D089597F99F67FE
:1059A00080E870E060E008959FEF80EC0895DF9359
:1059B000CF931F930F93FF92EF92DF927B018C01A5
:1059C000689405C0DA2EEF0176D0FE01E894A59127
:1059D0002591359145915591AEF3EF012CDEFE01F5
:1059E0009701A801DA9479F7DF90EF90FF900F917B
:1059F0001F91CF91DF91089500240A94161617067F
:105A000018060906089500240A94121613061406AF
:105A100005060895092E0394000C11F4882352F012
:105A2000BB0F40F4BF2B11F460FF04C06F5F7F4FCA
:105A30008F4F9F4F089557FD9058440F551F59F0B1
:105A40005F3F71F04795880F97FB991F61F09F3F6B
:105A500079F087950895121613061406551FF2CF94
:105A60004695F1DF08C0161617061806991FF1CFE4
:105A700086957105610508940895E894BB2766270B
:105A80007727CB0197F9089565DF08F48FEF089524
:105A90009B01AC0160E070E080E89FE385CE0BD015
:105AA000B9CFAADF28F0AFDF18F0952309F076CF41
:105AB0007BCF1124E3CFBFDFA0F3959FD1F3950FE8
:105AC00050E0551F629FF001729FBB27F00DB11D82
:105AD000639FAA27F00DB11DAA1F649F6627B00D12
