:100000000C941D020C9445020C9445020C9445027C
:100010000C9445020C9445020C9445020C94E21C8D
:100020000C9445020C9445020C9445020C94760AFB
:100030000C9445020C9445020C9445020C94450224
:100040000C9429270C9445020C94BE2A0C94F02A97
:100050000C9445020C9445020C9445020C94450204
:100060000C94190E0C944502F208120726073C075F
:100070003C075507E5083C073709370937093709B1
:1000800037096A078607BE073709D207B30737095A
:100090003709030837097A089608B9085608370956
:1000A00037093709010909093709370937093C08B0
:1000B0003709370937093709370937093709370940
:1000C0003709370937093709370937091E09084A37
:1000D000D73B3BCE016E84BCBFFDC12F3D6C74315C
:1000E0009ABD56833DDA3D00C77F11BED9E4BB4CB3
:1000F0003E916BAAAABE000000803F07634236B75C
:100100009BD8A71A39685618AEBAAB558C1D3CB7A8
:10011000CC5763BD6DEDFD753EF6177231BF000023
:1001200000803F08000000BE922449123EABAAAAFC
:100130002ABECDCCCC4C3E00000080BEABAAAAAA01
:100140003E00000000BF000000803F0000000000F3
:10015000084178D3BB4387D1133D190E3CC3BD4240
:1001600082AD2B3E68EC8276BED98FE1A93E4C80F1
:10017000EFFFBE01C4FF7F3F0000000000000E0043
:100180000F001000110012001300140015003F06AC
:100190005B4F666D7D077F6F777C395E7971BF86B7
:1001A000DBCFE6EDFD87FFEFF7FCB9DEF9F10040AC
:1001B0007C447C00007C5C547454547C70107C74CF
:1001C000545C7C545C40407C7C547C74547C2000A7
:1001D000000000000030007C82827C00310042FE82
:1001E0000200003200468A92620033004492926C10
:1001F0000034001C64FE04003500F292928C00363C
:10020000007C92924C003700C08E90E00038006C69
:1002100092926C0039006492927C006100042A2A58
:100220001E006200FE12120C0063000C121212007B
:1002300064000C1212FE0065001C2A2A18006600D9
:10024000103E50500067000815151E006800FE1093
:100250001E00006900002E0000006A0002012E004E
:10026000006B00FE081412006C0000FE0200006D1E
:10027000001E100E100E6E001E10100E006F000CEF
:1002800012120C0070001F12120C0071000C1212DE
:100290001F0072001E0810100073001229251200A2
:1002A0007400103E12000075001C02021E00761839
:1002B00004020418007718061C0618007800120CB7
:1002C0000C120079001805051E007A0012161A1289
:1002D0000041007E88887E004200FE92926C0043BE
:1002E000007C828244004400FE82827C004500FE45
:1002F000929282004600FE9090800047007C82929D
:100300005C004800FE1010FE00490082FE820000E2
:100310004A000C0202FC004B00FE1028C6004C00F4
:10032000FE020202004D00FE403040FE4E00FE4044
:100330003008FE4F007C8282827C5000FE909060EC
:100340000051007C828A847A5200FE9894620053A5
:10035000006492924C00540080FE8080005500FCA6
:100360000202FC005600F00C020CF05700FE0438AC
:1003700004FE5800C63838C60059C0201E20C000F0
:100380005A00869AB2C2002C00010E0C00002E000A
:100390000006060000257254781E2A4E2100007ABD
:1003A0000000003F00204A3000002D001010101007
:1003B000002B08083E0808002F00020C3040002ADD
:1003C0002214081422003A0000140000004000002B
:1003D0000000000000000008000201000003040704
:1003E000000000000000000001020408102040800E
:1003F000010204081020010204081020040404046F
:1004000004040404020202020202030303030303BE
:100410000000000023002600290000000000250045
:1004200028002B0000000000240027002A00B4054B
:10043000370DDA17202B0C06DE1711241FBECFEF65
:10044000D8E0DEBFCDBF12E0A0E0B1E0ECEDFCE60D
:1004500002C005900D92A239B107D9F727E0A2E9B1
:10046000B2E001C01D92AF37B207E1F714E0C6E376
:10047000D4E004C02297FE010E94C833CE32D107D7
:10048000C9F70E94642B0C9461360C940000CF9243
:10049000DF92EF92FF920F931F93E82FF92F05C081
:1004A000015011092109310961F1908196239417B6
:1004B000B9F305C0015011092109310911F19081E9
:1004C00096239413F7CFC12CD12CE12CF12C0AC028
:1004D0008FEFC81AD80AE80AF80A0C151D052E0570
:1004E0003F0579F080818623841791F36C2D7D2D53
:1004F0008E2D9F2D1F910F91FF90EF90DF90CF9049
:10050000089560E070E080E090E01F910F91FF900F
:10051000EF90DF90CF90089580ED93E00C94CD1193
:1005200061E08DE00E94B52861E08DE00E94EE2838
:100530006CE271E080E090E00E94A22760E08DE034
:100540000E94EE2826E040E052EC61E070E088ED89
:1005500096E00E945C2A64EF71E080E090E00E94E7
:10056000A22722E330E040E050E064EF71E080ED4C
:1005700093E00E94751162E370E080E090E00E94D9
:10058000A2270E948C0288EA93E00E94661D6DE01B
:1005900087E194E00E94352520E040E060E087E1BB
:1005A00094E00E94002687E194E00E942D2687E6D1
:1005B00093E00C947F1B88ED96E00C94BA2BFC0121
:1005C000EB51FD4F80818093200381818093210333
:1005D00080912003909121030895AAE2B3E0FC01E9
:1005E000EB51FD4F80818C93818180932B0382811D
:1005F00080932C03838180932D036D917D918D9148
:100600009C910895E2EAF2E020E030E08B519D4FAA
:100610002617370744F4DC01A20FB31F4C91419316
:100620002F5F3F4FF5CFFB01EE55FD4F108282EA61
:1006300092E00895E2E9F2E020E030E08B519D4F36
:10064000261737075CF42031310541F0DC01A20F99
:10065000B31F4C9141932F5F3F4FF2CF82E992E05D
:100660000895E1EDF2E020E030E04191519148172A
:10067000590791F0452B41F4F901EE0FFF1FEF529E
:10068000FD4F9183808308C02F5F3F4F2830310595
:1006900061F780E090E00895C9010895BF92CF927C
:1006A000DF92EF92FF920F931F93CF93DF93CDB71B
:1006B000DEB72E970FB6F894DEBF0FBECDBFD09039
:1006C000EB020D2D10E08D30910509F47EC184F50B
:1006D0008830910509F461C014F58330910509F45F
:1006E0005FC1059709F030C286E090E00E94DF020A
:1006F0008C0169E086E394E00E94C424B80186E39B
:1007000094E00E94B11788E090E00E94DF028C0123
:100710006AE086E394E00E94C424B80139C08A30BC
:10072000910519F10CF484C00B9709F45CC00CC25C
:100730008132910509F4DBC164F48E31910509F42D
:10074000A4C18032910509F4AAC1449709F0FCC103
:1007500078C18932910509F483C08233910509F487
:10076000E1C1829709F0F0C1A6C187E090E00E9444
:10077000DF027C0186E394E00E94702490E0801701
:10078000910729F06D2D86E394E00E94C424B701FF
:1007900086E394E00E94B117D7C1E090ED0210917A
:1007A000EE02F090EF020091F0024091EC026D2D0C
:1007B00087E194E00E94ED24EE2049F06FEF6E0D8A
:1007C0002F2D412F87E194E00E94AF2507C0202FF5
:1007D0004F2D612F87E194E00E94002687E194E08D
:1007E0000E942D26B1C18091EC02000F111FF8016B
:1007F000E65FFE4F813011F4E08001C0E180D090CF
:10080000ED0284EB8D1508F49FC1F12CC7010E9405
:1008100031038C01000F111F080F191F065C1B4FBD
:10082000B701C8010E94CC0B6D2D70E0C80177C1E3
:1008300089E094E00E94702490E08017910729F0ED
:100840006D2D89E094E00E94DC1087E090E00E942A
:10085000ED02AB01BC0189E094E00E94FE1074C17E
:1008600084ED93E00E947024282F30E02017310798
:1008700029F06D2D84ED93E00E94D91F8091EC0248
:1008800090E08130910579F5D090ED02B090EE02C4
:100890008AE090E00E94DF028C018CE090E00E94F0
:1008A000DF02C82E6091F30270E08FE090E00E94BA
:1008B00002037C0184ED93E00E94B81F61E0B11057
:1008C00001C060E084ED93E00E9402206D2D84ED74
:1008D00093E00E94CE1F97014C2DB80184ED93E068
:1008E0000E94FC2131C18230910579F5E090ED0242
:1008F0002091EE028AE090E02D870E94DF02F82E20
:100900008CE090E00E94DF02482FE091F3026E2F0E
:1009100070E08FE090E04E870E941A038C0184ED16
:1009200093E00E94B81F61E084ED93E00E940220F2
:100930006E2D84ED93E00E94CE1F2D854E856F2D88
:1009400084ED93E00E940520FFC0039709F0FCC0EE
:10095000F090ED020091EE028AE090E00E94DF024A
:10096000182F8CE090E00E94DF02482F84ED93E086
:100970004E870E94B81F61E084ED93E00E94022040
:100980006F2D84ED93E00E94CE1F21E04E85011172
:1009900001C020E0612F84ED93E00E943722D4C093
:1009A00085E094E00E947024282F30E02017310762
:1009B00029F06D2D85E094E00E94C42461E08091CF
:1009C000EC02811154C060E052C065E872E0CE01D3
:1009D00007960E94292E0091E70210E003501109AA
:1009E0006BEEC62E62E0D62EE12CF12CE016F1065D
:1009F0005CF4F60161916F01CE0107960E94A32E6F
:100A0000FFEFEF1AFF0AF2CFBE01695F7F4FCE0101
:100A100001960E94562EBE016F5F7F4F88EA93E0D9
:100A20000E94CA1ECE0101960E94BB2D65E872E0AD
:100A3000CE0107960E945F2ECE0107960E94BB2D25
:100A400083C085E094E00E947024282F30E02017B6
:100A5000310729F06D2D85E094E00E94C424609157
:100A6000EC02862F90E08230910534F4617085E0CD
:100A700094E00E94982468C061E0029709F460E065
:100A800085E094E00E94A8245FC061E08D2D0E9463
:100A9000B5286091EC028D2D0E94EE2855C061E0D2
:100AA0008D2D0E94B5282091EC02622F70E08D2DD3
:100AB0000E942D2849C086E090E00E94DF028C0150
:100AC00088E090E00E94DF02101611065CF49C01A1
:100AD000442737FD4095542FB80180ED93E00E94E4
:100AE000751132C080ED93E00E94CD112DC0D090E1
:100AF000EC0284EB8D1540F1C8010E9431037C01AA
:100B0000EE0CFF1CE80EF91EF701E65CFB4F7F01BF
:100B1000B801CF010E94CC0B6D2D70E0C7010E947F
:100B2000050C12C00E9473270E942E3020E030E096
:100B30004AE754E40E94952F6093C0027093C1026B
:100B40008093C2029093C3022E960FB6F894DEBF34
:100B50000FBECDBFDF91CF911F910F91FF90EF900E
:100B6000DF90CF90BF900895CF93DF93CAE3D4E096
:100B7000CE010E94320B239684E0C235D807C1F71C
:100B800086E394E00E94AE1784E294E00E944D2632
:100B90004EE160E087E194E00E947D2583E194E0EE
:100BA0000E94D92689E094E00E94460F85E094E0F7
:100BB0000E944B2484ED93E00E94831F80ED93E01C
:100BC0000E946F1188EA93E00E94791D87E693E006
:100BD0000E94161883E693E00E94091F8CE393E0BD
:100BE0000E94D21186E393E00E94FF1B82E393E010
:100BF0000E94E2178EE293E00E94FC1761E271E02E
:100C00008AE193E00E94292E65E872E084EC92E08C
:100C1000DF91CF910C94292E84EC92E00E94BB2DA1
:100C20008AE193E00E94BB2D82EC93E00E94BB2DF1
:100C30008CEB93E00E94BB2D87E194E00C9441265D
:100C4000682F88ED96E00C94F7298FEF0E9420061C
:100C500085E50C9420068FEF0E94200685E50E9412
:100C600020060C94DB02CF93C82F81E00E9420065F
:100C70008C2FCF910C942006EF92FF920F931F932D
:100C8000CF93DF937C01FC01C4810C2F158184E09C
:100C90000E9420068C2F0E942006C0E0D0E0C017E2
:100CA000D10744F4BE01C7010E94C72E0E9420064E
:100CB0002196F5CFDF91CF911F910F91FF90EF908B
:100CC0000895FF920F931F93CF93DF931F92CDB799
:100CD000DEB78B01F82E82E099830E942006A801DE
:100CE0006F2D9981792F40932A0350932B036093A2
:100CF0002C0370932D03802F0E94200680912B03DC
:100D00000E94200680912C030E94200680912D03D2
:100D10000F90DF91CF911F910F91FF900C942006BF
:100D2000CF92DF92EF92FF926B017C0183E00E94F1
:100D30002006C701B6010E94FD2F862F262F372FD0
:100D400030932103209320030E94200680912103E9
:100D50000E942006809122030E9420068091230396
:100D6000FF90EF90DF90CF900C942006FF920F93AE
:100D70001F93CF93DF931F92CDB7DEB78B01F82E71
:100D800085E099830E942006A8016F2D9981792F13
:100D9000409322035093230360932403709325030D
:100DA000802F0E942006809123030E9420068091BC
:100DB00024030E942006809125030E942006809132
:100DC00026030E942006809127030E94200680911E
:100DD00028030E942006809129030F90DF91CF9174
:100DE0001F910F91FF900C942006CF92DF92EF920B
:100DF000FF920F931F93CF93DF93CDB7DEB7279763
:100E00000FB6F894DEBF0FBECDBFD090EB020D2D14
:100E100010E08333910508F02AC2FC01EC5CFF4F1F
:100E20000C94C63383E194E00E94702490E0801714
:100E3000910729F06D2D83E194E00E94C42460E5C0
:100E400073EC83E194E00E94142700C2F090EC025E
:100E500084E294E00E94702490E08017910709F0EA
:100E6000F8C184E294E00E9473248F11F2C184E2FD
:100E700094E00E946B26EAC185E094E00E94702411
:100E800090E08017910761F06D2D85E094E00E945D
:100E9000C42485E094E00E94EA2460E00E94B52822
:100EA00085E094E00E94BC24C1C1F090EC0283E68E
:100EB00093E00E94702490E08017910729F06D2D37
:100EC00083E693E00E94C4246F2D83E693E00E94A2
:100ED0000C1FACC18091CA02882309F4C8C164EC1C
:100EE00072E0CE0101960E94562ECE0101960E941C
:100EF0003C06CE0101960E94BB2D1092CA0265E805
:100F000072E084EC92E00E945F2EB1C11091EC027D
:100F10000E9473270E942E3020E030E04AE754E41C
:100F20000E94952F2091B8023091B9024091BA02E7
:100F30005091BB020E94CA2E2DEC3CEC4CE45EE3C7
:100F40000E94583118165CF04091CB02552747FD9E
:100F50005095212F30E081E04217530709F080E0DF
:100F60000E94330606C08091CB020E943306109285
:100F7000CB021092CD021092CC0279C185E094E0B0
:100F80000E94702490E08017910709F469C06D2DCC
:100F900085E094E00E94C42485E094E00E94EA2465
:100FA00060E05CC085E094E00E94702490E08017CF
:100FB000910799F06D2D85E094E00E94C42485E0AE
:100FC00094E00E94E72460E00E94B52885E094E068
:100FD0000E94EA2460E00E94B52860E085E094E089
:100FE0000E947624182F60E085E094E00E94872418
:100FF000612F70E0660F771F680F711D882777FDDE
:101000008095982F18C1C090EC02EC2CF12C85E053
:1010100094E00E94702490E08017910709F020C1AD
:1010200085E094E00E94732490E08E159F0509F0FE
:1010300017C1EA94EF2869F485E094E00E94E72460
:1010400062E00E94B52860E085E094E00E9476248A
:101050000CC085E094E00E94EA2462E00E94B5287A
:1010600060E085E094E00E948724682F70E080E0D3
:1010700090E00E942E30EAC0F801EE0FFF1FE25808
:10108000FE4F0491F090EC0260E0802F0E94B528A2
:10109000802F0E94102811E00B970CF010E0812F98
:1010A0008F250E9433061093B702E1C08CE393E0D2
:1010B0000E94702490E080179107A9F06D2D8CE3B9
:1010C00093E00E94C4248CE393E00E94EA24482F1A
:1010D0008CE393E04F830E94E7244F81682F8CE3D9
:1010E00093E00E9493168CE393E00E949C160E946A
:1010F000B606BDC0F090EC0286E393E00E94702437
:10110000282F30E02017310729F06D2D86E393E07A
:101110000E94C42486E393E00E94021C6F2D86E3A4
:1011200093E00E94DB1C0E943306A1C082E393E09F
:101130000E947024282F30E020173107A9F06D2D70
:1011400082E393E00E94C42482E393E00E94E724B8
:10115000482F82E393E04F830E94EA244F81682F57
:1011600082E393E00E94E51782E393E00E94FA177E
:1011700022C08EE293E00E947024282F30E02017D6
:101180003107A9F06D2D8EE293E00E94C4248EE217
:1011900093E00E94E724482F8EE293E04F830E9461
:1011A000EA244F81682F8EE293E00E94FF178EE2BF
:1011B00093E00E941418BC01882777FD8095982F32
:1011C0000E9430300E94900652C06091EC0287E687
:1011D00093E06F830E948F186F8187E693E00E94EF
:1011E000231834C06AE173E0CE0101960E94562EA6
:1011F000CE0101960E943C06CE0101960E94BB2DB5
:1012000036C060E08D2D0E94B5288D2D0E942429C6
:101210000DC0F801EE0FFF1FE258FE4F049160E091
:10122000802F0E94B528802F0E941028BC0188279B
:1012300077FD8095982F0E94303008C06091BC02E5
:101240007091BD028091BE029091BF020E94610622
:101250000EC04F2D6D2D84E294E00E94582607CEDB
:101260004C2D6D2D85E094E00E94D424E2CE27968B
:101270000FB6F894DEBF0FBECDBFDF91CF911F91A7
:101280000F91FF90EF90DF90CF9008950F931F93F1
:10129000CF93DF931F92CDB7DEB71092E202809119
:1012A000E8020091EA0210E09091E9029230C1F068
:1012B00090F49130C1F589830E94250689810E94AE
:1012C0002006C8010E94F5060F90DF91CF911F9173
:1012D0000F910C94DB02943039F09530E9F023C083
:1012E000C8010E944E0318C069E086E394E00E94A2
:1012F000C42460E070E086E394E00E94B1176AE0E5
:1013000086E394E00E94C42460E070E086E394E009
:101310000E94B1170E948C020F90DF91CF911F9114
:101320000F910C942B060F90DF91CF911F910F918D
:1013300008951092190388ED96E00E9479291816F5
:1013400019064CF481E08093190388ED96E00E9421
:1013500092298093E10208950E9473270E942E3003
:1013600020E030E04AE754E40E94952F2091C0022B
:101370003091C1024091C2025091C3020E94CA2E14
:101380006093BC027093BD028093BE029093BF0233
:1013900088EA93E00E94141E892B09F443C08091CF
:1013A000AB038093CB020E9473270E942E3020E073
:1013B00030E04AE754E40E94952F6093B80270939E
:1013C000B9028093BA029093BB0281E08093B60287
:1013D0006091CB026A3011F06D3041F41092CD0271
:1013E0001092CC0281E08093CA022EC084EC92E07D
:1013F0000E94A32E8091CC029091CD02019681345F
:1014000091052CF49093CD028093CC021DC01092D4
:10141000CD021092CC0265E872E084EC92E00E946A
:101420005F2E12C08091CE029091CF0201969093D0
:10143000CF028093CE022091CB0212164CF4893851
:10144000934134F01092CB021092CF021092CE0250
:101450000E94990980911903882309F446C080915C
:10146000E1029091E202853561F491110AC0809108
:10147000D0028F3FE1F481E08093E4028093E202A6
:1014800016C08093D002992391F0E091E402E230FB
:1014900019F48093E30207C0E33028F09091E3024F
:1014A00091509093E302F0E0EB51FD4F80838091E7
:1014B000E4028F5F843318F48093E40204C0109236
:1014C000E4021092E2028091E202882371F080919E
:1014D000E30281110AC08091E402843030F010925E
:1014E000E2020E9446091092E40208951F920F92B0
:1014F0000FB60F9211242F933F934F935F936F93E7
:101500007F938F939F93AF93BF93EF93FF938091BC
:10151000530487FF05C010928500109284001AC002
:1015200020915304332727FD30958091520490E099
:10153000281739077CF480915304992787FD9095EB
:10154000FC01EE0FFF1FE80FF91FEC5AFB4F8081E3
:1015500086FD15C0809153048F5F809353042091C2
:101560005304332727FD30958091520490E02817CB
:101570003907BCF4809153048C305CF112C0809127
:101580005304992787FD9095FC01EE0FFF1FE80F8C
:10159000F91FEC5AFB4F808160E08F730E94EE28A8
:1015A000D9CF8091840090918500049680349C4925
:1015B00018F480E49CE905C0809184009091850036
:1015C000049690938900809388008FEF8093530452
:1015D00038C0209184003091850080915304992770
:1015E00087FD9095FC01EE0FFF1FE80FF91FEC5AE5
:1015F000FB4F81819281820F931F9093890080938A
:10160000880080915304992787FD9095FC01EE0F87
:10161000FF1FE80FF91FEC5AFB4F808186FF11C0B6
:1016200080915304992787FD9095FC01EE0FFF1FD1
:10163000E80FF91FEC5AFB4F808161E08F730E9425
:10164000EE28FF91EF91BF91AF919F918F917F9184
:101650006F915F914F913F912F910F900FBE0F901F
:101660001F901895209152042C30A0F431E0320FD5
:1016700030935204FC012083822F90E0FC01EE0F96
:10168000FF1FE80FF91FEC5AFB4F88EB9BE092839A
:10169000818308952FEFFC0120830895DF92EF925C
:1016A000FF920F931F93CF93DF93EC01D62E7A0115
:1016B000890188818C3008F066C061E08D2D0E9420
:1016C000B5288881A82FB0E0FD01EE0FFF1FEA0FBB
:1016D000FB1FEC5AFB4F2D2D2F739081907C922B8A
:1016E000908360E272E06E197F0977FF02C06D5F40
:1016F0007F4F7595679575956795698340E659E0C5
:10170000401B510B57FF02C04D5F5F4F55954795EA
:10171000559547954A836CE00E9451339CE0899F20
:10172000B001112420E030E0A901460F571FFA0153
:10173000EE0FFF1FE40FF51FEC5AFB4F908196FD53
:1017400016C02F5F3F4F2C30310571F781110FC04C
:101750001092800082E080938100109285001092A8
:101760008400B19A80916F00826080936F008881BD
:1017700090E0FC01EE0FFF1FE80FF91FEC5AFB4F42
:101780008081806480838881DF91CF911F910F9148
:10179000FF90EF90DF90089520E639E040E252E0BC
:1017A0000C944E0BFC0180818C3070F5918128E8FF
:1017B00030E0291B310997FD3395220F331F220F8B
:1017C000331F621773077CF0928128E532E0291BF2
:1017D000310997FD3395220F331F220F331F6217F4
:1017E00073070CF49B0122503109220F331F4FB7AE
:1017F000F89490E0FC01EE0FFF1FE80FF91FEC5A80
:10180000FB4F328321834FBF08954F925F926F92B7
:101810007F92AF92BF92CF92DF92EF92FF920F939F
:101820001F93CF93DF93EC01603282E078070CF0D6
:1018300040C077FD06C0653B71052CF064EB70E09D
:1018400002C060E070E0898128E830E0281B31099F
:1018500087FD3395220F331F220F331F5901CC24EC
:10186000B7FCC094DC2C882777FD8095982F2A81BF
:1018700048E552E0421B510927FD5395440F551F7F
:10188000440F551F2A01662457FC6094762C7F92E2
:101890006F925F924F9214EBE12EF12C00E010E07A
:1018A00020E030E0A9010E94742D0F900F900F905E
:1018B0000F90CE01DF91CF911F910F91FF90EF908C
:1018C000DF90CF90BF90AF907F906F905F904F90E0
:1018D0000C94D20B8091A80490E02091A904821B63
:1018E000910908952091A9048091A804281750F423
:1018F000E22FF0E0E655FB4F808190E02F5F2093D0
:10190000A90408958FEF9FEF0895E091A9048091B5
:10191000A804E81730F4F0E0E655FB4F808190E032
:1019200008958FEF9FEF08950895CF92DF92EF9281
:10193000FF920F931F93CF93DF937C01CB018A011A
:1019400020918404222389F0EB016B01C40ED51E83
:10195000CC15DD0569F06991D701ED91FC910190FD
:10196000F081E02DC7010995F3CF642F0E94F00D9F
:10197000C801DF91CF911F910F91FF90EF90DF9001
:10198000CF900895CF93DF931F92CDB7DEB76983D1
:10199000209184042223D1F020918504203240F04C
:1019A00021E030E0FC013383228380E090E015C029
:1019B00080918604E82FF0E0E957FB4F99819083EE
:1019C0008F5F809386048093850405C061E0CE011B
:1019D00001960E94F00D81E090E00F90DF91CF9191
:1019E0000895FC011382128248EE53E060E070E03B
:1019F00044835583668377838DE291E0918380836E
:101A000008951092A9041092A804109286041092CE
:101A100085040C943B0D862F413208F040E26AEABF
:101A200074E00E94590D1092A9048093A8040895AF
:101A300081E0809384046093A7041092860410923E
:101A4000850408950C94180D0F93062F21E0409102
:101A5000850467E874E08091A7040E949D0D1092B0
:101A6000860410928504109284040F91089588E7EB
:101A700094E00C94F10C1092370581E080933505C9
:101A80001092340561E082E10E94EE2861E083E17A
:101A90000E94EE28E9EBF0E080818E7F80838081D8
:101AA0008D7F808388E48093B80085E48093BC00B8
:101AB0000895413208F03FC0909137059111FCCF55
:101AC00091E090933705209335052FEF2093CA04BA
:101AD00010920F05240F20930E05909336059091D8
:101AE0003605880F892B8093360580913405813027
:101AF00041F410923405809136058093BB0085EC4B
:101B000001C085EE8093BC00809137058130E1F300
:101B100080910F05841710F440910F0520E135E006
:101B2000FB01D9018A2F821B841718F48D918193B0
:101B3000F9CF842F089580E008950F93413208F083
:101B400046C0909137059111FCCF92E090933705F4
:101B5000009335059FEF9093CA0410920F054093B0
:101B60000E05FB0160E175E0DB019A2F961B9417CF
:101B700018F491919D93F9CF109236059091360506
:101B8000880F892B8093360580913405813041F48C
:101B900010923405809136058093BB0085EC01C01E
:101BA00085EE8093BC00222321F08091370582309E
:101BB000E1F38091CA048F3F61F08091CA048032C2
:101BC00051F08091CA04803341F483E007C081E082
:101BD00005C080E003C082E001C084E00F91089559
:101BE000613298F420913705243089F46093EC0435
:101BF000FC018EEE94E0DC012A2F281B261718F436
:101C000021912D93F9CF80E0089581E0089582E03D
:101C1000089585ED8093BC008091BC0084FDFCCFCD
:101C200010923705089585EC8093BC00109237051B
:101C300008951F920F920FB60F9211242F933F9386
:101C40004F935F936F937F938F939F93AF93BF93C4
:101C5000EF93FF938091B900887F803609F49CC090
:101C600068F5883209F45BC090F4803109F454C0FF
:101C700038F4882309F4F5C0883009F44DC0F5C064
:101C8000883109F44CC0803209F45DC0EEC0803464
:101C900009F468C048F4803309F455C0883309F06A
:101CA000E4C08093CA04A8C0803509F44FC08835C9
:101CB00009F45DC0883409F0D8C0D5C0883909F46A
:101CC000C6C0A8F4883709F467C038F4883609F428
:101CD00063C0803709F460C0C8C0883809F4B7C051
:101CE000803909F45FC0803809F0BFC05BC0803B19
:101CF00009F485C038F4803A09F466C0883A09F4DA
:101D00007EC0B3C0803C09F4A6C0883C09F4A3C0DF
:101D1000883B09F489C0A9C08091360510C0909114
:101D20000F0580910E05981770F5E0910F0581E081
:101D30008E0F80930F05F0E0E05FFA4F8081809373
:101D4000BB0085EC85C08093CA048DC0E0910F056F
:101D500081E08E0F80930F058091BB00F0E0E05F83
:101D6000FA4F808390910F0580910E056DC0E09130
:101D70000F0581E08E0F80930F058091BB00F0E08E
:101D8000E05FFA4F80838091350581116CC081E05E
:101D90008093340584EA60C083E080933705109215
:101DA000CB04CFCF8091CB04803208F050C0E091BB
:101DB000CB0481E08E0F8093CB048091BB00F0E0D8
:101DC000E453FB4F8083BDCF8091CB04803230F44D
:101DD000E091CB04F0E0E453FB4F10820E94090E27
:101DE0006091CB0470E0E0913005F09131058CEC0E
:101DF00094E009951092CB040E94130E36C084E043
:101E0000809337051092ED041092EC04E0913205B6
:101E1000F091330509958091EC04811105C081E0B2
:101E20008093EC041092EE04E091ED0481E08E0FBB
:101E30008093ED04F0E0E251FB4F80818093BB0082
:101E40009091ED048091EC04981708F47ACF85E81E
:101E50008093BC000AC085EC8093BC0010923705CB
:101E600004C01092CA040E94090EFF91EF91BF9125
:101E7000AF919F918F917F916F915F914F913F9122
:101E80002F910F900FBE0F901F9018950C944B241C
:101E90000F931F93CF93DF93EC01062F18E060E0C0
:101EA00088850E94EE2800FF02C061E001C060E06A
:101EB00089850E94EE28069561E088850E94EE28BB
:101EC000115069F760E088850E94EE2861E08985FD
:101ED0000E94EE2861E088850E94EE2860E08985F6
:101EE0000E94B52818EC89850E942429892B59F075
:101EF0001150C9F761E089850E94B52860E08985A5
:101F00000E94EE28EFCF61E08985DF91CF911F918C
:101F10000F910C94B528CF93DF93EC0161E0888595
:101F20000E94EE2861E089850E94EE2860E08985A4
:101F30000E94EE2860E08885DF91CF910C94EE2816
:101F4000CF93DF93EC0160E088850E94EE2860E08B
:101F500089850E94EE2861E088850E94EE2861E074
:101F60008985DF91CF910C94EE28CF92DF92FF927A
:101F70000F931F93CF93DF931F92CDB7DEB76C0102
:101F8000F62E79830E948B0F60E4C6010E94480FF1
:101F9000C6010E94A00FC6010E948B0FF601658149
:101FA000C6010E94480F0F2D7981172F84E0F82E6B
:101FB000F80161918F01C6010E94480FFA94C1F7A0
:101FC000C6010E94A00FC6010E948B0FF601668118
:101FD000C6010E94480FC6010F90DF91CF911F915B
:101FE0000F91FF90DF90CF900C94A00F4F925F92D3
:101FF0006F927F928F929F92AF92BF92CF92DF9219
:10200000EF92FF920F931F93CF93DF9300D000D0F6
:10201000CDB7DEB76A017B01890137FD48C0B90140
:102020006F5F7F4F882777FD8095982F0E94303013
:102030009B01AC0160E070E080E291E40E94C63157
:102040004B015C019B01AC01C701B6010E94952FB9
:102050000E946B302B013C01B801882777FD8095E9
:10206000982F0E9430309B01AC0160E070E080E26C
:1020700091E40E94C63169837A838B839C83A50196
:102080009401C301B2010E9463319B01AC01C701FD
:10209000B6010E94CA2E29813A814B815C810E943F
:1020A000952F0E946B300E94FD2FCB011FC088240A
:1020B0009924821A930AA12CB12C20E030E040E24E
:1020C00051E4C701B6010E9463316B017C018FEFBF
:1020D000A81AB80AA814B90484F3C701B6010E946B
:1020E000FD2FCB016AE070E00E9471330F900F90DA
:1020F0000F900F90DF91CF911F910F91FF90EF9074
:10210000DF90CF90BF90AF909F908F907F906F9017
:102110005F904F900895DB0180E090E22C91223295
:1021200008F09C93EC91F0E0E257FE4FE491ED93C0
:102130008F5F843099F70895EF92FF920F931F936A
:10214000CF93DF9300D000D0CDB7DEB78C01DB0199
:10215000FE013196CE0105967F012D912193E8175E
:10216000F907D9F7B701C8010E948B10B701C80160
:102170000E94B50F0F900F900F900F90DF91CF91AD
:102180001F910F91FF90EF900895CF93DF9300D0B0
:1021900000D0CDB7DEB720E229832A832B832C839E
:1021A000BE016F5F7F4F0E949C100F900F900F90A9
:1021B0000F90DF91CF910895CF93DF93EC016A8365
:1021C000E62FF0E0EE0FFF1FE65FFE4F818189836F
:1021D000908198838887998761E00E94B52861E0A3
:1021E00089850E94B52880E48C8380EC8D838AE801
:1021F0008E83CE01DF91CF910C94C5108F929F9268
:10220000AF92BF92CF92DF92EF92FF920F931F9304
:10221000CF93DF9300D000D0CDB7DEB75C016A0169
:102220007B0119821A821B821C8220E030E0A90106
:10223000C701B6010E94912F87FF09C0F7FAF094F9
:10224000F7F8F09481E289839924939401C0912C4A
:1022500003E010E0812C9801B701A601C5010E949E
:10226000F60F181619062CF0002319F08820B9F083
:102270000CC001110AC0E1E0F0E0EC0FFD1FE90D18
:10228000F11D20E1280F208307C0E1E0F0E0EC0F12
:10229000FD1FE90DF11D808393948824839483E0CE
:1022A000891530F0015011090C3F8FEF180799F68E
:1022B000BE016F5F7F4FC5010E949C100F900F9071
:1022C0000F900F90DF91CF911F910F91FF90EF90A2
:1022D000DF90CF90BF90AF909F908F9008950E9415
:1022E0004B2488E08093380508954F925F926F9257
:1022F0007F928F929F92AF92BF92CF92DF92EF9296
:10230000FF92CF93DF9369017A019B0140E050E097
:1023100060E472E48FE090E00E94A733F901E901E4
:1023200037FD2196D595C795A8EEB3E0A701960194
:102330000E94DB334B015C01C12CD12C76012F01B3
:10234000662457FC6094762CC814D904EA04FB0474
:10235000A8F461E0809138050E94EE28CE010E9429
:10236000CA2760E0809138050E94EE28CE010E94C5
:10237000CA27C40CD51CE61CF71CE6CFDF91CF9111
:10238000FF90EF90DF90CF90BF90AF909F908F9095
:102390007F906F905F904F90089560E08091380536
:1023A0000C94EE28CF93DF93EC0160E00E9454245C
:1023B0008EE18B871C82DF91CF910895AF92BF92FF
:1023C000CF92DF92EF92FF920F931F93CF93DF9301
:1023D000CDB7DEB76A970FB6F894DEBF0FBECDBF9C
:1023E0008C01CE0101967C01C12CD12C5C01C6016F
:1023F0000E941436F70181937F01FFEFCF1ADF0AA5
:102400008AE1C816D10499F72D813E814F81588504
:1024100069817A818B819C810E94CB2E29853A85A6
:102420004B855C850E94CB2E2D853E854F85588936
:102430000E94CB2E29893A894B895C890E94CB2E38
:102440002D893E894F89588D0E94CB2E6B017C01CE
:10245000698D70E080E090E00E9430309B01AC011B
:10246000C701B6010E94CB2E20E030E04AE253E4DF
:102470000E94CB2E0E9402308A8D681312C069E33D
:1024800071E088ED96E00E94BE2B8AE1F501D8014B
:102490001D9601900D928A95E1F781E0F801848301
:1024A00008C062E571E088ED96E00E94BE2BF8015D
:1024B00014826A960FB6F894DEBF0FBECDBFDF91CF
:1024C000CF911F910F91FF90EF90DF90CF90BF9031
:1024D000AF900895CF92DF92EF92FF920F931F93E8
:1024E000CF93DF938C01EB012C813D814E815F8185
:1024F000688179818A819B810E94CB2E28853985CC
:102500004A855B850E94CB2E2C853D854E855F8557
:102510000E94CB2E288939894A895B890E94CB2E5B
:102520002C893D894E895F890E94CB2E6B017C01ED
:10253000688D70E080E090E00E9430309B01AC013B
:10254000C701B6010E94CB2E20E030E04AE253E4FE
:102550000E94CB2E0E940230698FE12CF12C6991F0
:10256000C7010E941C368FEFE81AF80AEAE1EE165E
:10257000F104A9F781E0F80184836CE671E088ED4D
:1025800096E0DF91CF911F910F91FF90EF90DF9038
:10259000CF900C94BE2BEF92FF921F93CF93DF93BB
:1025A0001F92CDB7DEB7162F7A01FC01638588E74D
:1025B00094E029830E94180D612F88E794E00E941F
:1025C000C20C2981813091F4422F50E0B70188E795
:1025D00094E00E94950C61E088E794E00F90DF9111
:1025E000CF911F91FF90EF900C94240D8FEF0F90DF
:1025F000DF91CF911F91FF90EF900895CF93DF93DC
:102600001F92CDB7DEB7498321E0AE014F5F5F4F28
:102610000E94CB120F90DF91CF910895EF92FF921D
:102620000F931F93CF93DF93EC01F62E8A01E22ED6
:102630006B8588E794E00E94180D6F2D88E794E081
:102640000E94C20C813001F560E088E794E00E94AE
:10265000240D81112EC081E090E00E94CA2721E064
:102660004E2D6B8588E794E00E940B0DE80100E099
:1026700010E0F12C88E794E00E946A0C892B31F07D
:102680000E151F0574F002C08FEF13C081E090E0BB
:102690000E94CA2781E00E151F0509F480E081958C
:1026A00008C00F5F1F4F88E794E00E94720C899367
:1026B000E1CFDF91CF911F910F91FF90EF9008959F
:1026C000CF93DF93EC01AC014B5F5F4F23E06AE0F7
:1026D0000E940E1381110AC08D81883439F48E81D5
:1026E000843321F481E09F81933309F080E0DF910E
:1026F000CF910895CF92DF92EF92FF920F931F93A5
:10270000CF93DF93EC016B018A0179010E94C5131D
:10271000AE014B5F5F4F26E063E0CE010E940E13D7
:10272000882321F0992787FD909526C08C858130DC
:1027300031F441E062E070E0CE010E94FE128D8132
:1027400090E0982F88272E81822BF6019183808339
:10275000898590E0982F88272A85822BF80191831C
:1027600080838F8190E0982F88272885822BF7011E
:102770009183808380E090E0DF91CF911F910F9152
:10278000FF90EF90DF90CF9008952F923F924F925D
:102790005F926F927F928F929F92AF92BF92CF92F1
:1027A000DF92EF92FF920F931F93CF93DF93CDB7FA
:1027B000DEB76C970FB6F894DEBF0FBECDBF8C01AD
:1027C00062E00E94762481116EC26AE070E080E0CF
:1027D00090E00E94A22762E0C8010E947624811145
:1027E00062C2C8010E946013811107C06BE871E0EA
:1027F00088ED96E00E94BE2B56C265EA71E088ED36
:1028000096E00E94BE2B0E9473276B017C01712C05
:10281000BB24B39462E0C8010E94762481111BC0DE
:102820000E9473276C197D098E099F09693C710507
:102830008105910578F30E9473276B017C017B244D
:10284000672DC8010E94A8246DEB71E088ED96E029
:102850000E94BE2BDFCF67ED71E088ED96E00E940D
:10286000BE2B64E670E080E090E00E94A2270E9408
:1028700073274B015C012FEF3FE7388B2F8740E038
:1028800050E85E874D878FEF9FE79C878B87E0E05E
:10289000F0E8FA87E98738872F83212C50E8352E16
:1028A000662463940E9473276C197D098E099F0921
:1028B000693C71058105910548F00E9473276B0101
:1028C0007C017624672DC8010E94A8240E947327EA
:1028D000681979098A099B096B3071058105910591
:1028E000E0F19E012F5F3F4FAE014D5F5F4FBE0194
:1028F0006B5F7F4FC8010E947A138D819E814F814B
:102900005885841795072CF02816390624F41C01E5
:1029100002C098878F838B819C81EB85FC858E1705
:102920009F0744F029853A85281739072CF49A87A0
:10293000898702C09C878B8789819A814F855889B6
:102940008417950744F0ED85FE85E817F9072CF408
:102950009E878D8702C0988B8F8762E0C8010E9496
:10296000762481119FCF60E0C8010E94A824B101A4
:10297000882777FD8095982F0E9430306B017C016D
:102980002F813885B901882777FD8095982F0E947F
:102990003030698B7A8B8B8B9C8B9B01AC01C70190
:1029A000B6010E94CB2E905820E030E040E05FE37B
:1029B0000E946331F801658776878787908B298528
:1029C0003A85B901882777FD8095982F0E9430308D
:1029D0002B013C014B855C85BA01882777FD8095EA
:1029E000982F0E9430306D8B7E8B8F8B988F9B0140
:1029F000AC01C301B2010E94CB2E905820E030E020
:102A000040E05FE30E946331F801618B728B838B3E
:102A1000948B2D853E85B901882777FD8095982F69
:102A20000E9430304B015C014F855889BA018827DC
:102A300077FD8095982F0E943030698F7A8F8B8F29
:102A40009C8F9B01AC01C501B4010E94CB2E905814
:102A500020E030E040E05FE30E946331F801658BE5
:102A6000768B878B908F80E090E0A0E8BFE3818F2A
:102A7000928FA38FB48F29893A894B895C89C701CA
:102A8000B6010E94CA2E6B017C012D893E894F89B7
:102A9000588DC301B2010E94CA2EA70196010E945F
:102AA000952FF801658F768F878F90A3298D3A8DAA
:102AB0004B8D5C8DC501B4010E94CA2EA701960101
:102AC0000E94952FF80161A372A383A394A32F8181
:102AD0003885221A330A37FE03C031942194310815
:102AE00089859A854B855C85841B950B97FF03C070
:102AF0009195819591092D853E85EF85F8892E1B4D
:102B00003F0B37FF03C0319521953109821593059D
:102B10002CF02215330514F081E009C0281639067F
:102B20002CF02817390714F082E001C083E0F80187
:102B300085A36DEE71E088ED96E00E94BE2B6AE001
:102B400072E088ED96E00E94B12BF801458556852C
:102B50006785708921E030E088ED96E00E94722D53
:102B60006BE372E088ED96E00E94BE2B68E172E0B4
:102B700088ED96E00E94B12BF80141895289638962
:102B8000748921E030E088ED96E00E94722D6BE3BD
:102B900072E088ED96E00E94BE2B66E272E088ED5E
:102BA00096E00E94B12BF801458956896789708D9E
:102BB00021E030E088ED96E00E94722D6BE372E038
:102BC00088ED96E00E94BE2B64E372E088ED96E00B
:102BD0000E94B12BF801418D528D638D748D21E0DF
:102BE00030E088ED96E00E94722D6BE372E088ED94
:102BF00096E00E94BE2B6DE372E088ED96E00E94A5
:102C0000B12BF801458D568D678D70A121E030E024
:102C100088ED96E00E94722D6BE372E088ED96E0FD
:102C20000E94BE2B66E472E088ED96E00E94B12B14
:102C3000F80141A152A163A174A121E030E088ED27
:102C400096E00E94722D6BE372E088ED96E00E94A0
:102C5000BE2B6FE472E088ED96E00E94B12B4AE053
:102C600050E0F80165A188ED96E00E94802C6BE3AE
:102C700072E088ED96E00E94BE2BB801635F7F4F43
:102C8000C8010E946A1261E0C8010E94A82462E0A3
:102C9000C8010E9476248823D1F364E670E080E0C6
:102CA00090E00E94A2276C960FB6F894DEBF0FBE8C
:102CB000CDBFDF91CF911F910F91FF90EF90DF90EB
:102CC000CF90BF90AF909F908F907F906F905F90CC
:102CD0004F903F902F900895CF93DF93EC0188E7BA
:102CE00094E00E94010D61E0CE010E94A82440E71B
:102CF00060E070E0CE010E94FE1240E261E070E010
:102D0000CE010E94FE1281E08C8741E062E070E01B
:102D1000CE010E94FE12CE010E94DE11CE01DF9193
:102D2000CF910C94C51360933A0540933905FC018B
:102D3000608341830C946C162F923F924F925F9266
:102D40006F927F928F929F92AF92BF92CF92DF92BB
:102D5000EF92FF920F931F93CF93DF93CDB7DEB720
:102D600062970FB6F894DEBF0FBECDBF8C010E94F4
:102D7000C5139E012F5F3F4FAE014D5F5F4FBE01F8
:102D80006B5F7F4FC8010E947A13882349F0682F38
:102D9000772767FD7095872F972F0E943030C5C029
:102DA000F80184812D803E802B813C8138872F83E0
:102DB000882309F478C04584568467847088818CA0
:102DC000928CA38CB48CB901882777FD8095982FBD
:102DD0000E943030F80121893289438954890E9448
:102DE000CB2EF801258D368D478D50A10E94633181
:102DF0000E94FD2F6F83788789879A8769817A81FE
:102E0000882777FD8095982F0E943030F80125891A
:102E100036894789508D0E94CB2EF80121A132A11D
:102E200043A154A10E9463310E94FD2F6B877C87D0
:102E30008D879E87F80115A1113041F42B853C85C3
:102E4000B901882777FD8095982F32C0B101882776
:102E500077FD8095982F0E943030A30192010E9447
:102E6000CB2EA50194010E9463310E94FD2F4B01DE
:102E70005C01123089F42B853C85B901882777FDE8
:102E80008095982F0E9430309B01AC01B4018827B7
:102E900077FD8095982F17C0133019F5882777FD97
:102EA0008095982F05C0B101882777FD8095982FD0
:102EB0000E9430309B01AC01EF81F885BF0188276B
:102EC00077FD8095982F2F87388B498B5A8B0E94DE
:102ED00030302F85388949895A890E943E2F6B01ED
:102EE0007C0120E030E0A901C701B6010E94912FCA
:102EF00087FF0DC02BED3FE049EC50E4C701B60160
:102F00000E94CB2E20E030E044E353E406C020E0F2
:102F100030E044E353E4C701B6010E9463312BED76
:102F20003FE049E450E40E94952F62960FB6F89472
:102F3000DEBF0FBECDBFDF91CF911F910F91FF90EC
:102F4000EF90DF90CF90BF90AF909F908F907F9049
:102F50006F905F904F903F902F90089560E00C9499
:102F600054240F931F93CF93DF938C016F3F710510
:102F700019F014F06FEF70E0EB0161308FEF78071C
:102F800014F4C1E0DFEFD7FD06C061E0C8010E9484
:102F9000A824BE0108C060E0C8010E94A8246627DA
:102FA00077276C1B7D0BC801DF91CF911F910F918B
:102FB0000C94C0248BE395E00C94D51B8BE395E037
:102FC0000C94FE1B60E00C945424CF93DF93EC012F
:102FD00060935706409356068091570660E00E9422
:102FE000B528809156068883809157068983DF91A2
:102FF000CF9108950C94B82460E00C945424CF939E
:10300000DF93EC016093590640935806809159066E
:1030100060E00E94B5288091580688838091590607
:103020008983DF91CF9108950C94B824CF93DF93D7
:10303000EC0160E00E945424C05CDF4F88E6888386
:10304000DF91CF910895FC01613029F4308521850D
:10305000928583850DC0623029F434852585968557
:10306000878506C0633029F4308921899289838954
:10307000AC01632F722F852F942F0895EF92FF924A
:103080000F931F93CF93DF93C62F8A01E22E68E63A
:1030900088E794E00E94180D6C2F88E794E00E9466
:1030A000C20C813001F560E088E794E00E94240DB5
:1030B00081112EC081E090E00E94CA2721E04E2DB0
:1030C00068E688E794E00E940B0DE80100E010E05C
:1030D000F12C88E794E00E946A0C892B31F00E15E0
:1030E0001F0574F002C08FEF13C081E090E00E94D2
:1030F000CA2781E00E151F0509F480E0819508C0FC
:103100000F5F1F4F88E794E00E94720C8993E1CF14
:10311000DF91CF911F910F91FF90EF9008954F9203
:103120005F926F927F928F929F92AF92BF92CF9257
:10313000DF92EF92FF920F931F93CF93DF93CDB760
:10314000DEB72C970FB6F894DEBF0FBECDBF8C0153
:10315000AC014E5C5F4F2EE06BE30E943E18811184
:10316000C5C1F801A2A8B12CBA2CAA2483A9A82A07
:10317000B1A2A0A2E4A8F12CFE2CEE2485A9E82A95
:10318000F3A2E2A286A8912C982C882487A9882AE9
:1031900095A284A2448055806680778062AD70E0FD
:1031A000762F662783AD682B882777FD8095982F2B
:1031B0000E943030F80126A137A140A551A50E94F8
:1031C000CA2EA30192010E94952FF801648B758B82
:1031D000868B978B64AD70E0762F662785AD682B64
:1031E000882777FD8095982F0E943030F80122A51E
:1031F00033A544A555A50E94CA2EA30192010E94A1
:10320000952FF801608F718F828F938F66AD70E07C
:10321000762F662787AD682B882777FD8095982FB6
:103220000E943030F80126A537A540A951A90E9477
:10323000CA2EA30192010E94952FF801648F758F09
:10324000868F978FB701882777FD8095982F0E94EA
:1032500030306B017C01B401882777FD8095982F71
:103260000E9430309B01AC010E9463312B013C0174
:10327000A7019601C701B6010E946331A301920123
:103280000E94CB2E0E9416329B01AC01B50188270B
:1032900077FD8095982F29873A874B875C870E9416
:1032A00030304B015C0129853A854B855C850E9455
:1032B0003E2F20E030E044E353E40E9463312AEDE6
:1032C0003FE049E450E40E94952F69837A838B8321
:1032D0009C83A5019401C501B4010E946331A3013F
:1032E00092010E94CB2E0E9416329B01AC01C701B5
:1032F000B6010E943E2F20E030E044E353E40E94F8
:1033000063312AED3FE049E450E40E94952F6D833C
:103310007E838F8398870E947327C0905A06D0902F
:103320005B06E0905C06F0905D066C197D098E09E5
:103330009F090E942E3020E030E04AE754E40E94CA
:10334000952F6B017C010E94732760935A0670933E
:103350005B0680935C0690935D06F80184A195A1BD
:103360001816190644F5208D318D428D538DC701F5
:10337000B6010E9463319B01AC01F8016085718543
:10338000828593850E94CA2EF801608771878287A3
:1033900093872489358946895789C701B6010E94D8
:1033A00063319B01AC01F80164857585868597853D
:1033B0000E94CB2E28C0F801208D318D428D538D77
:1033C000C701B6010E9463319B01AC01F801608521
:1033D0007185828593850E94CB2EF8016087718765
:1033E000828793872489358946895789C701B60121
:1033F0000E9463319B01AC01F80164857585868567
:1034000097850E94CA2EF8016487758786879787FB
:10341000F801248D358D468D578DC701B6010E9468
:1034200063319B01AC01F8016089718982899389BC
:103430000E94CB2EF801608B718B828B938B20E0E6
:1034400030E040E05FE3C701B6010E94CB2E9B0154
:10345000AC0160E070E080E09FE30E94952F6B017B
:103460007C019B01AC0160E070E080E89FE30E947A
:10347000CA2E4B015C01F8012085318542855385B8
:10348000C701B6010E9463312B013C01A5019401E3
:1034900069817A818B819C810E9463319B01AC019F
:1034A000C301B2010E94CB2EF80160877187828729
:1034B00093872485358546855785C701B6010E94C7
:1034C00063316B017C01A50194016D817E818F8147
:1034D00098850E9463319B01AC01C701B6010E942F
:1034E000CB2EF80164877587868797872C960FB651
:1034F000F894DEBF0FBECDBFDF91CF911F910F912A
:10350000FF90EF90DF90CF90BF90AF909F908F9003
:103510007F906F905F904F9008952F923F924F92BF
:103520005F926F927F928F929F92AF92BF92CF9253
:10353000DF92EF92FF920F931F93CF93DF9300D010
:1035400000D0CDB7DEB71C0104EF11E0812C912C27
:103550005401412C512C320119821A821B821C8287
:103560007C0122E3E20EF11C26E0A70163E4C10125
:103570000E943E18F10182A990E0982F882723A984
:10358000822BAA2797FDA095BA2F29813A814B81DA
:103590005C81280F391F4A1F5B1F29833A834B83A5
:1035A0005C8384A990E0982F882725A9822BAA27DD
:1035B00097FDA095BA2F480E591E6A1E7B1E86A93C
:1035C00090E0982F882727A9822BAA2797FDA095FE
:1035D000BA2F880E991EAA1EBB1E0150110921F692
:1035E00064EFC62EDD24D394E12CF12C69817A811D
:1035F0008B819C81A70196010E94A733CA01B90162
:103600000E943030F10166A377A380A791A7C30180
:10361000B201A70196010E94A733CA01B9010E9415
:103620003030F10162A773A784A795A7C501B40143
:10363000A70196010E94A733CA01B9010E94303048
:10364000F10166A777A780AB91AB0F900F900F9019
:103650000F90DF91CF911F910F91FF90EF90DF902E
:10366000CF90BF90AF909F908F907F906F905F9022
:103670004F903F902F900895EF92FF921F93CF931A
:10368000DF931F92CDB7DEB7162F7A0168E670E0A0
:1036900088E794E029830E94220D612F88E794E057
:1036A0000E94C20C2981813091F4422F50E0B70171
:1036B00088E794E00E94950C61E088E794E00F9021
:1036C000DF91CF911F91FF90EF900C94240D8FEF1D
:1036D0000F90DF91CF911F91FF90EF900895CF93BE
:1036E000DF931F92CDB7DEB7498321E0AE014F5F74
:1036F0005F4F0E943C1B0F90DF91CF910895CF93B5
:10370000DF93EC0140E050E063E872E44C835D83BA
:103710006E837F83188619861A861B861C861D86F3
:103720001E861F86188A198A1A8A1B8A1C8A1D8A75
:103730001E8A1F8A188E198E1A8E1B8E1C8E1D8E45
:103740001E8E1F8E19A218A21BA21AA21DA21CA2B5
:103750001EA21FA218A619A61AA61BA61CA61DA665
:103760001EA61FA618AA19AA88E794E00E94010DB8
:1037700060E273E080E090E00E94A22740E06BE608
:1037800070E0CE010E946F1B41E06AE170E0CE0163
:103790000E946F1B48E06BE170E0CE010E946F1B3E
:1037A000CE01DF91CF910C948D1A21E030E0FC0125
:1037B00031832083EE5FFE4F1082118212821382CA
:1037C00034961082118212821382349610823196BE
:1037D00010823196108211821282138234961182E5
:1037E00010823296108231961082118212821382D8
:1037F000349610821182128213820895089560E037
:103800000C9454244F925F926F927F928F929F926A
:10381000AF92BF92CF92DF92EF92FF920F931F93DE
:10382000CF93DF9300D000D01F92CDB7DEB78C01CD
:10383000CE0101966C0185E0F60111928A95E9F7B7
:1038400060E0C8010E94A82464E170E080E090E09C
:103850000E94A22761E0C8010E94A82488E290E0AB
:103860000E94CA2760E0C8010E94A8240E94732712
:103870004B015C0160E0C8010E94872481110EC0E9
:103880000E947327681979098A099B0963307105B9
:103890008105910578F3F801148215820E9473273F
:1038A0004B015C0160E0C8010E948724882359F025
:1038B0000E947327681979098A099B096330710589
:1038C0008105910578F3E12CF12C0E9473274B01BF
:1038D0005C0160E0C8010E94872481110BC00E9436
:1038E0007327681979098A099B0963307105810575
:1038F000910578F30E947F274B015C010E9473279A
:103900002B013C0160E0C8010E948724882359F004
:103910000E94732764197509860997096330710538
:103920008105910578F30E947F27681979098A0932
:103930009B09F70123E0F595E7952A95E1F76932B0
:1039400071058105910530F0EC0DFD1D8081880F1A
:10395000816004C0EC0DFD1D8081880F8083FFEF26
:10396000EF1AFF0A88E2E816F10409F0AECF598198
:103970004B81842F90E0850F911D2D8130E08217BF
:10398000930719F4F801548345830F900F900F901B
:103990000F900F90DF91CF911F910F91FF90EF90BB
:1039A000DF90CF90BF90AF909F908F907F906F905F
:1039B0005F904F900895FC01611102C084810895C9
:1039C000858108951F920F920FB60F9211242F93A5
:1039D0003F934F935F936F937F938F939F93AF9397
:1039E000BF93EF93FF9382E00E9424292091640605
:1039F000309165062F5F3F4F309365062093640634
:103A00009091CA06943618F095E090935F069091D5
:103A10005F06933071F018F4923031F046C0943064
:103A2000F9F09530E1F141C081113FC01092CA0612
:103A300027C08130D1F5E091CA068E0F8093CA0667
:103A4000F0E08091640690916506E25AF94F808714
:103A5000109265061092640684E080935F0625C08C
:103A6000811114C0E091CA0681E08E0F8093CA06CE
:103A7000F0E08091640690916506E25AF94F8087E4
:103A8000109265061092640683E0E7CF8091640689
:103A9000909165068536910540F085E0DECF811175
:103AA00004C01092650610926406FF91EF91BF91D9
:103AB000AF919F918F917F916F915F914F913F91C6
:103AC0002F910F900FBE0F901F901895F89482E0E1
:103AD0008093B0008093B10094E69093B30010926D
:103AE000B2008093700078941092CA0680935F06AB
:103AF00008950F931F93CF93DF93EC018C010C5E1D
:103B00001F4F65E872E0C8010E94292E65E872E047
:103B1000CE014A960E94292E60E082E00E94B528DC
:103B200082E080935E061CA21DA21EA21FA218A204
:103B300019A21AA21BA21B861A861C861A8A65E87D
:103B400072E0C8010E945F2E1B8ACE010E94661D92
:103B500061E083E00E94B52860E083E0DF91CF91CF
:103B60001F910F910C94EE281F93CF93DF93FC01CC
:103B7000A681B7818C9186588D3558F480859185C2
:103B800083309105A1F411968C911197815289315E
:103B900018F080E090E044C012968C9188508730F5
:103BA000C0F7158281E0808381E090E039C08334E2
:103BB00091057CF311968C91119783548F3248F7BD
:103BC00082E090E040E050E0BA019D012F5F3F4F5E
:103BD000EC01CA0FDB1FC881C850C730D0F6E9011D
:103BE000C80FD91F18811751133180F47695679546
:103BF00057954795706802968234910549F780E29F
:103C000085834183528363837483CCCFC881C8503A
:103C1000C73008F0BECF7695679557954795EBCF9F
:103C2000DF91CF911F9108950F931F93CF93DF934F
:103C3000EC0186E696E09F838E838091CA0690E031
:103C40009987888780915F06853081F4CE010E9434
:103C5000B41D8C01CE010115110529F00E94661DCD
:103C600001E010E005C00E94661D02C000E010E007
:103C7000C801DF91CF911F910F910895CB01E0EB27
:103C8000F0E02081206220830C94CA27CB01E0EB76
:103C9000F0E020812F7D20830C94CA2710927000C1
:103CA000262F30E040E050E060E47FE180E090E0EB
:103CB0000E94A73381E08093B00089E08093B10037
:103CC0002093B3008BEA289F212D11242695209361
:103CD000B4000895F89482E08093B0008093B1001E
:103CE00094E69093B3001092B200809370007894A1
:103CF00080935F061092CA0680915E0660E00C9485
:103D0000B528AF92BF92CF92DF92EF92FF920F93BE
:103D10001F93CF93DF93EC016A017B01590166E2A7
:103D20000E944E1E68E273E2CE010E943E1E64E9CC
:103D300071E1CE010E94461E00E010E060E372E0F7
:103D4000CE010A151B05ACF4C0FE05C00E943E1E44
:103D500060E476E004C00E943E1E60E372E0CE01A3
:103D60000E94461EF694E794D794C7940F5F1F4FA6
:103D7000E5CF0E943E1E60E070E0CE01DF91CF9162
:103D80001F910F91FF90EF90DF90CF90BF90AF9079
:103D90000C94461EEF92FF920F931F93CF93DF93E5
:103DA0007C018B016AE0C8010E94A32EC0E0D0E034
:103DB000F80184819581C817D90710F5BE01C801A3
:103DC0000E94C72E482F409550E060E070E0762FAB
:103DD000652F542F4427480F511D611D711DBA01D5
:103DE000552744274F6F20E230E0C7010E94811E13
:103DF00064E170E080E090E00E94A2272196D8CF95
:103E0000C701DF91CF911F910F91FF90EF900C941C
:103E10006A1E60E00C945424613049F40E94B82476
:103E20008A5E91402091CD063091CE060AC0623064
:103E300059F40E94BC248A5E91402091CB063091B7
:103E4000CC06820F931F089580E090E00895CF92F2
:103E5000DF92EF92FF920F931F93CF93DF93EC01CA
:103E6000162FF42EE52ED22E106C61E08C810E946C
:103E7000EE2860E08D810E94EE2808E060E08C81F1
:103E80000E94EE28612F61708D810E94EE2861E012
:103E90008C810E94EE281695015081F7CF2C0F2DB2
:103EA0001E2D802F8C198D15B0F4F801E1908F0133
:103EB00088E0F82E60E08C810E94EE286E2D6078FC
:103EC0008D810E94EE2861E08C810E94EE28EE0C2C
:103ED000FA9481F7E6CF60E08C810E94EE2860E0E2
:103EE0008D810E94EE2861E08C810E94EE2861E0C5
:103EF0008D81DF91CF911F910F91FF90EF90DF9017
:103F0000CF900C94EE280C944B240F931F93CF93D7
:103F1000DF93EC01162F61E08C810E94EE2860E0B7
:103F20008D810E94EE2808E060E08C810E94EE28DE
:103F3000612F61708D810E94EE2861E08C810E946A
:103F4000EE281695015081F760E08C810E94EE28E2
:103F500060E08D810E94EE2861E08C810E94EE2855
:103F600061E08D81DF91CF911F910F910C94EE282C
:103F700020E030E0FC01E20FF31F10862F5F3F4F7F
:103F800020313105B9F721E0FC0126831782AC010D
:103F9000485F5F4F20E160E00C94271F693018F400
:103FA000662321F001C068E06150686060680C948D
:103FB000851FCF93DF93EC01E62FF0E0EE0FFF1F9C
:103FC000E65FFE4F80818C8391819D8361E00E943A
:103FD000B52861E08D810E94B52861E08C810E9446
:103FE000EE2861E08D810E94EE2860E4CE010E94FF
:103FF000851F65E0CE010E94CE1FCE01DF91CF91DB
:104000000C94B81FFC01668308958F929F92AF9223
:10401000BF92CF92DF92EF92FF920F931F93CF93B5
:10402000DF9360310CF085C048300CF082C0222351
:1040300009F47FC0FC013681A42FBB27A7FDB095F2
:10404000E8E0F0E0EA1BFB0B5FEF01C0550FEA95DB
:10405000EAF74801C0E0D0E0772767FD70956C0172
:10406000C60ED71EAA24BB24AA1ABB0A332379F191
:10407000C21778F58E01060F171F17FD1AC07601BB
:10408000EC0EFD1EF70130853523F4010081141676
:1040900044F410E00A2E02C0159507950A94E2F741
:1040A00005C00A2C01C0000F0A94EAF7032BF701A0
:1040B00000872196FFEF8F1A9F0ADACF8E01060F35
:1040C000171F17FF19C02196FFEF8F1A9F0AC217FB
:1040D000A8F3AC01485F5F4F20E160E0DF91CF9132
:1040E0001F910F91FF90EF90DF90CF90BF90AF9016
:1040F0009F908F900C94271F7601EC0EFD1EF70108
:1041000030853523F401008110E0009510951416D8
:104110003CF40A2E02C0159507950A94E2F705C0F3
:104120000A2C01C0000F0A94EAF7032BF70100875D
:10413000CACFDF91CF911F910F91FF90EF90DF9049
:10414000CF90BF90AF909F908F9008958F929F9245
:10415000AF92BF92CF92DF92EF92FF920F931F9395
:10416000CF93DF93EC01088D198D101611060CF01A
:1041700073C080E090E0F82E8017910751F001960F
:104180008131910509F4E7C0FE01E80FF91F17829C
:10419000F2CF40E1841709F4DEC00B8D1C8DE12CB9
:1041A00067E0D62E70E2C72E4E2D50E04017510723
:1041B0000CF049C0B12CDE01A40FB51F5D962B2D6C
:1041C00030E0D29EC001D39E900D112482539E4FA9
:1041D000FC016491603441F1FC016491EC91FF2792
:1041E000E7FDF09570E0E617F707E1F4D29EB00125
:1041F000D39E700D112420E030E061537E4FFB010F
:10420000E20FF31FE491DE01AF0DB11D1896EC93A0
:10421000F394FFE0FF1540F02F5F3F4F263031054C
:1042200071F702C0B394CBCFFC018491803429F4A0
:10423000FE01E40FF51FC58EEA94E394FFE0FF153D
:1042400008F0B2CF88C0FE01EF0DF11D1086F39487
:1042500040E1F412F8CF7FC0EB8CFC8C2AEFA70171
:104260002403C001259F900D11240817190759F444
:1042700080E090E0FE01E80FF91F10860196803182
:104280009105C1F768C022273327201B310BC901D4
:1042900066E070E00E947133398F288F9B0190E0B7
:1042A00047E0B42E50E2A52E2E153F050CF04BC072
:1042B000912CDE01A20FB31F5D96692D70E0B69EB2
:1042C000A001B79E500D112442535E4FFA01D490C5
:1042D000F0E4DF1631F1FA018490CC90DD24C7FCC4
:1042E000D094E82DF0E0CE16DF06C1F4B69ED001E2
:1042F000B79EB00D1124FD01E80FF11D87FDFA9561
:10430000E153FE4F6491FE01E90FF11D60879F5F4D
:10431000903130F48F5F863071F702C09394CDCF27
:1043200080E0FA014491403431F4FE01E20FF31FC2
:10433000A58E215031092F5F3F4F903108F4B4CF43
:10434000198F088F08C0FE01E90FF11D10869F5FCD
:104350009031C9F7F5CF4A8D552747FD509527E095
:1043600030E0241B350B80E090E037FD12C0FE01E9
:10437000E80FF91F4085022E01C0440F0A94EAF7A6
:10438000408701968031910591F78E818823A1F0B5
:104390001FC047505109FE01E80FF91F208530E08A
:1043A000042E02C0359527950A94E2F720870196DE
:1043B0008031910581F7E9CF80E090E0FE01E80FC0
:1043C000F91F208520952087019680319105B1F74E
:1043D000AE01485F5F4F20E160E0CE01DF91CF91F9
:1043E0001F910F91FF90EF90DF90CF90BF90AF9013
:1043F0009F908F900C94271F0F931F93FC0181E0D7
:104400008783148E138E038D148DD901A00FB11FD5
:104410008C91DF01A00FB11F882319F00331110522
:1044200064F05D961C922AEF2003C001219F900D3D
:1044300011246817790774F007C05D968C930F5F9D
:104440001F4F148F038FDFCFCB016131710514F043
:1044500080E190E0918F808F40310CF04FE047FD7C
:104460004FEF428FCF011F910F910C94A620CF9355
:10447000DF93DC01362F862F6AE00E945133C82F6C
:10448000D0E0FE01EE0FFF1FEC0FFD1FE055FE4FC9
:10449000E4911896EC931897FE01EE0FFF1FEC0FB6
:1044A000FD1FEF54FE4FE4911996EC931997FE010E
:1044B000EE0FFF1FEC0FFD1FEE54FE4FE4911A9616
:1044C000EC931A971B961C921B97832F0E945133D3
:1044D000692F70E0FB01EE0FFF1FE60FF71FE0559D
:1044E000FE4FE4911C96EC931C97FB01EE0FFF1F0F
:1044F000E60FF71FEF54FE4FE4911D96EC931D97C6
:10450000FB01EE0FFF1FE60FF71FEE54FE4FE49185
:104510001E96EC931E97842F6AE00E945133682FF9
:1045200070E0FB01EE0FFF1FE60FF71FE055FE4F97
:10453000E4915196EC935197FB01EE0FFF1FE60FAC
:10454000F71FEF54FE4FE4915296EC935297FB0104
:10455000EE0FFF1FE60FF71FEE54FE4FE491539648
:10456000EC93539754961C925497842F6AE00E94C0
:104570005133892F90E0FC01EE0FFF1FE80FF91F68
:10458000E055FE4FE4915596EC935597FC01EE0FE4
:10459000FF1FE80FF91FEF54FE4FE4915696EC937E
:1045A0005697FC01EE0FFF1FE80FF91FEE54FE4F68
:1045B000E4915796EC935797222341F088E21F9697
:1045C0008C931F9750968C93509706C01F961C9201
:1045D0001F9750961C92509716968C911697882389
:1045E00051F0AD01485F5F4F20E160E0CD01DF9108
:1045F000CF910C94271F80E090E0FD01E80FF91F98
:10460000208520952087019680319105B1F7E9CF6B
:10461000089570E0FB01E851FC4FE491DC01EC935C
:10462000FB01E450FC4FE491F0E0EE0FFF1FE05F70
:10463000FB4F25913491FC013283218308951F9310
:10464000CF93DF93FC011081C181D2819981812FA9
:104650008095892389838A81812B8A838AE090E0EF
:104660000E94CA279881912381E009F480E0DF91BC
:10467000CF911F910895FF920F931F93CF93DF93D4
:10468000FC011081C181D281F8948981F12EF094CE
:104690008F2189838A81812B8A8378940DE7015049
:1046A00041F182E090E00E94CA2788818123B9F31A
:1046B000F8948A818F218A838981812B89837894D8
:1046C00080EE91E00E94CA27F89489818F21898326
:1046D0008A81812B8A8386E490E00E94CA278881A0
:1046E000812301E009F000E078948AE991E00E94DA
:1046F000CA27802FDF91CF911F910F91FF900895CE
:104700001F93CF93DF93FC011081C181D281912F40
:10471000909560FF12C0F8948A8189238A838981E9
:10472000812B89838AE090E00E94CA278A81812BAD
:104730008A83789487E390E011C0F8948A81892372
:104740008A838981812B898381E490E00E94CA2732
:104750008A81812B8A83789485E090E0DF91CF91E4
:104760001F910C94CA270F931F93CF93DF93FC01E3
:104770001081C181D281F8948981812B89838A81BA
:10478000012F009580238A8383E090E00E94CA274E
:104790008981802389838A81812B8A838AE090E0C2
:1047A0000E94CA27C881789485E390E00E94CA27B6
:1047B0001C2381E009F480E0DF91CF911F910F91DC
:1047C0000895CF92DF92EF92FF920F931F93CF93B2
:1047D000DF931F92CDB7DEB76C01E62E08E010E044
:1047E000FF24F39461E09F2D9E2109F460E0C6014F
:1047F00049830E948023FF0C015011094981011552
:10480000110581F741111DC0F894D6011196ED9163
:10481000FC91129791818C918095892381831196C7
:10482000ED91FC91129782819C91892B8283119644
:10483000ED91FC91129792818C91809589238283CE
:1048400078940F90DF91CF911F910F91FF90EF908F
:10485000DF90CF900895EF92FF920F931F93CF9325
:10486000DF938C01C8E0D0E0F12CEE24E394C80182
:104870000E94B3238111FE28EE0C2197C1F78F2DE2
:10488000DF91CF911F910F91FF90EF90089540E03D
:104890006CEC0C94E123FC0180910A0180838091EF
:1048A0000B01818312820895DC01E62FF0E0EE0F08
:1048B000FF1FE65FFE4F80818C93818111968C9360
:1048C000119712966C9381E0809380008BE0809327
:1048D000810083E08093B00084E08093B10008956C
:1048E000FC0182810895FC0183810895CF93DF93B9
:1048F000EC0188810E94B52888810E94242921E04A
:10490000892B09F420E0822FDF91CF910895CF9376
:10491000DF93EC0189810E94B52889810E942429B6
:1049200021E0892B09F420E0822FDF91CF910895B7
:104930001F93CF93DF93EC01162F61E088810E94D3
:10494000B528612F8881DF91CF911F910C94EE28BB
:104950001F93CF93DF93EC01162F61E089810E94B2
:10496000B528612F8981DF91CF911F910C94EE289A
:10497000FC0180810C941028FC0181810C9410288A
:10498000FC0180810C942D28DC01E62FF0E0EE0F75
:10499000FF1FE65FFE4F80818C93818111968C937F
:1049A000119712966C930895DC01E62FF0E0EE0F5C
:1049B000FF1FE65FFE4F80818C93818111968C935F
:1049C000119712966C93129713964C930895FC01CD
:1049D00080810895FC0181810895DC0112966C9319
:1049E0001297E62FF0E0EE0FFF1FE65FFE4F91817A
:1049F00011969C93119780818C934230D9F4292F82
:104A000030E0F901E851FC4FE4911C96EC931C97BF
:104A1000F901E450FC4FE491F0E0EE0FFF1FE65E79
:104A2000FB4F2591349119963C932E93189761E092
:104A3000892F19C0282F30E0F901E851FC4FE4918B
:104A40001C96EC931C97F901E450FC4FE491F0E0C4
:104A5000EE0FFF1FE65EFB4F2591349119963C93B4
:104A60002E93189761E00C94B528DC01862F262F31
:104A700030E0F901E851FC4FE4911C96EC931C974F
:104A8000F901E450FC4FE491F0E0EE0FFF1FE65E09
:104A9000FB4F2591349119963C932E93189761E022
:104AA0000C94B528CF93DF93EC01262F30E03D83A3
:104AB0002C8323E0629FC00111240E94E6339F8370
:104AC0008E83892B21F487E592E00E94E73580E010
:104AD00090E04C815D819A01220F331F240F351F16
:104AE0008217930738F4EE81FF81E80FF91F1082D7
:104AF0000196EFCFDF91CF9108950F931F93CF933E
:104B0000DF931F92CDB7DEB78C0149830E945424F6
:104B1000D80111968C91282F30E0F901E851FC4F13
:104B2000E491D8011C96EC93F901E450FC4FE49118
:104B3000F0E0EE0FFF1FE65EFB4F25913491F80188
:104B40003187208761E00E94B5284981642FC80120
:104B50000F90DF91CF911F910F910C9452250F93DD
:104B6000FC01A62FB0E084819581A817B907B8F49D
:104B7000862F880F860F90E0A681B781A80FB91FF6
:104B80002C93A681B781A80FB91F11964C9306806C
:104B9000F781E02DE80FF91F028381E001C080E07A
:104BA0000F910895CF92DF92EF92FF920F931F9390
:104BB000CF93DF937C01142FD22EC02E611113C02E
:104BC000C0E0D0E0F70184819581C817D90748F487
:104BD0000C2D2D2D412F6C2FC7010E94AF25219642
:104BE000F1CF81E004C061500E94AF2580E0DF91E9
:104BF000CF911F910F91FF90EF90DF90CF9008958C
:104C00000F93022F242F462F60E00E94D2250F9190
:104C100008950F931F93D8013FB7F8949C91822F6A
:104C200080958923292BFB01460F571FE417F507B1
:104C300081F0919168E02C9300C097FF8C93990FBD
:104C400000C000C000C008F48C9300C06A9599F7BA
:104C5000EDCF3FBF1F910F9108950F931F93FC015C
:104C60000085118524813581A901440F551F420F0C
:104C7000531F6681778124850E9409261F910F9119
:104C80000895CF93DF93EC018E819F810E947E3443
:104C90001F821E82DF91CF910895CF93DF93EC01A5
:104CA0000E944B24CE010496DF91CF910C940823EF
:104CB0001F93CF93DF93EC01142F0E94D424123062
:104CC00011F4698101C06881CE010496DF91CF9112
:104CD0001F910C940923CF92DF92EF92FF920F93D2
:104CE0001F93CF93DF93CDB7DEB72C970FB6F89411
:104CF000DEBF0FBECDBF8C010C5F1F4FC8010E94ED
:104D00003B23C8010E94472440E064E4C8010E949C
:104D1000E1230E9473276B017C01C8010E941F23BD
:104D200081110BC00E9473276C197D098E099F09A0
:104D30006E3E72408105910580F3C8010E943B23BD
:104D4000C8010E94472440E06EEBC8010E94E123A5
:104D5000CE0101967C016E0196E0C90ED11CC801FE
:104D60000E942B24F70181937F01EC15FD05B9F713
:104D70006A8170E0762F66278981682B882777FD06
:104D80008095982F0E94303020E030E040E85DE3CD
:104D90000E9463312C960FB6F894DEBF0FBECDBFD4
:104DA000DF91CF911F910F91FF90EF90DF90CF9007
:104DB000089560E00C9454240F931F93CF93DF93D6
:104DC00000D000D0CDB7DEB78C019A01AB0160E016
:104DD00029833A834B835C830E94A82482E090E07D
:104DE0000E94CA2761E0C8010E94A8248AE090E0DE
:104DF0000E94CA2760E0C8010E94A82460E0F80170
:104E000081810E94B52829813A814B815C8161E0D2
:104E1000F80181810F900F900F900F90DF91CF914B
:104E20001F910F910C944D2927E3269FA001279FE6
:104E3000500D112448535F4F60E070E00E94DC2663
:104E40000E94303020E030E048E652E40E94952F86
:104E500008951F920F920FB60F9211242F933F9334
:104E60008F939F93AF93BF938091D0069091D1067B
:104E7000A091D206B091D3063091CF0623E0230F44
:104E80002D3720F40196A11DB11D05C026E8230F82
:104E90000296A11DB11D2093CF068093D00690935A
:104EA000D106A093D206B093D3068091D4069091F8
:104EB000D506A091D606B091D7060196A11DB11DC9
:104EC0008093D4069093D506A093D606B093D706C8
:104ED000BF91AF919F918F913F912F910F900FBEF6
:104EE0000F901F9018952FB7F8946091D00670918D
:104EF000D1068091D2069091D3062FBF08953FB777
:104F0000F8948091D4069091D506A091D606B091E0
:104F1000D70626B5A89B05C02F3F19F00196A11D05
:104F2000B11D3FBF6627782F892F9A2F620F711D01
:104F3000811D911D42E0660F771F881F991F4A95BA
:104F4000D1F70895CF92DF92EF92FF92CF93DF9344
:104F50006B017C010E947F27EB01C114D104E104A5
:104F6000F10489F00E94C92E0E947F276C1B7D0BE3
:104F7000683E734090F381E0C81AD108E108F10857
:104F8000C851DC4FEACFDF91CF91FF90EF90DF90D7
:104F9000CF9008958230910538F0880F991F880FBF
:104FA000991F05970197F1F70895789484B5826069
:104FB00084BD84B5816084BD85B5826085BD85B5BD
:104FC000816085BDEEE6F0E0808181608083E1E86C
:104FD000F0E01082808182608083808181608083A4
:104FE000E0E8F0E0808181608083E1EBF0E08081A7
:104FF00084608083E0EBF0E0808181608083EAE779
:10500000F0E0808184608083808182608083808101
:10501000816080838081806880831092C1000895C0
:105020008E3008F08E5087702091200190E4299FE7
:1050300090011124822B80937C0080917A008064FF
:1050400080937A0080917A0086FDFCCF8091780071
:105050002091790090E0922B08951F93CF93DF93D6
:10506000182FEB0161E00E94B528209711F460E051
:1050700004C0CF3FD10539F461E0812FDF91CF919A
:105080001F910C94EE28E12FF0E0EC52FC4FE491DC
:10509000E330F9F048F4E130B9F0E230A1F584B53D
:1050A000806284BDC8BD34C0E730E9F0E83019F152
:1050B000E43049F580918000806280938000D09335
:1050C0008B00C0938A0024C084B5806884BDC7BDAE
:1050D0001FC080918000806880938000D0938900F9
:1050E000C093880015C08091B00080688093B000A4
:1050F000C093B3000DC08091B00080628093B00077
:10510000C093B40005C0C038D1050CF0B5CFAFCF07
:10511000DF91CF911F910895833081F028F4813081
:1051200099F08230A1F008958730A9F08830B9F065
:105130008430D1F4809180008F7D03C08091800005
:105140008F7780938000089584B58F7702C084B5EF
:105150008F7D84BD08958091B0008F7703C08091CA
:10516000B0008F7D8093B0000895CF93DF9390E0DF
:10517000FC01E851FC4F2491FC01E450FC4F849168
:10518000882349F190E0880F991FFC01EC5DFB4FEB
:10519000A591B491865E9B4FFC01C591D4919FB7B8
:1051A000611108C0F8948C91209582238C9388819A
:1051B00082230AC0623051F4F8948C91322F3095DA
:1051C00083238C938881822B888304C0F8948C91EC
:1051D000822B8C939FBFDF91CF9108950F931F93E4
:1051E000CF93DF931F92CDB7DEB7282F30E0F901C0
:1051F000EC52FC4F8491F901E851FC4F1491F901F4
:10520000E450FC4F04910023C9F0882321F0698306
:105210000E948C286981E02FF0E0EE0FFF1FE65E10
:10522000FB4FA591B4919FB7F8948C91611103C085
:105230001095812301C0812B8C939FBF0F90DF912C
:10524000CF911F910F910895CF93DF93282F30E0D6
:10525000F901EC52FC4F8491F901E851FC4FD491D3
:10526000F901E450FC4FC491CC2391F081110E94CC
:105270008C28EC2FF0E0EE0FFF1FE05FFB4FA591B5
:10528000B4912C912D2381E090E021F480E002C0C4
:1052900080E090E0DF91CF9108950F931F93762FD8
:1052A00090E0FC01E851FC4F6491FC01E450FC4F9C
:1052B000E4917111762FF0E0EE0FFF1FE05FFB4FDE
:1052C0008591949189019A013F70472F0E9447026E
:1052D000611571058105910531F06F5F7F4F8F4F2B
:1052E0009F4F9F7003C060E070E0CB011F910F9152
:1052F0000895FC01818D228D90E0805C9F4F821B80
:1053000091098F7399270895FC01918D828D9817CB
:1053100031F0828DE80FF11D858D90E008958FEFBB
:105320009FEF0895FC01918D828D981761F0828D19
:10533000DF01A80FB11D5D968C91928D9F5F9F73C9
:10534000928F90E008958FEF9FEF089586E19BE2A2
:10535000892B49F080E090E0892B29F00E94162BE0
:1053600081110C9400000895FC01848DDF01A80FC9
:10537000B11DA35ABF4F2C91848D90E001968F737D
:105380009927848FA689B7892C93A089B1898C919C
:1053900080648C93938D848D981306C00288F38962
:1053A000E02D80818F7D80830895CF93DF93EC0182
:1053B000888D8823C9F0EA89FB89808185FD05C035
:1053C000A889B9898C9186FD0FC00FB607FCF5CF6F
:1053D000808185FFF2CFA889B9898C9185FFEDCFB7
:1053E000CE010E94B429E7CFDF91CF910895CF92EB
:1053F000DF92FF920F931F93CF93DF931F92CDB74E
:10540000DEB76C0181E0D60158968C9358975B9675
:105410009C915B975C968C915C97981307C0509613
:10542000ED91FC915197808185FD2EC0F601038D91
:1054300010E00F5F1F4F0F731127F02EF601848DC0
:10544000F81211C00FB607FCF9CFD6015096ED91B6
:10545000FC915197808185FFF1CFC60169830E943D
:10546000B4296981EBCF838DE80FF11DE35AFF4F1B
:105470006083D6015B960C935B975296ED91FC91FD
:105480005397808180620CC0D6015696ED91FC91B5
:10549000579760835096ED91FC915197808180647D
:1054A000808381E090E00F90DF91CF911F910F9169
:1054B000FF90DF90CF900895BF92CF92DF92EF924E
:1054C000FF92CF93DF93EC016A017B01B22EE88952
:1054D000F98982E08083411581EE580761057105E5
:1054E000A1F060E079E08DE390E0A70196010E94D1
:1054F0008533215031094109510956954795379512
:105500002795211580E1380798F0E889F9891082FC
:1055100060E874E88EE190E0A70196010E9485336F
:1055200021503109410951095695479537952795DD
:10553000EC85FD853083EE85FF852083188EEC8910
:10554000FD89B082EA89FB89808180618083EA8954
:10555000FB89808188608083EA89FB8980818068FB
:105560008083EA89FB8980818F7D8083DF91CF9161
:10557000FF90EF90DF90CF90BF9008951F920F9211
:105580000FB60F9211242F938F939F93EF93FF9356
:10559000E091E806F091E9068081E091EE06F09155
:1055A000EF0682FD12C090818091F1068F5F8F73AC
:1055B0002091F206821751F0E091F106F0E0E852F6
:1055C000F94F958F8093F10601C08081FF91EF9193
:1055D0009F918F912F910F900FBE0F901F90189554
:1055E0001F920F920FB60F9211242F933F934F9358
:1055F0005F936F937F938F939F93AF93BF93EF933B
:10560000FF9388ED96E00E94B429FF91EF91BF913E
:10561000AF919F918F917F916F915F914F913F914A
:105620002F910F900FBE0F901F90189588ED96E068
:105630000E94792921E0892B09F420E0822F089526
:105640001092DB061092DA0688EE93E0A0E0B0E05C
:105650008093DC069093DD06A093DE06B093DF0610
:1056600087E792E09093D9068093D80685EC90E086
:105670009093E5068093E40684EC90E09093E7062F
:105680008093E60680EC90E09093E9068093E8062C
:1056900081EC90E09093EB068093EA0682EC90E038
:1056A0009093ED068093EC0686EC90E09093EF06E5
:1056B0008093EE061092F1061092F2061092F30615
:1056C0001092F406089508950E94D5270E94632B36
:1056D0000E949002C6EAD9E20E94AC092097E1F349
:1056E0000E94A629F9CFCF92DF92EF92FF920F93FB
:1056F0001F93CF93DF936C017A01EB01E60EF71E47
:1057000000E010E0CE15DF0561F06991D601ED9162
:10571000FC910190F081E02DC6010995080F191F39
:10572000F1CFC801DF91CF911F910F91FF90EF90C2
:10573000DF90CF9008956115710581F0DB010D9028
:105740000020E9F7AD0141505109461B570BDC0120
:10575000ED91FC910280F381E02D099480E090E0CE
:1057600008950C949B2BDC01ED91FC910190F0814C
:10577000E02D099463E872E00C949B2B0F931F9328
:10578000CF93DF93EC010E949B2B8C01CE010E94F2
:10579000BA2B800F911FDF91CF911F910F91089528
:1057A0008F929F92AF92BF92CF92DF92EF92FF9231
:1057B0000F931F93CF93DF93CDB7DEB7A1970FB6AB
:1057C000F894DEBF0FBECDBF7C01C42EE52FCB0108
:1057D000D22E19A221E02D1510F02AE0D22E8E0132
:1057E0000F5D1F4F8D2C912CA12CB12C6C2D7E2F79
:1057F000A50194010E9485338C2DD29E801911241D
:10580000015011098A3014F4805D01C0895CF801EF
:105810008083211531054105510521F0C22EE32F6A
:10582000CA01E4CFB801C7010E949B2BA1960FB615
:10583000F894DEBF0FBECDBFDF91CF911F910F91C6
:10584000FF90EF90DF90CF90BF90AF909F908F90A0
:105850000895CF92DF92EF92FF920F931F93CF9311
:10586000DF93EC016A017B012115310579F4E881B0
:10587000F9810190F081E02D642FDF91CF911F918C
:105880000F91FF90EF90DF90CF9009942A3031056F
:10589000E9F477FF1AC06DE20E94B32B8C01442714
:1058A0005527BA014C195D096E097F092AE0CE011E
:1058B0000E94D02B800F911FDF91CF911F910F91EC
:1058C000FF90EF90DF90CF9008952AE0B701A601F6
:1058D000CE01DF91CF911F910F91FF90EF90DF905C
:1058E000CF900C94D02B2115310541F4DC01ED91C2
:1058F000FC910190F081E02D642F09940C94D02B41
:105900009A01462F50E060E070E00C94732C4F92A7
:105910005F926F927F928F929F92AF92BF92CF923F
:10592000DF92EF92FF920F931F93CF93DF93EC01DF
:105930006A017B01B22E9A01AB01C701B6010E9438
:105940005732882319F066E872E027C02601370134
:10595000E89477F82FEF3FEF4FE75FE7C301B2011D
:105960000E94573281110DC02FEF3FEF4FE75FE7E5
:10597000C301B2010E94912F18161CF46AE872E06C
:105980000CC02FEF3FEF4FE75FE4C701B6010E9465
:1059900058311816ACF46EE872E0CE01DF91CF9169
:1059A0001F910F91FF90EF90DF90CF90BF90AF903D
:1059B0009F908F907F906F905F904F900C949B2B57
:1059C0002FEF3FEF4FE75FECC701B6010E94912F29
:1059D00087FDE1CF20E030E0A901C701B6010E94B8
:1059E000912F87FF0AC06DE2CE010E94B32B8C017C
:1059F000F7FAF094F7F8F09402C000E010E0A12C60
:105A000060E070E080E09FE3AB1441F020E030E024
:105A100040E251E40E94952FA394F6CF9B01AC0184
:105A2000C701B6010E94CB2E6B017C010E9402309F
:105A30002B013C010E942E309B01AC01C701B60135
:105A40000E94CA2E6B017C012AE0B301A201CE01A3
:105A50000E94D02B080F191FBB2039F06BEE71E0AC
:105A6000CE010E949B2B080F191F7B2C772041F140
:105A700020E030E040E251E4C701B6010E9463310A
:105A80006B017C010E94FD2F4B01AA2497FCA0947E
:105A9000BA2C2AE030E0B501A401CE010E94292CE5
:105AA000080F191FC501B4010E9430309B01AC01E1
:105AB000C701B6010E94CA2E6B017C017A94D6CF31
:105AC000C801DF91CF911F910F91FF90EF90DF9070
:105AD000CF90BF90AF909F908F907F906F905F908E
