:100000000C9479010C94A1010C94A1010C941D1F76
:100010000C94471F0C94711F0C94A1010C943A117D
:100020000C94490E0C94A1010C94A1010C94A11BF9
:100030000C94A1010C94A1010C94A1010C94A101B8
:100040000C94D0200C94A1010C94C9230C941B2473
:100050000C94A1010C94A1010C94A1010C94A10198
:100060000C94221D0C94A1017C447C00007C5C5407
:100070007454547C70107C74545C7C545C40407CA0
:100080007C547C74547C2000000000000030007C14
:1000900082827C00310042FE0200003200468A92D9
:1000A000620033004492926C0034001C64FE040031
:1000B0003500F292928C0036007C92924C00370010
:1000C000C08E90E00038006C92926C00390064920F
:1000D000927C006100042A2A1E006200FE12120CAB
:1000E0000063000C1212120064000C1212FE006574
:1000F000001C2A2A18006600103E505000670008B5
:1001000015151E006800FE101E00006900002E007C
:1001100000006A0002012E00006B00FE08141200AD
:100120006C0000FE0200006D001E100E100E6E002E
:100130001E10100E006F000C12120C0070001F1227
:10014000120C0071000C12121F0072001E08101019
:1001500000730012292512007400103E1200007571
:10016000001C02021E00761804020418007718060C
:100170001C0618007800120C0C12007900180505F6
:100180001E007A0012161A120041007E88887E0036
:100190004200FE92926C0043007C82824400440044
:1001A000FE82827C004500FE929282004600FE9014
:1001B00090800047007C82925C004800FE1010FE98
:1001C00000490082FE8200004A000C0202FC004B43
:1001D00000FE1028C6004C00FE020202004D00FE88
:1001E000403040FE4E00FE403008FE4F007C8282D0
:1001F000827C5000FE9090600051007C828A847A5C
:100200005200FE9894620053006492924C00540095
:1002100080FE8080005500FC0202FC005600F00CBD
:10022000020CF05700FE043804FE5800C63838C6E9
:100230000059C0201E20C0005A00869AB2C2002C6D
:1002400000010E0C00002E0000060600002572546E
:10025000781E2A4E2100007A0000003F00204A301C
:1002600000002D0010101010002B08083E08080098
:100270002F00020C3040002A2214081422003A00F9
:10028000001400000040000000000000000000001A
:10029000240027002A0000000000250028002B0071
:1002A00000000000230026002900040404040404C4
:1002B0000404020202020202030303030303010215
:1002C00004081020408001020408102001020408E4
:1002D00010200000000700020100000304060000D7
:1002E0000000000000007B027F178F1C8A2574022B
:1002F000B81711241FBECFEFD8E0DEBFCDBF11E08D
:10030000A0E0B1E0EAE4F7E502C005900D92A4395F
:10031000B107D9F716E0A4E9B1E001C01D92A633F8
:10032000B107E1F712E0CEEED2E004C02297FE0161
:100330000E945D2BC63ED107C9F70E94E1250C94AF
:10034000982B0C940000A0E0B0E0E9EAF1E00C94F6
:10035000692BEC01A880B980CA80DB80A114B104AC
:10036000C104D10441F484E2A82E89EDB82E8BE5B6
:10037000C82E87E0D82EC601B5012DE133EF41E04C
:1003800050E00E94402B27EA31E440E050E00E9418
:10039000CC2A7B018C01C601B5012DE133EF41E090
:1003A00050E00E94402BCA01B9012CEE34EF4FEF10
:1003B0005FEF0E94CC2A6E0D7F1D801F911F97FF5B
:1003C00004C06150704080409048688379838A837C
:1003D0009B839B01AC015F77B901CA01CDB7DEB742
:1003E000EAE00C94852B0E94A30108958AE091E035
:1003F0000E94A301089560930A0170930B018093FA
:100400000C0190930D010895FB01DC0102C00190E5
:100410000D9241505040D8F70895DC0101C06D9312
:1004200041505040E0F70895FB01DC0101900D922E
:100430000020E1F708958130910509F043C06F5F16
:100440007F4F09F050C084E991E00E9453198FE971
:1004500091E063E070E00E945A1A84EA91E062E061
:1004600070E00E94BA158AEA91E00E94A41589ED15
:1004700091E00E94201189EF91E00E940A0F8DEF18
:1004800091E00E94031A8FE092E00E94F30D89E14F
:1004900092E069E070E00E94450F8FE192E06AE02F
:1004A00070E00E94450F85E292E00E94371789E2D2
:1004B00092E00E945D1A8DE692E060E071E00E9499
:1004C00077270895892B79F46F5F7F4F61F48DE66C
:1004D00092E00E94CA278AEE91E00E94CA2784E92E
:1004E00091E00E94F318089580E090E06FEF7FEFB5
:1004F0000E941B02089581E090E06FEF7FEF0E9461
:100500001B02089580912401909125016BEF7FEFEC
:100510000E940B2B6654704089E192E00E94100FFC
:1005200080912401909125016BEF7FEF0E940B2BAE
:10053000665470408FE192E00E94100F0895809100
:1005400024019091250165E070E00E940B2B6A5B0D
:100550007F4F89E192E00E94100F809124019091D9
:10056000250165E070E00E940B2B6A5B7F4F8FE1F5
:1005700092E00E94100F089560912401709125016E
:1005800089E192E00E94100F609124017091250191
:10059000709561957F4F8FE192E00E94100F089552
:1005A0006091240170912501709561957F4F89E1DB
:1005B00092E00E94100F60912401709125018FE15B
:1005C00092E00E94100F08950F931F938C0189EF02
:1005D00091E069EB71E02CE231E040E050E00E94F4
:1005E000B60E10932501009324011F910F910895D9
:1005F0008F929F92AF92BF92CF92DF92EF92FF9233
:100600000F931F93DF93CF93CDB7DEB72C970FB621
:10061000F894DEBF0FBECDBFF0903B020F2D10E06F
:100620008D30910509F4A4C18E309105D4F4883041
:10063000910509F467C08930910544F48330910530
:1006400009F482C1059709F04EC241C08A30910574
:1006500039F18A3091050CF485C00B9709F043C23B
:1006600062C08132910509F419C28232910564F4A5
:100670008E31910509F4DCC18032910509F4E2C1A3
:10068000449709F030C2AFC18932910509F495C091
:100690008233910509F415C2829709F024C2DDC1A5
:1006A00080913C028093310280913D02809332021E
:1006B00060913102709132020930110519F489E11B
:1006C00092E002C08FE192E00E94100F0CC2F09203
:1006D000310280913C02809332026091310270912C
:1006E000320289E192E00E94100F80913D028093D6
:1006F000310280913E02809332026091310270910A
:100700003202E0CF84E991E060913C0240913D02E9
:1007100020913E0200913F020E94621884E991E01C
:100720000E94C418E0C180913C02F801EE0FFF1F47
:10073000813021F4E25FFE4F608103C0E25FFE4F33
:10074000618180913D02082F10E0053B110508F002
:10075000CAC189E292E070E00E949A1B89E292E0AD
:10076000B801ACC18FE092E00E94501790E0801772
:10077000910729F08FE092E06F2D0E94BA0C8091D2
:100780003C0280932D0280913D0280932E02809145
:100790003E0280932F0280913F028093300240916D
:1007A0002D0250912E0260912F02709130028FE045
:1007B00092E021E00E94D90C96C18AEA91E00E9461
:1007C000501790E08017910729F08AEA91E06F2D89
:1007D0000E94561780913C0290E08130910509F00B
:1007E00049C0D0903D02E0903E0280913F0280934C
:1007F00031028091400280933202009131021091C7
:100800003202F0904102F0923102809142028093D4
:10081000320280914302A82FB0E064E472E02EE738
:1008200032E0AD01460F571F06C0FB018191BF01A9
:10083000F90181939F0164177507B9F7A258BD4F5D
:100840001C928AEA91E00E94441560E0E11061E0A8
:100850008AEA91E00E94C3118AEA91E06D2D0E941C
:1008600098158AEA91E0B8014F2D2EE732E00E94F8
:10087000511439C182309105E1F500913D02E090BB
:100880003E02F0903F02109141021093310280919C
:1008900042028093320280914302482F50E0A4E448
:1008A000B2E020E030E00AC02031310551F0F9011A
:1008B000EE56FD4F8D9180832F5F3F4F24173507F4
:1008C0009CF38AEA91E00E9444158AEA91E061E093
:1008D0000E94C3118AEA91E0602F0E9498158AEA6B
:1008E00091E06F2D412F2E2D02E912E00E9491140C
:1008F000FAC0039709F0F7C0F0903D0200913E0264
:1009000010E0D0903F02E0904102E09231028091ED
:100910004202809332028AEA91E00E9444158AEAF8
:1009200091E061E00E94C3118AEA91E06F2D0E947C
:10093000981520E0012B09F021E08AEA91E06D2D65
:100940004E2D0E942D12CFC085E292E00E945017DA
:1009500090E08017910729F085E292E06F2D0E94C8
:10096000561760E080913C02882309F453C051C0BF
:1009700080913702C82EDD248DEF9FEFC80ED91E5F
:100980008E010F5F1F4FC80168E071E00E9477275A
:100990008BE3A82E82E0B82EEE24FF24902E812E29
:1009A0000AC0892D982DF50161915F010E943127C0
:1009B0000894E11CF11CEC14FD049CF38E01095F0A
:1009C0001F4FC801692D782D0E94C02789ED91E045
:1009D000B8010E948210C8010E94CA27892D982D53
:1009E0000E94CA2780C085E292E00E94501790E0E2
:1009F0008017910729F085E292E06F2D0E9456172B
:100A000080913C0290E0823091054CF460E0892BAB
:100A100009F061E085E292E00E94D61764C060E0D0
:100A2000029709F061E085E292E00E94C3175BC083
:100A30008F2D61E00E9446228F2D60913C020E9422
:100A4000852251C08F2D61E00E94462260913C02B8
:100A50008F2D70E00E94E62146C08F2D61E00E943C
:100A6000462280913B028093310280913C02809328
:100A700032026091310270913202161617064CF460
:100A800089EF91E020E030E040E050E00E94B60EB7
:100A90002AC089EF91E00E94AB0E25C080913C02F4
:100AA000E82EFF24F5EBEF16F104E8F489E292E07A
:100AB000B8010E949A1B89E292E0B7010E94B31A22
:100AC00012C00E9418210E94B32920E030E04AE7BA
:100AD00054E40E941A296093750270937602809301
:100AE0007702909378022C960FB6F894DEBF0FBE73
:100AF000CDBFCF91DF911F910F91FF90EF90DF90CD
:100B0000CF90BF90AF909F908F90089584EA91E02E
:100B10000E94A715282F8091240190912501873EDE
:100B2000910534F086EE90E09093250180932401A6
:100B3000213051F0213028F0223049F0233061F487
:100B400009C00E94D00208950E949F0208950E9449
:100B5000820208950E94BC0208951F938FE991E0DC
:100B600062E370E00E94421A0E948729162F80914A
:100B7000A2028823A1F482EA92E00E94F225892B46
:100B800071F00E9418216093AA027093AB028093C7
:100B9000AC029093AD0282EA92E00E94FC2586E0CE
:100BA0000E94C4210E94B52662E070E080E090E0DF
:100BB0000E949326812F81508F3018F00E94D0021E
:100BC0000FC01B3058F0662319F0613049F403C0A0
:100BD0000E949F0205C00E94820202C00E94BC02C5
:100BE00064E670E080E090E00E9426211F91089565
:100BF00084E991E00E94F41889E192E060E070E0FD
:100C00000E94100F8FE192E060E070E00E94100FF0
:100C1000089580912C02823079F0833028F4882363
:100C2000C1F08130F1F405C0843049F08830C9F456
:100C300009C00E94D00208C00E94BC0205C00E94E8
:100C40009F0202C00E94820280912C0280937D024A
:100C5000089580917D02882321F010927D020E94E8
:100C6000F80508950F931F938091AE028823A1F495
:100C70008EEA92E00E94F225892B71F00E941821E1
:100C80006093B6027093B7028093B8029093B90252
:100C90008EEA92E00E94FC2589ED91E00E94B61058
:100CA000892B09F406C21091DC010E94182160937F
:100CB000B6027093B7028093B8029093B902812F65
:100CC00090E0A0E0B0E080349105A105B10509F401
:100CD000CDC081349105A105B10578F58C30910521
:100CE000A105B10509F4C8C18D309105A105B10573
:100CF00090F488309105A105B10509F46FC18930E0
:100D00009105A105B10509F4C8C00797A105B10572
:100D100009F0EEC1CDC089319105A105B10509F4F5
:100D2000B0C08C319105A105B10509F43DC14897CA
:100D3000A105B10509F0DCC184C187349105A10585
:100D4000B10509F474C088349105A105B10590F48A
:100D500085349105A105B10561F186349105A105A0
:100D6000B10508F043C082349105A105B10509F031
:100D7000BFC1E3C082359105A105B10509F4C3C027
:100D800083359105A105B10538F48A349105A10593
:100D9000B10509F0ADC19CC08A359105A105B10529
:100DA00009F4E8C08E359105A105B10509F0A0C18F
:100DB0002EC18CED90E09093250180932401109238
:100DC00033020E94F80589EF91E066E271E02CE2BF
:100DD00031E040E050E00E94B60E84E991E00E94CC
:100DE000F41884E991E06AE04AE03EC088EC90E0C3
:100DF000909325018093240181E0809333020E9427
:100E0000F80589EF91E06AE471E02CE231E040E01E
:100E100050E00E94B60E84E991E00E94F41884E943
:100E200091E060E04AE020E00E94111861C182E098
:100E30008093330288E790E090932501809324010A
:100E40000E94F80589EF91E06EE571E02CE231E057
:100E500040E050E00E94B60E84E991E00E94F41850
:100E600084E991E060E040E02AE0DECF81E0809319
:100E70002C0284E991E00E94F41884E991E06AE090
:100E8000D1CF82E080932C0284E991E00E94F41893
:100E900084E991E06AE040E0C6CF88E080932C02CC
:100EA00084E991E00E94F41884E991E061E00AC0CD
:100EB00084E080932C0284E991E00E94F41884E994
:100EC00091E062E04AE02AE000E00E94621810C16E
:100ED00089EF91E065E972E02CE231E040E050E01A
:100EE0000E94B60E6CE271E080E090E00E94262144
:100EF0002091280130912901C901A3E0880F991F91
:100F0000AA95E1F79BC089EF91E06DE472E02CE2D5
:100F100031E040E050E00E94B60E6CE271E080E00B
:100F200090E00E9426218091280190912901F3E010
:100F3000880F991FFA95E1F79AC089EF91E06CE26A
:100F400072E02CE231E040E050E00E94B60E6CE22C
:100F500071E080E090E00E942621209128013091EC
:100F60002901C901E3E0880F991FEA95E1F7821B87
:100F7000930B7DC089EF91E06FEE71E02CE231E0E0
:100F800040E050E00E94B60E6CE271E080E090E03C
:100F90000E9426212091280130912901C901880F42
:100FA000991F820F931F61C089EF91E069EB71E097
:100FB0002CE231E040E050E00E94B60E6CE271E0BD
:100FC00080E090E00E9426212091280130912901A3
:100FD000C901880F991F880F991F30C089EF91E0D0
:100FE00069E871E02CE231E040E050E00E94B60E8A
:100FF0006CE271E080E090E00E942621809128015F
:1010000090912901880F991F880F991F30C089EF8F
:1010100091E06EE571E02CE231E040E050E00E94AA
:10102000B60E6CE271E080E090E00E9426212091F3
:10103000280130912901C901880F991F820F931F40
:1010400016C089EF91E06AE471E02CE231E040E003
:1010500050E00E94B60E6CE271E080E090E00E94E9
:1010600026218091280190912901880F991F2091B4
:1010700026013091270118C089EF91E066E271E006
:101080002CE231E040E050E00E94B60E6CE271E0EC
:1010900080E090E00E942621809126019091270116
:1010A0002091280130912901820F931F0E94E402B0
:1010B0001FC00E9418212091B6023091B7024091C2
:1010C000B8025091B902621B730B840B950B693700
:1010D00071058105910560F010922C020E94182183
:1010E0006093B6027093B7028093B8029093B902EE
:1010F0001F910F9108951092340280E196E00E94B2
:10110000DD24181619064CF481E08093340280E146
:1011100096E00E94112580936C020895682F80E16B
:1011200096E00E944A250895EF92FF920F931F9335
:101130007B018C0182E00E948E08E0922D02F092E9
:101140002E0200932F021093300280912D020E94F4
:101150008E0880912E020E948E0880912F020E949C
:101160008E08809130020E948E081F910F91FF908F
:10117000EF900895EF92FF920F931F93CF93DF9319
:101180007C01FC010481158184E00E948E08802F7F
:101190000E948E08C0E0D0E007C0C701BE010E94D7
:1011A000BD260E948E082196C017D107B4F3DF91A7
:1011B000CF911F910F91FF90EF9008951F93182FDB
:1011C00081E00E948E08812F0E948E081F91089551
:1011D000CF92DF92EF92FF920F931F93DF93CF9303
:1011E00000D000D000D0CDB7DEB7D0903B020D2D9F
:1011F00010E08730910509F467C088309105B4F498
:101200008230910509F445C0833091053CF4009784
:1012100009F451C1019709F085C127C085309105B6
:101220000CF452C0059709F07DC163C08E31910561
:1012300009F450C18F31910564F48131910509F4AD
:10124000AAC08531910509F4D6C00F9709F06AC18B
:1012500082C08332910509F412C18233910509F4E9
:1012600057C14F9709F05EC13DC18FE991E00E94DF
:10127000501790E08017910729F08FE991E06D2DCC
:101280000E9456178FE991E060E573EC0E94421AC4
:1012900047C1F0903C028DEF91E00E94501790E022
:1012A0008017910731F48DEF91E00E9453178F154D
:1012B00031F08DEF91E06D2D4F2D0E94EF198DEFE4
:1012C00091E00E9478192CC185E292E00E945017AB
:1012D00090E080179107D1F185E292E06D2D0E9498
:1012E000561785E292E00E947C1760E00E94462239
:1012F0002DC080913C02E82EFF2485E292E00E94FE
:10130000501790E08017910799F085E292E06D2DDB
:101310000E94561785E292E00E94791760E00E94D1
:10132000462285E292E00E947C1760E00E944622FD
:1013300081E0E816F10429F485E292E00E94BE17EC
:10134000DEC0E2E0EE16F10409F0ECC085E292E0C6
:101350000E94B917D4C085E292E00E94501790E035
:101360008017910761F085E292E06D2D0E9456177B
:1013700085E292E00E947C1760E00E94462285E2AE
:1013800092E00E94E91790E0A0E0B0E0BC01CD013E
:101390000E94B329C5C085E292E00E94501790E0F8
:1013A0008017910799F085E292E06D2D0E94561703
:1013B00085E292E00E94791760E00E94462285E271
:1013C00092E00E947C1760E00E94462285E292E053
:1013D0000E94FD17E82E85E292E00E94E917FF24A3
:1013E000EE0CFF1CE80EF11C0027F7FC0095102FF7
:1013F000C801B7018AC0C0903C02EC2CFF2485E2F2
:1014000092E00E94501790E08017910741F485E226
:1014100092E00E94531790E08E159F0531F085E20F
:1014200092E06D2D4C2D0E946617F1E0EF16F1044D
:1014300061F485E292E00E94791762E00E94462200
:1014400085E292E00E94FD170BC085E292E00E94C7
:101450007C1762E00E94462285E292E00E94E91732
:1014600090E0A0E0B0E0BC01CD010E94B329E62FDE
:101470002E2F372F482F592FB901CA0151C0F09094
:101480003C02000F111F065D1E4FF8011081812FD5
:1014900060E00E944622812F0E94C42110E00B9739
:1014A0000CF411E080E0111181E08F250E94DE082C
:1014B0001093740237C08E010F5F1F4FC8016DE695
:1014C00072E00E94C027C8010E94BA08C8010E94A9
:1014D000CA2728C08D2D60E00E9446228D2D0E94D3
:1014E000D9220DC0000F111F065D1E4FF80110819B
:1014F000812F60E00E944622812F0E94C421AA27EA
:1015000097FDA095BA2FBC01CD010E94B52908C056
:101510006091790270917A0280917B0290917C02B5
:101520000E94940826960FB6F894DEBF0FBECDBF7A
:10153000CF91DF911F910F91FF90EF90DF90CF90AF
:1015400008958FEF0E948E0885E50E948E08089509
:1015500080E196E00E942A2608958FEF0E948E086F
:1015600085E50E948E080E94A80A08950F931F9394
:1015700010926B020091380210913A028091390268
:101580008230B1F0833018F48130C1F405C084306A
:1015900099F0853099F410C00E94A10A802F0E9412
:1015A0008E08812F90E00E94E8080E94A80A06C0D9
:1015B000812F90E00E94F8020E94AD0A1F910F91C6
:1015C00008950E947B0880913402882309F447C063
:1015D00090916C02953571F480916B02882351F4DF
:1015E000809173028F3FF1F481E0809369028093D0
:1015F0006B0218C09093730280916B02882391F064
:10160000E0916902E23019F490936A0207C0E33076
:1016100028F080916A02815080936A02F0E0EB5CCE
:10162000FD4F9083809169028F5F809369028433BC
:1016300020F01092690210926B0280916B02882355
:1016400071F080916A02882351F48091690284309C
:1016500030F010926B020E94B60A1092690208954F
:101660000E9432060E94E10A80913302813041F0EB
:10167000813018F08230A1F706C00E940906F0CF31
:101680000E94AD05EDCF0E948605EACFEF92FF9252
:101690000F931F930E94F80504E911E0C80160E16F
:1016A0000E943C19C8010E94F418C8016AE040E099
:1016B00020E00E94111829EFE22E21E0F22EC7014E
:1016C00066E271E02CE231E040E050E00E94B60EAC
:1016D0006CE271E080E090E00E942621C80160E0A9
:1016E0004AE020E00E941118C7016AE471E02CE290
:1016F00031E040E050E00E94B60E6CE271E080E024
:1017000090E00E942621C80160E040E02AE00E94AB
:101710001118C7016EE571E02CE231E040E050E0C5
:101720000E94B60E6CE271E080E090E00E942621FB
:10173000C8010E94F41880E196E040E052EC61E0BC
:1017400070E00E945624C7010E94AB0E89ED91E023
:101750000E94EC0F1F910F91FF90EF9008950F934F
:101760001F938C01FC01808560E00E948522F801B6
:10177000818560E00E948522F801808561E00E94F9
:101780008522F801818561E00E9485221F910F91D9
:1017900008950F931F938C01FC01808561E00E94E6
:1017A0008522F801818561E00E948522F80181850A
:1017B00060E00E948522F801808560E00E94852219
:1017C0001F910F910895FF920F931F93CF93DF9373
:1017D000EC01162FFF24888560E00E948522012FEE
:1017E00010E000FF03C0898561E002C0898560E0E8
:1017F0000E948522888561E00E948522F39488E01A
:10180000F81621F015950795102FE5CF888560E033
:101810000E948522898561E00E948522888561E099
:101820000E948522898560E00E9446220BC01F5FCE
:10183000183C49F4898561E00E944622898560E070
:101840000E94852210E089850E94D922892B79F790
:10185000898561E00E944622DF91CF911F910F910F
:10186000FF900895EF92FF920F931F93CF93DF9312
:10187000EC017B010E94C90BCE0160E40E94E30BE6
:10188000CE010E94AF0BCE010E94C90BCE016D812B
:101890000E94E30B00E010E0F701E00FF11FCE0122
:1018A00060810E94E30B0F5F1F4F04301105A1F709
:1018B000CE010E94AF0BCE010E94C90BCE016E81FA
:1018C0000E94E30BCE010E94AF0BDF91CF911F91DD
:1018D0000F91FF90EF9008950F931F93DF93CF9395
:1018E00000D000D0CDB7DEB78C0120E030E0AE01F3
:1018F0004F5F5F4FFA01E20FF31FDB01A20FB31F2F
:101900008C9180832F5F3F4F2430310599F7DA01A6
:101910009E012B5F3F4FEC91F0E0EF5BFE4F80812B
:101920008D93A217B307B9F7C801BE016F5F7F4F50
:101930000E94320C0F900F900F900F90CF91DF917B
:101940001F910F910895DF93CF9300D000D0CDB7B2
:10195000DEB720E229832A832B832C83BE016F5FAD
:101960007F4F0E946C0C0F900F900F900F90CF91B3
:10197000DF9108950F931F938C010E94BA0CF80118
:10198000818180879081918761E00E944622F801E1
:10199000818561E00E94462280E4F801848380EC26
:1019A00085838AE88683C8010E94A30C1F910F914A
:1019B00008952F923F924F925F926F927F928F92F3
:1019C0009F92AF92BF92CF92DF92EF92FF920F93CE
:1019D0001F93DF93CF93CDB7DEB72E970FB6F89452
:1019E000DEBF0FBECDBF9A8789874A015B01322EC9
:1019F000DB01CA01B0588B879C87AD87BE87C501C4
:101A0000B40120E03EE34CE156E40E94652A8823BD
:101A100054F4C501B40120E030EE49E754EC0E94D3
:101A20001629181634F080E28C838B838A8389838D
:101A3000BAC0C501B40120E030E040E050E00E94AF
:101A4000162987FD04C075016401222406C0CB84D9
:101A5000DC84ED84FE842224239420E030E040E006
:101A60005FE310E00BC0CA01B90120E030E040E2C2
:101A700051E40E941A299B01AC011F5F131598F3D2
:101A8000C701B6010E94B2287B018C010E94872900
:101A90006B0180E090E00E94B3299B01AC01C8017A
:101AA000B7010E94B1282B013C0110E0C6016AE099
:101AB00070E00E94F72AAB01E5E0F0E0EC0FFD1FBB
:101AC000E10FF11DCB01880F991F9A0163E0220FEE
:101AD000331F6A95E1F7820F931FAC2DA81BA083DB
:101AE0001F5F4115510511F06A01E0CF812F820D72
:101AF000282F230D253020F094E0392E381A7FCF7F
:101B000080E28C838B838A83898394E0921B2220DA
:101B100031F0FE01E90FF11D81E281839F5F392FD2
:101B2000212FBE016F5F7F4FAE014C5F5F4F0AC038
:101B3000FB01E30FF11DDA01A20FB11D8C9180832F
:101B40003F5F21502223A1F7D92ED10E332059F126
:101B5000FE01ED0DF11D8081805F80835E010894A0
:101B6000A11CB11CC301B20120E030E040E251E40D
:101B70000E94692A7B018C010E948229F501ED0DEA
:101B8000F11D6083D394882777FD8095982F0E945C
:101B9000B5299B01AC01C801B7010E94B1282B01F6
:101BA0003C013A94F9F689859A85BE016F5F7F4FB3
:101BB0000E946C0C2E960FB6F894DEBF0FBECDBF00
:101BC000CF91DF911F910F91FF90EF90DF90CF9019
:101BD000BF90AF909F908F907F906F905F904F904D
:101BE0003F902F9008950E942E170895CF92DF9274
:101BF000EF92FF921F93CF93DF936B017C011092C2
:101C0000B0001092B1008091B0008C7F8260809310
:101C1000B0008091B100877F8093B10062E17AE7E4
:101C200080E090E0A70196010E941E2B10E01F5F4C
:101C3000E12FF0E0EE0FFF1FED59FE4FC081D18183
:101C4000C217D307A0F360E072E18AE790E0A70132
:101C500096010E941E2BCA01B9019E0140E050E08E
:101C60000E941E2B21502093B3008091B100177069
:101C7000887F182B1093B10080917000846080934E
:101C80007000DF91CF911F91FF90EF90DF90CF9088
:101C900008951F920F920FB60F9211242F933F9326
:101CA0004F935F936F937F938F939F93AF93BF9364
:101CB000EF93FF938091BA029091BB02A091BC0276
:101CC000B091BD020097A105B10551F1E091BE02AE
:101CD000F091BF0280819091C0028927808380911A
:101CE000BA029091BB02A091BC02B091BD0218163D
:101CF00019061A061B06F4F48091BA029091BB02F1
:101D0000A091BC02B091BD020197A109B1098093D5
:101D1000BA029093BB02A093BC02B093BD020AC06A
:101D2000809170008B7F809370008091C10260E091
:101D30000E948522FF91EF91BF91AF919F918F916A
:101D40007F916F915F914F913F912F910F900FBEB7
:101D50000F901F901895E0E7F0E080818B7F8083E3
:101D60008091C10260E00E9485220895EF92FF9267
:101D70000F931F93CF93DF93EB0179018A01809139
:101D8000C102482F50E0FA01E655FD4FE491F0E022
:101D9000EE0FFF1FEA56FD4F259134913093BF029D
:101DA0002093BE0242545D4FFA0194919093C00279
:101DB00061E00E944622E114F1040105110529F4B5
:101DC0008FEF9FEFAFEFBFEF11C0BE01660F771F20
:101DD00080E090E0A80197010E94CC2A28EE33E031
:101DE00040E050E00E941E2BC901DA018093BA0244
:101DF0009093BB02A093BC02B093BD02BE0180E0F1
:101E000090E00E94F60DDF91CF911F910F91FF900E
:101E1000EF9008950E942E1788E08093C1020895E4
:101E2000EF92FF920F931F93CF93DF937C01EB010F
:101E30006F3F710519F014F0CFEFD0E08E018FEFF6
:101E4000C130D8071CF401E01FEF0BC0D7FD09C05B
:101E5000F701848161E00E948522F7018581BE013E
:101E60000BC0F701848160E00E94852266277727F6
:101E7000601B710BF70185810E94E621DF91CF91F4
:101E80001F910F91FF90EF9008950F931F938C0176
:101E90000E944017F801808185838181848361E0FD
:101EA0000E9446221F910F910895CF93DF93EC017A
:101EB000AE81BF818C9190E0863891050CF45EC0B4
:101EC000833E91050CF05AC0888599858330910531
:101ED00009F05AC011968C91119790E081329105CA
:101EE0000CF44CC0CA970CF049C012968C9190E04B
:101EF000883091050CF442C00F970CF03FC01D8252
:101F000038C011968C91119790E083349105B4F10B
:101F1000823791059CF5FD01339620E030E040E0EA
:101F200050E0BD016D5B7F4F8291319690E088302B
:101F3000910524F10F9714F5808190E08731910588
:101F400044F18A9734F5569547953795279550680B
:101F500006C00F979CF4569547953795279532966E
:101F6000E617F70709F780E28D8329833A834B83CD
:101F70005C8381E0888321E030E002C020E030E033
:101F8000C901DF91CF910895833491050CF0B9CF49
:101F9000F5CF808190E08830910584F3DACF1092FC
:101FA0007000262F30E040E050E060E47FE180E008
:101FB00090E00E94402B822F91E09093B00099E036
:101FC0009093B1002093B30063E00E94EB2AE4EB0E
:101FD000F0E08083E08108950F931F938C01F894C3
:101FE00092E09093B0009093B10084E68093B300A8
:101FF000E2EBF0E01082E08190937000789482E050
:102000008093C30210922E0380E090E0A0E0B0E045
:10201000F801878B908FA18FB28F13861286158659
:10202000148616861786C801419669E071E00E9401
:102030009027F801108A1F910F910895CB01E0EBD2
:10204000F0E020812F7D20830E947F210895CB0125
:10205000E0EBF0E02081206220830E947F21089540
:10206000AF92BF92CF92DF92EF92FF920F931F93A6
:10207000CF93DF93EC017A018B01590166E20E9454
:10208000CF0FCE0168E273E20E942710CE0164E90F
:1020900071E10E941E10CC24DD241CC0E0FE09C0AA
:1020A000CE0160E372E00E942710CE0160E476E08A
:1020B00008C0CE0160E372E00E942710CE0160E309
:1020C00072E00E941E1016950795F794E794089405
:1020D000C11CD11CCA14DB040CF3CE0160E372E016
:1020E0000E942710CE0160E070E00E941E10DF9178
:1020F000CF911F910F91FF90EF90DF90CF90BF9005
:10210000AF900895EF92FF920F931F93CF93DF93B9
:102110007C018B01C0E0D0E013C0C801BE010E9469
:10212000BD26482F552747FD5095652F752FBA01BD
:1021300055274427C70120E230E00E943010219645
:10214000F80184819581C817D90738F3C70140E0A9
:1021500050E06AE070E020E230E00E943010DF9151
:10216000CF911F910F91FF90EF900895CF93DF9340
:10217000EC0180912F038823A1F48FE293E00E9469
:10218000F225892B71F00E94182160933703709318
:1021900038038093390390933A038FE293E00E94CF
:1021A000FC250E941821209137033091380340917B
:1021B000390350913A03621B730B840B950B695ED4
:1021C00073408040904090F0CE010E94EC0F0E943E
:1021D00018216093370370933803809339039093E9
:1021E0003A0319821A821B821C8224C08AEC92E074
:1021F0009F838E8380912E03888719868091C302E6
:102200008530C1F4CE010E94550F892B81F0CE019B
:102210000E94EC0F0E9418216093370370933803DB
:102220008093390390933A0321E030E005C0CE015A
:102230000E94EC0F20E030E0C901DF91CF910895BA
:102240000F931F938C01419669E071E00E947727FC
:1022500082E060E00E944622C8010E94EC0F83E009
:1022600061E00E94462283E060E00E9485221F9187
:102270000F9108951F920F920FB60F9211242F9372
:102280003F934F935F936F937F938F939F93AF93FE
:10229000BF93EF93FF9382E00E94D922282F809171
:1022A000C8029091C90201969093C9028093C80216
:1022B00080912E03843618F085E08093C3028091CC
:1022C000C302833091F0843020F4823009F04AC098
:1022D00006C0843011F1853009F044C03DC022238E
:1022E00009F040C010922E0328C02130D9F520916A
:1022F0002E03E22FF0E08091C8029091C902EE53C4
:10230000FD4F80872F5F20932E031092C9021092F9
:10231000C80284E08093C30225C02223A1F4209147
:102320002E03E22FF0E08091C8029091C902EE5393
:10233000FD4F80872F5F20932E031092C9021092C9
:10234000C80283E0E7CF8091C8029091C902853628
:10235000910540F085E0DECF222321F41092C902DE
:102360001092C802FF91EF91BF91AF919F918F9111
:102370007F916F915F914F913F912F910F900FBE81
:102380000F901F901895FC0164830895CF92DF92FF
:10239000EF92FF920F931F93CF93DF93EC01F42EF4
:1023A000E52EC22E603108F04FC0222309F44CC044
:1023B000062F006C888161E00E948522898160E09F
:1023C0000E94852210E0888160E00E948522602FB3
:1023D000617089810E948522888161E00E94852246
:1023E00006951F5F183079F78F2D9E2D9C0189016E
:1023F000DD2418C0F801E080FF24888160E00E949D
:1024000085226E2D607889810E948522888161E015
:102410000E948522EE0CF394F8E0FF1671F7D39436
:102420000F5F1F4FDC1430F3888160E00E9485222B
:10243000898160E00E948522888161E00E94852276
:10244000898161E00E948522DF91CF911F910F91D8
:10245000FF90EF90DF90CF900895DC01362F862F0C
:102460006AE00E94EB2A90E0BC01660F771F680FBC
:10247000791FFB01E859FF4FE4911696EC931697EC
:10248000FB01E759FF4FE4911796EC9317976659B4
:102490007F4FFB01849118968C93189719961C9284
:1024A0001997832F6AE00E94EB2A892F90E0BC01E4
:1024B000660F771F680F791FFB01E859FF4FE49102
:1024C0001A96EC931A97FB01E759FF4FE4911B967C
:1024D000EC931B9766597F4FFB0184911C968C935C
:1024E0001C97842F6AE00E94EB2A90E0BC01660FE3
:1024F000771F680F791FFB01E859FF4FE4911F9682
:10250000EC931F97FB01E759FF4FE4915096EC9332
:10251000509766597F4FFB01849151968C93519748
:1025200052961C925297842F6AE00E94EB2A892FC0
:1025300090E0AC01440F551F480F591FFA01E859AC
:10254000FF4FE4915396EC935397FA01E759FF4FED
:10255000E4915496EC93549746595F4FFA01849155
:1025600055968C935597222341F088E21D968C93C3
:102570001D971E968C931E9706C01D961C921D9744
:102580001E961C921E9714968C911497882349F4DA
:10259000FD0190E08681809586839F5F3196903122
:1025A000C9F7CD0160E01696AD0120E10E94C61189
:1025B0000895AF92BF92CF92DF92EF92FF920F9366
:1025C0001F93CF93DF93EC014E895F891416150694
:1025D0000CF077C0FC0120E030E001C01582F22E43
:1025E0008E899F89281739073CF42F5F3F4F31961A
:1025F0002131310599F7FDC04FE0421708F4F9C0C9
:10260000DD2440E2C42E47C08C91992787FD909528
:1026100030E082179307B9F480E090E09A01FC0162
:10262000E20FF31FE957FF4FE491DE01AF0DB11D3B
:102630001696EC93F394AFE0AF15B0F001968630A8
:10264000910569F711C0E3946E2D70E0AB0133E0A2
:10265000440F551F3A95E1F7461B570BFA01EA570D
:10266000FF4F2491203481F6FB0123E0EE0FFF1F82
:102670002A95E1F7E61BF70BEA57FF4FE491E034A8
:1026800029F40C0F1D1FF801C38EDA94FFE0FF152B
:1026900008F4AFC0D3940D2D10E0898D9A8D0817E2
:1026A000190734F4EE24DE01A00FB11F5B96CCCFE6
:1026B000FE01EF0DF11D1682F39440E1F416C1F70F
:1026C00098C0898D9A8D2AEF3FEFBC01629FC001AF
:1026D000639F900D729F900D11244817590741F484
:1026E000FE0180E016828F5F31968031D9F781C07C
:1026F00022273327241B350BC90166E070E00E94B6
:102700000B2BB82E3F8B2E8BC90166E070E00E9428
:102710000B2BFF2490E2A92E52C08C91992787FDA4
:10272000909530E082179307F9F420E030E0CB2C4D
:10273000DD24C7FCD09413C0F901EC0DFD1DE40F9E
:10274000F51FE957FF4FE491DE01AF0DB11D16965D
:10275000EC93F3942F5F3F4F8FE08F15B8F08B2DE4
:10276000820F86304CF312C0E3940E2D10E0A801C6
:1027700083E0440F551F8A95E1F7401B510BFA0186
:10278000EA57FF4F2491203441F601C0BB24F801E1
:10279000A3E0EE0FFF1FAA95E1F7E01BF10BEA574C
:1027A000FF4FE491E03431F4FE01E60FF71FA38EF2
:1027B00061507040AFE0AF15A8F06F5F7F4F898D1B
:1027C0009A8D681779075CF4EE24DE01A60FB71F17
:1027D0005B96CBCFFE01EF0DF11D1682F394BFE0A7
:1027E000BF15C0F78E899F89909581959F4F9F8BCC
:1027F0008E8B288D332727FD309587E090E0821B54
:10280000930B97FD1BC0FE0167E070E0AE01405FD7
:102810005F4F868190E0288D332727FD3095DB01BF
:10282000A21BB30B0A2E02C0880F991F0A94E2F76D
:1028300086833196E417F50761F715C0FE01AE01F6
:10284000405F5F4F268130E0888D992787FD909506
:10285000079702C0359527958A95E2F7268331962A
:10286000E417F50779F78C81882349F4FE0190E09D
:102870008681809586839F5F31969031C9F7CE011E
:1028800060E02696AE0120E10E94C611DF91CF9153
:102890001F910F91FF90EF90DF90CF90BF90AF907E
:1028A0000895CF93DF93EC0181E08D831A8E198E0A
:1028B0000AC0A331B1057CF4FE01EA0FFB1F838F30
:1028C0001196BA8FA98FA98DBA8DF901EA0FFB1F56
:1028D0008081882371F7AC0FBD1F5B961C92298DF8
:1028E0003A8D8AEF9FEF289FF001299FF00D389FC6
:1028F000F00D11246E177F0734F0FB016131710573
:1029000014F0E0E1F0E0FF8BEE8B40310CF04FE093
:1029100047FD4FEF488FCE010E94D912DF91CF9132
:102920000895CF92DF92EF92FF920F931F93CF9370
:10293000DF93EC01D22E502FE12F60310CF09BC0C1
:1029400048300CF098C0222309F495C08C81042FE4
:10295000112707FD1095772767FD70958823F1F4FF
:1029600028E030E0201B310B8FEF90E002C0880F91
:10297000991F2A95E2F7C82E6A5F7F4FDE01A60FE6
:10298000B71F66507040252F3E2FC901FC0120E083
:1029900030E0EE24FF24E01AF10A64C028E030E0C1
:1029A000201B310B8FEF90E002C0880F991F2A95F2
:1029B000E2F7C82E6A5F7F4FDE01A60FB71F665091
:1029C0007040252F3E2FC901FC0120E030E07B0143
:1029D00066277727601B710B1FC0C9018E0D9F1DD5
:1029E00097FD16C05C918081141644F490E0002E8F
:1029F00002C0959587950A94E2F707C090E0062EED
:102A000002C0880F991F0A94E2F75C21852B8C93F2
:102A10002F5F3F4F119631962D15F8F225C0C90151
:102A2000860F971F97FD1AC05C918081141654F48D
:102A300090E080959095002E02C0959587950A9418
:102A4000E2F709C090E0809590950E2C02C0880FA7
:102A5000991F0A94E2F75C21852B8C932F5F3F4FDF
:102A6000119631962D15D8F2CE0160E02696AE0172
:102A700020E10E94C611DF91CF911F910F91FF902D
:102A8000EF90DF90CF900895CF93DF93EC01888192
:102A900061E00E944622898161E00E944622FE0197
:102AA00080E016828F5F31968031D9F781E08C8388
:102AB0001D82CE0160E02696AE0120E10E94C61183
:102AC000DF91CF9108950F931F93CF93DF93EC0184
:102AD000062F888161E00E948522898160E00E9442
:102AE000852210E0888160E00E948522602F61705D
:102AF00089810E948522888161E00E948522069555
:102B00001F5F183079F7888160E00E9485228981F3
:102B100060E00E948522888161E00E94852289818F
:102B200061E00E948522DF91CF911F910F9108955E
:102B3000693010F068E002C0662311F061506860EF
:102B400060680E94631508950E942E170895EF9201
:102B5000FF921F937C01FC0184810E94D922182FCF
:102B6000F70185810E94D922110F812B1F91FF90BF
:102B7000EF9008950F931F938C010E944017F80166
:102B8000808184839181958360E00E944622F801D0
:102B9000858160E00E9446221F910F91089508955B
:102BA000DC01862F90E0FC01E254FD4FE491EC93B0
:102BB00086559D4FFC016491E62FF0E0EE0FFF1F5C
:102BC000E056FD4F8591949112969C938E931197A8
:102BD0000895DF92EF92FF920F931F93FC01E08024
:102BE00001811281F894F80181818E29818382818B
:102BF000DE2CD0948D21828383E090E00E947F219F
:102C0000F80181818D21818382818E2982838AE0EE
:102C100090E00E947F21F8010081789485E390E0A4
:102C20000E947F2180E010E0FF240E211F21012B54
:102C300009F081E01F910F91FF90EF90DF900895D0
:102C4000EF92FF920F931F93CF93DF937C0101E0EC
:102C500010E0C0E0D0E0C7010E94E9158111102BFF
:102C6000000F2196C830D105B1F7812FDF91CF91A8
:102C70001F910F91FF90EF9008951F93CF93DF93D3
:102C8000FC011081C181D281912F909560FF12C00B
:102C9000F8948A8189238A838981812B89838AE0B8
:102CA00090E00E947F218A81812B8A83789487E338
:102CB00090E011C0F8948A8189238A838981812BCD
:102CC000898381E490E00E947F218A81812B8A831D
:102CD000789485E090E00E947F21DF91CF911F9151
:102CE0000895CF92DF92EF92FF920F931F93CF93AD
:102CF000DF93EC01E42EFF24F39400E010E0C62EF5
:102D0000DD2460E08F2D90E08C219D21892B09F03E
:102D100061E0CE010E943D16FF0C0F5F1F4F08308F
:102D2000110579F7EE20B1F4F894E981FA819181E7
:102D30008881809598239183E981FA8182819881A5
:102D4000892B8283E981FA819281888180959823F9
:102D500092837894DF91CF911F910F91FF90EF9024
:102D6000DF90CF9008956CEC40E00E9471160895BA
:102D7000DF92EF92FF920F931F93CF93DF93FC01AB
:102D80000081C181D281F8948981D02ED0948D2187
:102D900089838A81802B8A8378941DE7E02EFF2423
:102DA000115071F182E090E00E947F21888190E0D3
:102DB0008E219F21892BA1F3F8948A818D218A830A
:102DC0008981802B8983789480EE91E00E947F2115
:102DD000F89489818D2189838A81802B8A8386E476
:102DE00090E00E947F21888110E090E0E822F922A3
:102DF000EF2809F411E078948AE991E00E947F219C
:102E0000812FDF91CF911F910F91FF90EF90DF9075
:102E10000895EF92FF920F931F93FC01E0800181D0
:102E20001281F80181819E2D909589238183828171
:102E30008E2982838AE090E00E947F21F8018081C0
:102E400020E090E0FF248E219F21892B09F021E0D2
:102E5000822F1F910F91FF90EF900895FC018091B8
:102E60000E01808380910F01818312820895FC01FD
:102E700080910E01808380910F01818312820895D9
:102E8000DC01E62FF0E0EE0FFF1FE25FFE4F8081D6
:102E90008C93818111968C93119712966C9308955F
:102EA000FC0182810895FC0183810895DC01E62FF5
:102EB000F0E0EE0FFF1FE25FFE4F80818C93818177
:102EC00011968C93119712966C930895DC01E62F5E
:102ED000F0E0EE0FFF1FE25FFE4F80818C93818157
:102EE00011968C93119712966C93129713964C939C
:102EF0000895FC0180810895FC018181089581E09D
:102F000090E090933C0380933B0310923D04109219
:102F10003E0410923F04109240041092410410921B
:102F200042041092430410924404109245041092FB
:102F300046041092470410924804109249041092DB
:102F40004A0410924C0410924B0410924D041092BB
:102F50004E0410924F04109250041092510410929B
:102F60005204109253041092540410925504089580
:102F70000895FC0181810E94C4210895FC01808193
:102F80000E94C4210895FF920F931F938C01F62E87
:102F9000FC01818161E00E944622F80181816F2D50
:102FA0000E9485221F910F91FF900895FF920F9329
:102FB0001F938C01F62EFC01808161E00E94462265
:102FC000F80180816F2D0E9485221F910F91FF9043
:102FD00008950F931F938C01FC01818160E00E9492
:102FE0004622F80181810E94D92220E0892B09F034
:102FF00021E0822F1F910F9108950F931F938C0151
:10300000FC01808160E00E944622F80180810E94DC
:10301000D92220E0892B09F021E0822F1F910F9106
:103020000895DC01722F20E030E050E016C0852FBB
:1030300090E0E80FF91F40831696ED91FC911797E9
:10304000E80FF91F61831696ED91FC911797E80F31
:10305000F91F72832F5F3F4F5D5F14968D919C9196
:1030600015971696ED91FC91179728173907F8F2E6
:103070009C01220F331F280F391F1A969C911A9713
:1030800018960D90BC91A02D5FB7F8948C91492FA4
:1030900040954823982B11C0819168E09C9300C013
:1030A00087FF4C93880F00C000C000C008F44C9309
:1030B00000C06A9599F7215030402115310561F71C
:1030C0005FBF08950F93DC01542F422F662329F42C
:1030D000652F202F0E94111855C06150262F30E017
:1030E00014968D919C91159728173907D0F483E099
:1030F000689F802D112490E01696ED91FC91179712
:10310000E80FF91F40831696ED91FC911797E80F91
:10311000F91F51831696ED91FC911797E80FF91F4F
:1031200002831696ED91FC91179714968D919C91C0
:1031300015979C01220F331F280F391F1A969C9157
:103140001A9718960D90BC91A02D5FB7F8948C91AA
:10315000492F40954823982B11C0819168E09C939A
:1031600000C087FF4C93880F00C000C000C008F467
:103170004C9300C06A9599F72150304021153105D4
:1031800061F75FBF0F910895CF93DF93FC01C68174
:10319000D781848195819C01220F331F280F391F0D
:1031A0009285A085B1855FB7F8948C91492F4095A1
:1031B0004823982B11C0899168E09C9300C087FF39
:1031C0004C93880F00C000C000C008F44C9300C0AE
:1031D0006A9599F7215030402115310561F75FBF9D
:1031E000DF91CF91089508950F931F93CF93DF93AD
:1031F0008C01DC0114968D919C9115979C01220FF6
:10320000331F280F391F16968C91169717969C918D
:1032100060E070E0A9010E940D02E801EE81FF81EB
:103220008C819D819C01220F331F280F391F9A85A5
:10323000A885B9855FB7F8948C91492F40954823AC
:10324000982B11C0819168E09C9300C087FF4C933C
:10325000880F00C000C000C008F44C9300C06A95FD
:1032600099F7215030402115310561F75FBFDF919B
:10327000CF911F910F9108950F931F938C0170E0D0
:10328000FC0175836483CB01880F991F860F971FFC
:103290000E949B1FF80186839783C8010E94F4183F
:1032A0001F910F9108950F931F938C010E942E1769
:1032B000EBECF2E0E491D8011A96EC931A97E7EB65
:1032C000F2E0E491F0E0EE0FFF1FEA56FD4F85912A
:1032D000949119969C938E9318978DE061E00E94CB
:1032E0004622C80164E00E943C191F910F91089585
:1032F000AF92BF92CF92DF92EF92FF920F931F9304
:10330000DF93CF93CDB7DEB72C970FB6F894DEBF1F
:103310000FBECDBF24E0E22EF12CE80EF91EC7014E
:103320000E94B816C7010E94B316C70164E440E0CA
:103330000E9471160E9418215B016C01C7010E9456
:1033400009178823C1F50E9418216A197B098C0985
:103350009D096E5E72408040904068F5EFCFC701D6
:103360000E942016F80181938F01EC15FD05B9F735
:103370007A8160E0298130E0622B732B882777FD0A
:103380008095982F0E94B52920E030E040E85DE369
:103390000E94692A2C960FB6F894DEBF0FBECDBFEF
:1033A000CF91DF911F910F91FF90EF90DF90CF9021
:1033B000BF90AF900895C7010E94B816C7010E9440
:1033C000B316C7016EEB40E00E9471168E010F5FCD
:1033D0001F4F86E0C82ED12CCC0EDD1EC0CF1F9310
:1033E000CF93DF93EC01142F0E946617123011F473
:1033F000698101C06881CE0104960E94D015DF91D9
:10340000CF911F9108950F931F938C010E942E1747
:10341000C80104960E94CF151F910F910895CF9275
:10342000DF92EF92FF920F931F938C016A017B0151
:10343000FC01818160E00E94852282E090E00E9490
:103440007F21F801818161E00E9485228AE090E07D
:103450000E947F21F801818160E00E948522F801AD
:10346000818160E00E944622F801818161E0A7012C
:1034700096010E942C231F910F91FF90EF90DF90F7
:10348000CF90089527E330E0629FA001639F500D25
:10349000729F500D112448535F4F60E070E00E940E
:1034A0000F1A0E94B52920E030E048E652E40E945D
:1034B0001A2908950E9440170895FC01809156042E
:1034C0008C3090F480838F5F80935604815090E01D
:1034D000FC01EE0FFF1FE80FF91FE95AFB4F88EBC5
:1034E0009BE09283818308958FEF80830895FC0190
:1034F00020812C30B8F58181992787FD909548E887
:1035000050E0481B590B440F551F440F551F6417BB
:10351000750784F08281992787FD909548E552E0F0
:10352000481B590B440F551F440F551F641775074F
:103530000CF4AB0142505040CA01AA2797FDA09558
:10354000BA2F880F991FAA1FBB1F4FB7F89430E0FE
:10355000F901EE0FFF1FE20FF31FE95AFB4F9283B1
:1035600081834FBF0895AF92BF92CF92DF92EF92C7
:10357000FF920F931F93CF93DF93EC019B0182E0A7
:10358000603278070CF048C077FF03C020E030E0DD
:1035900005C0653B710514F024EB30E000D000D08D
:1035A000B901882777FD8095982F2981332727FD3A
:1035B0003095E8E8AE2EB12CA21AB30AAA0CBB1CB7
:1035C000AA0CBB1CCC24B7FCC094DC2CEA81FF27DE
:1035D000E7FDF09528E532E02E1B3F0B220F331F4D
:1035E000220F331F442737FD4095542FEDB7FEB708
:1035F000218332834383548320E030E040E050E075
:1036000004EBE02EF12C012D112D0E944A269B0186
:103610000F900F900F900F90CE01B9010E94771A72
:10362000DF91CF911F910F91FF90EF90DF90CF909E
:10363000BF90AF900895CF92DF92EF92FF921F93C9
:10364000CF93DF93EC01162F7A01690188818C30CA
:1036500008F064C0862F61E00E944622888190E0D5
:10366000FC01EE0FFF1FE80FF91FE95AFB4F1F7314
:103670008081807C812B808380E292E08E199F097B
:1036800064E070E00E940B2B698380E699E08C195E
:103690009D0964E070E00E940B2B6A83A8818A2F49
:1036A0006CE00E94EB2A682F70E0AB01440F551FBD
:1036B000460F571F440F551F440F551F20E030E0A1
:1036C000C901840F951FFC01EE0FFF1FE80FF91FC2
:1036D000E95AFB4F808186FD15C02F5F3F4F2C308C
:1036E000310571F724C01092800082E08093810040
:1036F0001092850010928400B19A80916F008260D0
:1037000080936F008A2F90E0FC01EE0FFF1FE80FFF
:10371000F91FE95AFB4F8081806480838881DF91A3
:10372000CF911F91FF90EF90DF90CF900895672B7E
:10373000D1F2E8CF40E252E020E639E00E941B1BC4
:1037400008951F920F920FB60F9211242F933F935B
:103750004F935F936F937F938F939F93AF93BF9399
:10376000EF93FF9380917B0487FF05C01092850043
:10377000109284002BC020917B04332727FD3095C5
:103780008091560490E02817390704F580917B0456
:10379000992787FD9095FC01EE0FFF1FE80FF91F99
:1037A000E95AFB4F808186FF11C080917B049927E5
:1037B00087FD9095FC01EE0FFF1FE80FF91FE95AF6
:1037C000FB4F80818F7360E00E94852280917B0493
:1037D0008F5F80937B0420917B04332727FD3095F6
:1037E0008091560490E0281739070CF04EC0809164
:1037F0007B048C300CF049C020918400309185000E
:1038000080917B04992787FD9095FC01EE0FFF1FA7
:10381000E80FF91FE95AFB4F81819281280F391F68
:10382000309389002093880080917B04992787FD3D
:103830009095FC01EE0FFF1FE80FF91FE95AFB4FAF
:10384000808186FF2BC080917B04992787FD90950E
:10385000FC01EE0FFF1FE80FF91FE95AFB4F8081B3
:103860008F7361E00E94852219C080E49CE905C045
:1038700080918400909185000496909389008093B4
:1038800088008FEF80937B0409C080918400909121
:103890008500049680549C4940F3EACFFF91EF9154
:1038A000BF91AF919F918F917F916F915F914F9158
:1038B0003F912F910F900FBE0F901F901895209160
:1038C0009D0430E080919C04281B3109C9010895B2
:1038D00040919C0480919D04481718F02FEF3FEF12
:1038E0000AC0E42FF0E0E458FB4F8081282F30E03D
:1038F0004F5F40939C04C9010895E0919C0480911E
:103900009D04E81718F0EFEFFFEF06C0F0E0E45871
:10391000FB4F8081E82FF0E0CF01089508951092C9
:10392000C4041092C30488EE93E0A0E0B0E080935A
:10393000C5049093C604A093C704B093C80487E756
:1039400091E09093C2048093C1040895CF92DF92D6
:10395000EF92FF920F931F93CF93DF937C016B0144
:103960008A018091C0048823A1F0C0E0D0E00DC09E
:10397000D701ED91FC91D601AC0FBD1F0190F081F4
:10398000E02DC7016C9109952196C017D10780F3EE
:1039900004C0CB01642F0E94071DC801DF91CF91A5
:1039A0001F910F91FF90EF90DF90CF900895DF93DC
:1039B000CF930F92CDB7DEB7FC0169838091C0042D
:1039C0008823C9F08091BF04803238F081E090E014
:1039D0009383828320E030E015C08091BE04E82FFD
:1039E000F0E0E256FB4F998190838F5F8093BE0495
:1039F0008093BF0405C0CE01019661E00E94071DBF
:103A000021E030E0C9010F90CF91DF910895482F58
:103A1000613210F081E008958091CD04843011F07E
:103A200082E0089560931805A7EFB4E0842F9C010D
:103A3000F90102C081918D938E2F841B8617D0F3DC
:103A400080E008951F920F920FB60F9211242F93CA
:103A50003F934F935F936F937F938F939F93AF9316
:103A6000BF93EF93FF938091B90090E0887F9070AF
:103A70008036910509F4F2C081369105CCF5883283
:103A8000910509F47BC089329105B4F48031910528
:103A900009F46FC0813191053CF4009709F447C1E6
:103AA000089709F04FC165C08831910509F466C0D7
:103AB000809709F047C182C08034910509F4A4C001
:103AC0008134910544F48033910509F482C0C8978C
:103AD00009F038C189C08035910509F489C088355D
:103AE000910509F496C08834910509F02BC1AEC048
:103AF0008839910509F413C189399105ECF48837A7
:103B0000910509F4ABC0893791054CF488369105CD
:103B100009F4A4C08037910509F014C19FC088380A
:103B2000910509F4FCC08039910509F49DC08038E5
:103B3000910509F007C198C0803B910509F4C6C002
:103B4000813B91054CF4803A910509F49FC0883A75
:103B5000910509F0F7C0BAC0803C910509F4E3C0B3
:103B6000883C910509F4DFC0883B910509F0EAC063
:103B7000C2C08091CE048093BB00CFC09091F50469
:103B80008091F604981768F49091F504E92FF0E01D
:103B9000EB52FB4F80818093BB009F5F9093F504B5
:103BA000BCC08091CF04882309F44BC085ED80937D
:103BB000BC008091BC0084FDFCCFC2C080E2809339
:103BC0003A0585ED8093BC008091BC0084FDFCCF5C
:103BD000B7C080E380933A0585ED8093BC00809167
:103BE000BC0084FDFCCFACC088E380933A059BC049
:103BF0008091F5049091BB00E82FF0E0EB52FB4F71
:103C000090838F5F8093F5049091F5048091F60482
:103C100082C08091F5049091BB00E82FF0E0EB5258
:103C2000FB4F90838F5F8093F5048091CF048823AE
:103C300041F085ED8093BC008091BC0084FDFCCFF9
:103C40007FC081E08093D00484EA6EC085ED8093CC
:103C5000BC008091BC0084FDFCCF72C083E08093E7
:103C6000CD041092390559C080913905803208F091
:103C700056C0809139059091BB00E82FF0E0E75ED7
:103C8000FA4F90838F5F8093390547C08091390543
:103C9000803230F4E0913905F0E0E75EFA4F1082AF
:103CA00085ED8093BC008091BC0084FDFCCF109218
:103CB000CD0460913905E091D304F091D40489E1F9
:103CC00095E070E00995109239052DC084E080934D
:103CD000CD041092170510921805E091D104F091CF
:103CE000D204099580911805882329F481E08093F6
:103CF00018051092F70490911705E92FF0E0E950AC
:103D0000FB4F80818093BB009F5F9093170590913C
:103D1000170580911805981710F485EC01C085E807
:103D20008093BC000FC085EC8093BC0009C010924A
:103D30003A0585ED8093BC008091BC0084FDFCCFEA
:103D40001092CD04FF91EF91BF91AF919F918F9110
:103D50007F916F915F914F913F912F910F900FBE87
:103D60000F901F9018950F931F93CF93DF93FC0133
:103D7000738D76957170A685B7859585772329F023
:103D80008C91892309F454C004C08C91892309F0D3
:103D90004FC08389948920E001972FEF8F3F9207CE
:103DA000D9F7C589D689A685B785158560E031E044
:103DB00040E050E000E0CE01202F01972FEF8F3F31
:103DC0009207D9F78C91812311F0632B03C0832FC5
:103DD00080956823330F4F5F5F4F4830510559F787
:103DE0008789908D20E001972FEF8F3F9207D9F7B9
:103DF0007111609580917D0520917E0590E001967E
:103E00008F73907030E08217930779F0E0917D0511
:103E1000F0E0E35CFA4F608380917D0590E00196CD
:103E20008F73907080937D0503C0838D8160838F35
:103E3000DF91CF911F910F9108951F920F920FB6AE
:103E40000F9211242F933F934F935F936F937F9320
:103E50008F939F93AF93BF93EF93FF9380913B0515
:103E600090913C05009711F00E94B31EFF91EF91D5
:103E7000BF91AF919F918F917F916F915F914F9182
:103E80003F912F910F900FBE0F901F9018951F928A
:103E90000F920FB60F9211242F933F934F935F937E
:103EA0006F937F938F939F93AF93BF93EF93FF9302
:103EB00080913B0590913C05009711F00E94B31E44
:103EC000FF91EF91BF91AF919F918F917F916F91F2
:103ED0005F914F913F912F910F900FBE0F901F90C8
:103EE00018951F920F920FB60F9211242F933F93A4
:103EF0004F935F936F937F938F939F93AF93BF93F2
:103F0000EF93FF9380913B0590913C05009711F052
:103F10000E94B31EFF91EF91BF91AF919F918F913E
:103F20007F916F915F914F913F912F910F900FBEB5
:103F30000F901F9018950F931F93CF93DF93BC01A1
:103F40008230910510F462E070E0E0913406F09167
:103F5000350640E050E0A0E0B0E024C080819181CF
:103F600086179707D0F08617970771F4828193819F
:103F7000109729F013969C938E9312972CC09093D0
:103F800035068093340627C04115510519F0841772
:103F9000950718F48D01AC01EF01DF018281938157
:103FA0009C01F9013097D1F641155105F9F0CA018C
:103FB000861B970B8430910580F48A819B810115C3
:103FC000110521F0F8019383828304C09093350694
:103FD00080933406FE01329645C0FE01E80FF91FBA
:103FE000619371930297998388833CC080913206D4
:103FF00090913306892B41F480913C0190913D01D1
:10400000909333068093320640913E0150913F01D8
:104010004115510541F44DB75EB780913A01909139
:104020003B01481B590B209132063091330624176F
:104030003507B0F4CA01821B930B8617970780F0EF
:10404000AB014E5F5F4F8417950750F0420F531F2F
:104050005093330640933206F9016193719302C085
:10406000E0E0F0E0CF01DF91CF911F910F91089533
:10407000CF93DF939C01009709F48FC0EC01229746
:104080001B821A82609134067091350661157105A4
:1040900081F488819981820F931F2091320630919B
:1040A00033062817390739F5D0933306C093320603
:1040B00074C0DB0140E050E0AC17BD0708F1BB83E2
:1040C000AA83FE0121913191E20FF31FAE17BF07C2
:1040D00079F48D919C911197280F391F2E5F3F4FD6
:1040E0003983288312968D919C9113979B838A83A1
:1040F0004115510571F4D0933506C09334064DC077
:1041000012968D919C911397AD01009711F0DC01EF
:10411000D3CFDA011396DC93CE931297FA01219153
:104120003191E20FF31FCE17DF0769F4888199817F
:10413000280F391F2E5F3F4FFA01318320838A8178
:104140009B8193838283E0E0F0E0DB0112968D9106
:104150009C911397009719F0BC01FD01F6CFAB01BC
:104160004E5F5F4FDB018D919C91840F951F2091D5
:104170003206309133062817390779F4309729F43D
:10418000109235061092340602C0138212824250F9
:1041900050405093330640933206DF91CF910895FB
:1041A0001F920F920FB60F9211242F933F938F936C
:1041B0009F93AF93BF938091830590918405A091C5
:1041C0008505B0918605309187050196A11DB11D29
:1041D000232F2D5F2D3720F02D570196A11DB11DE6
:1041E000209387058093830590938405A09385058C
:1041F000B093860580917F0590918005A0918105FF
:10420000B09182050196A11DB11D80937F05909309
:104210008005A0938105B0938205BF91AF919F91D6
:104220008F913F912F910F900FBE0F901F90189577
:104230008FB7F894209183053091840540918505CE
:10424000509186058FBFB901CA0108959B01AC0149
:104250007FB7F89480917F0590918005A0918105AA
:10426000B091820566B5A89B05C06F3F19F0019615
:10427000A11DB11D7FBFBA2FA92F982F8827860FA8
:10428000911DA11DB11D62E0880F991FAA1FBB1FC0
:104290006A95D1F7BC012DC0FFB7F89480917F05D6
:1042A00090918005A0918105B0918205E6B5A89B0B
:1042B00005C0EF3F19F00196A11DB11DFFBFBA2F38
:1042C000A92F982F88278E0F911DA11DB11DE2E007
:1042D000880F991FAA1FBB1FEA95D1F7861B970B62
:1042E000885E9340C8F221503040404050406851B1
:1042F0007C4F211531054105510571F6089501974F
:1043000039F0880F991F880F991F02970197F1F7CD
:104310000895789484B5826084BD84B5816084BD3D
:1043200085B5826085BD85B5816085BDEEE6F0E02E
:10433000808181608083E1E8F0E01082808182608A
:104340008083808181608083E0E8F0E0808181600B
:104350008083E1EBF0E0808184608083E0EBF0E03B
:10436000808181608083EAE7F0E0808184608083DF
:104370008081826080838081816080838081806889
:1043800080831092C1000895982F8E3008F09E50BF
:104390009770809140018295880F880F807C892BCF
:1043A00080937C0080917A00806480937A00809171
:1043B0007A0086FDFCCF2091780040917900942FFF
:1043C00080E030E0282B392BC90108951F93CF934B
:1043D000DF93182FEB0161E00E944622209709F439
:1043E0004AC0CF3FD10509F449C0E12FF0E0EE52B9
:1043F000FD4F84918330C1F0843028F4813051F036
:104400008230B1F50CC0863019F1873049F1843023
:1044100079F514C084B5806884BDC7BD33C084B548
:10442000806284BDC8BD2EC080918000806880936A
:104430008000D0938900C093880024C080918000C0
:10444000806280938000D0938B00C0938A001AC052
:104450008091B00080688093B000C093B30012C018
:104460008091B00080628093B000C093B4000AC015
:10447000C038D1051CF4812F60E002C0812F61E0BB
:104480000E948522DF91CF911F910895CF93DF93F2
:10449000482F50E0CA0182549D4FFC01349146558B
:1044A0005D4FFA018491882369F190E0880F991F8C
:1044B000FC01E457FD4FA591B491FC01EA56FD4F74
:1044C000C591D491662351F42FB7F8948C91932F12
:1044D000909589238C93888189230BC0623061F485
:1044E0002FB7F8948C91932F909589238C93888182
:1044F000832B88832FBF06C09FB7F8948C91832BA2
:104500008C939FBFDF91CF910895482F50E0CA014F
:104510008E529D4FFC012491CA0182549D4FFC0193
:10452000949146555D4FFA013491332309F440C00C
:10453000222351F1233071F0243028F42130A1F0EE
:10454000223011F514C02630B1F02730C1F02430EC
:10455000D9F404C0809180008F7703C080918000DF
:104560008F7D8093800010C084B58F7702C084B5A2
:104570008F7D84BD09C08091B0008F7703C080918A
:10458000B0008F7D8093B000E32FF0E0EE0FFF1FAF
:10459000EA56FD4FA591B4912FB7F894662321F404
:1045A0008C919095892302C08C91892B8C932FBF7D
:1045B0000895682F70E0CB018E529D4FFC0124912D
:1045C000CB0182549D4FFC01449166557D4FFB0108
:1045D0009491992319F420E030E03CC0222351F15A
:1045E000233071F0243028F42130A1F0223011F56D
:1045F00014C02630B1F02730C1F02430D9F404C003
:10460000809180008F7703C0809180008F7D8093A0
:10461000800010C084B58F7702C084B58F7D84BDC3
:1046200009C08091B0008F7703C08091B0008F7D6A
:104630008093B000892F90E0880F991F80569D4F7E
:10464000FC01A591B4918C9120E030E0842311F01D
:1046500021E030E0C90108958F929F92AF92BF92FE
:10466000CF92DF92EF92FF920F931F93CF93DF933E
:10467000A82FB0E0CD0182549D4FFC018490A65537
:10468000BD4FFD018491662311F4992401C0982C3B
:104690006FEFA62E6FEFB62E6FEFC62E6FE0D62E01
:1046A000A222B322C422D522682F70E0660F771FA2
:1046B00060567D4FEE24FF248701FB01A591B49144
:1046C0000BC0EA14FB040C051D0509F44EC0089448
:1046D000E11CF11C011D111D8C918821891589F3A4
:1046E0000CC0EA14FB040C051D0509F43EC0089437
:1046F000E11CF11C011D111D03C0FB01A591B4912A
:104700008C918821891569F720E030E040E050E085
:10471000FB01C591D4910FC0DA01C9018E0D9F1D17
:10472000A01FB11F8A159B05AC05BD05F1F02F5FD9
:104730003F4F4F4F5F4F88818821891569F3CA0128
:10474000B90125E130E040E050E00E94CC2A9B0115
:10475000AC01205F3F4F4F4F5F4F84E05695479528
:10476000379527958A95D1F704C020E030E040E0E6
:1047700050E0B901CA01DF91CF911F910F91FF90D5
:10478000EF90DF90CF90BF90AF909F908F90089563
:1047900008951F920F920FB60F9211242F933F93FB
:1047A0004F938F939F93EF93FF938091C00082FD6F
:1047B0001DC04091C6002091C8053091C9052F5FEA
:1047C0003F4F2F7330708091CA059091CB05281709
:1047D000390771F0E091C805F091C905E857FA4F23
:1047E00040833093C9052093C80502C08091C6005C
:1047F000FF91EF919F918F914F913F912F910F904A
:104800000FBE0F901F901895E0911C06F0911D06A9
:10481000E05CFF4F8191919120813181805C9F4FBD
:10482000821B930B60E470E00E940B2B892B11F02C
:104830000E94C82308951F920F920FB60F92112461
:104840002F933F938F939F93EF93FF9320910C06A9
:1048500030910D0680910E0690910F0628173907AA
:1048600031F48091C1008F7D8093C10014C0E0912C
:104870000E06F0910F06E453FA4F208180910E0648
:1048800090910F0601968F73907090930F0680930E
:104890000E062093C600FF91EF919F918F913F915B
:1048A0002F910F900FBE0F901F901895AF92BF924F
:1048B000DF92EF92FF920F931F93CF93DF93EC0160
:1048C0007A018B01DD24403081EE580780E06807D3
:1048D00080E0780711F0DD24D39491E0A92EB12C6B
:1048E000EC89FD89DD2069F0C50108A002C0880FB0
:1048F000991F0A94E2F7808360E079E08DE390E00D
:1049000005C0108260E874E88EE190E0A80197018C
:104910000E941E2B215030404040504056954795F4
:104920003795279580E12030380720F0DD2011F001
:10493000DD24D6CFE889F9893083EA89FB89208391
:1049400019A2EE89FF89408121E030E0C9010C8C79
:1049500002C0880F991F0A94E2F7482B4083EE8922
:10496000FF894081C9010D8C02C0880F991F0A94EC
:10497000E2F7482B4083EE89FF894081C9010E8C04
:1049800002C0880F991F0A94E2F7482B4083EE89F2
:10499000FF8980810F8C02C0220F331F0A94E2F737
:1049A000209528232083DF91CF911F910F91FF90B5
:1049B000EF90DF90BF90AF900895DC011C96ED91D1
:1049C000FC911D97E05CFF4F819191912081318195
:1049D000805C9F4F821B930B60E470E00E940B2B66
:1049E0000895DC011C96ED91FC911D97E05CFF4F52
:1049F00020813181E054F040DF01AE5BBF4F8D91EB
:104A00009C9111972817390719F42FEF3FEF07C032
:104A10008D919C91E80FF91F8081282F30E0C9010A
:104A20000895DC011C96ED91FC911D97E05CFF4F11
:104A300020813181E054F040DF01AE5BBF4F8D91AA
:104A40009C9111972817390719F42FEF3FEF10C0E9
:104A50008D919C911197E80FF91F20818D919C9168
:104A6000119701968F73907011969C938E9330E0FE
:104A7000C9010895DC0191968C919197882339F0B2
:104A80005496ED91FC915597808186FFF9CF9196D0
:104A90001C920895CF93DF93EC01EE85FF85E05CD7
:104AA000FF4F20813181E054F0402F5F3F4F2F7343
:104AB0003070DF01AE5BBF4F8D919C91119728172D
:104AC0003907D1F3E05CFF4F80819181E054F040E1
:104AD000E80FF91F6083EE85FF85E05CFF4F3183AF
:104AE0002083EE89FF89208181E090E00F8C02C055
:104AF000880F991F0A94E2F7282B208381E089A36D
:104B0000EC89FD8980818064808381E090E0DF9181
:104B1000CF910895109213061092120688EE93E03A
:104B2000A0E0B0E08093140690931506A0931606BB
:104B3000B093170687E891E09093110680931006D2
:104B400088E895E090931D0680931C068CEC95E018
:104B500090931F0680931E0685EC90E090932106AB
:104B60008093200684EC90E09093230680932206A5
:104B700080EC90E0909325068093240681EC90E0F1
:104B8000909327068093260682EC90E09093290666
:104B90008093280686EC90E090932B0680932A065B
:104BA00084E080932C0683E080932D0687E0809339
:104BB0002E0685E080932F0681E0809330060895CD
:104BC0000895CF93DF930E9489210E94E0250E94DF
:104BD000460BC4E0D4E20E94300B2097E1F30E9420
:104BE0000424F9CFFC0120E030E08081882311F417
:104BF00021E030E0C9010895FC0181E0808308953F
:104C0000CF92DF92EF92FF920F931F93CF93DF9398
:104C10007C016B018A01C0E0D0E00FC0D6016D912C
:104C20006D01D701ED91FC910190F081E02DC7015C
:104C30000995C80FD91F015010400115110571F7D2
:104C4000CE01DF91CF911F910F91FF90EF90DF90F8
:104C5000CF900895EF92FF920F931F938C01DC0188
:104C6000ED91FC910190F081E02D6DE009957C01C2
:104C7000D801ED91FC910190F081E02DC8016AE02E
:104C800009959C012E0D3F1DC9011F910F91FF90A9
:104C9000EF9008952F923F924F925F926F927F9282
:104CA0008F929F92AF92BF92CF92DF92EF92FF923C
:104CB0000F931F93DF93CF93CDB7DEB73B014C012A
:104CC00019012A016D897E898F89988D6A197B095E
:104CD0008C099D09621A730A840A950AA40193013A
:104CE0000E94CC2AE218F30804091509A8019701CB
:104CF0000E94402B2A0D3B1D4C1D5D1DB901CA01B0
:104D0000CF91DF911F910F91FF90EF90DF90CF90A7
:104D1000BF90AF909F908F907F906F905F904F90DB
:104D20003F902F900895EF92FF920F931F937B0176
:104D30008C01611571058105910529F420E030E0B1
:104D400040E050E00BC00E94F601A80197010E94CC
:104D5000402BAC01CB01DA019C01AD01B901CA01C4
:104D60001F910F91FF90EF900895009729F0BC01DB
:104D700080E090E00E94FB010895FC018481958110
:104D80006817790748F40190F081E02D309721F001
:104D9000E60FF71F8081089580E008950F931F9319
:104DA000CF93DF93EC018B016F5F7F4F88819981F7
:104DB0000E94D027009711F480E005C09983888372
:104DC0001B830A8381E0DF91CF911F910F9108959A
:104DD000CF93DF93EC0188819981892B29F08A8117
:104DE0009B818617970760F4CE010E94CE26882308
:104DF00041F08C819D81892B19F4E881F981108221
:104E000081E0DF91CF910895EF92FF920F931F936E
:104E1000CF93DF93EC017B016C817D81E114F10480
:104E2000C1F04115510599F08A01060F171FB8010D
:104E30000E94E826882369F0888199812C813D8130
:104E4000820F931FB7010E9414021D830C8381E01F
:104E500001C080E0DF91CF911F910F91FF90EF9003
:104E60000895DF93CF9300D0CDB7DEB769831A8260
:104E7000BE016F5F7F4F41E050E00E9404270F901A
:104E80000F90CF91DF910895CF93DF93EC0188814C
:104E90009981009711F00E943820198218821D8292
:104EA0001C821B821A82DF91CF910895EF92FF92AC
:104EB0000F931F93CF93DF93EC017B018A01BA011B
:104EC0000E94E826882321F4CE010E94442707C0CF
:104ED0001D830C8388819981B7010E941402CE0141
:104EE000DF91CF911F910F91FF90EF900895CF9395
:104EF000DF93EC01198218821B821A821D821C82A8
:104F00006115710551F0DB010D900020E9F7119753
:104F1000A61BB70BAD010E945627DF91CF910895D4
:104F20000F931F93182F092F6115710559F0DB019D
:104F30000D900020E9F71197A61BB70BAD010E9459
:104F4000562702C00E944427812F902F1F910F9156
:104F50000895CF93DF93EC01FB018617970761F06B
:104F6000608171816115710529F0448155810E942C
:104F7000562702C00E944427CE01DF91CF910895A9
:104F8000FC011182108213821282158214820E9407
:104F9000A9270895FC01808191810E9438200895FD
:104FA0006F927F928F929F92AF92BF92CF92DF9239
:104FB000EF92FF920F931F93CF93DF938C01009793
:104FC00029F4CB010E949B1F8C01BBC08EEFE82E01
:104FD0008FEFF82EE00EF11E4801860E971E8E14FC
:104FE0009F0408F4ACC0D7014D915C91119746170E
:104FF0005707B8F04530510508F4A3C0CA0104971B
:105000008617970708F49DC042505040461B570B27
:10501000F401419351936D937C93CF010E9438200A
:1050200090C05B01A41AB50A3801640E751EA091E8
:105030003406B0913506E0E0F0E0CC24DD2447C032
:10504000A615B705A9F5CD91DC911197CE01029671
:105050008A159B0568F1CE018A199B090296129662
:105060002C91129713963C91059758F0F4012283E6
:105070003383CA19DB09D183C083D7016D937C9335
:1050800009C04E5F5F4F4C0F5D1FF7015183408396
:10509000C901FC01C114D10431F0D6011396FC936F
:1050A000EE9312974EC0F0933506E093340649C054
:1050B0008D919C911197E817F90708F4FC016D0197
:1050C00012968C91129713969C919C01D90110977E
:1050D00009F0B6CF80913206909133068615970578
:1050E000E9F4E617F707D0F420913E0130913F0133
:1050F0002115310541F42DB73EB780913A019091C9
:105100003B01281B390B82169306C8F49092330694
:1051100080923206F7017183608313C0CB010E9435
:105120009B1FEC01009759F0D7014D915C91B8019C
:105130000E940402C8010E9438208E0102C000E0D3
:1051400010E0C801DF91CF911F910F91FF90EF9078
:10515000DF90CF90BF90AF909F908F907F906F9097
:1051600008955058BB27AA270ED075C166D130F0DC
:105170006BD120F031F49F3F11F41EF45BC10EF4AB
:10518000E095E7FB51C1E92F77D180F3BA176207A9
:1051900073078407950718F071F49EF58FC10EF41C
:1051A000E0950B2EBA2FA02D0B01B90190010C0137
:1051B000CA01A0011124FF27591B99F0593F50F44F
:1051C000503E68F11A16F040A22F232F342F4427A7
:1051D000585FF3CF469537952795A795F04053959F
:1051E000C9F77EF41F16BA0B620B730B840BBAF06F
:1051F0009150A1F0FF0FBB1F661F771F881FC2F7DA
:105200000EC0BA0F621F731F841F48F487957795ED
:105210006795B795F7959E3F08F0B3CF9395880FA4
:1052200008F09927EE0F979587950895D9D008F43F
:1052300081E008950CD00FC107D140F0FED030F0CE
:1052400021F45F3F19F0F0C0511139C1F3C014D1FE
:1052500098F39923C9F35523B1F3951B550BBB273D
:10526000AA2762177307840738F09F5F5F4F220FEA
:10527000331F441FAA1FA9F333D00E2E3AF0E0E8E3
:1052800030D091505040E695001CCAF729D0FE2F2F
:1052900027D0660F771F881FBB1F261737074807C1
:1052A000AB07B0E809F0BB0B802DBF01FF27935877
:1052B0005F4F2AF09E3F510568F0B6C000C15F3FC6
:1052C000ECF3983EDCF3869577956795B795F7955F
:1052D0009F5FC9F7880F911D9695879597F9089557
:1052E000E1E0660F771F881FBB1F621773078407F3
:1052F000BA0720F0621B730B840BBA0BEE1F88F702
:10530000E095089504D06894B111D9C00895BCD037
:1053100088F09F5790F0B92F9927B751A0F0D1F09E
:10532000660F771F881F991F1AF0BA95C9F712C028
:10533000B13081F0C3D0B1E00895C0C0672F782F9D
:105340008827B85F39F0B93FCCF386957795679594
:10535000B395D9F73EF490958095709561957F4F00
:105360008F4F9F4F0895E89409C097FB3EF49095A6
:105370008095709561957F4F8F4F9F4F9923A9F02E
:10538000F92F96E9BB279395F695879577956795BD
:10539000B795F111F8CFFAF4BB0F11F460FF1BC001
:1053A0006F5F7F4F8F4F9F4F16C0882311F096E994
:1053B00011C0772321F09EE8872F762F05C0662342
:1053C00071F096E8862F70E060E02AF09A95660FFB
:1053D000771F881FDAF7880F9695879597F90895B4
:1053E000990F0008550FAA0BE0E8FEEF16161706F6
:1053F000E807F907C0F012161306E407F50798F05E
:10540000621B730B840B950B39F40A2661F0232B76
:10541000242B252B21F408950A2609F4A140A695F2
:105420008FEF811D811D089597F99F6780E870E0D7
:1054300060E008959FEF80EC089500240A9416160A
:10544000170618060906089500240A941216130672
:10545000140605060895092E0394000C11F4882300
:1054600052F0BB0F40F4BF2B11F460FF04C06F5F1C
:105470007F4F8F4F9F4F089557FD9058440F551FF2
:1054800059F05F3F71F04795880F97FB991F61F0C6
:105490009F3F79F087950895121613061406551F3D
:1054A000F2CF4695F1DF08C0161617061806991FA9
:1054B000F1CF86957105610508940895E894BB279E
:1054C00066277727CB0197F908958ADF08F48FEFD5
:1054D00008950BD0C0CFB1DF28F0B6DF18F09523C8
:1054E00009F0A2CFA7CF1124EACFC6DFA0F3959F82
:1054F000D1F3950F50E0551F629FF001729FBB27BB
:10550000F00DB11D639FAA27F00DB11DAA1F649F66
:105510006627B00DA11D661F829F2227B00DA11D19
:10552000621F739FB00DA11D621F839FA00D611D9F
:10553000221F749F3327A00D611D231F849F600DC0
:10554000211D822F762F6A2F11249F5750408AF0F9
:10555000E1F088234AF0EE0FFF1FBB1F661F771F85
:10556000881F91505040A9F79E3F510570F05CCFC5
:10557000A6CF5F3FECF3983EDCF386957795679571
:10558000B795F795E7959F5FC1F7FE2B880F911DA3
:105590009695879597F90895629FD001739FF001C2
:1055A000829FE00DF11D649FE00DF11D929FF00DB3
:1055B000839FF00D749FF00D659FF00D9927729FEA
:1055C000B00DE11DF91F639FB00DE11DF91FBD0175
:1055D000CF0111240895991B79E004C0991F9617F3
:1055E00008F0961B881F7A95C9F780950895AA1B25
:1055F000BB1B51E107C0AA1FBB1FA617B70710F0BE
:10560000A61BB70B881F991F5A95A9F780959095EF
:10561000BC01CD01089597FB092E07260AD077FD1E
:1056200004D0E5DF06D000201AF4709561957F4F15
:105630000895F6F7909581959F4F0895A1E21A2E4F
:10564000AA1BBB1BFD010DC0AA1FBB1FEE1FFF1F26
:10565000A217B307E407F50720F0A21BB30BE40B76
:10566000F50B661F771F881F991F1A9469F76095BD
:105670007095809590959B01AC01BD01CF01089577
:1056800097FB092E05260ED057FD04D0D7DF0AD090
:10569000001C38F450954095309521953F4F4F4F61
:1056A0005F4F0895F6F790958095709561957F4FBF
:1056B0008F4F9F4F0895EE0FFF1F0590F491E02D3F
:1056C00009942F923F924F925F926F927F928F92A6
:1056D0009F92AF92BF92CF92DF92EF92FF920F9381
:1056E0001F93CF93DF93CDB7DEB7CA1BDB0B0FB68B
:1056F000F894DEBF0FBECDBF09942A883988488848
:105700005F846E847D848C849B84AA84B984C884DD
:10571000DF80EE80FD800C811B81AA81B981CE0FD4
:10572000D11D0FB6F894DEBF0FBECDBFED010895B9
:1057300012E0CEEED2E004C0FE010E945D2B229664
:0A574000C23FD107C9F7F894FFCF6C
:10574A00312E322E31303300000001000000FFFFFD
:10575A000B0C090A10110E0F06070504150D081483
:10576A0006070504C800300017000E000F001000DD
:10577A001100120013001400150080003606000004
:10578A00013F065B4F666D7D077F6F777C395E79D7
:10579A0071BF86DBCFE6EDFD87FFEFF7FCB9DEF9D7
:1057AA00F1004000000100080020004000800000D5
:1057BA0001000400000000D71CA61C5F1C681C7DA9
:1057CA001C8E1C000000004A250026DD241125F14C
:0457DA00243A250048
:00000001FF
