:100000000C94F6010C941E020C941E020C949D0E8E
:100010000C949D0E0C949D0E0C941E020C941E12BA
:100020000C941E020C941E020C941E020C94F41EDE
:100030000C941E020C941E020C941E020C941E02C0
:100040000C94E8200C941E020C948F240C94C12470
:100050000C941E020C941E020C941E020C941E02A0
:100060000C94700D0C941E0208000000BE922449EE
:10007000123EABAAAA2ABECDCCCC4C3E00000080DA
:10008000BEABAAAAAA3E00000000BF000000803F4D
:100090000000000000084178D3BB4387D1133D190D
:1000A0000E3CC3BD4282AD2B3E68EC8276BED98F3A
:1000B000E1A93E4C80EFFFBE01C4FF7F3F0000007E
:1000C000000007634236B79BD8A71A39685618AEA6
:1000D000BAAB558C1D3CB7CC5763BD6DEDFD753E7D
:1000E000F6177231BF000000803F3F065B4F666D20
:1000F0007D077F6F777C395E7971BF86DBCFE6ED58
:10010000FD87FFEFF7FCB9DEF9F100407C447C008D
:100110007C005C547454547C70107C74545C7C542B
:100120005C40407C7C547C74547C00040020202083
:100130000000002000000000000030007C82827C73
:1001400000310042FE0200003200468A9262003313
:10015000004492926C0034001C64FE04003500F2EE
:1001600092928C0036007C92924C003700C08E90A8
:10017000E00038006C92926C0039006492927C002E
:100180006100042A2A1E006200FE12120C006300A5
:100190000C1212120064000C1212FE0065001C2AE0
:1001A0002A18006600103E50500067000815151E02
:1001B000006800FE101E00006900002E0000006AAA
:1001C0000002012E00006B00FE081412006C0000FB
:1001D000FE0200006D001E100E100E6E001E1010AC
:1001E0000E006F000C12120C0070001F12120C0097
:1001F00071000C12121F0072001E08101000730014
:1002000012292512007400103E12000075001C0215
:10021000021E00761804020418007718061C06183F
:10022000007800120C0C120079001805051E007AE7
:100230000012161A120041007E88887E004200FEDD
:1002400092926C0043007C828244004400FE8282D1
:100250007C004500FE929282004600FE9090800055
:1002600047007C82925C004800FE1010FE004900AE
:1002700082FE8200004A000C0202FC004B00FE10CD
:1002800028C6004C00FE020202004D00FE40304035
:10029000FE4E00FE403008FE4F007C8282827C5081
:1002A00000FE9090600051007C828A847A5200FEA9
:1002B0009894620053006492924C00540080FE8037
:1002C00080005500FC0202FC005600F00C020CF00D
:1002D0005700FE043804FE5800C63838C60059C01E
:1002E000201E20C0005A00869AB2C2002C00010EC7
:1002F0000C00002E000006060000257254781E2A0D
:100300004E2100007A0000003F00204A3000002DFE
:100310000010101010002B08083E0808002F0002E3
:100320000C3040002A2214081422003A0000140065
:1003300000002200C000C000002328FE28FE280084
:100340002800007C820000290000827C00003B0025
:1003500002240000007E0040804080003B00022418
:100360000000003D0028282828007C0000FE000036
:10037000003E0082442810003C00102844820040C7
:10038000000000000000000000080002010000035F
:100390000407000000000000000001020408102013
:1003A0004080010204081020010204081020040407
:1003B000040404040404020202020202030303030D
:1003C00003030000000023002600290000000000B5
:1003D000250028002B0000000000240027002A0030
:1003E000EE08430DEC11F1242A09F01111241FBE6F
:1003F000CFEFD8E0DEBFCDBF11E0A0E0B1E0E6ED89
:10040000FCE502C005900D92A03AB107D9F726E0AD
:10041000A0EAB1E001C01D92A334B207E1F713E0F6
:10042000C8EED3E004C02297FE010E94982BC03E84
:10043000D107C9F70E941A270C945E2E0C94000075
:10044000CF92DF92EF92FF920F931F93E82FF92F35
:1004500005C0015011092109310961F190819623EC
:100460009417B9F305C0015011092109310911F19F
:10047000908196239413F7CFC12CD12CE12CF12C31
:100480000AC08FEFC81AD80AE80AF80A0C151D0529
:100490002E053F0579F080818623841791F36C2D1A
:1004A0007D2D8E2D9F2D1F910F91FF90EF90DF904E
:1004B000CF90089560E070E080E090E01F910F9190
:1004C000FF90EF90DF90CF9008958CE995E00C9429
:1004D000822560911E0170911F01719561957109CE
:1004E00082E492E00E94B61160911E0170911F019A
:1004F0008AE392E00C94B61160911E0170911F0185
:1005000082E492E00E94B61160911E0170911F0179
:100510007195619571098AE392E00C94B61180910E
:100520001E0190911F016BEF7FEF0E941F2B82E451
:1005300092E00E94B61160911E0170911F018AE342
:1005400092E00C94B61160911E0170911F0171959B
:100550006195710982E492E00E94B61180911E01BA
:1005600090911F0165E070E00E941F2B8AE392E0EA
:100570000C94B61160911E0170911F0177FF02C0AB
:10058000695F7F4F83E0759567958A95E1F782E40F
:1005900092E00E94B61160911E0170911F01719549
:1005A000619571098AE392E00C94B61160911E0185
:1005B00070911F0182E492E00E94B61160911E01C9
:1005C00070911F0177FF02C0695F7F4F93E07595BF
:1005D00067959A95E1F77195619571098AE392E0C3
:1005E0000C94B61120E040E060E084ED92E00E94BF
:1005F000751D84ED92E00E94A21D60E070E082E42F
:1006000092E00E94B61160E070E08AE392E00C9400
:10061000B6110F931F938091D50181110DC00E94D7
:1006200032216093A4017093A5018093A601909359
:10063000A70181E08093D5018BE692E00E947D13B3
:10064000892B09F4D7C110916E020E943221609368
:10065000A4017093A5018093A6019093A701812F17
:1006600090E0A0E0B0E080349105A105B10509F467
:100670001FC108F04BC08C309105A105B10509F4EC
:10068000A8C100F588309105A105B10509F48CC118
:1006900089309105A105B10509F425C10797A10588
:1006A000B10509F0C6C184E08093DE0120E040E09E
:1006B00060E084ED92E00E94751D00E02AE04AE0CF
:1006C00062E01FC189319105A105B10509F4FEC0A1
:1006D0008C319105A105B10509F44FC14897A105D9
:1006E000B10509F0A6C1F8942CE231E040E050E0F9
:1006F0006AE471E087E692E00E9446117894809166
:100700001A0190911B01880F991F1AC18734910516
:10071000A105B10509F4ABC000F585349105A1052B
:10072000B10509F45BC008F078C082349105A105D9
:10073000B10509F07EC1F8942CE231E040E050E0D0
:100740006CE272E087E692E00E9446117894209174
:100750001A0130911B0147E021C182359105A105A5
:10076000B10509F4D8C0C0F48A349105A105B105DA
:1007700009F05FC1F8942CE231E040E050E065E917
:1007800072E087E692E00E944611789420911A0167
:1007900030911B0149E002C18A359105A105B105DF
:1007A00009F4D9C08E359105A105B10509F041C103
:1007B000F8942CE231E040E050E06EE571E087E62D
:1007C00092E00E944611789420911A0130911B0109
:1007D000C901880F991F820F931FB2C08CED90E062
:1007E00090931F0180931E011092DD010E94F2027E
:1007F000F8942CE231E040E050E066E271E087E6F8
:1008000092E00E944611789420E040E060E084EDA0
:1008100092E00E94751D2AE056C088EC90E090930B
:100820001F0180931E0181E08093DD010E94F2028E
:10083000F8942CE231E040E050E06AE471E087E6B1
:1008400092E00E944611789487E692E00E94AA11F5
:1008500020E040E060E084ED92E00E94751D20E021
:100860004AE060E084ED92E00E94751D4EC082E097
:100870008093DD0188E790E090931F0180931E0133
:100880000E94F202F8942CE231E040E050E06EE584
:1008900071E087E692E00E944611789420E040E003
:1008A00060E084ED92E00E94751D2AE040E0D9CF1F
:1008B00081E08093DE0120E040E060E084ED92E0A2
:1008C0000E94751D20E04AE06AE0CCCF82E0809370
:1008D000DE0120E040E060E084ED92E00E94751DC2
:1008E00020E040E0F1CF88E08093DE0120E040E0AE
:1008F00060E084ED92E00E94751D00E02AE04AE08D
:1009000061E084ED92E00E94471D84ED92E01F912A
:100910000F910C94A21DF8942CE231E040E050E0DD
:100920006DE472E087E692E00E944611789480912F
:100930001A0190911B0163E0880F991F6A95E1F7F6
:1009400020911C0130911D01820F931F90931F0174
:1009500080931E016EC0F8942CE231E040E050E03C
:100960006FEE71E087E692E00E9446117894209144
:100970001A0130911B0146E011C0F8942CE231E0DD
:1009800040E050E069EB71E087E692E00E9446119A
:10099000789420911A0130911B0145E0429FC001DB
:1009A000439F900D1124CCCFF8942CE231E040E02D
:1009B00050E069E871E087E692E00E944611789481
:1009C00080911A0190911B01880F991F880F991F20
:1009D000B7CFF8942CE231E040E050E066E271E0FD
:1009E00087E692E00E944611789480911A019091D6
:1009F0001B01A6CF0E9432210091A4011091A501F4
:100A00002091A6013091A701601B710B820B930B03
:100A1000693771058105910560F01092DE010E9431
:100A200032216093A4017093A5018093A601909355
:100A3000A7011F910F9108958091DE01823071F01E
:100A400028F48823C1F0813031F00895843049F0D2
:100A5000883051F008950E94690208C00E947C020B
:100A600005C00E948F0202C00E94A3028091DE0195
:100A70008093D40108958091D401882321F01092AD
:100A8000D4010C94F2020895CF9366E470E086ECF2
:100A900092E00E94CD1E0E940028C62F8091CC01BA
:100AA00081110DC00E9432216093A0017093A101B9
:100AB0008093A2019093A30181E08093CC0186E012
:100AC0000E94E121BC01882777FD8095982F0E9424
:100AD000982562E070E080E090E00E94A0259FEF02
:100AE0009C0F983218F00E94690220C0C051C83192
:100AF00070F4662329F06130C9F40E94A30202C099
:100B00000E948F026CE271E080E090E00DC06623ED
:100B100029F0613059F40E94D60202C00E94BA0244
:100B200060E273E080E090E00E94612164E670E0A2
:100B300080E090E0CF910C94612180EC92E00E94E3
:100B4000671A20911E0130911F01273E310534F0B4
:100B500026EE30E030931F0120931E01813059F0C2
:100B600028F0823099F0833001F108950E946902E3
:100B70008AE090E015C00E9469028091E0019091A6
:100B8000E101823091054CF101970AC00E9469028F
:100B90008091E0019091E10184319105F4F4019696
:100BA0009093E1018093E00108958091E00190919C
:100BB000E1010A9711F40E947C028091E00190917A
:100BC000E1010A9714F40E948F028091E001909154
:100BD000E1010B9714F00C94A3020895FC01E75077
:100BE000FE4F808180932D02818180932E0280911F
:100BF0002D0290912E020895AFE2B2E0FC01E75081
:100C0000FE4F80818C93818180933002828180931A
:100C100031028381809332026D917D918D919C91FF
:100C20000895E8EBF1E020E030E087509E4F261772
:100C3000370744F4DC01A20FB31F4C9141932F5F9F
:100C40003F4FF5CFFB01E854FE4F108288EB91E057
:100C50000895E8EAF1E020E030E087509E4F261743
:100C600037075CF42031310541F0DC01A20FB31FDE
:100C70004C9141932F5F3F4FF2CF88EA91E0089566
:100C8000CF92DF92EF92FF920F931F93CF93DF9358
:100C9000CDB7DEB72D970FB6F894DEBF0FBECDBF30
:100CA000F090FF010F2D10E08D30910509F421C166
:100CB00024F58830910509F44DC0B4F483309105D2
:100CC00009F402C1059709F0C9C186E090E00E94CD
:100CD000EE05BC0182E492E00E94B61188E090E04B
:100CE0000E94EE05BC0131C08A30910519F10CF467
:100CF0006FC00B9709F454C0B1C18132910509F45A
:100D00008AC164F48E31910509F453C18032910592
:100D100009F459C1449709F0A1C127C1893291054D
:100D200009F46FC08233910509F486C1829709F0F6
:100D300095C155C187E090E00E94EE05BC010930E5
:100D4000110519F482E492E002C08AE392E00E9465
:100D5000B61184C1D090010210910202E09003020A
:100D600000910402409100026F2D84ED92E00E94F8
:100D7000621CDD2049F06FEF6D0D2E2D412F84EDAB
:100D800092E00E94241D07C0202F4E2D612F84ED7C
:100D900092E00E94751D84ED92E00E94A21D5EC14A
:100DA00080910002000F111FF801E05EFE4F8130BC
:100DB00011F4608101C0618110910102153B08F0BE
:100DC0004DC170E083E392E00E944A20612F2EC162
:100DD0008AE492E00E94D51B282F30E020173107CB
:100DE00029F06F2D8AE492E00E94AD1087E090E038
:100DF0000E94FC05AB01BC018AE492E00E94CF1086
:100E00002DC18FE892E00E94D51B282F30E02017DB
:100E1000310729F06F2D8FE892E00E942415809110
:100E2000000290E081309105B9F400910102112790
:100E300007FD1095409102026091030270E08BE083
:100E400090E04D870E9411069C014D85B8018FE806
:100E500092E00E94481702C182309105A1F4F090FF
:100E600001024091020260E170E08AE090E04D876B
:100E70000E9429068C0120E14D856F2D8FE892E0BC
:100E80000E945115EBC08330910579F421E08091E7
:100E90000102811101C020E0409103026091020231
:100EA0008FE892E00E948317D9C0049709F0D6C05A
:100EB00088E090E00E94FC05AB01BC0123E08FE8D4
:100EC00092E00E945418CAC086E392E00E94D51BAB
:100ED000282F30E02017310729F06F2D86E392E0AC
:100EE0000E94391C61E080910002811154C060E0D1
:100EF00052C061E971E0CE0107960E947926009107
:100F0000FB0110E0035011097FEFC72E71E0D72ECF
:100F1000E12CF12CE016F1065CF4F60161916F0111
:100F2000CE0107960E94F326FFEFEF1AFF0AF2CFD9
:100F3000BE01695F7F4FCE0101960E94A626BE01C9
:100F40006F5F7F4F8BE692E00E943314CE010196D3
:100F50000E940B2661E971E0CE0107960E94AF2640
:100F6000CE0107960E940B2679C086E392E00E948C
:100F7000D51B282F30E02017310729F06F2D86E38D
:100F800092E00E94391C60910002862F90E082302E
:100F9000910534F4617086E392E00E94FD1B5EC00F
:100FA00061E0029709F460E086E392E00E940D1C84
:100FB00055C061E08F2D0E948622609100028F2D26
:100FC0000E94BF224BC061E08F2D0E94862220919B
:100FD0000002622F70E08F2D0E94FE213FC086E04C
:100FE00090E00E94EE058C0188E090E00E94EE0502
:100FF000101611065CF49C01442737FD4095542FD0
:10100000B80187E692E00E94461128C087E692E088
:101010000E94AA1123C0F090000284EB8F15F0F01B
:10102000B80183E392E00E944A206F2D70E083E3D1
:1010300092E00E94832012C00E9432210E942C283C
:1010400020E030E04AE754E40E9493276093E601F1
:101050007093E7018093E8019093E9012D960FB614
:10106000F894DEBF0FBECDBFDF91CF911F910F91DE
:10107000FF90EF90DF90CF90089565E070E080E002
:1010800090E00E9461210E94F20261E08DE00E94E6
:10109000862260E087E00E94862261E08DE00E9467
:1010A000BF226CE271E080E090E00E94612160E08C
:1010B0008DE00E94BF226DE084ED92E00E94AA1CA8
:1010C00020E040E060E084ED92E00E94751D84ED38
:1010D00092E00E94A21D20E040E06AE084ED92E0F0
:1010E0000E94751D84ED92E00E94A21D2CE231E069
:1010F00040E050E066E271E087E692E00E9446112F
:101100006CE271E080E090E00E94612120E04AE022
:1011100060E084ED92E00E94751D84ED92E00E94F3
:10112000A21D2CE231E040E050E06AE471E087E685
:1011300092E00E9446116CE271E080E090E00E9433
:1011400061212AE040E060E084ED92E00E94751D9C
:1011500084ED92E00E94A21D2CE231E040E050E0DC
:101160006EE571E087E692E00E9446116CE271E064
:1011700080E090E00E9461212AE04AE06AE084ED8C
:1011800092E00E94751D84ED92E00E94A21D26E06F
:1011900040E052EC61E070E08CE995E00E942D2483
:1011A00087E692E00E94AA118BE692E00E94D31299
:1011B0006FE371E08CE995E00E9480256FEE71E0AD
:1011C0008CE995E00E94862566E08FE892E00E9417
:1011D000191561E08FE892E00C944E1540E160E053
:1011E00084ED92E00E94F21C63E086EC92E00E94A3
:1011F0004E1E62E080EC92E00E94651A8FE892E059
:101200000E94CE148BE692E00E94E61287E692E0FE
:101210000E94401184E592E00E94C21D8AE492E09F
:101220000E94170F69E082E492E00E94B4116AE024
:101230008AE392E00E94B41186E392E00E94BC1B14
:1012400083E392E00E94B01F69E471E08FEE91E0C9
:101250000C9479268FEE91E00E940B2685E892E0AF
:101260000E940B268FE792E00E940B2684ED92E00D
:101270000C94B61D682F8CE995E00C94C8238FEF71
:101280000E943A0985E50C943A098FEF0E943A09C9
:1012900085E50E943A090C946502CF93C82F81E03E
:1012A0000E943A098C2FCF910C943A09EF92FF9249
:1012B0000F931F93CF93DF937C01FC01C4810C2F0C
:1012C000158184E00E943A098C2F0E943A09C0E0FF
:1012D000D0E0C017D10744F4BE01C7010E94172710
:1012E0000E943A092196F5CFDF91CF911F910F917E
:1012F000FF90EF900895FF920F931F93CF93DF938A
:101300001F92CDB7DEB78B01F82E82E099830E9441
:101310003A09A8016F2D9981792F40932F0250939C
:1013200030026093310270933202802F0E943A099A
:10133000809130020E943A09809131020E943A095C
:10134000809132020F90DF91CF911F910F91FF900A
:101350000C943A09CF92DF92EF92FF920F931F9372
:10136000CF93DF9300D000D000D0CDB7DEB710917F
:10137000FF01E12EF12C8730910509F472C09CF435
:101380008230910509F457C034F4009709F452C132
:10139000019799F186C1853091050CF462C00597DB
:1013A00009F474C07EC18E31910509F452C164F410
:1013B0008131910509F4B6C08531910509F4E4C085
:1013C0000F9709F06EC193C08332910509F418C1DB
:1013D0008233910509F44CC14F9709F062C1F701BE
:1013E000EE0FFF1FE65FFE4F108160E0812F0E942D
:1013F0008622812F0E94E12133C186EC92E00E9477
:10140000D51B90E08E159F0529F0612F86EC92E0A8
:101410000E94391C60E971E086EC92E00E94CD1ECA
:101420006B017C010E943F098091DF010E943A0913
:10143000C701B60125C10091000284E592E00E9437
:10144000D51B90E08E159F0509F01DC184E592E043
:101450000E94D81B801317C184E592E00E94E01D12
:101460000FC186E392E00E94D51B90E08E159F0588
:10147000C9F1612F86E392E00E94391C86E392E075
:101480000E945F1C60E00E9486222CC0C090000277
:10149000D12C86E392E00E94D51B90E08E159F052B
:1014A00099F0612F86E392E00E94391C86E392E076
:1014B0000E945C1C60E00E94862286E392E00E940B
:1014C0005F1C60E00E94862281E0C816D10429F4E6
:1014D00086E392E00E941D1CC3C082E0C816D104BE
:1014E00009F0DFC086E392E00E94291CB9C086E3C0
:1014F00092E00E94D51B90E08E159F0561F0612F50
:1015000086E392E00E94391C86E392E00E945F1C11
:1015100060E00E94862260E086E392E00E94EC1B7D
:10152000682F68C086E392E00E94D51B282F30E028
:101530002E153F0599F0612F86E392E00E94391C39
:1015400086E392E00E945C1C60E00E94862286E3B3
:1015500092E00E945F1C60E00E94862260E086E3C9
:1015600092E00E94DB1B182F60E086E392E00E946D
:10157000EC1B612F70E0660F771F680F711D8827C5
:1015800077FD8095982F71C000910002C02ED12C5C
:1015900086E392E00E94D51B282F30E02E153F05F0
:1015A00009F078C086E392E00E94D81B282F30E033
:1015B0002C153D0509F06EC0CA94CD2869F486E368
:1015C00092E00E945C1C62E00E94862260E086E35A
:1015D00092E00E94DB1B0CC086E392E00E945F1C3D
:1015E00062E00E94862260E086E392E00E94EC1BAB
:1015F00061E0682770E080E090E00E942C2840C005
:1016000000910002F701EE0FFF1FE65FFE4F108111
:1016100060E0812F0E948622812F0E94E12111E04B
:101620000B970CF010E0812F80270E944D0910933A
:10163000EC0137C06FEE71E0CE0101960E94A62644
:10164000CE0101960E945609CE0101960E940B26FA
:1016500028C060E0812F0E948622812F0E94F522FF
:10166000BC01882777FD8095982F0E942E2808C0FE
:101670006091E2017091E3018091E4019091E501B4
:101680000E947B090EC0402F612F84E592E00E94EA
:10169000CD1DE2CE402F612F86E392E00E94491CCF
:1016A0008BCF26960FB6F894DEBF0FBECDBFDF916D
:1016B000CF911F910F91FF90EF90DF90CF90089501
:1016C0000F931F93CF93DF931F92CDB7DEB7109286
:1016D000ED018091FC018093DF010091FE0110E09B
:1016E0009091FD019230E1F018F4913031F022C078
:1016F0009430C9F09530B9F01DC00130110531F0BA
:1017000089830E943F0989810E943A09C8010E9489
:10171000AA090F90DF91CF911F910F910C94650250
:10172000C8010E9440060F90DF91CF911F910F9149
:101730000C9445090F90DF91CF911F910F9108955F
:101740001092EE018CE995E00E944A2318161906C2
:101750004CF481E08093EE018CE995E00E946323D4
:101760008093F80108950E94A00B8091EE018823D8
:1017700009F446C08091F8019091ED01853561F43E
:1017800091110AC08091F5018F3FE1F481E08093CF
:10179000F7018093ED0116C08093F501992391F034
:1017A000E091F701E23019F48093F60107C0E330CD
:1017B00028F09091F60191509093F601F0E0E750F7
:1017C000FE4F80838091F7018F5F843318F48093FC
:1017D000F70104C01092F7011092ED018091ED0124
:1017E000882371F08091F60181110AC08091F70180
:1017F000843030F01092ED010E94600B1092F701DE
:101800000895DD24D394CCEDD0E002E0C02E08E7AB
:1018100010E088ECE82EF12C0E9409030E94B30B23
:1018200087E00E94E12121E0853691050CF020E05F
:101830002093EB018091EA01281709F47CC02093E2
:10184000EA01222309F477C08091DD01811122C0D1
:10185000D092DD01F0921F01E0921E010E94F2027F
:10186000F8942CE231E040E050E06AE471E087E671
:1018700092E00E944611789487E692E00E94AA11B5
:1018800020E040E060E084ED92E00E94751D20E0E1
:101890004AE023C0813019F5C092DD0110931F0189
:1018A00000931E010E94F202F8942CE231E040E025
:1018B00050E06AE471E087E692E00E944611789475
:1018C00087E692E00E94AA1120E040E060E084ED0B
:1018D00092E00E94751D2AE040E060E024C0823062
:1018E00051F51092DD01D0931F01C0931E010E949B
:1018F000F202F8942CE231E040E050E066E271E060
:1019000087E692E00E944611789487E692E00E9472
:10191000AA1120E040E060E084ED92E00E94751D95
:101920002AE04AE06AE084ED92E00E94751D84EDB1
:1019300092E00E94A21D8091DD01813051F030F0D3
:10194000823009F069CF0E949D0566CF0E941C0578
:1019500063CF0E94440560CF8091100390E02091F6
:101960001103821B910908952091110380911003A6
:10197000281750F4E22FF0E0EE5EFC4F808190E0FB
:101980002F5F2093110308958FEF9FEF0895E0914B
:10199000110380911003E81730F4F0E0EE5EFC4F85
:1019A000808190E008958FEF9FEF08950895CF9282
:1019B000DF92EF92FF920F931F93CF93DF937C01FF
:1019C000CB018A012091ED02222389F0EB016B010A
:1019D000C40ED51ECC15DD0569F06991D701ED91D6
:1019E000FC910190F081E02DC7010995F3CF642FA0
:1019F0000E94470DC801DF91CF911F910F91FF9079
:101A0000EF90DF90CF900895CF93DF931F92CDB7E3
:101A1000DEB769832091ED022223D1F02091EE02FE
:101A2000203240F021E030E0FC013383228380E06B
:101A300090E015C08091EF02E82FF0E0E051FD4FFB
:101A4000998190838F5F8093EF028093EE0205C0AF
:101A500061E0CE0101960E94470D81E090E00F9079
:101A6000DF91CF910895FC011382128248EE53E07A
:101A700060E070E0448355836683778387E591E077
:101A800091838083089581EE92E00C94330D61324E
:101A900098F420919F03243089F460935403FC014F
:101AA00086E593E0DC012A2F281B261718F42191E4
:101AB0002D93F9CF80E0089581E0089582E00895A4
:101AC00085ED8093BC008091BC0084FDFCCF10921A
:101AD0009F03089585EC8093BC0010929F030895A6
:101AE0001F920F920FB60F9211242F933F934F9393
:101AF0005F936F937F938F939F93AF93BF93EF9376
:101B0000FF938091B900887F803609F49EC078F5F4
:101B1000883209F45DC090F4803109F456C038F47D
:101B2000882309F4F5C0883009F44FC0F5C0883126
:101B300009F44EC0803209F45FC0EEC0803409F46D
:101B40006AC058F4803309F457C0883309F0E4C000
:101B5000809332030E946A0DDFC0803509F44FC0C4
:101B6000883509F45DC0883409F0D6C0D3C08839FF
:101B700009F4C4C0A8F4883709F467C038F488367B
:101B800009F463C0803709F460C0C6C0883809F41E
:101B9000B5C0803909F45FC0803809F0BDC05BC0B2
:101BA000803B09F483C038F4803A09F466C0883A6F
:101BB00009F47CC0B1C0803C09F4A4C0883C09F49D
:101BC000A1C0883B09F487C0A7C080919E0310C0C4
:101BD0009091770380917603981770F5E0917703E1
:101BE00081E08E0F80937703F0E0E858FC4F80810E
:101BF0008093BB0085EC83C0809332038BC0E0915F
:101C0000770381E08E0F809377038091BB00F0E033
:101C1000E858FC4F808390917703809176036BC0E6
:101C2000E091770381E08E0F809377038091BB0072
:101C3000F0E0E858FC4F808380919D0381116AC0D9
:101C400081E080939C0384EA5EC083E080939F03DD
:101C500010923303CFCF80913303803208F04EC00F
:101C6000E091330381E08E0F809333038091BB00BA
:101C7000F0E0EC5CFC4F8083BDCF0E946A0D809148
:101C80003303803230F4E0913303F0E0EC5CFC4F3E
:101C900010826091330370E0E0919803F091990312
:101CA00084E393E009951092330336C084E0809377
:101CB0009F031092550310925403E0919A03F09100
:101CC0009B03099580915403811105C081E08093A5
:101CD000540310925603E091550381E08E0F8093D8
:101CE0005503F0E0EA5AFC4F80818093BB0090914D
:101CF000550380915403981708F47CCF85E88093AE
:101D0000BC000AC085EC8093BC0010929F0304C005
:101D1000109232030E94600DFF91EF91BF91AF913D
:101D20009F918F917F916F915F914F913F912F91F3
:101D30000F900FBE0F901F9018951F920F920FB625
:101D40000F9211242F933F934F935F936F937F9341
:101D50008F939F93AF93BF93EF93FF93E091E20331
:101D6000F091E303309709F451C0868DA685B785BD
:101D7000958581FF04C08C91892329F447C08C91FB
:101D8000892309F043C0A389B4899C9185898095F2
:101D900089238C93868997890197F1F7208D318D5E
:101DA000A685B785758558E040E0C9010197F1F730
:101DB000842F90E095958795482F6C91672309F0C3
:101DC0004068515091F7868D81FD40958091A10327
:101DD00090E001968F7399272091A003281749F06E
:101DE000A091A103B0E0AE55BC4F4C938093A103EA
:101DF00003C0868D8160868F828D938D0197F1F768
:101E0000A389B4898C919589892B8C93FF91EF914B
:101E1000BF91AF919F918F917F916F915F914F9102
:101E20003F912F910F900FBE0F901F9018950C941B
:101E3000BC1B0F931F93CF93DF93EC01062F18E089
:101E400060E088850E94BF2200FF02C061E001C0FF
:101E500060E089850E94BF22069561E088850E9426
:101E6000BF22115069F760E088850E94BF2261E0BF
:101E700089850E94BF2261E088850E94BF2260E0C0
:101E800089850E94862218EC89850E94F522892B7B
:101E900059F01150C9F761E089850E94862260E0FF
:101EA00089850E94BF22EFCF61E08985DF91CF91C4
:101EB0001F910F910C948622CF93DF93EC0161E088
:101EC00088850E94BF2261E089850E94BF2260E070
:101ED00089850E94BF2260E08885DF91CF910C94B4
:101EE000BF22CF93DF93EC0160E088850E94BF2280
:101EF00060E089850E94BF2261E088850E94BF2240
:101F000061E08985DF91CF910C94BF22CF92DF925F
:101F1000FF920F931F93CF93DF931F92CDB7DEB73E
:101F20006C01F62E79830E945C0F60E4C6010E946A
:101F3000190FC6010E94710FC6010E945C0FF601C5
:101F40006581C6010E94190F0F2D7981172F84E03A
:101F5000F82EF80161918F01C6010E94190FFA94C1
:101F6000C1F7C6010E94710FC6010E945C0FF60105
:101F70006681C6010E94190FC6010F90DF91CF91B3
:101F80001F910F91FF90DF90CF900C94710F4F92A3
:101F90005F926F927F928F929F92AF92BF92CF92F9
:101FA000DF92EF92FF920F931F93CF93DF9300D0B6
:101FB00000D0CDB7DEB76A017B01890137FD48C08B
:101FC000B9016F5F7F4F882777FD8095982F0E941A
:101FD0002E289B01AC0160E070E080E291E40E9459
:101FE000092A4B015C019B01AC01C701B6010E94AB
:101FF00093270E9469282B013C01B801882777FDAF
:102000008095982F0E942E289B01AC0160E070E023
:1020100080E291E40E94092A69837A838B839C83FE
:10202000A5019401C301B2010E94A6299B01AC0144
:10203000C701B6010E942A2729813A814B815C8120
:102040000E9493270E9469280E94FB27CB011FC092
:1020500088249924821A930AA12CB12C20E030E024
:1020600040E251E4C701B6010E94A6296B017C0140
:102070008FEFA81AB80AA814B90484F3C701B601EF
:102080000E94FB27CB016AE070E00E941F2B0F909B
:102090000F900F900F90DF91CF911F910F91FF90B4
:1020A000EF90DF90CF90BF90AF909F908F907F90F8
:1020B0006F905F904F900895DB0180E090E22C914B
:1020C000223208F09C93EC91F0E0E651FF4FE4914E
:1020D000ED938F5F843099F70895EF92FF920F93FD
:1020E0001F93CF93DF9300D000D0CDB7DEB78C0124
:1020F000DB01FE013196CE0105967F012D912193E2
:10210000E817F907D9F7B701C8010E945C10B701B9
:10211000C8010E94860F0F900F900F900F90DF91D3
:10212000CF911F910F91FF90EF900895CF93DF9380
:1021300000D000D0CDB7DEB720E229832A832B83DD
:102140002C83BE016F5F7F4F0E946D100F900F9028
:102150000F900F90DF91CF910895CF93DF93EC0113
:102160006A83E62FF0E0EE0FFF1FE05EFE4F8181F5
:102170008983908198838887998761E00E9486226D
:1021800061E089850E94862280E48C8380EC8D83C7
:102190008AE88E83CE01DF91CF910C9496108F92B6
:1021A0009F92AF92BF92CF92DF92EF92FF920F93E6
:1021B0001F93CF93DF9300D000D0CDB7DEB75C0183
:1021C0006A017B0119821A821B821C8220E030E0A6
:1021D000A901C701B6010E948F2787FF09C0F7FA3E
:1021E000F094F7F8F09481E289839924939401C0E4
:1021F000912C03E010E0812C9801B701A601C501E4
:102200000E94C70F181619062CF0002319F0882019
:10221000B9F00CC001110AC0E1E0F0E0EC0FFD1FC5
:10222000E90DF11D20E1280F208307C0E1E0F0E077
:10223000EC0FFD1FE90DF11D808393948824839496
:1022400083E0891530F0015011090C3F8FEF18071A
:1022500099F6BE016F5F7F4FC5010E946D100F9010
:102260000F900F900F90DF91CF911F910F91FF90E2
:10227000EF90DF90CF90BF90AF909F908F90089598
:102280000E94BC1B88E08093E40308954F925F9204
:102290006F927F928F929F92AF92BF92CF92DF9276
:1022A000EF92FF920F931F93CF93DF9369017A010F
:1022B0009B0140E050E060E472E48FE090E00E9417
:1022C000552BE901890137FF02C00F5F1F4F15959C
:1022D000079561E08091E4030E948622A8EEB3E0B6
:1022E000A70196010E94832B4B015C01C12CD12CCC
:1022F00076012E01662457FC6094762CC814D9040C
:10230000EA04FB04B0F461E08091E4030E94BF2280
:10231000C8010E949B2160E08091E4030E94BF22DB
:10232000C8010E949B21A895C40CD51CE61CF71C73
:10233000E5CFDF91CF911F910F91FF90EF90DF904C
:10234000CF90BF90AF909F908F907F906F905F9055
:102350004F90089561E08091E4030E94862260E03E
:102360008091E4030C94BF220C94C51B0F931F9320
:10237000CF93DF938C016F3F710519F014F06FEF6D
:1023800070E0EB0161308FEF780714F4C1E0DFEF0C
:10239000F801868197818C179D07C9F0D783C68382
:1023A000D7FD06C061E0C8010E940D1CBE0108C037
:1023B00060E0C8010E940D1C662777276C1B7D0B0F
:1023C000C801DF91CF911F910F910C94351CDF91C3
:1023D000CF911F910F91089585EE93E00C94F41125
:1023E00085EE93E00C941D1221E030E0FC01318376
:1023F0002083EE5FFE4F1082118212821382349688
:1024000010821182128213823496108231961082C9
:1024100031961082118212821382349611821082B8
:102420003296108231961082118212821382349673
:102430001082118212821382089508951F920F92C2
:102440000FB60F9211240F931F932F933F934F9327
:102450005F936F937F938F939F93AF93BF93CF932C
:10246000EF93FF9382E00E94F522C82F209106058A
:10247000309107052F5F3F4F3093070520930605E6
:1024800080916C05843618F085E080930105909169
:102490000105933079F018F4923039F070C094301F
:1024A00011F1953009F44AC06AC0C11168C0109298
:1024B0006C0529C0C13009F062C0E0916C0581E073
:1024C0008E0F80936C05F0E08091060590910705D2
:1024D000E050FB4F8087109207051092060584E0BC
:1024E000809301054CC0C11114C0E0916C0581E0DE
:1024F0008E0F80936C05F0E08091060590910705A2
:10250000E050FB4F8087109207051092060583E08C
:10251000E7CF80910605909107058536910578F102
:1025200085E0809301050E9432216093020570933B
:102530000305809304059093050521C00E94322174
:1025400000910205109103052091040530910505C5
:10255000601B710B820B930B693C71058105910522
:1025600040F010926C05109207051092060582E06B
:10257000B7CFC11104C01092070510920605FF9154
:10258000EF91CF91BF91AF919F918F917F916F917B
:102590005F914F913F912F911F910F910F900FBE1F
:1025A0000F901F901895F89482E08093B00080936C
:1025B000B10094E69093B3001092B2008093700043
:1025C000789410926C058093010508950F931F93E2
:1025D000CF93DF93EC018C010C5E1F4F61E971E03A
:1025E000C8010E94792661E971E0CE014A960E94F5
:1025F000792660E082E00E94862282E080930005D6
:1026000018A219A21AA21BA21B861A861C861A8A55
:1026100061E971E0C8010E94AF261B8ACE010E94C9
:10262000D31261E083E00E94862260E083E0DF91C4
:10263000CF911F910F910C94BF221F93CF93DF93E3
:10264000FC01A681B7818C9186588D3558F4808520
:10265000918583309105A1F411968C911197815247
:10266000893118F080E090E044C012968C91885037
:102670008730C0F7158281E0808381E090E039C027
:10268000833491057CF311968C91119783548F328A
:1026900048F782E090E040E050E0BA019D012F5FF2
:1026A0003F4FEC01CA0FDB1FC881C850C730D0F6BE
:1026B000E901C80FD91F18811751133180F476959D
:1026C000679557954795706802968234910549F74A
:1026D00080E285834183528363837483CCCFC88136
:1026E000C850C73008F0BECF769567955795479587
:1026F000EBCFDF91CF911F9108950F931F93CF934D
:10270000DF93EC0188E095E09F838E8380916C05D8
:1027100090E09987888780910105853081F4CE010A
:102720000E941D138C01CE010115110529F00E9494
:10273000D31201E010E005C00E94D31202C000E0F5
:1027400010E0C801DF91CF911F910F910895CB0147
:10275000E0EBF0E02081206220830C949B21CB01F0
:10276000E0EBF0E020812F7D20830C949B211092E0
:102770007000262F30E040E050E060E47FE180E030
:1027800090E00E94552B81E08093B00089E0809317
:10279000B1002093B3008BEA289F212D11242695A8
:1027A0002093B4000895F89482E08093B000809361
:1027B000B10094E69093B3001092B2008093700041
:1027C00078948093010510926C058091000560E07B
:1027D0000C948622AF92BF92CF92DF92EF92FF923B
:1027E0000F931F93CF93DF93EC016A017B01590193
:1027F00066E20E94B71368E273E2CE010E94A7135B
:1028000064E971E1CE010E94AF1300E010E060E3E3
:1028100072E0CE010A151B05ACF4C0FE05C00E9493
:10282000A71360E476E004C00E94A71360E372E09F
:10283000CE010E94AF13F694E794D794C7940F5F2C
:102840001F4FE5CF0E94A71360E070E0CE01DF913B
:10285000CF911F910F91FF90EF90DF90CF90BF909D
:10286000AF900C94AF13EF92FF920F931F93CF93FF
:10287000DF937C018B016AE0C8010E94F326C0E06F
:10288000D0E0F80184819581C817D90710F5BE0101
:10289000C8010E941727482F409550E060E070E083
:1028A000762F652F542F4427480F511D611D711D30
:1028B000BA01552744274F6F20E230E0C7010E943C
:1028C000EA1364E170E080E090E00E9461212196CB
:1028D000D8CFC701DF91CF911F910F91FF90EF905B
:1028E0000C94D313CF92DF92EF92FF920F931F932A
:1028F000CF93DF93EC01162FF42EE52ED22E106C21
:1029000061E08C810E94BF2260E08D810E94BF2225
:1029100008E060E08C810E94BF22612F61708D8190
:102920000E94BF2261E08C810E94BF221695015057
:1029300081F7CF2C0F2D1E2D802F8C198D15B0F403
:10294000F801E1908F0188E0F82E60E08C810E9410
:10295000BF226E2D60788D810E94BF2261E08C8144
:102960000E94BF22EE0CFA9481F7E6CF60E08C81E2
:102970000E94BF2260E08D810E94BF2261E08C81B5
:102980000E94BF2261E08D81DF91CF911F910F9155
:10299000FF90EF90DF90CF900C94BF220C94BC1B63
:1029A0000F931F93CF93DF93EC01162F61E08C817F
:1029B0000E94BF2260E08D810E94BF2208E060E09B
:1029C0008C810E94BF22612F61708D810E94BF2285
:1029D00061E08C810E94BF221695015081F760E072
:1029E0008C810E94BF2260E08D810E94BF2261E045
:1029F0008C810E94BF2261E08D81DF91CF911F9178
:102A00000F910C94BF2220E030E0FC01E20FF31F95
:102A100010862F5F3F4F20313105B9F721E0FC01CF
:102A200026831782AC01485F5F4F20E160E00C9481
:102A30007214693018F4662321F001C068E0615017
:102A4000686060680C94D014CF93DF93EC01E62F9C
:102A5000F0E0EE0FFF1FE05EFE4F80818C839181DE
:102A60009D836A8361E00E94862261E08D810E94DD
:102A7000862261E08C810E94BF2261E08D810E94EC
:102A8000BF2260E4CE010E94D01465E0CE010E9416
:102A90001915CE01DF91CF910C940315FC016683CB
:102AA00008958F929F92AF92BF92CF92DF92EF9252
:102AB000FF920F931F93CF93DF9360310CF085C08B
:102AC00048300CF082C0222309F47FC0FC0136811B
:102AD000A42FBB27A7FDB095E8E0F0E0EA1BFB0BB5
:102AE0005FEF01C0550FEA95EAF74801C0E0D0E07A
:102AF000772767FD70956C01C60ED71EAA24BB24EC
:102B0000AA1ABB0A332379F1C21778F58E01060F92
:102B1000171F17FD1AC07601EC0EFD1EF701308558
:102B20003523F4010081141644F410E00A2E02C08B
:102B3000159507950A94E2F705C00A2C01C0000F0D
:102B40000A94EAF7032BF70100872196FFEF8F1A0B
:102B50009F0ADACF8E01060F171F17FF19C02196A3
:102B6000FFEF8F1A9F0AC217A8F3AC01485F5F4FAF
:102B700020E160E0DF91CF911F910F91FF90EF90E6
:102B8000DF90CF90BF90AF909F908F900C94721475
:102B90007601EC0EFD1EF70130853523F40100812E
:102BA00010E00095109514163CF40A2E02C01595FD
:102BB00007950A94E2F705C00A2C01C0000F0A9499
:102BC000EAF7032BF7010087CACFDF91CF911F915E
:102BD0000F91FF90EF90DF90CF90BF90AF909F90BC
:102BE0008F9008958F929F92AF92BF92CF92DF9273
:102BF000EF92FF920F931F93CF93DF93EC01088D19
:102C0000198D101611060CF073C080E090E0F82EBC
:102C10008017910751F001968131910509F4E7C0C1
:102C2000FE01E80FF91F1782F2CF40E1841709F483
:102C3000DEC00B8D1C8DE12C67E0D62E70E2C72E16
:102C40004E2D50E0401751070CF049C0B12CDE0169
:102C5000A40FB51F5D962B2D30E0D29EC001D39EF0
:102C6000900D11248D5C9E4FFC016491603441F104
:102C7000FC016491EC91FF27E7FDF09570E0E61709
:102C8000F707E1F4D29EB001D39E700D112420E02D
:102C900030E06C5C7E4FFB01E20FF31FE491DE013C
:102CA000AF0DB11D1896EC93F394FFE0FF1540F0C3
:102CB0002F5F3F4F2630310571F702C0B394CBCF61
:102CC000FC018491803429F4FE01E40FF51FC58EC8
:102CD000EA94E394FFE0FF1508F0B2CF88C0FE014C
:102CE000EF0DF11D1086F39440E1F412F8CF7FC090
:102CF000EB8CFC8C2AEFA7012403C001259F900DCB
:102D000011240817190759F480E090E0FE01E80F3C
:102D1000F91F1086019680319105C1F768C02227FE
:102D20003327201B310BC90166E070E00E941F2B86
:102D3000398F288F9B0190E047E0B42E50E2A52EFA
:102D40002E153F050CF04BC0912CDE01A20FB31FD6
:102D50005D96692D70E0B69EA001B79E500D1124BE
:102D60004D5C5E4FFA01D490F0E4DF1631F1FA01C8
:102D70008490CC90DD24C7FCD094E82DF0E0CE16F2
:102D8000DF06C1F4B69ED001B79EB00D1124FD013F
:102D9000E80FF11D87FDFA95EC5CFE4F6491FE0192
:102DA000E90FF11D60879F5F903130F48F5F8630AF
:102DB00071F702C09394CDCF80E0FA014491403482
:102DC00031F4FE01E20FF31FA58E215031092F5F70
:102DD0003F4F903108F4B4CF198F088F08C0FE011F
:102DE000E90FF11D10869F5F9031C9F7F5CF4A8D2D
:102DF000552747FD509527E030E0241B350B80E038
:102E000090E037FD12C0FE01E80FF91F4085022E49
:102E100001C0440F0A94EAF740870196803191057A
:102E200091F78E818823A1F01FC047505109FE0100
:102E3000E80FF91F208530E0042E02C03595279554
:102E40000A94E2F7208701968031910581F7E9CF56
:102E500080E090E0FE01E80FF91F20852095208793
:102E6000019680319105B1F7AE01485F5F4F20E1D7
:102E700060E0CE01DF91CF911F910F91FF90EF9015
:102E8000DF90CF90BF90AF909F908F900C94721472
:102E90000F931F93FC0181E08783148E138E038DA3
:102EA000148DD901A00FB11F8C91DF01A00FB11FAC
:102EB000882319F00331110564F05D961C922AEF06
:102EC0002003C001219F900D11246817790774F029
:102ED00007C05D968C930F5F1F4F148F038FDFCF5A
:102EE000CB016131710514F080E190E0918F808F0A
:102EF00040310CF04FE047FD4FEF428FCF011F9163
:102F00000F910C94F215CF93DF93DC01362F862FAF
:102F10006AE00E94FF2AC82FD0E0FE01EE0FFF1FDB
:102F2000EC0FFD1FE45FFE4FE4911896EC931897A9
:102F3000FE01EE0FFF1FEC0FFD1FE35FFE4FE4915C
:102F40001996EC931997FE01EE0FFF1FEC0FFD1F72
:102F5000E25FFE4FE4911A96EC931A971B961C922F
:102F60001B97832F0E94FF2A692F70E0FB01EE0F51
:102F7000FF1FE60FF71FE45FFE4FE4911C96EC93F2
:102F80001C97FB01EE0FFF1FE60FF71FE35FFE4FDD
:102F9000E4911D96EC931D97FB01EE0FFF1FE60FCA
:102FA000F71FE25FFE4FE4911E96EC931E97842F6D
:102FB0006AE00E94FF2A682F70E0FB01EE0FFF1FFE
:102FC000E60FF71FE45FFE4FE4915196EC935197A3
:102FD000FB01EE0FFF1FE60FF71FE35FFE4FE491CB
:102FE0005296EC935297FB01EE0FFF1FE60FF71F6F
:102FF000E25FFE4FE4915396EC93539754961C92E4
:103000005497842F6AE00E94FF2A892F90E0FC01E8
:10301000EE0FFF1FE80FF91FE45FFE4FE491559696
:10302000EC935597FC01EE0FFF1FE80FF91FE35FCC
:10303000FE4FE4915696EC935697FC01EE0FFF1F5E
:10304000E80FF91FE25FFE4FE4915796EC93579714
:10305000222341F088E21F968C931F9750968C9301
:10306000509706C01F961C921F9750961C9250971F
:1030700016968C911697882351F0AD01485F5F4FEB
:1030800020E160E0CD01DF91CF910C94721480E0DB
:1030900090E0FD01E80FF91F20852095208701961B
:1030A00080319105B1F7E9CF2F923F924F925F9215
:1030B0006F927F928F929F92AF92BF92CF92DF9248
:1030C000EF92FF920F931F93CF93DF93CDB7DEB7AD
:1030D0002A970FB6F894DEBF0FBECDBF8C016A01F0
:1030E0007B01922E2A013B0177FA709477F8709455
:1030F00020E030E0A901C701B6010E948F2787FFB9
:1031000005C049865A86362C272C04C0C986DA8623
:103110003E2C2F2C7AE0A72EB12C20E03EE34CE190
:1031200056E4C701B6010E94562987FD03C089E015
:103130008D83C5C020E030EE49E754ECC701B601ED
:103140000E948F27181624F08BE08D8389E0B7C08A
:1031500020E030E0A901C701B6010E948F27882E28
:10316000881C8824881C712C60E070E080E09FE35C
:10317000791441F020E030E040E251E40E949327CE
:103180007394F6CF9B01AC0169857A85832D922DCE
:103190000E942B272B013C010E9400289B01462FF7
:1031A000972FE0E0842FB5010E940B2BA1E0B0E047
:1031B000AC0FBD1FAE0FB11D8AE0689F40191124EE
:1031C0004C93EF5F6115710519F0462F972FEACFE9
:1031D0008E2F880D982F990D953020F064E0962E53
:1031E000981A9BCF8CE08D838E838F83888784E0B1
:1031F000891B882041F0DE01A80FB11D8BE01596D8
:103200008C9385E0891BF82EFE0E8F2D8E1BEE23EE
:1032100079F045E050E04C0F5D1F480F511DCE0185
:103220008E0F911DDC018C91DA018C93E150EDCF72
:10323000992009F480C0B90180E090E00E942C2818
:103240009B01AC01C301B2010E942A27FB01DC01F2
:10325000E62EDF2EC82EBB2E83E0F8120FC020E032
:1032600030E040E251E4BF01CD010E94A6290E9456
:10327000FB27672B39F58CE088875DC082E0F81268
:103280000EC020E030E048EC52E4BF01CD010E94C6
:10329000A6290E94FB27672BA9F48CE011C081E0CE
:1032A000F81210C020E030E04AE754E4BF01CD013D
:1032B0000E94A6290E94FB27672B21F48CE08E83B5
:1032C0008F83DACFAA24A394AF0CE5E0F0E0EC0FF3
:1032D000FD1FEF0DF11D8AE080839A94AFEF9A16DF
:1032E00051F120E030E040E251E46E2D7D2D8C2D37
:1032F0009B2D0E94A6296B017C010E94FB2788243C
:1033000083948A0CE5E0F0E0EC0FFD1FEA0DF11D5F
:103310006083882777FD8095982F0E942E289B0137
:10332000AC01C701B6010E942A27E62ED72EC82E6F
:10333000B92EA82CD2CF8D8190E0FC01EE0FFF1F9B
:10334000E80FF91FE45FFE4FE491D8011896EC9363
:10335000FC01EE0FFF1FE80FF91FE35FFE4FE49142
:10336000D8011996EC93FC01EE0FFF1FE80FF91F2F
:10337000E25FFE4FE491D8011A96EC931A971B96E0
:103380001C928E8190E0FC01EE0FFF1FE80FF91FE9
:10339000E45FFE4FE491D8011C96EC93FC01EE0F24
:1033A000FF1FE80FF91FE35FFE4FE491D8011D9660
:1033B000EC93FC01EE0FFF1FE80FF91FE25FFE4FD9
:1033C000E491D8011E96EC931E971F961C928F8154
:1033D00090E0FC01EE0FFF1FE80FF91FE45FFE4FC6
:1033E000E491D8015096EC93FC01EE0FFF1FE80F1B
:1033F000F91FE35FFE4FE491D8015196EC93FC0175
:10340000EE0FFF1FE80FF91FE25FFE4FE491D801B6
:103410005296EC93529753961C92888590E0FC014B
:10342000EE0FFF1FE80FF91FE45FFE4FE491D80194
:103430005496EC93FC01EE0FFF1FE80FF91FE35FBA
:10344000FE4FE491D8015596EC93FC01EE0FFF1F5F
:10345000E80FF91FE25FFE4FE491D8015696EC9316
:10346000569757961C92579716968C91882301F180
:10347000A801485F5F4F20E160E0C8012A960FB6BF
:10348000F894DEBF0FBECDBFDF91CF911F910F919A
:10349000FF90EF90DF90CF90BF90AF909F908F9074
:1034A0007F906F905F904F903F902F900C9472148C
:1034B00080E090E0F801E80FF91F20852095208733
:1034C000019680319105B1F7D3CF0C94C51B1F93A2
:1034D000CF93DF93EC0160E00E94DB1B182F60E0CC
:1034E000CE010E94EC1B110F812BDF91CF911F9118
:1034F0000895089570E0FB01E656FC4FE491DC016D
:10350000EC93FB01E255FC4FE491F0E0EE0FFF1F5E
:10351000EE53FC4F25913491FC01328321830895B1
:103520001F93CF93DF93FC011081C181D2819981D8
:10353000812F8095892389838A81812B8A838AE0E0
:1035400090E00E949B219881912381E009F480E022
:10355000DF91CF911F910895FF920F931F93CF9307
:10356000DF93FC011081C181D281F8948981F12E11
:10357000F0948F2189838A81812B8A8378940DE747
:10358000015041F182E090E00E949B2188818123DB
:10359000B9F3F8948A818F218A838981812B898369
:1035A000789480EE91E00E949B21F89489818F218C
:1035B00089838A81812B8A8386E490E00E949B2103
:1035C0008881812301E009F000E078948AE991E0A4
:1035D0000E949B21802FDF91CF911F910F91FF902F
:1035E00008951F93CF93DF93FC011081C181D28195
:1035F000912F909560FF12C0F8948A8189238A8365
:103600008981812B89838AE090E00E949B218A81B5
:10361000812B8A83789487E390E011C0F8948A81A3
:1036200089238A838981812B898381E490E00E94A8
:103630009B218A81812B8A83789485E090E0DF91B9
:10364000CF911F910C949B210F931F93CF93DF93E6
:10365000FC011081C181D281F8948981812B8983F9
:103660008A81012F009580238A8383E090E00E9465
:103670009B218981802389838A81812B8A838AE0A7
:1036800090E00E949B21C881789485E390E00E949D
:103690009B211C2381E009F480E0DF91CF911F91F1
:1036A0000F910895CF92DF92EF92FF920F931F93A5
:1036B000CF93DF931F92CDB7DEB76C01E62E08E003
:1036C00010E0FF24F39461E09F2D9E2109F460E057
:1036D000C60149830E94F11AFF0C0150110949816A
:1036E0000115110581F741111DC0F894D6011196FD
:1036F000ED91FC91129791818C9180958923818322
:103700001196ED91FC91129782819C91892B828375
:103710001196ED91FC91129792818C91809589235D
:10372000828378940F90DF91CF911F910F91FF903A
:10373000EF90DF90CF900895EF92FF920F931F9339
:10374000CF93DF938C01C8E0D0E0F12CEE24E3941A
:10375000C8010E94241B8111FE28EE0C2197C1F79D
:103760008F2DDF91CF911F910F91FF90EF900895D2
:1037700040E06CEC0C94521BFC0180912001808392
:1037800080912101818312820895DC01E62FF0E00F
:10379000EE0FFF1FE05EFE4F80818C9381811196BA
:1037A0008C93119712966C930895FC018281089571
:1037B000FC0183810895CF93DF93EC0188810E94FF
:1037C000862288810E94F52221E0892B09F420E0DD
:1037D000822FDF91CF910895CF93DF93EC01898100
:1037E0000E94862289810E94F52221E0892B09F41A
:1037F00020E0822FDF91CF9108951F93CF93DF9325
:10380000EC01162F61E088810E948622612F888159
:10381000DF91CF911F910C94BF221F93CF93DF9321
:10382000EC01162F61E089810E948622612F898137
:10383000DF91CF911F910C94BF22CF93DF93EC01C6
:1038400060E088810E9486228881DF91CF910C946C
:10385000E121CF93DF93EC0160E089810E94862211
:103860008981DF91CF910C94E121FC0180810C943E
:10387000FE21DC01E62FF0E0EE0FFF1FE05EFE4FC1
:1038800080818C93818111968C93119712966C9301
:103890000895DC01E62FF0E0EE0FFF1FE05EFE4F23
:1038A00080818C93818111968C93119712966C93E1
:1038B000129713964C930895FC0180810895FC01A2
:1038C00081810895DC0112966C931297E62FF0E047
:1038D000EE0FFF1FE05EFE4F918111969C931197B2
:1038E00080818C934230D9F4292F30E0F901E656DB
:1038F000FC4FE4911C96EC931C97F901E255FC4FA8
:10390000E491F0E0EE0FFF1FE453FC4F259134915A
:1039100019963C932E93189761E0892F19C0282F90
:1039200030E0F901E656FC4FE4911C96EC931C97AD
:10393000F901E255FC4FE491F0E0EE0FFF1FE45374
:10394000FC4F2591349119963C932E93189761E082
:103950000C948622DC01862F262F30E0F901E656F2
:10396000FC4FE4911C96EC931C97F901E255FC4F37
:10397000E491F0E0EE0FFF1FE453FC4F25913491EA
:1039800019963C932E93189761E00C948622CF935E
:10399000DF93EC01262F30E03D832C8323E0629FF0
:1039A000C00111240E949C2B9F838E83892B21F4BC
:1039B00083E691E00E94FA2D80E090E04C815D81E9
:1039C0009A01220F331F240F351F8217930738F4F3
:1039D000EE81FF81E80FF91F10820196EFCFDF9192
:1039E000CF9108950F931F93CF93DF931F92CDB77D
:1039F000DEB78C0149830E94C51BD80111968C91BA
:103A0000282F30E0F901E656FC4FE491D8011C96CE
:103A1000EC93F901E255FC4FE491F0E0EE0FFF1F4B
:103A2000E453FC4F25913491F8013187208761E000
:103A30000E9486224981642FC8010F90DF91CF91A7
:103A40001F910F910C94C71C0F93FC01A62FB0E09F
:103A500084819581A817B907B8F4862F880F860F3F
:103A600090E0A681B781A80FB91F2C93A681B781DA
:103A7000A80FB91F11964C930680F781E02DE80F2F
:103A8000F91F028381E001C080E00F910895CF9279
:103A9000DF92EF92FF920F931F93CF93DF937C01FE
:103AA000142FD22EC02E611113C0C0E0D0E0F70158
:103AB00084819581C817D90748F40C2D2D2D412FED
:103AC0006C2FC7010E94241D2196F1CF81E004C014
:103AD00061500E94241D80E0DF91CF911F910F91D2
:103AE000FF90EF90DF90CF9008950F93022F242F37
:103AF000462F60E00E94471D0F9108950F931F937A
:103B0000D8013FB7F8949C91822F80958923292B67
:103B1000FB01460F571FE417F50781F0919168E00C
:103B20002C9300C097FF8C93990F00C000C000C079
:103B300008F48C9300C06A9599F7EDCF3FBF1F91B1
:103B40000F9108950F931F93FC0100851185248127
:103B50003581A901440F551F420F531F668177819C
:103B600024850E947E1D1F910F910895CF93DF93AE
:103B7000EC018E819F810E94342C1F821E82DF9176
:103B8000CF910895CF93DF93EC010E94BC1BCE012F
:103B90000496DF91CF910C94791A1F93CF93DF9302
:103BA000EC01142F0E94491C123011F4698101C0EC
:103BB0006881CE010496DF91CF911F910C947A1AFF
:103BC000CF92DF92EF92FF920F931F93CF93DF93E9
:103BD000CDB7DEB72C970FB6F894DEBF0FBECDBFC2
:103BE0008C010C5F1F4FC8010E94AC1AC8010E94D3
:103BF000B81B40E064E4C8010E94521B0E943221BD
:103C00006B017C01C8010E94901A81110BC00E94B7
:103C100032216C197D098E099F096E3E7240810523
:103C2000910580F3C8010E94AC1AC8010E94B81B1C
:103C300040E06EEBC8010E94521BCE0101967C0150
:103C40006E0196E0C90ED11CC8010E949C1BF701B1
:103C500081937F01EC15FD05B9F76A8170E0762F3D
:103C600066278981682B882777FD8095982F0E9489
:103C70002E2820E030E040E85DE30E94A6292C9643
:103C80000FB6F894DEBF0FBECDBFDF91CF911F916D
:103C90000F91FF90EF90DF90CF9008950C94C51B8B
:103CA000CF92DF92EF92FF920F931F93CF93DF9308
:103CB00000D000D0CDB7DEB78C019A01AB012983CB
:103CC0003A834B835C830E943221F801C680D780FF
:103CD000E084F1846C197D098E099F0929813A815C
:103CE0004B815C81683171058105910510F081E09F
:103CF0008583F80185818823C1F129833A834B8329
:103D00005C830E943221F8016683778380879187E4
:103D1000158260E0C8010E940D1C82E090E00E94C4
:103D20009B2161E0C8010E940D1C8AE090E00E9486
:103D30009B2160E0C8010E940D1C60E0F8018181B8
:103D40000E94862229813A814B815C8161E0F801E1
:103D500081810E941E236B017C010E942E28F801A4
:103D6000628773878487958709C0F80162857385A8
:103D7000848595850E94FB276B017C01C701B601F4
:103D80000F900F900F900F90DF91CF911F910F9197
:103D9000FF90EF90DF90CF900895CF93DF93EB01EA
:103DA00027E3269FA001279F500D112448535F4F02
:103DB00060E070E00E94501E61157105810591055B
:103DC00041F48AE38C9FB0018D9F700D112480E037
:103DD00090E00E942E2820E030E048E652E40E9465
:103DE0009327DF91CF9108951F920F920FB60F92F4
:103DF00011242F933F934F935F936F937F938F93F0
:103E00009F93AF93BF93EF93FF9380916E0587FFCE
:103E100005C010928500109284001AC020916E0592
:103E2000332727FD309580916D0590E028173907DD
:103E30007CF480916E05992787FD9095FC01EE0F2B
:103E4000FF1FE80FF91FE159FA4F808187FD15C068
:103E500080916E058F5F80936E0520916E053327EC
:103E600027FD309580916D0590E028173907BCF447
:103E700080916E058C305CF112C080916E0599279F
:103E800087FD9095FC01EE0FFF1FE80FF91FE15928
:103E9000FA4F808160E08F770E94BF22D9CF809156
:103EA000840090918500049680349C4918F480E445
:103EB0009CE905C0809184009091850004969093C0
:103EC0008900809388008FEF80936E0538C0209121
:103ED00084003091850080916E05992787FD90952B
:103EE000FC01EE0FFF1FE80FF91FE159FA4F818126
:103EF0009281820F931F9093890080938800809114
:103F00006E05992787FD9095FC01EE0FFF1FE80FC6
:103F1000F91FE159FA4F808187FF11C080916E052A
:103F2000992787FD9095FC01EE0FFF1FE80FF91F01
:103F3000E159FA4F808161E08F770E94BF22FF91A3
:103F4000EF91BF91AF919F918F917F916F915F9111
:103F50004F913F912F910F900FBE0F901F9018958A
:103F600020916D052C30A0F431E0320F30936D05B7
:103F7000FC012083822F90E0FC01EE0FFF1FE80F71
:103F8000F91FE159FA4F88EB9BE0928381830895F2
:103F90002FEFFC0120830895DF92EF92FF920F93A1
:103FA0001F93CF93DF93EC01D62E7A01890188818C
:103FB0008C3008F066C061E08D2D0E9486228881D9
:103FC000A82FB0E0FD01EE0FFF1FEA0FFB1FE15924
:103FD000FA4F2D2D2F7790819078922B908360E26D
:103FE00072E06E197F0977FF02C06D5F7F4F759594
:103FF000679575956795698340E659E0401B510BBD
:1040000057FF02C04D5F5F4F5595479555954795B2
:104010004A836CE00E94FF2A9CE0899FB001112432
:1040200020E030E0A901460F571FFA01EE0FFF1FF5
:10403000E40FF51FE159FA4F908197FD16C02F5FED
:104040003F4F2C30310571F781110FC01092800065
:1040500082E0809381001092850010928400B19AD2
:1040600080916F00826080936F00888190E0FC01F6
:10407000EE0FFF1FE80FF91FE159FA4F80818068AA
:1040800080838881DF91CF911F910F91FF90EF90F6
:10409000DF90089520E639E040E252E00C94CC1F16
:1040A000FC0180818C3070F5918128E830E0291B7B
:1040B000310997FD3395220F331F220F331F6217EB
:1040C00073077CF0928128E532E0291B310997FDC6
:1040D0003395220F331F220F331F621773070CF41F
:1040E0009B0122503109220F331F4FB7F89490E003
:1040F000FC01EE0FFF1FE80FF91FE159FA4F328361
:1041000021834FBF08954F925F926F927F92AF923B
:10411000BF92CF92DF92EF92FF920F931F93CF93B4
:10412000DF93EC01603282E078070CF040C077FD4D
:1041300006C0653B71052CF064EB70E002C060E0E6
:1041400070E0898128E830E0281B310987FD33952C
:10415000220F331F220F331F5901CC24B7FCC09408
:10416000DC2C882777FD8095982F2A8148E552E03E
:10417000421B510927FD5395440F551F440F551FEE
:104180002A01662457FC6094762C7F926F925F928E
:104190004F9214EBE12EF12C00E010E020E030E033
:1041A000A9010E94C4250F900F900F900F90CE018F
:1041B000DF91CF911F910F91FF90EF90DF90CF9003
:1041C000BF90AF907F906F905F904F900C94502075
:1041D0001F920F920FB60F9211242F933F938F933C
:1041E0009F93AF93BF938091940590919505A09173
:1041F0009605B09197053091930523E0230F2D3755
:1042000020F40196A11DB11D05C026E8230F0296DA
:10421000A11DB11D2093930580939405909395055E
:10422000A0939605B0939705809198059091990574
:10423000A0919A05B0919B050196A11DB11D809397
:10424000980590939905A0939A05B0939B05BF910B
:10425000AF919F918F913F912F910F900FBE0F9033
:104260001F9018952FB7F89460919405709195055B
:1042700080919605909197052FBF08953FB7F894C8
:104280008091980590919905A0919A05B0919B0510
:1042900026B5A89B05C02F3F19F00196A11DB11DA1
:1042A0003FBF6627782F892F9A2F620F711D811DBE
:1042B000911D42E0660F771F881F991F4A95D1F71D
:1042C00008958F929F92AF92BF92CF92DF92EF921A
:1042D000FF926B017C010E943E214B015C01C114E5
:1042E000D104E104F104F1F00E9429270E943E214B
:1042F000681979098A099B09683E7340810591050F
:1043000070F321E0C21AD108E108F10888EE880EA6
:1043100083E0981EA11CB11CC114D104E104F10476
:1043200029F7DDCFFF90EF90DF90CF90BF90AF9057
:104330009F908F9008958230910538F0880F991FD3
:10434000880F991F05970197F1F70895789484B520
:10435000826084BD84B5816084BD85B5826085BD81
:1043600085B5816085BDEEE6F0E080818160808367
:10437000E1E8F0E01082808182608083808181604A
:104380008083E0E8F0E0808181608083E1EBF0E011
:10439000808184608083E0EBF0E0808181608083B5
:1043A000EAE7F0E08081846080838081826080839E
:1043B0008081816080838081806880831092C100C9
:1043C00008958E3008F08E50877020913E0190E461
:1043D000299F90011124822B80937C0080917A0088
:1043E000806480937A0080917A0086FDFCCF809172
:1043F00078002091790090E0922B08951F93CF933D
:10440000DF93182FEB0161E00E948622209711F4C0
:1044100060E004C0CF3FD10539F461E0812FDF9126
:10442000CF911F910C94BF22E12FF0E0EA57FC4F8F
:10443000E491E330F9F048F4E130B9F0E230A1F56D
:1044400084B5806284BDC8BD34C0E730E9F0E8308F
:1044500019F1E43049F580918000806280938000FA
:10446000D0938B00C0938A0024C084B5806884BD3B
:10447000C7BD1FC080918000806880938000D0936A
:104480008900C093880015C08091B0008068809337
:10449000B000C093B3000DC08091B00080628093E3
:1044A000B000C093B40005C0C038D1050CF0B5CF42
:1044B000AFCFDF91CF911F910895833081F028F421
:1044C000813099F08230A1F008958730A9F08830CA
:1044D000B9F08430D1F4809180008F7D03C0809149
:1044E00080008F7780938000089584B58F7702C015
:1044F00084B58F7D84BD08958091B0008F7703C00F
:104500008091B0008F7D8093B0000895CF93DF93AA
:1045100090E0FC01E656FC4F2491FC01E255FC4F73
:104520008491882349F190E0880F991FFC01EA5299
:10453000FC4FA591B49184539C4FFC01C591D4913B
:104540009FB7611108C0F8948C91209582238C93B9
:10455000888182230AC0623051F4F8948C91322F02
:10456000309583238C938881822B888304C0F894B0
:104570008C91822B8C939FBFDF91CF9108950F93E5
:104580001F93CF93DF931F92CDB7DEB7282F30E074
:10459000F901EA57FC4F8491F901E656FC4F14915A
:1045A000F901E255FC4F04910023C9F0882321F062
:1045B00069830E945D226981E02FF0E0EE0FFF1F0A
:1045C000E453FC4FA591B4919FB7F8948C9161117D
:1045D00003C01095812301C0812B8C939FBF0F9046
:1045E000DF91CF911F910F910895CF93DF93282FE3
:1045F00030E0F901EA57FC4F8491F901E656FC4F8F
:10460000D491F901E255FC4FC491CC2391F0811172
:104610000E945D22EC2FF0E0EE0FFF1FEE53FC4FE7
:10462000A591B4912C912D2381E090E021F480E0BC
:1046300002C080E090E0DF91CF9108950F931F9327
:10464000762F90E0FC01E656FC4F6491FC01E255A8
:10465000FC4FE4917111762FF0E0EE0FFF1FEE5347
:10466000FC4F8591949189019A013F70472F0E94D8
:104670002002611571058105910531F06F5F7F4F53
:104680008F4F9F4F9F7003C060E070E0CB011F9180
:104690000F910895FC01818D228D90E0805C9F4FE9
:1046A000821B91098F7399270895FC01918D828D4A
:1046B000981731F0828DE80FF11D858D90E00895F7
:1046C0008FEF9FEF0895FC01918D828D981761F017
:1046D000828DDF01A80FB11D5D968C91928D9F5F39
:1046E0009F73928F90E008958FEF9FEF089587EE6C
:1046F00094E2892B49F080E090E0892B29F00E9418
:10470000E72481110C9400000895FC01848DDF01E1
:10471000A80FB11DA35ABF4F2C91848D90E0019634
:104720008F739927848FA689B7892C93A089B18923
:104730008C9180648C93938D848D981306C002882D
:10474000F389E02D80818F7D80830895CF93DF935F
:10475000EC01888D8823C9F0EA89FB89808185FD79
:1047600005C0A889B9898C9186FD0FC00FB607FCDA
:10477000F5CF808185FFF2CFA889B9898C9185FF1B
:10478000EDCFCE010E948523E7CFDF91CF91089531
:10479000CF92DF92FF920F931F93CF93DF931F92DD
:1047A000CDB7DEB76C0181E0D60158968C9358974F
:1047B0005B969C915B975C968C915C97981307C075
:1047C0005096ED91FC915197808185FD2EC0F601A8
:1047D000038D10E00F5F1F4F0F731127F02EF601AE
:1047E000848DF81211C00FB607FCF9CFD601509690
:1047F000ED91FC915197808185FFF1CFC6016983CE
:104800000E9485236981EBCF838DE80FF11DE35A68
:10481000FF4F6083D6015B960C935B975296ED91A8
:10482000FC915397808180620CC0D6015696ED9121
:10483000FC91579760835096ED91FC915197808140
:104840008064808381E090E00F90DF91CF911F9191
:104850000F91FF90DF90CF900895BF92CF92DF929B
:10486000EF92FF92CF93DF93EC016A017B01B22EAE
:10487000E889F98982E08083411581EE5807610556
:104880007105A1F060E079E08DE390E0A701960169
:104890000E94332B21503109410951095695479502
:1048A00037952795211580E1380798F0E889F9892F
:1048B000108260E874E88EE190E0A70196010E9402
:1048C000332B2150310941095109569547953795A8
:1048D0002795EC85FD853083EE85FF852083188E36
:1048E000EC89FD89B082EA89FB89808180618083BF
:1048F000EA89FB89808188608083EA89FB898081DD
:1049000080688083EA89FB8980818F7D8083DF9145
:10491000CF91FF90EF90DF90CF90BF9008951F92BE
:104920000F920FB60F9211242F938F939F93EF93B3
:10493000FF93E091AC05F091AD058081E091B20567
:10494000F091B30582FD12C090818091B5058F5F13
:104950008F732091B605821751F0E091B505F0E014
:10496000E456FA4F958F8093B50501C08081FF9181
:10497000EF919F918F912F910F900FBE0F901F90ED
:1049800018951F920F920FB60F9211242F933F93F9
:104990004F935F936F937F938F939F93AF93BF9347
:1049A000EF93FF938CE995E00E948523FF91EF91AF
:1049B000BF91AF919F918F917F916F915F914F9137
:1049C0003F912F910F900FBE0F901F9018958CE97B
:1049D00095E00E944A2321E0892B09F420E0822FF0
:1049E000089510929F0510929E0588EE93E0A0E036
:1049F000B0E08093A0059093A105A093A205B09389
:104A0000A30583E891E090939D0580939C0585EC38
:104A100090E09093A9058093A80584EC90E0909392
:104A2000AB058093AA0580EC90E09093AD05809350
:104A3000AC0581EC90E09093AF058093AE0582ECDD
:104A400090E09093B1058093B00586EC90E0909350
:104A5000B3058093B2051092B5051092B605109279
:104A6000B7051092B8050895CF92DF92EF92FF92AA
:104A70000F931F93CF93DF937C016A01EB0100E05A
:104A800010E00C151D0571F06991D701ED91FC91B5
:104A90000190F081E02DC7010995892B19F00F5F76
:104AA0001F4FEFCFC801DF91CF911F910F91FF9062
:104AB000EF90DF90CF9008956115710581F0DB01D3
:104AC0000D900020E9F7AD0141505109461B570BED
:104AD000DC01ED91FC910280F381E02D099480E0EE
:104AE00090E00895DC01ED91FC91DB0114964D916D
:104AF0005C9115976D917C910280F381E02D099472
:104B00000C945C256FE871E00C945C250F931F9367
:104B1000CF93DF93EC010E9472258C01CE010E949D
:104B20008225800F911FDF91CF911F910F910895E2
:104B3000611571058105910511F00C94172D0895EB
:104B4000CF93DF9300D000D0CDB7DEB79B01AC018F
:104B5000611571058105910569F069833A834B837D
:104B60005C830E94122D29813A814B815C810E94D5
:104B7000552B03C060E070E0CB010F900F900F90B9
:104B80000F90DF91CF9108954F925F926F927F9235
:104B9000AF92BF92CF92DF92EF92FF920F931F934B
:104BA000CF93DF93CDB7DEB729013A01621B730BB8
:104BB000840B950B29893A894B895C892A193B0911
:104BC0004C095D09298B3A8B4B8B5C8B9B01AC01AB
:104BD00069897A898B899C890E94EF2AE418F508F3
:104BE00006091709A80197010E94552B2A0D3B1DA4
:104BF0004C1D5D1DCA01B901DF91CF911F910F912D
:104C0000FF90EF90DF90CF90BF90AF907F906F902C
:104C10005F904F900895FC01808191810C94342C19
:104C2000CF93DF93EC0188819981009711F00E9466
:104C3000342C198218821D821C821B821A82DF91F9
:104C4000CF9108950F931F93CF93DF93EC018B01C6
:104C50006F5F7F4F888199810E94202D009731F0EE
:104C6000998388831B830A8381E001C080E0DF9100
:104C7000CF911F910F910895CF93DF93EC0188811D
:104C80009981892B29F08A819B818617970760F487
:104C9000CE010E942226882341F08C819D81892BA0
:104CA00019F4E881F981108281E0DF91CF910895B4
:104CB000EF92FF920F931F93CF93DF93EC017B0151
:104CC0008A01BA010E943C26811104C0CE010E94D3
:104CD000102607C01D830C83B701888199810E942B
:104CE000F32DCE01DF91CF911F910F91FF90EF90A7
:104CF0000895FC011182108213821282158214829F
:104D00006115710559F0FB0101900020E9F7AF0131
:104D100041505109461B570B0C9458260895CF93C8
:104D2000DF93EC01FB018617970761F060817181C9
:104D30006115710529F0448155810E94582602C0F1
:104D40000E941026CE01DF91CF910895FC011182BF
:104D5000108213821282158214820C948F26CF93B4
:104D6000DF93EC016115710561F0FB0101900020FA
:104D7000E9F7AF0141505109461B570B0E945826D5
:104D800002C00E941026CE01DF91CF910895EF92CC
:104D9000FF920F931F93CF93DF93EC017B010C8164
:104DA0001D816115710511F480E016C04115510592
:104DB00091F0040F151FB8010E943C268823A1F32F
:104DC000288139818C819D81B701820F931F0E94B8
:104DD000F32D1D830C8381E0DF91CF911F910F9103
:104DE000FF90EF900895CF93DF9300D0CDB7DEB75B
:104DF00069831A8241E050E0BE016F5F7F4F0E94DD
:104E0000C7260F900F90DF91CF910895FC01248168
:104E100035816217730748F480819181009729F0EA
:104E2000FC01E60FF71F8081089580E008950C943F
:104E3000062708950E94A6210E9419270E943D0876
:104E4000C7E7D3E20E94010C2097E1F30E94772389
:104E5000F9CF08955058BB27AA270ED0D6C1C7D185
:104E600030F0CCD120F031F49F3F11F41EF497C103
:104E70000EF4E095E7FB64C1E92FD8D180F3BA17AF
:104E8000620773078407950718F071F49EF507C24F
:104E90000EF4E0950B2EBA2FA02D0B01B901900155
:104EA0000C01CA01A0011124FF27591B99F0593F99
:104EB00050F4503E68F11A16F040A22F232F342FE1
:104EC0004427585FF3CF469537952795A795F0402F
:104ED0005395C9F77EF41F16BA0B620B730B840B44
:104EE000BAF09150A1F0FF0FBB1F661F771F881FFC
:104EF000C2F70EC0BA0F621F731F841F48F4879554
:104F000077956795B795F7959E3F08F0B3CF939542
:104F1000880F08F09927EE0F979587950895ECD0A4
:104F200008F481E008950CD070C168D140F05FD1E1
:104F300030F021F45F3F19F003C15111B1C12FC10D
:104F400075D198F39923C9F35523B1F3951B550BEC
:104F5000BB27AA2762177307840738F09F5F5F4F4C
:104F6000220F331F441FAA1FA9F333D00E2E3AF08D
:104F7000E0E830D091505040E695001CCAF729D0A7
:104F8000FE2F27D0660F771F881FBB1F26173707F6
:104F90004807AB07B0E809F0BB0B802DBF01FF2726
:104FA00093585F4F2AF09E3F510568F0C9C078C101
:104FB0005F3FECF3983EDCF3869577956795B79560
:104FC000F7959F5FC9F7880F911D9695879597F97B
:104FD0000895E1E0660F771F881FBB1F62177307F4
:104FE0008407BA0720F0621B730B840BBA0BEE1F09
:104FF00088F7E095089504D06894B11151C10895DF
:105000001DD188F09F5790F0B92F9927B751A0F084
:10501000D1F0660F771F881F991F1AF0BA95C9F74C
:1050200012C0B13081F03BD1B1E0089538C1672F93
:10503000782F8827B85F39F0B93FCCF386957795FC
:105040006795B395D9F73EF49095809570956195E5
:105050007F4F8F4F9F4F0895E89409C097FB3EF410
:1050600090958095709561957F4F8F4F9F4F9923B5
:10507000A9F0F92F96E9BB279395F6958795779533
:105080006795B795F111F8CFFAF4BB0F11F460FFF3
:105090001BC06F5F7F4F8F4F9F4F16C0882311F04B
:1050A00096E911C0772321F09EE8872F762F05C05F
:1050B000662371F096E8862F70E060E02AF09A95FA
:1050C000660F771F881FDAF7880F9695879597F9EF
:1050D0000895CED080F09F3740F491110EF0E0C0DB
:1050E00060E070E080E89FEB089526F41B16611DD8
:1050F000711D811D2BC045C0990F0008550FAA0BCB
:10510000E0E8FEEF16161706E807F907C0F01216DA
:105110001306E407F50798F0621B730B840B950BDD
:1051200039F40A2661F0232B242B252B21F4089532
:105130000A2609F4A140A6958FEF811D811D0895CF
:1051400097F99F6780E870E060E00895882371F424
:10515000772321F09850872B762F07C0662311F410
:1051600099270DC09051862B70E060E02AF09A9547
:10517000660F771F881FDAF7880F9695879597F93E
:1051800008959F3F31F0915020F48795779567956A
:10519000B795880F911D9695879597F908959FEF7C
:1051A00080EC0895DF93CF931F930F93FF92EF92BC
:1051B000DF927B018C01689405C0DA2EEF01D2D01A
:1051C000FE01E894A5912591359145915591AEF355
:1051D000EF0152DEFE019701A801DA9479F7DF9022
:1051E000EF90FF900F911F91CF91DF9108950024D0
:1051F0000A941616170618060906089500240A943C
:1052000012161306140605060895092E0394000CC1
:1052100011F4882352F0BB0F40F4BF2B11F460FF50
:1052200004C06F5F7F4F8F4F9F4F089557FD905879
:10523000440F551F59F05F3F71F04795880F97FB5A
:10524000991F61F09F3F79F0879508951216130614
:105250001406551FF2CF4695F1DF08C01616170643
:105260001806991FF1CF8695710561050894089578
:10527000E5DFA0F0BEE7B91788F4BB279F3860F4DC
:105280001616B11D672F782F8827985FF7CF869560
:1052900077956795B11D93959639C8F30895E8946D
:1052A000BB2766277727CB0197F9089525DF08F4F8
:1052B0008FEF08959B01AC0160E070E080E89FE310
:1052C00032CE0EF05ECF6BCF68943ACFB7DFC8F323
:1052D0009923D1F3C6F3DF93CF931F930F93FF92DC
:1052E000C92FDD2788232AF02197660F771F881F93
:1052F000DAF720E030E040E85FEB9FE3883920F008
:10530000803E30F021968F77A6DDE8E6F0E003C01E
:10531000A2DDE5E9F0E046DF8B01BE01EC01FB2EEA
:105320006F5771097595771F880B990B97DE28E1E8
:1053300032E741E35FE316D0AF2D9801AE01FF9055
:105340000F911F91CF91DF9197DD5FCF0BD05DCF94
:105350004EDF28F053DF18F0952309F0F1CE1FCF70
:1053600011249ECF63DFA0F3959FD1F3950F50E0FA
:10537000551F629FF001729FBB27F00DB11D639F07
:10538000AA27F00DB11DAA1F649F6627B00DA11DAD
:10539000661F829F2227B00DA11D621F739FB00D53
:1053A000A11D621F839FA00D611D221F749F3327C3
:1053B000A00D611D231F849F600D211D822F762F5C
:1053C0006A2F11249F5750408AF0E1F088234AF059
:1053D000EE0FFF1FBB1F661F771F881F91505040A5
:1053E000A9F79E3F510570F0ABCE5ACF5F3FECF36B
:1053F000983EDCF3869577956795B795F795E79591
:105400009F5FC1F7FE2B880F911D9695879597F9A1
:105410000895FA01EE0FFF1F30962105310599F12D
:105420006115710561F48038BFE39B0749F1689409
:105430009038810561F08038BFEF9B0741F09923D8
:1054400042F5FF3FE1053105210511F1E89408948B
:10545000E795D901AA2329F4AB2FBE2FF85FD0F32B
:1054600010C0FF5F70F4A695E0F7F73950F019F01F
:10547000FF3A38F49F779F930CD00F9007FC905819
:1054800008953EF08CCE60E070E080E89FE30895E0
:105490004FE79F775F934F933F932F9317DF2F91A2
:1054A0003F914F915F9152DF05C019F40EF048CE45
:1054B000F6CE75CEC3DEC8F39638C0F707F80F9264
:1054C000E8942BE33AEA48EB5FE74EDF0F920F9246
:1054D0000F924DB75EB70F924FD0E2ECF0E062DE74
:1054E0004F915F91EF91FF91E595EE1FFF1F49F0FE
:1054F000FE57E0684427EE0F441FFA95E1F7419507
:10550000550B06D00F9007FED5CE089519CE39CE93
:1055100095DEE8F39923D9F3940F511DBBF3915015
:10552000504094F059F0882332F0660F771F881F9F
:1055300091505040C1F79E3F510544F7880F911D8F
:105540009695879597F908955F3FACF0983E9CF04B
:10555000BB27869577956795B79508F4B1609395C5
:10556000C1F7BB0F58F711F460FFE8CF6F5F7F4FB3
:105570008F4F9F4FE3CF94CEFA01DC01AA0FBB1FE0
:105580009B01AC01BF5728F42227332744275078CA
:105590001FC0B75188F4AB2F002446953795279547
:1055A000011CA395D2F3002069F0220F331F441F82
:1055B000B395DAF30DD04ECC61307105A0E88A07BF
:1055C000B94630F49B01AC0166277727882790788D
:1055D000309621F020833183428353830895DB0189
:1055E0008F939F930E94832BBF91AF91A29F800DB9
:1055F000911DA39F900DB29F900D11240895991BAA
:1056000079E004C0991F961708F0961B881F7A95B9
:10561000C9F780950895AA1BBB1B51E107C0AA1FBB
:10562000BB1FA617B70710F0A61BB70B881F991F43
:105630005A95A9F780959095BC01CD01089597FBE7
:10564000072E16F4009407D077FD09D00E940B2B8B
:1056500007FC05D03EF4909581959F4F0895709575
:1056600061957F4F0895A1E21A2EAA1BBB1BFD0175
:105670000DC0AA1FBB1FEE1FFF1FA217B307E40731
:10568000F50720F0A21BB30BE40BF50B661F771F89
:10569000881F991F1A9469F7609570958095909569
:1056A0009B01AC01BD01CF010895052E97FB1EF4AF
:1056B00000940E946C2B57FD07D00E94332B07FCEF
:1056C00003D04EF40C946C2B509540953095219559
:1056D0003F4F4F4F5F4F089590958095709561951E
:1056E0007F4F8F4F9F4F0895A29FB001B39FC0017E
:1056F000A39F700D811D1124911DB29F700D811DFE
:105700001124911D08950E94742BA59F900DB49FA4
:10571000900DA49F800D911D11240895B7FF0C9446
:10572000832B0E94832B821B930B0895EE0FFF1F88
:105730000590F491E02D0994CF93DF938230910589
:1057400010F482E090E0E0913B06F0913C0620E00E
:1057500030E0A0E0B0E0309739F140815181481746
:105760005907B8F04817590771F48281938110974F
:1057700029F013969C938E9312972CC090933C061D
:1057800080933B0627C02115310531F0421753079E
:1057900018F0A901DB0101C0EF019A01BD01DF0191
:1057A0000280F381E02DD7CF21153105F9F0281BB8
:1057B000390B2430310580F48A819B816115710594
:1057C00021F0FB019383828304C090933C06809375
:1057D0003B06FE01329644C0FE01E20FF31F8193A7
:1057E000919322503109398328833AC02091390698
:1057F00030913A06232B41F42091020130910301AC
:1058000030933A062093390620910001309101012E
:105810002115310541F42DB73EB740910401509157
:105820000501241B350BE0913906F0913A06E21789
:10583000F307A0F42E1B3F0B2817390778F0AC01B3
:105840004E5F5F4F2417350748F04E0F5F1F509390
:105850003A06409339068193919302C0E0E0F0E06C
:10586000CF01DF91CF910895CF93DF93009709F493
:1058700087C0FC01329713821282C0913B06D091FF
:105880003C06209781F420813181280F391F8091B7
:10589000390690913A068217930779F5F0933A0604
:1058A000E09339066DC0DE0120E030E0AE17BF079F
:1058B00050F412964D915C9113979D01411551053D
:1058C00009F1DA01F3CFB383A28340815181840FC0
:1058D000951F8A179B0771F48D919C911197840FE6
:1058E000951F02969183808312968D919C911397B8
:1058F000938382832115310529F4F0933C06E093CC
:105900003B063EC0D9011396FC93EE9312974D913E
:105910005D91A40FB51FEA17FB0779F4808191818F
:10592000840F951F0296D90111969C938E938281C4
:10593000938113969C938E931297E0E0F0E08A8116
:105940009B81009719F0FE01EC01F9CFCE01029680
:1059500028813981820F931F2091390630913A06B0
:105960002817390769F4309729F410923C061092F1
:105970003B0602C013821282D0933A06C0933906C6
:10598000DF91CF9108958F929F92AF92BF92CF9265
:10599000DF92EF92FF92CF93DF93EC0168817981E0
:1059A0008A819B81611571058105910521F464E26D
:1059B00079ED8BE597E02DE133EF41E050E00E9477
:1059C000552B49015A019B01AC01A7EAB1E40E94A1
:1059D000832B6B017C01ACEEB4EFA50194010E9416
:1059E000912BC60ED71EE81EF91EF7FE06C081E0F9
:1059F000C81AD108E10880E8F80AC882D982EA8288
:105A0000FB82C701B6019F77DF91CF91FF90EF90A6
:105A1000DF90CF90BF90AF909F908F9008950E949D
:105A2000C32C089586E091E00E94C32C08956093F2
:105A3000060170930701809308019093090108956E
:105A4000A0E0B0E0E6E2FDE20C942B2EEC01CB01ED
:105A5000209719F40E949C2BB8C0FE01E60FF71F97
:105A60009E0122503109E217F30708F4ACC0D901B6
:105A70000D911C91119706171707B8F00530110505
:105A800008F49FC0A801445051094617570708F46D
:105A900098C002501109061B170B019311936D93C7
:105AA0007C93CF010E94342C8CC05B01A01AB10AF8
:105AB0004E01800E911EA0913B06B0913C06612CD8
:105AC000712C60E070E0109709F449C0A815B90581
:105AD000C9F5ED90FC901197670142E0C40ED11C0E
