:100000000C9415020C943D020C943D020C943D029C
:100010000C943D020C943D020C943D020C947D1D09
:100020000C943D020C943D020C943D020C94110B77
:100030000C943D020C943D020C943D020C943D0244
:100040000C946F270C943D020C94042B0C94362BCB
:100050000C943D020C943D020C943D020C943D0224
:100060000C94B40E0C943D028A097A078E07A807F7
:10007000A807BD077A09A807CF09CF09CF09CF097B
:10008000CF09F1070D084808CF095C083D08CF09E2
:10009000CF098D08CF090C092B094E09E808CF09B3
:1000A000CF09CF099909A109CF09CF09CF09CB08F9
:1000B000CF09CF09CF09CF09CF09CF09CF09CF0980
:1000C000CF09CF09CF09CF09CF09CF09B609084A0F
:1000D000D73B3BCE016E84BCBFFDC12F3D6C74315C
:1000E0009ABD56833DDA3D00C77F11BED9E4BB4CB3
:1000F0003E916BAAAABE000000803F07634236B75C
:100100009BD8A71A39685618AEBAAB558C1D3CB7A8
:10011000CC5763BD6DEDFD753EF6177231BF000023
:1001200000803F08000000BE922449123EABAAAAFC
:100130002ABECDCCCC4C3E00000080BEABAAAAAA01
:100140003E00000000BF000000803F0000000000F3
:10015000084178D3BB4387D1133D190E3CC3BD4240
:1001600082AD2B3E68EC8276BED98FE1A93E4C80F1
:10017000EFFFBE01C4FF7F3F0000000000003F060C
:100180005B4F666D7D077F6F777C395E7971BF86C7
:10019000DBCFE6EDFD87FFEFF7FCB9DEF9F10040BC
:1001A0007C447C00007C5C547454547C70107C74DF
:1001B000545C7C545C40407C7C547C74547C2000B7
:1001C000000000000030007C82827C00310042FE92
:1001D0000200003200468A92620033004492926C20
:1001E0000034001C64FE04003500F292928C00364C
:1001F000007C92924C003700C08E90E00038006C7A
:1002000092926C0039006492927C006100042A2A68
:100210001E006200FE12120C0063000C121212008B
:1002200064000C1212FE0065001C2A2A18006600E9
:10023000103E50500067000815151E006800FE10A3
:100240001E00006900002E0000006A0002012E005E
:10025000006B00FE081412006C0000FE0200006D2E
:10026000001E100E100E6E001E10100E006F000CFF
:1002700012120C0070001F12120C0071000C1212EE
:100280001F0072001E0810100073001229251200B2
:100290007400103E12000075001C02021E00761849
:1002A00004020418007718061C0618007800120CC7
:1002B0000C120079001805051E007A0012161A1299
:1002C0000041007E88887E004200FE92926C0043CE
:1002D000007C828244004400FE82827C004500FE55
:1002E000929282004600FE9090800047007C8292AD
:1002F0005C004800FE1010FE00490082FE820000F3
:100300004A000C0202FC004B00FE1028C6004C0004
:10031000FE020202004D00FE403040FE4E00FE4054
:100320003008FE4F007C8282827C5000FE909060FC
:100330000051007C828A847A5200FE9894620053B5
:10034000006492924C00540080FE8080005500FCB6
:100350000202FC005600F00C020CF05700FE0438BC
:1003600004FE5800C63838C60059C0201E20C00000
:100370005A00869AB2C2002C00010E0C00002E001A
:100380000006060000257254781E2A4E2100007ACD
:100390000000003F00204A3000002D001010101017
:1003A000002B08083E0808002F00020C3040002AED
:1003B0002214081422003A0000140000004000003B
:1003C0000000000000000008000201000003040714
:1003D000000000000000000001020408102040801E
:1003E000010204081020010204081020040404047F
:1003F00004040404020202020202030303030303CF
:100400000000000023002600290000000000250055
:1004100028002B0000000000240027002A001F06EF
:10042000D20D7518662B7306791811241FBECFEFF5
:10043000D8E0DEBFCDBF12E0A0E0B1E0E8E6FDE627
:1004400002C005900D92A23AB107D9F727E0A2EABF
:10045000B2E001C01D92A43BB207E1F714E0C6E28E
:10046000D4E004C02297FE010E940E34CE31D107A1
:10047000C9F70E94AA2B0C94A7360C940000CF92C7
:10048000DF92EF92FF920F931F93E82FF92F05C091
:10049000015011092109310961F1908196239417C6
:1004A000B9F305C0015011092109310911F19081F9
:1004B00096239413F7CFC12CD12CE12CF12C0AC038
:1004C0008FEFC81AD80AE80AF80A0C151D052E0580
:1004D0003F0579F080818623841791F36C2D7D2D63
:1004E0008E2D9F2D1F910F91FF90EF90DF90CF9059
:1004F000089560E070E080E090E01F910F91FF9020
:10050000EF90DF90CF90089589E094E00C9468120A
:1005100061E08DE00E94FB2861E08DE00E943429BB
:100520006CE271E080E090E00E94E82760E08DE0FE
:100530000E94342926E040E052EC61E070E08DE05A
:1005400097E00E94A22A64EF71E080E090E00E94B0
:10055000E82722E330E040E050E064EF71E089E01A
:1005600094E00E94101262E370E080E090E00E944C
:10057000E8270E94840289EE93E00E94011E6DE04C
:1005800080E594E00E947B2520E040E060E080E58B
:1005900094E00E94462680E594E00E94732688EA53
:1005A00093E00C941A1C20915D03FC01222319F0A6
:1005B000EB50FD4F02C0E75DFC4F80810895209114
:1005C0005D03FC01222319F0EB50FD4F02C0E75DF3
:1005D000FC4F608308958DE097E00C94002CCF933E
:1005E000DF93EC010E94D30280936503CE01019654
:1005F0000E94D30280936603809165039091660305
:10060000DF91CF9108950F931F93CF93DF93EC0168
:100610000E94D3020FE613E0F8018083CE01019619
:100620000E94D30280937003CE0102960E94D302EF
:1006300080937103CE0103960E94D30280937203CC
:10064000F8016081718182819381DF91CF911F9147
:100650000F910895EF92FF920F931F93CF93DF9323
:100660008B01C2EBD2E0825B92407C01CE01825BC7
:100670009240801791073CF4C7018C0F9D1F0E9488
:10068000D3028993F3CFF801EE54FD4F108282EB31
:1006900092E0DF91CF911F910F91FF90EF9008951D
:1006A000CF92DF92EF92FF920F931F93CF93DF933E
:1006B0007B0102EA12E0C0E0D0E0825A92406C0175
:1006C000CE15DF056CF4C031D10551F0C601800FA5
:1006D000911F0E94D302F80181938F012196F0CFE0
:1006E00082EA92E0DF91CF911F910F91FF90EF90FE
:1006F000DF90CF900895E1EEF2E020E030E041910C
:1007000051914817590791F0452B41F4F901EE0F2B
:10071000FF1FEF51FD4F9183808308C02F5F3F4F34
:100720002830310561F780E090E00895C90108950F
:10073000BF92CF92DF92EF92FF920F931F93CF93CE
:10074000DF93CDB7DEB72E970FB6F894DEBF0FBE9E
:10075000CDBF8C0186E090E00E94D302D82EE82E17
:10076000F12C0D30110509F498C16CF50830110514
:1007700009F460C0F4F40330110509F477C10530C1
:10078000110509F04CC286E090E00E94EF028C0156
:1007900069E08FE694E00E942725B8018FE694E097
:1007A0000E944C1888E090E00E94EF028C016AE001
:1007B00037C00A30110531F10CF487C00B30110538
:1007C00009F469C02CC20132110509F4FAC16CF4B4
:1007D0000E31110509F4C0C10032110509F4C8C178
:1007E0000431110509F01BC28FC10932110509F44A
:1007F00084C00233110509F400C20232110509F068
:100800000EC2C3C187E090E00E94EF028C018FE628
:1008100094E00E94D32490E08E159F0529F06D2D61
:100820008FE694E00E942725B8018FE694E00E94AD
:100830004C18F5C187E090E00E94D302F82E88E0C2
:1008400090E00E94D302182F89E090E00E94D3022A
:10085000482F8AE090E04E870E94D302082F6D2D2A
:1008600080E594E00E9450254E85FF2049F06FEF0F
:100870006F0D242F412F80E594E00E94F52506C0DE
:10088000202F612F80E594E00E94462680E594E0C9
:100890000E947326C4C187E090E00E94D3029701B2
:1008A000220F331FF901E65EFE4F813011F4E08024
:1008B00001C0E18088E090E00E94D302D82E84EB52
:1008C0008D1508F4ACC1F12C84C182E494E00E943F
:1008D000D32490E08E159F0529F06D2D82E494E0DD
:1008E0000E94771187E090E00E940303AB01BC01F6
:1008F00082E494E00E94991192C18DE094E00E94FC
:10090000D324282F30E02E153F0529F06D2D8DE0E2
:1009100094E00E943C2087E090E00E94D30290E0A7
:1009200081309105C1F588E090E00E94D302D82E75
:1009300089E090E00E94D302B82E8AE090E00E9405
:10094000EF028C018CE090E00E94EF02C82E8EE056
:1009500090E00E94D302682F70E08FE090E00E9448
:100960002A037C018DE094E00E941B2061E0B1101D
:1009700001C060E08DE094E00E9465206D2D8DE067
:1009800094E00E94312097014C2DB8018DE094E055
:100990000E945F2244C182309105B9F588E090E061
:1009A0000E94D302E82E89E090E00E94D302282F13
:1009B0008AE090E02D870E94EF02F82E8CE090E014
:1009C0000E94EF02482F8EE090E04E870E94D302F3
:1009D000682F70E08FE090E00E9450038C018DE062
:1009E00094E00E941B2061E08DE094E00E9465206D
:1009F0006E2D8DE094E00E9431202D854E856F2D67
:100A00008DE094E00E9468200AC1039709F007C1B5
:100A100088E090E00E94D302F82E89E090E00E94E6
:100A2000D302082F8AE090E00E94EF02182F8CE09A
:100A300090E00E94EF02482F8DE094E04E870E94E4
:100A40001B2061E08DE094E00E9465206F2D8DE019
:100A500094E00E94312021E04E85011101C020E088
:100A6000612F8DE094E00E949A22D9C08EE394E039
:100A70000E94D324282F30E02E153F0529F06D2D3C
:100A80008EE394E00E94272587E090E00E94D30245
:100A900061E0811152C060E050C082E090E00E94AD
:100AA000D302E82EF12C83E0E81AF10865E972E040
:100AB000CE0107960E946F2E00E010E00E151F0574
:100AC00064F4C80106960E94D302682FCE010796EF
:100AD0000E94E92E0F5F1F4FF1CFBE01695F7F4F6C
:100AE000CE0101960E949C2EBE016F5F7F4F89EE62
:100AF00093E00E94431FCE0101960E94012ECE0179
:100B000007960E94012E8BC08EE394E00E94D324AE
:100B1000282F30E02E153F0529F06D2D8EE394E04F
:100B20000E94272587E090E00E94D302282F30E022
:100B3000223031053CF4682F61708EE394E00E940E
:100B4000FB246DC061E02230310509F460E08EE3E2
:100B500094E00E940B2563C061E00E94FB2887E0BF
:100B600090E00E94D302682F8D2D0E94342957C037
:100B700061E00E94FB2887E090E00E94D302682F8A
:100B800070E08D2D0E9473284AC086E090E00E949C
:100B9000EF028C0188E090E00E94EF02101611062F
:100BA0005CF49C01442737FD4095542FB80189E03F
:100BB00094E00E94101233C089E094E00E94681211
:100BC0002EC087E090E00E94D302D82E84EB8D15D2
:100BD00030F1C7010E947B038C01000F111F080F29
:100BE000191F0D581B4FB701C8010E94670C6D2DCE
:100BF00070E0C8010E94A00C12C00E94B9270E9498
:100C0000743020E030E04AE754E40E94DB2F609328
:100C1000D0027093D1028093D2029093D3022E9689
:100C20000FB6F894DEBF0FBECDBFDF91CF911F91FD
:100C30000F91FF90EF90DF90CF90BF900895CF93EA
:100C4000DF93C3E7D4E0CE010E94CD0B239684E06E
:100C5000CB38D807C1F78FE694E00E9449188DE59C
:100C600094E00E9493264EE160E080E594E00E94CB
:100C7000C3258CE494E00E941F2782E494E00E9444
:100C8000E10F8EE394E00E94AE248DE094E00E9498
:100C9000E61F89E094E00E940A1289EE93E00E9428
:100CA000141E88EA93E00E94B11881E893E00E9444
:100CB0006D128BE793E00E949A1C87E793E00E94F5
:100CC0007D1883E793E00E94971861E371E08FE558
:100CD00093E00E946F2E65E972E084ED92E0DF916F
:100CE000CF910C946F2E84ED92E00E94012E8FE53F
:100CF00093E00E94012E8AEF93E00E94012E80E58E
:100D000094E00C948726682F8DE097E00C943D2AA0
:100D10008FEF0E94830685E50C9483068FEF0E9477
:100D2000830685E50E9483060C94EB02CF93C82FBF
:100D300081E00E9483068C2FCF910C948306EF9262
:100D4000FF920F931F93CF93DF937C01FC01C4812B
:100D50000C2F158184E00E9483068C2F0E9483064D
:100D6000C0E0D0E0C017D10744F4BE01C7010E9423
:100D70000D2F0E9483062196F5CFDF91CF911F9111
:100D80000F91FF90EF900895FF920F931F93CF93D1
:100D9000DF931F92CDB7DEB78B01F82E82E09983E7
:100DA0000E948306A8016F2D9981792F40936F03CC
:100DB000509370036093710370937203802F0E94AD
:100DC0008306809170030E948306809171030E94C4
:100DD0008306809172030F90DF91CF911F910F9145
:100DE000FF900C948306CF92DF92EF92FF926B01FB
:100DF0007C0183E00E948306C701B6010E94433054
:100E0000862F262F372F30936603209365030E9489
:100E10008306809166030E948306809167030E9487
:100E2000830680916803FF90EF90DF90CF900C9441
:100E30008306FF920F931F93CF93DF931F92CDB73B
:100E4000DEB78B01F82E85E099830E948306A80106
:100E50006F2D9981792F40936703509368036093B6
:100E6000690370936A03802F0E9483068091680350
:100E70000E948306809169030E94830680916A0321
:100E80000E94830680916B030E94830680916C030D
:100E90000E94830680916D030E94830680916E03F9
:100EA0000F90DF91CF911F910F91FF900C948306CB
:100EB000CF92DF92EF92FF920F931F93CF93DF9326
:100EC000CDB7DEB727970FB6F894DEBF0FBECDBF04
:100ED0007C0186E090E00E94D302D82E082F10E01B
:100EE00083E3E816F10408F05AC2F701EC5CFF4F07
:100EF0000C940C348CE494E00E94D32490E080178E
:100F0000910729F06D2D8CE494E00E94272560E57F
:100F100073EC8CE494E00E945A2730C287E090E0A2
:100F20000E94D302F82E8DE594E00E94D324282F4E
:100F300030E02017310709F024C28DE594E00E94CB
:100F4000D6248F111EC28DE594E00E94B12616C2F0
:100F50008EE394E00E94D32490E080179107E1F1A2
:100F60006D2D8EE394E00E9427258EE394E00E948D
:100F70004D2560E00E94FB282FC087E090E00E9492
:100F8000D302E82EF12C8EE394E00E94D32490E06B
:100F90008017910799F06D2D8EE394E00E9427252C
:100FA0008EE394E00E944A2560E00E94FB288EE3D5
:100FB00094E00E944D2560E00E94FB2881E0E81645
:100FC000F10429F48EE394E00E941B25C7C182E05E
:100FD000E816F10409F0E3C18EE394E00E941F25B6
:100FE000BDC18091DA02882309F4D9C164ED72E0B1
:100FF000CE0101960E949C2ECE0101960E949F0672
:10100000CE0101960E94012E1092DA0265E972E08B
:1010100084ED92E00E94A52EC2C187E090E00E947C
:10102000D302182F0E94B9270E94743020E030E0CC
:101030004AE754E40E94DB2F2091C8023091C90294
:101040004091CA025091CB020E94102F2DEC3CEC33
:101050004CE45EE30E949E3118165CF04091DB0286
:10106000552747FD5095212F30E081E04217530767
:1010700009F080E00E94960606C08091DB020E9483
:1010800096061092DB021092DD021092DC0287C1FC
:101090008EE394E00E94D32490E08017910709F436
:1010A0006EC06D2D8EE394E00E9427258EE394E0C0
:1010B0000E944D2560E061C08EE394E00E94D3243D
:1010C00090E08017910799F06D2D8EE394E00E94D7
:1010D00027258EE394E00E944A2560E00E94FB28C9
:1010E0008EE394E00E944D2560E00E94FB2860E0C2
:1010F0008EE394E00E94D924182F60E08EE394E000
:101100000E94EA24612F70E0660F771F680F711D3F
:10111000882777FD8095982F26C187E090E00E9470
:10112000D302C82EE82EF12C8EE394E00E94D32443
:10113000282F30E02017310709F02AC18EE394E010
:101140000E94D624282F30E02E153F0509F020C13B
:10115000EA94EF2869F48EE394E00E944A2562E065
:101160000E94FB2860E08EE394E00E94D9240CC02A
:101170008EE394E00E944D2562E00E94FB2860E02F
:101180008EE394E00E94EA24682F70E080E090E013
:101190000E947430F3C087E090E00E94D302F82EE2
:1011A000F801EE0FFF1FE65FFE4F108160E0812F18
:1011B0000E94FB28812F0E94562811E00B970CF00B
:1011C00010E0812F8F250E9496061093C702E7C07A
:1011D00081E893E00E94D32490E080179107A9F062
:1011E0006D2D81E893E00E94272581E893E00E941D
:1011F0004D25482F81E893E04F830E944A254F8177
:10120000682F81E893E00E942E1781E893E00E9406
:1012100037170E941907C3C087E090E00E94D302ED
:10122000F82E8BE793E00E94D324282F30E020177C
:10123000310729F06D2D8BE793E00E9427258BE77E
:1012400093E00E949D1C6F2D8BE793E00E94761D1A
:101250000E949606A4C087E793E00E94D324282F1B
:1012600030E020173107A9F06D2D87E793E00E9449
:10127000272587E793E00E944A25482F87E793E0D8
:101280004F830E944D254F81682F87E793E00E948E
:10129000801887E793E00E94951822C083E793E0C7
:1012A0000E94D324282F30E020173107A9F06D2D9C
:1012B00083E793E00E94272583E793E00E944A2575
:1012C000482F83E793E04F830E944D254F81682F7D
:1012D00083E793E00E949A1883E793E00E94AF1897
:1012E000BC01882777FD8095982F0E9476300E9458
:1012F000F30655C087E090E00E94D302682F88EA89
:1013000093E06F830E942A196F8188EA93E00E941C
:10131000BE1834C06FE573E0CE0101960E949C2E8A
:10132000CE0101960E949F06CE0101960E94012ED9
:1013300036C060E08D2D0E94FB288D2D0E946A2909
:101340000DC0F801EE0FFF1FE65FFE4F108160E059
:10135000812F0E94FB28812F0E945628BC018827DC
:1013600077FD8095982F0E94763008C06091CC025E
:101370007091CD028091CE029091CF020E94C4065E
:101380000EC04F2D6D2D8DE594E00E949E26DBCD85
:101390004C2D6D2D8EE394E00E943725D9CE2796F3
:1013A0000FB6F894DEBF0FBECDBFDF91CF911F9176
:1013B0000F91FF90EF90DF90CF9008950F931F93C0
:1013C000CF93DF931092F20283E090E00E94D30269
:1013D000082F84E090E00E94D302182F85E090E06F
:1013E0000E94D302C82FD0E01230B1F080F4113047
:1013F000A9F50E948806802F0E948306CE010E94D4
:101400005807DF91CF911F910F910C94EB0214308C
:1014100039F01530E9F022C0CE010E94980318C0BF
:1014200069E08FE694E00E94272560E070E08FE697
:1014300094E00E944C186AE08FE694E00E94272511
:1014400060E070E08FE694E00E944C180E948402F5
:10145000DF91CF911F910F910C948E06DF91CF9168
:101460001F910F91089510925E038DE097E00E9406
:10147000BF29181619065CF481E080935E03109270
:101480005D038DE097E00E94D8298093F1020895D2
:101490000E94B9270E94743020E030E04AE754E40B
:1014A0000E94DB2F2091D0023091D1024091D202D4
:1014B0005091D3020E94102F6093CC027093CD0202
:1014C0008093CE029093CF0289EE93E00E94A41EF7
:1014D000892B09F443C08091EC038093DB020E94C6
:1014E000B9270E94743020E030E04AE754E40E94BB
:1014F000DB2F6093C8027093C9028093CA02909355
:10150000CB0281E08093C6026091DB026A3011F069
:101510006D3041F41092DD021092DC0281E0809384
:10152000DA022EC084ED92E00E94E92E8091DC0266
:101530009091DD020196813491052CF49093DD02A7
:101540008093DC021DC01092DD021092DC0265E97E
:1015500072E084ED92E00E94A52E12C08091DE021E
:101560009091DF0201969093DF028093DE0220913A
:10157000DB0212164CF48938934134F01092DB02EE
:101580001092DF021092DE020E94330A80915E0305
:10159000882309F445C06091F1028091F20265351B
:1015A00061F481110AC08091E0028F3FD9F481E09B
:1015B0008093F4028093F20215C06093E0028823C6
:1015C00089F08091F402823019F46093F30207C02D
:1015D000833028F09091F30291509093F30290E0C1
:1015E0000E94DF028091F4028F5F843318F48093AD
:1015F000F40204C01092F4021092F2028091F202FE
:10160000882371F08091F30281110AC08091F40265
:10161000843030F01092F2020E94DE091092F4023F
:1016200008951F920F920FB60F9211242F933F939C
:101630004F935F936F937F938F939F93AF93BF93DA
:10164000EF93FF9380918C0487FF05C01092850073
:10165000109284001AC020918C04332727FD309506
:1016600080918B0490E0281739077CF480918C04DA
:10167000992787FD9095FC01EE0FFF1FE80FF91FDA
:10168000E357FB4F808186FD15C080918C048F5FEE
:1016900080938C0420918C04332727FD3095809112
:1016A0008B0490E028173907BCF480918C048C30AF
:1016B0005CF112C080918C04992787FD9095FC0104
:1016C000EE0FFF1FE80FF91FE357FB4F808160E02B
:1016D0008F730E943429D9CF809184009091850026
:1016E000049680349C4918F480E49CE905C08091FC
:1016F00084009091850004969093890080938800DF
:101700008FEF80938C0438C0209184003091850045
:1017100080918C04992787FD9095FC01EE0FFF1FA7
:10172000E80FF91FE357FB4F81819281820F931FCE
:10173000909389008093880080918C04992787FD7D
:101740009095FC01EE0FFF1FE80FF91FE357FB4FC9
:10175000808186FF11C080918C04992787FD909528
:10176000FC01EE0FFF1FE80FF91FE357FB4F8081CD
:1017700061E08F730E943429FF91EF91BF91AF9187
:101780009F918F917F916F915F914F913F912F9199
:101790000F900FBE0F901F90189520918B042C3046
:1017A000A0F431E0320F30938B04FC012083822FB0
:1017B00090E0FC01EE0FFF1FE80FF91FE357FB4F0E
:1017C00088EB9BE09283818308952FEFFC012083B7
:1017D0000895DF92EF92FF920F931F93CF93DF93C1
:1017E000EC01D62E7A01890188818C3008F066C020
:1017F00061E08D2D0E94FB288881A82FB0E0FD01BB
:10180000EE0FFF1FEA0FFB1FE357FB4F2D2D2F732A
:101810009081907C922B908360E272E06E197F0938
:1018200077FF02C06D5F7F4F7595679575956795DA
:10183000698340E659E0401B510B57FF02C04D5FE2
:101840005F4F55954795559547954A836CE00E94A3
:1018500097339CE0899FB001112420E030E0A9017A
:10186000460F571FFA01EE0FFF1FE40FF51FE35756
:10187000FB4F908196FD16C02F5F3F4F2C303105F6
:1018800071F781110FC01092800082E08093810077
:101890001092850010928400B19A80916F0082604E
:1018A00080936F00888190E0FC01EE0FFF1FE80F2E
:1018B000F91FE357FB4F8081806480838881DF912B
:1018C000CF911F910F91FF90EF90DF90089520E648
:1018D00039E040E252E00C94E90BFC0180818C304D
:1018E00070F5918128E830E0291B310997FD339587
:1018F000220F331F220F331F621773077CF0928170
:1019000028E532E0291B310997FD3395220F331F5B
:10191000220F331F621773070CF49B012250310909
:10192000220F331F4FB7F89490E0FC01EE0FFF1F1A
:10193000E80FF91FE357FB4F328321834FBF089510
:101940004F925F926F927F92AF92BF92CF92DF924F
:10195000EF92FF920F931F93CF93DF93EC016032CE
:1019600082E078070CF040C077FD06C0653B71054A
:101970002CF064EB70E002C060E070E0898128E840
:1019800030E0281B310987FD3395220F331F220FCA
:10199000331F5901CC24B7FCC094DC2C882777FD79
:1019A0008095982F2A8148E552E0421B510927FD76
:1019B0005395440F551F440F551F2A01662457FCA9
:1019C0006094762C7F926F925F924F9214EBE12E8F
:1019D000F12C00E010E020E030E0A9010E94BA2DD7
:1019E0000F900F900F900F90CE01DF91CF911F912C
:1019F0000F91FF90EF90DF90CF90BF90AF907F90CE
:101A00006F905F904F900C946D0C8091E10490E08A
:101A10002091E204821B910908952091E2048091B3
:101A2000E104281750F4E22FF0E0ED51FB4F8081E4
:101A300090E02F5F2093E20408958FEF9FEF0895C9
:101A4000E091E2048091E104E81730F4F0E0ED5118
:101A5000FB4F808190E008958FEF9FEF08950895E8
:101A6000CF92DF92EF92FF920F931F93CF93DF936A
:101A70007C01CB018A012091BD04222389F0EB0176
:101A80006B01C40ED51ECC15DD0569F06991D70137
:101A9000ED91FC910190F081E02DC7010995F3CF04
:101AA000642F0E948B0EC801DF91CF911F910F917F
:101AB000FF90EF90DF90CF900895CF93DF931F9228
:101AC000CDB7DEB769832091BD042223D1F02091E8
:101AD000BE04203240F021E030E0FC013383228359
:101AE00080E090E015C08091BF04E82FF0E0E05462
:101AF000FB4F998190838F5F8093BF048093BE04D6
:101B000005C061E0CE0101960E948B0E81E090E05D
:101B10000F90DF91CF910895FC011382128248EE5D
:101B200053E060E070E044835583668377838DE300
:101B300091E09183808308951092E2041092E10471
:101B40001092BF041092BE040C94D60D862F413221
:101B500008F040E263EE74E00E94F40D1092E2049B
:101B60008093E104089581E08093BD046093E004D4
:101B70001092BF041092BE0408950C94B30D0F93FD
:101B8000062F21E04091BE0460EC74E08091E004F7
:101B90000E94380E1092BF041092BE041092BD0431
:101BA0000F91089581EB94E00C948C0D10927005C8
:101BB00081E080936E0510926D0561E082E10E94E4
:101BC000342961E083E10E943429E9EBF0E080816F
:101BD0008E7F808380818D7F808388E48093B800AE
:101BE00085E48093BC000895413208F03FC0909195
:101BF00070059111FCCF91E09093700520936E05D4
:101C00002FEF2093030510924805240F20934705DA
:101C100090936F0590916F05880F892B80936F05C6
:101C200080916D05813041F410926D0580916F05B2
:101C30008093BB0085EC01C085EE8093BC00809151
:101C400070058130E1F380914805841710F44091CC
:101C5000480529E435E0FB01D9018A2F821B84174E
:101C600018F48D918193F9CF842F089580E0089521
:101C70000F93413208F046C0909170059111FCCF4E
:101C800092E09093700500936E059FEF909303058B
:101C90001092480540934705FB0169E475E0DB01BC
:101CA0009A2F961B941718F491919D93F9CF109247
:101CB0006F0590916F05880F892B80936F05809138
:101CC0006D05813041F410926D0580916F05809310
:101CD000BB0085EC01C085EE8093BC00222321F07F
:101CE000809170058230E1F3809103058F3F61F0B0
:101CF00080910305803251F080910305803341F4D7
:101D000083E007C081E005C080E003C082E001C03D
:101D100084E00F910895613298F420917005243089
:101D200089F460932505FC0187E295E0DC012A2F08
:101D3000281B261718F421912D93F9CF80E00895E0
:101D400081E0089582E0089585ED8093BC00809144
:101D5000BC0084FDFCCF10927005089585EC809343
:101D6000BC001092700508951F920F920FB60F924B
:101D700011242F933F934F935F936F937F938F9390
:101D80009F93AF93BF93EF93FF938091B900887FA8
:101D9000803609F49CC068F5883209F45BC090F481
:101DA000803109F454C038F4882309F4F5C0883030
:101DB00009F44DC0F5C0883109F44CC0803209F4F3
:101DC0005DC0EEC0803409F468C048F4803309F483
:101DD00055C0883309F0E4C080930305A8C080355E
:101DE00009F44FC0883509F45DC0883409F0D8C0C3
:101DF000D5C0883909F4C6C0A8F4883709F467C08B
:101E000038F4883609F463C0803709F460C0C8C06C
:101E1000883809F4B7C0803909F45FC0803809F008
:101E2000BFC05BC0803B09F485C038F4803A09F438
:101E300066C0883A09F47EC0B3C0803C09F4A6C0ED
:101E4000883C09F4A3C0883B09F489C0A9C08091EB
:101E50006F0510C09091480580914705981770F55F
:101E6000E091480581E08E0F80934805F0E0E75B44
:101E7000FA4F80818093BB0085EC85C08093030579
:101E80008DC0E091480581E08E0F809348058091D8
:101E9000BB00F0E0E75BFA4F8083909148058091AA
:101EA00047056DC0E091480581E08E0F809348059D
:101EB0008091BB00F0E0E75BFA4F808380916E0574
:101EC00081116CC081E080936D0584EA60C083E07D
:101ED0008093700510920405CFCF80910405803265
:101EE00008F050C0E091040581E08E0F8093040556
:101EF0008091BB00F0E0EB5FFA4F8083BDCF809113
:101F00000405803230F4E0910405F0E0EB5FFA4F15
:101F100010820E94A40E6091040570E0E0916905B2
:101F2000F0916A0585E095E00995109204050E94FC
:101F3000AE0E36C084E08093700510922605109294
:101F40002505E0916B05F0916C05099580912505BB
:101F5000811105C081E08093250510922705E0914D
:101F6000260581E08E0F80932605F0E0E95DFA4FAB
:101F700080818093BB00909126058091250598175C
:101F800008F47ACF85E88093BC000AC085EC809382
:101F9000BC001092700504C0109203050E94A40EAC
:101FA000FF91EF91BF91AF919F918F917F916F9131
:101FB0005F914F913F912F910F900FBE0F901F9007
:101FC00018950C94AE240F931F93CF93DF93EC01DD
:101FD000062F18E060E088850E94342900FF02C0C7
:101FE00061E001C060E089850E943429069561E0C6
:101FF00088850E943429115069F760E088850E9425
:10200000342961E089850E94342961E088850E9435
:10201000342960E089850E94FB2818EC89850E949C
:102020006A29892B59F01150C9F761E089850E940E
:10203000FB2860E089850E943429EFCF61E0898523
:10204000DF91CF911F910F910C94FB28CF93DF93D9
:10205000EC0161E088850E94342961E089850E9455
:10206000342960E089850E94342960E08885DF9109
:10207000CF910C943429CF93DF93EC0160E08885F5
:102080000E94342960E089850E94342961E08885B6
:102090000E94342961E08985DF91CF910C94342925
:1020A000CF92DF92FF920F931F93CF93DF931F92F4
:1020B000CDB7DEB76C01F62E79830E94261060E45E
:1020C000C6010E94E30FC6010E943B10C6010E9498
:1020D0002610F6016581C6010E94E30F0F2D79815C
:1020E000172F84E0F82EF80161918F01C6010E943C
:1020F000E30FFA94C1F7C6010E943B10C6010E948B
:102100002610F6016681C6010E94E30FC6010F90FA
:10211000DF91CF911F910F91FF90DF90CF900C94A2
:102120003B104F925F926F927F928F929F92AF92ED
:10213000BF92CF92DF92EF92FF920F931F93CF93B4
:10214000DF9300D000D0CDB7DEB76A017B018901F3
:1021500037FD48C0B9016F5F7F4F882777FD8095B5
:10216000982F0E9476309B01AC0160E070E080E225
:1021700091E40E940C324B015C019B01AC01C70150
:10218000B6010E94DB2F0E94B1302B013C01B80147
:10219000882777FD8095982F0E9476309B01AC01AF
:1021A00060E070E080E291E40E940C3269837A83FF
:1021B0008B839C83A5019401C301B2010E94A931C4
:1021C0009B01AC01C701B6010E94102F29813A8101
:1021D0004B815C810E94DB2F0E94B1300E94433012
:1021E000CB011FC088249924821A930AA12CB12CF8
:1021F00020E030E040E251E4C701B6010E94A9317D
:102200006B017C018FEFA81AB80AA814B90484F3F3
:10221000C701B6010E944330CB016AE070E00E9422
:10222000B7330F900F900F900F90DF91CF911F91C8
:102230000F91FF90EF90DF90CF90BF90AF909F9065
:102240008F907F906F905F904F900895DB0180E0BA
:1022500090E22C91223208F09C93EC91F0E0E2584D
:10226000FE4FE491ED938F5F843099F70895EF92DC
:10227000FF920F931F93CF93DF9300D000D0CDB781
:10228000DEB78C01DB01FE013196CE0105967F01A0
:102290002D912193E817F907D9F7B701C8010E94DA
:1022A0002611B701C8010E9450100F900F900F9097
:1022B0000F90DF91CF911F910F91FF90EF900895B4
:1022C000CF93DF9300D000D0CDB7DEB720E22983D3
:1022D0002A832B832C83BE016F5F7F4F0E943711AF
:1022E0000F900F900F900F90DF91CF910895CF93A3
:1022F000DF93EC016A83E62FF0E0EE0FFF1FE65E4E
:10230000FE4F81818983908198838887998761E0D6
:102310000E94FB2861E089850E94FB2880E48C8371
:1023200080EC8D838AE88E83CE01DF91CF910C946F
:1023300060118F929F92AF92BF92CF92DF92EF92F5
:10234000FF920F931F93CF93DF9300D000D0CDB7B0
:10235000DEB75C016A017B0119821A821B821C8232
:1023600020E030E0A901C701B6010E94D72F87FF06
:1023700009C0F7FAF094F7F8F09480E28983992481
:10238000939401C0912C03E010E0812C9801B701D7
:10239000A601C5010E949110181619062CF0002301
:1023A00019F08820B9F00CC001110AC0E1E0F0E09A
:1023B000EC0FFD1FE90DF11D20E1280F208307C060
:1023C000E1E0F0E0EC0FFD1FE90DF11D8083939437
:1023D0008824839483E0891530F0015011090C3F63
:1023E0008FEF180799F6BE016F5F7F4FC5010E94FE
:1023F00037110F900F900F900F90DF91CF911F9199
:102400000F91FF90EF90DF90CF90BF90AF909F9093
:102410008F9008950E94AE2488E0809371050895FE
:102420004F925F926F927F928F929F92AF92BF92E4
:10243000CF92DF92EF92FF92CF93DF9369017A01FF
:102440009B0140E050E060E472E48FE090E00E9485
:10245000ED33F901E90137FD2196D595C795A8EE31
:10246000B3E0A70196010E9421344B015C01C12C0D
:10247000D12C76012F01662457FC6094762CC81469
:10248000D904EA04FB04A8F461E0809171050E947C
:102490003429CE010E94102860E0809171050E94CD
:1024A0003429CE010E941028C40CD51CE61CF71C50
:1024B000E6CFDF91CF91FF90EF90DF90CF90BF906C
:1024C000AF909F908F907F906F905F904F90089506
:1024D00060E0809171050C943429CF93DF93EC0177
:1024E00060E00E94B7248EE18B871C82DF91CF9140
:1024F0000895AF92BF92CF92DF92EF92FF920F9327
:102500001F93CF93DF93CDB7DEB76A970FB6F894DA
:10251000DEBF0FBECDBF8C01CE0101967C01C12C68
:10252000D12C5C01C6010E945A36F70181937F01CC
:10253000FFEFCF1ADF0A8AE1C816D10499F72D817F
:102540003E814F81588569817A818B819C810E946F
:10255000112F29853A854B855C850E94112F2D8589
:102560003E854F8558890E94112F29893A894B89C8
:102570005C890E94112F2D893E894F89588D0E94B8
:10258000112F6B017C01698D70E080E090E00E946A
:1025900076309B01AC01C701B6010E94112F20E0EB
:1025A00030E04AE253E40E94112F0E9448308A8DA5
:1025B000681312C069E471E08DE097E00E94042C7A
:1025C0008AE1F501D8011D9601900D928A95E1F7F7
:1025D00081E0F801848308C062E671E08DE097E055
:1025E0000E94042CF80114826A960FB6F894DEBF9C
:1025F0000FBECDBFDF91CF911F910F91FF90EF9054
:10260000DF90CF90BF90AF900895CF92DF92EF927E
:10261000FF920F931F93CF93DF938C01EB012C81DB
:102620003D814E815F81688179818A819B810E9491
:10263000112F288539854A855B850E94112F2C85AD
:102640003D854E855F850E94112F288939894A89E9
:102650005B890E94112F2C893D894E895F890E94D8
:10266000112F6B017C01688D70E080E090E00E948A
:1026700076309B01AC01C701B6010E94112F20E00A
:1026800030E04AE253E40E94112F0E944830698FE3
:10269000E12CF12C6991C7010E9462368FEFE81A94
:1026A000F80AEAE1EE16F104A9F781E0F801848363
:1026B0006CE771E08DE097E0DF91CF911F910F9172
:1026C000FF90EF90DF90CF900C94042CEF92FF924C
:1026D0001F93CF93DF931F92CDB7DEB7162F7A01EA
:1026E000FC01638581EB94E029830E94B30D612F87
:1026F00081EB94E00E945D0D2981813091F4422F9D
:1027000050E0B70181EB94E00E94300D61E081EB75
:1027100094E00F90DF91CF911F91FF90EF900C9478
:10272000BF0D8FEF0F90DF91CF911F91FF90EF9032
:102730000895CF93DF931F92CDB7DEB7498321E091
:10274000AE014F5F5F4F0E9466130F90DF91CF91F4
:102750000895EF92FF920F931F93CF93DF93EC01B5
:10276000F62E8A01E22E6B8581EB94E00E94B30D78
:102770006F2D81EB94E00E945D0D813001F560E0EA
:1027800081EB94E00E94BF0D81112EC081E090E0AA
:102790000E94102821E04E2D6B8581EB94E00E9471
:1027A000A60DE80100E010E0F12C81EB94E00E941E
:1027B000050D892B31F00E151F0574F002C08FEF47
:1027C00013C081E090E00E94102881E00E151F05E3
:1027D00009F480E0819508C00F5F1F4F81EB94E002
:1027E0000E940D0D8993E1CFDF91CF911F910F9141
:1027F000FF90EF900895CF93DF93EC01AC014B5F16
:102800005F4F23E06AE00E94A91381110AC08D8105
:10281000883439F48E81843321F481E09F819333AD
:1028200009F080E0DF91CF910895CF92DF92EF928F
:10283000FF920F931F93CF93DF93EC016B018A01FB
:1028400079010E946014AE014B5F5F4F26E063E0A8
:10285000CE010E94A913882321F0992787FD909526
:1028600026C08C85813031F441E062E070E0CE0119
:102870000E9499138D8190E0982F88272E81822BBA
:10288000F60191838083898590E0982F88272A8597
:10289000822BF801918380838F8190E0982F882785
:1028A0002885822BF7019183808380E090E0DF917F
:1028B000CF911F910F91FF90EF90DF90CF900895EF
:1028C0002F923F924F925F926F927F928F929F9240
:1028D000AF92BF92CF92DF92EF92FF920F931F932E
:1028E000CF93DF93CDB7DEB76C970FB6F894DEBF0A
:1028F0000FBECDBF8C0162E00E94D92481116EC24F
:102900006AE070E080E090E00E94E82762E0C801A1
:102910000E94D924811162C2C8010E94FB13811157
:1029200007C06BE971E08DE097E00E94042C56C26D
:1029300065EB71E08DE097E00E94042C0E94B927BE
:102940006B017C01712CBB24B39462E0C8010E942E
:10295000D92481111BC00E94B9276C197D098E09E9
:102960009F09693C71058105910578F30E94B9279B
:102970006B017C017B24672DC8010E940B256DEC47
:1029800071E08DE097E00E94042CDFCF67EE71E0EC
:102990008DE097E00E94042C64E670E080E090E017
:1029A0000E94E8270E94B9274B015C012FEF3FE707
:1029B000388B2F8740E050E85E874D878FEF9FE789
:1029C0009C878B87E0E0F0E8FA87E98738872F83D8
:1029D000212C50E8352E662463940E94B9276C1987
:1029E0007D098E099F09693C71058105910548F0B3
:1029F0000E94B9276B017C017624672DC8010E94D3
:102A00000B250E94B927681979098A099B096B303F
:102A1000710581059105E0F19E012F5F3F4FAE01E9
:102A20004D5F5F4FBE016B5F7F4FC8010E94151461
:102A30008D819E814F815885841795072CF028162B
:102A4000390624F41C0102C098878F838B819C81F6
:102A5000EB85FC858E179F0744F029853A8528175A
:102A600039072CF49A87898702C09C878B878981D4
:102A70009A814F8558898417950744F0ED85FE8526
:102A8000E817F9072CF49E878D8702C0988B8F87F3
:102A900062E0C8010E94D92481119FCF60E0C80183
:102AA0000E940B25B101882777FD8095982F0E9401
:102AB00076306B017C012F813885B901882777FD3D
:102AC0008095982F0E947630698B7A8B8B8B9C8BAC
:102AD0009B01AC01C701B6010E94112F905820E064
:102AE00030E040E05FE30E94A931F8016587768716
:102AF0008787908B29853A85B901882777FD80954E
:102B0000982F0E9476302B013C014B855C85BA01E1
:102B1000882777FD8095982F0E9476306D8B7E8B6D
:102B20008F8B988F9B01AC01C301B2010E94112FC2
:102B3000905820E030E040E05FE30E94A931F801C6
:102B4000618B728B838B948B2D853E85B901882791
:102B500077FD8095982F0E9476304B015C014F8560
:102B60005889BA01882777FD8095982F0E94763082
:102B7000698F7A8F8B8F9C8F9B01AC01C501B4014B
:102B80000E94112F905820E030E040E05FE30E9467
:102B9000A931F801658B768B878B908F80E090E070
:102BA000A0E8BFE3818F928FA38FB48F29893A89E0
:102BB0004B895C89C701B6010E94102F6B017C0113
:102BC0002D893E894F89588DC301B2010E94102F73
:102BD000A70196010E94DB2FF801658F768F878F02
:102BE00090A3298D3A8D4B8D5C8DC501B4010E9457
:102BF000102FA70196010E94DB2FF80161A372A399
:102C000083A394A32F813885221A330A37FE03C089
:102C100031942194310889859A854B855C85841B84
:102C2000950B97FF03C09195819591092D853E8560
:102C3000EF85F8892E1B3F0B37FF03C03195219597
:102C40003109821593052CF02215330514F081E02B
:102C500009C0281639062CF02817390714F082E02D
:102C600001C083E0F80185A36DEF71E08DE097E08E
:102C70000E94042C6AE172E08DE097E00E94F72B3D
:102C8000F801458556856785708921E030E08DE043
:102C900097E00E94B82D6BE472E08DE097E00E940F
:102CA000042C68E272E08DE097E00E94F72BF801B7
:102CB000418952896389748921E030E08DE097E091
:102CC0000E94B82D6BE472E08DE097E00E94042C26
:102CD00066E372E08DE097E00E94F72BF8014589EA
:102CE00056896789708D21E030E08DE097E00E9481
:102CF000B82D6BE472E08DE097E00E94042C64E450
:102D000072E08DE097E00E94F72BF801418D528D23
:102D1000638D748D21E030E08DE097E00E94B82D46
:102D20006BE472E08DE097E00E94042C6DE472E0A9
:102D30008DE097E00E94F72BF801458D568D678D49
:102D400070A121E030E08DE097E00E94B82D6BE4A7
:102D500072E08DE097E00E94042C66E572E08DE061
:102D600097E00E94F72BF80141A152A163A174A141
:102D700021E030E08DE097E00E94B82D6BE472E036
:102D80008DE097E00E94042C6FE572E08DE097E003
:102D90000E94F72B4AE050E0F80165A18DE097E032
:102DA0000E94C62C6BE472E08DE097E00E94042C38
:102DB000B801635F7F4FC8010E94051361E0C8013D
:102DC0000E940B2562E0C8010E94D9248823D1F318
:102DD00064E670E080E090E00E94E8276C960FB611
:102DE000F894DEBF0FBECDBFDF91CF911F910F9141
:102DF000FF90EF90DF90CF90BF90AF909F908F901B
:102E00007F906F905F904F903F902F900895CF9359
:102E1000DF93EC0181EB94E00E949C0D61E0CE0118
:102E20000E940B2540E760E070E0CE010E949913FC
:102E300040E261E070E0CE010E94991381E08C874E
:102E400041E062E070E0CE010E949913CE010E9441
:102E50007912CE01DF91CF910C94601460937305C9
:102E600040937205FC01608341830C9407172F92F5
:102E70003F924F925F926F927F928F929F92AF920A
:102E8000BF92CF92DF92EF92FF920F931F93CF9357
:102E9000DF93CDB7DEB762970FB6F894DEBF0FBEF3
:102EA000CDBF8C010E9460149E012F5F3F4FAE0189
:102EB0004D5F5F4FBE016B5F7F4FC8010E941514CD
:102EC000882349F0682F772767FD7095872F972F04
:102ED0000E947630C5C0F80184812D803E802B8110
:102EE0003C8138872F83882309F478C04584568431
:102EF00067847088818C928CA38CB48CB9018827EC
:102F000077FD8095982F0E947630F80121893289CB
:102F1000438954890E94112FF801258D368D478DE4
:102F200050A10E94A9310E9443306F83788789871E
:102F30009A8769817A81882777FD8095982F0E94EA
:102F40007630F801258936894789508D0E94112FE6
:102F5000F80121A132A143A154A10E94A9310E94EC
:102F600043306B877C878D879E87F80115A11130D0
:102F700041F42B853C85B901882777FD8095982FF2
:102F800032C0B101882777FD8095982F0E94763056
:102F9000A30192010E94112FA50194010E94A93161
:102FA0000E9443304B015C01123089F42B853C8533
:102FB000B901882777FD8095982F0E9476309B0174
:102FC000AC01B401882777FD8095982F17C0133086
:102FD00019F5882777FD8095982F05C0B1018827BE
:102FE00077FD8095982F0E9476309B01AC01EF8190
:102FF000F885BF01882777FD8095982F2F87388B1C
:10300000498B5A8B0E9476302F85388949895A8995
:103010000E94842F6B017C0120E030E0A901C701F0
:10302000B6010E94D72F87FF0DC02BED3FE049EC82
:1030300050E4C701B6010E94112F20E030E044E3C4
:1030400053E406C020E030E044E353E4C701B60196
:103050000E94A9312BED3FE049E450E40E94DB2FB0
:1030600062960FB6F894DEBF0FBECDBFDF91CF9151
:103070001F910F91FF90EF90DF90CF90BF90AF9096
:103080009F908F907F906F905F904F903F902F9088
:10309000089560E00C94B7240F931F93CF93DF93B0
:1030A0008C016F3F710519F014F06FEF70E0EB01C8
:1030B00061308FEF780714F4C1E0DFEFD7FD06C071
:1030C00061E0C8010E940B25BE0108C060E0C80194
:1030D0000E940B25662777276C1B7D0BC801DF91AB
:1030E000CF911F910F910C94232584E795E00C94C8
:1030F000701C84E795E00C94991C60E00C94B72454
:10310000CF93DF93EC016093900640938F068091FC
:10311000900660E00E94FB2880918F068883809152
:1031200090068983DF91CF9108950C941B2560E070
:103130000C94B724CF93DF93EC01609392064093F5
:1031400091068091920660E00E94FB288091910692
:103150008883809192068983DF91CF9108950C94A2
:103160001B25CF93DF93EC0160E00E94B724C05C85
:10317000DF4F88E68883DF91CF910895FC016130AD
:1031800029F430852185928583850DC0623029F42C
:10319000348525859685878506C0633029F4308976
:1031A000218992898389AC01632F722F852F942FF7
:1031B0000895EF92FF920F931F93CF93DF93C62F43
:1031C0008A01E22E68E681EB94E00E94B30D6C2F39
:1031D00081EB94E00E945D0D813001F560E081EBB0
:1031E00094E00E94BF0D81112EC081E090E00E940A
:1031F000102821E04E2D68E681EB94E00E94A60D98
:10320000E80100E010E0F12C81EB94E00E94050D54
:10321000892B31F00E151F0574F002C08FEF13C01B
:1032200081E090E00E94102881E00E151F0509F44E
:1032300080E0819508C00F5F1F4F81EB94E00E94F2
:103240000D0D8993E1CFDF91CF911F910F91FF90E9
:10325000EF9008954F925F926F927F928F929F921C
:10326000AF92BF92CF92DF92EF92FF920F931F9394
:10327000CF93DF93CDB7DEB72C970FB6F894DEBFB0
:103280000FBECDBF8C01AC014E5C5F4F2EE06BE3F7
:103290000E94D9188111C5C1F801A2A8B12CBA2C7D
:1032A000AA2483A9A82AB1A2A0A2E4A8F12CFE2CEA
:1032B000EE2485A9E82AF3A2E2A286A8912C982CF4
:1032C000882487A9882A95A284A244805580668094
:1032D000778062AD70E0762F662783AD682B8827F4
:1032E00077FD8095982F0E947630F80126A137A1AE
:1032F00040A551A50E94102FA30192010E94DB2F2F
:10330000F801648B758B868B978B64AD70E0762F9C
:10331000662785AD682B882777FD8095982F0E94BA
:103320007630F80122A533A544A555A50E94102F9B
:10333000A30192010E94DB2FF801608F718F828FB1
:10334000938F66AD70E0762F662787AD682B882750
:1033500077FD8095982F0E947630F80126A537A535
:1033600040A951A90E94102FA30192010E94DB2FB6
:10337000F801648F758F868F978FB701882777FD47
:103380008095982F0E9476306B017C01B4018827CC
:1033900077FD8095982F0E9476309B01AC010E94AA
:1033A000A9312B013C01A7019601C701B6010E947A
:1033B000A931A30192010E94112F0E945C329B014E
:1033C000AC01B501882777FD8095982F29873A872A
:1033D0004B875C870E9476304B015C0129853A85DA
:1033E0004B855C850E94842F20E030E044E353E469
:1033F0000E94A9312AED3FE049E450E40E94DB2F0E
:1034000069837A838B839C83A5019401C501B401F0
:103410000E94A931A30192010E94112F0E945C32E7
:103420009B01AC01C701B6010E94842F20E030E06F
:1034300044E353E40E94A9312AED3FE049E450E41B
:103440000E94DB2F6D837E838F8398870E94B9272C
:10345000C0909306D0909406E0909506F090960662
:103460006C197D098E099F090E94743020E030E0BC
:103470004AE754E40E94DB2F6B017C010E94B927CC
:1034800060939306709394068093950690939606A6
:10349000F80184A195A11816190644F5208D318DE7
:1034A000428D538DC701B6010E94A9319B01AC0129
:1034B000F80160857185828593850E94102FF8013F
:1034C00060877187828793872489358946895789E0
:1034D000C701B6010E94A9319B01AC01F8016485C6
:1034E0007585868597850E94112F28C0F801208D4B
:1034F000318D428D538DC701B6010E94A9319B01C8
:10350000AC01F80160857185828593850E94112F39
:10351000F801608771878287938724893589468976
:103520005789C701B6010E94A9319B01AC01F8017E
:1035300064857585868597850E94102FF8016487BC
:10354000758786879787F801248D358D468D578D31
:10355000C701B6010E94A9319B01AC01F801608945
:103560007189828993890E94112FF801608B718B78
:10357000828B938B20E030E040E05FE3C701B6012F
:103580000E94112F9B01AC0160E070E080E09FE39E
:103590000E94DB2F6B017C019B01AC0160E070E0BD
:1035A00080E89FE30E94102F4B015C01F801208509
:1035B000318542855385C701B6010E94A9312B018F
:1035C0003C01A501940169817A818B819C810E94D3
:1035D000A9319B01AC01C301B2010E94112FF80176
:1035E00060877187828793872485358546855785CF
:1035F000C701B6010E94A9316B017C01A5019401AC
:103600006D817E818F8198850E94A9319B01AC01DB
:10361000C701B6010E94112FF8016487758786875C
:1036200097872C960FB6F894DEBF0FBECDBFDF9103
:10363000CF911F910F91FF90EF90DF90CF90BF90AF
:10364000AF909F908F907F906F905F904F90089574
:103650002F923F924F925F926F927F928F929F92A2
:10366000AF92BF92CF92DF92EF92FF920F931F9390
:10367000CF93DF9300D000D0CDB7DEB71C0104EFAD
:1036800011E0812C912C5401412C512C32011982D2
:103690001A821B821C827C0122E3E20EF11C26E0CE
:1036A000A70163E4C1010E94D918F10182A990E049
:1036B000982F882723A9822BAA2797FDA095BA2F98
:1036C00029813A814B815C81280F391F4A1F5B1F7A
:1036D00029833A834B835C8384A990E0982F8827C1
:1036E00025A9822BAA2797FDA095BA2F480E591E0F
:1036F0006A1E7B1E86A990E0982F882727A9822B17
:10370000AA2797FDA095BA2F880E991EAA1EBB1E48
:103710000150110921F664EFC62EDD24D394E12C6B
:10372000F12C69817A818B819C81A70196010E948D
:10373000ED33CA01B9010E947630F10166A377A387
:1037400080A791A7C301B201A70196010E94ED33A2
:10375000CA01B9010E947630F10162A773A784A75C
:1037600095A7C501B401A70196010E94ED33CA01D6
:10377000B9010E947630F10166A777A780AB91ABC3
:103780000F900F900F900F90DF91CF911F910F919D
:10379000FF90EF90DF90CF90BF90AF909F908F9071
:1037A0007F906F905F904F903F902F900895EF9291
:1037B000FF921F93CF93DF931F92CDB7DEB7162FE3
:1037C0007A0168E670E081EB94E029830E94BD0DE8
:1037D000612F81EB94E00E945D0D2981813091F48D
:1037E000422F50E0B70181EB94E00E94300D61E080
:1037F00081EB94E00F90DF91CF911F91FF90EF90BC
:103800000C94BF0D8FEF0F90DF91CF911F91FF9020
:10381000EF900895CF93DF931F92CDB7DEB7498322
:1038200021E0AE014F5F5F4F0E94D71B0F90DF91E9
:10383000CF910895CF93DF93EC0140E050E063E82F
:1038400072E44C835D836E837F83188619861A86A3
:103850001B861C861D861E861F86188A198A1A8A50
:103860001B8A1C8A1D8A1E8A1F8A188E198E1A8E20
:103870001B8E1C8E1D8E1E8E1F8E19A218A21BA2BF
:103880001AA21DA21CA21EA21FA218A619A61AA641
:103890001BA61CA61DA61EA61FA618AA19AA81EB68
:1038A00094E00E949C0D60E273E080E090E00E9452
:1038B000E82740E06BE670E0CE010E940A1C41E080
:1038C0006AE170E0CE010E940A1C48E06BE170E002
:1038D000CE010E940A1CCE01DF91CF910C94281BCF
:1038E00021E030E0FC0131832083EE5FFE4F108247
:1038F00011821282138234961082118212821382F4
:103900003496108231961082319610821182128282
:103910001382349611821082329610823196108270
:1039200011821282138234961082118212821382C3
:103930000895089560E00C94B7244F925F926F92BF
:103940007F928F929F92AF92BF92CF92DF92EF922F
:10395000FF920F931F93CF93DF9300D000D01F925D
:10396000CDB7DEB78C01CE0101966C0185E0F60182
:1039700011928A95E9F760E0C8010E940B2564E185
:1039800070E080E090E00E94E82761E0C8010E94BA
:103990000B2588E290E00E94102860E0C8010E9498
:1039A0000B250E94B9274B015C0160E0C8010E9411
:1039B000EA2481110EC00E94B927681979098A0981
:1039C0009B09633071058105910578F3F801148234
:1039D00015820E94B9274B015C0160E0C8010E947A
:1039E000EA24882359F00E94B927681979098A09BD
:1039F0009B09633071058105910578F3E12CF12C69
:103A00000E94B9274B015C0160E0C8010E94EA24D2
:103A100081110BC00E94B927681979098A099B098D
:103A2000633071058105910578F30E94C5274B012C
:103A30005C010E94B9272B013C0160E0C8010E9493
:103A4000EA24882359F00E94B92764197509860968
:103A50009709633071058105910578F30E94C527A8
:103A6000681979098A099B09F70123E0F595E7951B
:103A70002A95E1F7693271058105910530F0EC0D69
:103A8000FD1D8081880F816004C0EC0DFD1D8081CB
:103A9000880F8083FFEFEF1AFF0A88E2E816F1042F
:103AA00009F0AECF59814B81842F90E0850F911D95
:103AB0002D8130E08217930719F4F8015483458370
:103AC0000F900F900F900F900F90DF91CF911F915B
:103AD0000F91FF90EF90DF90CF90BF90AF909F90AD
:103AE0008F907F906F905F904F900895FC016111CF
:103AF00002C084810895858108951F920F920FB6A8
:103B00000F9211242F933F934F935F936F937F9363
:103B10008F939F93AF93BF93EF93FF9382E00E94A5
:103B20006A2920919D0630919E062F5F3F4F30936A
:103B30009E0620939D0690910307943618F095E019
:103B40009093980690919806933071F018F4923003
:103B500031F046C09430F9F09530E1F141C0811167
:103B60003FC01092030727C08130D1F5E0910307D1
:103B70008E0F80930307F0E080919D0690919E0642
:103B8000E956F94F808710929E0610929D0684E0B8
:103B90008093980625C0811114C0E091030781E04D
:103BA0008E0F80930307F0E080919D0690919E0612
:103BB000E956F94F808710929E0610929D0683E089
:103BC000E7CF80919D0690919E068536910540F045
:103BD00085E0DECF811104C010929E0610929D06F2
:103BE000FF91EF91BF91AF919F918F917F916F91D5
:103BF0005F914F913F912F910F900FBE0F901F90AB
:103C00001895F89482E08093B0008093B10094E618
:103C10009093B3001092B200809370007894109249
:103C200003078093980608950F931F93CF93DF9314
:103C3000EC018C010F5E1F4F65E972E0C8010E9424
:103C40006F2E60E082E00E94FB281F8A188E198E7A
:103C50001A8E1B861A861D861C861E861F8665E99F
:103C600072E0C8010E94A52E188ACE010E94011E92
:103C700061E083E00E94FB2860E083E0DF91CF9168
:103C80001F910F910C9434291F93CF93DF93FC0164
:103C9000A681B7818C9186588D3558F480859185A1
:103CA00083309105A1F411968C911197815289313D
:103CB00018F080E090E044C012968C9188508730D4
:103CC000C0F7158281E0808381E090E039C08334C1
:103CD00091057CF311968C91119783548F3248F79C
:103CE00082E090E040E050E0BA019D012F5F3F4F3D
:103CF000EC01CA0FDB1FC881C850C730D0F6E901FC
:103D0000C80FD91F18811751133180F47695679524
:103D100057954795706802968234910549F780E27D
:103D200085834183528363837483CCCFC881C85019
:103D3000C73008F0BECF7695679557954795EBCF7E
:103D4000DF91CF911F9108950F931F93CF93DF932E
:103D5000EC018FE996E09F838E838091030790E0CA
:103D60009987888780919806853081F4CE010E94DA
:103D7000441E8C01CE010115110529F00E94011E7F
:103D800001E010E005C00E94011E02C000E010E04A
:103D9000C801DF91CF911F910F910895CB01E0EB06
:103DA000F0E02081206220830C941028CB01E0EB0E
:103DB000F0E020812F7D20830C9410281092700059
:103DC000262F30E040E050E060E47FE180E090E0CA
:103DD0000E94ED3381E08093B00089E08093B100D0
:103DE0002093B3008BEA289F212D11242695209340
:103DF000B4000895AF92BF92CF92DF92EF92FF92FC
:103E00000F931F93CF93DF93EC016A017B0159015C
:103E100066E20E94DE1E68E273E2CE010E94CE1EC0
:103E200064E971E1CE010E94D61E00E010E060E37B
:103E300072E0CE010A151B05ACF4C0FE05C00E945D
:103E4000CE1E60E476E004C00E94CE1E60E372E005
:103E5000CE010E94D61EF694E794D794C7940F5FC4
:103E60001F4FE5CF0E94CE1E60E070E0CE01DF91D3
:103E7000CF911F910F91FF90EF90DF90CF90BF9067
:103E8000AF900C94D61EEF92FF920F931F93CF9397
:103E9000DF938C017B01C0E0D0E0F7018481958144
:103EA000C817D90710F5BE01C7010E940D2F482F72
:103EB000409550E060E070E0762F652F542F442746
:103EC000480F511D611D711DBA01552744274F6FC1
:103ED00020E230E0C8010E94FA1E66E070E080E057
:103EE00090E00E94E8272196D8CF20E230E04FEF03
:103EF00050E06AE075EFC8010E94FA1E66E070E0CB
:103F000080E090E0DF91CF911F910F91FF90EF90B3
:103F10000C94E827CF92DF92EF92FF920F931F93BA
:103F2000CF93DF93EC01162FF42EE52ED22E106CDA
:103F300061E08C810E94342960E08D810E943429E7
:103F400008E060E08C810E943429612F61708D81CE
:103F50000E94342961E08C810E9434291695015019
:103F600081F7CF2C0F2D1E2D802F8C198D15B0F4BD
:103F7000F801E1908F0188E0F82E60E08C810E94CA
:103F800034296E2D60788D810E94342961E08C8106
:103F90000E943429EE0CFA9481F7E6CF60E08C8120
:103FA0000E94342960E08D810E94342961E08C8177
:103FB0000E94342961E08D81DF91CF911F910F9193
:103FC000FF90EF90DF90CF900C9434290C94AE24A6
:103FD0000F931F93CF93DF93EC01162F61E08C8139
:103FE0000E94342960E08D810E94342908E060E05D
:103FF0008C810E943429612F61708D810E94342947
:1040000061E08C810E9434291695015081F760E0AF
:104010008C810E94342960E08D810E94342961E006
:104020008C810E94342961E08D81DF91CF911F91B5
:104030000F910C94342920E030E0FC01E20FF31FD3
:1040400010862F5F3F4F20313105B9F721E0FC0189
:1040500026831782AC01485F5F4F20E160E00C943B
:104060008A1F693018F4662321F001C068E06150AE
:10407000686060680C94E81FCF93DF93EC01E62F33
:10408000F0E0EE0FFF1FE65EFE4F80818C83918192
:104090009D8361E00E94FB2861E08D810E94FB28E6
:1040A00061E08C810E94342961E08D810E94342975
:1040B00060E4CE010E94E81F65E0CE010E9431203D
:1040C000CE01DF91CF910C941B20FC0166830895F3
:1040D0008F929F92AF92BF92CF92DF92EF92FF9218
:1040E0000F931F93CF93DF9360310CF085C048305E
:1040F0000CF082C0222309F47FC0FC013681A42F7A
:10410000BB27A7FDB095E8E0F0E0EA1BFB0B5FEFF3
:1041100001C0550FEA95EAF74801C0E0D0E07727E3
:1041200067FD70956C01C60ED71EAA24BB24AA1A7F
:10413000BB0A332379F1C21778F58E01060F171FDA
:1041400017FD1AC07601EC0EFD1EF70130853523F0
:10415000F4010081141644F410E00A2E02C01595F3
:1041600007950A94E2F705C00A2C01C0000F0A94D3
:10417000EAF7032BF70100872196FFEF8F1A9F0ABA
:10418000DACF8E01060F171F17FF19C02196FFEF18
:104190008F1A9F0AC217A8F3AC01485F5F4F20E156
:1041A00060E0DF91CF911F910F91FF90EF90DF9032
:1041B000CF90BF90AF909F908F900C948A1F760104
:1041C000EC0EFD1EF70130853523F401008110E06F
:1041D0000095109514163CF40A2E02C0159507950B
:1041E0000A94E2F705C00A2C01C0000F0A94EAF70E
:1041F000032BF7010087CACFDF91CF911F910F9159
:10420000FF90EF90DF90CF90BF90AF909F908F90F6
:1042100008958F929F92AF92BF92CF92DF92EF92CA
:10422000FF920F931F93CF93DF93EC01088D198DAD
:10423000101611060CF073C080E090E0F82E801785
:10424000910751F001968131910509F4E7C0FE0113
:10425000E80FF91F1782F2CF40E1841709F4DEC09E
:104260000B8D1C8DE12C67E0D62E70E2C72E4E2DF3
:1042700050E0401751070CF049C0B12CDE01A40FEB
:10428000B51F5D962B2D30E0D29EC001D39E900DC0
:10429000112482549E4FFC016491603441F1FC0171
:1042A0006491EC91FF27E7FDF09570E0E617F707C2
:1042B000E1F4D29EB001D39E700D112420E030E0D5
:1042C00061547E4FFB01E20FF31FE491DE01AF0D5D
:1042D000B11D1896EC93F394FFE0FF1540F02F5FAB
:1042E0003F4F2630310571F702C0B394CBCFFC01AC
:1042F0008491803429F4FE01E40FF51FC58EEA9401
:10430000E394FFE0FF1508F0B2CF88C0FE01EF0D87
:10431000F11D1086F39440E1F412F8CF7FC0EB8CCE
:10432000FC8C2AEFA7012403C001259F900D1124C6
:104330000817190759F480E090E0FE01E80FF91F13
:104340001086019680319105C1F768C02227332776
:10435000201B310BC90166E070E00E94B733398F32
:10436000288F9B0190E047E0B42E50E2A52E2E1539
:104370003F050CF04BC0912CDE01A20FB31F5D96E0
:10438000692D70E0B69EA001B79E500D11244254D5
:104390005E4FFA01D490F0E4DF1631F1FA01849017
:1043A000CC90DD24C7FCD094E82DF0E0CE16DF06DB
:1043B000C1F4B69ED001B79EB00D1124FD01E80FE7
:1043C000F11D87FDFA95E154FE4F6491FE01E90F5E
:1043D000F11D60879F5F903130F48F5F863071F7F9
:1043E00002C09394CDCF80E0FA014491403431F47F
:1043F000FE01E20FF31FA58E215031092F5F3F4FC1
:10440000903108F4B4CF198F088F08C0FE01E90F6E
:10441000F11D10869F5F9031C9F7F5CF4A8D552762
:1044200047FD509527E030E0241B350B80E090E0FD
:1044300037FD12C0FE01E80FF91F4085022E01C0B2
:10444000440F0A94EAF7408701968031910591F76D
:104450008E818823A1F01FC047505109FE01E80F4B
:10446000F91F208530E0042E02C0359527950A9467
:10447000E2F7208701968031910581F7E9CF80E04E
:1044800090E0FE01E80FF91F208520952087019616
:1044900080319105B1F7AE01485F5F4F20E160E0E8
:1044A000CE01DF91CF911F910F91FF90EF90DF90A0
:1044B000CF90BF90AF909F908F900C948A1F0F93D6
:1044C0001F93FC0181E08783148E138E038D148D5E
:1044D000D901A00FB11F8C91DF01A00FB11F88235C
:1044E00019F00331110564F05D961C922AEF200348
:1044F000C001219F900D11246817790774F007C03F
:104500005D968C930F5F1F4F148F038FDFCFCB010E
:104510006131710514F080E190E0918F808F40311E
:104520000CF04FE047FD4FEF428FCF011F910F91ED
:104530000C940921CF93DF93DC01362F862F6AE09C
:104540000E949733C82FD0E0FE01EE0FFF1FEC0F43
:10455000FD1FE056FE4FE4911896EC931897FE016C
:10456000EE0FFF1FEC0FFD1FEF55FE4FE491199664
:10457000EC931997FE01EE0FFF1FEC0FFD1FEE5598
:10458000FE4FE4911A96EC931A971B961C921B9778
:10459000832F0E949733692F70E0FB01EE0FFF1FFE
:1045A000E60FF71FE056FE4FE4911C96EC931C9724
:1045B000FB01EE0FFF1FE60FF71FEF55FE4FE491D3
:1045C0001D96EC931D97FB01EE0FFF1FE60FF71FE3
:1045D000EE55FE4FE4911E96EC931E97842F6AE0F1
:1045E0000E949733682F70E0FB01EE0FFF1FE60F6C
:1045F000F71FE056FE4FE4915196EC935197FB0163
:10460000EE0FFF1FE60FF71FEF55FE4FE491529696
:10461000EC935297FB01EE0FFF1FE60FF71FEE55CD
:10462000FE4FE4915396EC93539754961C925497F3
:10463000842F6AE00E949733892F90E0FC01EE0FEF
:10464000FF1FE80FF91FE056FE4FE4915596EC93DB
:104650005597FC01EE0FFF1FE80FF91FEF55FE4FB6
:10466000E4915696EC935697FC01EE0FFF1FE80F6E
:10467000F91FEE55FE4FE4915796EC93579722237E
:1046800041F088E21F968C931F9750968C93509719
:1046900006C01F961C921F9750961C925097169614
:1046A0008C911697882351F0AD01485F5F4F20E150
:1046B00060E0CD01DF91CF910C948A1F80E090E003
:1046C000FD01E80FF91F2085209520870196803194
:1046D0009105B1F7E9CF089570E0FB01E852FC4F76
:1046E000E491DC01EC93FB01E451FC4FE491F0E038
:1046F000EE0FFF1FE050FC4F25913491FC013283F7
:10470000218308951F93CF93DF93FC011081C18112
:10471000D2819981812F8095892389838A81812BF8
:104720008A838AE090E00E9410289881912381E09A
:1047300009F480E0DF91CF911F910895FF920F93CC
:104740001F93CF93DF93FC011081C181D281F89434
:104750008981F12EF0948F2189838A81812B8A832C
:1047600078940DE7015041F182E090E00E9410281A
:1047700088818123B9F3F8948A818F218A83898182
:10478000812B8983789480EE91E00E941028F89420
:1047900089818F2189838A81812B8A8386E490E0B5
:1047A0000E9410288881812301E009F000E07894BC
:1047B0008AE991E00E941028802FDF91CF911F910C
:1047C0000F91FF9008951F93CF93DF93FC01108109
:1047D000C181D281912F909560FF12C0F8948A8197
:1047E00089238A838981812B89838AE090E00E94D2
:1047F00010288A81812B8A83789487E390E011C006
:10480000F8948A8189238A838981812B898381E431
:1048100090E00E9410288A81812B8A83789485E019
:1048200090E0DF91CF911F910C9410280F931F936C
:10483000CF93DF93FC011081C181D281F8948981EB
:10484000812B89838A81012F009580238A8383E0CD
:1048500090E00E9410288981802389838A81812B9E
:104860008A838AE090E00E941028C881789485E3CA
:1048700090E00E9410281C2381E009F480E0DF9181
:10488000CF911F910F910895CF92DF92EF92FF92F7
:104890000F931F93CF93DF931F92CDB7DEB76C01B9
:1048A000E62E08E010E0FF24F39461E09F2D9E21A6
:1048B00009F460E0C60149830E94E323FF0C015024
:1048C000110949810115110581F741111DC0F894A5
:1048D000D6011196ED91FC91129791818C91809562
:1048E000892381831196ED91FC91129782819C918D
:1048F000892B82831196ED91FC91129792818C9174
:1049000080958923828378940F90DF91CF911F91B6
:104910000F91FF90EF90DF90CF900895EF92FF926C
:104920000F931F93CF93DF938C01C8E0D0E0F12C5D
:10493000EE24E394C8010E9416248111FE28EE0C97
:104940002197C1F78F2DDF91CF911F910F91FF908C
:10495000EF90089540E06CEC0C944424FC018091AD
:104960001A01808380911B01818312820895DC01EA
:10497000E62FF0E0EE0FFF1FE65EFE4F80818C9386
:10498000818111968C93119712966C9381E080939C
:1049900080008BE08093810083E08093B00084E00E
:1049A0008093B1000895FC0182810895FC01838108
:1049B0000895CF93DF93EC0188810E94FB288881C2
:1049C0000E946A2921E0892B09F420E0822FDF91DF
:1049D000CF910895CF93DF93EC0189810E94FB284A
:1049E00089810E946A2921E0892B09F420E0822F25
:1049F000DF91CF9108951F93CF93DF93EC01162F92
:104A000061E088810E94FB28612F8881DF91CF912E
:104A10001F910C9434291F93CF93DF93EC01162F31
:104A200061E089810E94FB28612F8981DF91CF910C
:104A30001F910C943429FC0180810C945628FC01B0
:104A400081810C945628FC0180810C947328DC0130
:104A5000E62FF0E0EE0FFF1FE65EFE4F80818C93A5
:104A6000818111968C93119712966C930895DC01B5
:104A7000E62FF0E0EE0FFF1FE65EFE4F80818C9385
:104A8000818111968C93119712966C9312971396BD
:104A90004C930895FC0180810895FC018181089563
:104AA000DC0112966C931297E62FF0E0EE0FFF1FD9
:104AB000E65EFE4F818111968C93119790819C93B5
:104AC000282F30E0F901E852FC4FE4911C96EC935A
:104AD0001C97F901E451FC4FE491F0E0EE0FFF1F49
:104AE000E65FFB4F2591349119963C932E931897CE
:104AF00061E00C94FB28DC01862F262F30E0F901C1
:104B0000E852FC4FE4911C96EC931C97F901E45198
:104B1000FC4FE491F0E0EE0FFF1FE65FFB4F2591A5
:104B2000349119963C932E93189761E00C94FB28CE
:104B3000CF93DF93EC01262F30E03D832C8323E0DD
:104B4000629FC00111240E942C349F838E83892B85
:104B500021F487E692E00E942D3680E090E04C81BF
:104B60005D819A01220F331F240F351F821793078F
:104B700038F4EE81FF81E80FF91F10820196EFCF24
:104B8000DF91CF9108950F931F93CF93DF931F92DF
:104B9000CDB7DEB78C0149830E94B724D8011196A6
:104BA0008C91282F30E0F901E852FC4FE491D801B4
:104BB0001C96EC93F901E451FC4FE491F0E0EE0F08
:104BC000FF1FE65FFB4F25913491F8013187208765
:104BD00061E00E94FB284981642FC8010F90DF919A
:104BE000CF911F910F910C9498250F93FC01A62F44
:104BF000B0E084819581A817B907B8F4862F880F93
:104C0000860F90E0A681B781A80FB91F2C93A681CB
:104C1000B781A80FB91F11964C930680F781E02D3C
:104C2000E80FF91F028381E001C080E00F91089531
:104C3000CF92DF92EF92FF920F931F93CF93DF9368
:104C40007C01142FD22EC02E611113C0C0E0D0E021
:104C5000F70184819581C817D90748F40C2D2D2DB3
:104C6000412F6C2FC7010E94F5252196F1CF81E0DD
:104C700004C061500E94F52580E0DF91CF911F9123
:104C80000F91FF90EF90DF90CF9008950F93022F38
:104C9000242F462F60E00E9418260F9108950F934D
:104CA0001F93D8013FB7F8949C91822F8095892358
:104CB000292BFB01460F571FE417F50781F091914F
:104CC00068E02C9300C097FF8C93990F00C000C040
:104CD00000C008F48C9300C06A9599F7EDCF3FBFF0
:104CE0001F910F9108950F931F93FC01008511856B
:104CF00024813581A901440F551F420F531F66813E
:104D0000778124850E944F261F910F910895CF939C
:104D1000DF93EC018E819F810E94C4341F821E822A
:104D2000DF91CF910895CF93DF93EC010E94AE24E1
:104D3000CE010496DF91CF910C946B231F93CF93F8
:104D4000DF93EC01142F0E943725123011F4698192
:104D500001C06881CE010496DF91CF911F910C9420
:104D60006C23CF92DF92EF92FF920F931F93CF931A
:104D7000DF93CDB7DEB72C970FB6F894DEBF0FBE2A
:104D8000CDBF8C010C5F1F4FC8010E949E23C8013C
:104D90000E94AA2440E064E4C8010E9444240E94C6
:104DA000B9276B017C01C8010E94822381110BC0CD
:104DB0000E94B9276C197D098E099F096E3E7240C9
:104DC0008105910580F3C8010E949E23C8010E94BD
:104DD000AA2440E06EEBC8010E944424CE01019653
:104DE0007C016E0196E0C90ED11CC8010E948E2480
:104DF000F70181937F01EC15FD05B9F76A8170E039
:104E0000762F66278981682B882777FD8095982FD4
:104E10000E94763020E030E040E85DE30E94A93156
:104E20002C960FB6F894DEBF0FBECDBFDF91CF91A9
:104E30001F910F91FF90EF90DF90CF90089560E069
:104E40000C94B7240F931F93CF93DF9300D000D01F
:104E5000CDB7DEB78C019A01AB0160E029833A83BC
:104E60004B835C830E940B2582E090E00E94102817
:104E700061E0C8010E940B258AE090E00E941028A2
:104E800060E0C8010E940B2560E0F80181810E946A
:104E9000FB2829813A814B815C8161E0F8018181A5
:104EA0000F900F900F900F90DF91CF911F910F9166
:104EB0000C94932927E3269FA001279F500D1124CE
:104EC00048535F4F60E070E00E9422270E947630D6
:104ED00020E030E048E652E40E94DB2F08951F9264
:104EE0000F920FB60F9211242F933F938F939F939E
:104EF000AF93BF938091050790910607A091070794
:104F0000B09108073091040723E0230F2D3720F4D8
:104F10000196A11DB11D05C026E8230F0296A11D13
:104F2000B11D209304078093050790930607A09373
:104F30000707B09308078091090790910A07A0918D
:104F40000B07B0910C070196A11DB11D80930907B5
:104F500090930A07A0930B07B0930C07BF91AF91F2
:104F60009F918F913F912F910F900FBE0F901F90A7
:104F700018952FB7F89460910507709106078091F6
:104F80000707909108072FBF08953FB7F8948091C5
:104F9000090790910A07A0910B07B0910C0726B55D
:104FA000A89B05C02F3F19F00196A11DB11D3FBF61
:104FB0006627782F892F9A2F620F711D811D911DF1
:104FC00042E0660F771F881F991F4A95D1F7089511
:104FD000CF92DF92EF92FF92CF93DF936B017C0130
:104FE0000E94C527EB01C114D104E104F10489F04A
:104FF0000E940F2F0E94C5276C1B7D0B683E7340DB
:1050000090F381E0C81AD108E108F108C851DC4FDB
:10501000EACFDF91CF91FF90EF90DF90CF9008958E
:105020008230910538F0880F991F880F991F0597D6
:105030000197F1F70895789484B5826084BD84B5B2
:10504000816084BD85B5826085BD85B5816085BD83
:10505000EEE6F0E0808181608083E1E8F0E010829C
:10506000808182608083808181608083E0E8F0E0DD
:10507000808181608083E1EBF0E0808184608083C7
:10508000E0EBF0E0808181608083EAE7F0E08081FE
:10509000846080838081826080838081816080835E
:1050A0008081806880831092C10008958E3008F05E
:1050B0008E5087702091300190E4299F9001112437
:1050C000822B80937C0080917A00806480937A00A8
:1050D00080917A0086FDFCCF809178002091790044
:1050E00090E0922B08951F93CF93DF93182FEB013D
:1050F00061E00E94FB28209711F460E004C0CF3FDC
:10510000D10539F461E0812FDF91CF911F910C948B
:105110003429E12FF0E0EC53FC4FE491E330F9F057
:1051200048F4E130B9F0E230A1F584B5806284BD85
:10513000C8BD34C0E730E9F0E83019F1E43049F592
:1051400080918000806280938000D0938B00C09318
:105150008A0024C084B5806884BDC7BD1FC080910B
:105160008000806880938000D0938900C09388007D
:1051700015C08091B00080688093B000C093B300E8
:105180000DC08091B00080628093B000C093B400E5
:1051900005C0C038D1050CF0B5CFAFCFDF91CF91AE
:1051A0001F910895833081F028F4813099F0823086
:1051B000A1F008958730A9F08830B9F08430D1F497
:1051C000809180008F7D03C0809180008F778093D5
:1051D0008000089584B58F7702C084B58F7D84BD2B
:1051E00008958091B0008F7703C08091B0008F7DCB
:1051F0008093B0000895CF93DF9390E0FC01E852D4
:10520000FC4F2491FC01E451FC4F8491882349F127
:1052100090E0880F991FFC01EC5EFB4FA591B491C3
:10522000865F9B4FFC01C591D4919FB7611108C067
:10523000F8948C91209582238C93888182230AC0D4
:10524000623051F4F8948C91322F309583238C93F3
:105250008881822B888304C0F8948C91822B8C9354
:105260009FBFDF91CF9108950F931F93CF93DF934B
:105270001F92CDB7DEB7282F30E0F901EC53FC4F79
:105280008491F901E852FC4F1491F901E451FC4F6B
:1052900004910023C9F0882321F069830E94D22859
:1052A0006981E02FF0E0EE0FFF1FE65FFB4FA59155
:1052B000B4919FB7F8948C91611103C0109581232C
:1052C00001C0812B8C939FBF0F90DF91CF911F91D5
:1052D0000F910895CF93DF93282F30E0F901EC531D
:1052E000FC4F8491F901E852FC4FD491F901E4514B
:1052F000FC4FC491CC2391F081110E94D228EC2F55
:10530000F0E0EE0FFF1FE050FC4FA591B4912C91FF
:105310002D2381E090E021F480E002C080E090E065
:10532000DF91CF9108950F931F93762F90E0FC01AA
:10533000E852FC4F6491FC01E451FC4FE49171117F
:10534000762FF0E0EE0FFF1FE050FC4F8591949117
:1053500089019A013F70472F0E943F026115710534
:105360008105910531F06F5F7F4F8F4F9F4F9F7089
:1053700003C060E070E0CB011F910F910895FC0124
:10538000818D228D90E0805C9F4F821B91098F73ED
:1053900099270895FC01918D828D981731F0828DA7
:1053A000E80FF11D858D90E008958FEF9FEF089530
:1053B000FC01918D828D981761F0828DDF01A80F1D
:1053C000B11D5D968C91928D9F5F9F73928F90E03F
:1053D00008958FEF9FEF08958CE59BE2892B49F0AC
:1053E00080E090E0892B29F00E945C2B81110C94C5
:1053F00000000895FC01848DDF01A80FB11DA35AA0
:10540000BF4F2C91848D90E001968F739927848FE4
:10541000A689B7892C93A089B1898C9180648C93DB
:10542000938D848D981306C00288F389E02D8081C6
:105430008F7D80830895CF93DF93EC01888D88233F
:10544000C9F0EA89FB89808185FD05C0A889B989F1
:105450008C9186FD0FC00FB607FCF5CF808185FFCC
:10546000F2CFA889B9898C9185FFEDCFCE010E943A
:10547000FA29E7CFDF91CF910895CF92DF92FF9283
:105480000F931F93CF93DF931F92CDB7DEB76C01BD
:1054900081E0D60158968C9358975B969C915B97C8
:1054A0005C968C915C97981307C05096ED91FC9197
:1054B0005197808185FD2EC0F601038D10E00F5FAE
:1054C0001F4F0F731127F02EF601848DF81211C0B3
:1054D0000FB607FCF9CFD6015096ED91FC9151978C
:1054E000808185FFF1CFC60169830E94FA29698115
:1054F000EBCF838DE80FF11DE35AFF4F6083D60198
:105500005B960C935B975296ED91FC91539780813B
:1055100080620CC0D6015696ED91FC91579760833E
:105520005096ED91FC91519780818064808381E059
:1055300090E00F90DF91CF911F910F91FF90DF903E
:10554000CF900895BF92CF92DF92EF92FF92CF93C8
:10555000DF93EC016A017B01B22EE889F98982E0D0
:105560008083411581EE580761057105A1F060E067
:1055700079E08DE390E0A70196010E94CB332150A2
:1055800031094109510956954795379527952115B8
:1055900080E1380798F0E889F989108260E874E8BA
:1055A0008EE190E0A70196010E94CB332150310992
:1055B000410951095695479537952795EC85FD8505
:1055C0003083EE85FF852083188EEC89FD89B082BB
:1055D000EA89FB89808180618083EA89FB898081F7
:1055E00088608083EA89FB89808180688083EA897A
:1055F000FB8980818F7D8083DF91CF91FF90EF9039
:10560000DF90CF90BF9008951F920F920FB60F9228
:1056100011242F938F939F93EF93FF93E0911D0796
:10562000F0911E078081E0912307F091240782FD0D
:1056300012C09081809126078F5F8F73209127077A
:10564000821751F0E0912607F0E0E35FF84F958F65
:105650008093260701C08081FF91EF919F918F91E8
:105660002F910F900FBE0F901F9018951F920F92C1
:105670000FB60F9211242F933F934F935F936F9325
:105680007F938F939F93AF93BF93EF93FF938DE09F
:1056900097E00E94FA29FF91EF91BF91AF919F91FE
:1056A0008F917F916F915F914F913F912F910F90CB
:1056B0000FBE0F901F9018958DE097E00E94BF29B4
:1056C00021E0892B09F420E0822F08951092100721
:1056D00010920F0788EE93E0A0E0B0E080931107EE
:1056E00090931207A0931307B093140787E892E0F2
:1056F00090930E0780930D0785EC90E090931A0726
:105700008093190784EC90E090931C0780931B070B
:1057100080EC90E090931E0780931D0781EC90E051
:105720009093200780931F0782EC90E090932207CC
:105730008093210786EC90E09093240780932307C1
:105740001092260710922707109228071092290717
:10575000089508950E941B280E94A92B0E94880288
:10576000CCEED9E20E94480A2097E1F30E94EC298E
:10577000F9CFCF92DF92EF92FF920F931F93CF93C7
:10578000DF936C017A01EB01E60EF71E00E010E0FA
:10579000CE15DF0561F06991D601ED91FC91019084
:1057A000F081E02DC6010995080F191FF1CFC8013E
:1057B000DF91CF911F910F91FF90EF90DF90CF90ED
:1057C00008956115710581F0DB010D900020E9F766
:1057D000AD0141505109461B570BDC01ED91FC9185
:1057E0000280F381E02D099480E090E008950C940C
:1057F000E12BDC01ED91FC910190F081E02D099409
:1058000063E972E00C94E12B0F931F93CF93DF9326
:10581000EC010E94E12B8C01CE010E94002C800F34
:10582000911FDF91CF911F910F9108958F929F92B9
:10583000AF92BF92CF92DF92EF92FF920F931F939E
:10584000CF93DF93CDB7DEB7A1970FB6F894DEBF45
:105850000FBECDBF7C01C42EE52FCB01D22E19A2E5
:1058600021E02D1510F02AE0D22E8E010F5D1F4F82
:105870008D2C912CA12CB12C6C2D7E2FA501940187
:105880000E94CB338C2DD29E801911240150110916
:105890008A3014F4805D01C0895CF8018083211591
:1058A00031054105510521F0C22EE32FCA01E4CF95
:1058B000B801C7010E94E12BA1960FB6F894DEBF94
:1058C0000FBECDBFDF91CF911F910F91FF90EF9051
:1058D000DF90CF90BF90AF909F908F900895CF9220
:1058E000DF92EF92FF920F931F93CF93DF93EC0120
:1058F0006A017B012115310579F4E881F981019074
:10590000F081E02D642FDF91CF911F910F91FF90D7
:10591000EF90DF90CF9009942A303105E9F477FFBA
:105920001AC06DE20E94F92B8C0144275527BA0159
:105930004C195D096E097F092AE0CE010E94162CE0
:10594000800F911FDF91CF911F910F91FF90EF90EA
:10595000DF90CF9008952AE0B701A601CE01DF9134
:10596000CF911F910F91FF90EF90DF90CF900C940B
:10597000162C2115310541F4DC01ED91FC910190CB
:10598000F081E02D642F09940C94162C9A01462F77
:1059900050E060E070E00C94B92C4F925F926F92EF
:1059A0007F928F929F92AF92BF92CF92DF92EF92AF
:1059B000FF920F931F93CF93DF93EC016A017B015A
:1059C000B22E9A01AB01C701B6010E949D32882315
:1059D00019F066E972E027C026013701E89477F8EC
:1059E0002FEF3FEF4FE75FE7C301B2010E949D3207
:1059F00081110DC02FEF3FEF4FE75FE7C301B20109
:105A00000E94D72F18161CF46AE972E00CC02FEF21
:105A10003FEF4FE75FE4C701B6010E949E311816C1
:105A2000ACF46EE972E0CE01DF91CF911F910F913E
:105A3000FF90EF90DF90CF90BF90AF909F908F90AE
:105A40007F906F905F904F900C94E12B2FEF3FEF82
:105A50004FE75FECC701B6010E94D72F87FDE1CF6A
:105A600020E030E0A901C701B6010E94D72F87FFCF
:105A70000AC06DE2CE010E94F92B8C01F7FAF09476
:105A8000F7F8F09402C000E010E0A12C60E070E0B4
:105A900080E09FE3AB1441F020E030E040E251E4CD
:105AA0000E94DB2FA394F6CF9B01AC01C701B60186
:105AB0000E94112F6B017C010E9448302B013C0198
:105AC0000E9474309B01AC01C701B6010E94102FE7
:105AD0006B017C012AE0B301A201CE010E94162CC9
