:100000000C9449020C9471020C9471020C947102CC
:100010000C9471020C9471020C9471020C94031BE9
:100020000C9471020C9471020C9471020C94902740
:100030000C9471020C9471020C9471020C94710274
:100040000C9484290C9471020C94192D0C944B2D52
:100050000C9471020C9471020C9471020C94710254
:100060000C94550C0C947102EC08040726073C070D
:100070003C075507DF083C075C095C095C095C0923
:100080005C096A078607BE075C09D207B3075C09EB
:100090005C090308360978089108B30856085C091A
:1000A0005C095C09FB0803095C095C095C093C0804
:1000B0005C095C095C095C095C095C095C095C0918
:1000C0005C095C095C095C095C095C091809230985
:1000D000084AD73B3BCE016E84BCBFFDC12F3D6CAF
:1000E00074319ABD56833DDA3D00C77F11BED9E415
:1000F000BB4C3E916BAAAABE000000803F080000E6
:1001000000BE922449123EABAAAA2ABECDCCCC4C4A
:100110003E00000080BEABAAAAAA3E00000000BFBD
:10012000000000803F0000000000084178D3BB437E
:1001300087D1133D190E3CC3BD4282AD2B3E68EC06
:100140008276BED98FE1A93E4C80EFFFBE01C4FF8D
:100150007F3F000000000007634236B79BD8A71A14
:1001600039685618AEBAAB558C1D3CB7CC5763BD39
:100170006DEDFD753EF6177231BF000000803F0047
:100180000E000F00100011001200130014001500E3
:100190003F065B4F666D7D077F6F777C395E7971B7
:1001A000BF86DBCFE6EDFD87FFEFF7FCB9DEF9F1A7
:1001B00000407C447C007C005C547454547C70107F
:1001C0007C74545C7C545C40407C7C547C74547CD7
:1001D000000400202020000000200000000000009B
:1001E00030007C82827C00310042FE02000032003E
:1001F000468A92620033004492926C0034001C6480
:10020000FE04003500F292928C0036007C92924CF3
:10021000003700C08E90E00038006C92926C00397C
:10022000006492927C006100042A2A1E006200FE93
:1002300012120C0063000C1212120064000C121255
:10024000FE0065001C2A2A18006600103E5050006F
:1002500067000815151E006800FE101E00006900EA
:10026000002E0000006A0002012E00006B00FE0854
:100270001412006C0000FE0200006D001E100E1033
:100280000E6E001E10100E006F000C12120C00708B
:10029000001F12120C0071000C12121F0072001EBF
:1002A00008101000730012292512007400103E126D
:1002B000000075001C02021E0076180402041800DB
:1002C0007718061C0618007800120C0C1200790032
:1002D0001805051E007A0012161A120041007E88C9
:1002E000887E004200FE92926C0043007C82824431
:1002F000004400FE82827C004500FE92928200460D
:1003000000FE9090800047007C82925C004800FED6
:100310001010FE00490082FE8200004A000C02021A
:10032000FC004B00FE1028C6004C00FE020202003A
:100330004D00FE403040FE4E00FE403008FE4F00B3
:100340007C8282827C5000FE9090600051007C8212
:100350008A847A5200FE9894620053006492924C10
:1003600000540080FE8080005500FC0202FC005614
:1003700000F00C020CF05700FE043804FE5800C6D2
:100380003838C60059C0201E20C0005A00869AB2D4
:10039000C2002C00010E0C00002E0000060600001A
:1003A000257254781E2A4E2100007A0000003F007A
:1003B000204A3000002D0010101010002B08083EBD
:1003C0000808002F00020C3040002A2214081422D2
:1003D000003A0000140000002200C000C00000230A
:1003E00028FE28FE28002800007C8200002900004A
:1003F000827C00003B0002240000007E0040804020
:1004000080003B0002240000003D0028282828002E
:100410007C0000FE0000003E0082442810003C00EA
:100420001028448200400000000000000000000886
:1004300000020100000304070000000000000000AB
:10044000010204081020408001020408102001026B
:100450000408102004040404040404040202020238
:10046000020203030303030300000000230026002D
:10047000290000000000250028002B0000000000DB
:10048000240027002A00B705730BFD157B2D1706E6
:10049000011611241FBECFEFD8E0DEBFCDBF11E0A3
:1004A000A0E0B1E0E0E5FEE602C005900D92A239C1
:1004B000B107D9F726E0A2E9B1E001C01D92AA393F
:1004C000B207E1F714E0CEE8D4E004C02297FE01C1
:1004D0000E948234C638D107C9F70E94BF2D0C9400
:1004E0001B370C940000CF92DF92EF92FF920F9394
:1004F0001F93E82FF92F05C0015011092109310977
:1005000061F1908196239417B9F305C00150110948
:100510002109310911F1908196239413F7CFC12C51
:10052000D12CE12CF12C0AC08FEFC81AD80AE80AA6
:10053000F80A0C151D052E053F0579F080818623EC
:10054000841791F36C2D7D2D8E2D9F2D1F910F9172
:10055000FF90EF90DF90CF90089560E070E080E032
:1005600090E01F910F91FF90EF90DF90CF90089552
:1005700089EE92E00C94AB1061E08DE00E94102BAC
:1005800061E08DE00E94492B6CE271E080E090E038
:100590000E94FD2960E08DE00E94492B26E040E0AA
:1005A00052EC61E070E083EF95E00E94B72C64EFBD
:1005B00071E080E090E00E94FD2922E330E040E01D
:1005C00050E064EF71E089EE92E00E94481062E32F
:1005D00070E080E090E00E94FD290E94B80285EC66
:1005E00092E00E94B81B6DE081E393E00E948925B0
:1005F00020E040E060E081E393E00E94542681E344
:1006000093E00E94812682E892E00E94A01969E2AC
:1006100071E083EF95E00E941A2E6BE172E083EFA8
:1006200095E00E94202E66E08DEE92E00E941C1E56
:1006300061E08DEE92E00C94511E83EF95E00C94F6
:100640001C2EFC01EA51FE4F8081809321028181A2
:100650008093220280912102909122020895A3E2C8
:10066000B2E0FC01EA51FE4F80818C93818180933E
:1006700024028281809325028381809326026D91DA
:100680007D918D919C910895E2EAF1E020E030E0C7
:100690008A519E4F2617370744F4DC01A20FB31F7F
:1006A0004C9141932F5F3F4FF5CFFB01EE55FE4F2D
:1006B000108282EA91E00895E2E9F1E020E030E082
:1006C0008A519E4F261737075CF42031310541F0DF
:1006D000DC01A20FB31F4C9141932F5F3F4FF2CF2C
:1006E00082E991E00895E1EDF1E020E030E0419110
:1006F00051914817590791F0452B41F4F901EE0F3C
:10070000FF1FEF52FE4F9183808308C02F5F3F4F42
:100710002830310561F780E090E00895C90108951F
:10072000CF92DF92EF92FF920F931F93CF93DF93BD
:10073000CDB7DEB72D970FB6F894DEBF0FBECDBF95
:10074000D090EC010D2D10E08D30910509F441C1E0
:1007500084F58830910509F461C014F58330910562
:1007600009F422C1059709F0F3C186E090E00E94E8
:1007700021038C0169E081E593E00E941825B8010E
:1007800081E593E00E94C71588E090E00E94210374
:100790008C016AE081E593E00E941825B80139C018
:1007A0008A30910519F10CF484C00B9709F45CC0F0
:1007B000CFC18132910509F49EC164F48E31910557
:1007C00009F467C18032910509F46DC1449709F0BD
:1007D000BFC13BC18932910509F483C082339105C1
:1007E00009F4A4C1829709F0B3C169C187E090E020
:1007F0000E9421037C0181E593E00E94C42490E0E3
:100800008017910729F06D2D81E593E00E9418254E
:10081000B70181E593E00E94C7159AC1E090EE010F
:100820001091EF01F090F0010091F1014091ED0184
:100830006D2D81E393E00E944125EE2049F06FEF9A
:100840006E0D2F2D412F81E393E00E94032607C0F8
:10085000202F4F2D612F81E393E00E94542681E3E6
:1008600093E00E94812674C18091ED01000F111F59
:10087000F801E65FFE4F813011F4E08001C0E180B5
:10088000D090EE0184EB8D1508F462C1F12CC70104
:100890000E9473038C01000F111F080F191F075AC4
:1008A0001C4FB701C8010E94E6286D2D70E0C801F9
:1008B0003AC182E293E00E94C42490E0801791073D
:1008C00029F06D2D82E293E00E94AF0F87E090E067
:1008D0000E942F03AB01BC0182E293E00E94D10F82
:1008E00037C18DEE92E00E94C424282F30E02017FB
:1008F000310729F06D2D8DEE92E00E94271E809128
:10090000ED0190E081309105B9F40091EE011127DD
:1009100007FD10954091EF016091F00170E08BE0D0
:1009200090E04D870E9444039C014D85B8018DEEF7
:1009300092E00E944B200CC182309105A1F4F0900E
:10094000EE014091EF0160E170E08AE090E04D87B8
:100950000E945C038C0120E14D856F2D8DEE92E0AD
:100960000E94541EF5C08330910579F421E08091F6
:10097000EE01811101C020E04091F0016091EF0192
:100980008DEE92E00E948620E3C0049709F0E0C05B
:1009900088E090E00E942F03AB01BC0123E08DEEC4
:1009A00092E00E945721D4C08EE193E00E94C424BB
:1009B000282F30E02017310729F06D2D8EE193E0CC
:1009C0000E94182561E08091ED01811154C060E022
:1009D00052C063E871E0CE0107960E94E72E0091B5
:1009E000E80110E0035011096CEEC62E61E0D62E2E
:1009F000E12CF12CE016F1065CF4F60161916F0137
:100A0000CE0107960E94612FFFEFEF1AFF0AF2CF87
:100A1000BE01695F7F4FCE0101960E94142FBE0177
:100A20006F5F7F4F85EC92E00E94181DCE0101960A
:100A30000E94792E63E871E0CE0107960E941D2F77
:100A4000CE0107960E94792E83C08EE193E00E942A
:100A5000C424282F30E02017310729F06D2D8EE1B6
:100A600093E00E9418256091ED01862F90E082307E
:100A7000910534F461708EE193E00E94EC2468C02B
:100A800061E0029709F460E08EE193E00E94FC24AB
:100A90005FC061E08D2D0E94102B6091ED018D2DC6
:100AA0000E94492B55C061E08D2D0E94102B209192
:100AB000ED01622F70E08D2D0E94882A49C086E0EA
:100AC00090E00E9421038C0188E090E00E942103C5
:100AD000101611065CF49C01442737FD4095542FF5
:100AE000B80189EE92E00E94481032C089EE92E08F
:100AF0000E94AB102DC0D090ED0184EB8D1540F11C
:100B0000C8010E9473037C01EE0CFF1CE80EF91E65
:100B1000F701E75AFC4F7F01B801CF010E94E62898
:100B20006D2D70E0C7010E941F2912C00E94CE29BE
:100B30000E94EC3020E030E04AE754E40E94533059
:100B40006093BE017093BF018093C0019093C10177
:100B50002D960FB6F894DEBF0FBECDBFDF91CF91BB
:100B60001F910F91FF90EF90DF90CF900895CF935A
:100B7000DF93C9E5D3E0CE010E944C28239683E0A1
:100B8000C137D807C1F781E593E00E94C4158EE311
:100B900093E00E94A1264EE160E081E393E00E9491
:100BA000D1258CE293E00E94332782E293E00E94F9
:100BB000190E8EE193E00E94AB248DEE92E00E942C
:100BC000D11D89EE92E00E94421085EC92E00E94D5
:100BD000CB1B82E892E00E942F168EE792E00E94E3
:100BE000571D87E592E00E94B51080E592E00E94D3
:100BF000201A8AE492E00E94051684E492E00E94A2
:100C00001A168EE392E00E942D2787E292E00E945E
:100C1000820D63E371E08BE192E00E94E72E63E8CE
:100C200071E082EC91E0DF91CF910C94E72E82ECA1
:100C300091E00E94792E8BE192E00E94792E8FED57
:100C400092E00E94792E89ED92E00E94792E81E354
:100C500093E00C949526682F83EF95E00C94522C2A
:100C60008FEF0E942B0685E50C942B068FEF0E94D8
:100C70002B0685E50E942B060C941D03CF93C82FED
:100C800081E00E942B068C2FCF910C942B06CF93E2
:100C9000E82FF0E0EE0FFF1FE058FE4FC49160E038
:100CA0008C2F0E94102B8C2F0E946B2AC1E00B9777
:100CB0000CF0C0E08091CF018C1769F0C093CF0198
:100CC0000E94300680E80E942B068C2F0E943E0670
:100CD000CF910C941D03CF910895EF92FF920F9343
:100CE0001F93CF93DF937C01FC01C4810C2F1581EE
:100CF00084E00E942B068C2F0E942B06C0E0D0E0DF
:100D0000C017D10744F4BE01C7010E94852F0E947D
:100D10002B062196F5CFDF91CF911F910F91FF9078
:100D2000EF900895FF920F931F93CF93DF931F923D
:100D3000CDB7DEB78B01F82E82E099830E942B0697
:100D4000A8016F2D9981792F40932302509324029B
:100D50006093250270932602802F0E942B068091BB
:100D600024020E942B06809125020E942B0680916E
:100D700026020F90DF91CF911F910F91FF900C945D
:100D80002B06CF92DF92EF92FF926B017C0183E002
:100D90000E942B06C701B6010E94BB30862F262F6A
:100DA000372F30932202209321020E942B0680913C
:100DB00022020E942B06809123020E942B06809122
:100DC0002402FF90EF90DF90CF900C942B06CF92EF
:100DD000DF92EF92FF920F931F93CF93DF93CDB7E4
:100DE000DEB727970FB6F894DEBF0FBECDBF1091C8
:100DF000EC01E12EF12C8433910508F05DC2FC0179
:100E0000EC5CFF4F0C9480348CE293E00E94C4248D
:100E100090E08E159F0529F0612F8CE293E00E94EF
:100E2000182560E573EC8CE293E00E947B276B0150
:100E30007C0184E690E00E94252A0E943006809181
:100E4000E1010E942B06C701B601FAC10091ED0134
:100E50008EE393E00E94C42490E08E159F0509F074
:100E60001DC28EE393E00E94C724801317C28EE355
:100E700093E00E94BF26E4C18EE193E00E94C42467
:100E800090E08E159F0561F0612F8EE193E00E9446
:100E900018258EE193E00E943E2560E00E94102B11
:100EA0008EE193E00E941025BBC10091ED018EE719
:100EB00092E00E94C42490E08E159F0529F0612FD6
:100EC0008EE792E00E941825602F8EE792E00E9444
:100ED0005A1DA6C18091C801882309F4EDC162ECB6
:100EE00071E0CE0101960E94142FCE0101960E945E
:100EF0006D06CE0101960E94792E1092C80163E81A
:100F000071E082EC91E00E941D2FD6C1F090ED01BE
:100F10000E94CE290E94EC3020E030E04AE754E401
:100F20000E9453302091B6013091B7014091B80131
:100F30005091B9010E94882F2DEC3CEC4CE45EE30B
:100F40000E94163218165CF04091C901552747FDE2
:100F500050952F2D30E081E04217530709F080E0D3
:100F60000E943E0606C08091C9010E943E06109272
:100F7000C9011092CB011092CA019EC18EE193E08B
:100F80000E94C42490E08E159F0509F469C0612F6A
:100F90008EE193E00E9418258EE193E00E943E25A9
:100FA00060E05CC08EE193E00E94C42490E08E1566
:100FB0009F0599F0612F8EE193E00E9418258EE144
:100FC00093E00E943B2560E00E94102B8EE193E0AD
:100FD0000E943E2560E00E94102B60E08EE193E0CD
:100FE0000E94CA24182F60E08EE193E00E94DB2467
:100FF000612F70E0660F771F680F711D882777FDDE
:101000008095982F12C10091ED01C02ED12C8EE158
:1010100093E00E94C42490E08E159F0509F045C11D
:101020008EE193E00E94C72490E08C159D0509F0A5
:101030003CC1CA94CD2869F48EE193E00E943B251F
:1010400062E00E94102B60E08EE193E00E94CA24CF
:101050000CC08EE193E00E943E2562E00E94102BBE
:1010600060E08EE193E00E94DB24682F70E080E076
:1010700090E00E94EC30E4C0F701EE0FFF1FE05853
:10108000FE4FE4900091ED0160E08E2D0E94102B48
:101090008E2D0E946B2A11E00B970CF010E0812F2F
:1010A00080270E943E061093CF0106C187E592E09B
:1010B0000E94C42490E08E159F05A9F0612F87E55A
:1010C00092E00E94182587E592E00E943E25482F75
:1010D00087E592E04F830E943B254F81682F87E58B
:1010E00092E00E94A91487E592E00E94B214A8C081
:1010F0000091ED0180E592E00E94C42490E08E15FD
:101100009F0529F0612F80E592E00E94182580E577
:1011100092E00E94231A602F80E592E00E94FC1A60
:10112000BAC08AE492E00E94C42490E08E159F0524
:10113000A9F0612F8AE492E00E9418258AE492E0E7
:101140000E943B25482F8AE492E04F830E943E256F
:101150004F81682F8AE492E00E9408168AE492E0A8
:101160000E94181622C084E492E00E94C424282F12
:1011700030E02E153F05A9F0612F84E492E00E9433
:10118000182584E492E00E943B25482F84E492E0F5
:101190004F830E943E254F81682F84E492E00E9495
:1011A0001D1684E492E00E942D16BC01882777FD6D
:1011B0008095982F0E94EE300E94C1067DC06091FC
:1011C000ED0182E892E06F830E94AB166F8182E8A6
:1011D00092E00E943C1634C06BE172E0CE010196B1
:1011E0000E94142FCE0101960E946D06CE01019639
:1011F0000E94792E61C060E0812F0E94102B812F08
:101200000E947F2B0DC0F701EE0FFF1FE058FE4F2D
:10121000E49060E08E2D0E94102B8E2D0E946B2A90
:10122000BC01882777FD8095982F0E94EE3008C07A
:101230006091BA017091BB018091BC019091BD0198
:101240000E94920639C08EE392E00E94C424282FA7
:1012500030E02E153F0529F0612F8EE392E00E94C9
:1012600018258EE392E00E94302715C087E292E0B5
:101270000E94C424282F30E02E153F0529F0612F4D
:1012800087E292E00E94182581E02091CE019091A2
:10129000ED01291380E00E943E060EC0402F612F11
:1012A0008EE393E00E94AC26E2CD402F612F8EE1C9
:1012B00093E00E942825BDCE27960FB6F894DEBF96
:1012C0000FBECDBFDF91CF911F910F91FF90EF9097
:1012D000DF90CF9008950F931F93CF93DF931F92CA
:1012E000CDB7DEB71092E3018091E9018093E1016F
:1012F0000091EB0110E09091EA019230E1F018F4D6
:10130000913031F03BC09430D1F0953081F136C04E
:101310000130110531F089830E94300689810E94D5
:101320002B06C8010E94E7060F90DF91CF911F9115
:101330000F910C941D03C8010E94900318C069E02E
:1013400081E593E00E94182560E070E081E593E07C
:101350000E94C7156AE081E593E00E94182560E0CD
:1013600070E081E593E00E94C7150E94B8020F90DB
:10137000DF91CF911F910F910C9436060F90DF9162
:10138000CF911F910F91089510921A0283EF95E06B
:101390000E94D42B181619064CF481E080931A028F
:1013A00083EF95E00E94ED2B8093E201089560E0C9
:1013B00087E00E94470687E292E00E94840D8093B6
:1013C000CE010E94CE290E94EC3020E030E04AE7B6
:1013D00054E40E9453302091BE013091BF014091EE
:1013E000C0015091C1010E94882F6093BA0170938F
:1013F000BB018093BC019093BD0185EC92E00E94FB
:10140000621C892B09F440C08091C8028093C901F5
:101410000E94CE290E94EC3020E030E04AE754E4FC
:101420000E9453306093B6017093B7018093B80166
:101430009093B9016091C9016A3011F06D3041F4A7
:101440001092CB011092CA0181E08093C8012EC096
:1014500082EC91E00E94612F8091CA019091CB01B2
:101460000196813491052CF49093CB018093CA01AD
:101470001DC01092CB011092CA0163E871E082ECAA
:1014800091E00E941D2F12C08091CC019091CD015E
:1014900001969093CD018093CC012091C901121641
:1014A0004CF48938934134F01092C9011092CD0167
:1014B0001092CC010E94C40980911A02882309F479
:1014C00046C08091E2019091E301853561F491116C
:1014D0000AC08091D0018F3FE1F481E08093E50163
:1014E0008093E30116C08093D001992391F0E0919D
:1014F000E501E23019F48093E40107C0E33028F0FD
:101500009091E40191509093E401F0E0EA51FE4F94
:1015100080838091E5018F5F843318F48093E50127
:1015200004C01092E5011092E3018091E301882349
:1015300071F08091E40181110AC08091E50184304D
:1015400030F01092E3010E946B091092E5010895BA
:101550008091A10390E02091A203821B910908953C
:101560002091A2038091A103281750F4E22FF0E00C
:10157000ED55FC4F808190E02F5F2093A2030895EA
:101580008FEF9FEF0895E091A2038091A103E817E8
:1015900030F4F0E0ED55FC4F808190E008958FEF3E
:1015A0009FEF08950895CF92DF92EF92FF920F93ED
:1015B0001F93CF93DF937C01CB018A0120917D03A0
:1015C000222389F0EB016B01C40ED51ECC15DD057D
:1015D00069F06991D701ED91FC910190F081E02DC6
:1015E000C7010995F3CF642F0E942C0CC801DF912D
:1015F000CF911F910F91FF90EF90DF90CF900895C2
:10160000CF93DF931F92CDB7DEB7698320917D031F
:101610002223D1F020917E03203240F021E030E0FF
:10162000FC013383228380E090E015C080917F032A
:10163000E82FF0E0E058FC4F998190838F5F809312
:101640007F0380937E0305C061E0CE0101960E9476
:101650002C0C81E090E00F90DF91CF910895FC0178
:101660001382128248EE53E060E070E044835583B9
:101670006683778381E491E091838083089510925B
:10168000A2031092A10310927F0310927E030C9488
:10169000770B862F413208F040E263EA73E00E9444
:1016A000950B1092A2038093A103089581E080938B
:1016B0007D036093A00310927F0310927E03089530
:1016C0000F93062F21E040917E0360E873E0809144
:1016D000A0030E94D90B10927F0310927E031092F8
:1016E0007D030F91089581E793E00C942F0B1092E6
:1016F000300481E080932E0410922D0461E082E199
:101700000E94492B61E083E10E94492BE9EBF0E064
:1017100080818E7F808380818D7F808388E4809329
:10172000B80085E48093BC000895413208F03FC0C2
:10173000909130049111FCCF91E09093300420936C
:101740002E042FEF2093C30310920804240F20933C
:10175000070490932F0490912F04880F892B809376
:101760002F0480912D04813041F410922D0480913A
:101770002F048093BB0085EC01C085EE8093BC00F4
:10178000809130048130E1F380910804841710F4D3
:101790004091080429E034E0FB01D9018A2F821B23
:1017A000841718F48D918193F9CF842F089580E0E8
:1017B00008950F93413208F046C090913004911182
:1017C000FCCF92E09093300400932E049FEF90930F
:1017D000C3031092080440930704FB0169E074E01E
:1017E000DB019A2F961B941718F491919D93F9CFD2
:1017F00010922F0490912F04880F892B80932F042F
:1018000080912D04813041F410922D0480912F0499
:101810008093BB0085EC01C085EE8093BC00222341
:1018200021F0809130048230E1F38091C3038F3F37
:1018300061F08091C303803251F08091C303803303
:1018400041F483E007C081E005C080E003C082E08E
:1018500001C084E00F910895613298F42091300422
:10186000243089F46093E503FC0187EE93E0DC010A
:101870002A2F281B261718F421912D93F9CF80E0E9
:10188000089581E0089582E0089585ED8093BC007D
:101890008091BC0084FDFCCF10923004089585EC4B
:1018A0008093BC001092300408951F920F920FB6DF
:1018B0000F9211242F933F934F935F936F937F93D6
:1018C0008F939F93AF93BF93EF93FF938091B90052
:1018D000887F803609F49CC068F5883209F45BC0C3
:1018E00090F4803109F454C038F4882309F4F5C029
:1018F000883009F44DC0F5C0883109F44CC08032FD
:1019000009F45DC0EEC0803409F468C048F4803347
:1019100009F455C0883309F0E4C08093C303A8C01C
:10192000803509F44FC0883509F45DC0883409F06A
:10193000D8C0D5C0883909F4C6C0A8F4883709F4DE
:1019400067C038F4883609F463C0803709F460C092
:10195000C8C0883809F4B7C0803909F45FC080383E
:1019600009F0BFC05BC0803B09F485C038F4803A01
:1019700009F466C0883A09F47EC0B3C0803C09F41B
:10198000A6C0883C09F4A3C0883B09F489C0A9C05B
:1019900080912F0410C0909108048091070498173B
:1019A00070F5E091080481E08E0F80930804F0E068
:1019B000E75FFB4F80818093BB0085EC85C08093FF
:1019C000C3038DC0E091080481E08E0F809308046A
:1019D0008091BB00F0E0E75FFB4F808390910804AB
:1019E000809107046DC0E091080481E08E0F809320
:1019F00008048091BB00F0E0E75FFB4F808380919B
:101A00002E0481116CC081E080932D0484EA60C0B3
:101A100083E0809330041092C403CFCF8091C4033D
:101A2000803208F050C0E091C40381E08E0F8093B3
:101A3000C4038091BB00F0E0EB53FC4F8083BDCF2B
:101A40008091C403803230F4E091C403F0E0EB53A2
:101A5000FC4F10820E94450C6091C40370E0E0913D
:101A60002904F0912A0485EC93E009951092C403AF
:101A70000E944F0C36C084E0809330041092E6033D
:101A80001092E503E0912B04F0912C0409958091CC
:101A9000E503811105C081E08093E5031092E7031F
:101AA000E091E60381E08E0F8093E603F0E0E951D8
:101AB000FC4F80818093BB009091E6038091E50309
:101AC000981708F47ACF85E88093BC000AC085ECAB
:101AD0008093BC001092300404C01092C3030E9493
:101AE000450CFF91EF91BF91AF919F918F917F91A5
:101AF0006F915F914F913F912F910F900FBE0F907B
:101B00001F9018950C94AB24CF92DF92EF92FF9226
:101B10000F931F93CF93DF93EC010C891D890E94D3
:101B2000CE29CC80DD80EE80FF809B01AC012C199A
:101B30003D094E095F0969017A0139E0C316D104F4
:101B4000E104F104E8F16C837D838E839F83CE01F1
:101B50000E941025488559856A857B85452B462B33
:101B6000472B49F4AC01662757FD6095762F488BCB
:101B7000598B6A8B7B8B488959896A897B89841B3D
:101B8000950B97FF03C0919581959109449764F453
:101B90004C855D856E857F854F5F5F4F6F4F7F4FB3
:101BA0004C875D876E877F87488559856A857B85E9
:101BB0004F5F5F4F6F4F7F4F488759876A877B879B
:101BC00088859985AA85BB850597A105B105D1F4BE
:101BD000188619861A861B868C859D85AE85BF85DD
:101BE0000397A105B10540F088899989AA89BB8925
:101BF0008C019D8B8C8B02C00C891D891C861D86D7
:101C00001E861F86C80164E670E00E942B3468308F
:101C1000710528F4FB01E35BFE4F808101C080E089
:101C2000DF91CF911F910F91FF90EF90DF90CF90B8
:101C300008950C94AB240F931F93CF93DF93EC0183
:101C4000062F18E060E088850E94492B00FF02C043
:101C500061E001C060E089850E94492B069561E042
:101C600088850E94492B115069F760E088850E94A1
:101C7000492B61E089850E94492B61E088850E949B
:101C8000492B60E089850E94102B18EC89850E9401
:101C90007F2B892B59F01150C9F761E089850E948B
:101CA000102B60E089850E94492BEFCF61E0898588
:101CB000DF91CF911F910F910C94102BCF93DF9355
:101CC000EC0161E088850E94492B61E089850E94D2
:101CD000492B60E089850E94492B60E08885DF916F
:101CE000CF910C94492BCF93DF93EC0160E0888572
:101CF0000E94492B60E089850E94492B61E088851C
:101D00000E94492B61E08985DF91CF910C94492B8A
:101D1000CF92DF92FF920F931F93CF93DF931F9287
:101D2000CDB7DEB76C01F62E79830E945E0E60E4BB
:101D3000C6010E941B0EC6010E94730EC6010E94BE
:101D40005E0EF6016581C6010E941B0E0F2D798182
:101D5000172F84E0F82EF80161918F01C6010E94CF
:101D60001B0EFA94C1F7C6010E94730EC6010E94B1
:101D70005E0EF6016681C6010E941B0EC6010F9021
:101D8000DF91CF911F910F91FF90DF90CF900C9436
:101D9000730E4F925F926F927F928F929F92AF924B
:101DA000BF92CF92DF92EF92FF920F931F93CF9348
:101DB000DF9300D000D0CDB7DEB76A017B01890187
:101DC00037FD48C0B9016F5F7F4F882777FD809549
:101DD000982F0E94EE309B01AC0160E070E080E241
:101DE00091E40E94C9324B015C019B01AC01C70127
:101DF000B6010E9453300E9429312B013C01B801E9
:101E0000882777FD8095982F0E94EE309B01AC01CA
:101E100060E070E080E291E40E94C93269837A83D5
:101E20008B839C83A5019401C301B2010E94663299
:101E30009B01AC01C701B6010E94882F29813A811C
:101E40004B815C810E9453300E9429310E94BB303B
:101E5000CB011FC088249924821A930AA12CB12C8B
:101E600020E030E040E251E4C701B6010E94663252
:101E70006B017C018FEFA81AB80AA814B90484F387
:101E8000C701B6010E94BB30CB016AE070E00E943E
:101E90002B340F900F900F900F90DF91CF911F91E7
:101EA0000F91FF90EF90DF90CF90BF90AF909F90F9
:101EB0008F907F906F905F904F900895DB0180E04E
:101EC00090E22C91223208F09C93EC91F0E0E057E4
:101ED000FE4FE491ED938F5F843099F70895EF9270
:101EE000FF920F931F93CF93DF9300D000D0CDB715
:101EF000DEB78C01DB01FE013196CE0105967F0134
:101F00002D912193E817F907D9F7B701C8010E946D
:101F10005E0FB701C8010E94880E0F900F900F90BE
:101F20000F90DF91CF911F910F91FF90EF90089547
:101F3000CF93DF9300D000D0CDB7DEB720E2298366
:101F40002A832B832C83BE016F5F7F4F0E946F0F0C
:101F50000F900F900F900F90DF91CF910895CF9336
:101F6000DF93EC016A83E62FF0E0EE0FFF1FE65FE0
:101F7000FE4F81818983908198838887998761E06A
:101F80000E94102B61E089850E94102B80E48C83D5
:101F900080EC8D838AE88E83CE01DF91CF910C9403
:101FA000980F8F929F92AF92BF92CF92DF92EF9253
:101FB000FF920F931F93CF93DF9300D000D0CDB744
:101FC000DEB75C016A017B0119821A821B821C82C6
:101FD00020E030E0A901C701B6010E944F3087FF21
:101FE00009C0F7FAF094F7F8F09481E28983992414
:101FF000939401C0912C03E010E0812C9801B7016B
:10200000A601C5010E94C90E181619062CF000235E
:1020100019F08820B9F00CC001110AC0E1E0F0E02D
:10202000EC0FFD1FE90DF11D20E1280F208307C0F3
:10203000E1E0F0E0EC0FFD1FE90DF11D80839394CA
:102040008824839483E0891530F0015011090C3FF6
:102050008FEF180799F6BE016F5F7F4FC5010E9491
:102060006F0F0F900F900F900F90DF91CF911F91F6
:102070000F91FF90EF90DF90CF90BF90AF909F9027
:102080008F9008950E94AB2488E0809331040895D6
:102090004F925F926F927F928F929F92AF92BF9278
:1020A000CF92DF92EF92FF920F931F93CF93DF9324
:1020B00069017A019B0140E050E060E472E48FE046
:1020C00090E00E946134E901890137FF02C00F5F8F
:1020D0001F4F1595079561E0809131040E94102BE8
:1020E000A8EEB3E0A70196010E9495344B015C0174
:1020F000C12CD12C76012E01662457FC6094762CDD
:10210000C814D904EA04FB04A8F461E08091310406
:102110000E94492BC8010E94252A60E08091310469
:102120000E94492BC8010E94252AC40CD51CE61C1C
:10213000F71CE6CFDF91CF911F910F91FF90EF90A9
:10214000DF90CF90BF90AF909F908F907F906F90D7
:102150005F904F90089561E0809131040E94102BB0
:1021600060E0809131040C94492BCF93DF93EC0114
:1021700060E00E94B4248EE18B871C82DF91CF91B6
:102180000895AF92BF92CF92DF92EF92FF920F939A
:102190001F93CF93DF93CDB7DEB76A970FB6F8944E
:1021A000DEBF0FBECDBF8C01CE0101967C01C12CDC
:1021B000D12C5C01C6010E94CE36F70181937F01CC
:1021C000FFEFCF1ADF0A8AE1C816D10499F72D81F3
:1021D0003E814F81588569817A818B819C810E94E3
:1021E000892F29853A854B855C850E94892F2D850D
:1021F0003E854F8558890E94892F29893A894B89C4
:102200005C890E94892F2D893E894F89588D0E94B3
:10221000892F6B017C01698D70E080E090E00E9465
:10222000EE309B01AC01C701B6010E94892F20E06E
:1022300030E04AE253E40E94892F0E94C0308A8D28
:1022400068130CC08AE1F501D8011D9601900D922A
:102250008A95E1F781E0F801848302C0F8011482D5
:102260006A960FB6F894DEBF0FBECDBFDF91CF9157
:102270001F910F91FF90EF90DF90CF90BF90AF90A4
:102280000895CF92DF92EF92FF920F931F93CF9317
:10229000DF938C01EB012C813D814E815F81688150
:1022A00079818A819B810E94892F288539854A8579
:1022B0005B850E94892F2C853D854E855F850E9418
:1022C000892F288939894A895B890E94892F2C891D
:1022D0003D894E895F890E94892F6B017C01688D41
:1022E00070E080E090E00E94EE309B01AC01C701FD
:1022F000B6010E94892F20E030E04AE253E40E94B8
:10230000892F0E94C030698FE12CF12C6991C7019F
:102310000E94D6368FEFE81AF80AEAE1EE16F104C9
:10232000A9F781E0F8018483DF91CF911F910F918C
:10233000FF90EF90DF90CF900895EF92FF921F9360
:10234000CF93DF931F92CDB7DEB7162F7A01FC0132
:10235000638581E793E029830E94560B612F81E713
:1023600093E00E94000B2981813091F4422F50E0CC
:10237000B70181E793E00E94D30A61E081E793E02F
:102380000F90DF91CF911F91FF90EF900C94600B15
:102390008FEF0F90DF91CF911F91FF90EF900895F5
:1023A000CF93DF931F92CDB7DEB7498321E0AE0113
:1023B0004F5F5F4F0E949D110F90DF91CF91089565
:1023C000EF92FF920F931F93CF93DF93EC01F62EC2
:1023D0008A01E22E6B8581E793E00E94560B6F2DF8
:1023E00081E793E00E94000B813001F560E081E716
:1023F00093E00E94600B81112EC081E090E00E946A
:10240000252A21E04E2D6B8581E793E00E94490B40
:10241000E80100E010E0F12C81E793E00E94A80AB7
:10242000892B31F00E151F0574F002C08FEF13C019
:1024300081E090E00E94252A81E00E151F0509F435
:1024400080E0819508C00F5F1F4F81E793E00E94F5
:10245000B00A8993E1CFDF91CF911F910F91FF9047
:10246000EF900895CF93DF93EC01AC014B5F5F4F8A
:1024700023E06AE00E94E01181110AC08D81883456
:1024800039F48E81843321F481E09F81933309F004
:1024900080E0DF91CF910895CF92DF92EF92FF928B
:1024A0000F931F93CF93DF93EC016B018A017901A6
:1024B0000E949712AE014B5F5F4F26E063E0CE01B2
:1024C0000E94E011882321F0992787FD909526C06E
:1024D0008C85813031F441E062E070E0CE010E94F1
:1024E000D0118D8190E0982F88272E81822BF601C4
:1024F00091838083898590E0982F88272A85822B75
:10250000F801918380838F8190E0982F8827288518
:10251000822BF7019183808380E090E0DF91CF915F
:102520001F910F91FF90EF90DF90CF9008952F9221
:102530003F924F925F926F927F928F929F92AF9253
:10254000BF92CF92DF92EF92FF920F931F93CF93A0
:10255000DF93CDB7DEB76C970FB6F894DEBF0FBE32
:10256000CDBF8C0162E00E94CA248111B2C16AE031
:1025700070E080E090E00E94FD2962E0C8010E94C6
:10258000CA248111A6C1C8010E943212882309F40D
:10259000A0C10E94CE296B017C01712CBB24B39495
:1025A00062E0C8010E94CA24811115C00E94CE2990
:1025B0006C197D098E099F09693C7105810591059A
:1025C00078F30E94CE296B017C017B24672DC80122
:1025D0000E94FC24E5CF64E670E080E090E00E9479
:1025E000FD290E94CE294B015C012FEF3FE7388B7C
:1025F0002F8740E050E85E874D878FEF9FE79C87ED
:102600008B87E0E0F0E8FA87E98738872F83212C71
:1026100050E8352E662463940E94CE296C197D09FA
:102620008E099F09693C71058105910548F00E945A
:10263000CE296B017C017624672DC8010E94FC2401
:102640000E94CE29681979098A099B096B307105A6
:1026500081059105E0F19E012F5F3F4FAE014D5F77
:102660005F4FBE016B5F7F4FC8010E944C128D818E
:102670009E814F815885841795072CF028163906BE
:1026800024F41C0102C098878F838B819C81EB8589
:10269000FC858E179F0744F029853A85281739074E
:1026A0002CF49A87898702C09C878B8789819A81BD
:1026B0004F8558898417950744F0ED85FE85E81706
:1026C000F9072CF49E878D8702C0988B8F8762E074
:1026D000C8010E94CA2481119FCF60E0C8010E94F6
:1026E000FC24B101882777FD8095982F0E94EE3059
:1026F0006B017C012F813885B901882777FD809592
:10270000982F0E94EE30698B7A8B8B8B9C8B9B0170
:10271000AC01C701B6010E94892F905820E030E03B
:1027200040E05FE30E946632F8016587768787871D
:10273000908B29853A85B901882777FD8095982F58
:102740000E94EE302B013C014B855C85BA01882745
:1027500077FD8095982F0E94EE306D8B7E8B8F8B4E
:10276000988F9B01AC01C301B2010E94892F905840
:1027700020E030E040E05FE30E946632F801618BC8
:10278000728B838B948B2D853E85B901882777FDCD
:102790008095982F0E94EE304B015C014F8558893F
:1027A000BA01882777FD8095982F0E94EE30698FB7
:1027B0007A8F8B8F9C8F9B01AC01C501B4010E9465
:1027C000892F905820E030E040E05FE30E946632BD
:1027D000F801658B768B878B908F80E090E0A0E886
:1027E000BFE3818F928FA38FB48F29893A894B8958
:1027F0005C89C701B6010E94882F6B017C012D897D
:102800003E894F89588DC301B2010E94882FA701CC
:1028100096010E945330F801658F768F878F90A3C1
:10282000298D3A8D4B8D5C8DC501B4010E94882F96
:10283000A70196010E945330F80161A372A383A3FC
:1028400094A32F813885221A330A37FE03C03194AE
:102850002194310889859A854B855C85841B950B6D
:1028600097FF03C09195819591092D853E85EF8550
:10287000F8892E1B3F0B37FF03C031952195310995
:10288000821593052CF02215330514F081E009C060
:10289000281639062CF02817390714F082E001C0F9
:1028A00083E0F80185A3B801635F7F4FC8010E94F0
:1028B000411161E0C8010E94FC2462E0C8010E944D
:1028C000CA248823D1F364E670E080E090E00E949F
:1028D000FD296C960FB6F894DEBF0FBECDBFDF9119
:1028E000CF911F910F91FF90EF90DF90CF90BF900D
:1028F000AF909F908F907F906F905F904F903F90A0
:102900002F900895CF93DF93EC0181E793E00E942D
:102910003F0B61E0CE010E94FC2440E760E070E0E4
:10292000CE010E94D01140E261E070E0CE010E9431
:10293000D01181E08C8741E062E070E0CE010E941E
:10294000D011CE010E94C110CE01DF91CF910C9425
:1029500097126093330440933204FC0160834183F7
:102960000C9482142F923F924F925F926F927F92BB
:102970008F929F92AF92BF92CF92DF92EF92FF928F
:102980000F931F93CF93DF93CDB7DEB762970FB648
:10299000F894DEBF0FBECDBF8C010E9497129E013E
:1029A0002F5F3F4FAE014D5F5F4FBE016B5F7F4FAB
:1029B000C8010E944C12882349F0682F772767FDD1
:1029C0007095872F972F0E94EE30C5C0F801848143
:1029D0002D803E802B813C8138872F83882309F40A
:1029E00078C04584568467847088818C928CA38CCF
:1029F000B48CB901882777FD8095982F0E94EE301E
:102A0000F80121893289438954890E94892FF8016C
:102A1000258D368D478D50A10E9466320E94BB30B5
:102A20006F83788789879A8769817A81882777FD7C
:102A30008095982F0E94EE30F801258936894789C4
:102A4000508D0E94892FF80121A132A143A154A1E8
:102A50000E9466320E94BB306B877C878D879E8781
:102A6000F80115A1113041F42B853C85B901882767
:102A700077FD8095982F32C0B101882777FD80952A
:102A8000982F0E94EE30A30192010E94892FA50188
:102A900094010E9466320E94BB304B015C011230EF
:102AA00089F42B853C85B901882777FD8095982F7F
:102AB0000E94EE309B01AC01B401882777FD809520
:102AC000982F17C0133019F5882777FD8095982F18
:102AD00005C0B101882777FD8095982F0E94EE30C0
:102AE0009B01AC01EF81F885BF01882777FD8095B8
:102AF000982F2F87388B498B5A8B0E94EE302F8569
:102B0000388949895A890E94FC2F6B017C0120E099
:102B100030E0A901C701B6010E944F3087FF0DC008
:102B20002BED3FE049EC50E4C701B6010E94892F2C
:102B300020E030E044E353E406C020E030E044E32A
:102B400053E4C701B6010E9466322BED3FE049E431
:102B500050E40E94533062960FB6F894DEBF0FBE69
:102B6000CDBFDF91CF911F910F91FF90EF90DF903C
:102B7000CF90BF90AF909F908F907F906F905F901D
:102B80004F903F902F90089560E00C94B4240F93E1
:102B90001F93CF93DF938C016F3F710519F014F0F1
:102BA0006FEF70E0EB0161308FEF780714F4C1E054
:102BB000DFEFF801868197818C179D07C9F0D783D5
:102BC000C683D7FD06C061E0C8010E94FC24BE0197
:102BD00008C060E0C8010E94FC24662777276C1BB0
:102BE0007D0BC801DF91CF911F910F910C9414259B
:102BF000DF91CF911F910F91089584E394E00C949D
:102C0000F61984E394E00C941F1A60E00C94B42449
:102C1000CF93DF93EC016C834D838C8160E00E9445
:102C2000102B8D8188838C818983DF91CF910895CA
:102C30000C940C2560E00C94B424CF93DF93EC014A
:102C40006C834D838C8160E00E94102B8D81888382
:102C50008C818983DF91CF9108950C940C25CF93BB
:102C6000DF93EC0160E00E94B424CE5BDF4F88E686
:102C70008883DF91CF910895FC01613029F432857A
:102C80002385948585850DC0623029F43685278596
:102C90009089818906C0633029F432892389948917
:102CA0008589AC01632F722F852F942F0895EF92A1
:102CB000FF920F931F93CF93DF93F62E8A01E22E9C
:102CC000EC01CE5BDF4F688181E793E00E94560BF9
:102CD0006F2D81E793E00E94000B813001F560E0E9
:102CE00081E793E00E94600B81112EC081E090E0AB
:102CF0000E94252A21E04E2D688181E793E00E9401
:102D0000490BE80100E010E0F12C81E793E00E941C
:102D1000A80A892B31F00E151F0574F002C08FEF41
:102D200013C081E090E00E94252A81E00E151F0566
:102D300009F480E0819508C00F5F1F4F81E793E0A1
:102D40000E94B00A8993E1CFDF91CF911F910F913B
:102D5000FF90EF9008954F925F926F927F928F92C3
:102D60009F92AF92BF92CF92DF92EF92FF920F931A
:102D70001F93CF93DF93CDB7DEB72C970FB6F894A0
:102D8000DEBF0FBECDBF8C01AC014C5C5F4F2EE0AF
:102D90006BE30E9457168111C8C1F801A4A8B12C99
:102DA000BA2CAA2485A9A82AB3A2A2A2E6A8F12C2B
:102DB000FE2CEE2487A9E82AF5A2E4A280AC912C8F
:102DC000982C882481AD882A97A286A246805780B5
:102DD0006084718464AD70E0762F662785AD682BC2
:102DE000882777FD8095982F0E94EE30F80120A566
:102DF00031A542A553A50E94882FA30192010E94EC
:102E00005330F801668B778B808F918F66AD70E0C1
:102E1000762F662787AD682B882777FD8095982FBA
:102E20000E94EE30F80124A535A546A557A50E94BD
:102E3000882FA30192010E945330F801628F738F93
:102E4000848F958FE05CFF4F608170E0762F66275E
:102E500031968081682B882777FD8095982F0E9476
:102E6000EE30F80120A931A942A953A90E94882F68
:102E7000A30192010E945330F801668F778F80A3DF
:102E800091A3B701882777FD8095982F0E94EE3097
:102E90006B017C01B401882777FD8095982F0E94F3
:102EA000EE309B01AC010E9466322B013C01A70170
:102EB0009601C701B6010E946632A30192010E94E9
:102EC000892F0E9419339B01AC01B501882777FD3A
:102ED0008095982F29873A874B875C870E94EE3030
:102EE0004B015C0129853A854B855C850E94FC2F4E
:102EF00020E030E044E353E40E9466322AED3FE0F4
:102F000049E450E40E94533069837A838B839C8325
:102F1000A5019401C501B4010E946632A30192018A
:102F20000E94892F0E9419339B01AC01C701B60191
:102F30000E94FC2F20E030E044E353E40E9466321C
:102F40002AED3FE049E450E40E9453306D837E83D4
:102F50008F8398870E94CE29C0904F05D09050054E
:102F6000E0905105F09052056C197D098E099F097A
:102F70000E94EC3020E030E04AE754E40E945330F5
:102F80006B017C010E94CE2960934F057093500520
:102F90008093510590935205F80186A197A11816C8
:102FA000190644F5228D338D448D558DC701B60128
:102FB0000E9466329B01AC01F801628573858485AD
:102FC00095850E94882FF80162877387848795878B
:102FD00026893789408D518DC701B6010E9466321E
:102FE0009B01AC01F80166857785808991890E94F3
:102FF000892F28C0F801228D338D448D558DC7014E
:10300000B6010E9466329B01AC01F80162857385AE
:10301000848595850E94892FF8016287738784874C
:10302000958726893789408D518DC701B6010E9449
:1030300066329B01AC01F8016685778580899189AC
:103040000E94882FF80166877787808B918BF80123
:10305000268D378D40A151A1C701B6010E9466326D
:103060009B01AC01F80162897389848995890E946A
:10307000892FF801628B738B848B958B20E030E075
:1030800040E05FE3C701B6010E94892F9B01AC01BC
:1030900060E070E080E09FE30E9453306B017C01B0
:1030A0009B01AC0160E070E080E89FE30E94882F04
:1030B0004B015C01F8012285338544855585C701A4
:1030C000B6010E9466322B013C01A5019401698181
:1030D0007A818B819C810E9466329B01AC01C30185
:1030E000B2010E94892FF8016287738784879587D0
:1030F0002685378540895189C701B6010E9466320D
:103100006B017C01A50194016D817E818F81988581
:103110000E9466329B01AC01C701B6010E94892F53
:10312000F80166877787808B918B2C960FB6F89481
:10313000DEBF0FBECDBFDF91CF911F910F91FF90EA
:10314000EF90DF90CF90BF90AF909F908F907F9047
:103150006F905F904F9008952F923F924F925F92A1
:103160006F927F928F929F92AF92BF92CF92DF9297
:10317000EF92FF920F931F93CF93DF9300D000D075
:10318000CDB7DEB71C0104EF11E0812C912C540166
:10319000412C512C320119821A821B821C827C0123
:1031A00024E3E20EF11C26E0A70163E4C1010E94C2
:1031B0005716F10184A990E0982F882725A9822B22
:1031C000AA2797FDA095BA2F29813A814B815C816E
:1031D000280F391F4A1F5B1F29833A834B835C8367
:1031E00086A990E0982F882727A9822BAA2797FDE8
:1031F000A095BA2F480E591E6A1E7B1E80AD90E026
:10320000982F882721AD822BAA2797FDA095BA2F4A
:10321000880E991EAA1EBB1E0150110921F624EF2B
:10322000C22EDD24D394E12CF12C69817A818B812B
:103230009C81A70196010E946134CA01B9010E94D4
:10324000EE30F10160A771A782A793A7C301B20175
:10325000A70196010E946134CA01B9010E94EE30B3
:10326000F10164A775A786A797A7C501B401A701B7
:1032700096010E946134CA01B9010E94EE30F10149
:1032800060AB71AB82AB93AB0F900F900F900F9030
:10329000DF91CF911F910F91FF90EF90DF90CF9032
:1032A000BF90AF909F908F907F906F905F904F9066
:1032B0003F902F900895EF92FF921F93CF93DF934B
:1032C0001F92CDB7DEB7162F7A018E5B9F4FFC01A0
:1032D000608181E793E029830E94560B612F81E78B
:1032E00093E00E94000B2981813091F4422F50E03D
:1032F000B70181E793E00E94D30A61E081E793E0A0
:103300000F90DF91CF911F91FF90EF900C94600B85
:103310008FEF0F90DF91CF911F91FF90EF90089565
:10332000CF93DF931F92CDB7DEB7498321E0AE0183
:103330004F5F5F4F0E945B190F90DF91CF9108950F
:10334000CF93DF93EC0140E050E063E872E44E83FA
:103350005F83688779871A861B861C861D861E8672
:103360001F86188A198A1A8A1B8A1C8A1D8A1E8A35
:103370001F8A188E198E1A8E1B8E1C8E1D8E1E8E05
:103380001F8E18A219A21BA21AA21DA21CA21FA264
:103390001EA218A619A61AA61BA61CA61DA61EA626
:1033A0001FA618AA19AA1AAA1BAA81E793E00E94CD
:1033B0003F0B60E273E080E090E00E94FD2940E076
:1033C0006BE670E0CE010E94901941E06AE170E086
:1033D000CE010E94901948E06BE170E0CE010E949E
:1033E0009019CE01DF91CF910C94AC1821E030E020
:1033F000FC0131832083EE5FFE4F10821182128226
:1034000013823496108211821282138234961082B3
:103410003196108231961082118212821382349674
:10342000118210823296108231961082118212829D
:1034300013823496108211821282138208950895A5
:1034400060E00C94B4244F925F926F927F928F92BF
:103450009F92AF92BF92CF92DF92EF92FF920F9323
:103460001F93CF93DF9300D000D01F92CDB7DEB76C
:103470008C01CE0101966C0185E0F60111928A95CE
:10348000E9F760E0C8010E94FC2464E170E080E09C
:1034900090E00E94FD2961E0C8010E94FC2488E2BE
:1034A00090E00E94252A60E0C8010E94FC240E944E
:1034B000CE294B015C0160E0C8010E94DB24811130
:1034C0000EC00E94CE29681979098A099B096330C8
:1034D00071058105910578F3F801148215820E9427
:1034E000CE294B015C0160E0C8010E94DB248823E7
:1034F00059F00E94CE29681979098A099B0963301D
:1035000071058105910578F3E12CF12C0E94CE29FB
:103510004B015C0160E0C8010E94DB2481110BC0FB
:103520000E94CE29681979098A099B0963307105BF
:103530008105910578F30E94DA294B015C010E9414
:10354000CE292B013C0160E0C8010E94DB248823C6
:1035500059F00E94CE2964197509860997096330CC
:1035600071058105910578F30E94DA2968197909B6
:103570008A099B09F70123E0F595E7952A95E1F77C
:10358000693271058105910530F0EC0DFD1D8081DA
:10359000880F816004C0EC0DFD1D8081880F808341
:1035A000FFEFEF1AFF0A88E2E816F10409F0AECF48
:1035B00059814B81842F90E0850F911D2D8130E042
:1035C0008217930719F4F801548345830F900F90E5
:1035D0000F900F900F90DF91CF911F910F91FF905F
:1035E000EF90DF90CF90BF90AF909F908F907F90A3
:1035F0006F905F904F900895FC01611102C084812B
:103600000895858108951F920F920FB60F9211248D
:103610000F931F932F933F934F935F936F937F93DA
:103620008F939F93AF93BF93CF93EF93FF9382E0DA
:103630000E947F2BC82F2091590530915A052F5F8A
:103640003F4F30935A05209359058091BF0584362A
:1036500018F085E08093540590915405933079F0EB
:1036600018F4923039F070C0943011F1953009F4AB
:103670004AC06AC0C11168C01092BF0529C0C130DC
:1036800009F062C0E091BF0581E08E0F8093BF0515
:10369000F0E08091590590915A05ED5AFA4F8087D4
:1036A00010925A051092590584E0809354054CC03D
:1036B000C11114C0E091BF0581E08E0F8093BF055A
:1036C000F0E08091590590915A05ED5AFA4F8087A4
:1036D00010925A051092590583E0E7CF8091590561
:1036E00090915A058536910578F185E080935405CF
:1036F0000E94CE2960935505709356058093570517
:103700009093580521C00E94CE2900915505109133
:1037100056052091570530915805601B710B820B9F
:10372000930B693C71058105910540F01092BF052E
:1037300010925A051092590582E0B7CFC11104C00A
:1037400010925A0510925905FF91EF91CF91BF91B8
:10375000AF919F918F917F916F915F914F913F9129
:103760002F911F910F910F900FBE0F901F901895E2
:10377000F89482E08093B0008093B10094E6909337
:10378000B3001092B2008093700078941092BF053D
:103790008093540508950F931F93CF93DF93EC010B
:1037A0008C010C5E1F4F63E871E0C8010E94E72E98
:1037B00063E871E0CE014A960E94E72E60E082E065
:1037C0000E94102B82E08093530518A219A21AA21E
:1037D0001BA21B861A861C861A8A63E871E0C80140
:1037E0000E941D2F1B8ACE010E94B81B61E083E05E
:1037F0000E94102B60E083E0DF91CF911F910F9129
:103800000C94492B1F93CF93DF93FC01A681B781C2
:103810008C9186588D3558F480859185833091053B
:10382000A1F411968C9111978152893118F080E0A2
:1038300090E044C012968C9188508730C0F7158272
:1038400081E0808381E090E039C0833491057CF38E
:1038500011968C91119783548F3248F782E090E053
:1038600040E050E0BA019D012F5F3F4FEC01CA0FCD
:10387000DB1FC881C850C730D0F6E901C80FD91F77
:1038800018811751133180F47695679557954795B0
:10389000706802968234910549F780E285834183FE
:1038A000528363837483CCCFC881C850C73008F07B
:1038B000BECF7695679557954795EBCFDF91CF9122
:1038C0001F9108950F931F93CF93DF93EC018BE526
:1038D00095E09F838E838091BF0590E099878887CC
:1038E00080915405853081F4CE010E94021C8C0128
:1038F000CE010115110529F00E94B81B01E010E06E
:1039000005C00E94B81B02C000E010E0C801DF91B2
:10391000CF911F910F910895CB01E0EBF0E0208152
:10392000206220830C94252ACB01E0EBF0E020817B
:103930002F7D20830C94252A10927000262F30E0D2
:1039400040E050E060E47FE180E090E00E9461347C
:1039500081E08093B00089E08093B1002093B300B0
:103960008BEA289F212D112426952093B4000895D9
:10397000F89482E08093B0008093B10094E6909335
:10398000B3001092B2008093700078948093540535
:103990001092BF058091530560E00C94102BAF92FC
:1039A000BF92CF92DF92EF92FF920F931F93CF932C
:1039B000DF93EC016A017B01590166E20E949C1CC5
:1039C00068E273E2CE010E948C1C64E971E1CE01D1
:1039D0000E94941C00E010E060E372E0CE010A1542
:1039E0001B05ACF4C0FE05C00E948C1C60E476E0B0
:1039F00004C00E948C1C60E372E0CE010E94941C03
:103A0000F694E794D794C7940F5F1F4FE5CF0E94B9
:103A10008C1C60E070E0CE01DF91CF911F910F917F
:103A2000FF90EF90DF90CF90BF90AF900C94941CDC
:103A3000EF92FF920F931F93CF93DF937C018B0143
:103A40006AE0C8010E94612FC0E0D0E0F8018481E3
:103A50009581C817D90710F5BE01C8010E94852FAE
:103A6000482F409550E060E070E0762F652F542F8E
:103A70004427480F511D611D711DBA015527442768
:103A80004F6F20E230E0C7010E94CF1C64E170E07C
:103A900080E090E00E94FD292196D8CFC701DF91F8
:103AA000CF911F910F91FF90EF900C94B81C60E0A4
:103AB0000C94B424613049F40E940C258A5E914034
:103AC0002091C2053091C3050AC0623059F40E94AA
:103AD00010258A5E91402091C0053091C105820F6A
:103AE000931F089580E090E00895CF92DF92EF92C7
:103AF000FF920F931F93CF93DF93EC01162FF42EB9
:103B0000E52ED22E106C61E08C810E94492B60E082
:103B10008D810E94492B08E060E08C810E94492B36
:103B2000612F61708D810E94492B61E08C810E9420
:103B3000492B1695015081F7CF2C0F2D1E2D802F6C
:103B40008C198D15B0F4F801E1908F0188E0F82E02
:103B500060E08C810E94492B6E2D60788D810E94DF
:103B6000492B61E08C810E94492BEE0CFA9481F77D
:103B7000E6CF60E08C810E94492B60E08D810E943D
:103B8000492B61E08C810E94492B61E08D81DF919E
:103B9000CF911F910F91FF90EF90DF90CF900C94F9
:103BA000492B0C94AB240F931F93CF93DF93EC011D
:103BB000162F61E08C810E94492B60E08D810E946C
:103BC000492B08E060E08C810E94492B612F6170D5
:103BD0008D810E94492B61E08C810E94492B1695B2
:103BE000015081F760E08C810E94492B60E08D815B
:103BF0000E94492B61E08C810E94492B61E08D81FC
:103C0000DF91CF911F910F910C94492B20E030E070
:103C1000FC01E20FF31F10862F5F3F4F203131056B
:103C2000B9F721E0FC0126831782AC01485F5F4FA2
:103C300020E160E00C94751D693018F4662321F0D2
:103C400001C068E06150686060680C94D31DCF9338
:103C5000DF93EC01E62FF0E0EE0FFF1FE65FFE4F73
:103C600080818C8391819D836A8361E00E94102B07
:103C700061E08D810E94102B61E08C810E94492BB4
:103C800061E08D810E94492B60E4CE010E94D31D2A
:103C900065E0CE010E941C1ECE01DF91CF910C94F5
:103CA000061EFC01668308958F929F92AF92BF9289
:103CB000CF92DF92EF92FF920F931F93CF93DF93F8
:103CC00060310CF085C048300CF082C0222309F42A
:103CD0007FC0FC013681A42FBB27A7FDB095E8E08B
:103CE000F0E0EA1BFB0B5FEF01C0550FEA95EAF726
:103CF0004801C0E0D0E0772767FD70956C01C60EE3
:103D0000D71EAA24BB24AA1ABB0A332379F1C217EF
:103D100078F58E01060F171F17FD1AC07601EC0EFD
:103D2000FD1EF70130853523F4010081141644F49B
:103D300010E00A2E02C0159507950A94E2F705C017
:103D40000A2C01C0000F0A94EAF7032BF701008741
:103D50002196FFEF8F1A9F0ADACF8E01060F171FE9
:103D600017FF19C02196FFEF8F1A9F0AC217A8F3F9
:103D7000AC01485F5F4F20E160E0DF91CF911F9180
:103D80000F91FF90EF90DF90CF90BF90AF909F90FA
:103D90008F900C94751D7601EC0EFD1EF701308599
:103DA0003523F401008110E00095109514163CF4C1
:103DB0000A2E02C0159507950A94E2F705C00A2C51
:103DC00001C0000F0A94EAF7032BF7010087CACF5E
:103DD000DF91CF911F910F91FF90EF90DF90CF90E7
:103DE000BF90AF909F908F9008958F929F92AF92C7
:103DF000BF92CF92DF92EF92FF920F931F93CF93D8
:103E0000DF93EC01088D198D101611060CF073C0AC
:103E100080E090E0F82E8017910751F001968131F3
:103E2000910509F4E7C0FE01E80FF91F1782F2CFF0
:103E300040E1841709F4DEC00B8D1C8DE12C67E096
:103E4000D62E70E2C72E4E2D50E0401751070CF0D1
:103E500049C0B12CDE01A40FB51F5D962B2D30E0BB
:103E6000D29EC001D39E900D112487529E4FFC011B
:103E70006491603441F1FC016491EC91FF27E7FD0E
:103E8000F09570E0E617F707E1F4D29EB001D39EFB
:103E9000700D112420E030E066527E4FFB01E20FEE
:103EA000F31FE491DE01AF0DB11D1896EC93F3946E
:103EB000FFE0FF1540F02F5F3F4F2630310571F7CF
:103EC00002C0B394CBCFFC018491803429F4FE016D
:103ED000E40FF51FC58EEA94E394FFE0FF1508F0A8
:103EE000B2CF88C0FE01EF0DF11D1086F39440E1C2
:103EF000F412F8CF7FC0EB8CFC8C2AEFA7012403CF
:103F0000C001259F900D11240817190759F480E06E
:103F100090E0FE01E80FF91F1086019680319105AF
:103F2000C1F768C022273327201B310BC90166E087
:103F300070E00E942B34398F288F9B0190E047E07E
:103F4000B42E50E2A52E2E153F050CF04BC0912C3F
:103F5000DE01A20FB31F5D96692D70E0B69EA00131
:103F6000B79E500D112447525E4FFA01D490F0E4F1
:103F7000DF1631F1FA018490CC90DD24C7FCD09497
:103F8000E82DF0E0CE16DF06C1F4B69ED001B79E54
:103F9000B00D1124FD01E80FF11D87FDFA95E652E1
:103FA000FE4F6491FE01E90FF11D60879F5F903124
:103FB00030F48F5F863071F702C09394CDCF80E0EC
:103FC000FA014491403431F4FE01E20FF31FA58E53
:103FD000215031092F5F3F4F903108F4B4CF198F32
:103FE000088F08C0FE01E90FF11D10869F5F903118
:103FF000C9F7F5CF4A8D552747FD509527E030E0AA
:10400000241B350B80E090E037FD12C0FE01E80F65
:10401000F91F4085022E01C0440F0A94EAF7408739
:1040200001968031910591F78E818823A1F01FC000
:1040300047505109FE01E80FF91F208530E0042E9A
:1040400002C0359527950A94E2F7208701968031C2
:10405000910581F7E9CF80E090E0FE01E80FF91FBC
:10406000208520952087019680319105B1F7AE011A
:10407000485F5F4F20E160E0CE01DF91CF911F915B
:104080000F91FF90EF90DF90CF90BF90AF909F90F7
:104090008F900C94751D0F931F93FC0181E0878313
:1040A000148E138E038D148DD901A00FB11F8C9126
:1040B000DF01A00FB11F882319F00331110564F04F
:1040C0005D961C922AEF2003C001219F900D1124C0
:1040D0006817790774F007C05D968C930F5F1F4FC8
:1040E000148F038FDFCFCB016131710514F080E1B4
:1040F00090E0918F808F40310CF04FE047FD4FEF03
:10410000428FCF011F910F910C94F51ECF93DF9337
:10411000DC01362F862F6AE00E940B34C82FD0E0D6
:10412000FE01EE0FFF1FEC0FFD1FEE54FE4FE4915A
:104130001896EC931897FE01EE0FFF1FEC0FFD1F72
:10414000ED54FE4FE4911996EC931997FE01EE0F92
:10415000FF1FEC0FFD1FEC54FE4FE4911A96EC93F9
:104160001A971B961C921B97832F0E940B34692F62
:1041700070E0FB01EE0FFF1FE60FF71FEE54FE4F3E
:10418000E4911C96EC931C97FB01EE0FFF1FE60FCA
:10419000F71FED54FE4FE4911D96EC931D97FB0124
:1041A000EE0FFF1FE60FF71FEC54FE4FE4911E9633
:1041B000EC931E97842F6AE00E940B34682F70E006
:1041C000FB01EE0FFF1FE60FF71FEE54FE4FE491C9
:1041D0005196EC935197FB01EE0FFF1FE60FF71F6F
:1041E000ED54FE4FE4915296EC935297FB01EE0F83
:1041F000FF1FE60FF71FEC54FE4FE4915396EC932C
:10420000539754961C925497842F6AE00E940B3463
:10421000892F90E0FC01EE0FFF1FE80FF91FEE540D
:10422000FE4FE4915596EC935597FC01EE0FFF1F5E
:10423000E80FF91FED54FE4FE4915696EC93569714
:10424000FC01EE0FFF1FE80FF91FEC54FE4FE49145
:104250005796EC935797222341F088E21F968C9350
:104260001F9750968C93509706C01F961C921F97CD
:1042700050961C92509716968C911697882351F061
:10428000AD01485F5F4F20E160E0CD01DF91CF914C
:104290000C94751D80E090E0FD01E80FF91F20856A
:1042A00020952087019680319105B1F7E9CF2F92B3
:1042B0003F924F925F926F927F928F929F92AF92B6
:1042C000BF92CF92DF92EF92FF920F931F93CF9303
:1042D000DF93CDB7DEB72A970FB6F894DEBF0FBED7
:1042E000CDBF8C016A017B01922E2A013B0177FA36
:1042F000709477F8709420E030E0A901C701B6010E
:104300000E944F3087FF05C049865A86362C272CDD
:1043100004C0C986DA863E2C2F2C7AE0A72EB12C59
:1043200020E03EE34CE156E4C701B6010E9416329C
:1043300087FD03C089E08D83C5C020E030EE49E7EA
:1043400054ECC701B6010E944F30181624F08BE0E0
:104350008D8389E0B7C020E030E0A901C701B60134
:104360000E944F30882E881C8824881C712C60E0A5
:1043700070E080E09FE3791441F020E030E040E21B
:1043800051E40E9453307394F6CF9B01AC016985D0
:104390007A85832D922D0E94892F2B013C010E944A
:1043A000C0309B01462F972FE0E0842FB5010E947B
:1043B0001734A1E0B0E0AC0FBD1FAE0FB11D8AE015
:1043C000689F401911244C93EF5F6115710519F036
:1043D000462F972FEACF8E2F880D982F990D953065
:1043E00020F064E0962E981A9BCF8CE08D838E830C
:1043F0008F83888784E0891B882041F0DE01A80F25
:10440000B11D8BE015968C9385E0891BF82EFE0E6E
:104410008F2D8E1BEE2379F045E050E04C0F5D1F91
:10442000480F511DCE018E0F911DDC018C91DA01D8
:104430008C93E150EDCF992009F480C0B90180E060
:1044400090E00E94EC309B01AC01C301B2010E94DC
:10445000882FFB01DC01E62EDF2EC82EBB2E83E069
:10446000F8120FC020E030E040E251E4BF01CD017E
:104470000E9466320E94BB30672B39F58CE088873A
:104480005DC082E0F8120EC020E030E048EC52E45B
:10449000BF01CD010E9466320E94BB30672BA9F498
:1044A0008CE011C081E0F81210C020E030E04AE753
:1044B00054E4BF01CD010E9466320E94BB30672BDD
:1044C00021F48CE08E838F83DACFAA24A394AF0CDF
:1044D000E5E0F0E0EC0FFD1FEF0DF11D8AE08083B9
:1044E0009A94AFEF9A1651F120E030E040E251E4A7
:1044F0006E2D7D2D8C2D9B2D0E9466326B017C01D3
:104500000E94BB30882483948A0CE5E0F0E0EC0F35
:10451000FD1FEA0DF11D6083882777FD8095982F98
:104520000E94EE309B01AC01C701B6010E94882FAA
:10453000E62ED72EC82EB92EA82CD2CF8D8190E092
:10454000FC01EE0FFF1FE80FF91FEE54FE4FE49140
:10455000D8011896EC93FC01EE0FFF1FE80FF91F2E
:10456000ED54FE4FE491D8011996EC93FC01EE0F47
:10457000FF1FE80FF91FEC54FE4FE491D8011A9683
:10458000EC931A971B961C928E8190E0FC01EE0F23
:10459000FF1FE80FF91FEE54FE4FE491D8011C965F
:1045A000EC93FC01EE0FFF1FE80FF91FED54FE4FD7
:1045B000E491D8011D96EC93FC01EE0FFF1FE80F6C
:1045C000F91FEC54FE4FE491D8011E96EC931E9710
:1045D0001F961C928F8190E0FC01EE0FFF1FE80FE9
:1045E000F91FEE54FE4FE491D8015096EC93FC0174
:1045F000EE0FFF1FE80FF91FED54FE4FE491D801B5
:104600005196EC93FC01EE0FFF1FE80FF91FEC54DD
:10461000FE4FE491D8015296EC93529753961C9218
:10462000888590E0FC01EE0FFF1FE80FF91FEE54A4
:10463000FE4FE491D8015496EC93FC01EE0FFF1F5E
:10464000E80FF91FED54FE4FE491D8015596EC9315
:10465000FC01EE0FFF1FE80FF91FEC54FE4FE49131
:10466000D8015696EC93569757961C9257971696E4
:104670008C91882301F1A801485F5F4F20E160E041
:10468000C8012A960FB6F894DEBF0FBECDBFDF91EA
:10469000CF911F910F91FF90EF90DF90CF90BF903F
:1046A000AF909F908F907F906F905F904F903F90D2
:1046B0002F900C94751D80E090E0F801E80FF91F31
:1046C000208520952087019680319105B1F7D3CFC1
:1046D000089570E0FB01E05CFB4FE491DC01EC939A
:1046E000FB01EC5AFB4FE491F0E0EE0FFF1FE8599D
:1046F000FB4F25913491FC013283218308951F9350
:10470000CF93DF93FC011081C181D2819981812FE8
:104710008095892389838A81812B8A838AE090E02E
:104720000E94252A9881912381E009F480E0DF919D
:10473000CF911F910895FF920F931F93CF93DF9313
:10474000FC011081C181D281F8948981F12EF0940D
:104750008F2189838A81812B8A8378940DE7015088
:1047600041F182E090E00E94252A88818123B9F3FB
:10477000F8948A818F218A838981812B8983789417
:1047800080EE91E00E94252AF89489818F21898307
:104790008A81812B8A8386E490E00E94252A888181
:1047A000812301E009F000E078948AE991E00E9419
:1047B000252A802FDF91CF911F910F91FF900895AF
:1047C0001F93CF93DF93FC011081C181D281912F80
:1047D000909560FF12C0F8948A8189238A83898129
:1047E000812B89838AE090E00E94252A8A81812B8F
:1047F0008A83789487E390E011C0F8948A818923B2
:104800008A838981812B898381E490E00E94252A13
:104810008A81812B8A83789485E090E0DF91CF9123
:104820001F910C94252A0F931F93CF93DF93FC01C4
:104830001081C181D281F8948981812B89838A81F9
:10484000012F009580238A8383E090E00E94252A2F
:104850008981802389838A81812B8A838AE090E001
:104860000E94252AC881789485E390E00E94252A39
:104870001C2381E009F480E0DF91CF911F910F911B
:104880000895CF92DF92EF92FF920F931F93CF93F1
:10489000DF931F92CDB7DEB76C01E62E08E010E083
:1048A000FF24F39461E09F2D9E2109F460E0C6018E
:1048B00049830E94E023FF0C015011094981011531
:1048C000110581F741111DC0F894D6011196ED91A3
:1048D000FC91129791818C91809589238183119607
:1048E000ED91FC91129782819C91892B8283119684
:1048F000ED91FC91129792818C918095892382830E
:1049000078940F90DF91CF911F910F91FF90EF90CE
:10491000DF90CF900895EF92FF920F931F93CF9364
:10492000DF938C01C8E0D0E0F12CEE24E394C801C1
:104930000E9413248111FE28EE0C2197C1F78F2DC0
:10494000DF91CF911F910F91FF90EF90089540E07C
:104950006CEC0C944124FC0180910A0180838091CD
:104960000B01818312820895DC01E62FF0E0EE0F47
:10497000FF1FE65FFE4F80818C93818111968C939F
:10498000119712966C930895FC0182810895FC01A1
:1049900083810895CF93DF93EC0188810E94102BCF
:1049A00088810E947F2B21E0892B09F420E0822F4F
:1049B000DF91CF910895CF93DF93EC0189810E941D
:1049C000102B89810E947F2B21E0892B09F420E0A4
:1049D000822FDF91CF9108951F93CF93DF93EC0146
:1049E000162F61E088810E94102B612F8881DF9152
:1049F000CF911F910C94492B1F93CF93DF93EC0120
:104A0000162F61E089810E94102B612F8981DF912F
:104A1000CF911F910C94492BFC0180810C946B2A3F
:104A2000FC0181810C946B2AFC0180810C94882A02
:104A3000DC01E62FF0E0EE0FFF1FE65FFE4F808106
:104A40008C93818111968C93119712966C93089593
:104A5000DC01E62FF0E0EE0FFF1FE65FFE4F8081E6
:104A60008C93818111968C93119712966C93129767
:104A700013964C930895FC0180810895FC01818177
:104A80000895DC0112966C931297E62FF0E0EE0F7A
:104A9000FF1FE65FFE4F918111969C9311978081D5
:104AA0008C934230D9F4292F30E0F901E05CFB4FC0
:104AB000E4911C96EC931C97F901EC5AFB4FE4919E
:104AC000F0E0EE0FFF1FEE58FB4F25913491199641
:104AD0003C932E93189761E0892F19C0282F30E05E
:104AE000F901E05CFB4FE4911C96EC931C97F901F3
:104AF000EC5AFB4FE491F0E0EE0FFF1FEE58FB4F36
:104B00002591349119963C932E93189761E00C945B
:104B1000102BDC01862F262F30E0F901E05CFB4FE3
:104B2000E4911C96EC931C97F901EC5AFB4FE4912D
:104B3000F0E0EE0FFF1FEE58FB4F259134911996D0
:104B40003C932E93189761E00C94102BCF93DF9336
:104B5000EC01262F30E03D832C8323E0629FC001CF
:104B600011240E94A0349F838E83892B21F485E534
:104B700091E00E94A13680E090E04C815D819A0135
:104B8000220F331F240F351F8217930738F4EE814D
:104B9000FF81E80FF91F10820196EFCFDF91CF91CF
:104BA00008950F931F93CF93DF931F92CDB7DEB776
:104BB0008C0149830E94B424D80111968C91282F2E
:104BC00030E0F901E05CFB4FE491D8011C96EC93D6
:104BD000F901EC5AFB4FE491F0E0EE0FFF1FEE58A5
:104BE000FB4F25913491F8013187208761E00E94C5
:104BF000102B4981642FC8010F90DF91CF911F9135
:104C00000F910C94A6250F93FC01A62FB0E0848190
:104C10009581A817B907B8F4862F880F860F90E002
:104C2000A681B781A80FB91F2C93A681B781A80FC1
:104C3000B91F11964C930680F781E02DE80FF91FFC
:104C4000028381E001C080E00F910895CF92DF924E
:104C5000EF92FF920F931F93CF93DF937C01142F5A
:104C6000D22EC02E611113C0C0E0D0E0F7018481C4
:104C70009581C817D90748F40C2D2D2D412F6C2F85
:104C8000C7010E9403262196F1CF81E004C0615044
:104C90000E94032680E0DF91CF911F910F91FF903A
:104CA000EF90DF90CF9008950F93022F242F462F7F
:104CB00060E00E9426260F9108950F931F93D8015C
:104CC0003FB7F8949C91822F80958923292BFB0173
:104CD000460F571FE417F50781F0919168E02C9378
:104CE00000C097FF8C93990F00C000C000C008F46B
:104CF0008C9300C06A9599F7EDCF3FBF1F910F913C
:104D000008950F931F93FC0100851185248135813F
:104D1000A901440F551F420F531F668177812485D7
:104D20000E945D261F910F910895CF93DF93EC01B0
:104D30008E819F810E9438351F821E82DF91CF9124
:104D40000895CF93DF93EC010E94AB24CE0104962B
:104D5000DF91CF910C9468231F93CF93DF93EC01E5
:104D6000142F0E942825123011F4698101C0688136
:104D7000CE010496DF91CF911F910C946923CF92BD
:104D8000DF92EF92FF920F931F93CF93DF93CDB7F4
:104D9000DEB72C970FB6F894DEBF0FBECDBF8C01E7
:104DA0000C5F1F4FC8010E949B23C8010E94A724CB
:104DB00040E064E4C8010E9441240E94CE296B01B6
:104DC0007C01C8010E947F2381110BC00E94CE2963
:104DD0006C197D098E099F096E3E7240810591050F
:104DE00080F3C8010E949B23C8010E94A72440E0D1
:104DF0006EEBC8010E944124CE0101967C016E0138
:104E000096E0C90ED11CC8010E948B24F701819342
:104E10007F01EC15FD05B9F76A8170E0762F6627F2
:104E20008981682B882777FD8095982F0E94EE3026
:104E300020E030E040E85DE30E9466322C960FB639
:104E4000F894DEBF0FBECDBFDF91CF911F910F91C0
:104E5000FF90EF90DF90CF90089560E00C94B42421
:104E600060E00C94DB2460E00C94B424CF92DF92D9
:104E7000EF92FF92CF93DF9300D000D0CDB7DEB793
:104E80007C019A01AB0160E029833A834B835C8308
:104E90000E94FC2482E090E00E94252A61E0C70184
:104EA0000E94FC248AE090E00E94252A60E0C7016D
:104EB0000E94FC2460E0F70181810E94102B29816F
:104EC0003A814B815C8161E0F70181810E94A82BCE
:104ED0006B017C0188EC90E00E94252AC701B60195
:104EE0000F900F900F900F90DF91CF91FF90EF9068
:104EF000DF90CF90089527E3269FA001279F500DB4
:104F0000112448535F4F60E070E00E9436270E94F2
:104F1000EE3020E030E048E652E40E94533008953D
:104F20001F920F920FB60F9211242F933F934F931E
:104F30005F936F937F938F939F93AF93BF93EF9301
:104F4000FF938091C50587FF05C0109285001092E0
:104F500084001AC02091C505332727FD3095809124
:104F6000C40590E0281739077CF48091C50599277E
:104F700087FD9095FC01EE0FFF1FE80FF91FEA5324
:104F8000FA4F808187FD15C08091C5058F5F8093A2
:104F9000C5052091C505332727FD30958091C405AF
:104FA00090E028173907BCF48091C5058C305CF17E
:104FB00012C08091C505992787FD9095FC01EE0FE1
:104FC000FF1FE80FF91FEA53FA4F808160E08F77E7
:104FD0000E94492BD9CF809184009091850004963E
:104FE00080349C4918F480E49CE905C080918400D9
:104FF00090918500049690938900809388008FEFAC
:105000008093C50538C0209184003091850080913F
:10501000C505992787FD9095FC01EE0FFF1FE80F4E
:10502000F91FEA53FA4F81819281820F931F909367
:105030008900809388008091C505992787FD909508
:10504000FC01EE0FFF1FE80FF91FEA53FA4F8081B2
:1050500087FF11C08091C505992787FD9095FC01B8
:10506000EE0FFF1FE80FF91FEA53FA4F808161E04E
:105070008F770E94492BFF91EF91BF91AF919F9144
:105080008F917F916F915F914F913F912F910F90F1
:105090000FBE0F901F9018952091C4052C30A0F4DE
:1050A00031E0320F3093C405FC012083822F90E061
:1050B000FC01EE0FFF1FE80FF91FEA53FA4F88EBD0
:1050C0009BE09283818308952FEFFC012083089554
:1050D000DF92EF92FF920F931F93CF93DF93EC0138
:1050E000D62E7A01890188818C3008F066C061E093
:1050F0008D2D0E94102B8881A82FB0E0FD01EE0FAE
:10510000FF1FEA0FFB1FEA53FA4F2D2D2F779081D7
:105110009078922B908360E272E06E197F0977FF9E
:1051200002C06D5F7F4F759567957595679569832B
:1051300040E659E0401B510B57FF02C04D5F5F4FE7
:1051400055954795559547954A836CE00E940B34D9
:105150009CE0899FB001112420E030E0A901460FB6
:10516000571FFA01EE0FFF1FE40FF51FEA53FA4F26
:10517000908197FD16C02F5F3F4F2C30310571F79E
:1051800081110FC01092800082E080938100109204
:10519000850010928400B19A80916F0082608093A4
:1051A0006F00888190E0FC01EE0FFF1FE80FF91FF0
:1051B000EA53FA4F8081806880838881DF91CF91A4
:1051C0001F910F91FF90EF90DF90089520E639E056
:1051D00040E252E00C946828FC0180818C3070F52C
:1051E000918128E830E0291B310997FD3395220F82
:1051F000331F220F331F621773077CF0928128E55B
:1052000032E0291B310997FD3395220F331F220FFE
:10521000331F621773070CF49B0122503109220FD0
:10522000331F4FB7F89490E0FC01EE0FFF1FE80F1B
:10523000F91FEA53FA4F328321834FBF08954F92EB
:105240005F926F927F92AF92BF92CF92DF92EF9276
:10525000FF920F931F93CF93DF93EC01603282E0B4
:1052600078070CF040C077FD06C0653B71052CF057
:1052700064EB70E002C060E070E0898128E830E013
:10528000281B310987FD3395220F331F220F331F4F
:105290005901CC24B7FCC094DC2C882777FD80957D
:1052A000982F2A8148E552E0421B510927FD53956A
:1052B000440F551F440F551F2A01662457FC609464
:1052C000762C7F926F925F924F9214EBE12EF12C2D
:1052D00000E010E020E030E0A9010E94322E0F90A3
:1052E0000F900F900F90CE01DF91CF911F910F91F2
:1052F000FF90EF90DF90CF90BF90AF907F906F9036
:105300005F904F900C94EC281F920F920FB60F9263
:1053100011242F933F938F939F93AF93BF938091CB
:10532000EB059091EC05A091ED05B091EE05309163
:10533000EA0523E0230F2D3720F40196A11DB11DAE
:1053400005C026E8230F0296A11DB11D2093EA0592
:105350008093EB059093EC05A093ED05B093EE05DB
:105360008091EF059091F005A091F105B091F205C3
:105370000196A11DB11D8093EF059093F005A093B8
:10538000F105B093F205BF91AF919F918F913F913D
:105390002F910F900FBE0F901F9018952FB7F89474
:1053A0006091EB057091EC058091ED059091EE0513
:1053B0002FBF08953FB7F8948091EF059091F005C5
:1053C000A091F105B091F20526B5A89B05C02F3F2D
:1053D00019F00196A11DB11D3FBF6627782F892FB7
:1053E0009A2F620F711D811D911D42E0660F771F7C
:1053F000881F991F4A95D1F70895CF92DF92EF92B7
:10540000FF92CF93DF936B017C010E94DA29EB01BD
:10541000C114D104E104F10489F00E94872F0E9495
:10542000DA296C1B7D0B683E734090F381E0C81A4B
:10543000D108E108F108C851DC4FEACFDF91CF91E4
:10544000FF90EF90DF90CF9008958230910538F073
:10545000880F991F880F991F05970197F1F70895F5
:10546000789484B5826084BD84B5816084BD85B53F
:10547000826085BD85B5816085BDEEE6F0E0808106
:1054800081608083E1E8F0E0108280818260808327
:10549000808181608083E0E8F0E0808181608083AA
:1054A000E1EBF0E0808184608083E0EBF0E08081DC
:1054B00081608083EAE7F0E080818460808380817E
:1054C0008260808380818160808380818068808326
:1054D0001092C10008958E3008F08E508770209190
:1054E000280190E4299F90011124822B80937C0055
:1054F00080917A00806480937A0080917A0086FDA2
:10550000FCCF809178002091790090E0922B089553
:105510001F93CF93DF93182FEB0161E00E94102BB4
:10552000209711F460E004C0CF3FD10539F461E069
:10553000812FDF91CF911F910C94492BE12FF0E047
:10554000E45DFB4FE491E330F9F048F4E130B9F069
:10555000E230A1F584B5806284BDC8BD34C0E730B7
:10556000E9F0E83019F1E43049F58091800080627B
:1055700080938000D0938B00C0938A0024C084B5B0
:10558000806884BDC7BD1FC0809180008068809303
:105590008000D0938900C093880015C08091B0002E
:1055A00080688093B000C093B3000DC08091B000BC
:1055B00080628093B000C093B40005C0C038D105AC
:1055C0000CF0B5CFAFCFDF91CF911F91089583300D
:1055D00081F028F4813099F08230A1F0089587306D
:1055E000A9F08830B9F08430D1F4809180008F7DAB
:1055F00003C0809180008F7780938000089584B5E8
:105600008F7702C084B58F7D84BD08958091B000EE
:105610008F7703C08091B0008F7D8093B000089594
:10562000CF93DF9390E0FC01E05CFB4F2491FC0101
:10563000EC5AFB4F8491882349F190E0880F991F21
:10564000FC01E458FB4FA591B4918E589B4FFC018F
:10565000C591D4919FB7611108C0F8948C912095A1
:1056600082238C93888182230AC0623051F4F8949B
:105670008C91322F309583238C938881822B888361
:1056800004C0F8948C91822B8C939FBFDF91CF91B3
:1056900008950F931F93CF93DF931F92CDB7DEB77B
:1056A000282F30E0F901E45DFB4F8491F901E05CC3
:1056B000FB4F1491F901EC5AFB4F04910023C9F000
:1056C000882321F069830E94E72A6981E02FF0E0B6
:1056D000EE0FFF1FEE58FB4FA591B4919FB7F894C2
:1056E0008C91611103C01095812301C0812B8C9393
:1056F0009FBF0F90DF91CF911F910F910895CF938E
:10570000DF93282F30E0F901E45DFB4F8491F9012C
:10571000E05CFB4FD491F901EC5AFB4FC491CC23D0
:1057200091F081110E94E72AEC2FF0E0EE0FFF1FAD
:10573000E859FB4FA591B4912C912D2381E090E085
:1057400021F480E002C080E090E0DF91CF910895E5
:105750000F931F93762F90E0FC01E05CFB4F649168
:10576000FC01EC5AFB4FE4917111762FF0E0EE0F43
:10577000FF1FE859FB4F8591949189019A013F7071
:10578000472F0E947302611571058105910531F063
:105790006F5F7F4F8F4F9F4F9F7003C060E070E03F
:1057A000CB011F910F910895FC01818D228D90E016
:1057B000805C9F4F821B91098F7399270895FC018C
:1057C000918D828D981731F0828DE80FF11D858DB6
:1057D00090E008958FEF9FEF0895FC01918D828DE9
:1057E000981761F0828DDF01A80FB11D5D968C9135
:1057F000928D9F5F9F73928F90E008958FEF9FEF40
:10580000089581E79DE2892B49F080E090E0892BA3
:1058100029F00E94712D81110C9400000895FC0163
:10582000848DDF01A80FB11DA35ABF4F2C91848D29
:1058300090E001968F739927848FA689B7892C935E
:10584000A089B1898C9180648C93938D848D9813F9
:1058500006C00288F389E02D80818F7D80830895C2
:10586000CF93DF93EC01888D8823C9F0EA89FB8907
:10587000808185FD05C0A889B9898C9186FD0FC0FE
:105880000FB607FCF5CF808185FFF2CFA889B989D3
:105890008C9185FFEDCFCE010E940F2CE7CFDF91D9
:1058A000CF910895CF92DF92FF920F931F93CF93E2
:1058B000DF931F92CDB7DEB76C0181E0D601589619
:1058C0008C9358975B969C915B975C968C915C97B8
:1058D000981307C05096ED91FC915197808185FDFA
:1058E0002EC0F601038D10E00F5F1F4F0F731127BD
:1058F000F02EF601848DF81211C00FB607FCF9CF17
:10590000D6015096ED91FC915197808185FFF1CFA2
:10591000C60169830E940F2C6981EBCF838DE80F4C
:10592000F11DE35AFF4F6083D6015B960C935B97A2
:105930005296ED91FC915397808180620CC0D60104
:105940005696ED91FC91579760835096ED91FC919E
:10595000519780818064808381E090E00F90DF9197
:10596000CF911F910F91FF90DF90CF900895BF923C
:10597000CF92DF92EF92FF92CF93DF93EC016A0117
:105980007B01B22EE889F98982E08083411581EE9E
:10599000580761057105A1F060E079E08DE390E0C2
:1059A000A70196010E943F34215031094109510954
:1059B0005695479537952795211580E1380798F03A
:1059C000E889F989108260E874E88EE190E0A70127
:1059D00096010E943F3421503109410951095695E1
:1059E000479537952795EC85FD853083EE85FF85B6
:1059F0002083188EEC89FD89B082EA89FB89808139
:105A000080618083EA89FB89808188608083EA895C
:105A1000FB89808180688083EA89FB8980818F7D12
:105A20008083DF91CF91FF90EF90DF90CF90BF9078
:105A300008951F920F920FB60F9211242F938F93F8
:105A40009F93EF93FF93E0910306F091040680810A
:105A5000E0910906F0910A0682FD12C090818091C2
:105A60000C068F5F8F7320910D06821751F0E09125
:105A70000C06F0E0ED50FA4F958F80930C0601C0B4
:105A80008081FF91EF919F918F912F910F900FBE89
:105A90000F901F9018951F920F920FB60F9211241E
:105AA0002F933F934F935F936F937F938F939F9326
:105AB000AF93BF93EF93FF9383EF95E00E940F2C7A
:105AC000FF91EF91BF91AF919F918F917F916F91D6
:105AD0005F914F913F912F910F900FBE0F901F90AC
