:1000000018C300000C94244C0C94554C0C94864C52
:100010000C94B74C0C94E84C0C94194D0C944A4D2C
:100020000C947B4D0C94FA490C94FA490C94FA49BF
:1000300031C300000C94C6322DC300002BC3000056
:1000400029C300000C940A4425C3000023C3000008
:1000500021C300001FC300001DC300000C94AC4D61
:1000600019C300000C9441520C94775213C3000042
:1000700011C300000FC300000DC300000BC300003C
:100080000C94374407C3000005C3000003C30000FD
:1000900001C30000FFC20000FDC200000C94DB475A
:1000A000F9C20000F7C200000C946444F3C20000DF
:1000B000F1C20000EFC20000EDC200000C949144B8
:1000C000E9C20000E7C20000E5C200000C94EC5257
:1000D0000C942253DFC200000C9497530C94CD5320
:1000E000D9C20000F91635156215781578158F15E7
:1000F000E8167815EB17EB17EB17EB17EB17EB1769
:10010000EB17EC15AC150A16EB17EB17EB173916B6
:1001100081178716A716C7166716EB17EB17EB178D
:1001200007170E17EB17EB17EB17EB1730171D1709
:10013000EB17EB17EB17EB17EB17EB17EB17EB17AF
:10014000EB17EB17EB17EB1768177117EB17EB179C
:10015000EB17EB17EB17EB17EB17EB17E5179717E9
:10016000FE4BC84BD04BDC4BE94B0A4C174C004FB5
:10017000054F0A4F144F1E4F974F284F304F384F9F
:10018000424F4C4F564F654F6F4F974F794F834FAC
:100190008D4FB94FBC4FAB4FAF4FB54FF34FC04F23
:1001A000C44FCA4FCE4FD24FD84FDC4FE04FF34F22
:1001B000E64FEA4FEE4F084AD73B3BCE016E84BC78
:1001C000BFFDC12F3D6C74319ABD56833DDA3D00B1
:1001D000C77F11BED9E4BB4C3E916BAAAABE0000FA
:1001E00000803F08000000BE922449123EABAAAA3C
:1001F0002ABECDCCCC4C3E00000080BEABAAAAAA41
:100200003E00000000BF000000803F000000000032
:10021000084178D3BB4387D1133D190E3CC3BD427F
:1002200082AD2B3E68EC8276BED98FE1A93E4C8030
:10023000EFFFBE01C4FF7F3F0000000000076342E4
:1002400036B79BD8A71A39685618AEBAAB558C1D6D
:100250003CB7CC5763BD6DEDFD753EF6177231BFEF
:10026000000000803F003F065B4F666D7D077F6F9B
:10027000777C395E7971BF86DBCFE6EDFD87FFEFD6
:10028000F7FCB9DEF9F100407C447C007C005C5452
:100290007454547C70107C74545C7C545C40407C7E
:1002A0007C547C74547C000400202020000000203A
:1002B00000000000000030007C82827C003100429F
:1002C000FE0200003200468A92620033004492929D
:1002D0006C0034001C64FE04003500F292928C0025
:1002E00036007C92924C003700C08E90E0003800BF
:1002F0006C92926C0039006492927C006100042A36
:100300002A1E006200FE12120C0063000C12121270
:100310000064000C1212FE0065001C2A2A180066F8
:1003200000103E50500067000815151E006800FEC2
:10033000101E00006900002E0000006A0002012E5D
:1003400000006B00FE081412006C0000FE020000AA
:100350006D001E100E100E6E001E10100E006F00AD
:100360000C12120C0070001F12120C0071000C1203
:10037000121F0072001E08101000730012292512AF
:10038000007400103E12000075001C02021E007670
:100390001804020418007718061C061800780012CA
:1003A0000C0C120079001805051E007A0012161AAE
:1003B000120041007E88887E004200FE92926C000E
:1003C00043007C828244004400FE82827C0045001F
:1003D000FE929282004600FE9090800047007C8250
:1003E000925C004800FE1010FE00490082FE820070
:1003F000004A000C0202FC004B00FE1028C6004C14
:1004000000FE020202004D00FE403040FE4E00FEA3
:10041000403008FE4F007C8282827C5000FE90902B
:10042000600051007C828A847A5200FE98946200B7
:1004300053006492924C00540080FE80800055006E
:10044000FC0202FC005600F00C020CF05700FE0407
:100450003804FE5800C63838C60059C0201E20C0D7
:10046000005A00869AB2C2002C00010E0C00002E29
:10047000000006060000257254781E2A4E21000056
:100480007A0000003F00204A3000002D00101010BC
:1004900010002B08083E0808002F00020C30400016
:1004A0002A2214081422003A00001400000022003E
:1004B000C000C000002328FE28FE28002800007C81
:1004C000820000290000827C00003B000224000022
:1004D000007E0040804080003B0002240000003D80
:1004E0000028282828007C0000FE0000003E008232
:1004F000442810003C001028448200400000000006
:10050000000000000A0B02090C0D0E08070304018D
:1005100000000000000000000000000000000000DB
:1005200000000000000000000000000000001211A8
:1005300010000000000000000000000000000000AB
:100540000000000000000000010210202008081038
:100550002040102040800201020108040201010233
:10056000040810204080804020100804020180040C
:100570000201804020100804020108040201010267
:100580000408102040800102040810204080050566
:100590000505070508080808020202020A0A0808F9
:1005A0000404040401010101010101010303030327
:1005B00003030303040707070C0C0C0C0C0C0C0CB6
:1005C0000202020206060606060606060B0B0B0BC7
:1005D0000B0B0B0B000020002300260029002C0031
:1005E0002F00320000010000030106010901000094
:1005F0002200250028002B002E00310034000201CB
:100600000000050108010B01000021002400270063
:100610002A002D0030003300010100000401070111
:100620000A01E7138D22FA46A9525453FF535B1473
:10063000912211241FBECFEFD1E2DEBFCDBF00E07B
:100640000CBF13E0A0E0B2E0EAE6FBEB00E00BBF7A
:1006500002C007900D92AE3BB107D9F72EE0AEEB8A
:10066000B3E001C01D92A43EB207E1F716E0CEE26E
:10067000D6E000E006C022970109FE010BBF0E94F0
:10068000EC5AC232D10780E00807A9F70E94435410
:100690000C94A45DB5CCCF92DF92EF92FF920F93B2
:1006A0001F93E82FF92F05C00150110921093109C5
:1006B00061F1908196239417B9F305C00150110997
:1006C0002109310911F1908196239413F7CFC12CA0
:1006D000D12CE12CF12C0AC08FEFC81AD80AE80AF5
:1006E000F80A0C151D052E053F0579F0808186233B
:1006F000841791F36C2D7D2D8E2D9F2D1F910F91C1
:10070000FF90EF90DF90CF90089560E070E080E080
:1007100090E01F910F91FF90EF90DF90CF900895A0
:1007200088E097E00E949A220E946250892B21F46F
:1007300088E097E00C94B32288E097E00C94A5221F
:1007400088E896E00E949A220E946250892B21F448
:1007500088E896E00C94B32288E896E00C94A522F1
:1007600088E096E00E949A220E946250892B21F430
:1007700088E096E00C94B32288E096E00C94A522E1
:1007800088E895E00E949A220E946250892B21F409
:1007900088E895E00C94B32288E895E00C94A522B3
:1007A0000C94965D0C948E5DCF92DF92EF92FF9247
:1007B0000F931F93CF93DF931F921F92CDB7DEB796
:1007C0006C018B017C0184E0E80EF11CC601698399
:1007D0007A830E948E5DF80181938F01FFEFCF1A1B
:1007E000DF0A69817A81CE14DF0481F7CB010F9093
:1007F0000F90DF91CF911F910F91FF90EF90DF90BD
:10080000CF900895EF92FF920F931F93CF93DF93B2
:100810001F92CDB7DEB77C01FC0100811181C801B8
:1008200069830E948E5D6981681719F0C8010E9472
:10083000965DC7010F90DF91CF911F910F91FF90AF
:10084000EF900895BF92CF92DF92EF92FF920F93B5
:100850001F93CF93DF9300D0CDB7DEB78C01B62EB8
:10086000E62EF72E6C0184E0C80ED11CF7016191D1
:100870007F011A830983CE0101967B83C3DF0F5F5B
:100880001F4F7B810C151D0589F78B2D972F0F901E
:100890000F900F90DF91CF911F910F91FF90EF90EC
:1008A000DF90CF90BF900895CF92DF92EF92FF92AA
:1008B0000F931F93CF93DF931F921F92CDB7DEB795
:1008C0006C018C0183E5E82EF12CF80161918F0118
:1008D000FA82E982CE01019695DFFFEFEF1AFF0A57
:1008E00087E5E816F10489F7C6010F900F90DF91B4
:1008F000CF911F910F91FF90EF90DF90CF900895CF
:100900006BEA80E590E04CDF6DEC81E590E048DF3C
:100910006BEA82E590E044DF8AE092E0C5DF64E6BE
:1009200074E087E590E08EDF68E674E08BE590E0A8
:1009300089DF6CE674E08FE590E084DF64E474E0C6
:1009400083E690E07FDF68E474E087E690E07ADF9A
:100950006CE474E08BE690E075DF64E274E08FE6AF
:1009600090E070DF6FEE83E790E01ADF6BEA82E9D8
:1009700090E016DF60915C0583E990E011DF6FEE97
:1009800084E990E00DCF6BEA80E990E009DF6DEC3F
:1009900081E990E005DF6BEA82E990E001DF609198
:1009A0005C0583E990E0FCDE6FEE84E990E0F8CE30
:1009B0000F931F93CF93DF9380E590E0F3DE8B3AA4
:1009C00029F481E590E0EEDE8D3C71F099DF80E95D
:1009D00090E0E8DE8B3A09F04BC081E990E0E2DE7E
:1009E0008D3C09F045C049C082E590E0DBDE8B3AE2
:1009F00009F037C083E790E0D5DE8F3E91F50AE03D
:100A000012E0C3E5D0E0CE010E948E5DF801819333
:100A10008F012196C735D105B1F764E674E087E50B
:100A200090E0C2DE68E674E08BE590E0BDDE6CE647
:100A300074E08FE590E0B8DE64E474E083E690E073
:100A4000B3DE68E474E087E690E0AEDE6CE474E068
:100A50008BE690E0A9DE64E274E08FE690E0A4DE2D
:100A6000B6CF6BE972E083E09DE00E94B154AFCF56
:100A7000DF91CF911F910F9186CF82E990E092DEB6
:100A80008B3A81F484E990E08DDE8F3E59F483E95E
:100A900090E00E948E5D80935C05DF91CF911F9165
:100AA0000F91089561EC72E083E09DE0DF91CF91BA
:100AB0001F910F910C94B154609112027091130226
:100AC00088E097E00E94DB2260911202709113028D
:100AD00071956195710988E896E00C94DB2260912C
:100AE00012027091130271956195710988E097E087
:100AF0000E94DB22609112027091130288E896E056
:100B00000C94DB22609112027091130277FF02C0F5
:100B10006D5F7F4F75956795759567957195619533
:100B2000710988E097E00E94DB22609112027091C7
:100B3000130288E896E00C94DB2260911202709117
:100B4000130271956195710988E097E00E94DB229C
:100B5000609112027091130277FF02C06D5F7F4FA8
:100B6000759567957595679588E896E00C94DB22F6
:100B7000609112027091130288E097E00E94DB22DC
:100B8000609112027091130277FF02C06F5F7F4F76
:100B90007595679571956195710988E896E00C9453
:100BA000DB22609112027091130277FF02C06F5F27
:100BB0007F4F7595679588E097E00E94DB226091F2
:100BC00012027091130271956195710988E896E09F
:100BD0000C94DB22609112027091130288E097E07E
:100BE0000E94DB22609112027091130288E896E065
:100BF0000C94DB2260911202709113027195619541
:100C0000710988E097E00E94DB22609112027091E6
:100C1000130271956195710988E896E00C94DB22C6
:100C200060E070E088E097E00E94DB2260E070E026
:100C300088E896E00C94DB2220915705211104C02E
:100C4000FC01EF5DFA4F0BC0223021F4FC01E351AF
:100C5000FB4F05C0233029F4FC01E754FB4F808192
:100C60000895089520915705211104C0FC01EF5DFE
:100C7000FA4F0BC0223021F4FC01E351FB4F05C0B9
:100C8000233021F4FC01E754FB4F608308958091E9
:100C90005705811103C083E09DE009C0823019F43B
:100CA00080EA9DE004C0833021F48DE39EE00C9443
:100CB0009E540895CF93DF93EC01BEDF80937C05B3
:100CC000CE010196B9DF80937D0580917C059091DE
:100CD0007D05DF91CF9108950F931F93CF93DF93FD
:100CE000EC01AADF0EE715E0F8018083CE01019642
:100CF000A3DF80937F05CE0102969EDF809380055F
:100D0000CE01039699DF80938105F801608171819E
:100D100082819381DF91CF911F910F910895CF939D
:100D2000DF93EC0189DF80937E05CE01019684DF9D
:100D300080937F05CE0102967FDF80938005CE01F0
:100D400003967ADF8093810560917E0570917F051F
:100D50008091800590918105DF91CF910895EF9268
:100D6000FF920F931F93CF93DF938B01C0EDD3E0DE
:100D7000805D93407C01CE01805D93408017910798
:100D800034F4C7018C0F9D1F57DF8993F4CFF8010E
:100D9000E053FC4F108280ED93E0DF91CF911F91E3
:100DA0000F91FF90EF900895CF92DF92EF92FF9214
:100DB0000F931F93CF93DF937B0100EC13E0C0E010
:100DC000D0E0805C93406C01CE15DF0564F4C03147
:100DD000D10549F0C601800F911F2EDFF8018193E4
:100DE0008F012196F1CF80EC93E0DF91CF911F919D
:100DF0000F91FF90EF90DF90CF900895FC01DB0101
:100E000012968C911297828313968C9113978383F9
:100E100014968C911497848315968C9115978583DD
:100E200016968C911697868317968C9117978783C1
:100E300018968C911897808719968C9119978187AD
:100E40001A968C911A9782871B968C911B97838791
:100E50001C964D915D916D917C911F9744875587AC
:100E60006687778750964D915D916D917C915397F0
:100E7000408B518B628B738B54964D915D916D912C
:100E80007C915797448B558B668B778B58964D91F9
:100E90005D916D917C915B97408F518F628F738FC5
:100EA0005C964D915D916D917C915F97448F558FCC
:100EB000668F778F90964D915D916D917C91939710
:100EC00040A351A362A373A394964D915D916D913C
:100ED0007C91979744A355A366A377A398964D91C9
:100EE0005D916D917C919B9740A751A762A773A7D5
:100EF0009C964D915D916D917C919F9744A755A7CC
:100F000066A777A7D0964D915D916D917C91D3970F
:100F100040AB51AB62AB73ABD4964D915D916D918B
:100F20007C91D79744AB55AB66AB77ABD8968D9198
:100F30009C91D99791AF80AFDA968D919C91DB9778
:100F400093AF82AFDC968D919C91DD9795AF84AF86
:100F5000DE968C91DE9786AFDF968D919C91DF01B6
:100F6000DF968D939C93CF010895E4E6F5E020E0B1
:100F700030E0419151914817590791F0452B41F4C8
:100F8000F901EE0FFF1FEC59FA4F9183808308C0DF
:100F90002F5F3F4F2C30310561F780E090E00895DE
:100FA000C90108954F925F926F927F928F929F92A4
:100FB000AF92BF92CF92DF92EF92FF920F931F9367
:100FC000CF93DF93CDB7DEB7C254D1090FB6F894F3
:100FD000DEBF0FBECDBF182F86E090E02DDE782E4D
:100FE000103209F4A5C218F5193009F4E3C150F420
:100FF000153009F455C0183009F45CC1133009F0FC
:1010000067C463C21B3009F4AEC168F1143109F43E
:101010006FC21E3109F05CC461E00E94F44F87E0AA
:1010200090E00ADE682F872D0E942D5051C41233A4
:1010300009F4B5C250F4183209F449C0193209F460
:10104000CEC1113209F044C47FC21C3309F46AC115
:1010500020F4143309F4B6C23BC41D3399F01E3397
:1010600009F4F9C235C487E090E024DE5C01672D05
:1010700081E999E00E949F39B50181E999E00E94D8
:10108000BF3926C4811124C487E090E0D5DD182F34
:1010900088E090E00FDE66277727681B790B6FC327
:1010A00086E090E007DE66277727681B790B88E0EB
:1010B00097E00E94C72288E090E0FCDD6627772752
:1010C000681B790B88E896E00E94C72201C487E07C
:1010D00090E0F0DD8C0189E090E021DE4B015C01C5
:1010E00081E0781237C061E070E0CE0101960E9485
:1010F0001B3EBE016F5F7F4F8CEB97E07FDEB5013B
:10110000A4018CEB97E00E949E40B801882777FDF0
:101110008095982F0E943A574B015C01AB01BC01AE
:101120008CEB97E00E94B44040E050E46CE976E438
:101130008CEB97E00E940E4160E18CEB97E00E94FF
:101140009E3EB501A4018CEB97E00E9487418CEB99
:1011500097E039C082E0781239C062E070E0CE01D9
:1011600001960E941B3EBE016F5F7F4F8DEF97E09F
:1011700045DEB501A4018DEF97E00E949E40B801C5
:10118000882777FD8095982F0E943A574B015C0184
:10119000AB01BC018DEF97E00E94B44040E050E409
:1011A0006CE976E48DEF97E00E940E4160E18DEFEF
:1011B00097E00E949E3EB501A4018DEF97E00E944A
:1011C00087418DEF97E00E94284282C383E0781226
:1011D00037C063E070E0CE0101960E941B3EBE0165
:1011E0006F5F7F4F8EE398E009DEB501A4018EE3C7
:1011F00098E00E949E40B801882777FD8095982F3F
:101200000E943A574B015C01AB01BC018EE398E0B0
:101210000E94B44040E050E46CE976E48EE398E04C
:101220000E940E4160E18EE398E00E949E3EB5016F
:10123000A4018EE398E00E9487418EE398E0C3CF3B
:1012400084E0781245C364E070E0CE0101960E940C
:101250001B3EBE016F5F7F4F8FE798E0CFDDB5018A
:10126000A4018FE798E00E949E40B801882777FD8F
:101270008095982F0E943A574B015C01AB01BC014D
:101280008FE798E00E94B44040E050E46CE976E4D7
:101290008FE798E00E940E4160E18FE798E00E949E
:1012A0009E3EB501A4018FE798E00E9487418FE739
:1012B00098E089CF87E090E0BFDC482F88E090E09D
:1012C00023964FAF2397B8DCA82E89E090E0B4DCDA
:1012D000182F8AE090E0B0DCB82E8BE090E0ACDC18
:1012E000082F23964FAD2397772029F0672D81E7AC
:1012F00099E00E94EF3BAA2049F06FEF6A0D2B2D79
:10130000412F81E799E00E946B3C07C0202F4B2DB5
:10131000612F81E799E00E94BA3C81E799E00E9441
:10132000E63CD6C287E090E087DC182F82E1781295
:10133000CFC276DC153050F410935C0583E990E061
:1013400031DA811709F4C4C2612F09C010925C051B
:1013500083E990E027DA882309F4BAC260E083E9E0
:1013600090E01EDAB5C287E090E066DCE72DF0E0A1
:10137000EE0FFF1FE458FD4F813011F4008101C0D2
:10138000018188E090E058DCB82E10E0C801EDDD66
:10139000FC01EE0FFF1FE80FF91FEA56F64F208100
:1013A0003181428129833A834B8384EB8B1508F486
:1013B0008FC2E3C085E699E00E94663B871529F05D
:1013C000672D85E699E00E94F21C87E090E084DCBE
:1013D000AB01BC0185E699E00E94131D79C280E350
:1013E00099E00E94663B871529F0672D80E399E01C
:1013F0000E944B3487E090E01FDC8130F1F41091C3
:10140000290540912A058AE090E023964FAF239763
:1014100013DC682F772767FD70958BE090E09FDCE9
:10142000612F772767FD70959C0123964FAD239719
:1014300080E399E00E9467364BC28230D9F488E09D
:1014400090E0FADBB82E89E090E0F6DB482F60E10F
:1014500070E08AE090E023964FAF2397A5DC8C01E3
:1014600020E123964FAD23976B2D80E399E00E94F6
:1014700072342EC28330D9F488E090E0DDDB182F7F
:1014800089E090E0D9DB682F8AE090E023966FAF87
:101490002397D2DB21E023966FAD2397111101C072
:1014A00020E0482F80E399E00E94A13611C28430E9
:1014B00009F00EC288E090E00FDCAB01BC0123E034
:1014C00080E399E00E94713703C281E699E00E94AF
:1014D000663B871529F0672D81E699E00E94C63B9F
:1014E00087E090E0A9DB61E0811114C060E012C0E8
:1014F00081E699E00E94663B871529F0672D81E619
:1015000099E00E94C63B87E090E096DB823038F499
:10151000682F617081E699E00E948E3BD9C161E03D
:10152000823009F460E081E699E00E949E3BD0C1E0
:1015300061E00E94F44F87E090E07EDB682F70E06E
:10154000872D0E94DC4EC4C187E090E075DBB82E89
:1015500084EB8B1508F4BCC1072D10E0C80105DD34
:10156000FC01EE0FFF1FE80FF91FEA56F64F20812E
:101570003181428129833A834B83CE0101960E94B7
:101580002546811105C0B801CE0101960E9489450A
:101590006B2D70E0CE0101960E94C14599C10E9459
:1015A000F64D0E94385720E030E04AE754E40E94AC
:1015B0009F566093B5047093B6048093B7049093DC
:1015C000B80486C1811184C187E090E073DB8C018F
:1015D00089E090E06FDBBC01882777FD8095982F2C
:1015E0000E943A5790582AE939E949E15EE30E949E
:1015F000B2584B015C016093500470935104809386
:10160000520490935304B801882777FD8095982F52
:101610000E943A572DEC3CEC4CE45EE30E94B25839
:1016200060933004709331048093320490933304B8
:10163000C501B4010E9407579B0177FF04C0222710
:101640003327261B370B223031050CF441C181E0D2
:1016500080938B043DC187E090E0EEDA182F81E0A3
:1016600078124DC088E090E05ADB4B015C018CE0C1
:1016700090E020DB113081F4BC0180E090E00E941A
:1016800038578B019C01C12CD12CE12CF12CB501D8
:10169000A40188E097E01AC1123061F4BC0180E037
:1016A00090E00E9438578B019C01C12CD12CE12C79
:1016B000F12C08C1133081F4BC0180E090E00E945D
:1016C00038578B019C01C12CD12CE12CF12CB50198
:1016D000A40188E096E0FAC0143009F0F9C0BC011A
:1016E00080E090E00E9438578B019C01C12CD12CE6
:1016F000E12CF12CB501A40188E895E0E7C082E077
:10170000781236C088E090E0D5DA113051F4BC018F
:1017100080E090E00E943857AB01BC0188E097E080
:1017200024C0123051F4BC0180E090E00E94385790
:10173000AB01BC0188E896E018C0133051F4BC013D
:1017400080E090E00E943857AB01BC0188E096E051
:101750000CC0143009F0BCC0BC0180E090E00E94D5
:101760003857AB01BC0188E895E00E94C824B0C09E
:1017700083E0781217C088E090E09CDABC01113059
:1017800019F0123021F49ECC88E097E09DCC133004
:1017900019F488E096E098CC143009F099C088E8F4
:1017A00095E092CC84E0781223C0113031F440E00F
:1017B00050E0BA0188E097E018C0123031F440E000
:1017C00050E0BA0188E896E010C0133031F440E0F0
:1017D00050E0BA0188E096E008C0143009F078C003
:1017E00040E050E0BA0188E895E00E949F2270C076
:1017F00085E078126DC088E090E091DA4B015C01E1
:101800008CE090E057DA1130E9F4BC0180E090E020
:101810000E9438572B013C01C12CD12CE12CF12C1A
:101820008B019C01B501A40188E097E00E940A2584
:1018300044275527BA01481959096A097B099301B8
:10184000820142C01230A9F4BC0180E090E00E9405
:1018500038572B013C0144275527BA01481959092B
:101860006A097B09C12CD12CE12CF12C9301820156
:1018700023C0133041F4BC0180E090E00E9438574F
:101880002B013C0111C0143019F5BC0180E090E03F
:101890000E9438572B013C01B094A09490948094FE
:1018A000811C911CA11CB11CC12CD12CE12CF12C50
:1018B00093018201B501A40188E097E00E940A2506
:1018C00093018201B501A40188E896E00E940A25EF
:1018D000CE5BDF4F0FB6F894DEBF0FBECDBFDF91FA
:1018E000CF911F910F91FF90EF90DF90CF90BF901D
:1018F000AF909F908F907F906F905F904F900895E2
:101900004F925F926F927F928F929F92AF92BF920F
:10191000CF92DF92EF92FF920F931F93CF93DF93BB
:101920008BEE98E00E94FD2A90586093AD0470936E
:10193000AE048093AF049093B00420917004309172
:10194000710440917204509173040E94D4556B014C
:101950007C01209178043091790440917A0450916F
:101960007B040E94D5558B01D82FC92F20E030E091
:1019700048EC52EC0E949B5687FD10C020E030E0FE
:1019800048EC52E4B8018D2F9C2F0E946258181623
:101990004CF400E010E0D8ECC2E404C000E010E039
:1019A000D8ECC2ECC801AD2FBC2F80937804909383
:1019B0007904A0937A04B0937B0480909D04909066
:1019C0009E04A0909F04B090A00480927C0490920A
:1019D0007D04A0927E04B0927F0420916404309133
:1019E00065044091660450916704C701B6010E94E6
:1019F000B2582B013C012091680430916904409158
:101A00006A0450916B04B8018D2F9C2F0E94B2582C
:101A10009B01AC01C301B2010E94D5556B017C0151
:101A200020916C0430916D0440916E0450916F04CC
:101A3000C501B4010E94B2589B01AC01C701B601B7
:101A40000E94D5556B017C0120E030E0A9010E9485
:101A5000625818164CF0C0927404D0927504E0924B
:101A60007604F09277040FC020E030E0A901C701AE
:101A7000B6010E94D55560937404709375048093E9
:101A800076049093770440907404509075046090AD
:101A9000760470907704C0903404D0903504E090C0
:101AA0003604F0903704A7019601C301B2010E94E9
:101AB000D4554B015C01C301B2019058A7019601B6
:101AC0000E94D4556B017C0120E030E04FE753ECDD
:101AD000C501B4010E949B5687FD11C020E030E093
:101AE0004FE753E4C501B4010E94625818166CF424
:101AF000812C912C1FE7A12E13E4B12E06C0812C5E
:101B0000912CDFE7AD2ED3ECBD2E20E030E04FE787
:101B100053ECC701B6010E949B5687FD11C020E01F
:101B200030E04FE753E4C701B6010E94625818162F
:101B30006CF4C12CD12CCFE7EC2EC3E4FC2E06C0F4
:101B4000C12CD12CBFE7EB2EB3ECFB2EC501B401A9
:101B50000E94075788E097E00E94DB22C701B60188
:101B60000E94075788E896E0DF91CF911F910F916F
:101B7000FF90EF90DF90CF90BF90AF909F908F90AD
:101B80007F906F905F904F900C94DB224F925F920A
:101B90006F927F928F929F92AF92BF92CF92DF927D
:101BA000EF92FF920F931F93CF93DF9388E896E015
:101BB0000E94C1226B017C0188E097E00E94C12253
:101BC0009B01AC01C701B6010E94D45520E030E072
:101BD00040E05FE30E94B2584B015C01C0905004AA
:101BE000D0905104E0905204F09053042DEC3CEC62
:101BF0004CE45FE36091A5047091A6048091A70472
:101C00009091A8040E94B2582B013C012DEC3CECB1
:101C10004CE45EE3C701B6010E94B2589B01AC01DF
:101C2000C301B2010E94D5556093A5047093A60428
:101C30008093A7049093A80480918B04882361F17A
:101C4000C501B4010E940757695F7F4F6F3071056E
:101C500018F520E030E0A901C701B6010E949B56AB
:101C600081111AC010928B041092A5041092A60440
:101C70001092A7041092A8048091A1049091A2044C
:101C8000A091A304B091A4048093580490935904A4
:101C9000A0935A04B0935B042091A5043091A6044C
:101CA0004091A7045091A804C501B4010E94D455E5
:101CB0006B017C01209158043091590440915A04E1
:101CC00050915B040E94D5558B01D82FC92F80916C
:101CD0008B0420E030E04AEF54ECB801882309F48B
:101CE00071C08D2F9C2F0E949B5687FD10C020E055
:101CF00030E04AEF54E4B8018D2F9C2F0E946258C7
:101D000018164CF400E010E0DAEFC4E404C000E080
:101D100010E0DAEFC4ECC801AD2FBC2F809358045B
:101D200090935904A0935A04B0935B042091440407
:101D3000309145044091460450914704C701B601D3
:101D40000E94B2584B015C01209148043091490433
:101D500040914A0450914B04B8018D2F9C2F0E9452
:101D6000B2589B01AC01C501B4010E94D5558B014D
:101D7000D82FC92F20E030E040E051EC0E949B5664
:101D800087FD10C020E030E040E051E4B8018D2F25
:101D90009C2F0E94625818164CF400E010E0D0E02E
:101DA000C1E404C000E010E0D0E0C1ECA8016D2F58
:101DB0007C2F4093540450935504609356047093C1
:101DC000570498C08D2F9C2F0E949B5687FD10C0F2
:101DD00020E030E04AEF54E4B8018D2F9C2F0E94A0
:101DE000625818164CF400E010E0DAEFC4E404C0C6
:101DF00000E010E0DAEFC4ECC801AD2FBC2F8093F7
:101E0000580490935904A0935A04B0935B04209112
:101E10004404309145044091460450914704C50163
:101E2000B4010E94B2586B017C01209148043091AA
:101E3000490440914A0450914B04B8018D2F9C2FC6
:101E40000E94B2589B01AC01C701B6010E94D55552
:101E50006B017C0120E030E040E251EC0E949B5697
:101E600087FD0FC020E030E040E251E4B601C70139
:101E70000E946258181654F4C12CD12C90E281E4CF
:101E800007C0C12CD12C90E281EC02C09E2D8F2D79
:101E9000A601692F782F4093540450935504609302
:101EA0005604709357042DEC3CEC4CE45FE36091D6
:101EB000A1047091A2048091A3049091A4040E94B3
:101EC000B2584B015C012DEC3CEC4CE45EE3B801F4
:101ED0008D2F9C2F0E94B2589B01AC01C501B4010B
:101EE0000E94D5556093A1047093A2048093A3042B
:101EF0009093A404209154043091550440915604C9
:101F00005091570460910A0270910B0280910C026B
:101F100090910D020E94D5556093700470937104E6
:101F20008093720490937304DF91CF911F910F916E
:101F3000FF90EF90DF90CF90BF90AF909F908F90E9
:101F40007F906F905F904F90089580918C048111E5
:101F500011C08BEE98E00E94FD2A0E9407579B015A
:101F600077FF04C022273327261B370B2530310586
:101F70000CF477C080918C04882309F47CC08BEE2C
:101F800098E00E94FD2A0E9407579B0177FF04C03A
:101F900022273327261B370B213231050CF46BC067
:101FA0001092BF031092BE0360E070E088E097E0FB
:101FB0000E94DB2260E070E088E896E00E94DB226D
:101FC000109258041092590410925A0410925B0413
:101FD00080910A0290910B02A0910C02B0910D0227
:101FE0008093700490937104A0937204B09373046F
:101FF0001092500410925104109252041092530403
:102000001092300410923104109232041092330472
:1020100040E050E0BA0188E097E00E949F2240E053
:1020200050E0BA0188E896E00E949F22109258047E
:102030001092590410925A0410925B0410928C046E
:102040001092A5041092A6041092A7041092A8045E
:102050001092A9041092AA041092AB041092AC043E
:1020600008958091BE039091BF0301969093BF03A2
:102070008093BE037FCF8091BE039091BF034597AD
:102080000CF44CC01092BF031092BE03109258047F
:102090001092590410925A0410925B0460E070E0B0
:1020A00088E097E00E94DB2260E070E088E896E03C
:1020B0000E94DB2280910A0290910B02A0910C02F7
:1020C000B0910D028093700490937104A0937204F8
:1020D000B093730440E050E0BA0188E097E00E94BA
:1020E0009F2240E050E0BA0188E896E00E949F22DB
:1020F0000E94F64D6093990470939A0480939B0418
:1021000090939C0460939504709396048093970435
:102110009093980481E080938C0408950895CF9261
:10212000DF92EF92FF9211DF80918C04882309F4F3
:1021300072C00E94F64DC0909904D0909A04E0902D
:102140009B04F0909C046C197D098E099F096B30EB
:1021500071058105910558F0D3DB0E94F64D60931F
:10216000990470939A0480939B0490939C040E941A
:10217000F64DC0909504D0909604E0909704F090AE
:1021800098046C197D098E099F09653671058105D2
:10219000910508F450C0FADC2DEC3CEC4CE45FE314
:1021A0006091A9047091AA048091AB049091AC0451
:1021B0000E94B2586B017C012DEC3CEC4CE45EE3D8
:1021C0006091300470913104809132049091330415
:1021D0000E94B2589B01AC01C701B6010E94D555BF
:1021E0006093A9047093AA048093AB049093AC0409
:1021F00060933404709335048093360490933704CD
:102200000E94F64D60939504709396048093970412
:102210009093980410C060E070E088E097E00E941E
:10222000DB2260E070E088E896E0FF90EF90DF90BE
:10223000CF900C94DB22FF90EF90DF90CF90089529
:10224000CF93DF9380912E0990912F09892B79F4F8
:102250008BE790E00E944F54EC0166E00E945E32F2
:10226000D0932F09C0932E09CE010E947332809122
:102270002E0990912F090E94A23280912E099091EF
:102280002F090E949D3280935905843409F48DC032
:1022900090915C05933009F0A7C0893109F447C0DB
:1022A00008F5893009F447C078F4873009F447C04D
:1022B000883009F095C080910E0290910F02880F2E
:1022C000991F880F991F66C0863109F489C088312B
:1022D00009F45AC08C3009F083C080910E029091AD
:1022E0000F0258C08A3479F168F48034E1F0823406
:1022F00081F18C3109F074C020910E0230910F02EF
:1023000045E032C08A3559F18E35A1F1823509F0A8
:1023100067C080910E0290910F0263E0880F991FB1
:102320006A95E1F737C0DF91CF910C945C05DF919E
:10233000CF910C946F05DF91CF910C94D105DF9173
:10234000CF910C94B80520910E0230910F0249E014
:102350000BC020910E0230910F0247E005C0209182
:102360000E0230910F0246E0429FC001439F900D44
:10237000112410C020910E0230910F02C901880F64
:10238000991F820F931F06C080910E0290910F0239
:10239000880F991F2091100230911102820F931F14
:1023A00090931302809312021FC00E941006809126
:1023B0002E0990912F090E948232882339F0809152
:1023C0002E0990912F090E94A232F1CF80915C05D5
:1023D0008F5F80935C05853039F410925C0504C0F2
:1023E000DF91CF910C941006DF91CF91089582E890
:1023F00095E00E94823928E730E030931302209361
:102400001202813059F028F0823099F0833001F1C6
:1024100008950E945C058AE090E015C00E945C056A
:1024200080915E0590915F05823091054CF1019796
:102430000AC00E945C0580915E0590915F05843121
:102440009105F4F4019690935F0580935E050895DD
:1024500080915E0590915F050A9711F40E946F05C7
:1024600080915E0590915F050A9714F40E94EA0539
:1024700080915E0590915F050B9714F00C94FA051E
:102480000895CF92DF92EF92FF920F931F9365E032
:1024900070E080E090E00E94254E88E097E00E9486
:1024A000952243E050E060E973E00E94B34B88E876
:1024B00096E00E94952243E050E060EA73E00E94BB
:1024C000B34B88E096E00E94952243E050E060EB39
:1024D00073E00E94B34B88E895E00E94952243E0A8
:1024E00050E060EC73E00E94B34B10921004109225
:1024F000110410921204109213041092F00310921F
:10250000F1031092F2031092F30326E040E052EC44
:1025100061E070E083E09DE00E94C35126E040E06E
:1025200052EC61E070E080EA9DE00E94C35126E039
:1025300040E052EC61E070E08DE39EE00E94C35108
:1025400065E070E080E090E00E94254E8BEE98E020
:102550000E94FF3065E070E080E090E00E94254E30
:1025600061E08DE00E94F44F81E0809380008AE07A
:102570008093810083E08093B00082E08093B1007B
:1025800068E070E088E097E00E94692568E070E00C
:1025900088E896E00E94692568E070E088E096E0AF
:1025A0000E94692568E070E088E895E00E9469254E
:1025B0006EE270E088E097E00E946D256EE270E0C8
:1025C00088E896E00E946D256EE270E088E096E073
:1025D0000E946D256EE270E088E895E00E946D250E
:1025E0007AE9C72E79E9D72EED2C7FE3F72E00E0AC
:1025F00010E0980146E656E666EE7FE388E097E055
:102600000E944B2500E010E0980146E656E666EE93
:102610007FE388E896E00E944B2500E010E09801F7
:1026200046E656E666EE7FE388E096E00E944B259C
:1026300000E010E0980146E656E666EE7FE388E8A3
:1026400095E00E944B25C12CD12C76019701860183
:102650004CEE51E568E37EE388E097E00E94312587
:10266000970186014CEE51E568E37EE388E896E049
:102670000E943125970186014CEE51E568E37EE327
:1026800088E096E00E943125970186014CEE51E5E5
:1026900068E37EE388E895E00E94312560E070E021
:1026A00088E097E00E947D2560E070E088E896E091
:1026B0000E947D2560E070E088E096E00E947D2524
:1026C00060E070E088E895E00E947D2510928E041D
:1026D00010928D0480910A0290910B02A0910C023D
:1026E000B0910D028093700490937104A0937204D2
:1026F000B093730480E090E0A0EAB1E480936404B6
:1027000090936504A0936604B093670480E090E022
:10271000A0E8BFE38093680490936904A0936A04DF
:10272000B0936B048DEC9CECACE4BEE380936C0442
:1027300090936D04A0936E04B0936F048FE892ECB5
:10274000A5E7BDE38093440490934504A093460419
:10275000B09347048AE097EDA3EABBE38093480473
:1027600090934904A0934A04B0934B040E94D80468
:102770006DEF72E083E09DE00E949D5464E874E098
:1027800083E09DE00E94A1540E94F64D609399045D
:1027900070939A0480939B0490939C046093950497
:1027A0007093960480939704909398040E94F64D3A
:1027B0006093910470939204809393049093940493
:1027C0001F910F91FF90EF90DF90CF900895CF93DE
:1027D000DF93C6E9D9E0CE010E94BE44239689E08A
:1027E000CA3BD807C1F781E999E00E9492398EE788
:1027F00099E00E94314281E799E00E94623C85E6BF
:1028000099E067D781E699E00E944D3B80E399E02B
:102810000E94F83348E660E08BEE98E00E94E22ADE
:1028200084EC98E00E94881D80EC98E00E947F3341
:10283000CCEBD7E0CE010E94153ECF5BDF4F88E0A6
:10284000C03CD807B9F788EB97E00E94821D81EB66
:1028500097E00E947B318BEA97E00E94B82A85EAD4
:1028600097E00E94CD2A8FE997E00E94B64288E85F
:1028700097E098D661E088E097E00E942D2362E01F
:1028800088E896E00E942D2363E088E096E00E94AD
:102890002D2364E088E895E00E942D2368E082E81B
:1028A00095E00E94813967E073E084E894E0DF916D
:1028B000CF910C948F5584E894E00E94285581E7CD
:1028C00099E00C94F93C682F80915705811103C061
:1028D00083E09DE009C0823019F480EA9DE004C0E5
:1028E000833021F48DE39EE00C945F5108958FEFC7
:1028F000EADF85E5E8CF8FEFE6DF85E5E4DF0C94DE
:102900004706CF93C82F81E0DEDF8C2FCF91DBCF3E
:10291000EF92FF920F931F93CF93DF937C01FC0103
:10292000C4810C2F158184E0CEDF8C2FCCDFC0E07A
:10293000D0E0C017D1073CF4BE01C7010E94D255B8
:10294000C2DF2196F6CFDF91CF911F910F91FF90BB
:10295000EF900895FF920F931F93CF93DF931F92F1
:10296000CDB7DEB78B01F82E82E09983ACDFA801EA
:102970006F2D9981792F40937E0550937F05609349
:10298000800570938105802F9EDF80917F059BDFFE
:102990008091800598DF809181050F90DF91CF9124
:1029A0001F910F91FF908FCF1F93CF93DF9300D094
:1029B000CDB7DEB7182F86E069837A839B8383DFE8
:1029C000698160937E057A8170937F0510938005FD
:1029D0009B8190938105862F76DF80917F0573DF41
:1029E0008091800570DF809181050F900F900F908E
:1029F000DF91CF911F9167CF1F93CF93DF931F92EA
:102A0000CDB7DEB7182F83E099835DDF10937C0587
:102A1000998190937D05812F56DF80917D050F90E0
:102A2000DF91CF911F914FCFCF92DF92EF92FF9224
:102A30000F931F93CF93DF93CDB7DEB727970FB6D2
:102A4000F894DEBF0FBECDBF082F86E090E00E9455
:102A50001C06182F402F50E04E33510508F0BBC222
:102A6000FA01EE58FF4F0C94C75A80916F0990916C
:102A70007009009751F00E94663B811791F0809198
:102A80006F09909170090E9450548EE090E00E946E
:102A90004F547C01612F0E94BA42F0927009E0927B
:102AA0006F0960E971E080916F09909170090E944F
:102AB00035436B017C011BDF80915D0504DFC7019D
:102AC000B6019FC287E090E00E941C06082F8EE7A7
:102AD00099E00E94663B811382C28EE799E00E94D2
:102AE000693B80137CC28EE799E00E944D4289C207
:102AF00081E699E00E94663B811761F0612F81E6D3
:102B000099E00E94C63B81E699E00E94EC3B60E0C0
:102B10000E94F44F81E699E00E94BA3B15C087E01D
:102B200090E00E941C06082F80EC98E00E94663B13
:102B3000811729F0612F80EC98E00E94C63B602F3E
:102B400080EC98E00E948133BC01882777FD809556
:102B5000982F0E943A5755C280912E0990912F09C3
:102B60000097E1F04F960E94663B811731F1E090AB
:102B70002E09F0902F09E114F10481F08BE493E029
:102B8000F70191838083C70182599F4F0E94285586
:102B9000C7010E94784AC7010E9450548BE790E019
:102BA0000E944F547C01612F0E945E32F0922F09E7
:102BB000E0922E09C7010E94733280912E099091F4
:102BC0002F090E949D32682F809359058FEF860F41
:102BD0008E3F08F000C218C081E699E00E94663B73
:102BE000811761F0612F81E699E00E94C63B81E682
:102BF00099E00E94EC3B60E00E94F44F60E081E6C7
:102C000099E00E947D3B682F70E080E090E00E9498
:102C10003857F7C181E699E00E94663B811799F029
:102C2000612F81E699E00E94C63B81E699E00E940F
:102C3000E93B60E00E94F44F81E699E00E94EC3BA2
:102C400060E00E94F44F60E081E699E00E946C3BF6
:102C5000182F60E081E699E00E947D3B612F70E0D3
:102C6000660F771F680F711D882777FD8095982F55
:102C700070CF87E090E00E941C06082F81E699E063
:102C80000E94663B8113B2C181E699E00E94693BD4
:102C90008013ACC181E699E0013061F40E94E93B08
:102CA00062E00E94F44F60E081E699E00E946C3B94
:102CB0008027A9CF0E94EC3B62E00E94F44F60E0C5
:102CC00081E699E00E947D3B61E068279DCF84EC1E
:102CD00098E00E94663B8117A9F0612F84EC98E090
:102CE0000E94C63B84EC98E00E94EC3B482F84ECA9
:102CF00098E04F830E94E93B4F81682F84EC98E075
:102D00000E94752184EC98E00E947D217AC187E0C1
:102D100090E00E941C06082F81EB97E00E94663B22
:102D2000811729F0612F81EB97E00E94C63B81EB70
:102D300097E00E947E31602F81EB97E00E9457322E
:102D4000182FD5DD80915D05BEDD812F42C18BEA54
:102D500097E00E94663B8117A9F0612F8BEA97E00C
:102D60000E94C63B8BEA97E00E94E93B482F8BEA22
:102D700097E04F830E94EC3B4F81682F8BEA97E0EE
:102D80000E94BB2A8BEA97E00E94CB2A1FC085EAEB
:102D900097E00E94663B8117A9F0612F85EA97E0D2
:102DA0000E94C63B85EA97E00E94E93B482F85EAEE
:102DB00097E04F830E94EC3B4F81682F85EA97E0B4
:102DC0000E94D02A85EA97E00E94E02A15DE1AC107
:102DD00087E090E00E941C06682F1111FCC08BEE6A
:102DE00098E06F830E94F82A6F81883609F0F3C05B
:102DF00004C164E874E0CE0101960E94B955CE0189
:102E0000019686DDCE0101960E942855FBC060E048
:102E10000E94F44F812F0E94625096CEE82FF0E07E
:102E2000EE0FFF1FEC5EFD4F108160E0812F0E94CE
:102E3000F44F812F0E94B74E87CE87E090E00E942A
:102E40005A067C0160E0812F0E94F44F97014427CD
:102E500037FD4095542F61E0812F0E948A50ABC00E
:102E600087E090E00E941C06082F61E0812F0E94FD
:102E7000F44F60E0812F0E942D5082E090E00E948C
:102E80004A4E61E0812F0E942D508AE090E00E941E
:102E90004A4E60E0812F0E942D5060E0802F0E94FA
:102EA000F44F20E335E740E050E061E0802F0E94DE
:102EB0008A506B017C0165E070E080E090E00E9448
:102EC000254E15DD80915D05FEDCC701B60141CEC2
:102ED0006091B1047091B2048091B3049091B404F4
:102EE00090C08FE997E00E94663B811729F0612F1F
:102EF0008FE997E00E94C63B8FE997E00E94B842B5
:102F000068C088E897E00E94663B811729F0612F2E
:102F100088E897E00E94C63B1091560587E090E054
:102F20000E941C0691E0181390E0892F52C0811175
:102F300069C087E090E00E941C06182F88E090E0AE
:102F40000E941C06113069F4813019F488E097E082
:102F50000EC0823009F056C088E097E00E94C1227E
:102F600050C0123069F4813029F488E896E00E945C
:102F7000C22421C0823009F045C088E896E021C013
:102F8000133051F4813019F488E096E00BC08230A0
:102F9000C9F588E096E015C01430A1F5813069F4D8
:102FA00088E895E00E94C22490958095709561957F
:102FB0007F4F8F4F9F4FF8DC25C0823019F588E88E
:102FC00095E00E94C12290581CC08237D9F48091AC
:102FD0005C0597DC17C060E070E0CB0112C0402FA9
:102FE000612F8EE799E00E943B427DCD402F612FFB
:102FF00081E699E00E94D63B4DCE8BEE98E00E9490
:103000008D2DA8DC27960FB6F894DEBF0FBECDBF7E
:10301000DF91CF911F910F91FF90EF90DF90CF90B4
:1030200008951F93CF93DF931092900483E090E074
:103030000E941C06182F84E090E00E941C06C82FF6
:1030400085E090E00E941C06D82F10935D05C230E9
:10305000D1F018F4C13039F08DC0C430B9F0C530AA
:1030600009F484C087C0813039F0873129F0843277
:1030700019F03DDC812F27DC8D2FD6DCDF91CF913D
:103080001F910C9447060E94D20770C060E070E068
:1030900088E097E00E94DB2260E070E088E896E03C
:1030A0000E94DB2260E070E088E096E00E94DB2274
:1030B00060E070E088E895E00E94DB2240E050E0AC
:1030C000BA0188E097E00E949F2240E050E0BA01F8
:1030D00088E896E00E949F2240E050E0BA0188E034
:1030E00096E00E949F2240E050E0BA0188E895E017
:1030F0000E949F2210921004109211041092120448
:10310000109213041092F0031092F1031092F20344
:103110001092F30361E081E999E00E949F3960E039
:1031200070E081E999E00E94BF3962E081E999E0AD
:103130000E949F3960E070E081E999E00E94BF3908
:1031400063E081E999E00E949F3960E070E081E9E5
:1031500099E00E94BF3964E081E999E00E949F39BB
:1031600060E070E081E999E00E94BF39DF91CF9182
:103170001F91C1CBDF91CF911F91089510928F04C1
:103180001092570583E09DE00E94B650181619066C
:1031900044F481E080938F041092570583E09DE012
:1031A0001FC080EA9DE00E94B650181619064CF424
:1031B00081E080938F0482E08093570580EA9DE050
:1031C0000FC08DE39EE00E94B6501816190664F4F5
:1031D00081E080938F0483E0809357058DE39EE028
:1031E0000E94CF50809355050895C8DF80918F04C9
:1031F000882309F446C06091550580919004653597
:1032000061F481110AC0809158058F3FD9F481E0A3
:1032100080935B058093900415C0609358058823C4
:1032200089F080915B05823019F460935A0507C0DC
:10323000833028F090915A05915090935A0590E070
:103240000E94320680915B058F5F843318F480936F
:103250005B0504C010925B0510929004809190046D
:10326000882369F080915A05811109C080915B051E
:10327000843028F010929004D4DE10925B0581E037
:1032800008950895CF93DF9380916F09909170090D
:10329000892B61F48EE090E00E944F54EC0167E0CE
:1032A0000E94BA42D0937009C0936F0986E990E0FA
:1032B000909313028093120280916F09909170098C
:1032C000009709F469C060E971E00E9435430E94EB
:1032D000075770936305609362059B01255131097F
:1032E00023313105F8F46CE271E080E090E00E9457
:1032F000C15470936105609360056F3B71055CF08C
:1033000080918D04811107C081E080938E04DF914C
:10331000CF910C94B80581E080938D04DF91CF911B
:103320000C94D105615071096331710568F56CE247
:1033300071E080E090E00E94C15470936105609359
:1033400060056F3B710584F00E948205CCE2D1E0FC
:103350004CDF811121C062E070E080E090E00E94CB
:10336000254E2197A9F718C00E949D05CCE2D1E017
:103370003CDF811111C062E070E080E090E00E94CB
:10338000254E2197A9F708C010928E0410928D0443
:10339000DF91CF910C945C05DF91CF9108950F934D
:1033A0001F930E94F64D0E94385720E030E04AE714
:1033B00054E40E949F562091B5043091B604409188
:1033C000B7045091B8040E94D4556093B10470932F
:1033D000B2048093B3049093B40488E897E0E4D0F7
:1033E000809356050E94F64D00919104109192042D
:1033F0002091930430919404601B710B820B930B0A
:10340000693E73408105910598F00E94F64D6093E6
:103410009104709392048093930490939404609128
:103420008A0481E0682760938A048DE00E942D5011
:1034300080912E0990912F09892B11F00E94201163
:103440008CEB97E00E942D42019719F48CEB97E0EA
:103450001AC08DEF97E00E942D42029719F48DEF6C
:1034600097E011C08EE398E00E942D42039719F473
:103470008EE398E008C08FE798E00E942D42049701
:1034800021F48FE798E00E94074288E097E00E94CD
:103490009E2A88E896E00E949E2A88E096E00E9494
:1034A0009E2A88E895E00E949E2A68DE11E08091BD
:1034B0008F04882309F445C06091550580919004DC
:1034C000653559F4811109C0809158058F3FD1F4B9
:1034D00010935B051093900415C0609358058823E2
:1034E00089F080915B05823019F460935A0507C01A
:1034F000833028F090915A05915090935A0590E0AE
:103500000E94320680915B058F5F843318F48093AC
:103510005B0504C010925B051092900480919004AA
:10352000882369F080915A05811109C080915B055B
:10353000843028F01092900474DD10925B051EDE3A
:10354000B6CF8BEE98E00E94BA2D84EC98E00E94F2
:10355000663B882319F084EC98E0CFD68BEE98E098
:103560000E94032B60939D0470939E0480939F049C
:103570009093A00480915C05882389F0813019F430
:103580001F910F917FCE823021F41F910F910C94E7
:103590008F10843021F41F910F910C94F7111F911B
:1035A0000F9108950C944D3BCF92DF92EF92FF92D2
:1035B0000F931F93CF93DF93EC010C891D890E9419
:1035C000F64DCC80DD80EE80FF809B01AC012C1994
:1035D0003D094E095F0969017A0139E0C316D1043A
:1035E000E104F104E8F16C837D838E839F83CE0137
:1035F0000E94BA3B488559856A857B85452B462BB9
:10360000472B49F4AC01662757FD6095762F488B10
:10361000598B6A8B7B8B488959896A897B89841B82
:10362000950B97FF03C0919581959109449764F498
:103630004C855D856E857F854F5F5F4F6F4F7F4FF8
:103640004C875D876E877F87488559856A857B852E
:103650004F5F5F4F6F4F7F4F488759876A877B87E0
:1036600088859985AA85BB850597A105B105D1F403
:10367000188619861A861B868C859D85AE85BF8522
:103680000397A105B10540F088899989AA89BB896A
:103690008C019D8B8C8B02C00C891D891C861D861C
:1036A0001E861F86C80164E670E00E94765A683064
:1036B000710528F4FB01EF5EFC4F808101C080E0C2
:1036C000DF91CF911F910F91FF90EF90DF90CF90FE
:1036D00008950C944D3B0F931F93CF93DF93EC0110
:1036E000062F18E060E088850E942D5000FF02C080
:1036F00061E001C060E089850E942D50069561E07F
:1037000088850E942D50115069F760E088850E94DD
:103710002D5061E089850E942D5061E088850E94CE
:103720002D5060E089850E94F44F18EC89850E9435
:103730006250892B59F01150C9F761E089850E94C8
:10374000F44F60E089850E942D50EFCF61E08985BC
:10375000DF91CF911F910F910C94F44FCF93DF9392
:10376000EC0161E088850E942D5061E089850E940E
:103770002D5060E089850E942D5060E08885DF91A2
:10378000CF910C942D50CF93DF93EC0160E08885AE
:103790000E942D5060E089850E942D5061E088854F
:1037A0000E942D5061E08985DF91CF910C942D50BE
:1037B000CF92DF92FF920F931F93CF93DF931F92CD
:1037C000CDB7DEB76C01F62E7983C8DF60E4C601A1
:1037D00082DFC601D8DFC601C1DFF6016581C601FF
:1037E0007ADF0F2D7981172F84E0F82EF80161918F
:1037F0008F01C60170DFFA94C9F7C601C4DFC601A4
:10380000ADDFF6016681C60166DFC6010F90DF916C
:10381000CF911F910F91FF90DF90CF90B4CF4F9237
:103820005F926F927F928F929F92AF92BF92CF9250
:10383000DF92EF92FF920F931F93CF93DF9300D00D
:103840001F92CDB7DEB76A017B01890137FD48C001
:10385000B9016F5F7F4F882777FD8095982F0E9471
:103860003A579B01AC0160E070E080E291E40E9475
:1038700015594B015C019B01AC01C701B6010E94C7
:103880009F560E9475572B013C01B801882777FD90
:103890008095982F0E943A579B01AC0160E070E040
:1038A00080E291E40E94155969837A838B839C831B
:1038B000A5019401C301B2010E94B2589B01AC0161
:1038C000C701B6010E94D45529813A814B815C81A0
:1038D0000E949F560E9475570E940757CB011FC038
:1038E00088249924821A930AA12CB12C20E030E07C
:1038F00040E251E4C701B6010E94B2586B017C015D
:103900008FEFA81AB80AA814B90484F3C701B60146
:103910000E940757CB016AE070E00E94765A0F9030
:103920000F900F900F90DF91CF911F910F91FF900B
:10393000EF90DF90CF90BF90AF909F908F907F904F
:103940006F905F904F900895DB0180E090E22C91A2
:10395000223208F09C93EC91F0E0EA59FD4FE4919B
:10396000ED938F5F843099F70895EF92FF920F9354
:103970001F93CF93DF9300D01F92CDB7DEB78C019A
:10398000DB01FE013196CE0105967F012D91219339
:10399000E817F907D9F7B701C801D6DFB701C801A1
:1039A00007DF0F900F900F900F90DF91CF911F9135
:1039B0000F91FF90EF900895CF93DF9300D01F9267
:1039C000CDB7DEB720E229832A832B832C83BE0167
:1039D0006F5F7F4FCADF0F900F900F900F90DF91B6
:1039E000CF910895CF93DF93EC016A83E62FF0E047
:1039F000EE0FFF1FE458FD4F8181898390819883EA
:103A00008887998761E00E94F44F61E089850E9470
:103A1000F44F80E48C8380EC8D838AE88E83CE0122
:103A2000DF91CF91C9CF8F929F92AF92BF92CF92E9
:103A3000DF92EF92FF920F931F93CF93DF9300D00B
:103A40001F92CDB7DEB75C016A017B0119821A8231
:103A50001B821C8220E030E0A901C701B6010E9450
:103A60009B5687FF09C0F7FAF094F7F8F09481E2CB
:103A700089839924939401C0912C03E010E0812C58
:103A80009801B701A601C501CADE181619062CF067
:103A9000002319F08820B9F00CC001110AC0E1E040
:103AA000F0E0EC0FFD1FE90DF11D20E1280F208350
:103AB00007C0E1E0F0E0EC0FFD1FE90DF11D808390
:103AC00093948824839483E0891530F00150110980
:103AD0000C3F8FEF1807A1F6BE016F5F7F4FC50146
:103AE00044DF0F900F900F900F90DF91CF911F91B7
:103AF0000F91FF90EF90DF90CF90BF90AF909F908D
:103B00008F9008950E944D3B88E08093BA090895F4
:103B1000CF93DF93EC0160E00E94563B8EE18B87F0
:103B20001C82DF91CF910895AF92BF92CF92DF9226
:103B3000EF92FF920F931F93CF93DF93CDB7DEB732
:103B40006A970FB6F894DEBF0FBECDBF8C01CE01D1
:103B500001967C01C12CD12C5C01C6010E948E5DB6
:103B6000F70181937F01FFEFCF1ADF0A8AE1C816C0
:103B7000D10499F72D813E814F81588569817A81E1
:103B80008B819C810E94D55529853A854B855C8522
:103B90000E94D5552D853E854F8558890E94D55563
:103BA00029893A894B895C890E94D5552D893E899E
:103BB0004F89588D0E94D5556B017C01698D70E04D
:103BC00080E090E00E943A579B01AC01C701B6012A
:103BD0000E94D55520E030E04AE253E40E94D555DA
:103BE0000E940C578A8D68130CC08AE1F501D80138
:103BF0001D9601900D928A95E1F781E0F80184838A
:103C000002C0F80114826A960FB6F894DEBF0FBEA8
:103C1000CDBFDF91CF911F910F91FF90EF90DF907B
:103C2000CF90BF90AF900895CF92DF92EF92FF9226
:103C30000F931F93CF93DF938C01EB012C813D8178
:103C40004E815F81688179818A819B810E94D555EF
:103C5000288539854A855B850E94D5552C853D850B
:103C60004E855F850E94D555288939894A895B89A7
:103C70000E94D5552C893D894E895F890E94D55572
:103C80006B017C01688D70E080E090E00E943A5703
:103C90009B01AC01C701B6010E94D55520E030E080
:103CA0004AE253E40E94D5550E940C57698FE12CDB
:103CB000F12C6991C7010E94965D8FEFE81AF80A0E
:103CC000EAE1EE16F104A9F781E0F8018483DF91BF
:103CD000CF911F910F91FF90EF90DF90CF900895BB
:103CE000EF92FF921F93CF93DF931F92CDB7DEB772
:103CF000162F7A01FC01638586EE9BE029830E94E2
:103D0000DE46612F86EE9BE00E948B462981813042
:103D100091F4422F50E0B70186EE9BE00E945F468F
:103D200061E086EE9BE00F90DF91CF911F91FF90B5
:103D3000EF900C94E8468FEF0F90DF91CF911F9199
:103D4000FF90EF900895CF93DF931F92CDB7DEB72A
:103D5000498321E0AE014F5F5F4FC2DF0F90DF91DB
:103D6000CF910895EF92FF920F931F93CF93DF931C
:103D7000EC01F62E8A01E22E6B8586EE9BE00E9416
:103D8000DE466F2D86EE9BE00E948B46813001F56A
:103D900060E086EE9BE00E94E84681112EC081E043
:103DA00090E00E944A4E21E04E2D6B8586EE9BE00E
:103DB0000E94D246E80100E010E0F12C86EE9BE084
:103DC0000E943446892B31F00E151F0574F002C095
:103DD0008FEF13C081E090E00E944A4E81E00E1503
:103DE0001F0509F480E0819508C00F5F1F4F86EE24
:103DF0009BE00E943C468993E1CFDF91CF911F91D8
:103E00000F91FF90EF900895CF93DF93EC01AC01F9
:103E10004B5F5F4F23E06AE0A5DF81110AC08D810F
:103E2000883439F48E81843321F481E09F81933387
:103E300009F080E0DF91CF910895CF92DF92EF9269
:103E4000FF920F931F93CF93DF93EC016B018A01D5
:103E500079013BD0AE014B5F5F4F26E063E0CE01BE
:103E600081DF882321F0992787FD909525C08C85D7
:103E7000813029F441E062E070E0CE0164DF8D81A1
:103E800090E0982F88272E81822BF60191838083E2
:103E9000898590E0982F88272A85822BF8019183C5
:103EA00080838F8190E0982F88272885822BF701C7
:103EB0009183808380E090E0DF91CF911F910F91FB
:103EC000FF90EF90DF90CF9008952F923F924F9206
:103ED0005F926F927F928F929F92AF92BF92CF929A
:103EE000DF92EF92FF920F931F93CF93DF93CDB7A3
:103EF000DEB76C970FB6F894DEBF0FBECDBF8C0156
:103F000062E00E946C3B8111B5C16AE070E080E024
:103F100090E00E94254E62E0C8010E946C3B811136
:103F2000A9C1C80171DF882309F4A4C10E94F64D1C
:103F30006B017C01712CBB24B39462E0C8010E9428
:103F40006C3B811116C00E94F64D6C197D098E09DB
:103F50009F09693C71058105910578F3A8950E9438
:103F6000F64D6B017C017B24672DC8010E949E3BAE
:103F7000E4CF64E670E080E090E00E94254E0E946D
:103F8000F64D4B015C012FEF3FE7388B2F8740E068
:103F900050E85E874D878FEF9FE79C878B87E0E037
:103FA000F0E8FA87E98738872F83212C50E8352EEF
:103FB000662463940E94F64D6C197D098E099F0951
:103FC000693C71058105910550F0A8950E94F64D58
:103FD0006B017C017624672DC8010E949E3B0E94E4
:103FE000F64D681979098A099B096B3071058105BD
:103FF0009105E0F1A8959E012F5F3F4FAE014D5F07
:104000005F4FBE016B5F7F4FC80117DF8D819E81BF
:104010004F815885841795072CF02816390624F40B
:104020001C0102C098878F838B819C81EB85FC8566
:104030008E179F0744F029853A85281739072CF4F5
:104040009A87898702C09C878B8789819A814F854F
:1040500058898417950744F0ED85FE85E817F90720
:104060002CF49E878D8702C0988B8F8762E0C801F1
:104070000E946C3B81119ECF60E0C8010E949E3B74
:10408000B101882777FD8095982F0E943A576B01E0
:104090007C012F813885B901882777FD8095982F7D
:1040A0000E943A57698B7A8B8B8B9C8B9B01AC015E
:1040B000C701B6010E94D555905820E030E040E09D
:1040C0005FE30E94B258F801658776878787908BF7
:1040D00029853A85B901882777FD8095982F0E9418
:1040E0003A572B013C014B855C85BA01882777FD47
:1040F0008095982F0E943A576D8B7E8B8F8B988F6F
:104100009B01AC01C301B2010E94D555905820E03B
:1041100030E040E05FE30E94B258F801618B728B9F
:10412000838B948B2D853E85B901882777FD8095FB
:10413000982F0E943A574B015C014F855889BA016C
:10414000882777FD8095982F0E943A57698F7A8F3C
:104150008B8F9C8F9B01AC01C501B4010E94D5558A
:10416000905820E030E040E05FE30E94B258F80150
:10417000658B768B878B908F80E090E0A0E8BFE323
:10418000818F928FA38FB48F29893A894B895C895B
:10419000C701B6010E94D4556B017C012D893E896F
:1041A0004F89588DC301B2010E94D455A7019601D1
:1041B0000E949F56F801658F768F878F90A3298D77
:1041C0003A8D4B8D5C8DC501B4010E94D455A70179
:1041D00096010E949F56F80161A372A383A394A342
:1041E0002F813885221A330A37FE03C03194219477
:1041F000310889859A854B855C85841B950B97FFD3
:1042000003C09195819591092D853E85EF85F889AB
:104210002E1B3F0B37FF03C03195219531098215C5
:1042200093052CF02215330514F081E009C02816FF
:1042300039062CF02817390714F082E001C083E01A
:10424000F80185A3B801635F7F4FC801EDDC61E031
:10425000C8010E949E3B62E0C8010E946C3B811134
:1042600002C0A895F8CFA89564E670E080E090E0E1
:104270000E94254E6C960FB6F894DEBF0FBECDBFE0
:10428000DF91CF911F910F91FF90EF90DF90CF9032
:10429000BF90AF909F908F907F906F905F904F9066
:1042A0003F902F900895CF93DF93EC0186EE9BE033
:1042B0000E94C94661E0CE010E949E3B40E760E05B
:1042C00070E0CE0140DD40E261E070E0CE013BDD18
:1042D00081E08C8741E062E070E0CE0134DDCE0108
:1042E00023DCCE01DF91CF91F0CD6093BC094093E8
:1042F000BB09FC0160834183D6CF2F923F924F923E
:104300005F926F927F928F929F92AF92BF92CF9265
:10431000DF92EF92FF920F931F93CF93DF93CDB76E
:10432000DEB762970FB6F894DEBF0FBECDBF8C012B
:10433000CCDD9E012F5F3F4FAE014D5F5F4FBE0151
:104340006B5F7F4FC80179DD882349F0682F77279D
:1043500067FD7095872F972F0E943A57C5C0F801C7
:1043600084812D803E802B813C8138872F83882358
:1043700009F478C04584568467847088818C928C57
:10438000A38CB48CB901882777FD8095982F0E9463
:104390003A57F80121893289438954890E94D555B9
:1043A000F801258D368D478D50A10E94B2580E948C
:1043B00007576F83788789879A8769817A818827E9
:1043C00077FD8095982F0E943A57F8012589368904
:1043D0004789508D0E94D555F80121A132A143A1F2
:1043E00054A10E94B2580E9407576B877C878D8723
:1043F0009E87F80115A1113041F42B853C85B90148
:10440000882777FD8095982F32C0B101882777FDE6
:104410008095982F0E943A57A30192010E94D5558A
:10442000A50194010E94B2580E9407574B015C01FC
:10443000123089F42B853C85B901882777FD80955A
:10444000982F0E943A579B01AC01B401882777FD51
:104450008095982F17C0133019F5882777FD809520
:10446000982F05C0B101882777FD8095982F0E946D
:104470003A579B01AC01EF81F885BF01882777FD92
:104480008095982F2F87388B498B5A8B0E943A57EB
:104490002F85388949895A890E9448566B017C01C9
:1044A00020E030E0A901C701B6010E949B5687FFBA
:1044B0000DC02BED3FE049EC50E4C701B6010E946E
:1044C000D55520E030E044E353E406C020E030E07E
:1044D00044E353E4C701B6010E94B2582BED3FE01C
:1044E00049E450E40E949F5662960FB6F894DEBFEE
:1044F0000FBECDBFDF91CF911F910F91FF90EF9035
:10450000DF90CF90BF90AF909F908F907F906F90F3
:104510005F904F903F902F9008958DEB99E00C9411
:1045200051318DEB99E00C947A318E589F4FFC01FC
:104530008081089582599F4FFC0180810895FC017C
:1045400046A357A360A771A70895FC0146A157A1F0
:1045500060A571A54F5F5F4F6F4F7F4F46A357A375
:1045600060A771A70895FC0146A157A160A571A598
:10457000415051096109710946A357A360A771A76A
:104580000895FC016285738584859585089522E0F0
:10459000FC0120839B016F3F710519F014F02FEF90
:1045A00030E02130FFEF3F0714F421E03FEFFC0142
:1045B000378326830895EF92FF920F931F93CF9333
:1045C000DF93FC016F3F710519F014F06FEF70E09D
:1045D000EB0161308FEF780714F4C1E0DFEF8085E5
:1045E00091858C179D0791F1D187C087D583C483AE
:1045F000DF01A059BF4FCF018F589F4F7C018F0122
:1046000001591F4FD7FF0EC060E08C910E942D50C2
:1046100061E0F70180810E942D50662777276C1B8F
:104620007D0B0AC061E08C910E942D5060E0F70183
:1046300080810E942D50BE01F8018081DF91CF91D1
:104640001F910F91FF90EF900C94DC4EDF91CF9172
:104650001F910F91FF90EF9008959F92AF92BF929C
:10466000CF92DF92EF92FF920F931F93CF93DF933E
:10467000EC01DC01AD58BF4F6C9385E0982E969EFF
:10468000F0011124E25AFD4F80818E0103591F4F22
:10469000D8018C935E01BEE6AB0EB11C9181D501B1
:1046A0009C93119692819C936E01B0E7CB0ED11C26
:1046B0009381D6019C937E01B1E7EB0EF11C9481AE
:1046C000F701908362E00E94F44F62E0D5018C9183
:1046D0000E94F44F62E0F60180810E94F44F62E094
:1046E000D7018C910E94F44F1EA21FA218A619A6F2
:1046F00084EF91E099878887188289E090E09B8316
:104700008A8348E651E16DE172E44E8B5F8B688FDE
:10471000798FF8018081823119F4359690821AC020
:10472000833111F484E003C0843131F483E0FE016D
:10473000EE58FF4F80830EC0853111F482E0F7CF31
:10474000833011F481E0F3CF823021F4FE01EE5882
:10475000FF4F108260E070E0CE012DDF1EA21FA28D
:1047600018A619A60E94F64DCA58DF4F68837983B0
:104770008A839B83DF91CF911F910F91FF90EF90E0
:10478000DF90CF90BF90AF909F9008952F923F926F
:104790004F925F926F927F928F929F92AF92BF9251
:1047A000CF92DF92EF92FF920F931F93CF93DF93FD
:1047B00000D000D0CDB7DEB79E838D830E94F64D2A
:1047C0000D811E810A581F4FF801C080D180E28000
:1047D000F3806C197D098E099F096531710581058A
:1047E000910508F465C00E94F64D69837A838B8336
:1047F0009C83ED81FE81C6A0D7A0E0A4F1A482A194
:1048000093A1A4A1B5A12280338046885788608CEB
:10481000718CA7019601281B390B4A0B5B0BCA014F
:10482000B9010E943A574B015C01F80180819181E6
:1048300069817A81681B790B80E090E00E9438578B
:104840009B01AC0160E070E08AE794E40E949F560F
:104850009B01AC01C501B4010E94B25820E030E0D8
:1048600040E752E40E94B2584B015C01B101882735
:1048700077FD8095982F0E943A57A30192010E94DC
:10488000B2589B01AC01C501B4010E949F56ED8155
:10489000FE816287738784879587C2A2D3A2E4A230
:1048A000F5A20E94F64DF8016083718382839383A1
:1048B00026960FB6F894DEBF0FBECDBFDF91CF9125
:1048C0001F910F91FF90EF90DF90CF90BF90AF902E
:1048D0009F908F907F906F905F904F903F902F9020
:1048E0000895AF92BF92CF92DF92EF92FF920F9313
:1048F0001F93CF93DF9300D01F92CDB7DEB75C013B
:10490000FC0166A177A180A591A50281138126896A
:104910003789408D518D29833A834B835C830E9474
:104920003A576B017C01B801882777FD8095982F55
:104930000E943A5729813A814B815C810E94B2588A
:104940009B01AC01C701B6010E949F5620E030E0F8
:1049500044EB53E40E94B2580E940757F501628F5E
:10496000738F848F958F0F900F900F900F90DF9122
:10497000CF911F910F91FF90EF90DF90CF90BF905C
:10498000AF900895FC01628D738D848D958D08958F
:10499000FC0181E08083818346875787608B718B20
:1049A000E659FF4F10820895CF92DF92EF920F9356
:1049B0001F93FC0106871787208B318BDC01A459DC
:1049C000BF4FEC9212971C9281E080831182468F38
:1049D000578F60A371A35496CD92DC92468D578D6C
:1049E00060A171A1028D138D248D358D401B510B5B
:1049F000620B730BE559FF4F1416150616061706C2
:104A000014F4808301C010821F910F91EF90DF900A
:104A1000CF9008958F929F92AF92BF92CF92DF92E4
:104A2000EF92FF920F931F93FC01828C938CA48CC6
:104A3000B58C840E951EA61EB71E868E978EA0A2DC
:104A4000B1A2468D578D60A171A1AEDF1F910F916C
:104A5000FF90EF90DF90CF90BF90AF909F908F909E
:104A60000895CF92DF92EF92FF920F931F93FC0174
:104A700042A753A764A775A706A717A720AB31AB1A
:104A8000C2AAD3AAE4AAF5AA1F910F91FF90EF90B2
:104A9000DF90CF900895CF92DF92EF92FF920F9325
:104AA0001F93FC01E65BFF4F408351836283738356
:104AB000349600831183228333833496C082D1825B
:104AC000E282F3821F910F91FF90EF90DF90CF90E1
:104AD0000895FC01738362830895CF93DF93EC0103
:104AE000882777FD8095982F0E943A576E8B7F8B91
:104AF000888F998FDF91CF910895FC01608308958D
:104B00002F923F924F925F926F927F928F929F92DD
:104B1000AF92BF92CF92DF92EF92FF920F931F93CB
:104B2000CF93DF9300D01F92CDB7DEB71C01DC011D
:104B30005E966D917D918D919C9191975A960D9174
:104B40001D912D913C915D97601B710B820B930B16
:104B50000E943A576B017C015101BAE6AB0EB11CC1
:104B6000F501808181010C581F4F8111ABC1319635
:104B7000808120E030E0A901882339F0C701B60127
:104B80000E949B5687FF32C006C0C701B6010E9433
:104B9000625818165CF5D1011A962D913D914D91F0
:104BA0005C911D97F101EE5AFF4F60817181828106
:104BB00093810E94B258DC01CB01B058F101E65A52
:104BC000FF4F80839183A283B3836081718182814F
:104BD00093810E940757F8017183608321E0D5011A
:104BE0002C93F10175836483CB01B7C220E030E0E0
:104BF000A901C701B6010E946258260137011816A3
:104C000024F077FA709477F87094D1011E966D9124
:104C10007D918D919C91519720E030E040EC50E4E3
:104C20000E94B2589B01AC01C301B2010E946258BC
:104C300087FFE5C120E030E0A901C701B6010E946D
:104C4000625818165CF420E030E040E251E4C701FD
:104C5000B6010E94625818165CF034C120E030E0C2
:104C600040E251ECC701B6010E949B5687FF2AC162
:104C7000F101468457846088718820E030E040E28A
:104C800051E4C701B6010E94D4554B015C0120E0FC
:104C900030E040EC50E4C301B2010E94B258A501DB
:104CA00094010E94B25820E030E0A9010E946258AD
:104CB000181694F4D1011E966D917D918D919C9161
:104CC000519720E030E040EC50E40E94B258A5013A
:104CD00094010E94B25810C0F101668577858089E1
:104CE000918920E030E040EC50E40E94B258A501E8
:104CF00094010E94B25890580E94655920E030E01B
:104D000040EC50E40E949F562B013C01D1011A96C1
:104D10008D909D90AD90BC901D9720E030E0A90152
:104D2000C701B6010E946258A701960118160CF03F
:104D30005058B1016E5A7F4FDB018D919D910D90BE
:104D4000BC91A02D89839A83AB83BC83C701B60134
:104D50000E949F569B01AC01C301B2010E94B25850
:104D60009B01AC01C501B4010E94D4559B01AC016B
:104D700069817A818B819C810E94B2584B015C01D0
:104D800020E030E040EA51EC0E949B5687FD11C0C4
:104D900020E030E040EA51E4C501B4010E946258CD
:104DA00018166CF4812C912C50EAA52E51E4B52EE6
:104DB00006C0812C912C40EAA42E41ECB42EF801BF
:104DC00060817181882777FD8095982F0E943A57DE
:104DD000FAE52F0E311CD1016D937D938D939C9339
:104DE00013976D917D918D919C91A50194010E94E5
:104DF000D455F101608371838283938320E030E096
:104E0000A901C701B6010E946258D10187FD23C0E4
:104E10006D917D918D919C9120E030E048EC51E4C2
:104E20000E949B5687FD12C0F101608171818281D1
:104E3000938120E030E04FE753E40E946258181657
:104E40001CF580E090E0AFE7B3E42DC080E090E097
:104E5000A8ECB1E428C06D917D918D919C9120E0EA
:104E600030E04FE753EC0E949B5687FD13C0F101E1
:104E7000608171818281938120E030E048EC51ECC7
:104E80000E94625818165CF0F10180819181A28124
:104E9000B38109C080E090E0AFE7B3EC04C080E0EC
:104EA00090E0A8ECB1ECF10180839183A283B383FD
:104EB00060817181828193810E940757F80171831B
:104EC000608399C081E0D5018C93F101E258FF4FD6
:104ED0000190F081E02D309749F0D101A459BF4FE6
:104EE0006C9170E017968C9190E01995F1012285F4
:104EF000338544855585EE5AFF4F608171818281EB
:104F000093810E94B2584B015C0120E030E040EAFE
:104F100051EC0E949B5687FD11C020E030E040EA32
:104F200051E4C501B4010E94625818166CF4812C3A
:104F3000912C30EAA32E31E4B32E06C0812C912CA3
:104F400020EAA22E21ECB22EF101E65BFF4F208178
:104F5000318142815381C701B6010E94B258FAE5FE
:104F60002F0E311CD1016D937D938D939C931397DC
:104F70006D917D918D919C91A50194010E94D455D4
:104F8000F101608371838283938360817181828167
:104F9000938120E030E04FE753EC0E949B5687FD61
:104FA00013C0D1016D917D918D919C9120E030E0F5
:104FB0004FE753E40E94625818165CF0F1018081BB
:104FC0009181A281B38109C080E090E0AFE7B3ECAA
:104FD00004C080E090E0AFE7B3E4F1018083918307
:104FE000A283B38360817181828193810E9407577C
:104FF000D8016D937C93F80180819181AEC0D1017D
:105000001A968D919D910D90BC91A02D89839A83C4
:10501000AB83BC83F10186849784A088B18820E0AB
:1050200030E0A901C701B6010E946258181624F0A9
:10503000A7019601505802C0A7019601F10142A4B0
:1050400053A464A475A4C701B6010E949F569B0196
:10505000AC01C501B4010E94B2589B01AC01698149
:105060007A818B819C810E94D4559B01AC01C30144
:10507000B2010E94B2586B017C0120E030E048ECA4
:1050800051EC0E949B5687FD11C020E030E048ECB7
:1050900051E4C701B6010E94625818166CF4C12C85
:1050A000D12C78ECE72E71E4F72E06C0C12CD12C60
:1050B00068ECE62E61ECF62ED8016D917C91882784
:1050C00077FD8095982F0E943A57F10162AF73AF38
:1050D00084AF95AF62AD73AD84AD95ADA701960178
:1050E0000E94D455D101DA966D937D938D939C9354
:1050F000DD97DA966D917D918D919C91DD9720E001
:1051000030E04FE753EC0E949B5687FD13C0F1013E
:1051100062AD73AD84AD95AD20E030E04FE753E470
:105120000E94625818165CF0F10182AD93ADA4ADF7
:10513000B5AD09C080E090E0AFE7B3EC04C080E01B
:1051400090E0AFE7B3E4F10182AF93AFA4AFB5AFA6
:1051500062AD73AD84AD95AD49CF0F900F900F90B8
:105160000F90DF91CF911F910F91FF90EF90DF9003
:10517000CF90BF90AF909F908F907F906F905F90F7
:105180004F903F902F900895AF92BF92CF92DF92B1
:10519000EF92FF920F931F93CF93DF93EC016A85F9
:1051A0007B858C859D852E853F8548895989CAA434
:1051B000DBA4ECA4FDA40E94D4559B01AC01C70163
:1051C000B6010E94B2586B017C0120E030E048EC4F
:1051D00051EC0E949B5687FD11C020E030E048EC66
:1051E00051E4C701B6010E94625818166CF4C12C34
:1051F000D12CF8ECEF2EF1E4FF2E06C0C12CD12CFF
:10520000E8ECEE2EE1ECFE2E8E010C581F4FF8015B
:1052100060817181882777FD8095982F0E943A5789
:105220006AAF7BAF8CAF9DAF6AAD7BAD8CAD9DADF2
:10523000A70196010E94D4556AAF7BAF8CAF9DAF9A
:105240005E01FAE6AF0EB11CF5018081882329F0DA
:105250001AAE1BAE1CAE1DAE1EC06E857F85888942
:10526000998920E030E0A9010E949B56811113C06A
:1052700020E030E0A901C701B6010E94625818166B
:105280008CF520E030E040E751E4C701B6010E9410
:105290009B5687FD31C06AAD7BAD8CAD9DAD20E0E6
:1052A00030E04FE753EC0E949B5687FD11C06AAD7A
:1052B0007BAD8CAD9DAD20E030E04FE753E40E9424
:1052C0006258181654F08AAD9BADACADBDAD1CC094
:1052D00080E090E0AFE7B3EC17C080E090E0AFE78C
:1052E000B3E412C020E030E040E751ECC701B60162
:1052F0000E94625818167CF61AAE1BAE1CAE1DAE8C
:1053000081E0F5018083C7CF8AAF9BAFACAFBDAF63
:105310006AAD7BAD8CAD9DAD0E940757F8017183DE
:105320006083CB01DF91CF911F910F91FF90EF90A0
:10533000DF90CF90BF90AF900895CF92DF92EF9221
:10534000FF920F931F93CF93DF93EC010E94F64DD2
:105350008E0106581F4FF801C080D180E280F38093
:105360006C197D098E099F096932710581059105C6
:10537000B8F00E94F64DF8016083718382839383B5
:105380008981811103C0CE01BBDB08C089818130D6
:1053900019F4CE01F9DE02C080E090E09D838C8399
:1053A000DF91CF911F910F91FF90EF90DF90CF9001
:1053B0000895CF92DF92EF92FF920F931F93CF93B6
:1053C000DF93EC010E94F64D8E0106581F4FF80145
:1053D000C080D180E280F3806C197D098E099F091D
:1053E000693271058105910508F49FC00E94F64D50
:1053F000F80160837183828393836C817D810E8148
:105400001F81882777FD8095982F0E943A572DECB1
:105410003CEC4CE45FE30E94B2586B017C01B801A4
:10542000882777FD8095982F0E943A572DEC3CEC09
:105430004CE45EE30E94B2589B01AC01C701B60187
:105440000E94D55520E030E0A9010E9462586C818D
:105450007D810E811F8187FD28C0882777FD80957B
:10546000982F0E943A572DEC3CEC4CE45FE30E94ED
:10547000B2586B017C01B801882777FD8095982F81
:105480000E943A572DEC3CEC4CE45EE30E94B2588B
:105490009B01AC01C701B6010E94D55520E030E068
:1054A00040E05FE30E94D55527C0882777FD8095AF
:1054B000982F0E943A572DEC3CEC4CE45FE30E949D
:1054C000B2586B017C01B801882777FD8095982F31
:1054D0000E943A572DEC3CEC4CE45EE30E94B2583B
:1054E0009B01AC01C701B6010E94D55520E030E018
:1054F00040E05FE30E94D4550E9407577D836C8390
:105500008C819D81181619061CF48C819D8105C023
:105510008C819D819195819591090B9734F48E81B1
:105520009F81892B11F41D821C82DF91CF911F91E5
:105530000F91FF90EF90DF90CF900895CF93DF937E
:10554000EC01CFD9CE0122D98881813019F4CE0166
:10555000F4DE05C08881823041F4CE012ADF6C81FF
:105560007D81CE01DF91CF9126C8DF91CF91089543
:1055700060E00C94563BCF93DF93EC016C834D833A
:105580008C8160E00E94F44F8D8188838C818983B7
:10559000DF91CF9108950C94AE3B60E00C94563BA4
:1055A000CF93DF93EC016C834D838C8160E00E948C
:1055B000F44F8D8188838C818983DF91CF91089509
:1055C0000C94AE3B0F931F93CF93DF931F92CDB7F5
:1055D000DEB78C0149830E94563BF801EE5BFF4F1A
:1055E000498140830F90DF91CF911F910F910895D2
:1055F0008E5B9F4FFC0180810895FC01628573855D
:10560000848595850895FC01628D738D848D958DBB
:105610000895EF92FF920F931F93CF93DF93F62E8F
:105620008A01E22EEC01CE5BDF4F688186EE9BE0C3
:105630000E94DE466F2D86EE9BE00E948B468130F5
:1056400001F560E086EE9BE00E94E84681112EC0E5
:1056500081E090E00E944A4E21E04E2D688186EE66
:105660009BE00E94D246E80100E010E0F12C86EEBB
:105670009BE00E943446892B31F00E151F0574F013
:1056800002C08FEF13C081E090E00E944A4E81E09B
:105690000E151F0509F480E0819508C00F5F1F4FAC
:1056A00086EE9BE00E943C468993E1CFDF91CF914B
:1056B0001F910F91FF90EF9008952F923F924F927C
:1056C0005F926F927F928F929F92AF92BF92CF9292
:1056D000DF92EF92FF920F931F93CF93DF93CDB79B
:1056E000DEB72C970FB6F894DEBF0FBECDBF1C01FE
:1056F000AC014C5C5F4F2EE06BE38BDF8111F4C19A
:10570000F101A4A8B12C1A2D002785A9082B13A3F9
:1057100002A3E6A8F12CFE2CEE2487A9E82AF5A224
:10572000E4A280AC912C982C882481AD882A97A281
:1057300086A2468057806084718464AD70E0762FC5
:10574000662785AD682B882777FD8095982F0E9466
:105750003A57F10120A531A542A553A50E94D45581
:10576000A30192010E949F56F101668B778B808F77
:10577000918F66AD70E0762F662787AD682B8827FE
:1057800077FD8095982F0E943A57F10124A535A501
:1057900046A557A50E94D455A30192010E949F5689
:1057A000F101628F738F848F958FE05CFF4F608172
:1057B00070E0762F662731968081682B882777FDE9
:1057C0008095982F0E943A57F10120A931A942A94A
:1057D00053A90E94D455A30192010E949F56F10142
:1057E000668F778F80A391A3B701882777FD809577
:1057F000982F0E943A576B017C01B401882777FDEE
:105800008095982F0E943A579B01AC010E94B25894
:105810004B015C01A7019601C701B6010E94B25875
:10582000A50194010E94D5550E9465599B01AC01C8
:10583000B801882777FD8095982F29873A874B876D
:105840005C870E943A572B013C0129853A854B859C
:105850005C850E94485620E030E044E353E40E9417
:10586000B2582AED3FE049E450E40E949F56698314
:105870007A838B839C83A3019201C301B2010E94AE
:10588000B258A50194010E94D5550E9465599B010B
:10589000AC01C701B6010E94485620E030E044E365
:1058A00053E40E94B2582AED3FE049E450E40E94DC
:1058B0009F566D837E838F8398870E94F64DC0909C
:1058C000DC0AD090DD0AE090DE0AF090DF0A6C1965
:1058D0007D098E099F090E94385720E030E04AE791
:1058E00054E40E949F566B017C010E94F64D609328
:1058F000DC0A7093DD0A8093DE0A9093DF0AF101DF
:1059000086A197A11816190644F5228D338D448D72
:10591000558DC701B6010E94B2589B01AC01F1013F
:1059200062857385848595850E94D455F1016287CF
:1059300073878487958726893789408D518DC70164
:10594000B6010E94B2589B01AC01F10166857785D2
:10595000808991890E94D55528C0F101228D338D0F
:10596000448D558DC701B6010E94B2589B01AC0110
:10597000F10162857385848595850E94D555F10175
:10598000628773878487958726893789408D518DF3
:10599000C701B6010E94B2589B01AC01F1016685B6
:1059A0007785808991890E94D455F1016687778730
:1059B000808B918BF101268D378D40A151A1C701BC
:1059C000B6010E94B258F101228933894489558970
:1059D0000E94D5552B013C0120E030E044EB53E41C
:1059E0000E949F560E94755720E030E044EB53E43C
:1059F0000E94B2589B01AC01C301B2010E94D45570
:105A00002B013C0120E030E044E353E40E94625863
:105A1000181634F0F101428A538A648A758A0DC0DF
:105A200020E030E044EB53E4C301B2010E94D455BE
:105A3000F101628B738B848B958B20E030E040E02A
:105A40005FE3C701B6010E94D5559B01AC0160E040
:105A500070E080E09FE30E949F566B017C019B01F8
:105A6000AC0160E070E080E89FE30E94D4554B01F8
:105A70005C01F1012285338544855585C701B60156
:105A80000E94B2582B013C01A501940169817A81E1
:105A90008B819C810E94B2589B01AC01C301B20171
:105AA0000E94D555F1016287738784879587268583
:105AB000378540895189C701B6010E94B2586B01F0
:105AC0007C01A50194016D817E818F8198850E9462
:105AD000B2589B01AC01C701B6010E94D555F10136
