:100000000C94BF000C94E7000C94E7000C94E700FC
:100010000C94E7000C94E7000C94E7000C94D928AA
:100020000C94E7000C94E7000C94E7000C94CC1DB2
:100030000C94E7000C94E7000C94E7000C94E700A4
:100040000C940F230C94E7000C942E260C9480261D
:100050000C94E7000C94E7000C94E7000C94E70084
:100060000C942B200C94E700084AD73B3BCE016E42
:1000700084BCBFFDC12F3D6C74319ABD56833DDAFF
:100080003D00C77F11BED9E4BB4C3E916BAAAABE0E
:10009000000000803F07634236B79BD8A71A396833
:1000A0005618AEBAAB558C1D3CB7CC5763BD6DED41
:1000B000FD753EF6177231BF000000803F0800005A
:1000C00000BE922449123EABAAAA2ABECDCCCC4C8B
:1000D0003E00000080BEABAAAAAA3E00000000BFFE
:1000E000000000803F0000000000084178D3BB43BF
:1000F00087D1133D190E3CC3BD4282AD2B3E68EC47
:100100008276BED98FE1A93E4C80EFFFBE01C4FFCD
:100110007F3F000000000000000000240027002AAC
:100120000000000000250028002B00000000002334
:10013000002600290004040404040404040202024A
:100140000202020303030303030102040810204018
:1001500080010204081020010204081020000000A1
:100160000700020100000304060000000000000078
:1001700000028D01F90CC41EEF278601F20C112438
:100180001FBECFEFD8E0DEBFCDBF11E0A0E0B1E0F1
:10019000E4EAF4E602C005900D92A038B107D9F761
:1001A00015E0A0E8B1E001C01D92A73AB107E1F760
:1001B00011E0CAE7D1E004C02297FE010E9441325B
:1001C000C237D107C9F70E9446280C9445320C94D7
:1001D0000000FB01DC0102C001900D924150504033
:1001E000D8F70895FB01DC0101900D920020E1F7A2
:1001F000089530916302332321F0FC01E856FD4F4E
:1002000003C0FC01EC59FD4FE081E0934802FC0182
:100210003196332319F0E856FD4F02C0EC59FD4FDB
:10022000208120934902FC013296332319F0E856CD
:10023000FD4F02C0EC59FD4F208120934A02FC0182
:100240003396332319F0E856FD4F02C0EC59FD4FA9
:10025000808180934B022091480230914902409165
:100260004A02582FB901CA0108958130910509F059
:100270003FC06F5F7F4F09F048C080E891E00E9467
:10028000881C83E891E00E943A0C87E891E00E9484
:10029000DA1989E991E00E94381786EA91E00E9414
:1002A000E51B8AEA91E00E94010C84EB91E00E9438
:1002B000651588EB91E00E9459158EEB91E00E9444
:1002C000B30E8EEF91E00E94D41783E292E00E9479
:1002D000D4178EE492E00E94990E85E592E00E9488
:1002E000990E8CE592E060E071E00E940E2C08957A
:1002F000892B59F46F5F7F4F41F48CE592E00E94A7
:10030000482C89E991E00E94DB16089580E090E096
:100310006FEF7FEF0E943501089581E090E06FEF6D
:100320007FEF0E9435010895CF92DF92EF92FF9206
:100330000F931F93DF93CF93CDB7DEB7CA54D0404E
:100340000FB6F894DEBF0FBECDBF2091630222230B
:1003500019F0C0909E0202C0C0906A02EC2CFF24EB
:100360008E31910509F4B4C28F319105D4F48930EE
:10037000910509F44FC28A30910544F48330910508
:1003800009F460C2089709F031C3F0C18B309105C0
:1003900009F41BC28B309105FCF0449709F026C389
:1003A0006BC28232910509F4B6C28332910544F4DE
:1003B0008032910509F49DC2819709F017C3EDC2FF
:1003C0008932910509F46FC18233910509F4FCC2A9
:1003D000889709F00BC321C0222319F080919F0256
:1003E00002C080916B0280934C02222319F080910D
:1003F000A00202C080916C0280934D0200914C02D9
:1004000010914D0283E891E06C2D0E94901583E8D5
:1004100091E0B8010E94040CE9C2222319F08091F6
:100420009F0202C080916B0280934C02222319F03C
:100430008091A00202C080916C0280934D020091D5
:100440004C0210914D02222319F08091A10202C0AA
:1004500080916D0280934C02222319F08091A202B8
:1004600002C080916E0280934D02C0904C02D090E9
:100470004D0281E0E816F10409F083C0CE01019637
:1004800061E00E94E3178B819C81AD81BE818093E6
:10049000000290930102A0930202B09303028F81A5
:1004A00080930402888580930502898580930602E3
:1004B0008A859B85AC85BD85809307029093080251
:1004C000A0930902B0930A028E859F85A889B989F5
:1004D00080930B0290930C02A0930D02B0930E0236
:1004E0008A899B89AC89BD8980930F029093100201
:1004F000A0931102B09312028E899F89A88DB98DA5
:100500008093130290931402A0931502B0931602E5
:100510008A8D9B8DAC8DBD8D8093170290931802B0
:10052000A0931902B0931A028E8D9F8DA8A1B9A134
:1005300080931B0290931C02A0931D02B0931E0295
:100540008AA19BA1ACA1BDA180931F029093200220
:10055000A0932102B0932202B801882777FD8095ED
:10056000982F0E94952EAB01BC018EEF91E00E9466
:10057000B017A601662757FD6095762F8EEF91E0A4
:100580008FC082E0E816F10409F030C2CE018696F1
:1005900062E00E94E31788A599A5AAA5BBA5809350
:1005A000250290932602A0932702B09328028CA5DF
:1005B000809329028DA580932A028EA580932B0219
:1005C0008FA598A9A9A9BAA980932C0290932D026E
:1005D000A0932E02B0932F028BA99CA9ADA9BEA90E
:1005E0008093300290933102A0933202B093330291
:1005F0008FA998ADA9ADBAAD80933402909335021E
:10060000A0933602B09337028BAD9CADADADBEADBD
:100610008093380290933902A0933A02B0933B0240
:10062000FE01FF9680819181A281B38180933C027B
:1006300090933D02A0933E02B0933F02FE01ED5B1A
:10064000FF4F80819181A281B3818093400290937A
:100650004102A0934202B0934302FE01E95BFF4FC7
:1006600080819181A281B38180934402909345025D
:10067000A0934602B0934702B801882777FD809582
:10068000982F0E94952EAB01BC0183E292E00E945C
:10069000B017A601662757FD6095762F83E292E09A
:1006A0000E94B817A3C1222319F080919F0202C0B3
:1006B00080916B0280934C02222319F08091A0025A
:1006C00002C080916C0280934D0200914C02109107
:1006D0004D02222319F08091A10202C080916D0287
:1006E00080934C02222319F08091A20202C08091D3
:1006F0006E0280934D0220914C0230914D0281E0B8
:10070000E816F104A9F4B901882777FD8095982FA0
:100710000E94952E6B017C01B801882777FD80959A
:10072000982F0E94952E8B019C018EE492E019C0B7
:1007300082E0E816F10409F059C1B901882777FD74
:100740008095982F0E94952E6B017C01B801882717
:1007500077FD8095982F0E94952E8B019C0185E551
:1007600092E0B701A6010E94760D40C1222349F014
:1007700010919F02E090A002F090A1020091A202CD
:1007800008C010916B02E0906C02F0906D02009135
:100790006E0289E991E06C2D0E940217112349F045
:1007A000115089E991E0612F4E2D2F2D0E941616D0
:1007B00007C089E991E06E2D4F2D202F0E94A116D0
:1007C00089E991E00E94AC1611C1222319F08091B1
:1007D0009F0202C080916B02F701EE0FFF1F813074
:1007E00021F4E85EFE4F308103C0E85EFE4F3181A8
:1007F000222319F06091A00202C060916C02062FC2
:1008000010E0053B110508F0F1C080E891E0632F8E
:1008100070E0D2C08AEA91E00E948A1590E08E15BD
:100820009F0529F08AEA91E06C2D0E948F0A87E0EB
:1008300090E00E94F900AB01BC018AEA91E00E94BD
:10084000770BD4C084EB91E00E948A1590E08E155E
:100850009F0529F084EB91E06C2D0E94901580910A
:100860006302882319F080919F0202C080916B027D
:1008700060E08823F9F01DC084EB91E00E948A15A6
:1008800090E08E159F0529F084EB91E06C2D0E947D
:10089000901580916302882319F080919F0202C015
:1008A00080916B0290E0823091054CF460E0892BDE
:1008B00009F061E084EB91E00E94DB1597C060E0F5
:1008C000029709F061E084EB91E00E94C8158EC0A8
:1008D0008C2D61E00E94AB2480916302882319F083
:1008E00060919F0202C060916B028C2D0E94EA24ED
:1008F0007DC08C2D61E00E94AB248091630288232F
:1009000019F060919F0202C060916B028C2D70E023
:100910000E944B246BC08C2D61E00E94AB2490910F
:100920006302992319F080919F0202C080916B02AB
:1009300080934C02992319F08091A00202C080910B
:100940006C0280934D0260914C0270914D0299238C
:1009500019F08091A10202C080916D0280934C0237
:10096000992319F08091A20202C080916E028093B7
:100970004D0280914C0290914D02181619064CF4CC
:100980009C01442737FD4095542F8C2D0E9435291A
:100990002DC08C2D0E94C22829C0222319F06091FD
:1009A0009F0202C060916B02062F10E0053B11050B
:1009B000E8F480E891E0B7010E94C51D80E891E06D
:1009C000B8010E94DE1C12C00E9457230E94932E81
:1009D00020E030E04AE754E40E94FA2D6093D2020E
:1009E0007093D3028093D4029093D502C65BDF4FFD
:1009F0000FB6F894DEBF0FBECDBFCF91DF911F9130
:100A00000F91FF90EF90DF90CF90089510926202C7
:100A10008CE695E00E944227181619065CF481E0E6
:100A200080936202109263028CE695E00E94762722
:100A30008093D0020895682F8CE695E00E94AF273E
:100A40000895EF92FF920F931F937B018C0182E038
:100A50000E941B05E0924802F092490200934A026C
:100A600010934B02809148020E941B05809149021D
:100A70000E941B0580914A020E941B0580914B0237
:100A80000E941B051F910F91FF90EF900895EF9228
:100A9000FF920F931F93CF93DF937C01FC0104819E
:100AA000158184E00E941B05802F0E941B05C0E079
:100AB000D0E007C0C701BE010E94942B0E941B0515
:100AC0002196C017D107B4F3DF91CF911F910F91F9
:100AD000FF90EF900895CF92DF92EF92FF920F93E5
:100AE0001F93DF93CF9300D000D000D0CDB7DEB7F7
:100AF00020916302222319F0F0909E0202C0F09030
:100B00006A020F2D10E08730910509F46EC088301D
:100B10009105D4F4853091057CF4833091050CF077
:100B200064C08130910579F1823091050CF03DC0AF
:100B3000892B09F478C1AEC18530910509F46BC0E9
:100B4000069709F0A7C14AC18531910509F4FDC096
:100B50008631910564F48031910509F493C08131A7
:100B6000910509F4C2C00F9709F094C19EC08F315E
:100B7000910509F46FC18233910509F481C14E9743
:100B800009F088C15FC186EA91E00E948A1590E071
:100B90008017910729F086EA91E06F2D0E94901549
:100BA00086EA91E00E94E01B73C1222319F0E090D5
:100BB0009F0202C0E0906B0287E891E00E948A15D4
:100BC00090E08017910731F487E891E00E948D153D
:100BD0008E1531F087E891E06F2D4E2D0E94B419EB
:100BE00087E891E00E94221B53C184EB91E00E94B0
:100BF0008A1590E08017910709F43FC084EB91E0DB
:100C00006F2D0E94901584EB91E00E94B61560E074
:100C10000E94AB2432C0222319F080919F0202C0AF
:100C200080916B02C82EDD2484EB91E00E948A152E
:100C300090E08017910799F084EB91E06F2D0E946E
:100C4000901584EB91E00E94B31560E00E94AB2404
:100C500084EB91E00E94B61560E00E94AB2481E035
:100C6000C816D10429F484EB91E00E94C315FFC09B
:100C7000E2E0CE16D10409F00DC184EB91E00E94B0
:100C8000BE15F5C088EB91E00E948A1590E08017B0
:100C9000910729F088EB91E06F2D0E9490156091EB
:100CA000CF0270E080E090E01DC084EB91E00E94F4
:100CB0008A1590E08017910761F084EB91E06F2D29
:100CC0000E94901584EB91E00E94B61560E00E94AE
:100CD000AB2484EB91E00E94EE1590E0A0E0B0E040
:100CE000BC01CD010E94932ED3C084EB91E00E9401
:100CF0008A1590E08017910799F084EB91E06F2DB1
:100D00000E94901584EB91E00E94B31560E00E9470
:100D1000AB2484EB91E00E94B61560E00E94AB2406
:100D200084EB91E00E940216E82E84EB91E00E9491
:100D3000EE15FF24EE0CFF1CE80EF11C0027F7FC5B
:100D40000095102FC801B70198C0222319F0E09038
:100D50009F0202C0E0906B02CE2CDD2484EB91E078
:100D60000E948A1590E08017910741F484EB91E08E
:100D70000E948D1590E08C159D0531F084EB91E07B
:100D80006F2D4E2D0E94A015F1E0CF16D10461F415
:100D900084EB91E00E94B31562E00E94AB2484EBE7
:100DA00091E00E9402160BC084EB91E00E94B61500
:100DB00062E00E94AB2484EB91E00E94EE1590E08B
:100DC000A0E0B0E0BC01CD010E94932EE62F2E2FB3
:100DD000372F482F592FB901CA015AC0222319F0C1
:100DE00080919F0202C080916B02082F10E08EEB71
:100DF00091E00E944E100130110529F48EEB91E034
:100E00000E94250F45C00230110529F48EEB91E0B8
:100E10000E94E10E3DC003301105E1F58EEB91E03B
:100E20000E94B40E35C08E010F5F1F4FC8016CE5E4
:100E300072E00E943E2CC8010E944705C8010E9432
:100E4000482C28C08F2D60E00E94AB248F2D0E947B
:100E50003E250DC0000F111F085F1E4FF8011081C5
:100E6000812F60E00E94AB24812F0E942924AA27B1
:100E700097FDA095BA2FBC01CD010E94952E08C008
:100E80006091D6027091D7028091D8029091D902D8
:100E90000E94210526960FB6F894DEBF0FBECDBF87
:100EA000CF91DF911F910F91FF90EF90DF90CF9046
:100EB00008958FEF0E941B0585E50E941B0508958C
:100EC0008CE695E00E94812808958FEF0E941B0513
:100ED00085E50E941B050E94600708950F931F93EC
:100EE0001092CE0280916302882339F000919B0218
:100EF00080919C0210919D0206C000916702809132
:100F00006802109169028230C1F0833020F4813090
:100F100009F056C006C08430A9F0853009F050C0F1
:100F20004DC00E945907802F0E941B05812F90E021
:100F30000E946B050E94600743C0812F90E00E94D1
:100F400094013CC083E891E069E00E94901583E839
:100F500091E060E070E00E94040C83E891E06AE0B8
:100F60000E94901583E891E060E070E00E94040C1C
:100F700083E891E061E00E94901583E891E060E0F1
:100F800070E00E94040C83E891E062E00E949015FA
:100F900083E891E060E070E00E94040C8EE492E04F
:100FA00040E050E060E070E00E94000D85E592E0D6
:100FB00040E050E060E070E00E94000D0E94650794
:100FC0001F910F9108950E9457230E94932E20E0B5
:100FD00030E04AE754E40E94FA2D2091D202309189
:100FE000D3024091D4025091D5020E942F2D6093DC
:100FF000D6027093D7028093D8029093D90288EBDF
:1010000091E00E944515882371F088EB91E00E94E1
:101010003415181619064CF488EB91E00E9401155E
:101020008093CF0202C01092CF020E9406058EEF7D
:1010300091E00E94961983E292E00E9496198091B5
:101040006202882309F44FC02091D002253571F443
:101050008091CE02882351F48091D1028F3F31F5E7
:1010600081E08093CC028093CE0220C02093D102F5
:101070008091CE028823D1F09091CC02923019F465
:101080002093CD0207C0933028F08091CD0281508B
:101090008093CD02E92FF0E080916302882319F05C
:1010A000E856FD4F02C0EC59FD4F20838091CC02E1
:1010B0008F5F8093CC02843320F01092CC02109288
:1010C000CE028091CE02882371F08091CD028823D8
:1010D00051F48091CC02843030F01092CE020E9404
:1010E0006E071092CC0208950F931F93DF93CF9356
:1010F000CDB7DEB7C855D0400FB6F894DEBF0FBEEF
:10110000CDBF8DE061E00E94AB248DE061E00E94E4
:10111000EA246CE271E080E090E00E948B238DE095
:1011200060E00E94EA248CE695E040E052EC61E049
:1011300070E00E94BB26CE010F960E94D4178989C9
:101140009A89AB89BC898093000290930102A09395
:101150000202B09303028D89809304028E898093EA
:1011600005028F8980930602888D998DAA8DBB8D8B
:101170008093070290930802A0930902B0930A0299
:101180008C8D9D8DAE8DBF8D80930B0290930C0244
:10119000A0930D02B0930E0288A199A1AAA1BBA1B0
:1011A00080930F0290931002A0931102B093120249
:1011B0008CA19DA1AEA1BFA18093130290931402B4
:1011C000A0931502B093160288A599A5AAA5BBA560
:1011D0008093170290931802A0931902B0931A02F9
:1011E0008CA59DA5AEA5BFA580931B0290931C0264
:1011F000A0931D02B0931E0288A999A9AAA9BBA910
:1012000080931F0290932002A0932102B0932202A8
:10121000CE01C4960E94D4178EA99FA9A8ADB9ADDE
:101220008093250290932602A0932702B093280270
:101230008AAD809329028BAD80932A028CAD809376
:101240002B02FE01FD9680819181A281B381809362
:101250002C0290932D02A0932E02B0932F02FE0138
:10126000EF5BFF4F80819181A281B3818093300237
:1012700090933102A0933202B0933302FE01EB5BF4
:10128000FF4F80819181A281B3818093340290933A
:101290003502A0933602B0933702FE01E75BFF4FA1
:1012A00080819181A281B381809338029093390229
:1012B000A0933A02B0933B02FE01E35BFF4F8081B3
:1012C0009181A281B38180933C0290933D02A093CF
:1012D0003E02B0933F02FE01EF5AFF4F80819181A1
:1012E000A281B3818093400290934102A093420275
:1012F000B0934302FE01EB5AFF4F80819181A2819E
:10130000B3818093440290934502A0934602B09328
:1013100047028E010F5F1F4FC80161E00E94A40EBB
:10132000AEE4B2E0F80187E001900D928150E1F760
:101330008E01085F1F4FC80162E00E94A40EA5E560
:10134000B2E0F80187E001900D928150E1F78EE460
:1013500092E00E948E0E85E592E00E948E0E64EF70
:1013600071E080E090E00E948B238EE492E040E008
:1013700050E060E070E00E94000D85E592E040E002
:1013800050E060E070E00E94000DC85ADF4F0FB6D9
:10139000F894DEBF0FBECDBFCF91DF911F910F91AB
:1013A00008952F923F924F925F926F927F928F9209
:1013B0009F92AF92BF92CF92DF92EF92FF920F93E4
:1013C0001F93CF93DF931A012B01E90137FD44C02E
:1013D0002196BE01882777FD8095982F21970E943E
:1013E000952E9B01AC0160E070E080E291E40E94E8
:1013F0002D305B016C01C201B101A60195010E9473
:10140000FA2D0E94D02E3B014C01BE01882777FDAA
:101410008095982F0E94952E9B01AC0160E070E0B2
:1014200080E291E40E942D307B018C01C401B30164
:10143000A60195010E94CA2F9B01AC01C201B10116
:101440000E942F2DA80197010E94FA2D0E94D02EF4
:101450000E94622ECB011CC000271127021B130B18
:10146000C0E0D0E0C201B10120E030E040E251E450
:101470000E94CA2F1B012C012196C017D10794F39B
:101480000E94622EDC01CB016AE070E00E94DB3139
:10149000DF91CF911F910F91FF90EF90DF90CF9050
:1014A000BF90AF909F908F907F906F905F904F9084
:1014B0003F902F9008950F931F938C01FC0180851E
:1014C00060E00E94EA24F801818560E00E94EA243D
:1014D000F801808561E00E94EA24F801818561E0DD
:1014E0000E94EA241F910F9108950F931F938C017E
:1014F000FC01808561E00E94EA24F801818561E0B9
:101500000E94EA24F801818560E00E94EA24F80143
:10151000808560E00E94EA241F910F9108950F9347
:101520001F938C01E62FDC0112966C931297F0E06A
:10153000EE0FFF1FE85EFE4F818111968C9311978D
:1015400090819C9318968C93189719969C9361E0C0
:101550000E94AB24F801818561E00E94AB2480E405
:10156000D80114968C93149780EC15968C9315974C
:101570008AE816968C931F910F910895FF920F930E
:101580001F93CF93DF93EC01162FFF24888560E033
:101590000E94EA24012F112707FD109500FF03C0C8
:1015A000898561E002C0898560E00E94EA2488851F
:1015B00061E00E94EA24F39488E0F81621F0159582
:1015C0000795102FE3CF888560E00E94EA24898583
:1015D00061E00E94EA24888561E00E94EA2489850E
:1015E00060E00E94AB240BC01F5F183C49F4898562
:1015F00061E00E94AB24898560E00E94EA2410E04B
:1016000089850E943E25892B79F7898561E00E94B2
:10161000AB24DF91CF911F910F91FF9008950F930D
:101620001F93DF93CF9300D000D0CDB7DEB78C01EE
:1016300020E030E0AE014F5F5F4FFA01E20FF31F91
:10164000DB01A20FB31F8C9180832F5F3F4F2430AB
:10165000310599F7DA019E012B5F3F4FEC91EF378F
:1016600011F41C9207C0FF27E7FDF095EA5CFE4FDE
:1016700080818C931196A217B30781F7C8010E944D
:10168000750AC80160E40E94BE0AC8010E945B0A94
:10169000C8010E94750AC801F80165810E94BE0A4E
:1016A000C80169810E94BE0AC8016A810E94BE0AFF
:1016B000C8016B810E94BE0AC8016C810E94BE0AEB
:1016C000C8010E945B0AC8010E94750AC801F8019E
:1016D00066810E94BE0AC8010E945B0A0F900F90AB
:1016E0000F900F90CF91DF911F910F9108952F923E
:1016F0003F924F925F926F927F929F92AF92BF9272
:10170000CF92DF92EF92FF920F931F93DF93CF93CD
:1017100000D000D0CDB7DEB73C017A018B01198231
:101720001A821B821C82CB01BA0120E030E040E02B
:1017300050E00E94F62D87FD03C0AA24BB2409C0F7
:1017400017FB109517F9109580E2898331E0A32EDD
:10175000B12CCC24DD24992423E0222E312C2E011F
:101760000894411C511C91012C193D09C301B80179
:10177000A7010E94D109181619063CF023E0C216F1
:10178000D10439F09920B1F00EC023E0C216D10483
:1017900041F4F201EA0DFB1D805F8083992493944C
:1017A00006C099249394F201EA0DFB1D80830894EE
:1017B000A11CB11C84E0A816B1043CF40894C11C1F
:1017C000D11C27E0C216D10471F6C301BE016F5FC0
:1017D0007F4F0E940F0B0F900F900F900F90CF91A3
:1017E000DF911F910F91FF90EF90DF90CF90BF900E
:1017F000AF909F907F906F905F904F903F902F9011
:1018000008950E945C150895EF92FF920F931F9325
:10181000CF93DF93F82EE92EEB016F3F710519F09E
:1018200014F0CFEFD0E08E018FEFC130D8071CF459
:1018300001E01FEF0BC0D7FD09C08F2D9E2D61E089
:101840000E94C8158F2D9E2DBE010BC08F2D9E2D81
:1018500060E00E94C81566277727601B710B8F2DEB
:101860009E2D0E94B915DF91CF911F910F91FF908E
:10187000EF90089560E00E946E1508952F923F92B8
:101880004F925F926F927F928F929F92AF92BF9290
:10189000CF92DF92EF92FF920F931F93DF93CF933C
:1018A00000D000D0CDB7DEB75C011A012B01C98290
:1018B000DA82EB82FC8285EAD5018C9311962C9317
:1018C0001197FE0131961296CC9212978181139650
:1018D0008C931397828114968C9314978381159619
:1018E0008C9326E030E040E050E0CC24DD2476010B
:1018F00011C0F501E20FF31FD801AC0DBD1D8C9195
:1019000080832F5F3F4F4F4F5F4F0894C11CD11C06
:10191000E11CF11C69807A808B809C80C614D704FE
:10192000E804F90430F390E0CC24DD2476010AC009
:10193000F801EC0DFD1D808198270894C11CD11C75
:10194000E11CF11CC614D704E804F90488F3F5017E
:10195000E20FF31F9083DA01C9010196A11DB11DA9
:10196000A80EB91E2AE5F50120838C019D010F5FA9
:101970001F4F2F4F3F4F201631064206530620F4CB
:1019800000E010E020E030E0B801C9010F900F90B6
:101990000F900F90CF91DF911F910F91FF90EF90DB
:1019A000DF90CF90BF90AF909F908F907F906F907F
:1019B0005F904F903F902F9008958130910541F4B2
:1019C0006F5F7F4F71F48AED92E00E945812089584
:1019D000892B39F46F5F7F4F21F48AED92E00E94EA
:1019E0007912089580E090E06FEF7FEF0E94DD0CA8
:1019F000089581E090E06FEF7FEF0E94DD0C089585
:101A00006F927F928F929F92AF92BF92CF92DF920E
:101A1000EF92FF920F931F93DF93CF93CDB7DEB773
:101A20006E970FB6F894DEBF0FBECDBF3C01B1E19B
:101A3000AB2EB12CAC0EBD1E8EE0D5011D928A9549
:101A4000E9F7A7E08A2E912C8C0E9D1E8AE0F40106
:101A500011928A95E9F7FE01319686E0DF011D9229
:101A60008A95E9F7D30116968C91898385E08A835C
:101A70004B835C836D837E83C5014EE050E060E064
:101A800070E021E08F01F6E0CF2ED12CE12CF12C7B
:101A90000E943E0CC301B501A4012EE030E00AE033
:101AA00010E00E94E91B0AED12E0C801B4012AE02F
:101AB00030E040E050E00E947A12C8010E945213C8
:101AC00080E06E960FB6F894DEBF0FBECDBFCF910B
:101AD000DF911F910F91FF90EF90DF90CF90BF901B
:101AE000AF909F908F907F906F9008952F923F922C
:101AF0004F925F926F927F928F929F92AF92BF921E
:101B0000CF92DF92EF92FF920F931F93DF93CF93C9
:101B1000CDB7DEB7A8970FB6F894DEBF0FBECDBF26
:101B20001C016A017B0128013901CB01BA0120E0C7
:101B300030E040E050E00E94F62D882331F4C101EE
:101B4000B301A2010E94000D5BC007E1A02EB12CE1
:101B5000AC0EBD1E82E1D5011D928A95E9F78AE09F
:101B600013E0812E912C8C0E9D1EF401982F119262
:101B70009A95E9F7FE013D96DF011D928A95E9F7F6
:101B8000D10116968C918D8781E18E87C282D38296
:101B9000E482F5824682578260867186C50142E101
:101BA00050E060E070E021E08F01BAE0CB2ED12C54
:101BB000E12CF12C0E943E0CC101B501A40122E1EF
:101BC00030E00AE010E00E94E91B8AED92E0B401E7
:101BD0002AE030E040E050E00E947A128AED92E084
:101BE0000E9452131A8219828AED92E0BE016F5F41
:101BF0007F4F22E030E040E050E00E9410138A81E5
:101C0000A8960FB6F894DEBF0FBECDBFCF91DF917F
:101C10001F910F91FF90EF90DF90CF90BF90AF900A
:101C20009F908F907F906F905F904F903F902F90FC
:101C300008956F927F928F929F92AF92BF92CF92B0
:101C4000DF92EF92FF920F931F93DF93CF93CDB765
:101C5000DEB768970FB6F894DEBF0FBECDBF3C016C
:101C60008AE015E0A12EB12CAC0EBD1EF501982F17
:101C700011929A95E9F7BFE08B2E912C8C0E9D1E48
:101C8000F40111928A95E9F7F3018681898387E04F
:101C90008A83C5014AE050E060E070E021E08E01F7
:101CA0000F5F1F4FA2E0CA2ED12CE12CF12C0E9415
:101CB0003E0CC301B501A4012AE030E00AE010E0C7
:101CC0000E94E91B0AED12E0C801B4012AE030E0ED
:101CD00040E050E00E947A121C821B82C801BE01C3
:101CE0006D5F7F4F22E030E040E050E00E94101333
:101CF0008C8168960FB6F894DEBF0FBECDBFCF9132
:101D0000DF911F910F91FF90EF90DF90CF90BF90E8
:101D1000AF909F908F907F906F9008950F931F9337
:101D20008C010E94601CC8010E94190E1F910F9126
:101D300008950F931F938C0168E00E94751CF801B1
:101D400016821F910F910895EF92FF921F937C01CD
:101D5000162F68E00E94751C1150F70116831F9121
:101D6000FF90EF9008950895EF92FF920F931F93C5
:101D7000FC01E08CF18C028D138DC801B70120E0CD
:101D800030E040E050E00E94F62D882329F4E0E0A6
:101D900070E080E060E00AC0C801B70120E030E0F8
:101DA00040E251E40E94FA2DE62F692F2E2F372FA3
:101DB000482F562FB901CA011F910F91FF90EF9044
:101DC0000895EF92FF920F931F93CF93DF93FC013F
:101DD000C0A1D1A1209729F4E0E070E080E060E0AC
:101DE00027C0668D778D882777FD8095982F0E9474
:101DF000952E7B018C01BE01882777FD8095982F59
:101E00000E94952E9B01AC01C801B7010E94FA2DDA
:101E10000E94CE2D20E030E044E353E40E94CA2F1C
:101E20002AED3FE049E450E40E94FA2DE62F692FA5
:101E30002E2F372F482F562FB901CA01DF91CF918E
:101E40001F910F91FF90EF900895EF92FF920F93E3
:101E50001F93CF93DF93FC01C0A1D1A1209729F458
:101E6000E0E070E080E060E027C0648D758D882739
:101E700077FD8095982F0E94952E7B018C01BE01E5
:101E8000882777FD8095982F0E94952E9B01AC01A5
:101E9000C801B7010E94FA2D0E94CE2D20E030E04B
:101EA00044E353E40E94CA2F2AED3FE049E450E4A2
:101EB0000E94FA2DE62F692F2E2F372F482F562FED
:101EC000B901CA01DF91CF911F910F91FF90EF905F
:101ED0000895EF92FF921F93CF93DF93162F7A010D
:101EE000E90181E694E068E670E00E948A1E81E6DE
:101EF00094E0612F0E940C1F019719F02CEE3FEF28
:101F000013C081E694E0B701AE010E94DB1E8C177E
:101F10009D0719F02BEE3FEF07C081E694E061E0EA
:101F20000E943C1F282F30E0C901DF91CF911F9103
:101F3000FF90EF900895DF93CF930F92CDB7DEB768
:101F40004983AE014F5F5F4F21E030E00E94690F8F
:101F50000F90CF91DF910895AF92BF92CF92DF9211
:101F6000EF92FF920F931F937C016BE670E040E0CD
:101F70000E949B0F5C01C7016AE170E041E00E9492
:101F80009B0F8C01C7016BE170E048E00E949B0F42
:101F90006C0160E070E08AE794E4F70126A537A5BC
:101FA00040A951A90E94FA2D20E030E040E85FE30B
:101FB0000E942F2D0E94672E9B01AC01C70169E191
:101FC00070E0422F0E949B0F0A0D1B1D0C0D1D1D62
:101FD000080F191FC8011F910F91FF90EF90DF901C
:101FE000CF90BF90AF900895CF92DF92EF92FF9283
:101FF0000F931F93CF93DF93162F6A01790181E628
:1020000094E068E670E00E948A1E81E694E0612F09
:102010000E940C1F019719F006EF1FEF35C081E6F3
:1020200094E060E00E943C1F082F10E001151105AC
:1020300059F581E090E00E94E42381E694E068E6AF
:1020400070E0A70121E030E00E94601FC0E0D0E016
:1020500081E694E00E94941E892B69F0CE15DF057D
:1020600054F481E694E00E949D1EF601EC0FFD1FE2
:1020700080832196EDCF81E090E00E94E423CE158D
:10208000DF0511F005EF1FEFC801DF91CF911F9120
:102090000F91FF90EF90DF90CF9008952F923F9295
:1020A0004F925F926F927F928F929F92AF92BF9268
:1020B000CF92DF92EF92FF920F931F93DF93CF9314
:1020C000CDB7DEB762970FB6F894DEBF0FBECDBFB7
:1020D0009A8B898B0E94572389899A890E94AC0F19
:1020E000892B09F0CCC149895A894E5C5F4F898997
:1020F0009A896BE370E02EE030E00E94F40F8823B1
:1021000009F0BDC1A989BA89D2969C91D29780E085
:10211000D3966C90D3977724682A792A5D967C921F
:102120006E925C97D4969C91D49780E0D596AC90B3
:10213000D597BB24A82AB92A5F96BC92AE925E9727
:10214000D6969C91D69780E0D7962C90D79733243B
:10215000282A392A91963C922E929097DA967C9171
:10216000DA9760E0DB962C9130E0622B732B8827A6
:1021700077FD8095982F0E94952EE989FA8922A1F2
:1021800033A144A155A10E942F2DA989BA892D916F
:102190003D914D915C910E94FA2D6D837E838F83DA
:1021A0009887E989FA89608B718B828B938B74ADE8
:1021B00060E025AD30E0622B732B882777FD80959A
:1021C000982F0E94952EA989BA8996962D913D91B6
:1021D0004D915C9199970E942F2DE989FA89208170
:1021E0003181428153810E94FA2D69877A878B87DA
:1021F0009C87A989BA8954966D937D938D939C93FE
:102200005797DE967C91DE9760E0DF962C9130E068
:10221000622B732B882777FD8095982F0E94952E2F
:10222000E989FA8922A533A544A555A50E942F2D39
:102230007B018C01A989BA896D917D918D919C91C9
:1022400020E030E040E85FE30E94302D9B01AC01CC
:10225000C801B7010E94FA2D6D877E878F87988B02
:10226000E989FA89608F718F828F938F882477FC38
:102270008094982CC401B3010E94952E3B014C011F
:10228000CC24B7FCC094DC2CC601B5010E94952E6D
:1022900069837A838B839C839B01AC010E94CA2F44
:1022A0007B018C01442437FC4094542CC201B101C1
:1022B0000E94952E9B01AC010E94CA2F5B016C010C
:1022C000C801B701A60195010E94302D0E947D3002
:1022D0009B01AC01C401B3010E94A32D1B012C0181
:1022E000C401B301A40193010E94CA2F9B01AC0158
:1022F000CA01A60195010E94302D0E947D309B01EC
:10230000AC0169817A818B819C810E94A32D3B0164
:102310004C016D817E818F819885A989BA899E96AD
:102320002D913D914D915C91D1970E94FA2D9B0189
:10233000AC01E989FA8964817581868197810E945F
:10234000302D7B018C01A989BA8914966D937D93F8
:102350008D939C93179769857A858B859C859E962E
:102360002D913D914D915C91D1970E94FA2D9B0149
:10237000AC01E989FA8960857185828593850E941F
:102380002F2D5B016C01A989BA8918966D937D93F5
:102390008D939C931B976D857E858F8598899E96DE
:1023A0002D913D914D915C91D1970E94FA2D9B0109
:1023B000AC01E989FA8964857585868597850E94CF
:1023C000302DA989BA891C966D937D938D939C932A
:1023D0001F97C801B7012FE832EC45E75FE30E9481
:1023E000CA2F7B018C01C401B30120E030E044E33B
:1023F00053E40E94CA2F2BED3FE049E450E40E94D1
:10240000FA2D2AE037ED43E25DE30E94CA2F9B01DB
:10241000AC01C801B7010E94302DE989FA896483B3
:10242000758386839783C601B5012FE832EC45E7B3
:102430005FE30E94CA2F7B018C01C201B10120E041
:1024400030E044E353E40E94CA2F2BED3FE049E41F
:1024500050E40E94FA2D2AE037ED43E25DE30E944A
:10246000CA2F9B01AC01C801B7010E94302DA98978
:10247000BA8918966D937D938D939C931B97629662
:102480000FB6F894DEBF0FBECDBFCF91DF911F9185
:102490000F91FF90EF90DF90CF90BF90AF909F9003
:1024A0008F907F906F905F904F903F902F90089506
:1024B000FC0181E090E091838083EE5FFE4F1192FA
:1024C00011921192119211921192119211921192F4
:1024D00011921192119211921192119211921192E4
:1024E0001192119211921192108211821282138212
:1024F000089508953F924F925F926F927F928F92CC
:102500009F92AF92BF92CF92DF92EF92FF920F9382
:102510001F93DF93CF9300D000D0CDB7DEB74C012F
:102520007A83698329013A0192E0C92E91E0D92E7C
:10253000C80CD91CF60180819181A281B3818150A0
:102540009F4FAF4FBF4FF401EA5FFE4F20813181B3
:1025500042815381821B930BA40BB50B9070A0702A
:10256000B07084159505A605B70538F0EE24FF2454
:102570008701DC82CB82BF0138C080E03BC0E981AB
:10258000FA81EE0DFF1D3080AB81BC812D913D9114
:102590004D915C912F5F3F4F4F4F5F4F8FEFA82EB4
:1025A000B12CC12CD12CA222B322C422D52221507D
:1025B000304040405040FB0180819181A281B38135
:1025C000A816B906CA06DB0659F0F401E20FF31F9C
:1025D0003282AB81BC81AD92BD92CD92DC921397D9
:1025E0000894E11CF11C011D111DE414F5040605FD
:1025F000170528F20F900F900F900F90CF91DF9159
:102600001F910F91FF90EF90DF90CF90BF90AF9010
:102610009F908F907F906F905F904F903F90089524
:10262000FF920F931F93CF93DF93EC01C45FDE4FB4
:1026300088819981AA81BB81CC50D14082179307B0
:10264000A407B50718F4F82E592F02C0F22E532F05
:102650008E01005F1E4FD801ED91FC913097D1F0B3
:1026600061157105B9F0CB01BF014F2D0E94E90042
:10267000F801808191810E947722D8011D921C92DD
:10268000C45FDE4F188219821A821B822297188239
:102690004F2D01C040E0842FDF91CF911F910F910A
:1026A000FF9008952F923F924F925F926F927F9288
:1026B0008F929F92AF92BF92CF92DF92EF92FF9252
:1026C0000F931F93DF93CF93CDB7DEB72C970FB641
:1026D000F894DEBF0FBECDBF9C878B87845F9E4F73
:1026E0009A8389838B859C858A5F9E4F9C838B838D
:1026F000AB85BC85AE5FBE4FBE83AD83B7E1CB2E4D
:10270000B1E0DB2EEB85FC85CE0EDF1EA3E18A2E29
:10271000A1E09A2E8E0E9F1EE55FFE4FF887EF8395
:10272000F2E12F2EF1E03F2E8B859C85280E391E7D
:10273000865F9E4F9A878987AA24A394E0E14E2E54
:10274000E1E05E2EAB85BC854A0E5B1E69807A8017
:10275000FAC0B5EABB1609F0F6C082E090E005C009
:10276000AF81B885BC9283E090E0EB85FC859183D6
:102770008083E9C0D401ED91FC91119789819A8100
:10278000E80FF91FB0828D919D910D90BC91A02D05
:102790000196A11DB11DF40180839183A283B383AF
:1027A0000497A105B10509F0CEC0D4011D921D9278
:1027B0001D921C92139784E090E0D7CFF6018081A0
:1027C0009181A281B3810097A105B105D1F4F301F4
:1027D00080819181A281B3818F3F9105A105B105CF
:1027E00009F040F401960E94DA21F201918380837E
:1027F000009739F4E1E0F0E0AB85BC85ED93FC9304
:102800005BC0D201ED91FC91D6018D919C91119705
:10281000E80FF91FB0828D919D910D90BC91A02D74
:102820000196A11DB11DF60180839183A283B3831C
:10283000F301208131814281538182179307A407DC
:10284000B50709F080C0D6011D921D921D921C9201
:10285000139785E090E089CFD101BC92F2016081AD
:102860007181D301ED90FD900D911C9120E030E03D
:1028700040E050E090E009C0FB01E20FF31F8081CF
:1028800098272F5F3F4F4F4F5F4F2E153F05400753
:10289000510790F3B91639F181E090E0EB85FC85A2
:1028A00091838083D2018D919C91009729F00E94A1
:1028B0007722F20111821082D6011D921D921D9283
:1028C0001C921397F4011082118212821382D30199
:1028D0001D921D921D921C921397EF81F885108214
:1028E000D1011C9230C086E090E03FCF9AE5B91646
:1028F00089F0D2018D919C91009729F00E94772256
:10290000F20111821082D3011D921D921D921C9220
:10291000139703C0E985FA85A082E1E0F0E0AB857A
:10292000BC85ED93FC93D6011D921D921D921C92C5
:102930001397F4011082118212821382AF81B8853D
:102940001C92F1011082AB81BC812D913D914D9182
:102950005C91ED81FE8180819181A281B38182179A
:102960009307A407B50789F1EB85FC85E20FF31FF8
:10297000B2802F5F3F4F4F4F5F4F307040705070AD
:10298000AB81BC812D933D934D935C931397EB8565
:10299000FC85808191818330910509F4EBCE8430F0
:1029A00091053CF48130910509F4D3CE029759F694
:1029B000D7CE8530910509F44FCF853091050CF4C1
:1029C000FDCE069709F0BFCF91CFAB85BC858C912A
:1029D0002C960FB6F894DEBF0FBECDBFCF91DF911E
:1029E0001F910F91FF90EF90DF90CF90BF90AF902D
:1029F0009F908F907F906F905F904F903F902F901F
:102A00000895FC01858115820895EF92FF921F932E
:102A1000CF93DF937C01FC0181810E943E25892BAD
:102A200011F010E01AC010E0C0E0D0E085E690E0C0
:102A30000E94E423F70181810E943E250C2E02C0F2
:102A4000880F991F0A94E2F7182B2196C830D105F8
:102A500069F785E690E00E94E423812FDF91CF9112
:102A60001F91FF90EF900895CF93DF93EC010E94A8
:102A7000051518161CF020E030E003C08D8321E01E
:102A800030E0C901DF91CF9108950F931F93182F64
:102A9000092F0E948A15882311F490E006C0812F27
:102AA000902F0E94021691E09827892F1F910F9175
:102AB00008950E945C150895FC018091180180839F
:102AC00080911901818312820895FC01809118017F
:102AD000808380911901818312820895DC01E62FA1
:102AE000F0E0EE0FFF1FE85EFE4F80818C93818146
:102AF00011968C93119712966C9381E080938000CD
:102B00008BE08093810083E08093B00084E0809329
:102B1000B1000895FC0182810895FC01838108952C
:102B2000DC01E62FF0E0EE0FFF1FE85EFE4F808134
:102B30008C93818111968C93119712966C930895C2
:102B4000DC01E62FF0E0EE0FFF1FE85EFE4F808114
:102B50008C93818111968C93119712966C93129796
:102B600013964C930895FC0180810895FC018181A6
:102B70000895FC0180810E944B240895FC0181810D
:102B80000E9429240895FC0180810E94292408952F
:102B9000FF920F931F938C01F62EFC01818161E05F
:102BA0000E94AB24F80181816F2D0E94EA241F91BD
:102BB0000F91FF900895FF920F931F938C01F62EB3
:102BC000FC01808161E00E94AB24F80180816F2DBF
:102BD0000E94EA241F910F91FF9008950F931F9375
:102BE0008C01FC01818160E00E94AB24F8018181AD
:102BF0000E943E2520E0892B09F021E0822F1F91C1
:102C00000F9108950F931F938C01FC01808160E068
:102C10000E94AB24F80180810E943E2520E0892B90
:102C200009F021E0822F1F910F9108950F93DC018D
:102C3000522F262F30E014968D919C9115972817CE
:102C4000390710F080E01BC083E0689F802D1124BD
:102C500090E01696ED91FC911797E80FF91F5083BD
:102C60001696ED91FC911797E80FF91F4183169680
:102C7000ED91FC911797E80FF91F028381E00F9106
:102C80000895FF920F931F93DC01142F422F6623A8
:102C900069F560E070E083E0F82E20C0862F90E0B8
:102CA00082179307C8F46F9D802D112490E016962B
:102CB000ED91FC911797E80FF91F40831696ED915F
:102CC000FC911797E80FF91F11831696ED91FC916F
:102CD0001797E80FF91F02836F5F7F4F14962D91AE
:102CE0003C91159762177307C8F226C0262F30E073
:102CF00014968D919C9115972817390710F080E054
:102D00001CC083E0689FC0011124835090E0169698
:102D1000ED91FC911797E80FF91F40831696ED91FE
:102D2000FC911797E80FF91F11831696ED91FC910E
:102D30001797E80FF91F028381E01F910F91FF9011
:102D400008950F93362F542F022F60E0432F252F25
:102D50000E9441160F910895CF93DF93FC01C68125
:102D6000D781848195819C01220F331F280F391F41
:102D70009485A085B1855FB7F8948C91492F4095D3
:102D80004823982B11C0899168E09C9300C087FF6D
:102D90004C93880F00C000C000C008F44C9300C0E2
:102DA0006A9599F7215030402115310561F75FBFD1
:102DB000DF91CF9108950895CF93DF93EC0170E0F8
:102DC0007D836C83CB01880F991F860F971F0E940C
:102DD000DA218E839F8340E050E007C0EE81FF81BF
:102DE000E40FF51F10824F5F5F4F2C813D81C901B9
:102DF000880F991F820F931F4817590778F3DF91A7
:102E0000CF910895DC01E62F12966C931297F0E0B3
:102E1000EE0FFF1FE85EFE4F818111968C93119794
:102E200090819C93282F30E0F901E75BFE4FE491FD
:102E30001C96EC931C972B5C3E4FF901249130E0DB
:102E4000220F331FF901EF5DFE4F45915491199602
:102E50005C934E931897F901E95EFE4F25913491EA
:102E60001B963C932E931A9761E00E94AB24089521
:102E70000F931F938C0160E00E946E15C80160E201
:102E80000E94DC161F910F910895AF92BF92CF92CE
:102E9000DF92EF92FF920F931F93CF93DF93EC019A
:102EA0007A018B01498B5A8B6B8B7C8B60E070E0D5
:102EB0008AE794E4A80197010E94FA2D5B016C0156
:102EC00020E030E040E050E00E94BF2F18161CF4D4
:102ED000C601B50108C060E070E08AE794ECA80183
:102EE00097010E94FA2D20E030E04AE754E40E9466
:102EF000CA2F0E94672E6D8F7E8F8F8F98A369894E
:102F00007A898B899C8920E030E040E050E00E9483
:102F1000BF2F18161CF481E08E8301C01E828A81A7
:102F20006E810E94EA24DF91CF911F910F91FF9053
:102F3000EF90DF90CF90BF90AF9008950F931F93C5
:102F40008C01DC01ED91FC910280F381E02D09956B
:102F5000AB01BC01C8010E9445171F910F91089554
:102F6000FC01458B568B678B708F0E949E170895CE
:102F7000FC01458756876787708B0E949E170895CE
:102F80000F931F938C01FC01838161E00E94EA246E
:102F900081E090E00E94E423F801838160E00E94D8
:102FA000EA241F910F9108950F931F938C010296AD
:102FB00060E00E946E158BE591E0F80191838083BB
:102FC0001F910F9108950F931F938C0102960E94F9
:102FD0006E158BE591E0F80191838083118612864E
:102FE00013861486158616861786108A80E090E070
:102FF000A0E0B0E0818B928BA38BB48B80E090E853
:10300000ABE3B5E4858B968BA78BB08F818F928FC6
:10301000A38FB48F158E168E178E10A211A212A236
:1030200013A214A281E08683828161E00E94AB2416
:10303000F801838161E00E94AB24F80182816681FE
:103040000E94EA241F910F910895AF92BF92CF92F0
:10305000DF92EF92FF920F931F93CF93DF93EC01D8
:103060002D853E854F85588989859A85AB85BC8598
:10307000281B390B4A0B5B0B59F40F2EF0E0EF2E97
:10308000F0E0FF2EF0E00F2FF0E01F2FF02DDDC05D
:1030900012161306140615069CF4CA01B9010E9403
:1030A000952E9B01AC010E94302D298D3A8D4B8DC0
:1030B0005C8D0E94CA2F0E947D307B018C011BC059
:1030C00066277727CB01621B730B840B950B0E943D
:1030D000952E9B01AC010E94302D298D3A8D4B8D90
:1030E0005C8D0E94CA2F0E947D307B018C0117FBF2
:1030F000109517F91095A988BA88CB88DC88C80183
:10310000B701A60195010E94BF2F18160CF047C009
:10311000C601B50120E030E040E050E00E94F62D0D
:10312000882359F4298D3A8D4B8D5C8DCA01B901E4
:103130000E94302D0E947D301CC0698D7A8D8B8D50
:103140009C8DA60195010E94FA2D7B018C0120E047
:1031500030E040E050E00E94BF2F181624F017FB2B
:10316000109517F91095C601B501A80197010E94A5
:10317000302D7B018C01DD88CE88BF88A88C2D2D59
:103180003C2D4B2D5A2D0E94BF2F18160CF05DC000
:103190008D2D9C2DAB2DBA2D7C018D0156C0C80103
:1031A000B701A60195010E94F62D88230CF04DC0B1
:1031B000C601B50120E030E040E050E00E94F62D6D
:1031C000882389F4298D3A8D4B8D5C8DCA01B90114
:1031D0000E94302D0E947D307B018C0117FB1095E1
:1031E00017F910951EC0698D7A8D8B8D9C8DA60167
:1031F00095010E94FA2D7B018C0120E030E040E037
:1032000050E00E94BF2F181624F017FB109517F9F5
:103210001095C601B501A80197010E942F2D7B01D1
:103220008C018D899E89AF89B88D5C016D01D7FABB
:10323000D094D7F8D094C801B701A60195010E9497
:10324000F62D882314F486017501B701C801DF91BA
:10325000CF911F910F91FF90EF90DF90CF90BF9093
:10326000AF900895AF92BF92CF92DF92EF92FF920C
:103270000F931F93CF93DF93EC010E9465235B01B3
:103280006C018D8D9E8DAF8DB8A129A13AA14BA166
:103290005CA1820F931FA41FB51F8A159B05AC0567
:1032A000BD0510F080E037C0E988FA880B891C89D9
:1032B000C801B70120E030E040E050E00E94BF2F9D
:1032C000181644F489859A85AB85BC850196A11DA5
:1032D000B11D11C0C801B70120E030E040E050E06E
:1032E0000E94F62D88235CF489859A85AB85BC8580
:1032F0000197A109B10989879A87AB87BC87E881C3
:10330000F9810190F081E02DCE010995A9A2BAA220
:10331000CBA2DCA281E0DF91CF911F910F91FF90B2
:10332000EF90DF90CF90BF90AF900895CF93DF9351
:10333000EC012D853E854F85588989859A85AB8519
:10334000BC85281739074A075B0711F480E009C0DC
:10335000CE010E943219882319F0CE010E949E17D7
:1033600081E0DF91CF9108951F93CF93DF93EC011C
:10337000142F0E94A015123011F4E98101C0E881D8
:103380002E2F30E0C901875B9E4FFC0184918C8316
:103390002B5C3E4FF9018491E82FF0E0EE0FFF1F08
:1033A000E55DFE4F859194919E838D83DF91CF9152
:1033B0001F9108950E945C150895DF92EF92FF928D
:1033C0000F931F93FC01E08001811281F894F801B2
:1033D00081818E2981838281DE2CD0948D2182830C
:1033E00083E090E00E94E423F80181818D218183B4
:1033F00082818E2982838AE090E00E94E423F80192
:103400000081789485E390E00E94E42380E010E05E
:10341000FF240E211F21012B09F081E01F910F9144
:10342000FF90EF90DF900895EF92FF920F931F931C
:10343000CF93DF937C0101E010E0C0E0D0E0C70152
:103440000E94DD198111102B000F2196C830D10583
:10345000B1F7812FDF91CF911F910F91FF90EF90E6
:1034600008951F93CF93DF93FC011081C181D28116
:10347000912F909560FF12C0F8948A8189238A83E6
:103480008981812B89838AE090E00E94E4238A81EC
:10349000812B8A83789487E390E011C0F8948A8125
:1034A00089238A838981812B898381E490E00E942A
:1034B000E4238A81812B8A83789485E090E00E94BE
:1034C000E423DF91CF911F910895CF92DF92EF9285
:1034D000FF920F931F93CF93DF93EC01E42EFF2411
:1034E000F39400E010E0C62EDD2460E08F2D90E024
:1034F0008C219D21892B09F061E0CE010E94311AB7
:10350000FF0C0F5F1F4F0830110579F7EE20B1F463
:10351000F894E981FA81918188818095982391833B
:10352000E981FA8182819881892B8283E981FA81FC
:10353000928188818095982392837894DF91CF91AE
:103540001F910F91FF90EF90DF90CF9008956CEC5A
:1035500040E00E94651A0895DF92EF92FF920F9368
:103560001F93CF93DF93FC010081C181D281F89436
:103570008981D02ED0948D2189838A81802B8A8362
:1035800078941DE7E02EFF24115071F182E090E065
:103590000E94E423888190E08E219F21892BA1F352
:1035A000F8948A818D218A838981802B89837894FC
:1035B00080EE91E00E94E423F89489818D21898333
:1035C0008A81802B8A8386E490E00E94E4238881AC
:1035D00010E090E0E822F922EF2809F411E0789455
:1035E0008AE991E00E94E423812FDF91CF911F911E
:1035F0000F91FF90EF90DF900895EF92FF920F935D
:103600001F93FC01E08001811281F80181819E2DD0
:1036100090958923818382818E2982838AE090E03C
:103620000E94E423F801808120E090E0FF248E21B5
:103630009F21892B09F021E0822F1F910F91FF908C
:10364000EF900895AF92BF92CF92DF92EF92FF92E8
:103650000F931F93DF93CF93CDB7DEB72C970FB6A1
:10366000F894DEBF0FBECDBF74E0E72EF12CE80E5C
:10367000F91EC7010E94AC1AC7010E94A71AC70110
:1036800064E440E00E94651A0E9457235B016C01CC
:10369000C7010E94FD1A8823C1F50E9457236A19A9
:1036A0007B098C099D096E5E72408040904068F5F0
:1036B000EFCFC7010E94141AF80181938F01EC1516
:1036C000FD05B9F77A8160E0298130E0622B732B28
:1036D000882777FD8095982F0E94952E20E030E076
:1036E00040E85DE30E94CA2F2C960FB6F894DEBF27
:1036F0000FBECDBFCF91DF911F910F91FF90EF9043
:10370000DF90CF90BF90AF900895C7010E94AC1A90
:10371000C7010E94A71AC7016EEB40E00E94651A1C
:103720008E010F5F1F4F66E0C62ED12CCC0EDD1E22
:10373000C0CFCF92DF92EF92FF920F931F938C0135
:103740006A017B0160E00E94C81582E090E00E945F
:10375000E423C80161E00E94C8158AE090E00E945D
:10376000E423C80160E00E94C815F801818160E08F
:103770000E94AB24F801818161E0A70196010E94BB
:1037800091251F910F91FF90EF90DF90CF900895BA
:1037900027E330E0629FA001639F500D729F500DA0
:1037A000112448535F4F60E070E00E94991B0E9413
:1037B000952E20E030E048E652E40E94FA2D08956C
:1037C00060E971E00E94C81B089560E00E946E15D8
:1037D0000895AF92BF92CF92DF92EF92FF920F9334
:1037E0001F93CF93DF935C016B01EA017901FC0128
:1037F0006481758181E694E00E948A1E81E694E0EE
:10380000B601A7010E94DB1E81E694E00E944F1FD3
:1038100082E090E00E94E423F5016481758181E6F5
:1038200094E0A8010E94631F82E090E00E94E423DC
:1038300010E009C081E694E00E949D1EFE01E10FA8
:10384000F11D80831F5F81E694E00E94941E892B06
:1038500089F7DF91CF911F910F91FF90EF90DF904B
:10386000CF90BF90AF900895CF92DF92EF92FF92EA
:103870000F931F937C01D62EC42E01E614E0FC01A9
:1038800064817581C8010E948A1EC8016D2D0E9445
:103890000C1FC8010E944F1FF70164817581C80188
:1038A0000E948A1EC8016C2D0E940C1FC8010E9434
:1038B0004F1F1F910F91FF90EF90DF90CF900895D1
:1038C0000F931F938C0168EE73E080E090E00E94FC
:1038D0008B2381E694E00E94671FC8016EE141E0FE
:1038E0000E94341C1F910F910895EF92FF920F9345
:1038F0001F937C01062F0E945C1510E00F5F1F4F85
:10390000F701158304831F910F91FF90EF900895A5
:10391000FC018091F5038C3090F480838F5F80935D
:10392000F503815090E0FC01EE0FFF1FE80FF91F37
:10393000EA50FC4F88EB9BE09283818308958FEFE0
:1039400080830895FC0120812C30B8F5818199276E
:1039500087FD909548E850E0481B590B440F551FD0
:10396000440F551F6417750784F08281992787FDDE
:10397000909548E552E0481B590B440F551F440FE2
:10398000551F641775070CF4AB0142505040CA0133
:10399000AA2797FDA095BA2F880F991FAA1FBB1FB2
:1039A0004FB7F89430E0F901EE0FFF1FE20FF31F5D
:1039B000EA50FC4F928381834FBF0895AF92BF922C
:1039C000CF92DF92EF92FF920F931F93CF93DF93EB
:1039D000EC019B0182E0603278070CF048C077FF71
:1039E00003C020E030E005C0653B710514F024EB16
:1039F00030E000D000D0B901882777FD8095982F5E
:103A00002981332727FD3095E8E8AE2EB12CA21A84
:103A1000B30AAA0CBB1CAA0CBB1CCC24B7FCC094D8
:103A2000DC2CEA81FF27E7FDF09528E532E02E1B2C
:103A30003F0B220F331F220F331F442737FD4095C2
:103A4000542FEDB7FEB7218332834383548320E0A4
:103A500030E040E050E004EBE02EF12C012D112D80
:103A60000E944B2B9B010F900F900F900F90CE0157
:103A7000B9010E94A21CDF91CF911F910F91FF907D
:103A8000EF90DF90CF90BF90AF900895CF92DF92EC
:103A9000EF92FF921F93CF93DF93EC01162F7A01E1
:103AA000690188818C3008F064C0862F61E00E9433
:103AB000AB24888190E0FC01EE0FFF1FE80FF91F97
:103AC000EA50FC4F1F738081807C812B808380E2D1
:103AD00092E08E199F0964E070E00E94DB316983F7
:103AE00080E699E08C199D0964E070E00E94DB316A
:103AF0006A83A8818A2F6CE00E94CF31682F70E022
:103B0000AB01440F551F460F571F440F551F440F5D
:103B1000551F20E030E0C901840F951FFC01EE0F16
:103B2000FF1FE80FF91FEA50FC4F808186FD15C08A
:103B30002F5F3F4F2C30310571F724C01092800069
:103B400082E0809381001092850010928400B19AE7
:103B500080916F00826080936F008A2F90E0FC015B
:103B6000EE0FFF1FE80FF91FEA50FC4F80818064C1
:103B700080838881DF91CF911F91FF90EF90DF903C
:103B8000CF900895672BD1F2E8CF40E252E020E6D3
:103B900039E00E94461D08951F920F920FB60F92B2
:103BA00011242F933F934F935F936F937F938F9342
:103BB0009F93AF93BF93EF93FF9380911A0487FF76
:103BC00005C010928500109284002BC020911A0429
:103BD000332727FD30958091F50390E028173907AA
:103BE00004F580911A04992787FD9095FC01EE0F4A
:103BF000FF1FE80FF91FEA50FC4F808186FF11C0BC
:103C000080911A04992787FD9095FC01EE0FFF1F04
:103C1000E80FF91FEA50FC4F80818F7360E00E942B
:103C2000EA2480911A048F5F80931A0420911A0469
:103C3000332727FD30958091F50390E02817390749
:103C40000CF04EC080911A048C300CF049C02091C9
:103C500084003091850080911A04992787FD909502
:103C6000FC01EE0FFF1FE80FF91FEA50FC4F8181A6
:103C70009281280F391F309389002093880080910A
:103C80001A04992787FD9095FC01EE0FFF1FE80F9E
:103C9000F91FEA50FC4F808186FF2BC080911A04E7
:103CA000992787FD9095FC01EE0FFF1FE80FF91F84
:103CB000EA50FC4F80818F7361E00E94EA2419C0B2
:103CC00080E49CE905C08091840090918500049671
:103CD00090938900809388008FEF80931A0409C025
:103CE0008091840090918500049680549C4940F313
:103CF000EACFFF91EF91BF91AF919F918F917F910B
:103D00006F915F914F913F912F910F900FBE0F9048
:103D10001F90189581E08093600460933D04109299
:103D20005E0410925F04089520913C0430E080917D
:103D30003B04281B3109C901089540913B0480913F
:103D40003C04481718F02FEF3FEF0AC0E42FF0E0D3
:103D5000E55EFB4F8081282F30E04F5F40933B04AE
:103D6000C9010895E0913B0480913C04E81718F0E4
:103D7000EFEFFFEF06C0F0E0E55EFB4F8081E82F3C
:103D8000F0E0CF0108950895109264041092630446
:103D900088EE93E0A0E0B0E0809365049093660421
:103DA000A0936704B093680483E691E09093620463
:103DB000809361040895CF92DF92EF92FF920F9368
:103DC0001F93CF93DF937C016B018A018091600484
:103DD0008823A1F0C0E0D0E00DC0D701ED91FC91A7
:103DE000D601AC0FBD1F0190F081E02DC7016C9191
:103DF00009952196C017D10780F304C0CB01642F29
:103E00000E941020C801DF91CF911F910F91FF9068
:103E1000EF90DF90CF900895DF93CF930F92CDB7BF
:103E2000DEB7FC016983809160048823C9F080912A
:103E30005F04803238F081E090E09383828320E059
:103E400030E015C080915E04E82FF0E0E25CFB4FAB
:103E5000998190838F5F80935E0480935F0405C097
:103E6000CE01019661E00E94102021E030E0C901FE
:103E70000F90CF91DF9108950F93062F80913D040D
:103E80006EE374E040915F0421E00E94BB1F10923A
:103E90005E0410925F04109260040F91089561E037
:103EA0000E943C1F0895413208F040E2862F6BE1EA
:103EB00074E00E94721F10923B0480933C040895AA
:103EC0000E94531F089521E00E94531F08951092ED
:103ED0003B0410923C0410925E0410925F040E9416
:103EE000BC210895382F413210F040E042C080914B
:103EF0006D048823E1F791E090936D0420936F04A3
:103F00008FEF8093DA041092950441504093960409
:103F10004F5F90936E0480916E04330F832B8093D8
:103F20006E0480917004813041F41092700480918D
:103F30006E048093BB0085EC01C085EE8093BC00CD
:103F400080916D048130E1F380919504841710F421
:103F50004091950420E030E00AC0FB01E20FF31F1E
:103F6000D901AB58BB4F8C9180832F5F3F4F2417F3
:103F7000A0F3842F08950F931F93582F122F4132CF
:103F800010F081E04AC080916D048823E1F782E05F
:103F900080936D0400936F048FEF8093DA04109286
:103FA000950440939604A5E7B4E0FB0102C081911B
:103FB0008D938E2F861B8417D0F310926E04809100
:103FC0006E04550F852B80936E04809170048130B0
:103FD00041F41092700480916E048093BB0085ECD4
:103FE00001C085EE8093BC00112321F080916D0407
:103FF0008230E1F38091DA048F3F11F480E00DC04C
:104000008091DA04803211F482E007C08091DA04F2
:10401000803311F084E001C083E01F910F91089577
:10402000482F613210F081E0089580916D04843052
:1040300011F082E008956093B804A7E9B4E0842FFA
:104040009C01F90102C081918D938E2F841B8617EC
:10405000D0F380E008951F920F920FB60F921124B3
:104060002F933F934F935F936F937F938F939F9380
:10407000AF93BF93EF93FF938091B90090E0887F57
:1040800090708036910509F4F2C081369105CCF527
:104090008832910509F47BC089329105B4F48031EE
:1040A000910509F46FC0813191053CF4009709F442
:1040B00047C1089709F04FC165C08831910509F4DF
:1040C00066C0809709F047C182C08034910509F429
:1040D000A4C08134910544F48033910509F482C071
:1040E000C89709F038C189C08035910509F489C0A5
:1040F0008835910509F496C08834910509F02BC1E3
:10410000AEC08839910509F413C189399105ECF4E1
:104110008837910509F4ABC0893791054CF488368E
:10412000910509F4A4C08037910509F014C19FC01E
:104130008838910509F4FCC08039910509F49DC0C7
:104140008038910509F007C198C0803B910509F4BA
:10415000C6C0813B91054CF4803A910509F49FC09B
:10416000883A910509F0F7C0BAC0803C910509F47E
:10417000E3C0883C910509F4DFC0883B910509F054
:10418000EAC0C2C080916E048093BB00CFC0909102
:10419000950480919604981768F490919504E92FFE
:1041A000F0E0EB58FB4F80818093BB009F5F9093C2
:1041B0009504BCC080916F04882309F44BC085ED41
:1041C0008093BC008091BC0084FDFCCFC2C080E223
:1041D0008093DA0485ED8093BC008091BC0084FD5F
:1041E000FCCFB7C080E38093DA0485ED8093BC00F8
:1041F0008091BC0084FDFCCFACC088E38093DA04DE
:104200009BC0809195049091BB00E82FF0E0EB58A3
:10421000FB4F90838F5F80939504909195048091DC
:10422000960482C0809195049091BB00E82FF0E045
:10423000EB58FB4F90838F5F8093950480916F04C0
:10424000882341F085ED8093BC008091BC0084FD03
:10425000FCCF7FC081E08093700484EA6EC085ED5E
:104260008093BC008091BC0084FDFCCF72C083E0D1
:1042700080936D041092D90459C08091D904803282
:1042800008F056C08091D9049091BB00E82FF0E06F
:10429000E754FB4F90838F5F8093D90447C0809190
:1042A000D904803230F4E091D904F0E0E754FB4FB8
:1042B000108285ED8093BC008091BC0084FDFCCF12
:1042C00010926D046091D904E0917304F09174042C
:1042D00089EB94E070E009951092D9042DC084E038
:1042E00080936D041092B7041092B804E0917104A9
:1042F000F091720409958091B804882329F481E033
:104300008093B804109297049091B704E92FF0E0DD
:10431000E956FB4F80818093BB009F5F9093B70469
:104320009091B7048091B804981710F485EC01C0FF
:1043300085E88093BC000FC085EC8093BC0009C069
:104340001092DA0485ED8093BC008091BC0084FD5E
:10435000FCCF10926D04FF91EF91BF91AF919F91AF
:104360008F917F916F915F914F913F912F910F901E
:104370000FBE0F901F90189510926D0481E08093EE
:104380006F041092700482E161E00E94EA2483E1EC
:1043900061E00E94EA24E9EBF0E080818E7F808377
:1043A00080818D7F808388E48093B80085E480934A
:1043B000BC0008950F931F93CF93DF93BC0182300D
:1043C000910510F462E070E0E091A505F091A6057A
:1043D000A0E0B0E040E050E024C0808191818617E9
:1043E0009707D0F08617970771F482819381109711
:1043F00029F013969C938E9312972CC09093A60548
:104400008093A50527C04115510519F0841795071C
:1044100018F4EF018D01AC01DF01828193819C01D1
:10442000F9013097D1F641155105F9F0CA01861B03
:10443000970B8430910580F48A819B8101151105C9
:1044400021F0F8019383828304C09093A6058093A2
:10445000A505FE01329645C0FE01E80FF91F6193E4
:1044600071930297998388833CC08091A3059091B2
:10447000A405892B41F480913001909131019093F2
:10448000A4058093A3054091320150913301411559
:10449000510541F44DB75EB780912E0190912F01E7
:1044A000481B590B2091A3053091A405241735070B
:1044B000B0F4CA01821B930B8617970780F0AB01FB
:1044C0004E5F5F4F8417950750F0420F531F509374
:1044D000A4054093A305F9016193719302C0E0E044
:1044E000F0E0CF01DF91CF911F910F910895CF930D
:1044F000DF939C01009709F48FC0EC0122971B8287
:104500001A826091A5057091A6056115710581F467
:1045100088819981820F931F2091A3053091A40572
:104520002817390739F5D093A405C093A30574C0A3
:10453000DB0140E050E0AC17BD0708F1BB83AA8364
:10454000FE0121913191E20FF31FAE17BF0779F4FD
:104550008D919C911197280F391F2E5F3F4F398302
:10456000288312968D919C9113979B838A83411582
:10457000510571F4D093A605C093A5054DC01296C0
:104580008D919C911397AD01009711F0DC01D3CF71
:10459000DA011396DC93CE931297FA0121913191AF
:1045A000E20FF31FCE17DF0769F488819981280F86
:1045B000391F2E5F3F4FFA01318320838A819B810F
:1045C00093838283E0E0F0E0DB0112968D919C9171
:1045D0001397009719F0BC01FD01F6CFAB014E5FB8
:1045E0005F4FDB018D919C91840F951F2091A30556
:1045F0003091A4052817390779F4309729F41092DF
:10460000A6051092A50502C01382128242505040A6
:104610005093A4054093A305DF91CF9108951F9275
:104620000F920FB60F9211242F933F938F939F9366
:10463000AF93BF938091DF049091E004A091E104D7
:10464000B091E2043091E3040196A11DB11D232F26
:104650002D5F2D3720F02D570196A11DB11D209300
:10466000E3048093DF049093E004A093E104B0930B
:10467000E2048091DB049091DC04A091DD04B09110
:10468000DE040196A11DB11D8093DB049093DC0430
:10469000A093DD04B093DE04BF91AF919F918F9101
:1046A0003F912F910F900FBE0F901F9018958FB7CD
:1046B000F8942091DF043091E0044091E10450919E
:1046C000E2048FBFB901CA0108959FB7F894209101
:1046D000DB043091DC044091DD045091DE0486B5AA
:1046E000A89B06C08F3F21F02F5F3F4F4F4F5F4F7A
:1046F0009FBF542F432F322F2227280F311D411DDA
:10470000511D82E0220F331F441F551F8A95D1F798
:10471000B901CA0108959B01AC017FB7F89480915B
:10472000DB049091DC04A091DD04B091DE0466B559
:10473000A89B05C06F3F19F00196A11DB11D7FBF59
:10474000BA2FA92F982F8827860F911DA11DB11D63
:1047500062E0880F991FAA1FBB1F6A95D1F7BC01A1
:104760002DC0FFB7F8948091DB049091DC04A091F8
:10477000DD04B091DE04E6B5A89B05C0EF3F19F05B
:104780000196A11DB11DFFBFBA2FA92F982F882711
:104790008E0F911DA11DB11DE2E0880F991FAA1F68
:1047A000BB1FEA95D1F7861B970B885E9340C8F232
:1047B000215030404040504068517C4F2115310518
:1047C0004105510571F60895019739F0880F991F39
:1047D000880F991F02970197F1F70895789484B58F
:1047E000826084BD84B5816084BD85B5826085BDED
:1047F00085B5816085BDEEE6F0E0808181608083D3
:10480000E1E8F0E0108280818260808380818160B5
:104810008083E0E8F0E0808181608083E1EBF0E07C
:10482000808184608083E0EBF0E080818160808320
:10483000EAE7F0E080818460808380818260808309
:104840008081816080838081806880831092C10034
:104850000895982F8E3008F09E5097708091340103
:104860008295880F880F807C892B80937C008091B3
:104870007A00806480937A0080917A0086FDFCCF74
:104880002091780040917900942F80E030E0282B2F
:10489000392BC90108951F93CF93DF93182FEB0194
:1048A00061E00E94AB24209709F44AC0CF3FD105B4
:1048B00009F449C0E12FF0E0E35AFE4F84918330C0
:1048C000C1F0843028F4813051F08230B1F50CC051
:1048D000863019F1873049F1843079F514C084B5F8
:1048E000806884BDC7BD33C084B5806284BDC8BD47
:1048F0002EC080918000806880938000D0938900D2
:10490000C093880024C080918000806280938000E2
:10491000D0938B00C0938A001AC08091B000806849
:104920008093B000C093B30012C08091B000806249
:104930008093B000C093B4000AC0C038D1051CF405
:10494000812F60E002C0812F61E00E94EA24DF91A4
:10495000CF911F910895CF93DF93482F50E0CA0164
:10496000875B9E4FFC0134914B5C5E4FFA01849152
:10497000882369F190E0880F991FFC01E95EFE4FE2
:10498000A591B491FC01EF5DFE4FC591D4916623D2
:1049900051F42FB7F8948C91932F909589238C9391
:1049A000888189230BC0623061F42FB7F8948C9111
:1049B000932F909589238C938881832B88832FBF95
:1049C00006C09FB7F8948C91832B8C939FBFDF9187
:1049D000CF910895482F50E0CA01835A9E4FFC01A1
:1049E0002491CA01875B9E4FFC0194914B5C5E4F02
:1049F000FA013491332309F440C0222351F12330CA
:104A000071F0243028F42130A1F0223011F514C0C7
:104A10002630B1F02730C1F02430D9F404C08091A1
:104A200080008F7703C0809180008F7D809380000D
:104A300010C084B58F7702C084B58F7D84BD09C056
:104A40008091B0008F7703C08091B0008F7D8093FC
:104A5000B000E32FF0E0EE0FFF1FEF5DFE4FA591DA
:104A6000B4912FB7F894662321F48C919095892303
:104A700002C08C91892B8C932FBF0895682F70E012
:104A8000CB01835A9E4FFC012491CB01875B9E4F43
:104A9000FC0144916B5C7E4FFB019491992319F4C6
:104AA00020E030E03CC0222351F1233071F024306B
:104AB00028F42130A1F0223011F514C02630B1F0D5
:104AC0002730C1F02430D9F404C0809180008F7762
:104AD00003C0809180008F7D8093800010C084B5DA
:104AE0008F7702C084B58F7D84BD09C08091B000EE
:104AF0008F7703C08091B0008F7D8093B000892FA5
:104B000090E0880F991F855D9E4FFC01A591B4919F
:104B10008C9120E030E0842311F021E030E0C901E5
:104B200008958F929F92AF92BF92CF92DF92EF92B1
:104B3000FF920F931F93CF93DF93A82FB0E0CD0187
:104B4000875B9E4FFC018490AB5CBE4FFD0184915E
:104B5000662311F4992401C0982C6FEFA62E6FEFF5
:104B6000B62E6FEFC62E6FE0D62EA222B322C4223D
:104B7000D522682F70E0660F771F655D7E4FEE24AB
:104B8000FF248701FB01A591B4910BC0EA14FB043B
:104B90000C051D0509F44EC00894E11CF11C011D13
:104BA000111D8C918821891589F30CC0EA14FB042E
:104BB0000C051D0509F43EC00894E11CF11C011D03
:104BC000111D03C0FB01A591B4918C918821891519
:104BD00069F720E030E040E050E0FB01C591D4915E
:104BE0000FC0DA01C9018E0D9F1DA01FB11F8A15CC
:104BF0009B05AC05BD05F1F02F5F3F4F4F4F5F4F59
:104C000088818821891569F3CA01B90125E130E05D
:104C100040E050E00E94B0319B01AC01205F3F4F6B
:104C20004F4F5F4F84E056954795379527958A9566
:104C3000D1F704C020E030E040E050E0B901CA0103
:104C4000DF91CF911F910F91FF90EF90DF90CF9068
:104C5000BF90AF909F908F90089508951F920F92EC
:104C60000FB60F9211242F933F934F938F939F93DF
:104C7000EF93FF938091C00082FD1DC04091C6005C
:104C800020912405309125052F5F3F4F2F73307001
:104C900080912605909127052817390771F0E0913A
:104CA0002405F0912505EC51FB4F408330932505F9
:104CB0002093240502C08091C600FF91EF919F913F
:104CC0008F914F913F912F910F900FBE0F901F909A
:104CD0001895E0917805F0917905E05CFF4F81919E
:104CE000919120813181805C9F4F821B930B60E406
:104CF00070E00E94DB31892B11F00E942D2608956F
:104D00001F920F920FB60F9211242F933F938F9300
:104D10009F93EF93FF9320916805309169058091EF
:104D20006A0590916B052817390731F48091C1000D
:104D30008F7D8093C10014C0E0916A05F0916B05EE
:104D4000E85DFA4F208180916A0590916B0501968C
:104D50008F73907090936B0580936A052093C600C3
:104D6000FF91EF919F918F913F912F910F900FBEE7
:104D70000F901F901895AF92BF92DF92EF92FF9223
:104D80000F931F93CF93DF93EC017A018B01DD2406
:104D9000403081EE580780E0680780E0780711F026
:104DA000DD24D39491E0A92EB12CEC89FD89DD207E
:104DB00069F0C50108A002C0880F991F0A94E2F7A4
:104DC000808360E079E08DE390E005C0108260E8C8
:104DD00074E88EE190E0A80197010E94EE31215025
:104DE000304040405040569547953795279580E193
:104DF0002030380720F0DD2011F0DD24D6CFE889FF
:104E0000F9893083EA89FB89208319A2EE89FF8919
:104E1000408121E030E0C9010C8C02C0880F991F4D
:104E20000A94E2F7482B4083EE89FF894081C9014B
:104E30000D8C02C0880F991F0A94E2F7482B40831B
:104E4000EE89FF894081C9010E8C02C0880F991F2D
:104E50000A94E2F7482B4083EE89FF8980810F8C0A
:104E600002C0220F331F0A94E2F7209528232083E3
:104E7000DF91CF911F910F91FF90EF90DF90BF9046
:104E8000AF900895DC011C96ED91FC911D97E05CBC
:104E9000FF4F8191919120813181805C9F4F821BD6
:104EA000930B60E470E00E94DB310895DC011C96F6
:104EB000ED91FC911D97E05CFF4F20813181E05422
:104EC000F040DF01AE5BBF4F8D919C911197281789
:104ED000390719F42FEF3FEF07C08D919C91E80F30
:104EE000F91F8081282F30E0C9010895DC011C964C
:104EF000ED91FC911D97E05CFF4F20813181E054E2
:104F0000F040DF01AE5BBF4F8D919C911197281748
:104F1000390719F42FEF3FEF10C08D919C91119735
:104F2000E80FF91F20818D919C91119701968F7345
:104F3000907011969C938E9330E0C9010895DC0126
:104F400091968C919197882339F05496ED91FC912C
:104F50005597808186FFF9CF91961C920895CF9343
:104F6000DF93EC01EE85FF85E05CFF4F208131810E
:104F7000E054F0402F5F3F4F2F733070DF01AE5B86
:104F8000BF4F8D919C91119728173907D1F3E05CA1
:104F9000FF4F80819181E054F040E80FF91F60835A
:104FA000EE85FF85E05CFF4F31832083EE89FF892A
:104FB000208181E090E00F8C02C0880F991F0A9435
:104FC000E2F7282B208381E089A3EC89FD89808189
:104FD0008064808381E090E0DF91CF91089510920A
:104FE0006F0510926E0588EE93E0A0E0B0E080932C
:104FF000700590937105A0937205B093730583E7D4
:1050000091E090936D0580936C0584EE94E090930D
:1050100079058093780588E295E090937B058093ED
:105020007A0585EC90E090937D0580937C0584EC77
:1050300090E090937F0580937E0580EC90E09093C4
:1050400081058093800581EC90E0909383058093A7
:10505000820582EC90E0909385058093840586EC30
:1050600090E0909387058093860584E0809388057F
:1050700083E08093890587E080938A0585E08093AB
:105080008B0581E080938C0508950895CF93DF937D
:105090000E94EE230E9445280E947408C9E6D6E2C9
:1050A0000E94E3072097E1F30E946926F9CFCF928F
:1050B000DF92EF92FF920F931F93CF93DF937C01C8
:1050C0006B018A01C0E0D0E00FC0D6016D916D0187
:1050D000D701ED91FC910190F081E02DC701099578
:1050E000C80FD91F015010400115110571F7CE01ED
:1050F000DF91CF911F910F91FF90EF90DF90CF90B4
:105100000895EF92FF920F931F938C01DC01ED91B4
:10511000FC910190F081E02D6DE009957C01D801B2
:10512000ED91FC910190F081E02DC8016AE00995B4
:105130009C012E0D3F1DC9011F910F91FF90EF9013
:105140000895813041F0813018F08230D1F409C0E7
:1051500010926E00089580916F008D7F80936F0094
:105160000895809170008D7F8093700081E080931E
:10517000B0008091B100887F84608093B10010926C
:10518000B30008951F93182F80913501811711F0F6
:105190009FEF06C0E1E7F1E094918FEF8093350136
:1051A000892F0E94A128812F60E00E94EA241F918C
:1051B00008951F920F920FB60F9211242F933F93D1
:1051C0004F935F936F937F938F939F93AF93BF930F
:1051D000EF93FF9380919C0590919D05A0919E0572
:1051E000B0919F050097A105B10551F1E091A0058F
:1051F000F091A10580819091A205892780838091FB
:105200009C0590919D05A0919E05B0919F05181653
:1052100019061A061B06C4F480919C0590919D0501
:10522000A0919E05B0919F050197A109B1098093B6
:105230009C0590939D05A0939E05B0939F0504C087
:10524000809135010E94C228FF91EF91BF91AF91EB
:105250009F918F917F916F915F914F913F912F918E
:105260000F900FBE0F901F9018952F923F925F9254
:105270006F927F928F929F92AF92BF92CF92DF9266
:10528000EF92FF920F931F93DF93CF9300D000D044
:10529000CDB7DEB7A82F1B0129833A834B835C83EC
:1052A000809135018A1721F4E1E7F1E0549082C042
:1052B0008F3F09F0DAC1A0933501E1E7F1E05490A6
:1052C0002FEF521609F4D1C181E0581639F192E05E
:1052D000591609F449C0552009F06CC014BC15BC1E
:1052E00084B5826084BD85B5816085BD2A2F30E09C
:1052F000F901EB5CFE4FE491F0E0EE0FFF1FEF5D74
:10530000FE4F859194919093930580939205275B2E
:105310003E4FF9018491809394054EC01092800015
:10532000109281008091810088608093810080913B
:1053300081008160809381002A2F30E0F901EB5CCD
:10534000FE4FE491F0E0EE0FFF1FEF5DFE4F859101
:10535000949190939A0580939905275B3E4FF901AC
:10536000849180939B0528C01092B0001092B100E8
:105370008091B00082608093B0008091B100816024
:105380008093B1002A2F30E0F901EB5CFE4FE491ED
:10539000F0E0EE0FFF1FEF5DFE4F8591949190932B
:1053A000A1058093A005275B3E4FF901849180936E
:1053B000A20502C057FC59C18A2F61E00E94AB24AC
:1053C000552021F0F2E05F1609F0BEC031018824BB
:1053D000992460E072E18AE790E0A40193010E94C1
:1053E000103259016A01860175010894E108F1083B
:1053F000010911092FEFE216F1040105110509F069
:1054000008F499C060E472E48FE090E0A401930195
:105410000E94103279018A010894E108F10801091B
:10542000110982E05816C1F49FEFE916F104010555
:10543000110509F008F484C060E970ED83E090E0A4
:10544000A40193010E94103279018A010894E108B5
:10545000F1080109110983E0AFEFEA16F104010533
:10546000110509F008F468C068E478EE81E090E086
:10547000A40193010E94103279018A010894E10885
:10548000F10801091109552011F483E01DC0B2E0B3
:105490005B1611F084E018C0EFEFEE16F104010581
:1054A000110509F008F4DFC064E274EF80E090E0D9
:1054B000A40193010E94103279018A010894E10845
:1054C000F1080109110985E0FFEFEF16F10401056C
:1054D000110591F188F162E17AE780E090E0A401A2
:1054E00093010E94103279018A010894E108F108C1
:1054F00001091109552011F086E001C084E02FEF69
:10550000E216F10401051105B9F0B0F0C601B501CC
:1055100020E034E040E050E00E94103279018A013E
:105520000894E108F10801091109552011F087E0FC
:1055300008C085E003C081E0552019F485BD3AC05C
:1055400082E08093B10036C05101CC24DD2460E0BC
:1055500072E18AE790E0A60195010E94103279017C
:105560008A010894E108F1080109110980E0E816B0
:1055700080E0F80681E0080780E0180710F491E069
:1055800010C068E478EE81E090E0A60195010E94E9
:10559000103279018A010894E108F1080109110922
:1055A00093E0A1E05A1631F480918100887F982B16
:1055B0009093810089819A81AB81BC810097A1057C
:1055C000B10529F48FEF9FEFAFEFBFEF13C0220CAF
:1055D000331CB10180E090E029813A814B815C81EC
:1055E0000E94B03128EE33E040E050E00E94EE31FE
:1055F000C901DA01E1E05E16A1F0F2E05F1619F1EF
:10560000552099F5E7BC80938E0590938F05A09364
:105610009005B093910580916E00826080936E003A
:1056200024C0F0928900E0928800809395059093C1
:105630009605A0939705B093980580916F008260BE
:1056400080936F0012C0E092B30080939C0590930A
:105650009D05A0939E05B0939F0580917000826088
:105660008093700002C084E06CCF0F900F900F9079
:105670000F90CF91DF911F910F91FF90EF90DF90EE
:10568000CF90BF90AF909F908F907F906F905F90E2
:105690003F902F9008952F923F924F925F926F927A
:1056A0007F928F929F92AF92BF92CF92DF92EF92B2
:1056B000FF920F931F93DF93CF93CDB7DEB73B01DC
:1056C0004C0119012A016D897E898F89988D6A198B
:1056D0007B098C099D09621A730A840A950AA40140
:1056E00093010E94B031E218F30804091509A801DA
:1056F00097010E9410322A0D3B1D4C1D5D1DB90102
:10570000CA01CF91DF911F910F91FF90EF90DF9031
:10571000CF90BF90AF909F908F907F906F905F9051
:105720004F903F902F900895FC01848195816817D8
:10573000790748F40190F081E02D309721F0E60FD1
:10574000F71F8081089580E008950F931F93CF93F2
:10575000DF93EC018B016F5F7F4F888199810E94FD
:105760004E2C009711F480E005C0998388831B8339
:105770000A8381E0DF91CF911F910F910895CF931C
:10578000DF93EC0188819981892B29F08A819B81A3
:105790008617970760F4CE010E94A52B882341F05D
:1057A0008C819D81892B19F4E881F981108281E037
:1057B000DF91CF910895CF93DF93EC018881998198
:1057C000009711F00E947722198218821D821C8294
:1057D0001B821A82DF91CF910895EF92FF920F936F
:1057E0001F93CF93DF93EC017B018A01BA010E94E2
:1057F000BF2B882321F4CE010E94DB2B07C01D8321
:105800000C8388819981B7010E94F200CE01DF915B
:10581000CF911F910F91FF90EF900895CF93DF9359
:10582000EC01198218821B821A821D821C8261156A
:10583000710551F0DB010D900020E9F71197A61BCF
:10584000B70BAD010E94ED2BDF91CF910895CF935F
:10585000DF93EC01FB018617970761F0608171818E
:105860006115710529F0448155810E94ED2B02C01C
:105870000E94DB2BCE01DF91CF910895FC011182B4
:10588000108213821282158214820E94272C08959E
:10589000FC01808191810E94772208956F927F920E
:1058A0008F929F92AF92BF92CF92DF92EF92FF9230
:1058B0000F931F93CF93DF938C01009729F4CB01B3
:1058C0000E94DA218C01BBC08EEFE82E8FEFF82EFC
:1058D000E00EF11E4801860E971E8E149F0408F4F8
:1058E000ACC0D7014D915C91119746175707B8F09E
:1058F0004530510508F4A3C0CA01049786179707DD
:1059000008F49DC042505040461B570BF401419390
:1059100051936D937C93CF010E94772290C05B01DD
:10592000A41AB50A3801640E751EA091A505B091A0
:10593000A605CC24DD24E0E0F0E047C0A615B705BD
:10594000A9F5CD91DC911197CE0102968A159B05A0
:1059500068F1CE018A199B09029612962C91129732
:1059600013963C91059758F0F40122833383CA19AA
:10597000DB09D183C083D7016D937C9309C04E5F4F
:105980005F4F4C0F5D1FF70151834083C901FC013C
:10599000C114D10431F0D6011396FC93EE93129703
:1059A0004EC0F093A605E093A50549C08D919C914A
:1059B0001197E817F90708F4FC016D0112968C9114
:1059C000129713969C919C01D901109709F0B6CFBC
:1059D0008091A3059091A40586159705E9F4E61733
:1059E000F707D0F4209132013091330121153105B0
:1059F00041F42DB73EB780912E0190912F01281BC5
:105A0000390B82169306C8F49092A4058092A305E0
:105A1000F7017183608313C0CB010E94DA21EC018E
:105A2000009759F0D7014D915C91B8010E94E900AF
:105A3000C8010E9477228E0102C000E010E0C80178
:105A4000DF91CF911F910F91FF90EF90DF90CF905A
:105A5000BF90AF909F908F907F906F900895505817
:105A6000BB27AA270ED03AC22BD230F030D220F07A
:105A700031F49F3F11F41EF4FBC10EF4E095E7FBF7
:105A8000C6C1E92F3CD280F3BA17620773078407B7
:105A9000950718F071F49EF56BC20EF4E0950B2E8D
:105AA000BA2FA02D0B01B90190010C01CA01A00170
:105AB0001124FF27591B99F0593F50F4503E68F1CB
:105AC0001A16F040A22F232F342F4427585FF3CF0C
:105AD000469537952795A795F0405395C9F77EF4DD
