:100000000C9404010C942C010C942C010C94A50E5E
:100010000C94A50E0C94A50E0C942C010C943E1E71
:100020000C942C010C942C010C942C010C94DB27C7
:100030000C942C010C942C010C942C010C942C018C
:100040000C94CF290C942C010C94982D0C94CA2D4F
:100050000C942C010C942C010C942C010C942C016C
:100060000C94950C0C942C01A308DD06FB061507D7
:1000700015072E077D0815075D095D095D095D09F6
:100080005D095D095D098C074707A7075D095D09E3
:100090005D09D80735091508320854085D095D095E
:1000A0005D095D09B208BA085D095D095D095D0970
:1000B000E608CF085D095D095D095D095D095D0917
:1000C0005D095D095D095D095D095D09180923097F
:1000D000084AD73B3BCE016E84BCBFFDC12F3D6CAF
:1000E00074319ABD56833DDA3D00C77F11BED9E415
:1000F000BB4C3E916BAAAABE000000803F080000E6
:1001000000BE922449123EABAAAA2ABECDCCCC4C4A
:100110003E00000080BEABAAAAAA3E00000000BFBD
:10012000000000803F0000000000084178D3BB437E
:1001300087D1133D190E3CC3BD4282AD2B3E68EC06
:100140008276BED98FE1A93E4C80EFFFBE01C4FF8D
:100150007F3F000000000007634236B79BD8A71A14
:1001600039685618AEBAAB558C1D3CB7CC5763BD39
:100170006DEDFD753EF6177231BF000000803F0047
:100180003F065B4F666D7D077F6F777C395E7971C7
:10019000BF86DBCFE6EDFD87FFEFF7FCB9DEF9F1B7
:1001A00000400000000800020100000304070000F6
:1001B000000000000000010204081020408001023D
:1001C000040810200102040810200404040404049C
:1001D00004040202020202020303030303030000F9
:1001E0000000230026002900000000002500280050
:1001F0002B0000000000240027002A00C705AB0BDD
:100200005B14FA2D25065F1411241FBECFEFD8E032
:10021000DEBFCDBF11E0A0E0B1E0ECE7FEE602C03A
:1002200005900D92AA3DB107D9F727E0AAEDB1E0FC
:1002300001C01D92AC39B207E1F711E0C4E0D2E091
:1002400004C02297FE010E94AE34CC3FD107C9F70B
:100250000E94A02F0C9431370C940000CF92DF92B3
:10026000EF92FF920F931F93E82FF92F05C00150D3
:1002700011092109310961F1908196239417B9F38D
:1002800005C0015011092109310911F1908196230E
:100290009413F7CFC12CD12CE12CF12C0AC08FEF95
:1002A000C81AD80AE80AF80A0C151D052E053F05DC
:1002B00079F080818623841791F36C2D7D2D8E2D0E
:1002C0009F2D1F910F91FF90EF90DF90CF90089599
:1002D00060E070E080E090E01F910F91FF90EF9060
:1002E000DF90CF900895CF93DF93CDB7DEB72A97F5
:1002F0000FB6F894DEBF0FBECDBF61E08DE00E9467
:100300006D2B61E08DE00E94A62B6CE271E080E035
:1003100090E00E94482A60E08DE00E94A62B26E033
:1003200040E052EC61E070E085EF96E00E94142D11
:1003300064EF71E080E090E00E94482A61E083E190
:100340000E946D2B61E083E10E94A62B64E670E0C1
:1003500080E090E00E94482A61E083E10E946D2BDA
:1003600060E083E10E94A62B61E0CE0101960E942D
:100370003F148AE0FE013196AAE6B2E001900D92A8
:100380008A95E1F762E0CE0101960E943F148AE06F
:10039000FE013196A4E7B2E001900D928A95E1F753
:1003A0008AE692E00E94201584E792E00E942015E0
:1003B00064EF71E080E090E00E94482A40E050E065
:1003C000BA018AE692E00E942C1540E050E0BA01A2
:1003D00084E792E00E942C1580E993E00E94461A7F
:1003E00069E371E085EF96E00E94892E64E672E091
:1003F00085EF96E00E948F2E2A960FB6F894DEBF06
:100400000FBECDBFDF91CF91089520916202FC0114
:10041000222319F0E650FE4F02C0E25DFD4F8081BD
:10042000089520916202FC01222319F0E650FE4F4C
:1004300002C0E25DFD4F6083089585EF96E00C9465
:100440008B2ECF93DF93EC010E94050280937E02F6
:10045000CE0101960E94050280937F0280917E0268
:1004600090917F02DF91CF9108950F931F93CF93C7
:10047000DF93EC010E94050200E812E0F80180839E
:10048000CE0101960E94050280938102CE01029660
:100490000E94050280938202CE0103960E9405020B
:1004A00080938302F8016081718182819381DF9161
:1004B000CF911F910F910895CF93DF93EC010E948C
:1004C000050280938002CE0101960E94050280936E
:1004D0008102CE0102960E94050280938202CE0123
:1004E00003960E94050280938302609180027091BE
:1004F00081028091820290918302DF91CF910895D1
:10050000FC01DB0112964D915D916D917C911597E7
:10051000428353836483758316968C9116978683E2
:1005200017964D915D916D917C911A9747835087F5
:10053000618772871B964D915D916D917C911E979D
:1005400043875487658776871F964D915D916D919E
:100550007C9152974787508B618B728B53964D914C
:100560005D916D917C915697438B548B658B768B07
:1005700057964D915D916D917C915A97478B508F15
:10058000618F728F5B964D915D916D917C915E97BD
:10059000438F548F658F768F5F964D915D916D91EE
:1005A0007C919297478F50A361A372A393964D912C
:1005B0005D916D917C91969743A354A365A376A317
:1005C00097964D915D916D917C919A9747A350A715
:1005D00061A772A79B964D915D916D917C919E97BD
:1005E00043A754A765A776A79F964D915D916D91FE
:1005F0007C91D29747A750AB61AB72ABD3968C91ED
:10060000D39783ABD4968C9184ABCF010895E5EE5C
:10061000F1E020E030E0419151914817590791F005
:10062000452B41F4F901EE0FFF1FEB51FE4F918373
:10063000808308C02F5F3F4F2830310561F780E08D
:1006400090E00895C9010895AF92BF92CF92DF92D2
:10065000EF92FF920F931F93CF93DF93CDB7DEB747
:10066000E6970FB6F894DEBF0FBECDBF8C0186E0D3
:1006700090E00E940502F82EA82EB12C0C30110536
:1006800009F40EC14CF50830110509F441C1F4F428
:100690000330110509F4BCC10530110509F066C22B
:1006A00086E090E00E9421028C0169E081E194E003
:1006B0000E947413B80181E194E00E94801388E0E5
:1006C00090E00E9421028C016AE02AC00A301105E4
:1006D00009F10CF484C153C10132110509F411C2AE
:1006E0006CF40E31110509F4D2C10032110509F480
:1006F000DAC10431110509F039C2A1C1083211056E
:10070000C9F00233110509F41FC20232110509F0C4
:100710002DC2D6C187E090E00E9421028C016F2D8E
:1007200081E194E00E947413B80181E194E00E9499
:1007300080131CC287E090E00E9421028C0189E0B6
:1007400090E00E945C026B017C0181E0A816B1047C
:1007500031F561E0CE0101960E94A223BE016F5FD8
:100760007F4F88EB92E00E948002B701A60188EBE0
:1007700092E00E94A625B801882777FD8095982FE2
:100780000E941A316B017C01AB01BC0188EB92E045
:100790000E94BD25B701A60188EB92E029C082E046
:1007A000A816B10441F562E0CE0101960E94A22391
:1007B000BE016F5F7F4F8DEE92E00E948002B70115
:1007C000A6018DEE92E00E94A625B801882777FD4C
:1007D0008095982F0E941A316B017C01AB01BC01FE
:1007E0008DEE92E00E94BD25B701A6018DEE92E04C
:1007F0000E941826BBC189E0A816B10431F569E052
:10080000CE0101960E94A223BE016F5F7F4F82E25C
:1008100093E00E948002B701A60182E293E00E9469
:10082000A625B801882777FD8095982F0E941A3158
:100830006B017C01AB01BC0182E293E00E94BD250B
:10084000B701A60182E293E0D3CF8AE0A816B104F3
:1008500009F08CC16AE0CE0101960E94A223BE017C
:100860006F5F7F4F87E593E00E948002B701A6018A
:1008700087E593E00E94A625B801882777FD80953B
:10088000982F0E941A316B017C01AB01BC0187E5F6
:1008900093E00E94BD25B701A60187E593E0A8CFAC
:1008A00087E090E00E940502A82EB12C88E090E03D
:1008B0000E9421028C018AE090E00E9435026B01C7
:1008C0007C0181E0A816B10471F4B801882777FD96
:1008D0008095982F0E941A318B019C01B701A601C7
:1008E0008AE692E012C082E0A816B10409F03EC187
:1008F000B801882777FD8095982F0E941A318B01C7
:100900009C01B701A60184E792E00E94C1152EC1A7
:1009100087E090E00E940502482F88E090E04EAB0F
:100920000E940502D82E89E090E00E940502182F4F
:100930008AE090E00E940502E82E8BE090E00E94A1
:100940000502082F4EA96F2D81EF93E00E946421CC
:10095000DD2049F06FEF6D0D2E2D412F81EF93E0DB
:100960000E94E22107C0202F4E2D612F81EF93E0DE
:100970000E94332281EF93E00E946022F7C087E05B
:1009800090E00E9405029501220F331FF901E65EF7
:10099000FE4F813011F4008101C0018110E088E038
:1009A00090E00E940502F82EC8010E940703FC0196
:1009B000EE0FFF1FE80FF91FE75EFB4F208131812B
:1009C000428129833A834B8384EB8F1508F4CEC090
:1009D000B801CE0101960E9431296F2DAFC089ED7B
:1009E00093E00E94D720282F30E02A153B0529F0FC
:1009F0006F2D89ED93E00E94651287E090E00E94E0
:100A00003502AB01BC0189ED93E00E948712AEC0B4
:100A100085ED93E00E94D720282F30E02A153B0572
:100A200029F06F2D85ED93E00E943B2187E090E057
:100A30000E94050261E081111BC060E019C085EDD4
:100A400093E00E94D720282F30E02A153B0529F09B
:100A50006F2D85ED93E00E943B2187E090E00E949E
:100A60000502282F30E0223031053CF4682F6170F8
:100A700085ED93E00E94FF2079C061E022303105CE
:100A800009F460E085ED93E00E940F216FC061E002
:100A90000E946D2B87E090E00E940502682F8F2D49
:100AA0000E94A62B63C061E00E946D2B87E090E05E
:100AB0000E940502682F70E08F2D0E94E52A56C023
:100AC00061E00E946D2B87E090E00E9421027C0192
:100AD00089E090E00E9421021816190664F48C0146
:100AE000222717FD2095322FA701B50184EB92E054
:100AF0000E94FE123BC0B50184EB92E00E94661397
:100B000035C087E090E00E940502182F853B70F504
:100B1000C5010E940703FC01EE0FFF1FE80FF91F3C
:100B2000E75EFB4F20813181428129833A834B83E9
:100B3000B501CE0101960E943129612F70E0CE01EE
:100B400001960E946A2912C00E94192A0E94183137
:100B500020E030E04AE754E40E947F306093E001F7
:100B60007093E1018093E2019093E301E6960FB662
:100B7000F894DEBF0FBECDBFDF91CF911F910F91D3
:100B8000FF90EF90DF90CF90BF90AF900895CF93FC
:100B9000DF93C9E1D4E0CE010E949728239684E038
:100BA000C133D807C1F781E194E00E9471138EEF41
:100BB00093E00E94B42681EF93E00E94D72183EE58
:100BC00093E00E94462789ED93E00E94CF1085EDC7
:100BD00093E00E94BE2080E993E00E94AE168CE86C
:100BE00093E00E945D1FC8EBD2E0CE010E949423E7
:100BF000E59683E0CC38D807C1F784EB92E00E94F9
:100C0000F8128DEA92E00E945B1D87EA92E00E9452
:100C1000841681EA92E00E9499168BE992E00E9484
:100C2000402784E892E00E9438108AE692E00E9411
:100C30004F1484E792E00E944F1463E471E084E66D
:100C400092E0DF91CF910C94562F84E692E00E94BF
:100C5000E82E81EF93E00C947422682F85EF96E0E4
:100C60000C94AF2C8FEF0E942D0685E50C942D0679
:100C70008FEF0E942D0685E50E942D060C941D0223
:100C8000CF93C82F81E00E942D068C2FCF910C941A
:100C90002D06EF92FF920F931F93CF93DF937C016A
:100CA000FC01C4810C2F158184E00E942D068C2F3D
:100CB0000E942D06C0E0D0E0C017D10744F4BE0169
:100CC000C7010E949D2F0E942D062196F5CFDF912E
:100CD000CF911F910F91FF90EF900895FF920F9386
:100CE0001F93CF93DF931F92CDB7DEB78B01F82E02
:100CF00082E099830E942D06A8016F2D9981792F9A
:100D00004093800250938102609382027093830229
:100D1000802F0E942D06809181020E942D068091D5
:100D200082020E942D06809183020F90DF91CF9165
:100D30001F910F91FF900C942D06CF92DF92EF92AE
:100D4000FF926B017C0183E00E942D06C701B60172
:100D50000E94E730862F262F372F30937F02209373
:100D60007E020E942D0680917F02FF90EF90DF901F
:100D7000CF900C942D06CF92DF92EF92FF920F93BB
:100D80001F93CF93DF93CDB7DEB727970FB6F894B5
:100D9000DEBF0FBECDBF6C0186E090E00E94050271
:100DA000182FE82EF12C84E3C816D10408F085C270
:100DB000F601EC5CFF4F0C94AC3483EE93E00E94A0
:100DC000D72090E08E159F0529F0612F83EE93E0E8
:100DD0000E943B2160E971E083EE93E00E94C62708
:100DE0006B017C010E9432068091DA010E942D067F
:100DF000C701B60125C287E090E00E940502082FD6
:100E00008EEF93E00E94D720282F30E02E153F056B
:100E100009F045C28EEF93E00E94DA2080133FC2B2
:100E20008EEF93E00E94D2260BC285ED93E00E94E4
:100E3000D72090E08E159F0561F0612F85ED93E03E
:100E40000E943B2185ED93E00E94612160E00E94B9
:100E50006D2B85ED93E00E942B2199C187E090E0F6
:100E60000E940502082F8CE893E00E94D720282FCB
:100E700030E02E153F0529F0612F8CE893E00E94A9
:100E80003B21602F8CE893E00E94601F80C180911D
:100E9000D3039091D4030097F1F04F960E94D7208E
:100EA00090E08E159F0531F1E090D303F090D403CC
:100EB000E114F10481F087EA91E0F70191838083E6
:100EC000C70182599F4F0E94E82EC7010E941F0F41
:100ED000C7010E94B12F8BE790E00E94AF2F7C01E9
:100EE000612F0E94F31EF092D403E092D303C70156
:100EF0000E94081F8091D3039091D4030E94331F56
:100F0000682F8093F6018FEF860F8E3F08F487C01D
:100F100060E070E0CB0194C185ED93E00E94D720A2
:100F200090E08E159F0561F0612F85ED93E00E94A2
:100F30003B2185ED93E00E94612160E00E946D2BD2
:100F400060E085ED93E00E94EE20682F68C085ED9B
:100F500093E00E94D72090E08E159F0599F0612FB5
:100F600085ED93E00E943B2185ED93E00E945E2198
:100F700060E00E946D2B85ED93E00E94612160E0AE
:100F80000E946D2B60E085ED93E00E94DD20182F1C
:100F900060E085ED93E00E94EE20612F70E0660F27
:100FA000771F680F711D882777FD8095982FF4C0F3
:100FB00087E090E00E940502082FC82ED12C85ED15
:100FC00093E00E94D720282F30E02E153F0509F02E
:100FD0006DC185ED93E00E94DA20282F30E02C15BA
:100FE0003D0509F063C185ED93E0CA94CD2859F41D
:100FF0000E945E2162E00E946D2B60E085ED93E02F
:101000000E94DD200AC00E94612162E00E946D2BD7
:1010100060E085ED93E00E94EE2061E0682770E0DB
:1010200080E090E00E9418310BC187E090E00E94C0
:101030000502082F8DEA92E00E94D720282F30E089
:101040002E153F0529F0612F8DEA92E00E943B2189
:101050008DEA92E00E945E1D602F8DEA92E00E9470
:10106000371E1AC187EA92E00E94D72090E08E15C1
:101070009F05A9F0612F87EA92E00E943B2187EA51
:1010800092E00E945E21482F87EA92E04F830E94FF
:1010900061214F81682F87EA92E00E94871687EAD4
:1010A00092E00E94971621C081EA92E00E94D72028
:1010B00090E08E159F05A9F0612F81EA92E00E94D1
:1010C0003B2181EA92E00E945E21482F81EA92E072
:1010D0004F830E9461214F81682F81EA92E00E9434
:1010E0009C1681EA92E00E94AC16BC01882777FD2D
:1010F0008095982F0E941A3166C087E090E00E9488
:101100000502E82EF12C80E993E00E94211781E08E
:10111000E816F10429F480E993E00E94BB1690C020
:10112000E2E0EE16F10429F480E993E00E94C11692
:1011300087C0F3E0EF16F10409F0BFC080E993E047
:101140000E94C7167DC064E672E0CE0101960E943F
:10115000832FCE0101960E944906CE0101960E947E
:10116000E82EABC060E0812F0E946D2B812F0E9482
:10117000DC2B0DC0F701EE0FFF1FE65FFE4F108165
:1011800060E0812F0E946D2B812F0E94C82ABC0134
:10119000882777FD8095982F0E941A3151C087E0EB
:1011A00090E00E9421027C0160E0812F0E946D2B63
:1011B0009701442737FD4095542F61E0812F0E940D
:1011C000052C0E9418310E949D0677C087E090E0B0
:1011D0000E940502F82E61E0812F0E946D2B60E0D5
:1011E000812F0E94A62B82E090E00E94822A61E07B
:1011F000812F0E94A62B8AE090E00E94822A60E064
:10120000812F0E94A62B60E08F2D0E946D2B20E382
:1012100035E740E050E061E08F2D0E94052C0E94F0
:10122000183120E030E048E652E40E947F3008C0E8
:101230006091DC017091DD018091DE019091DF0110
:101240000E946E063AC08BE992E00E94D72090E09F
:101250008E159F0529F0612F8BE992E00E943B21BA
:101260008BE992E00E94432717C084E892E00E9435
:10127000D72090E08E159F0529F0612F84E892E039
:101280000E943B211091DB0187E090E00E94050263
:1012900091E0181390E0892F0E9440060EC0402F65
:1012A000612F8EEF93E00E94BF26BACD402F612FB1
:1012B00085ED93E00E944B2196CE27960FB6F894C9
:1012C000DEBF0FBECDBFDF91CF911F910F91FF9079
:1012D000EF90DF90CF9008950F931F93CF93DF93FC
:1012E0001092F70183E090E00E940502082F80939E
:1012F000DA0184E090E00E940502182F85E090E07A
:101300000E940502C82FD0E01230D9F018F4113035
:1013100039F05BC01430C9F0153009F450C055C025
:10132000C130D10529F00E943206802F0E942D067F
:10133000CE010E94BB06DF91CF911F910F910C94BB
:101340001D02CE010E9424033AC069E081E194E0CD
:101350000E94741360E070E081E194E00E948013C9
:101360006AE081E194E00E94741360E070E081E142
:1013700094E00E94801361E081E194E00E94741384
:1013800060E070E081E194E00E94801362E081E11E
:1013900094E00E94741360E070E081E194E00E94A8
:1013A000801340E050E0BA018AE692E00E942C15DA
:1013B00040E050E0BA0184E792E00E942C15DF91F2
:1013C000CF911F910F910C943806DF91CF911F910F
:1013D0000F9108951092630285EF96E00E94312CE0
:1013E000181619065CF481E0809363021092620281
:1013F00085EF96E00E944A2C8093F501089584E8D9
:1014000092E00E943A108093DB010E94192A0E9408
:10141000183120E030E04AE754E40E947F30209108
:10142000E0013091E1014091E2015091E3010E941D
:10143000B42F6093DC017093DD018093DE01909303
:10144000DF018091D3039091D403009711F00E94A3
:10145000381F0E94EA0988EB92E00E9492268DEEE6
:1014600092E00E94922682E293E00E94922687E513
:1014700093E00E94922680916302882309F445C07C
:101480006091F5018091F701653561F481110AC021
:101490008091E4018F3FD9F481E08093F90180933A
:1014A000F70115C06093E401882389F08091F90168
:1014B000823019F46093F80107C0833028F09091CE
:1014C000F80191509093F80190E00E9411028091F0
:1014D000F9018F5F843318F48093F90104C01092EE
:1014E000F9011092F7018091F701882371F0809142
:1014F000F80181110AC08091F901843030F0109216
:10150000F7010E946C091092F9010895809161041D
:1015100090E020916204821B910908952091620459
:1015200080916104281750F4E22FF0E0ED59FB4F51
:10153000808190E02F5F2093620408958FEF9FEFEA
:101540000895E091620480916104E81730F4F0E0BE
:10155000ED59FB4F808190E008958FEF9FEF089544
:101560000895CF92DF92EF92FF920F931F93CF9344
:10157000DF937C01CB018A0120913D04222389F075
:10158000EB016B01C40ED51ECC15DD0569F0699128
:10159000D701ED91FC910190F081E02DC7010995F3
:1015A000F3CF642F0E946C0CC801DF91CF911F9183
:1015B0000F91FF90EF90DF90CF900895CF93DF933E
:1015C0001F92CDB7DEB7698320913D042223D1F06D
:1015D00020913E04203240F021E030E0FC013383D2
:1015E000228380E090E015C080913F04E82FF0E076
:1015F000E05CFB4F998190838F5F80933F048093E1
:101600003E0405C061E0CE0101960E946C0C81E0B1
:1016100090E00F90DF91CF910895FC011382128228
:1016200048EE53E060E070E044835583668377833F
:1016300081E591E091838083089510926204109275
:10164000610410923F0410923E040C94AF0B81E0B1
:1016500080933D046093600410923F0410923E0416
:1016600008950F93062F21E040913E0460E474E05A
:10167000809160040E94150C10923F0410923E0469
:1016800010923D040F9108958F929F92AF92BF9256
:10169000CF92DF92EF92FF920F931F93CF93DF933E
:1016A000EC01F62ED42E48015901EE2019F10E94CA
:1016B000270B1E2D143008F013E01150B8F0E8810C
:1016C000F98128E0129FB0011124A501940104C002
:1016D00056954795379527956A95D2F7CA01B9016E
:1016E0000190F081E02DCE010995E7CF60E0CE01B9
:1016F0000E94310B4D2D413208F040E22C2D63E663
:1017000074E08F2D0E94CD0B1092620480936104CF
:10171000DF91CF911F910F91FF90EF90DF90CF90CD
:10172000BF90AF909F908F900895CF92EF920F93BC
:101730001F93C22EE12C00E010E098010E94440BA0
:101740001F910F91EF90CF90089521E00C94950B8D
:1017500061E00C94310B81E394E00C940D0B10923A
:10176000F00481E08093EE041092ED0461E082E1E8
:101770000E94A62B61E083E10E94A62BE9EBF0E03A
:1017800080818E7F808380818D7F808388E48093B9
:10179000B80085E48093BC000895413208F043C04E
:1017A0009091F0049111FCCF91E09093F00420937C
:1017B000EE042FEF209383041092C804240F20938B
:1017C000C7049093EF049091EF04880F892B8093C6
:1017D000EF048091ED04813061F41092ED0480916A
:1017E000EF048093BB008091BC0083FDF8CF85ECB3
:1017F00001C085EE8093BC008091F0048130E1F35C
:101800008091C804841710F44091C80429EC34E096
:10181000FB01D9018A2F821B841718F48D918193C3
:10182000F9CF842F089580E008950F93413208F096
:101830004AC09091F0049111FCCF92E09093F00493
:101840000093EE049FEF909383041092C80440939A
:10185000C704FB0169EC74E0DB019A2F961B941717
:1018600018F491919D93F9CF1092EF049091EF04A9
:10187000880F892B8093EF048091ED04813061F40F
:101880001092ED048091EF048093BB008091BC0026
:1018900083FDF8CF85EC01C085EE8093BC00222348
:1018A00021F08091F0048230E1F3809183048F3F36
:1018B00061F080918304803251F080918304803301
:1018C00041F483E007C081E005C080E003C082E00E
:1018D00001C084E00F910895613298F42091F004E2
:1018E000243089F46093A504FC0187EA94E0DC01CC
:1018F0002A2F281B261718F421912D93F9CF80E069
:10190000089581E0089582E0089585ED8093BC00FC
:101910008091BC0084FDFCCF1092F004089585EC0A
:101920008093BC001092F00408951F920F920FB69E
:101930000F9211242F933F934F935F936F937F9355
:101940008F939F93AF93BF93EF93FF938091B900D1
:10195000887F803609F49EC078F5883209F45DC02E
:1019600090F4803109F456C038F4882309F4F5C0A6
:10197000883009F44FC0F5C0883109F44EC0803278
:1019800009F45FC0EEC0803409F46AC058F48033B3
:1019900009F457C0883309F0E4C0809383040E949F
:1019A0008F0CDFC0803509F44FC0883509F45DC065
:1019B000883409F0D6C0D3C0883909F4C4C0A8F46B
:1019C000883709F467C038F4883609F463C0803773
:1019D00009F460C0C6C0883809F4B5C0803909F47C
:1019E0005FC0803809F0BDC05BC0803B09F483C094
:1019F00038F4803A09F466C0883A09F47CC0B1C072
:101A0000803C09F4A4C0883C09F4A1C0883B09F4D7
:101A100087C0A7C08091EF0410C09091C804809146
:101A2000C704981770F5E091C80481E08E0F809389
:101A3000C804F0E0E753FB4F80818093BB0085EC46
:101A400083C0809383048BC0E091C80481E08E0F33
:101A50008093C8048091BB00F0E0E753FB4F808384
:101A60009091C8048091C7046BC0E091C80481E0E4
:101A70008E0F8093C8048091BB00F0E0E753FB4FCA
:101A800080838091EE0481116AC081E08093ED042F
:101A900084EA5EC083E08093F00410928404CFCF88
:101AA00080918404803208F04EC0E091840481E08B
:101AB0008E0F809384048091BB00F0E0EB57FB4FC6
:101AC0008083BDCF0E948F0C80918404803230F4DB
:101AD000E0918404F0E0EB57FB4F108260918404A6
:101AE00070E0E091E904F091EA0485E894E009955A
:101AF0001092840436C084E08093F0041092A6040F
:101B00001092A504E091EB04F091EC04099580910A
:101B1000A504811105C081E08093A5041092A7045B
:101B2000E091A60481E08E0F8093A604F0E0E955D1
:101B3000FB4F80818093BB009091A6048091A50407
:101B4000981708F47CCF85E88093BC000AC085EC28
:101B50008093BC001092F00404C0109283040E9491
:101B6000850CFF91EF91BF91AF919F918F917F91E4
:101B70006F915F914F913F912F910F900FBE0F90FA
:101B80001F90189520913305309134052817390797
:101B9000B9F49091F1048091F204981789F0E091E2
:101BA000F104F0E0ED50FB4F80812091F10430E032
:101BB0002F5F3F4F2F7333272093F10490E0089558
:101BC0008FEF9FEF08951F93CF93DF93DC015C9617
:101BD0008D919C915D97009749F481E090E0139678
:101BE0009C938E93129780E090E03BC05196ED91CC
:101BF000FC91529750962C915097322F30951FB7E9
:101C00005E964C915E9741FB772770F941FD609598
:101C1000F8944081772311F0422B01C04323408385
:101C2000EC012197F1F748E0508160FF02C0522B90
:101C300001C053235083EC012197F1F76695415081
:101C400099F78081772311F0832301C0822B808351
:101C50001FBF5C968D919C915D970197F1F781E094
:101C600090E0DF91CF911F91089508952091330561
:101C7000309134052817390771F49091F10480915F
:101C8000F204981741F0E091F104F0E0ED50FB4FC1
:101C9000808190E008958FEF9FEF089520913305A4
:101CA000309134052817390771F48091F20420919E
:101CB000F10490E0805C9F4F821B910960E470E02A
:101CC0000E945734089580E090E00895E091330534
:101CD000F0913405E817F90769F4A389B4899C9158
:101CE0008589809589238C93109234051092330551
:101CF00081E0089580E00895CF93DF93EC018A8D11
:101D00009B8D892BF1F080913305909134058C17D0
:101D10009D07B9F0009711F00E94660E8E8D8E7FA0
:101D20008E8F1092F2041092F104D0933405C09378
:101D30003305EB89FC8980819D89892B808381E033
:101D400001C080E0DF91CF9108951F920F920FB6EE
:101D50000F9211242F933F934F935F936F937F9331
:101D60008F939F93AF93BF93EF93FF93E0913305CE
:101D7000F0913405309709F451C0868DA685B7855A
:101D8000958581FF04C08C91892329F447C08C91EB
:101D9000892309F043C0A389B4899C9185898095E2
:101DA00089238C93868997890197F1F7208D318D4E
:101DB000A685B785758558E040E0C9010197F1F720
:101DC000842F90E095958795482F6C91672309F0B3
:101DD0004068515091F7868D81FD40958091F204C5
:101DE00090E001968F7399272091F104281749F00C
:101DF000A091F204B0E0AD50BB4F4C938093F2043D
:101E000003C0868D8160868F828D938D0197F1F757
:101E1000A389B4898C919589892B8C93FF91EF913B
:101E2000BF91AF919F918F917F916F915F914F91F2
:101E30003F912F910F900FBE0F901F90189521E6A4
:101E400031E0FC01318320830C94660E1F93CF9305
:101E5000DF93EC01162F6E8D6695617081E0682727
:101E6000812F0E94A62B61E0812F0E946D2B812F74
:101E700090E0FC01EA54FE4FE491E88BFC01E6534C
:101E8000FE4FE491F0E0EE0FFF1FE851FE4F859109
:101E900094919A8B898BDF91CF911F9108951F9315
:101EA000CF93DF93EC01162F60E0812F0E946D2B02
:101EB0008E8D81FD04C061E0812F0E94A62B1C87BE
:101EC000812F90E0FC01EA54FE4FE491ED87FC0184
:101ED000E653FE4FE491F0E0EE0FFF1FE252FE4F9B
:101EE000859194919F878E87DF91CF911F9108955F
:101EF000FF920F931F93CF93DF93EC01F62E522F97
:101F00001B821A8208EE13E020E030E00C831D8370
:101F10002E833F8381E691E0998388831F8A1E8AFE
:101F2000198E188E1B8E1A8E1D8E1C8E8E8D8E7F96
:101F300050FB81F98E8F642FCE010E94260F6F2DEA
:101F4000CE01DF91CF911F910F91FF900C944F0F15
:101F5000CF93DF93EC019A01AB011B8E1A8E198E81
:101F6000188E1F8A1E8A60E079E08DE390E00E945F
:101F70008D34C9012430310520F0B9016350710955
:101F800002C061E070E07D8F6C8FEC85E63108F077
:101F900068C0B901769567956431710518F0635191
:101FA000710902C061E070E07F8B6E8B069718F0BC
:101FB000C901059702C081E090E0998F888FC9011F
:101FC000880F991F820F931F9695879596958795F1
:101FD0008D30910510F00C9702C081E090E09B8F4E
:101FE0008A8F20916800E83050F091E0EE3008F4DC
:101FF00090E081E001C0880F9A95EAF701C084E083
:10200000822B809368002C85283038F02E3040F0E9
:10201000263148F48CE690E008C08DE690E005C0DB
:102020008BE690E002C080E090E09C8B8B8B2830A8
:1020300030F481E001C0880F2A95EAF70DC0822FA5
:1020400090E02E3010F4089701C00E9791E001C087
:10205000990F8A95EAF7892F8D8B8C8D9D8D01972D
:10206000F1F7CE01DF91CF910C947C0E0C94660EAB
:102070000C94BE20CF92DF92EF92FF920F931F93AA
:10208000CF93DF93EC010C891D890E94192ACC8023
:10209000DD80EE80FF809B01AC012C193D094E09CB
:1020A0005F0969017A0139E0C316D104E104F10442
:1020B000E8F16C837D838E839F83CE010E942B2168
:1020C000488559856A857B85452B462B472B49F4E6
:1020D000AC01662757FD6095762F488B598B6A8B2C
:1020E0007B8B488959896A897B89841B950B97FF6B
:1020F00003C0919581959109449764F44C855D8561
:102100006E857F854F5F5F4F6F4F7F4F4C875D8739
:102110006E877F87488559856A857B854F5F5F4FCE
:102120006F4F7F4F488759876A877B878885998556
:10213000AA85BB850597A105B105D1F41886198636
:102140001A861B868C859D85AE85BF850397A10564
:10215000B10540F088899989AA89BB898C019D8B3A
:102160008C8B02C00C891D891C861D861E861F86CD
:10217000C80164E670E00E9457346830710528F4A5
:10218000FB01E359FE4F808101C080E0DF91CF91D8
:102190001F910F91FF90EF90DF90CF9008950C94D6
:1021A000BE200F931F93CF93DF93EC01062F18E00F
:1021B00060E088850E94A62B00FF02C061E001C09C
:1021C00060E089850E94A62B069561E088850E94C3
:1021D000A62B115069F760E088850E94A62B61E06C
:1021E00089850E94A62B61E088850E94A62B60E06D
:1021F00089850E946D2B18EC89850E94DC2B892B28
:1022000059F01150C9F761E089850E946D2B60E09B
:1022100089850E94A62BEFCF61E08985DF91CF9160
:102220001F910F910C946D2BCF93DF93EC0161E024
:1022300088850E94A62B61E089850E94A62B60E01C
:1022400089850E94A62B60E08885DF91CF910C9450
:10225000A62BCF93DF93EC0160E088850E94A62B2C
:1022600060E089850E94A62B61E088850E94A62BEC
:1022700061E08985DF91CF910C94A62BCF92DF92FC
:10228000FF920F931F93CF93DF931F92CDB7DEB7CB
:102290006C01F62E79830E94141160E4C6010E943D
:1022A000D110C6010E942911C6010E941411F60125
:1022B0006581C6010E94D1100F2D7981172F84E00E
:1022C000F82EF80161918F01C6010E94D110FA9495
:1022D000C1F7C6010E942911C6010E941411F6011E
:1022E0006681C6010E94D110C6010F90DF91CF9187
:1022F0001F910F91FF90DF90CF900C9429114F9276
:102300005F926F927F928F929F92AF92BF92CF9285
:10231000DF92EF92FF920F931F93CF93DF9300D042
:1023200000D0CDB7DEB76A017B01890137FD48C017
:10233000B9016F5F7F4F882777FD8095982F0E94A6
:102340001A319B01AC0160E070E080E291E40E94F0
:10235000F5324B015C019B01AC01C701B6010E9443
:102360007F300E9455312B013C01B801882777FD51
:102370008095982F0E941A319B01AC0160E070E0BB
:1023800080E291E40E94F53269837A838B839C8397
:10239000A5019401C301B2010E9492329B01AC01DC
:1023A000C701B6010E94B42F29813A814B815C811B
:1023B0000E947F300E9455310E94E730CB011FC040
:1023C00088249924821A930AA12CB12C20E030E0B1
:1023D00040E251E4C701B6010E9492326B017C01D8
:1023E0008FEFA81AB80AA814B90484F3C701B6017C
:1023F0000E94E730CB016AE070E00E9457340F90F2
:102400000F900F900F90DF91CF911F910F91FF9040
:10241000EF90DF90CF90BF90AF909F908F907F9084
:102420006F905F904F900895DB0180E090E22C91D7
:10243000223208F09C93EC91F0E0E058FE4FE491DA
:10244000ED938F5F843099F70895EF92FF920F9389
:102450001F93CF93DF9300D000D0CDB7DEB78C01B0
:10246000DB01FE013196CE0105967F012D9121936E
:10247000E817F907D9F7B701C8010E941412B7018C
:10248000C8010E943E110F900F900F900F90DF91A6
:10249000CF911F910F91FF90EF900895CF93DF930D
:1024A00000D000D0CDB7DEB720E229832A832B836A
:1024B0002C83BE016F5F7F4F0E9425120F900F90FB
:1024C0000F900F90DF91CF910895CF93DF93EC01A0
:1024D0006A83E62FF0E0EE0FFF1FE65EFE4F81817C
:1024E0008983908198838887998761E00E946D2B0A
:1024F00061E089850E946D2B80E48C8380EC8D8364
:102500008AE88E83CE01DF91CF910C944E128F9288
:102510009F92AF92BF92CF92DF92EF92FF920F9372
:102520001F93CF93DF9300D000D0CDB7DEB75C010F
:102530006A017B0119821A821B821C8220E030E032
:10254000A901C701B6010E947B3087FF09C0F7FAD5
:10255000F094F7F8F09481E289839924939401C070
:10256000912C03E010E0812C9801B701A601C50170
:102570000E947F11181619062CF0002319F08820EC
:10258000B9F00CC001110AC0E1E0F0E0EC0FFD1F52
:10259000E90DF11D20E1280F208307C0E1E0F0E004
:1025A000EC0FFD1FE90DF11D808393948824839423
:1025B00083E0891530F0015011090C3F8FEF1807A7
:1025C00099F6BE016F5F7F4FC5010E9425120F90E3
:1025D0000F900F900F90DF91CF911F910F91FF906F
:1025E000EF90DF90CF90BF90AF909F908F90089525
:1025F0000E94BE2088E08093350508954F925F9237
:102600006F927F928F929F92AF92BF92CF92DF9202
:10261000EF92FF920F931F93CF93DF93762E680173
:102620007901609335059A0140E050E060E472E47E
:102630008FE090E00E948D34E901590137FF03C01B
:102640008FEFA81AB80A85011595079561E0872DC7
:102650000E946D2BA8EEB3E0A70196010E94C13441
:102660002B013C01C12CD12C76014E01AA2497FCF0
:10267000A094BA2CC414D504E604F704B0F461E0C5
:10268000809135050E94A62BC8010E94822A60E035
:10269000809135050E94A62BC8010E94822AA89528
:1026A000C80CD91CEA1CFB1CE5CFDF91CF911F9110
:1026B0000F91FF90EF90DF90CF90BF90AF909F90E1
:1026C0008F907F906F905F904F900895862F6093CA
:1026D000350561E00E946D2B60E0809135050C941A
:1026E000A62B60E00C94C720CF93DF93EC010E94EF
:1026F0003B2184EF91E09F838E83DF91CF910895FA
:102700000F931F93CF93DF938C016F3F710519F0E7
:1027100014F06FEF70E0EB0161308FEF780714F485
:10272000C1E0DFEFF801868197818C179D07C9F022
:10273000D783C683D7FD06C061E0C8010E940F2180
:10274000BE0108C060E0C8010E940F2166277727FC
:102750006C1B7D0BC801DF91CF911F910F910C94E1
:102760003721DF91CF911F910F9108954F925F9282
:102770006F927F928F929F92AF92BF92CF92DF9291
:10278000EF92FF920F931F93CF93DF9300D000D06F
:10279000CDB7DEB7FC01C982DA82EB82FC8295EA12
:1027A00090832183C2828A8183838B8184838C81FD
:1027B000858346015701CF0106963801C12CD12CE3
:1027C0007601C814D904EA04FB0461F0D3012D9109
:1027D0003D01DC012D93CD01BFEFCB1ADB0AEB0AE3
:1027E000FB0AEFCF2401350126E0420E511C611C8B
:1027F000711CD801C12CD12C760180E0C814D904F9
:10280000EA04FB0441F09D9189279FEFC91AD90A78
:10281000E90AF90AF3CFDF01A40DB51D8C939701E6
:102820008601085F1F4F2F4F3F4FA7E0CA0ED11CF4
:10283000E11CF11CEC0DFD1D8AE58083401751075A
:102840006207730728F460E070E080E090E002C067
:10285000B801C9010F900F900F900F90DF91CF91A9
:102860001F910F91FF90EF90DF90CF90BF90AF90AE
:102870009F908F907F906F905F904F9008951F93DF
:10288000CF93DF93EC01162F60E00E94C720115018
:102890001C8389E08D83DF91CF911F910895CF93A1
:1028A000DF93EC0160E00E94C7201C8289E08D83E9
:1028B000DF91CF91089586E395E00C949C1A86E30E
:1028C00095E00C94C51AAF92BF92CF92DF92EF922F
:1028D000FF920F931F93CF93DF93EC016B017A016B
:1028E00059016D8181E394E00E94270BA501B60197
:1028F00081E394E00E94B10A81E394E00E94A80B76
:1029000082E090E00E94822A6D8170E0A80181E35C
:1029100094E00E94A50B82E090E00E94822AC0E031
:1029200081E394E00E94860A892B51F081E394E0D0
:102930000E948E0AF701EC0FF11D8083CF5FF0CF6C
:10294000DF91CF911F910F91FF90EF90DF90CF908B
:10295000BF90AF9008956F927F928F929F92AF92A7
:10296000BF92CF92DF92EF92FF920F931F93CF937C
:10297000DF93CDB7DEB768970FB6F894DEBF0FBE12
:10298000CDBF3C018AE04E012BE0820E911CF40188
:10299000282F11922A95E9F7FE0131965F011192D5
:1029A0008A95E9F7F30184818F8B87E0888F82E035
:1029B000C82ED12CE12CF12C8E01095E1F4F21E095
:1029C0004AE050E060E070E0C4010E94B6130AE003
:1029D00010E02AE030E0A501B401C3010E946314B5
:1029E0002AE030E040E050E0B50186E395E00E9447
:1029F000FE1A1E8A1D8A22E030E040E050E0BE014F
:102A00006B5E7F4F86E395E00E94111D81E09E89F9
:102A1000911101C080E068960FB6F894DEBF0FBE3A
:102A2000CDBFDF91CF911F910F91FF90EF90DF907D
:102A3000CF90BF90AF909F908F907F906F900895B0
:102A4000CF93DF93EC0181E394E00E941D0BCE0154
:102A5000DF91CF910C94AB146F927F928F929F92E3
:102A6000AF92BF92CF92DF92EF92FF920F931F939C
:102A7000CF93DF93CDB7DEB76E970FB6F894DEBF76
:102A80000FBECDBF3C016A017B0120E030E048E48D
:102A900053E4C701B6010E94423218168CF020E0C0
:102AA00030E048E453ECC701B6010E947B3087FF59
:102AB0000DC0C12CD12C58E4E52E53ECF52E06C0E8
:102AC000C12CD12C68E4E62E63E4F62ECE010196EB
:102AD0004C018EE0F40111928A95E9F75E01FFE066
:102AE000AF0EB11C8AE0F50111928A95E9F78E01CB
:102AF000075E1F4F86E0F80111928A95E9F7F3010E
:102B00008481898F85E08A8FCB8EDC8EED8EFE8E60
:102B100046E0C42ED12CE12CF12C21E04EE050E017
:102B200060E070E0C4010E94B6130AE010E02EE0FD
:102B300030E0A501B401C3010E9463142AE030E033
:102B400040E050E0B50186E395E00E94FE1A86E37E
:102B500095E00E94A21B80E06E960FB6F894DEBF4F
:102B60000FBECDBFDF91CF911F910F91FF90EF90DE
:102B7000DF90CF90BF90AF909F908F907F906F909D
:102B800008952F923F924F925F926F927F928F9211
:102B90009F92AF92BF92CF92DF92EF92FF920F93EC
:102BA0001F93CF93DF93CDB7DEB7A8970FB6F894F6
:102BB000DEBF0FBECDBF4C011A012B0168017901A8
:102BC00020E030E048E453E4C701B6010E944232FD
:102BD00018168CF020E030E048E453ECC701B60151
:102BE0000E947B3087FF0DC0C12CD12CE8E4EE2E73
:102BF000E3ECFE2E06C0C12CD12CF8E4EF2EF3E45A
:102C0000FF2E20E030E0A901C201B1010E947B301B
:102C1000811106C0B701A601C4010E942C155BC03A
:102C2000CE0101963C0182E1F30111928A95E9F708
:102C30008AE05E01FDE1AF0EB11CF501982F119203
:102C40009A95E9F78E010D5E1F4FF80111928A9552
:102C5000E9F7F40184818B8B81E18C8B2D8A3E8A8C
:102C60004F8A588EC98EDA8EEB8EFC8E7AE0C72E94
:102C7000D12CE12CF12C21E042E150E060E070E049
:102C8000C3010E94B6130AE010E022E130E0A50182
:102C9000B301C4010E9463142AE030E040E050E038
:102CA000B50186E395E00E94FE1A86E395E00E9456
:102CB000A21B18A61FA222E030E040E050E0BE01B7
:102CC000695D7F4F86E395E00E94111D81E098A524
:102CD000911101C080E0A8960FB6F894DEBF0FBE38
:102CE000CDBFDF91CF911F910F91FF90EF90DF90BB
:102CF000CF90BF90AF909F908F907F906F905F909C
:102D00004F903F902F90089560E00C94C720CF9390
:102D1000DF93EC016C834D838C8160E00E946D2B0E
:102D20008D8188838C818983DF91CF9108950C9464
:102D30001F2160E00C94C720CF93DF93EC016C83DC
:102D40004D838C8160E00E946D2B8D8188838C8106
:102D50008983DF91CF9108950C941F21CF93DF9346
:102D6000EC0160E00E94C720CE5BDF4F88E68883DD
:102D7000DF91CF910895FC016285738584859585E7
:102D80000895FC0166857785808991890895FC0105
:102D900062897389848995890895EF92FF920F93D0
:102DA0001F93CF93DF93F62E8A01E22EEC01CE5BC8
:102DB000DF4F688181E394E00E94270B6F2D81E350
:102DC00094E00E94DE0A813001F560E081E394E046
:102DD0000E94310B81112EC081E090E00E94822A76
:102DE00021E04E2D688181E394E00E94950BE8017B
:102DF00000E010E0F12C81E394E00E94860A892B28
:102E000031F00E151F0574F002C08FEF13C081E082
:102E100090E00E94822A81E00E151F0509F480E0EF
:102E2000819508C00F5F1F4F81E394E00E948E0AD6
:102E30008993E1CFDF91CF911F910F91FF90EF9098
:102E400008952F923F924F925F926F927F928F924E
:102E50009F92AF92BF92CF92DF92EF92FF920F9329
:102E60001F93CF93DF93CDB7DEB72C970FB6F894AF
:102E7000DEBF0FBECDBF1C01AC014C5C5F4F2EE02E
:102E80006BE30E94CD168111F4C1F101A4A8B12C0D
:102E90001A2D002785A9082B13A302A3E6A8F12C5D
:102EA000FE2CEE2487A9E82AF5A2E4A280AC912C9E
:102EB000982C882481AD882A97A286A246805780C4
:102EC0006084718464AD70E0762F662785AD682BD1
:102ED000882777FD8095982F0E941A31F10120A54F
:102EE00031A542A553A50E94B42FA30192010E94CF
:102EF0007F30F101668B778B808F918F66AD70E0AC
:102F0000762F662787AD682B882777FD8095982FC9
:102F10000E941A31F10124A535A546A557A50E94A6
:102F2000B42FA30192010E947F30F101628F738F51
:102F3000848F958FE05CFF4F608170E0762F66276D
:102F400031968081682B882777FD8095982F0E9485
:102F50001A31F10120A931A942A953A90E94B42F25
:102F6000A30192010E947F30F101668F778F80A3C9
:102F700091A3B701882777FD8095982F0E941A3179
:102F80006B017C01B401882777FD8095982F0E9402
:102F90001A319B01AC010E9492324B015C01A701E6
:102FA0009601C701B6010E949232A50194010E94C8
:102FB000B52F0E9445339B01AC01B801882777FDEE
:102FC0008095982F29873A874B875C870E941A3112
:102FD0002B013C0129853A854B855C850E94283070
:102FE00020E030E044E353E40E9492322AED3FE0D7
:102FF00049E450E40E947F3069837A838B839C8309
:10300000A3019201C301B2010E949232A501940171
:103010000E94B52F0E9445339B01AC01C701B60148
:103020000E94283020E030E044E353E40E949232D2
:103030002AED3FE049E450E40E947F306D837E83B7
:103040008F8398870E94192AC0905106D09052060B
:10305000E0905306F09054066C197D098E099F0983
:103060000E94183120E030E04AE754E40E947F30AB
:103070006B017C010E94192A6093510670935206DD
:103080008093530690935406F10186A197A11816D8
:10309000190644F5228D338D448D558DC701B60137
:1030A0000E9492329B01AC01F10162857385848597
:1030B00095850E94B42FF101628773878487958775
:1030C00026893789408D518DC701B6010E94923201
:1030D0009B01AC01F10166857785808991890E9409
:1030E000B52F28C0F101228D338D448D558DC70138
:1030F000B6010E9492329B01AC01F1016285738599
:10310000848595850E94B52FF10162877387848736
:10311000958726893789408D518DC701B6010E9458
:1031200092329B01AC01F101668577858089918996
:103130000E94B42FF10166877787808B918BF10114
:10314000268D378D40A151A1C701B6010E94923250
:10315000F10122893389448955890E94B52F2B01B9
:103160003C0120E030E044EB53E40E947F300E94B9
:10317000553120E030E044EB53E40E9492329B0151
:10318000AC01C301B2010E94B42F2B013C0120E02D
:1031900030E044E353E40E944232181634F0F10167
:1031A000428A538A648A758A0DC020E030E044EB7D
:1031B00053E4C301B2010E94B42FF101628B738BFF
:1031C000848B958B20E030E040E05FE3C701B601DF
:1031D0000E94B52F9B01AC0160E070E080E09FE3AE
:1031E0000E947F306B017C019B01AC0160E070E0CC
:1031F00080E89FE30E94B42F4B015C01F10122851E
:10320000338544855585C701B6010E9492322B0152
:103210003C01A501940169817A818B819C810E9486
:1032200092329B01AC01C301B2010E94B52FF101A2
:10323000628773878487958726853785408951897A
:10324000C701B6010E9492326B017C01A501940175
:103250006D817E818F8198850E9492329B01AC01A5
:10326000C701B6010E94B52FF10166877787808B71
:10327000918B2C960FB6F894DEBF0FBECDBFDF91B9
:10328000CF911F910F91FF90EF90DF90CF90BF9063
:10329000AF909F908F907F906F905F904F903F90F6
:1032A0002F9008952F923F924F925F926F927F924C
:1032B0008F929F92AF92BF92CF92DF92EF92FF9246
:1032C0000F931F93CF93DF9300D000D0CDB7DEB71D
:1032D0001C0104EF11E0812C912C5401412C512C44
:1032E000320119821A821B821C827C0124E3E20EC5
:1032F000F11C26E0A70163E4C1010E94CD16F10193
:1033000084A990E0982F882725A9822BAA2797FDCA
:10331000A095BA2F29813A814B815C81280F391FF2
:103320004A1F5B1F29833A834B835C8386A990E005
:10333000982F882727A9822BAA2797FDA095BA2F17
:10334000480E591E6A1E7B1E80AD90E0982F88277C
:1033500021AD822BAA2797FDA095BA2F880E991E22
:10336000AA1EBB1E0150110921F624EFC22EDD2436
:10337000D394E12CF12C69817A818B819C81A70106
:1033800096010E948D34CA01B9010E941A31F101DF
:1033900060A771A782A793A7C301B201A7019601F5
:1033A0000E948D34CA01B9010E941A31F10164A74B
:1033B00075A786A797A7C501B401A70196010E942A
:1033C0008D34CA01B9010E941A31F10160AB71ABB1
:1033D00082AB93AB0F900F900F900F90DF91CF9136
:1033E0001F910F91FF90EF90DF90CF90BF90AF9023
:1033F0009F908F907F906F905F904F903F902F9015
:103400000895EF92FF921F93CF93DF931F92CDB752
:10341000DEB7162F7A018E5B9F4FFC01608181E33E
:1034200094E029830E94270B612F81E394E00E949E
:10343000DE0A2981813091F4422F50E0B70181E307
:1034400094E00E94B10A61E081E394E00F90DF9183
:10345000CF911F91FF90EF900C94310B8FEF0F9055
:10346000DF91CF911F91FF90EF900895CF93DF935D
:103470001F92CDB7DEB7498321E0AE014F5F5F4FAA
:103480000E94011A0F90DF91CF910895CF93DF939F
:10349000EC0140E050E063E872E44E835F836887AC
:1034A00079871A861B861C861D861E861F86188AAB
:1034B000198A1A8A1B8A1C8A1D8A1E8A1F8A188EDC
:1034C000198E1A8E1B8E1C8E1D8E1E8E1F8E18A29C
:1034D00019A21BA21AA21DA21CA21FA21EA218A6FC
:1034E00019A61AA61BA61CA61DA61EA61FA618AACC
:1034F00019AA1AAA1BAA81E394E00E941D0B60E29C
:1035000073E080E090E00E94482A40E06BE670E0C3
:10351000CE010E94361A41E06AE170E0CE010E94BD
:10352000361A48E06BE170E0CE010E94361ACE01F7
:10353000DF91CF910C94521921E030E0FC013183EE
:103540002083EE5FFE4F1082118212821382349626
:103550001082118212821382349610823196108268
:103560003196108211821282138234961182108257
:103570003296108231961082118212821382349612
:10358000108211821282138208950895CF92DF92E1
:10359000EF92FF920F931F93CF93C62FFC01EE5F24
:1035A000FE4F0081118122813381B901A8014F5F53
:1035B0005F4F6F4F7F4F552766277727DC01AA5F44
:1035C000BE4FCD90DD90ED90FC904C155D056E05E5
:1035D0007F0559F0DC01A00FB11F1296CC934083F8
:1035E00051836283738381E001C080E0CF911F919A
:1035F0000F91FF90EF90DF90CF900895AF92BF9220
:10360000CF92DF92EF92FF920F931F93CF93DF93AE
:1036100000D000D0CDB7DEB75C01FC01EE5FFE4FFD
:10362000C080D180E280F3808FEFC80ED11CE11CF6
:10363000F11C349680819181A281B381C81AD90A84
:10364000EA0AFB0ADD24EE24FF24C216D306E406B0
:10365000F50628F08B01C12CD12C760102C080E048
:1036600019C0C216D306E406F506A1F0F80161916F
:103670008F01C50129833A834B835C830E94C61A5C
:10368000FFEFCF1ADF0AEF0AFF0A5C814B813A8114
:103690002981E7CF0F900F900F900F90DF91CF917E
:1036A0001F910F91FF90EF90DF90CF90BF90AF9060
:1036B00008950F931F93CF93DF93DB01FC01EA5F23
:1036C000FE4F4081518162817381EC01CE5FDE4FFC
:1036D000088119812A813B810417150726073707BE
:1036E000A9F0EC01C40FD51F8A818C938081918150
:1036F000A281B3810196A11DB11D9927AA27BB27DD
:1037000080839183A283B38381E001C080E0DF9155
:10371000CF911F910F9108950F931F93FC0100E02B
:1037200010E0980180E0041715072607370739F0E5
:10373000919189270F5F1F4F2F4F3F4FF4CF1F915C
:103740000F9108952F923F924F925F926F927F92C6
:103750008F929F92AF92BF92CF92DF92EF92FF92A1
:103760000F931F93CF93DF9300D000D000D0CDB73D
:10377000DEB78C0119827C018DEEE81A8EEFF80A13
:1037800018019EEE291A9EEF390A4801A0EF8A1A05
:10379000AEEF9A0A5801B4EFAB1ABEEFBB0A68014C
:1037A000E9EECE1AEEEFDE0AC801855F9E4F9B83DD
:1037B0008A83D801A65FBE4FBD83AC83BE016F5F15
:1037C0007F4FC8010E94591BF801882309F40FC1DB
:1037D0008081918183309105F9F064F48130910505
:1037E00091F0029759F78981EA81FB81808383E018
:1037F00090E00EC08530910509F48FC07CF10697EA
:1038000009F4C7C0DBCF8981853AC1F682E090E038
:10381000D8018D939C93D2CFF70180819181800F45
:10382000911FFC01E45FFE4F29812083F701808115
:103830009181A281B3810196A11DB11D80839183E5
:10384000A283B3830497A105B10509F0B7CF108215
:1038500011821282138284E090E05BC0D6014D9009
:103860005D906D907C90411451046104710459F590
:10387000F50180819181A281B3818F3F9105A105DE
:10388000B10539F030F081E090E0D8018D939C9340
:1038900064C001960E94CC34D4018D939C93892BF3
:1038A00091F481E090E0F80191838083D6011D922C
:1038B0001D921D921C921397F701108211821282A1
:1038C0001382D50189C08981D401ED91FC91E40D69
:1038D000F51D8083F60180819181A281B3810196DB
:1038E000A11DB11D80839183A283B383F501408123
:1038F00051816281738184179507A607B70709F084
:103900005DCFD6011D921D921D921C92139785E0EA
:1039100090E0F8019183808351CF2981D1012C93CC
:10392000F40160807180D5014D915D916D917C9124
:10393000C3012E830E948C1B2E81281721F181E068
:1039400090E0F801918380836114710431F0C30128
:103950000E946435D4011D921C92F60110821182DE
:1039600012821382D7011D921D921D921C921397F1
:10397000F5011082118212821382AA81BB811C92EE
:10398000F10110821BCFE6E0F0E0D801ED93FC934B
:1039900015CF89818A3589F0D4018D919C9100974A
:1039A00029F00E946435F40111821082D5011D9224
:1039B0001D921D921C92139704C081E0EC81FD8141
:1039C000808381E090E0D8018D939C93F601108272
:1039D000118212821382D7011D921D921D921C9298
:1039E0001397EA81FB811082D1011C92E7CE80817E
:1039F00026960FB6F894DEBF0FBECDBFDF91CF91F4
:103A00001F910F91FF90EF90DF90CF90BF90AF90FC
:103A10009F908F907F906F905F904F903F902F90EE
:103A20000895BF92CF92DF92EF92FF920F931F9370
:103A3000CF93DF93EC01CB018E01045F1E4FF801A1
:103A4000C080D180E280F380C216D306E406F5067A
:103A500018F4BC2C5D2D02C0B22E532F7E01F0EF66
:103A6000EF1AFEEFFF0AF7016081718161157105A0
:103A7000B9F00097A9F04B2D0E94BD36F701808167
:103A800091810E946435F70111821082F801108241
:103A9000118212821382C65FDE4F18828B2D01C005
:103AA00080E0DF91CF911F910F91FF90EF90DF9019
:103AB000CF90BF90089560E00C94C7204F925F9222
:103AC0006F927F928F929F92AF92BF92CF92DF922E
:103AD000EF92FF920F931F93CF93DF9300D000D00C
:103AE0001F92CDB7DEB78C01CE0101966C0185E047
:103AF000F60111928A95E9F760E0C8010E940F2152
:103B000064E170E080E090E00E94482A61E0C80132
:103B10000E940F2188E290E00E94822A60E0C801A2
:103B20000E940F210E94192A4B015C0160E0C8012C
:103B30000E94EE2081110EC00E94192A681979098D
:103B40008A099B09633071058105910578F3F801B5
:103B5000148215820E94192A4B015C0160E0C801A1
:103B60000E94EE20882359F00E94192A68197909C9
:103B70008A099B09633071058105910578F3E12C71
:103B8000F12C0E94192A4B015C0160E0C8010E94DF
:103B9000EE2081110BC00E94192A681979098A093F
:103BA0009B09633071058105910578F30E94252AF0
:103BB0004B015C010E94192A2B013C0160E0C80105
:103BC0000E94EE20882359F00E94192A6419750971
:103BD00086099709633071058105910578F30E9484
:103BE000252A681979098A099B09F70123E0F595C7
:103BF000E7952A95E1F7693271058105910530F065
:103C0000EC0DFD1D8081880F816004C0EC0DFD1D51
:103C10008081880F8083FFEFEF1AFF0A88E2E816A1
:103C2000F10409F0AECF59814B81842F90E0850FCC
:103C3000911D2D8130E08217930719F4F801548308
:103C400045830F900F900F900F900F90DF91CF91C1
:103C50001F910F91FF90EF90DF90CF90BF90AF90AA
:103C60009F908F907F906F905F904F900895FC0190
:103C7000611102C084810895858108951F920F9279
:103C80000FB60F9211240F931F932F933F934F93CF
:103C90005F936F937F938F939F93AF93BF93CF93D4
:103CA000EF93FF9382E00E94DC2BC82F20915B06EC
:103CB00030915C062F5F3F4F30935C0620935B068C
:103CC0008091C106843618F085E080935606909165
:103CD0005606933079F018F4923039F070C0943071
:103CE00011F1953009F44AC06AC0C11168C0109240
:103CF000C10629C0C13009F062C0E091C10681E06F
:103D00008E0F8093C106F0E080915B0690915C0677
:103D1000EB5AF94F808710925C0610925B0684E0A4
:103D2000809356064CC0C11114C0E091C10681E0D9
:103D30008E0F8093C106F0E080915B0690915C0647
:103D4000EB5AF94F808710925C0610925B0683E075
:103D5000E7CF80915B0690915C068536910578F1FE
:103D600085E0809356060E94192A60935706709347
:103D700058068093590690935A0621C00E94192A2A
:103D800000915706109158062091590630915A0615
:103D9000601B710B820B930B693C710581059105CA
:103DA00040F01092C10610925C0610925B0682E011
:103DB000B7CFC11104C010925C0610925B06FF9150
:103DC000EF91CF91BF91AF919F918F917F916F9123
:103DD0005F914F913F912F911F910F910F900FBEC7
:103DE0000F901F901895CF93DF93EC010E948022D3
:103DF00089E791E09983888388A1FE01E858FF4F05
:103E000080838F8DC758DF4F8883DF91CF910895CE
:103E1000CF93DF93EC0140E855E260E070E00E9450
:103E2000BD2260E08F8DDF91CF910C946D2B1F939D
:103E3000CF93DF93EC018BA1882319F0CE010E9470
:103E4000EB2260E0CE014F960E94DD20182F8BA15F
:103E5000882319F0CE010E94081F81E08127DF919D
:103E6000CF911F91089586589F4FFC01808108953E
:103E7000CF93DF93EC010E94171F8823A1F0CE019E
:103E80000E945823181619068CF4E881F9810680DF
:103E9000F781E02DCE0109958F3F91053CF4C6587E
:103EA000DF4F888303C0C658DF4F1882DF91CF9160
:103EB00008950E943E239927089560E00C94C7203E
:103EC000613049F40E941F218A5E91402091C4060E
:103ED0003091C5060AC0623059F40E942B218A5ED7
:103EE00091402091C2063091C306820F931F08951E
:103EF00080E090E00895089570E0FB01EA54FE4FE1
:103F0000E491DC01EC93FB01E653FE4FE491F0E019
:103F1000EE0FFF1FE252FE4F25913491FC013283D8
:103F2000218308951F93CF93DF93FC011081C181FA
:103F3000D2819981812F8095892389838A81812BE0
:103F40008A838AE090E00E94822A9881912381E00E
:103F500009F480E0DF91CF911F910895FF920F93B4
:103F60001F93CF93DF93FC011081C181D281F8941C
:103F70008981F12EF0948F2189838A81812B8A8314
:103F800078940DE7015041F182E090E00E94822A8E
:103F900088818123B9F3F8948A818F218A8389816A
:103FA000812B8983789480EE91E00E94822AF89494
:103FB00089818F2189838A81812B8A8386E490E09D
:103FC0000E94822A8881812301E009F000E0789430
:103FD0008AE991E00E94822A802FDF91CF911F9180
:103FE0000F91FF9008951F93CF93DF93FC011081F1
:103FF000C181D281912F909560FF12C0F8948A817F
:1040000089238A838981812B89838AE090E00E94B9
:10401000822A8A81812B8A83789487E390E011C079
:10402000F8948A8189238A838981812B898381E419
:1040300090E00E94822A8A81812B8A83789485E08D
:1040400090E0DF91CF911F910C94822A0F931F93E0
:10405000CF93DF93FC011081C181D281F8948981D3
:10406000812B89838A81012F009580238A8383E0B5
:1040700090E00E94822A8981802389838A81812B12
:104080008A838AE090E00E94822AC881789485E33E
:1040900090E00E94822A1C2381E009F480E0DF91F5
:1040A000CF911F910F910895CF92DF92EF92FF92DF
:1040B0000F931F93CF93DF931F92CDB7DEB76C01A1
:1040C000E62E08E010E0FF24F39461E09F2D9E218E
:1040D00009F460E0C60149830E94F31FFF0C015000
:1040E000110949810115110581F741111DC0F8948D
:1040F000D6011196ED91FC91129791818C9180954A
:10410000892381831196ED91FC91129782819C9174
:10411000892B82831196ED91FC91129792818C915B
:1041200080958923828378940F90DF91CF911F919E
:104130000F91FF90EF90DF90CF900895EF92FF9254
:104140000F931F93CF93DF938C01C8E0D0E0F12C45
:10415000EE24E394C8010E9426208111FE28EE0C73
:104160002197C1F78F2DDF91CF911F910F91FF9074
:10417000EF90089540E06CEC0C945420FC01809189
:104180001A01808380911B01818312820895DC01D2
:10419000E62FF0E0EE0FFF1FE65EFE4F80818C936E
:1041A000818111968C93119712966C930895FC015E
:1041B00082810895FC0183810895CF93DF93EC0100
:1041C00088810E946D2B88810E94DC2B21E0892B45
:1041D00009F420E0822FDF91CF910895CF93DF93F0
:1041E000EC0189810E946D2B89810E94DC2B21E0EA
:1041F000892B09F420E0822FDF91CF9108951F933E
:10420000CF93DF93EC01162F61E088810E946D2B24
:10421000612F8881DF91CF911F910C94A62B1F9362
:10422000CF93DF93EC01162F61E089810E946D2B03
:10423000612F8981DF91CF911F910C94A62BCF9391
:10424000DF93EC0160E088810E946D2B8881DF9113
:10425000CF910C94C82ACF93DF93EC0160E0898161
:104260000E946D2B8981DF91CF910C94C82AFC01AB
:1042700080810C94E52ADC01E62FF0E0EE0FFF1FB1
:10428000E65EFE4F80818C93818111968C9311970D
:1042900012966C930895DC01E62FF0E0EE0FFF1FFD
:1042A000E65EFE4F80818C93818111968C931197ED
:1042B00012966C93129713964C930895FC0180818B
:1042C0000895FC0181810895DC0112966C93129788
:1042D000E62FF0E0EE0FFF1FE65EFE4F9181119694
:1042E0009C93119780818C934230D9F4292F30E030
:1042F000F901EA54FE4FE4911C96EC931C97F901E6
:10430000E653FE4FE491F0E0EE0FFF1FE851FE4F41
:104310002591349119963C932E93189761E0892F3B
:1043200019C0282F30E0F901EA54FE4FE4911C96A1
:10433000EC931C97F901E653FE4FE491F0E0EE0F89
:10434000FF1FE851FE4F2591349119963C932E930F
:10435000189761E00C946D2BCF93DF93EC01262F1F
:1043600030E03D832C8323E0629FC00111240E9432
:10437000CC349F838E83892B21F485E891E00E94C1
:10438000CD3680E090E04C815D819A01220F331F91
:10439000240F351F8217930738F4EE81FF81E80F51
:1043A000F91F10820196EFCFDF91CF910895CF933F
:1043B000DF93EC010E94BE2060E2CE01DF91CF913D
:1043C0000C94AC210F93FC01A62FB0E08481958161
:1043D000A817B907B8F4862F880F860F90E0A6813A
:1043E000B781A80FB91F2C93A681B781A80FB91F59
:1043F00011964C930680F781E02DE80FF91F028398
:1044000081E001C080E00F910895CF92DF92EF929A
:10441000FF920F931F93CF93DF937C01142FD22E23
:10442000C02E611113C0C0E0D0E0F70184819581F6
:10443000C817D90748F40C2D2D2D412F6C2FC7011B
:104440000E94E2212196F1CF81E004C061500E94D8
:10445000E22180E0DF91CF911F910F91FF90EF90CB
:10446000DF90CF9008950F93022F242F462F60E006
:104470000E9405220F9108950F931F93D8013FB713
:10448000F8949C91822F80958923292BFB01460F5C
:10449000571FE417F50781F0919168E02C9300C055
:1044A00097FF8C93990F00C000C000C008F48C9354
:1044B00000C06A9599F7EDCF3FBF1F910F91089506
:1044C0000F931F93FC010085118524813581A9017B
:1044D000440F551F420F531F6681778124850E9428
:1044E0003C221F910F910895CF93DF93EC018E81B1
:1044F0009F810E9464351F821E82DF91CF910895B3
:10450000FF920F931F93CF93DF93EC01F62E8C0154
:10451000015E1F4FC8010E94C720EF2DF0E0EE0F93
:10452000FF1FE65EFE4F20E040816181CE010E94C8
:10453000780F87EA91E0998388836BEC71E0CE0174
:1045400082599F4F0E94562F1DA21BA21CA288A118
:10455000FE01EA58FF4F80838F8D31968083C8011A
:104560000E94D72091E0853009F090E09BA3DF9175
:10457000CF911F910F91FF900895CF92DF92EF920C
:10458000FF92CF93DF93EC016A017B0160E472E458
:104590008FE090E0A70196010E948D343FA32EA3E7
:1045A0008BA1882369F026E0B701A60185EF96E08C
:1045B000DF91CF91FF90EF90DF90CF900C94142D6E
:1045C000B701A601CE01DF91CF91FF90EF90DF9070
:1045D000CF900C94A80FFC0123A1222321F085EF9A
:1045E00096E00C94762D0C943610CF92DF92EF92D9
:1045F000FF920F931F93CF93DF93FC01C6A1D7A126
:1046000023976C01F6E7CF0ED11CF60180810E9442
:10461000DC2B892BF1F400E010E0E12CF12CCE0131
:104620000E94822AF60180810E94DC2B002E02C0AB
:10463000880F991F0A94E2F7E82AF92A0F5F1F4FA3
:104640000830110561F7CE010E94822AC70199271F
:1046500002C08FEF9FEFDF91CF911F910F91FF90DD
:10466000EF90DF90CF900895FC0123A1222321F049
:1046700085EF96E00C94AF2C0C94E30DFC0124A183
:10468000222351F020A531A54FEF5FEF51A740A79E
:1046900037FF0CC00C94F522FC0123A1222321F04A
:1046A00085EF96E00C944A2C0C94C20DC901089534
:1046B000CF93DF93EC018CA1882371F0CE010E948F
:1046C000F52288A799A7892F8095881F8827881F9A
:1046D00090E0DF91CF9108958BA1882331F085EF91
:1046E00096E0DF91CF910C94312CCE01DF91CF91E8
:1046F0000C944E0ECF93DF93EC018E81813011F438
:1047000060E001C061E08A810E94A62B61E08B819C
:104710000E94A62B81E090E00E94822A60E08B81BB
:10472000DF91CF910C94A62BCF93DF93EC0160E047
:1047300002960E94C72087EB91E099838883DF91DE
:10474000CF910895CF93DF93EC0102960E94C7208A
:1047500087EB91E0998388831F82188619861A86D1
:104760001B861C861D861E861F8A188E198E1A8E21
:104770000E94252A6F8F78A389A39AA31F86188A7F
:10478000198A1A8A81E08E831F82188619861A86F2
:104790001B861C861D861E861BA21CA21DA21EA295
:1047A0001B8E1C8E1D8E1E8E61E08A810E946D2BD9
:1047B00061E08B81DF91CF910C946D2B0F931F9350
:1047C000CF93DF93EC014B8D5C8D6D8D7E8D452BF2
:1047D000462B472B11F480E035C00E94252A0F8D0F
:1047E00018A129A13AA1601B710B820B930B0B8DB1
:1047F0001C8D2D8D3E8D061717072807390758F792
:104800008E814F81588569857A85813029F44F5F83
:104810005F4F6F4F7F4F04C04150510961097109CB
:104820004F83588769877A87E881F9810190F08101
:10483000E02DCE0109950E94252A6F8F78A389A3C8
:104840009AA381E0DF91CF911F910F9108952F924C
:104850003F924F925F926F927F928F929F92AF9210
:10486000BF92CF92DF92EF92FF920F931F93CF935D
:10487000DF9300D000D000D0CDB7DEB79E838D830C
:10488000FC01C384D484E584F68487819085A18566
:10489000B285C81AD90AEA0AFB0A67857089818934
:1048A00092899B01AC010E9492324B015C01ED8127
:1048B000FE816789708D818D928D9B01AC010E9474
:1048C000B52F9B01AC01C501B4010E947F300E944D
:1048D000E730C114D104E104F104A9F46230710598
:1048E000810591050CF082C0ED81FE81138E148E3E
:1048F000158E168E1786108A118A128A13A214A298
:1049000015A216A20AC1ED81FE8103A114A125A161
:1049100036A11C141D041E041F040CF510161106EC
:10492000120613064CF46C157D058E059F056CF57B
:10493000268121115BC029C0011511052105310512
:1049400009F454C06C157D058E059F050CF04EC012
:10495000ED81FE818681813009F048C03CC010168F
:104960001106120613060CF50027112798010C19E1
:104970001D092E093F0960177107820793072CF460
:10498000ED81FE812681213089F59B01AC018827CC
:104990009927DC01821B930BA40BB50BED81FE81E3
:1049A00083A394A3A5A3B6A321C0011511052105D6
:1049B0003105E1F08824992454018C189D08AE0833
:1049C000BF08681579058A059B0584F4ED81FE8191
:1049D000868181110BC030952095109501951F4F50
:1049E0002F4F3F4F03A314A325A336A3ED81FE81D0
:1049F00083A094A0A5A0B6A081149104A104B10441
:104A000099F487A190A5A1A5B2A583A794A7A5A76E
:104A1000B6A781E01C141D041E041F040CF080E0E6
:104A2000ED81FE81868342C0ED81FE81C3A4D4A4C2
:104A3000E5A4F6A4A7019601C701B6010E94B52F0F
:104A40002B013C01C501B4010E941A3120E030E085
:104A500040E850E40E94923220E030E040E85FE31A
:104A60000E94B52F9B01AC01C301B2010E947F30AF
:104A70009B01AC01C701B6010E94B42F1B012C01A0
:104A8000ED81FE8167A470A801A912A99301A80174
:104A90000E944232181614F431018201A301B801B8
:104AA000ED81FE8143A754A765A776A7FFEF8F1A74
:104AB0009F0AAF0ABF0AED81FE8183A294A2A5A23C
:104AC000B6A223A534A545A556A5CA01B9012983D7
:104AD0003A834B835C830E94EC30ED81FE81638FCF
:104AE000748F858F968F29813A814B815C8160E03C
:104AF00074E284E799E40E947F30ED81FE8167874C
:104B0000708B818B928B2681211107C0DC01CB0138
:104B1000B0588787908BA18BB28B26960FB6F894EE
:104B2000DEBF0FBECDBFDF91CF911F910F91FF90E0
:104B3000EF90DF90CF90BF90AF909F908F907F903D
:104B40006F905F904F903F902F9008950F931F9319
:104B5000FC0103851485258536850417150726076E
:104B6000370741F043875487658776871F910F91F8
:104B70000C9427241F910F910895CF92DF92EF920A
:104B8000FF92CF93DF93EC016A017B019A01AB01A5
:104B90006B897C898D899E890E947B30882309F4EA
:104BA00040C0CB8ADC8AED8AFE8AA701960160E0CC
:104BB00074E284E799E40E947F306FA778AB89ABF9
:104BC0009AAB8BA19CA1ADA1BEA1181619061A061D
:104BD0001B063CF56F85788989899A899B01AC0110
:104BE0000E9492326B017C016F89788D898D9A8D3C
:104BF0009B01AC010E94B52F9B01AC01C701B6011E
:104C00000E947F300E94E7306BA37CA38DA39EA3FC
:104C1000CE01DF91CF91FF90EF90DF90CF900C9479
:104C20002724DF91CF91FF90EF90DF90CF900895F0
:104C30006F927F928F929F92AF92BF92CF92DF92AC
:104C4000EF92FF920F931F93CF93DF93EC013A0102
:104C50008B012F85388949895A89B301C8010E947F
:104C60007B30882309F44FC0CB88DC88ED88FE8830
:104C700046015701B7FAB094B7F8B094A501940172
:104C8000B301C8010E947B3087FD0BC0A7019601CC
:104C9000B301C8010E94423218162CF43601870174
:104CA00002C03401850120E030E0A901B301C80150
:104CB0000E947B30811105C01B8E1C8E1D8E1E8EA6
:104CC0001CC09301A80160E074E284E799E40E94AB
:104CD0007F309F770E94EC306B8F7C8F8D8F9E8F03
:104CE000FF24F39420E030E0A901B301C8010E9441
:104CF000423218160CF0F12CFE82C301D8018F87C6
:104D0000988BA98BBA8BDF91CF911F910F91FF9058
:104D1000EF90DF90CF90BF90AF909F908F907F905B
:104D20006F9008950F931F93FC01038514852585CB
:104D300036854781508561857285041715072607DA
:104D4000370771F040175107620773071CF421E021
:104D5000268302C0FC0116821F910F910C94DE2362
:104D600080E01F910F910895CF93DF93EC010E9493
:104D7000BE20CE010496DF91CF910C947B1F1F9330
:104D8000CF93DF93EC01142F0E944B21123011F4CA
:104D9000698101C06881CE010496DF91CF911F9196
:104DA0000C947C1FCF92DF92EF92FF920F931F9390
:104DB000CF93DF93CDB7DEB72C970FB6F894DEBF55
:104DC0000FBECDBF8C010C5F1F4FC8010E94AE1FEC
:104DD000C8010E94BA2040E064E4C8010E94542047
:104DE0000E94192A6B017C01C8010E94921F811147
:104DF0000BC00E94192A6C197D098E099F096E3E0D
:104E000072408105910580F3C8010E94AE1FC80160
:104E10000E94BA2040E06EEBC8010E945420CE01EF
:104E200001967C016E0196E0C90ED11CC8010E945A
:104E30009E20F70181937F01EC15FD05B9F76A818A
:104E400070E0762F66278981682B882777FD80950B
:104E5000982F0E941A3120E030E040E85DE30E9484
:104E600092322C960FB6F894DEBF0FBECDBFDF9105
:104E7000CF911F910F91FF90EF90DF90CF90089509
:104E800060E00C94C72060E00C94EE2060E00C948D
:104E9000C720CF92DF92EF92FF920F931F93CF9391
:104EA000DF9300D000D0CDB7DEB78C019A01AB0103
:104EB00029833A834B835C830E94192AF801C680B8
:104EC000D780E084F1846C197D098E099F092981BE
:104ED0003A814B815C81683171058105910510F043
:104EE00081E08583F80185818823C1F129833A8394
:104EF0004B835C830E94192AF8016683778380873D
:104F00009187158260E0C8010E940F2182E090E045
:104F10000E94822A61E0C8010E940F218AE090E08D
:104F20000E94822A60E0C8010E940F2160E0F8011F
:104F300081810E946D2B29813A814B815C8161E0E6
:104F4000F80181810E94052C6B017C010E941A31BD
:104F5000F801628773878487958709C0F8016285A5
:104F60007385848595850E94E7306B017C01C701BC
:104F7000B6010F900F900F900F90DF91CF911F917E
:104F80000F91FF90EF90DF90CF90089527E3269F39
:104F9000A001279F500D112448535F4F60E070E03F
:104FA0000E9449270E941A3120E030E048E652E48E
:104FB0000E947F3008951F920F920FB60F92112416
:104FC0002F933F934F935F936F937F938F939F9311
:104FD000AF93BF93EF93FF938091C70687FF05C000
:104FE00010928500109284001AC02091C7063327C2
:104FF00027FD30958091C60690E0281739077CF48C
:105000008091C706992787FD9095FC01EE0FFF1F41
:10501000E80FF91FE853F94F808187FD15C0809193
:10502000C7068F5F8093C7062091C706332727FDE9
:1050300030958091C60690E028173907BCF480911E
:10504000C7068C305CF112C08091C706992787FD96
:105050009095FC01EE0FFF1FE80FF91FE853F94F81
:10506000808160E08F770E94A62BD9CF8091840049
:1050700090918500049680349C4918F480E49CE962
:1050800005C08091840090918500049690938900DA
:10509000809388008FEF8093C70638C020918400EA
:1050A000309185008091C706992787FD9095FC0176
:1050B000EE0FFF1FE80FF91FE853F94F818192812E
:1050C000820F931F90938900809388008091C70678
:1050D000992787FD9095FC01EE0FFF1FE80FF91F40
:1050E000E853F94F808187FF11C08091C706992747
:1050F00087FD9095FC01EE0FFF1FE80FF91FE853A5
:10510000F94F808161E08F770E94A62BFF91EF918C
:10511000BF91AF919F918F917F916F915F914F91CF
:105120003F912F910F900FBE0F901F9018952091D7
:10513000C6062C30A0F431E0320F3093C606FC01D5
:105140002083822F90E0FC01EE0FFF1FE80FF91F74
:10515000E853F94F88EB9BE09283818308952FEF0A
:10516000FC0120830895DF92EF92FF920F931F932B
:10517000CF93DF93EC01D62E7A01890188818C30A0
:1051800008F066C061E08D2D0E946D2B8881A82FEC
:10519000B0E0FD01EE0FFF1FEA0FFB1FE853F94FD0
:1051A0002D2D2F7790819078922B908360E272E082
:1051B0006E197F0977FF02C06D5F7F4F7595679508
:1051C00075956795698340E659E0401B510B57FF81
:1051D00002C04D5F5F4F55954795559547954A835A
:1051E0006CE00E9437349CE0899FB001112420E0DC
:1051F00030E0A901460F571FFA01EE0FFF1FE40F21
:10520000F51FE853F94F908197FD16C02F5F3F4F70
:105210002C30310571F781110FC01092800082E0AF
:10522000809381001092850010928400B19A809141
:105230006F00826080936F00888190E0FC01EE0F28
:10524000FF1FE80FF91FE853F94F808180688083C2
:105250008881DF91CF911F910F91FF90EF90DF90A8
:10526000089520E639E040E252E00C94B328FC01B6
:1052700080818C3070F5918128E830E0291B31095C
:1052800097FD3395220F331F220F331F62177307C9
:105290007CF0928128E532E0291B310997FD339596
:1052A000220F331F220F331F621773070CF49B0169
:1052B00022503109220F331F4FB7F89490E0FC01C0
:1052C000EE0FFF1FE80FF91FE853F94F32832183D8
:1052D0004FBF08954F925F926F927F92AF92BF92AD
:1052E000CF92DF92EF92FF920F931F93CF93DF93B2
:1052F000EC01603282E078070CF040C077FD06C018
:10530000653B71052CF064EB70E002C060E070E07A
:10531000898128E830E0281B310987FD3395220F69
:10532000331F220F331F5901CC24B7FCC094DC2C4F
:10533000882777FD8095982F2A8148E552E0421B07
:10534000510927FD5395440F551F440F551F2A013E
:10535000662457FC6094762C7F926F925F924F92F6
:1053600014EBE12EF12C00E010E020E030E0A90188
:105370000E94A12E0F900F900F900F90CE01DF9101
:10538000CF911F910F91FF90EF90DF90CF90BF9042
:10539000AF907F906F905F904F900C9437291F9241
:1053A0000F920FB60F9211242F933F938F939F93D9
:1053B000AF93BF938091ED069091EE06A091EF061A
:1053C000B091F0063091EC0623E0230F2D3720F446
:1053D0000196A11DB11D05C026E8230F0296A11D4F
:1053E000B11D2093EC068093ED069093EE06A093FA
:1053F000EF06B093F0068091F1069091F206A0912D
:10540000F306B091F4060196A11DB11D8093F1063B
:105410009093F206A093F306B093F406BF91AF9178
:105420009F918F913F912F910F900FBE0F901F90E2
:1054300018952FB7F8946091ED067091EE06809163
:10544000EF069091F0062FBF08953FB7F894809132
:10545000F1069091F206A091F306B091F40626B5FC
:10546000A89B05C02F3F19F00196A11DB11D3FBF9C
:105470006627782F892F9A2F620F711D811D911D2C
:1054800042E0660F771F881F991F4A95D1F708954C
:105490008F929F92AF92BF92CF92DF92EF92FF9244
:1054A0006B017C010E94252A4B015C01C114D104CF
:1054B000E104F104F1F00E94B32F0E94252A68193B
:1054C00079098A099B09683E73408105910570F34B
:1054D00021E0C21AD108E108F10888EE880E83E0C5
:1054E000981EA11CB11CC114D104E104F10429F7D8
:1054F000DDCFFF90EF90DF90CF90BF90AF909F9067
:105500008F9008958230910538F0880F991F880F89
:10551000991F05970197F1F70895789484B58260F3
:1055200084BD84B5816084BD85B5826085BD85B547
:10553000816085BDEEE6F0E0808181608083E1E8F6
:10554000F0E010828081826080838081816080832E
:10555000E0E8F0E0808181608083E1EBF0E0808131
:1055600084608083E0EBF0E0808181608083EAE703
:10557000F0E080818460808380818260808380818C
:10558000816080838081806880831092C10008954B
:105590008E3008F08E5087702091380190E4299F5A
:1055A00090011124822B80937C0080917A0080648A
:1055B00080937A0080917A0086FDFCCF80917800FC
:1055C0002091790090E0922B08951F93CF93DF9361
:1055D000182FEB0161E00E946D2B209711F460E021
:1055E00004C0CF3FD10539F461E0812FDF91CF9125
:1055F0001F910C94A62BE12FF0E0EE55FE4FE491A5
:10560000E330F9F048F4E130B9F0E230A1F584B5C7
:10561000806284BDC8BD34C0E730E9F0E83019F1DC
:10562000E43049F580918000806280938000D093BF
:105630008B00C0938A0024C084B5806884BDC7BD38
:105640001FC080918000806880938000D093890083
:10565000C093880015C08091B00080688093B0002E
:10566000C093B3000DC08091B00080628093B00001
:10567000C093B40005C0C038D1050CF0B5CFAFCF92
:10568000DF91CF911F910895833081F028F481300C
:1056900099F08230A1F008958730A9F08830B9F0F0
:1056A0008430D1F4809180008F7D03C08091800090
:1056B0008F7780938000089584B58F7702C084B57A
:1056C0008F7D84BD08958091B0008F7703C0809155
:1056D000B0008F7D8093B0000895CF93DF9390E06A
:1056E000FC01EA54FE4F2491FC01E653FE4F8491E5
:1056F000882349F190E0880F991FFC01EE50FE4F7E
:10570000A591B49188519E4FFC01C591D4919FB74A
:10571000611108C0F8948C91209582238C93888124
:1057200082230AC0623051F4F8948C91322F309564
:1057300083238C938881822B888304C0F8948C9176
:10574000822B8C939FBFDF91CF9108950F931F936E
:10575000CF93DF931F92CDB7DEB7282F30E0F9014A
:10576000EE55FE4F8491F901EA54FE4F1491F90170
:10577000E653FE4F04910023C9F0882321F069838A
:105780000E94442B6981E02FF0E0EE0FFF1FE851EB
:10579000FE4FA591B4919FB7F8948C91611103C00D
:1057A0001095812301C0812B8C939FBF0F90DF91B7
:1057B000CF911F910F910895CF93DF93282F30E061
:1057C000F901EE55FE4F8491F901EA54FE4FD49150
:1057D000F901E653FE4FC491CC2391F081110E9450
:1057E000442BEC2FF0E0EE0FFF1FE252FE4FA5918D
:1057F000B4912C912D2381E090E021F480E002C04F
:1058000080E090E0DF91CF9108950F931F93762F62
:1058100090E0FC01EA54FE4F6491FC01E653FE4F18
:10582000E4917111762FF0E0EE0FFF1FE252FE4F70
:105830008591949189019A013F70472F0E942E0112
:10584000611571058105910531F06F5F7F4F8F4FB5
:105850009F4F9F7003C060E070E0CB011F910F91DC
:105860000895FC01818D228D90E0805C9F4F821B0A
:1058700091098F7399270895FC01918D828D981756
:1058800031F0828DE80FF11D858D90E008958FEF46
:105890009FEF0895FC01918D828D981761F0828DA4
:1058A000DF01A80FB11D5D968C91928D9F5F9F7354
:1058B000928F90E008958FEF9FEF089580EF9DE223
:1058C000892B49F080E090E0892B29F00E94F02D8F
:1058D00081110C9400000895FC01848DDF01A80F54
:1058E000B11DA35ABF4F2C91848D90E001968F7308
:1058F0009927848FA689B7892C93A089B1898C9127
:1059000080648C93938D848D981306C00288F389EC
:10591000E02D80818F7D80830895CF93DF93EC010C
:10592000888D8823C9F0EA89FB89808185FD05C0BF
:10593000A889B9898C9186FD0FC00FB607FCF5CFF9
:10594000808185FFF2CFA889B9898C9185FFEDCF41
:10595000CE010E946C2CE7CFDF91CF910895CF92BA
:10596000DF92FF920F931F93CF93DF931F92CDB7D8
:10597000DEB76C0181E0D60158968C9358975B9600
:105980009C915B975C968C915C97981307C050969E
:10599000ED91FC915197808185FD2EC0F601038D1C
:1059A00010E00F5F1F4F0F731127F02EF601848D4B
:1059B000F81211C00FB607FCF9CFD6015096ED9141
:1059C000FC915197808185FFF1CFC60169830E94C8
:1059D0006C2C6981EBCF838DE80FF11DE35AFF4FEB
:1059E0006083D6015B960C935B975296ED91FC9188
:1059F0005397808180620CC0D6015696ED91FC9140
:105A0000579760835096ED91FC9151978081806407
:105A1000808381E090E00F90DF91CF911F910F91F3
:105A2000FF90DF90CF900895BF92CF92DF92EF92D8
:105A3000FF92CF93DF93EC016A017B01B22EE889DC
:105A4000F98982E08083411581EE5807610571056F
:105A5000A1F060E079E08DE390E0A70196010E945B
:105A60006B342150310941095109569547953795B5
:105A70002795211580E1380798F0E889F989108287
:105A800060E874E88EE190E0A70196010E946B3413
:105A90002150310941095109569547953795279568
:105AA000EC85FD853083EE85FF852083188EEC899B
:105AB000FD89B082EA89FB89808180618083EA89DF
:105AC000FB89808188608083EA89FB898081806886
:105AD0008083EA89FB8980818F7D8083DF91CF91EC
