:100000000C9404010C942C010C942C010C945910A8
:100010000C9459100C9459100C942C010C940D2034
:100020000C942C010C942C010C942C010C94900A2F
:100030000C942C010C942C010C942C010C942C018C
:100040000C94F8280C942C010C94A92C0C94DB2C07
:100050000C942C010C942C010C942C010C942C016C
:100060000C94390E0C942C01BA0809071D073707A8
:10007000370750079708370774097409740974091A
:10008000740974097409AE076907C2077409740911
:100090007409F3074C092F084C086E087409740999
:1000A00074097409C908D1087409740974097409B8
:1000B000FD08E6087409740974097409740974095F
:1000C0007409740974097409740974092F093A09C7
:1000D000084AD73B3BCE016E84BCBFFDC12F3D6CAF
:1000E00074319ABD56833DDA3D00C77F11BED9E415
:1000F000BB4C3E916BAAAABE000000803F080000E6
:1001000000BE922449123EABAAAA2ABECDCCCC4C4A
:100110003E00000080BEABAAAAAA3E00000000BFBD
:10012000000000803F0000000000084178D3BB437E
:1001300087D1133D190E3CC3BD4282AD2B3E68EC06
:100140008276BED98FE1A93E4C80EFFFBE01C4FF8D
:100150007F3F000000000007634236B79BD8A71A14
:1001600039685618AEBAAB558C1D3CB7CC5763BD39
:100170006DEDFD753EF6177231BF000000803F0047
:100180003F065B4F666D7D077F6F777C395E7971C7
:10019000BF86DBCFE6EDFD87FFEFF7FCB9DEF9F1B7
:1001A00000400000000800020100000304070000F6
:1001B000000000000000010204081020408001023D
:1001C000040810200102040810200404040404049C
:1001D00004040202020202020303030303030000F9
:1001E0000000230026002900000000002500280050
:1001F0002B0000000000240027002A00F505570D01
:10020000F5150B2D5106F91511241FBECFEFD8E0BF
:10021000DEBFCDBF11E0A0E0B1E0EAE5FCE602C040
:1002200005900D92A03DB107D9F727E0A0EDB1E010
:1002300001C01D92AC31B207E1F711E0C4E0D2E099
:1002400004C02297FE010E949D33CC3FD107C9F71D
:100250000E944F2D0C9420360C940000CF92DF9218
:10026000EF92FF920F931F93E82FF92F05C00150D3
:1002700011092109310961F1908196239417B9F38D
:1002800005C0015011092109310911F1908196230E
:100290009413F7CFC12CD12CE12CF12C0AC08FEF95
:1002A000C81AD80AE80AF80A0C151D052E053F05DC
:1002B00079F080818623841791F36C2D7D2D8E2D0E
:1002C0009F2D1F910F91FF90EF90DF90CF90089599
:1002D00060E070E080E090E01F910F91FF90EF9060
:1002E000DF90CF900895CF93DF93CDB7DEB72A97F5
:1002F0000FB6F894DEBF0FBECDBF61E08DE00E9467
:10030000842A61E08DE00E94BD2A6CE271E080E009
:1003100090E00E94712960E08DE00E94BD2A26E0F5
:1003200040E052EC61E070E085E796E00E942B2C03
:1003300064EF71E080E090E00E94712961E083E168
:100340000E94842A61E083E10E94BD2A64E670E095
:1003500080E090E00E94712961E083E10E94842A9C
:1003600060E083E10E94BD2A61E0CE0101960E9417
:10037000D9158AE0FE013196AFE5B2E001900D9209
:100380008A95E1F762E0CE0101960E94D9158AE0D4
:10039000FE013196A9E6B2E001900D928A95E1F74F
:1003A0008FE592E00E94BA1689E692E00E94BA16A2
:1003B00064EF71E080E090E00E94712940E050E03D
:1003C000BA018FE592E00E94C61640E050E0BA0103
:1003D00089E692E00E94C6168BE193E00E94AB1B77
:1003E0002A960FB6F894DEBF0FBECDBFDF91CF9136
:1003F000089520915702FC01222319F0E151FE4F8C
:1004000002C0ED5DFD4F8081089520915702FC01EF
:10041000222319F0E151FE4F02C0ED5DFD4F6083D4
:10042000089585E796E00C94A02DCF93DF93EC011F
:100430000E94F90180937302CE0101960E94F90196
:10044000809374028091730290917402DF91CF9136
:1004500008950F931F93CF93DF93EC010E94F9014E
:1004600005E712E0F8018083CE0101960E94F901B0
:1004700080937602CE0102960E94F9018093770262
:10048000CE0103960E94F90180937802F801608101
:10049000718182819381DF91CF911F910F91089596
:1004A000EAEDF1E020E030E0419151914817590721
:1004B00091F0452B41F4F901EE0FFF1FE652FE4F7C
:1004C0009183808308C02F5F3F4F2830310561F74B
:1004D00080E090E00895C9010895AF92BF92CF9255
:1004E000DF92EF92FF920F931F93CF93DF93CDB7DD
:1004F000DEB7E6970FB6F894DEBF0FBECDBF8C0116
:1005000086E090E00E94F901D82EE82EF12C0C3004
:10051000110509F4E4C14CF50830110509F426C2AF
:10052000F4F40330110509F4A1C20530110509F0F6
:100530004BC386E090E00E9415028C0169E083E9DC
:1005400093E00E949022B80183E993E00E9427156E
:1005500088E090E00E9415028C016AE02AC00A300F
:10056000110509F10CF469C238C20132110509F410
:10057000F6C26CF40E31110509F4B7C20032110550
:1005800009F4BFC20431110509F01EC386C2083246
:100590001105C9F00233110509F404C30232110533
:1005A00009F012C3BBC287E090E00E9415028C01E3
:1005B0006D2D83E993E00E949022B80183E993E0D6
:1005C0000E94271501C387E090E00E9415028C016C
:1005D00089E090E00E9415025C0181E0E816F104D8
:1005E00009F0BBC061E0CE0101960E94F7248B8127
:1005F0009C81AD81BE818093AF029093B002A093A5
:10060000B102B093B2028F818093B302888599853D
:10061000AA85BB858093B4029093B502A093B602DD
:10062000B093B7028C859D85AE85BF858093B80257
:100630009093B902A093BA02B093BB0288899989BA
:10064000AA89BB898093BC029093BD02A093BE028D
:10065000B093BF028C899D89AE89BF898093C00207
:100660009093C102A093C202B093C302888D998D6A
:10067000AA8DBB8D8093C4029093C502A093C6023D
:10068000B093C7028C8D9D8DAE8DBF8D8093C802B7
:100690009093C902A093CA02B093CB0288A199A1FA
:1006A000AAA1BBA18093CC029093CD02A093CE02CD
:1006B000B093CF028CA19DA1AEA1BFA18093D00227
:1006C0009093D102A093D202B093D30288A599A5AA
:1006D000AAA5BBA58093D4029093D502A093D6027D
:1006E000B093D7028CA59DA5AEA5BFA58093D802D7
:1006F0009093D902A093DA02B093DB0288A999A95A
:10070000AAA9BBA98093DC029093DD02A093DE022C
:10071000B093DF028CA98093E0028DA98093E1025F
:10072000A501662757FD6095762F8DEA92E00E941D
:10073000FB26B801882777FD8095982F0E94093005
:100740006B017C01AB01BC018DEA92E00E94122793
:10075000B701A6018DEA92E0BFC082E0E816F1047D
:1007600009F032C262E0CE0101960E94F7248B812B
:100770009C81AD81BE818093E4029093E502A093B9
:10078000E602B093E7028F818093E802888599851D
:10079000AA85BB858093E9029093EA02A093EB02BD
:1007A000B093EC028C859D85AE85BF858093ED026C
:1007B0009093EE02A093EF02B093F002888999899A
:1007C000AA89BB898093F1029093F202A093F3026D
:1007D000B093F4028C899D89AE89BF898093F5021C
:1007E0009093F602A093F702B093F802888D998D4A
:1007F000AA8DBB8D8093F9029093FA02A093FB021D
:10080000B093FC028C8D9D8DAE8DBF8D8093FD02CB
:100810009093FE02A093FF02B093000388A199A1D8
:10082000AAA1BBA18093010390930203A0930303A9
:10083000B09304038CA19DA1AEA1BFA18093050339
:1008400090930603A0930703B093080388A599A586
:10085000AAA5BBA58093090390930A03A0930B0359
:10086000B0930C038CA59DA5AEA5BFA580930D03E9
:1008700090930E03A0930F03B0931003C8A8D9A8B8
:10088000EAA8FBA8C0921103D0921203E0921303CE
:10089000F09214038CA9809315038DA980931603FD
:1008A000A501662757FD6095762F82EE92E00E94A3
:1008B000FB26B801882777FD8095982F0E94093084
:1008C0006B017C01AB01BC0182EE92E00E94122719
:1008D000B701A60182EE92E00E946D2775C187E004
:1008E00090E00E94F901082F10E088E090E00E945B
:1008F00015027C018AE090E00E9415025C01013043
:100900001105B9F4B701882777FD8095982F0E94CB
:1009100009306B017C01B501882777FD8095982F00
:100920000E940930AB01BC01970186018FE592E07E
:100930001AC00230110509F047C1B701882777FDB9
:100940008095982F0E9409306B017C01B5018827A2
:1009500077FD8095982F0E940930AB01BC0197016B
:10096000860189E692E00E945B172EC187E090E045
:100970000E94F901482F88E090E04EAB0E94F901F7
:10098000E82E89E090E00E94F901182F8AE090E0BB
:100990000E94F901F82E8BE090E00E94F901082FE7
:1009A0004EA96D2D83E793E00E94B922EE2049F015
:1009B0006FEF6E0D2F2D412F83E793E00E943723B9
:1009C00007C0202F4F2D612F83E793E00E948823DB
:1009D00083E793E00E94B523F7C087E090E00E9490
:1009E000F9019701220F331FF901E65EFE4F8130B6
:1009F00011F4008101C0018110E088E090E00E94C4
:100A0000F901D82EC8010E945002FC01EE0FFF1F11
:100A1000E80FF91FE756FC4F20813181428129837D
:100A20003A834B8384EB8D1508F4CEC0B801CE0118
:100A300001960E94E60B6D2DAFC084E693E00E9404
:100A40003C22282F30E02E153F0529F06D2D84E63D
:100A500093E00E94191487E090E00E942902AB0104
:100A6000BC0184E693E00E943B14AEC080E693E0B4
:100A70000E943C22282F30E02E153F0529F06D2DD5
:100A800080E693E00E94902287E090E00E94F901C6
:100A900061E081111BC060E019C080E693E00E9414
:100AA0003C22282F30E02E153F0529F06D2D80E6E1
:100AB00093E00E94902287E090E00E94F901282FA5
:100AC00030E0223031053CF4682F617080E693E01D
:100AD0000E94642279C061E02230310509F460E0AF
:100AE00080E693E00E9474226FC061E00E94842A35
:100AF00087E090E00E94F901682F8D2D0E94BD2AA9
:100B000063C061E00E94842A87E090E00E94F901BE
:100B1000682F70E08D2D0E94FC2956C061E00E9474
:100B2000842A87E090E00E9415026C0189E090E041
:100B30000E9415021816190664F48C01222717FD6D
:100B40002095322FA601B70189EA92E00E94B214E3
:100B50003BC0B70189EA92E00E94191535C087E0D1
:100B600090E00E94F901182F853B70F5C7010E94A3
:100B70005002FC01EE0FFF1FE80FF91FE756FC4F74
:100B800020813181428129833A834B83B701CE0191
:100B900001960E94E60B612F70E0CE0101960E9443
:100BA0001F0C12C00E9442290E94073020E030E052
:100BB0004AE754E40E946E2F6093D5017093D601EA
:100BC0008093D7019093D801E6960FB6F894DEBFD4
:100BD0000FBECDBFDF91CF911F910F91FF90EF908E
:100BE000DF90CF90BF90AF900895CF93DF93C9E986
:100BF000D3E0CE010E944C0B239683E0C13BD80783
:100C0000C1F783E993E00E94241580E893E00E94F5
:100C1000092883E793E00E942C238EE693E00E944C
:100C20009B2884E693E00E94831280E693E00E9472
:100C300023228BE193E00E94481887E193E00E9411
:100C4000C2208DEA92E00E94E92482EE92E00E94A6
:100C5000E92489EA92E00E94AC1482EA92E00E94C0
:100C6000C01E8CE992E00E941E1886E992E00E9464
:100C7000331880E992E00E94952889E792E00E946B
:100C8000EC118FE592E00E94E91589E692E00E945E
:100C9000E91569E371E089E592E0DF91CF910C9469
:100CA000592E89E592E00E94EB2D83E793E00C94A6
:100CB000C923682F85E796E00C94C62B8FEF0E941E
:100CC000590685E50C9459068FEF0E94590685E573
:100CD0000E9459060C941102CF93C82F81E00E9404
:100CE00059068C2FCF910C945906EF92FF920F93D7
:100CF0001F93CF93DF937C01FC01C4810C2F1581DE
:100D000084E00E9459068C2F0E945906C0E0D0E072
:100D1000C017D10744F4BE01C7010E94A02E0E9453
:100D200059062196F5CFDF91CF911F910F91FF903A
:100D3000EF900895FF920F931F93CF93DF931F922D
:100D4000CDB7DEB78B01F82E82E099830E94590659
:100D5000A8016F2D9981792F4093750250937602E7
:100D60006093770270937802802F0E9459068091D9
:100D700076020E945906809177020E94590680915E
:100D800078020F90DF91CF911F910F91FF900C94FB
:100D90005906CF92DF92EF92FF926B017C0183E0C4
:100DA0000E945906C701B6010E94D62F862F262F12
:100DB000372F30937402209373020E94590680915A
:100DC0007402FF90EF90DF90CF900C945906CF9271
:100DD000DF92EF92FF920F931F93CF93DF93CDB7E4
:100DE000DEB727970FB6F894DEBF0FBECDBF7C01EC
:100DF00086E090E00E94F901D82E082F10E084E3ED
:100E0000E816F10408F070C2F701EC5CFF4F0C9497
:100E10009B338EE693E00E943C2290E0801791077E
:100E200029F06D2D8EE693E00E94902260E971E03A
:100E30008EE693E00E94E3281AC287E090E00E94C9
:100E4000F901F82E80E893E00E943C22282F30E040
:100E50002017310709F03AC280E893E00E943F2250
:100E60008F1134C280E893E00E94272800C280E6F8
:100E700093E00E943C2290E08017910761F06D2D75
:100E800080E693E00E94902280E693E00E94B622E2
:100E900060E00E94842A80E693E00E9488228EC14E
:100EA00087E090E00E94F901F82E87E193E00E942C
:100EB0003C22282F30E02017310729F06D2D87E1E3
:100EC00093E00E9490226F2D87E193E00E94C5205D
:100ED00075C180915E0390915F030097F1F04F968A
:100EE0000E943C2290E08017910731F100915E034F
:100EF00010915F030115110581F08DE991E0F80172
:100F000091838083C80182599F4F0E94EB2DC801B5
:100F10000E94D310C8010E94602D8BE790E00E94D0
:100F20005E2D8C016D2D0E94A31F10935F03009313
:100F30005E03C8010E94B81F80915E0390915F0319
:100F40000E94E31F682F8093EB018FEF860F8E3F87
:100F500008F47FC060E070E0CB0189C180E693E0D7
:100F60000E943C2290E08017910709F46CC06D2D1F
:100F700080E693E00E94902280E693E00E94B622F1
:100F800060E05FC080E693E00E943C2290E0801722
:100F9000910799F06D2D80E693E00E94902280E603
:100FA00093E00E94B32260E00E94842A80E693E0EE
:100FB0000E94B62260E00E94842A60E080E693E00E
:100FC0000E944222182F60E080E693E00E945322A4
:100FD000612F70E0660F771F680F711D882777FDFE
:100FE0008095982FF0C087E090E00E94F901C82E0C
:100FF000E82EF12C80E693E00E943C22282F30E07E
:101000002017310709F069C180E693E00E943F2272
:10101000282F30E02E153F0509F05FC180E693E0F0
:10102000EA94EF2859F40E94B32262E00E94842AD5
:1010300060E080E693E00E9442220AC00E94B6224D
:1010400062E00E94842A60E080E693E00E945322DE
:10105000682F70E080E090E00E94073008C187E0D0
:1010600090E00E94F901F82E82EA92E00E943C2270
:10107000282F30E02017310729F06D2D82EA92E009
:101080000E94902282EA92E00E94C31E6F2D82EAA3
:1010900092E00E949C1F17C18CE992E00E943C22C2
:1010A00090E080179107A9F06D2D8CE992E00E94E5
:1010B00090228CE992E00E94B322482F8CE992E0C2
:1010C0004F830E94B6224F81682F8CE992E00E94E4
:1010D00021188CE992E00E94311821C086E992E043
:1010E0000E943C2290E080179107A9F06D2D86E9BF
:1010F00092E00E94902286E992E00E94B322482F5B
:1011000086E992E04F830E94B6224F81682F86E9DC
:1011100092E00E94361886E992E00E944618BC01CF
:10112000882777FD8095982F0E94093063C087E05B
:1011300090E00E94F901082F10E08BE193E00E94FB
:10114000B8180130110529F48BE193E00E9455187D
:101150008EC00230110529F48BE193E00E945B18E8
:1011600086C00330110509F0BFC08BE193E00E94F7
:1011700061187DC069E572E0CE0101960E94862E5D
:10118000CE0101960E947506CE0101960E94EB2DBC
:10119000ABC060E08D2D0E94842A8D2D0E94F32A21
:1011A0000DC0F801EE0FFF1FE65FFE4F108160E0FB
:1011B000812F0E94842A812F0E94DF29BC01882769
:1011C00077FD8095982F0E94093051C087E090E00C
:1011D0000E9415028C0160E08D2D0E94842A9801E6
:1011E000442737FD4095542F61E08D2D0E941C2B24
:1011F0000E9407300E94C90677C087E090E00E94F5
:10120000F901182F61E08D2D0E94842A60E08D2D58
:101210000E94BD2A82E090E00E94992961E08D2D14
:101220000E94BD2A8AE090E00E94992960E08D2DFD
:101230000E94BD2A60E0812F0E94842A20E335E7C6
:1012400040E050E061E0812F0E941C2B0E9407309B
:1012500020E030E048E652E40E946E2F08C0609122
:10126000D1017091D2018091D3019091D4010E945B
:101270009A063AC080E992E00E943C2290E08017F2
:10128000910729F06D2D80E992E00E94902280E97B
:1012900092E00E94982817C089E792E00E943C22C1
:1012A00090E08017910729F06D2D89E792E00E9468
:1012B00090221091D00187E090E00E94F90191E026
:1012C000181390E0892F0E946C060EC04F2D6D2DD3
:1012D00080E893E00E941428C5CD4C2D6D2D80E64A
:1012E00093E00E94A0229ACE27960FB6F894DEBF14
:1012F0000FBECDBFDF91CF911F910F91FF90EF9067
:10130000DF90CF9008950F931F93CF93DF931092A8
:10131000EC0183E090E00E94F901082F84E090E066
:101320000E94F901182F85E090E00E94F901C82F72
:10133000D0E01230C1F088F4113009F058C00E949A
:101340005E06802F0E945906CE010E94E706DF91BB
:10135000CF911F910F910C941102143041F0153070
:1013600009F43FC044C0CE010E946D023AC069E05A
:1013700083E993E00E94902260E070E083E993E0CB
:101380000E9427156AE083E993E00E94902260E0C2
:1013900070E083E993E00E94271561E083E993E020
:1013A0000E94902260E070E083E993E00E9427159C
:1013B00062E083E993E00E94902260E070E083E9BC
:1013C00093E00E94271540E050E0BA018FE592E0DB
:1013D0000E94C61640E050E0BA0189E692E00E9401
:1013E000C616DF91CF911F910F910C946406DF9187
:1013F000CF911F910F9108951092580285E796E0C2
:101400000E94482B181619065CF481E0809358025C
:101410001092570285E796E00E94612B8093EA01C3
:10142000089589E792E00E94EE118093D0010E9416
:1014300042290E94073020E030E04AE754E40E944D
:101440006E2F2091D5013091D6014091D701509156
:10145000D8010E94A32E6093D1017093D201809392
:10146000D3019093D40180915E0390915F03009724
:1014700011F00E94E81F0E94FC098DEA92E00E9490
:10148000E72782EE92E00E94E727809158028823A6
:1014900009F445C06091EA018091EC01653561F481
:1014A00081110AC08091D9018F3FD9F481E08093E6
:1014B000EE018093EC0115C06093D901882389F077
:1014C0008091EE01823019F46093ED0107C0833002
:1014D00028F09091ED0191509093ED0190E00E94E1
:1014E00005028091EE018F5F843318F48093EE0142
:1014F00004C01092EE011092EC018091EC0188235F
:1015000071F08091ED0181110AC08091EE0184306B
:1015100030F01092EC010E9483091092EE010895C0
:101520001F920F920FB60F9211242F933F934F9358
:101530005F936F937F938F939F93AF93BF93EF933B
:10154000FF938091B20387FF05C01092850010922F
:1015500084001AC02091B203332727FD3095809173
:10156000B10390E0281739077CF48091B2039927E2
:1015700087FD9095FC01EE0FFF1FE80FF91FED545A
:10158000FC4F808186FD15C08091B2038F5F8093F0
:10159000B2032091B203332727FD30958091B10328
:1015A00090E028173907BCF48091B2038C305CF1CD
:1015B00012C08091B203992787FD9095FC01EE0F30
:1015C000FF1FE80FF91FED54FC4F808160E08F731F
:1015D0000E94BD2AD9CF8091840090918500049605
:1015E00080349C4918F480E49CE905C08091840013
:1015F00090918500049690938900809388008FEFE6
:101600008093B20338C0209184003091850080918E
:10161000B203992787FD9095FC01EE0FFF1FE80F9D
:10162000F91FED54FC4F81819281820F931F90939B
:101630008900809388008091B203992787FD909557
:10164000FC01EE0FFF1FE80FF91FED54FC4F8081E6
:1016500086FF11C08091B203992787FD9095FC0108
:10166000EE0FFF1FE80FF91FED54FC4F808161E082
:101670008F730E94BD2AFF91EF91BF91AF919F910F
:101680008F917F916F915F914F913F912F910F902B
:101690000FBE0F901F9018952091B1032C30A0F42D
:1016A00031E0320F3093B103FC012083822F90E0B0
:1016B000FC01EE0FFF1FE80FF91FED54FC4F88EB04
:1016C0009BE09283818308952FEFFC01208308958E
:1016D000DF92EF92FF920F931F93CF93DF93EC0172
:1016E000D62E7A01890188818C3008F066C061E0CD
:1016F0008D2D0E94842A8881A82FB0E0FD01EE0F75
:10170000FF1FEA0FFB1FED54FC4F2D2D2F7390810F
:10171000907C922B908360E272E06E197F0977FFD4
:1017200002C06D5F7F4F7595679575956795698365
:1017300040E659E0401B510B57FF02C04D5F5F4F21
:1017400055954795559547954A836CE00E942633F9
:101750009CE0899FB001112420E030E0A901460FF0
:10176000571FFA01EE0FFF1FE40FF51FED54FC4F5A
:10177000908196FD16C02F5F3F4F2C30310571F7D9
:1017800081110FC01092800082E08093810010923E
:10179000850010928400B19A80916F0082608093DE
:1017A0006F00888190E0FC01EE0FFF1FE80FF91F2A
:1017B000ED54FC4F8081806480838881DF91CF91DC
:1017C0001F910F91FF90EF90DF90089520E639E090
:1017D00040E252E00C94680BFC0180818C3070F583
:1017E000918128E830E0291B310997FD3395220FBC
:1017F000331F220F331F621773077CF0928128E595
:1018000032E0291B310997FD3395220F331F220F38
:10181000331F621773070CF49B0122503109220F0A
:10182000331F4FB7F89490E0FC01EE0FFF1FE80F55
:10183000F91FED54FC4F328321834FBF08954F921F
:101840005F926F927F92AF92BF92CF92DF92EF92B0
:10185000FF920F931F93CF93DF93EC01603282E0EE
:1018600078070CF040C077FD06C0653B71052CF091
:1018700064EB70E002C060E070E0898128E830E04D
:10188000281B310987FD3395220F331F220F331F89
:101890005901CC24B7FCC094DC2C882777FD8095B7
:1018A000982F2A8148E552E0421B510927FD5395A4
:1018B000440F551F440F551F2A01662457FC60949E
:1018C000762C7F926F925F924F9214EBE12EF12C67
:1018D00000E010E020E030E0A9010E94A42D0F906C
:1018E0000F900F900F90CE01DF91CF911F910F912C
:1018F000FF90EF90DF90CF90BF90AF907F906F9070
:101900005F904F900C94EC0B8091070490E0209135
:101910000804821B9109089520910804809107040E
:10192000281750F4E22FF0E0E75FFB4F808190E052
:101930002F5F2093080408958FEF9FEF0895E091A3
:10194000080480910704E81730F4F0E0E75FFB4FEC
:10195000808190E008958FEF9FEF08950895CF92D2
:10196000DF92EF92FF920F931F93CF93DF937C014F
:10197000CB018A012091E303222389F0EB016B0163
:10198000C40ED51ECC15DD0569F06991D701ED9126
:10199000FC910190F081E02DC7010995F3CF642FF0
:1019A0000E94100EC801DF91CF911F910F91FF90FF
:1019B000EF90DF90CF900895CF93DF931F92CDB734
:1019C000DEB769832091E3032223D1F02091E40361
:1019D000203240F021E030E0FC013383228380E0BC
:1019E00090E015C08091E503E82FF0E0EA51FC4F4C
:1019F000998190838F5F8093E5038093E40305C012
:101A000061E0CE0101960E94100E81E090E00F90FF
:101A1000DF91CF910895FC011382128248EE53E0CA
:101A200060E070E0448355836683778387E491E0C8
:101A300091838083089510920804109207041092F5
:101A4000E5031092E4030C945B0D862F413208F0FD
:101A500040E269E074E00E94790D109208048093DE
:101A60000704089521E00C94250D81E08093E303A1
:101A7000609306041092E5031092E40308950C9419
:101A8000350D0F93062F21E04091E40366EE73E0DD
:101A9000809106040E94BD0D1092E5031092E403AC
:101AA0001092E3030F91089561E00C94410D87EDCE
:101AB00093E00C940B0D1092960481E080939404B3
:101AC0001092930461E082E10E94BD2A61E083E10B
:101AD0000E94BD2AE9EBF0E080818E7F80838081C7
:101AE0008D7F808388E48093B80085E48093BC0078
:101AF0000895413208F03FC0909196049111FCCFB7
:101B000091E090939604209394042FEF209329045E
:101B100010926E04240F20936D049093950490917D
:101B20009504880F892B80939504809193048130CC
:101B300041F410929304809195048093BB0085EC4E
:101B400001C085EE8093BC00809196048130E1F362
:101B500080916E04841710F440916E042FE634E0F7
:101B6000FB01D9018A2F821B841718F48D91819370
:101B7000F9CF842F089580E008950F93413208F043
:101B800046C0909196049111FCCF92E090939604F8
:101B9000009394049FEF9093290410926E04409355
:101BA0006D04FB016FE674E0DB019A2F961B94171E
:101BB00018F491919D93F9CF10929504909195040A
:101BC000880F892B8093950480919304813041F490
:101BD00010929304809195048093BB0085EC01C022
:101BE00085EE8093BC00222321F080919604823000
:101BF000E1F3809129048F3F61F0809129048032C4
:101C000051F080912904803341F483E007C081E0E2
:101C100005C080E003C082E001C084E00F91089518
:101C2000613298F420919604243089F460934B0437
:101C3000FC018DE494E0DC012A2F281B261718F400
:101C400021912D93F9CF80E0089581E0089582E0FD
:101C5000089585ED8093BC008091BC0084FDFCCF8D
:101C600010929604089585EC8093BC00109296041F
:101C700008951F920F920FB60F9211242F933F9346
:101C80004F935F936F937F938F939F93AF93BF9384
:101C9000EF93FF938091B900887F803609F49CC050
:101CA00068F5883209F45BC090F4803109F454C0BF
:101CB00038F4882309F4F5C0883009F44DC0F5C024
:101CC000883109F44CC0803209F45DC0EEC0803424
:101CD00009F468C048F4803309F455C0883309F02A
:101CE000E4C080932904A8C0803509F44FC088352A
:101CF00009F45DC0883409F0D8C0D5C0883909F42A
:101D0000C6C0A8F4883709F467C038F4883609F4E7
:101D100063C0803709F460C0C8C0883809F4B7C010
:101D2000803909F45FC0803809F0BFC05BC0803BD8
:101D300009F485C038F4803A09F466C0883A09F499
:101D40007EC0B3C0803C09F4A6C0883C09F4A3C09F
:101D5000883B09F489C0A9C08091950410C0909176
:101D60006E0480916D04981770F5E0916E0481E027
:101D70008E0F80936E04F0E0E159FB4F80818093D9
:101D8000BB0085EC85C0809329048DC0E0916E0472
:101D900081E08E0F80936E048091BB00F0E0E159EA
:101DA000FB4F808390916E0480916D046DC0E09133
:101DB0006E0481E08E0F80936E048091BB00F0E092
:101DC000E159FB4F80838091940481116CC081E0C4
:101DD0008093930484EA60C083E080939604109219
:101DE0002A04CFCF80912A04803208F050C0E091BD
:101DF0002A0481E08E0F80932A048091BB00F0E0DA
:101E0000E55DFB4F8083BDCF80912A04803230F4A2
:101E1000E0912A04F0E0E55DFB4F10820E94290E5C
:101E200060912A0470E0E0918F04F09190048BE2BD
:101E300094E0099510922A040E94330E36C084E083
:101E40008093960410924C0410924B04E0919104FC
:101E5000F0919204099580914B04811105C081E0B5
:101E600080934B0410924D04E0914C0481E08E0F5E
:101E700080934C04F0E0E35BFB4F80818093BB00D8
:101E800090914C0480914B04981708F47ACF85E820
:101E90008093BC000AC085EC8093BC00109296042D
:101EA00004C0109229040E94290EFF91EF91BF9166
:101EB000AF919F918F917F916F915F914F913F91E2
:101EC0002F910F900FBE0F901F9018952091D9045D
:101ED0003091DA0428173907B9F49091970480916A
:101EE0009804981789F0E0919704F0E0E756FB4FCB
:101EF00080812091970430E02F5F3F4F2F7333276D
:101F00002093970490E008958FEF9FEF08951F931B
:101F1000CF93DF93DC015C968D919C915D97009748
:101F200049F481E090E013969C938E93129780E0A1
:101F300090E03BC05196ED91FC91529750962C91B8
:101F40005097322F30951FB75E964C915E9741FBAC
:101F5000772770F941FD6095F8944081772311F05F
:101F6000422B01C043234083EC012197F1F748E065
:101F7000508160FF02C0522B01C053235083EC01FB
:101F80002197F1F76695415099F78081772311F0F9
:101F9000832301C0822B80831FBF5C968D919C910F
:101FA0005D970197F1F781E090E0DF91CF911F916C
:101FB00008952091D9043091DA042817390781F463
:101FC0009091970480919804981751F0E0919704AC
:101FD000F0E0E756FB4F8081992787FD90950895A3
:101FE0008FEF9FEF08952091D9043091DA042817DC
:101FF000390771F4809198042091970490E0805CF7
:102000009F4F821B910960E470E00E94463308955F
:1020100080E090E008952091D9043091DA042817E7
:10202000390739F48FB7F8941092980410929704F6
:102030008FBF0895E091D904F091DA04E817F90709
:1020400069F4A389B4899C918589809589238C93AF
:102050001092DA041092D90481E0089580E0089586
:10206000CF93DF93EC018A8D9B8D892BF1F08091CA
:10207000D9049091DA048C179D07B9F0009711F0FC
:102080000E941A108E8D8E7F8E8F1092980410925F
:102090009704D093DA04C093D904EB89FC8980813A
:1020A0009D89892B808381E001C080E0DF91CF9101
:1020B00008951F920F920FB60F9211242F933F9302
:1020C0004F935F936F937F938F939F93AF93BF9340
:1020D000EF93FF93E091D904F091DA04309709F47B
:1020E00051C0868DA685B785958581FF04C08C91EA
:1020F000892329F447C08C91892309F043C0A3891F
:10210000B4899C918589809589238C938689978948
:102110000197F1F7208D318DA685B785758558E03B
:1021200040E0C9010197F1F7842F90E095958795DC
:10213000482F6C91672309F04068515091F7868DC4
:1021400081FD40958091980490E001968F739927C6
:1021500020919704281749F0A0919804B0E0A75661
:10216000BB4F4C938093980403C0868D8160868F0B
:10217000828D938D0197F1F7A389B4898C9195890C
:10218000892B8C93FF91EF91BF91AF919F918F918C
:102190007F916F915F914F913F912F910F900FBE63
:1021A0000F901F90189527E531E0FC0131832083C3
:1021B0000C941A101F93CF93DF93EC01162F6E8DA2
:1021C0006695617081E06827812F0E94BD2A61E0D9
:1021D000812F0E94842A812F90E0FC01EA54FE4F57
:1021E000E491E88BFC01E653FE4FE491F0E0EE0F42
:1021F000FF1FE851FE4F859194919A8B898BDF9157
:10220000CF911F9108951F93CF93DF93EC01162F69
:1022100060E0812F0E94842A8E8D81FD04C061E0E0
:10222000812F0E94BD2A1C87812F90E0FC01EA5477
:10223000FE4FE491ED87FC01E653FE4FE491F0E0A0
:10224000EE0FFF1FE252FE4F859194919F878E877C
:10225000DF91CF911F910895FF920F931F93CF931A
:10226000DF93EC01F62E522F1B821A8208EE13E048
:1022700020E030E00C831D832E833F8387E591E0CF
:10228000998388831F8A1E8A198E188E1B8E1A8E38
:102290001D8E1C8E8E8D8E7F50FB81F98E8F642F4C
:1022A000CE010E94DA106F2DCE01DF91CF911F91E8
:1022B0000F91FF900C940311CF93DF93EC019A01DF
:1022C000AB011B8E1A8E198E188E1F8A1E8A60E033
:1022D00079E08DE390E00E947C33C9012430310520
:1022E00020F0B9016350710902C061E070E07D8F98
:1022F0006C8FEC85E63108F068C0B901769567957A
:102300006431710518F06351710902C061E070E039
:102310007F8B6E8B069718F0C901059702C081E08C
:1023200090E0998F888FC901880F991F820F931FA2
:1023300096958795969587958D30910510F00C9719
:1023400002C081E090E09B8F8A8F20916800E83086
:1023500050F091E0EE3008F490E081E001C0880F89
:102360009A95EAF701C084E0822B809368002C855F
:10237000283038F02E3040F0263148F48CE690E0DA
:1023800008C08DE690E005C08BE690E002C080E0DA
:1023900090E09C8B8B8B283030F481E001C0880F5B
:1023A0002A95EAF70DC0822F90E02E3010F408979E
:1023B00001C00E9791E001C0990F8A95EAF7892F25
:1023C0008D8B8C8D9D8D0197F1F7CE01DF91CF9193
:1023D0000C9430100C941A100C942322CF92DF929C
:1023E000EF92FF920F931F93CF93DF93EC010C8931
:1023F0001D890E944229CC80DD80EE80FF809B01F8
:10240000AC012C193D094E095F0969017A0139E0D7
:10241000C316D104E104F104E8F16C837D838E835B
:102420009F83CE010E948822488559856A857B85D5
:10243000452B462B472B49F4AC01662757FD609589
:10244000762F488B598B6A8B7B8B488959896A898F
:102450007B89841B950B97FF03C09195819591090A
:10246000449764F44C855D856E857F854F5F5F4F33
:102470006F4F7F4F4C875D876E877F874885598573
:102480006A857B854F5F5F4F6F4F7F4F48875987C6
:102490006A877B8788859985AA85BB850597A1056D
:1024A000B105D1F4188619861A861B868C859D8500
:1024B000AE85BF850397A105B10540F0888999894C
:1024C000AA89BB898C019D8B8C8B02C00C891D89CC
:1024D0001C861D861E861F86C80164E670E00E9469
:1024E00046336830710528F4FB01ED59FE4F8081B9
:1024F00001C080E0DF91CF911F910F91FF90EF908D
:10250000DF90CF9008950C9423220F931F93CF93C5
:10251000DF93EC01062F18E060E088850E94BD2A59
:1025200000FF02C061E001C060E089850E94BD2A11
:10253000069561E088850E94BD2A115069F760E028
:1025400088850E94BD2A61E089850E94BD2A61E0DC
:1025500088850E94BD2A60E089850E94842A18EC43
:1025600089850E94F32A892B59F01150C9F761E03F
:1025700089850E94842A60E089850E94BD2AEFCF68
:1025800061E08985DF91CF911F910F910C94842A8E
:10259000CF93DF93EC0161E088850E94BD2A61E062
:1025A00089850E94BD2A60E089850E94BD2A60E07D
:1025B0008885DF91CF910C94BD2ACF93DF93EC01F6
:1025C00060E088850E94BD2A60E089850E94BD2A5E
:1025D00061E088850E94BD2A61E08985DF91CF9105
:1025E0000C94BD2ACF92DF92FF920F931F93CF934B
:1025F000DF931F92CDB7DEB76C01F62E79830E9470
:10260000C81260E4C6010E948512C6010E94DD1254
:10261000C6010E94C812F6016581C6010E9485129A
:102620000F2D7981172F84E0F82EF80161918F0129
:10263000C6010E948512FA94C1F7C6010E94DD12FC
:10264000C6010E94C812F6016681C6010E94851269
:10265000C6010F90DF91CF911F910F91FF90DF90F6
:10266000CF900C94DD124F925F926F927F928F9277
:102670009F92AF92BF92CF92DF92EF92FF920F9311
:102680001F93CF93DF9300D000D0CDB7DEB76A01A0
:102690007B01890137FD48C0B9016F5F7F4F8827F3
:1026A00077FD8095982F0E9409309B01AC0160E076
:1026B00070E080E291E40E94E4314B015C019B01F7
:1026C000AC01C701B6010E946E2F0E9444302B015D
:1026D0003C01B801882777FD8095982F0E9409302A
:1026E0009B01AC0160E070E080E291E40E94E43183
:1026F00069837A838B839C83A5019401C301B20112
:102700000E9481319B01AC01C701B6010E94A32E3A
:1027100029813A814B815C810E946E2F0E94443056
:102720000E94D62FCB011FC088249924821A930AB5
:10273000A12CB12C20E030E040E251E4C701B60109
:102740000E9481316B017C018FEFA81AB80AA8148E
:10275000B90484F3C701B6010E94D62FCB016AE009
:1027600070E00E9446330F900F900F900F90DF9112
:10277000CF911F910F91FF90EF90DF90CF90BF907E
:10278000AF909F908F907F906F905F904F90089543
:10279000DB0180E090E22C91223208F09C93EC91D6
:1027A000F0E0E058FE4FE491ED938F5F843099F7AD
:1027B0000895EF92FF920F931F93CF93DF9300D072
:1027C00000D0CDB7DEB78C01DB01FE013196CE0122
:1027D00005967F012D912193E817F907D9F7B701E5
:1027E000C8010E94C813B701C8010E94F2120F90DD
:1027F0000F900F900F90DF91CF911F910F91FF904D
:10280000EF900895CF93DF9300D000D0CDB7DEB71F
:1028100020E229832A832B832C83BE016F5F7F4FA5
:102820000E94D9130F900F900F900F90DF91CF91CE
:102830000895CF93DF93EC016A83E62FF0E0EE0F6B
:10284000FF1FE65EFE4F8181898390819883888790
:10285000998761E00E94842A61E089850E94842A28
:1028600080E48C8380EC8D838AE88E83CE01DF91B7
:10287000CF910C9402148F929F92AF92BF92CF92FD
:10288000DF92EF92FF920F931F93CF93DF9300D0CD
:1028900000D0CDB7DEB75C016A017B0119821A82D4
:1028A0001B821C8220E030E0A901C701B6010E9412
:1028B0006A2F87FF09C0F7FAF094F7F8F09481E2E5
:1028C00089839924939401C0912C03E010E0812C1A
:1028D0009801B701A601C5010E9433131816190605
:1028E0002CF0002319F08820B9F00CC001110AC0A7
:1028F000E1E0F0E0EC0FFD1FE90DF11D20E1280FF4
:10290000208307C0E1E0F0E0EC0FFD1FE90DF11DB1
:10291000808393948824839483E0891530F0015058
:1029200011090C3F8FEF180799F6BE016F5F7F4FBB
:10293000C5010E94D9130F900F900F900F90DF9157
:10294000CF911F910F91FF90EF90DF90CF90BF90AC
:10295000AF909F908F9008950E94232288E08093EB
:10296000DB0408954F925F926F927F928F929F92B5
:10297000AF92BF92CF92DF92EF92FF920F931F938D
:10298000CF93DF93762E680179016093DB049A017F
:1029900040E050E060E472E48FE090E00E947C331D
:1029A000E901590137FF03C08FEFA81AB80A850162
:1029B0001595079561E0872D0E94842AA8EEB3E063
:1029C000A70196010E94B0332B013C01C12CD12CF0
:1029D00076014E01AA2497FCA094BA2CC414D50405
:1029E000E604F704A8F461E08091DB040E94BD2AAC
:1029F000C8010E94992960E08091DB040E94BD2AF1
:102A0000C8010E949929C80CD91CEA1CFB1CE6CFFE
:102A1000DF91CF911F910F91FF90EF90DF90CF90BA
:102A2000BF90AF909F908F907F906F905F904F90EE
:102A30000895862F6093DB0461E00E94842A60E0A1
:102A40008091DB040C94BD2A60E00C942C220F933F
:102A50001F93CF93DF938C016F3F710519F014F032
:102A60006FEF70E0EB0161308FEF780714F4C1E095
:102A7000DFEFD7FD06C061E0C8010E947422BE01ED
:102A800008C060E0C8010E947422662777276C1B8B
:102A90007D0BC801DF91CF911F910F910C948C2277
:102AA0004F925F926F927F928F929F92AF92BF925E
:102AB000CF92DF92EF92FF920F931F93CF93DF930A
:102AC00000D000D0CDB7DEB7FC01C982DA82EB823C
:102AD000FC8295EA90832183C2828A8183838B81E1
:102AE00084838C81858346015701CF010696380186
:102AF000C12CD12C7601C814D904EA04FB0461F07E
:102B0000D3012D913D01DC012D93CD01BFEFCB1AF7
:102B1000DB0AEB0AFB0AEFCF2401350126E0420E67
:102B2000511C611C711CD801C12CD12C760180E094
:102B3000C814D904EA04FB0441F09D9189279FEF52
:102B4000C91AD90AE90AF90AF3CFDF01A40DB51DA4
:102B50008C9397018601085F1F4F2F4F3F4FA7E0CF
:102B6000CA0ED11CE11CF11CEC0DFD1D8AE5808311
:102B7000401751076207730728F460E070E080E0B7
:102B800090E002C0B801C9010F900F900F900F9014
:102B9000DF91CF911F910F91FF90EF90DF90CF9039
:102BA000BF90AF909F908F907F906F905F904F906D
:102BB00008951F93CF93DF93EC01162F60E00E94DE
:102BC0002C2211501C8389E08D83DF91CF911F91BE
:102BD0000895CF93DF93EC0160E00E942C221C82C9
:102BE00089E08D83DF91CF9108958CED94E00C9472
:102BF000011C8CED94E00C942A1CAF92BF92CF92F2
:102C0000DF92EF92FF920F931F93CF93DF93EC012C
:102C10006B017A0159016D8187ED93E00E94350DBA
:102C2000A501B60187ED93E00E94AF0C87ED93E01C
:102C30000E94540D82E090E00E9499296D8170E01D
:102C4000A80187ED93E00E94320D82E090E00E949F
:102C50009929C0E087ED93E00E94840C892B51F004
:102C600087ED93E00E948C0CF701EC0FF11D80833F
:102C7000CF5FF0CFDF91CF911F910F91FF90EF9039
:102C8000DF90CF90BF90AF9008956F927F928F9218
:102C90009F92AF92BF92CF92DF92EF92FF920F93EB
:102CA0001F93CF93DF93CDB7DEB768970FB6F89435
:102CB000DEBF0FBECDBF3C018AE04E012BE0820E8D
:102CC000911CF401282F11922A95E9F7FE01319603
:102CD0005F0111928A95E9F7F30184818F8B87E078
:102CE000888F82E0C82ED12CE12CF12C8E01095E58
:102CF0001F4F21E04AE050E060E070E0C4010E9414
:102D000050150AE010E02AE030E0A501B401C3014B
:102D10000E94FD152AE030E040E050E0B5018CED66
:102D200094E00E94631C1E8A1D8A22E030E040E08D
:102D300050E0BE016B5E7F4F8CED94E00E94761EEA
:102D400081E09E89911101C080E068960FB6F894E9
:102D5000DEBF0FBECDBFDF91CF911F910F91FF90CE
:102D6000EF90DF90CF90BF90AF909F908F907F902B
:102D70006F900895CF93DF93EC0187ED93E00E946D
:102D80001B0DCE01DF91CF910C9445166F927F926F
:102D90008F929F92AF92BF92CF92DF92EF92FF926B
:102DA0000F931F93CF93DF93CDB7DEB76E970FB618
:102DB000F894DEBF0FBECDBF3C016A017B0120E06D
:102DC00030E048E453E4C701B6010E9431311816DF
:102DD0008CF020E030E048E453ECC701B6010E94DB
:102DE0006A2F87FF0DC0C12CD12C58E4E52E53EC7F
:102DF000F52E06C0C12CD12C68E4E62E63E4F62E35
:102E0000CE0101964C018EE0F40111928A95E9F70A
:102E10005E01FFE0AF0EB11C8AE0F50111928A95C8
:102E2000E9F78E01075E1F4F86E0F80111928A953F
:102E3000E9F7F3018481898F85E08A8FCB8EDC8E60
:102E4000ED8EFE8E46E0C42ED12CE12CF12C21E03B
:102E50004EE050E060E070E0C4010E9450150AE0CE
:102E600010E02EE030E0A501B401C3010E94FD1581
:102E70002AE030E040E050E0B5018CED94E00E94A3
:102E8000631C8CED94E00E94071D80E06E960FB6E7
:102E9000F894DEBF0FBECDBFDF91CF911F910F9190
:102EA000FF90EF90DF90CF90BF90AF909F908F906A
:102EB0007F906F9008952F923F924F925F926F9202
:102EC0007F928F929F92AF92BF92CF92DF92EF92BA
:102ED000FF920F931F93CF93DF93CDB7DEB7A897E1
:102EE0000FB6F894DEBF0FBECDBF4C011A012B0107
:102EF0006801790120E030E048E453E4C701B601FD
:102F00000E94313118168CF020E030E048E453EC98
:102F1000C701B6010E946A2F87FF0DC0C12CD12CBA
:102F2000E8E4EE2EE3ECFE2E06C0C12CD12CF8E432
:102F3000EF2EF3E4FF2E20E030E0A901C201B10141
:102F40000E946A2F811106C0B701A601C4010E9428
:102F5000C6165BC0CE0101963C0182E1F3011192DD
:102F60008A95E9F78AE05E01FDE1AF0EB11CF5013B
:102F7000982F11929A95E9F78E010D5E1F4FF80177
:102F800011928A95E9F7F40184818B8B81E18C8B16
:102F90002D8A3E8A4F8A588EC98EDA8EEB8EFC8E31
:102FA0007AE0C72ED12CE12CF12C21E042E150E057
:102FB00060E070E0C3010E9450150AE010E022E1D9
:102FC00030E0A501B301C4010E94FD152AE030E004
:102FD00040E050E0B5018CED94E00E94631C8CED64
:102FE00094E00E94071D18A61FA222E030E040E0F6
:102FF00050E0BE01695D7F4F8CED94E00E94761E2B
:1030000081E098A5911101C080E0A8960FB6F894D0
:10301000DEBF0FBECDBFDF91CF911F910F91FF900B
:10302000EF90DF90CF90BF90AF909F908F907F9068
:103030006F905F904F903F902F90089560E00C94B8
:103040002C22CF93DF93EC016C834D838C8160E065
:103050000E94842A8D8188838C818983DF91CF911E
:1030600008950C94842260E00C942C22CF93DF937B
:10307000EC016C834D838C8160E00E94842A8D81F9
:1030800088838C818983DF91CF9108950C94842269
:10309000CF93DF93EC0160E00E942C22CE5BDF4FE8
:1030A00088E68883DF91CF910895FC01628573855E
:1030B000848595850895FC01668577858089918949
:1030C0000895FC0162897389848995890895EF9236
:1030D000FF920F931F93CF93DF93C62F8A01E22EA7
:1030E00068E687ED93E00E94350D6C2F87ED93E045
:1030F0000E94DC0C813001F560E087ED93E00E94D6
:10310000410D81112EC081E090E00E94992921E0BB
:103110004E2D68E687ED93E00E94250DE80100E062
:1031200010E0F12C87ED93E00E94840C892B31F0A4
:103130000E151F0574F002C08FEF13C081E090E000
:103140000E94992981E00E151F0509F480E0819500
:1031500008C00F5F1F4F87ED93E00E948C0C89938E
:10316000E1CFDF91CF911F910F91FF90EF900895E4
:103170004F925F926F927F928F929F92AF92BF9287
:10318000CF92DF92EF92FF920F931F93CF93DF9333
:10319000CDB7DEB72C970FB6F894DEBF0FBECDBF0C
:1031A0008C01AC014C5C5F4F2EE06BE30E94671812
:1031B0008111C8C1F801A4A8B12CBA2CAA2485A9F0
:1031C000A82AB3A2A2A2E6A8F12CFE2CEE2487A97D
:1031D000E82AF5A2E4A280AC912C982C882481AD39
:1031E000882A97A286A2468057806084718464AD45
:1031F00070E0762F662785AD682B882777FD809550
:10320000982F0E940930F80120A531A542A553A5A9
:103210000E94A32EA30192010E946E2FF801668BDB
:10322000778B808F918F66AD70E0762F662787ADA4
:10323000682B882777FD8095982F0E940930F80128
:1032400024A535A546A557A50E94A32EA30192014A
:103250000E946E2FF801628F738F848F958FE05CD0
:10326000FF4F608170E0762F662731968081682B52
:10327000882777FD8095982F0E940930F80120A9B2
:1032800031A942A953A90E94A32EA30192010E9431
:103290006E2FF801668F778F80A391A3B7018827DF
:1032A00077FD8095982F0E9409306B017C01B40155
:1032B000882777FD8095982F0E9409309B01AC01EB
:1032C0000E9481312B013C01A7019601C701B60183
:1032D0000E948131A30192010E94A42E0E943432E7
:1032E0009B01AC01B501882777FD8095982F298730
:1032F0003A874B875C870E9409304B015C01298526
:103300003A854B855C850E94172F20E030E044E32E
:1033100053E40E9481312AED3FE049E450E40E94E9
:103320006E2F69837A838B839C83A5019401C501E9
:10333000B4010E948131A30192010E94A42E0E9437
:1033400034329B01AC01C701B6010E94172F20E067
:1033500030E044E353E40E9481312AED3FE049E448
:1033600050E40E946E2F6D837E838F8398870E9426
:103370004229C090F705D090F805E090F905F0904B
:10338000FA056C197D098E099F090E94073020E01B
:1033900030E04AE754E40E946E2F6B017C010E94EA
:1033A00042296093F7057093F8058093F90590938F
:1033B000FA05F80186A197A11816190644F5228D81
:1033C000338D448D558DC701B6010E9481319B011B
:1033D000AC01F80162857385848595850E94A32ED2
:1033E000F801628773878487958726893789408D9E
:1033F000518DC701B6010E9481319B01AC01F801DA
:1034000066857785808991890E94A42E28C0F8015D
:10341000228D338D448D558DC701B6010E948131B7
:103420009B01AC01F80162857385848595850E94B6
:10343000A42EF80162877387848795872689378948
:10344000408D518DC701B6010E9481319B01AC01B5
:10345000F80166857785808991890E94A32EF801FD
:1034600066877787808B918BF801268D378D40A1F9
:1034700051A1C701B6010E9481319B01AC01F80145
:1034800062897389848995890E94A42EF801628BD0
:10349000738B848B958B20E030E040E05FE3C701C5
:1034A000B6010E94A42E9B01AC0160E070E080E0B8
:1034B0009FE30E946E2F6B017C019B01AC0160E0D9
:1034C00070E080E89FE30E94A32E4B015C01F801AD
:1034D0002285338544855585C701B6010E94813117
:1034E0002B013C01A501940169817A818B819C812A
:1034F0000E9481319B01AC01C301B2010E94A42E44
:10350000F801628773878487958726853785408988
:103510005189C701B6010E9481316B017C01A5016F
:1035200094016D817E818F8198850E9481319B01FC
:10353000AC01C701B6010E94A42EF8016687778707
:10354000808B918B2C960FB6F894DEBF0FBECDBF4B
:10355000DF91CF911F910F91FF90EF90DF90CF906F
:10356000BF90AF909F908F907F906F905F904F90A3
:1035700008952F923F924F925F926F927F928F9217
:103580009F92AF92BF92CF92DF92EF92FF920F93F2
:103590001F93CF93DF9300D000D0CDB7DEB71C01CF
:1035A00004EF11E0812C912C5401412C512C32015B
:1035B00019821A821B821C827C0124E3E20EF11C18
:1035C00026E0A70163E4C1010E946718F10184A904
:1035D00090E0982F882725A9822BAA2797FDA095F0
:1035E000BA2F29813A814B815C81280F391F4A1FEC
:1035F0005B1F29833A834B835C8386A990E0982FD5
:10360000882727A9822BAA2797FDA095BA2F480EB5
:10361000591E6A1E7B1E80AD90E0982F882721AD31
:10362000822BAA2797FDA095BA2F880E991EAA1E55
:10363000BB1E0150110921F664EFC62EDD24D39480
:10364000E12CF12C69817A818B819C81A701960103
:103650000E947C33CA01B9010E940930F10160A7C0
:1036600071A782A793A7C301B201A70196010E9487
:103670007C33CA01B9010E940930F10164A775A722
:1036800086A797A7C501B401A70196010E947C33C4
:10369000CA01B9010E940930F10160AB71AB82AB84
:1036A00093AB0F900F900F900F90DF91CF911F91E0
:1036B0000F91FF90EF90DF90CF90BF90AF909F90D1
:1036C0008F907F906F905F904F903F902F900895D4
:1036D000EF92FF921F93CF93DF931F92CDB7DEB788
:1036E000162F7A0168E670E087ED93E029830E9447
:1036F0003F0D612F87ED93E00E94DC0C2981813022
:1037000091F4422F50E0B70187ED93E00E94AF0C97
:1037100061E087ED93E00F90DF91CF911F91FF90D3
:10372000EF900C94410D8FEF0F90DF91CF911F918F
:10373000FF90EF900895CF93DF931F92CDB7DEB740
:10374000498321E0AE014F5F5F4F0E94681B0F90DD
:10375000DF91CF910895CF93DF93EC0140E050E0EB
:1037600063E872E44E835F83688779871A861B86D5
:103770001C861D861E861F86188A198A1A8A1B8A2D
:103780001C8A1D8A1E8A1F8A188E198E1A8E1B8EFD
:103790001C8E1D8E1E8E1F8E18A219A21BA21AA28D
:1037A0001DA21CA21FA21EA218A619A61AA61BA61D
:1037B0001CA61DA61EA61FA618AA19AA1AAA1BAAED
:1037C00087ED93E00E941B0D60E273E080E090E0E3
:1037D0000E94712940E06BE670E0CE010E949B1BC5
:1037E00041E06AE170E0CE010E949B1B48E06BE182
:1037F00070E0CE010E949B1BCE01DF91CF910C9413
:10380000B91A21E030E0FC0131832083EE5FFE4FE6
:1038100010821182128213823496108211821282D7
:103820001382349610823196108231961082118262
:10383000128213823496118210823296108231964F
:1038400010821182128213823496108211821282A7
:10385000138208950895CF92DF92EF92FF920F9313
:103860001F93CF93C62FFC01EE5FFE4F00811181A5
:1038700022813381B901A8014F5F5F4F6F4F7F4FA6
:10388000552766277727DC01AA5FBE4FCD90DD90D4
:10389000ED90FC904C155D056E057F0559F0DC013F
:1038A000A00FB11F1296CC93408351836283738320
:1038B00081E001C080E0CF911F910F91FF90EF90C8
:1038C000DF90CF900895AF92BF92CF92DF92EF92A8
:1038D000FF920F931F93CF93DF9300D000D0CDB70B
:1038E000DEB75C01FC01EE5FFE4FC080D180E2805C
:1038F000F3808FEFC80ED11CE11CF11C349680813F
:103900009181A281B381C81AD90AEA0AFB0ADD248F
:10391000EE24FF24C216D306E406F50628F08B0138
:10392000C12CD12C760102C080E019C0C216D3068A
:10393000E406F506A1F0F80161918F01C501298324
:103940003A834B835C830E942B1CFFEFCF1ADF0A64
:10395000EF0AFF0A5C814B813A812981E7CF0F9002
:103960000F900F900F90DF91CF911F910F91FF90CB
:10397000EF90DF90CF90BF90AF9008950F931F937B
:10398000CF93DF93DB01FC01EA5FFE4F4081518161
:1039900062817381EC01CE5FDE4F088119812A813B
:1039A0003B810417150726073707A9F0EC01C40F60
:1039B000D51F8A818C9380819181A281B3810196E8
:1039C000A11DB11D9927AA27BB2780839183A283BC
:1039D000B38381E001C080E0DF91CF911F910F910F
:1039E00008950F931F93FC0100E010E0980180E020
:1039F000041715072607370739F0919189270F5FBC
:103A00001F4F2F4F3F4FF4CF1F910F9108952F92CB
:103A10003F924F925F926F927F928F929F92AF925E
:103A2000BF92CF92DF92EF92FF920F931F93CF93AB
:103A3000DF9300D000D000D0CDB7DEB78C01198263
:103A40007C018DEEE81A8EEFF80A18019EEE291A15
:103A50009EEF390A4801A0EF8A1AAEEF9A0A580180
:103A6000B4EFAB1ABEEFBB0A6801E9EECE1AEEEF77
:103A7000DE0AC801855F9E4F9B838A83D801A65FBB
:103A8000BE4FBD83AC83BE016F5F7F4FC8010E94F4
:103A9000BE1CF801882309F40FC180819181833015
:103AA0009105F9F064F48130910591F0029759F78E
:103AB0008981EA81FB81808383E090E00EC08530BC
:103AC000910509F48FC07CF1069709F4C7C0DBCFDC
:103AD0008981853AC1F682E090E0D8018D939C936C
:103AE000D2CFF70180819181800F911FFC01E45FAB
:103AF000FE4F29812083F70180819181A281B381CA
:103B00000196A11DB11D80839183A283B383049785
:103B1000A105B10509F0B7CF10821182128213827C
:103B200084E090E05BC0D6014D905D906D907C90FC
:103B3000411451046104710459F5F50180819181AA
:103B4000A281B3818F3F9105A105B10539F030F015
:103B500081E090E0D8018D939C9364C001960E940F
:103B6000BB33D4018D939C93892B91F481E090E039
:103B7000F80191838083D6011D921D921D921C92A3
:103B80001397F7011082118212821382D50189C026
:103B90008981D401ED91FC91E40DF51D8083F6013E
:103BA00080819181A281B3810196A11DB11D808385
:103BB0009183A283B383F501408151816281738136
:103BC00084179507A607B70709F05DCFD6011D92A8
:103BD0001D921D921C92139785E090E0F80191834D
:103BE000808351CF2981D1012C93F40160807180B1
:103BF000D5014D915D916D917C91C3012E830E9401
:103C0000F11C2E81281721F181E090E0F8019183C9
:103C100080836114710431F0C3010E945334D401D4
:103C20001D921C92F6011082118212821382D7011A
:103C30001D921D921D921C921397F5011082118204
:103C400012821382AA81BB811C92F10110821BCFC8
:103C5000E6E0F0E0D801ED93FC9315CF89818A3539
:103C600089F0D4018D919C91009729F00E945334E2
:103C7000F40111821082D5011D921D921D921C9299
:103C8000139704C081E0EC81FD81808381E090E0A6
:103C9000D8018D939C93F6011082118212821382B7
:103CA000D7011D921D921D921C921397EA81FB81F0
:103CB0001082D1011C92E7CE808126960FB6F8942F
:103CC000DEBF0FBECDBFDF91CF911F910F91FF904F
:103CD000EF90DF90CF90BF90AF909F908F907F90AC
:103CE0006F905F904F903F902F900895BF92CF922A
:103CF000DF92EF92FF920F931F93CF93DF93EC012C
:103D0000CB018E01045F1E4FF801C080D180E2809C
:103D1000F380C216D306E406F50618F4BC2C5D2D1C
:103D200002C0B22E532F7E01F0EFEF1AFEEFFF0A12
:103D3000F7016081718161157105B9F00097A9F0F3
:103D40004B2D0E94AC35F701808191810E94533444
:103D5000F70111821082F8011082118212821382FF
:103D6000C65FDE4F18828B2D01C080E0DF91CF91BE
:103D70001F910F91FF90EF90DF90CF90BF9008952B
:103D800060E00C942C224F925F926F927F928F9200
:103D90009F92AF92BF92CF92DF92EF92FF920F93DA
:103DA0001F93CF93DF9300D000D01F92CDB7DEB723
:103DB0008C01CE0101966C0185E0F60111928A9585
:103DC000E9F760E0C8010E94742264E170E080E0DD
:103DD00090E00E94712961E0C8010E94742288E28B
:103DE00090E00E94992960E0C8010E9474220E941C
:103DF00042294B015C0160E0C8010E9453228111FD
:103E00000EC00E944229681979098A099B0963300A
:103E100071058105910578F3F801148215820E94DD
:103E200042294B015C0160E0C8010E9453228823B3
:103E300059F00E944229681979098A099B0963305F
:103E400071058105910578F3E12CF12C0E9442293E
:103E50004B015C0160E0C8010E94532281110BC03C
:103E60000E944229681979098A099B096330710502
:103E70008105910578F30E944E294B015C010E9457
:103E800042292B013C0160E0C8010E945322882393
:103E900059F00E944229641975098609970963300F
:103EA00071058105910578F30E944E2968197909F9
:103EB0008A099B09F70123E0F595E7952A95E1F733
:103EC000693271058105910530F0EC0DFD1D808191
:103ED000880F816004C0EC0DFD1D8081880F8083F8
:103EE000FFEFEF1AFF0A88E2E816F10409F0AECFFF
:103EF00059814B81842F90E0850F911D2D8130E0F9
:103F00008217930719F4F801548345830F900F909B
:103F10000F900F900F90DF91CF911F910F91FF9015
:103F2000EF90DF90CF90BF90AF909F908F907F9059
:103F30006F905F904F900895FC01611102C08481E1
:103F4000089585810895CF93DF93EC010E94D523D6
:103F50008FE691E09983888388A1FE01E858FF4F9E
:103F600080838F8DC758DF4F8883DF91CF9108956D
:103F7000CF93DF93EC0140E855E260E070E00E94EF
:103F8000122460E08F8DDF91CF910C94842A1F93CF
:103F9000CF93DF93EC018BA1882319F0CE010E940F
:103FA000402460E0CE014F960E944222182F8BA140
:103FB000882319F0CE010E94B81F81E08127DF918C
:103FC000CF911F91089586589F4FFC0180810895DD
:103FD000CF93DF93EC010E94C71F8823A1F0CE018D
:103FE0000E94AD24181619068CF4E881F981068028
:103FF000F781E02DCE0109958F3F91053CF4C6581D
:10400000DF4F888303C0C658DF4F1882DF91CF91FE
:1040100008950E949324992708951F920F920FB636
:104020000F9211240F931F932F933F934F935F93FE
:104030006F937F938F939F93AF93BF93CF93EF93A0
:10404000FF9382E00E94F32AC82F2091010630914D
:1040500002062F5F3F4F30930206209301068091A6
:104060006706843618F085E08093FC059091FC0586
:10407000933079F018F4923039F070C0943011F127
:10408000953009F44AC06AC0C11168C01092670631
:1040900029C0C13009F062C0E091670681E08E0F4F
:1040A00080936706F0E08091010690910206E5504A
:1040B000FA4F8087109202061092010684E08093E6
:1040C000FC054CC0C11114C0E091670681E08E0F61
:1040D00080936706F0E08091010690910206E5501A
:1040E000FA4F8087109202061092010683E0E7CF14
:1040F00080910106909102068536910578F185E060
:104100008093FC050E9442296093FD057093FE0593
:104110008093FF059093000621C00E9442290091E0
:10412000FD051091FE052091FF0530910006601BF2
:10413000710B820B930B693C71058105910540F071
:1041400010926706109202061092010682E0B7CF25
:10415000C11104C01092020610920106FF91EF9166
:10416000CF91BF91AF919F918F917F916F915F910F
:104170004F913F912F911F910F910F900FBE0F9074
:104180001F90189560E00C942C22613049F40E9435
:1041900084228A5E914020916A0630916B060AC0A3
:1041A000623059F40E9488228A5E9140209168060C
:1041B00030916906820F931F089580E090E0089582
:1041C000089570E0FB01EA54FE4FE491DC01EC93AA
:1041D000FB01E653FE4FE491F0E0EE0FFF1FE252C9
:1041E000FE4F25913491FC013283218308951F9362
:1041F000CF93DF93FC011081C181D2819981812FFE
:104200008095892389838A81812B8A838AE090E043
:104210000E9499299881912381E009F480E0DF913F
:10422000CF911F910895FF920F931F93CF93DF9328
:10423000FC011081C181D281F8948981F12EF09422
:104240008F2189838A81812B8A8378940DE701509D
:1042500041F182E090E00E94992988818123B9F39D
:10426000F8948A818F218A838981812B898378942C
:1042700080EE91E00E949929F89489818F218983A9
:104280008A81812B8A8386E490E00E949929888123
:10429000812301E009F000E078948AE991E00E942E
:1042A0009929802FDF91CF911F910F91FF90089551
:1042B0001F93CF93DF93FC011081C181D281912F95
:1042C000909560FF12C0F8948A8189238A8389813E
:1042D000812B89838AE090E00E9499298A81812B31
:1042E0008A83789487E390E011C0F8948A818923C7
:1042F0008A838981812B898381E490E00E949929B6
:104300008A81812B8A83789485E090E0DF91CF9138
:104310001F910C9499290F931F93CF93DF93FC0166
:104320001081C181D281F8948981812B89838A810E
:10433000012F009580238A8383E090E00E949929D1
:104340008981802389838A81812B8A838AE090E016
:104350000E949929C881789485E390E00E94992968
:104360001C2381E009F480E0DF91CF911F910F9130
:104370000895CF92DF92EF92FF920F931F93CF9306
:10438000DF931F92CDB7DEB76C01E62E08E010E098
:10439000FF24F39461E09F2D9E2109F460E0C601A3
:1043A00049830E945821FF0C0150110949810115D0
:1043B000110581F741111DC0F894D6011196ED91B8
:1043C000FC91129791818C9180958923818311961C
:1043D000ED91FC91129782819C91892B8283119699
:1043E000ED91FC91129792818C9180958923828323
:1043F00078940F90DF91CF911F910F91FF90EF90E4
:10440000DF90CF900895EF92FF920F931F93CF9379
:10441000DF938C01C8E0D0E0F12CEE24E394C801D6
:104420000E948B218111FE28EE0C2197C1F78F2D60
:10443000DF91CF911F910F91FF90EF90089540E091
:104440006CEC0C94B921FC0180911A01808380915D
:104450001B01818312820895DC01E62FF0E0EE0F4C
:10446000FF1FE65EFE4F80818C93818111968C93B5
:10447000119712966C930895FC0182810895FC01B6
:1044800083810895CF93DF93EC0188810E94842A71
:1044900088810E94F32A21E0892B09F420E0822FF1
:1044A000DF91CF910895CF93DF93EC0189810E9432
:1044B000842A89810E94F32A21E0892B09F420E0D3
:1044C000822FDF91CF9108951F93CF93DF93EC015B
:1044D000162F61E088810E94842A612F8881DF91F4
:1044E000CF911F910C94BD2A1F93CF93DF93EC01C2
:1044F000162F61E089810E94842A612F8981DF91D2
:10450000CF911F910C94BD2AFC0180810C94DF296E
:10451000FC0181810C94DF29FC0180810C94FC2931
:10452000DC01E62FF0E0EE0FFF1FE65EFE4F80811C
:104530008C93818111968C93119712966C930895A8
:10454000DC01E62FF0E0EE0FFF1FE65EFE4F8081FC
:104550008C93818111968C93119712966C9312977C
:1045600013964C930895FC0180810895FC0181818C
:104570000895DC0112966C931297E62FF0E0EE0F8F
:10458000FF1FE65EFE4F918111969C9311978081EB
:104590008C934230D9F4292F30E0F901EA54FE4FD0
:1045A000E4911C96EC931C97F901E653FE4FE491BD
:1045B000F0E0EE0FFF1FE851FE4F25913491199660
:1045C0003C932E93189761E0892F19C0282F30E073
:1045D000F901EA54FE4FE4911C96EC931C97F90103
:1045E000E653FE4FE491F0E0EE0FFF1FE851FE4F5F
:1045F0002591349119963C932E93189761E00C9471
:10460000842ACF93DF93EC01262F30E03D832C8367
:1046100023E0629FC00111240E94BB339F838E83DD
:10462000892B21F48BE791E00E94BC3580E090E07B
:104630004C815D819A01220F331F240F351F821791
:10464000930738F4EE81FF81E80FF91F108201967D
:10465000EFCFDF91CF910895CF93DF93EC010E94CC
:10466000232260E2CE01DF91CF910C9401230F93BE
:10467000FC01A62FB0E084819581A817B907B8F492
:10468000862F880F860F90E0A681B781A80FB91FEB
:104690002C93A681B781A80FB91F11964C93068061
:1046A000F781E02DE80FF91F028381E001C080E06F
:1046B0000F910895CF92DF92EF92FF920F931F9385
:1046C000CF93DF937C01142FD22EC02E611113C023
:1046D000C0E0D0E0F70184819581C817D90748F47C
:1046E0000C2D2D2D412F6C2FC7010E9437232196B1
:1046F000F1CF81E004C061500E94372380E0DF9158
:10470000CF911F910F91FF90EF90DF90CF90089580
:104710000F93022F242F462F60E00E945A230F91FF
:1047200008950F931F93D8013FB7F8949C91822F5F
:1047300080958923292BFB01460F571FE417F507A6
:1047400081F0919168E02C9300C097FF8C93990FB2
:1047500000C000C000C008F48C9300C06A9599F7AF
:10476000EDCF3FBF1F910F9108950F931F93FC0151
:104770000085118524813581A901440F551F420F01
:10478000531F6681778124850E9491231F910F9189
:104790000895CF93DF93EC018E819F810E94533463
:1047A0001F821E82DF91CF910895FF920F931F9376
:1047B000CF93DF93EC01F62E8C01015E1F4FC801F1
:1047C0000E942C22EF2DF0E0EE0FFF1FE65EFE4F61
:1047D00020E040816181CE010E942C118DE991E0A1
:1047E0009983888361EC71E0CE0182599F4F0E94CA
:1047F000592E1DA21BA21CA288A1FE01EA58FF4F40
:1048000080838F8D31968083C8010E943C2291E085
:10481000853009F090E09BA3DF91CF911F910F911C
:10482000FF900895CF92DF92EF92FF92CF93DF93A4
:10483000EC016A017B0160E472E48FE090E0A70183
:1048400096010E947C333FA32EA38BA1882369F09D
:1048500026E0B701A60185E796E0DF91CF91FF90B2
:10486000EF90DF90CF900C942B2CB701A601CE01D6
:10487000DF91CF91FF90EF90DF90CF900C945C117F
:10488000FC0123A1222321F085E796E00C948D2CD6
:104890000C94EA11CF92DF92EF92FF920F931F9345
:1048A000CF93DF93FC01C6A1D7A123976C01F6E754
:1048B000CF0ED11CF60180810E94F32A892BF1F4DE
:1048C00000E010E0E12CF12CCE010E949929F601C4
:1048D00080810E94F32A002E02C0880F991F0A943B
:1048E000E2F7E82AF92A0F5F1F4F0830110561F738
:1048F000CE010E949929C701992702C08FEF9FEF2F
:10490000DF91CF911F910F91FF90EF90DF90CF90AB
:104910000895FC0123A1222321F085E796E00C9461
:10492000C62B0C94870FFC0124A1222351F020A553
:1049300031A54FEF5FEF51A740A737FF0CC00C9494
:104940004A24FC0123A1222321F085E796E00C9460
:10495000612B0C94660FC9010895CF93DF93EC018E
:104960008CA1882371F0CE010E944A2488A799A7C0
:10497000892F8095881F8827881F90E0DF91CF912D
:1049800008958BA1882331F085E796E0DF91CF91E0
:104990000C94482BCE01DF91CF910C94F30FCF9361
:1049A000DF93EC018E81813011F460E001C061E0A1
:1049B0008A810E94BD2A61E08B810E94BD2A81E02C
:1049C00090E00E94992960E08B81DF91CF910C9457
:1049D000BD2ACF93DF93EC0160E002960E942C2267
:1049E0008DEA91E099838883DF91CF910895CF93E9
:1049F000DF93EC0102960E942C228DEA91E09983CC
:104A000088831F82188619861A861B861C861D8637
:104A10001E861F8A188E198E1A8E0E944E296F8F3D
:104A200078A389A39AA31F86188A198A1A8A81E013
:104A30008E831F82188619861A861B861C861D8601
:104A40001E861BA21CA21DA21EA21B8E1C8E1D8ECA
:104A50001E8E61E08A810E94842A61E08B81DF9151
:104A6000CF910C94842A0F931F93CF93DF93EC0183
:104A70004B8D5C8D6D8D7E8D452B462B472B11F418
:104A800080E035C00E944E290F8D18A129A13AA1BE
:104A9000601B710B820B930B0B8D1C8D2D8D3E8D2E
:104AA000061717072807390758F78E814F81588551
:104AB00069857A85813029F44F5F5F4F6F4F7F4F53
:104AC00004C041505109610971094F8358876987B2
:104AD0007A87E881F9810190F081E02DCE01099576
:104AE0000E944E296F8F78A389A39AA381E0DF915A
:104AF000CF911F910F9108952F923F924F925F9205
:104B00006F927F928F929F92AF92BF92CF92DF92DD
:104B1000EF92FF920F931F93CF93DF9300D000D0BB
:104B200000D0CDB7DEB79E838D83FC01C384D484CF
:104B3000E584F68487819085A185B285C81AD90A53
:104B4000EA0AFB0A67857089818992899B01AC0119
:104B50000E9481314B015C01ED81FE816789708D7E
:104B6000818D928D9B01AC010E94A42E9B01AC0112
:104B7000C501B4010E946E2F0E94D62FC114D1042A
:104B8000E104F104A9F462307105810591050CF08E
:104B900082C0ED81FE81138E148E158E168E1786BF
:104BA000108A118A128A13A214A215A216A20AC18F
:104BB000ED81FE8103A114A125A136A11C141D04C1
:104BC0001E041F040CF510161106120613064CF4F1
:104BD0006C157D058E059F056CF5268121115BC046
:104BE00029C0011511052105310509F454C06C15C2
:104BF0007D058E059F050CF04EC0ED81FE818681FE
:104C0000813009F048C03CC0101611061206130688
:104C10000CF50027112798010C191D092E093F09D1
:104C200060177107820793072CF4ED81FE812681BE
:104C3000213089F59B01AC0188279927DC01821B73
:104C4000930BA40BB50BED81FE8183A394A3A5A3C5
:104C5000B6A321C00115110521053105E1F0882415
:104C6000992454018C189D08AE08BF086815790571
:104C70008A059B0584F4ED81FE81868181110BC03C
:104C800030952095109501951F4F2F4F3F4F03A34F
:104C900014A325A336A3ED81FE8183A094A0A5A033
:104CA000B6A081149104A104B10499F487A190A540
:104CB000A1A5B2A583A794A7A5A7B6A781E01C14B8
:104CC0001D041E041F040CF080E0ED81FE8186832C
:104CD00042C0ED81FE81C3A4D4A4E5A4F6A4A7013B
:104CE0009601C701B6010E94A42E2B013C01C5010B
:104CF000B4010E94093020E030E040E850E40E9416
:104D0000813120E030E040E85FE30E94A42E9B0167
:104D1000AC01C301B2010E946E2F9B01AC01C7011F
:104D2000B6010E94A32E1B012C01ED81FE8167A418
:104D300070A801A912A99301A8010E943131181687
:104D400014F431018201A301B801ED81FE8143A772
:104D500054A765A776A7FFEF8F1A9F0AAF0ABF0A6D
:104D6000ED81FE8183A294A2A5A2B6A223A534A5BB
:104D700045A556A5CA01B90129833A834B835C83B3
:104D80000E94DB2FED81FE81638F748F858F968F5C
:104D900029813A814B815C8160E074E284E799E487
:104DA0000E946E2FED81FE816787708B818B928BC5
:104DB0002681211107C0DC01CB01B0588787908B79
:104DC000A18BB28B26960FB6F894DEBF0FBECDBF77
:104DD000DF91CF911F910F91FF90EF90DF90CF90D7
:104DE000BF90AF909F908F907F906F905F904F900B
:104DF0003F902F9008950F931F93FC010385148516
:104E000025853685041715072607370741F04387A0
:104E10005487658776871F910F910C947C251F918D
:104E20000F910895CF92DF92EF92FF92CF93DF938D
:104E3000EC016A017B019A01AB016B897C898D8948
:104E40009E890E946A2F882309F440C0CB8ADC8A9D
:104E5000ED8AFE8AA701960160E074E284E799E496
:104E60000E946E2F6FA778AB89AB9AAB8BA19CA1E8
:104E7000ADA1BEA1181619061A061B063CF56F85D2
:104E8000788989899A899B01AC010E9481316B01E3
:104E90007C016F89788D898D9A8D9B01AC010E9470
:104EA000A42E9B01AC01C701B6010E946E2F0E9487
:104EB000D62F6BA37CA38DA39EA3CE01DF91CF91B0
:104EC000FF90EF90DF90CF900C947C25DF91CF91F5
:104ED000FF90EF90DF90CF9008956F927F928F9226
:104EE0009F92AF92BF92CF92DF92EF92FF920F9379
:104EF0001F93CF93DF93EC013A018B012F85388903
:104F000049895A89B301C8010E946A2F882309F48C
:104F10004FC0CB88DC88ED88FE8846015701B7FA80
:104F2000B094B7F8B094A5019401B301C8010E94F0
:104F30006A2F87FD0BC0A7019601B301C8010E942B
:104F4000313118162CF43601870102C03401850175
:104F500020E030E0A901B301C8010E946A2F81114D
:104F600005C01B8E1C8E1D8E1E8E1CC09301A801B9
:104F700060E074E284E799E40E946E2F9F770E94BC
:104F8000DB2F6B8F7C8F8D8F9E8FFF24F39420E01F
:104F900030E0A901B301C8010E94313118160CF0AC
:104FA000F12CFE82C301D8018F87988BA98BBA8B15
:104FB000DF91CF911F910F91FF90EF90DF90CF90F5
:104FC000BF90AF909F908F907F906F9008950F93B8
:104FD0001F93FC01038514852585368547815085FF
:104FE00061857285041715072607370771F040178A
:104FF0005107620773071CF421E0268302C0FC01FD
:1050000016821F910F910C94332580E01F910F9110
:105010000895CF93DF93EC010E942322CE010496E2
:10502000DF91CF910C94E0201F93CF93DF93EC019D
:10503000142F0E94A022123011F4698101C06881EE
:10504000CE010496DF91CF911F910C94E120CF9275
:10505000DF92EF92FF920F931F93CF93DF93CDB721
:10506000DEB72C970FB6F894DEBF0FBECDBF8C0114
:105070000C5F1F4FC8010E941321C8010E941F220C
:1050800040E064E4C8010E94B9210E9442296B01FA
:105090007C01C8010E94F72081110BC00E944229A7
:1050A0006C197D098E099F096E3E7240810591053C
:1050B00080F3C8010E941321C8010E941F2240E012
:1050C0006EEBC8010E94B921CE0101967C016E01F0
:1050D00096E0C90ED11CC8010E940322F7018193FA
:1050E0007F01EC15FD05B9F76A8170E0762F662720
:1050F0008981682B882777FD8095982F0E94093039
:1051000020E030E040E85DE30E9481312C960FB64C
:10511000F894DEBF0FBECDBFDF91CF911F910F91ED
:10512000FF90EF90DF90CF90089560E00C942C22D8
:1051300060E00C94532260E00C942C22CF92DF921A
:10514000EF92FF92CF93DF9300D000D0CDB7DEB7C0
:105150007C019A01AB0160E029833A834B835C8335
:105160000E94742282E090E00E94992961E0C701C8
:105170000E9474228AE090E00E94992960E0C701B1
:105180000E94742260E0F70181810E94842A2981B3
:105190003A814B815C8161E0F70181810E941C2B87
:1051A0006B017C0184E690E00E949929C701B60159
:1051B0000F900F900F900F90DF91CF91FF90EF9095
:1051C000DF90CF90089527E3269FA001279F500DE1
:1051D000112448535F4F60E070E00E949E280E94B7
:1051E000093020E030E048E652E40E946E2F089536
:1051F0001F920F920FB60F9211242F933F938F930C
:105200009F93AF93BF9380916D0690916E06A0918E
:105210006F06B091700630916C0623E0230F2D3796
:1052200020F40196A11DB11D05C026E8230F0296AA
:10523000A11DB11D20936C0680936D0690936E06A0
:10524000A0936F06B09370068091710690917206DC
:10525000A0917306B09174060196A11DB11D8093B3
:10526000710690937206A0937306B0937406BF9173
:10527000AF919F918F913F912F910F900FBE0F9003
:105280001F9018952FB7F89460916D0670916E0677
:1052900080916F06909170062FBF08953FB7F894E4
:1052A0008091710690917206A0917306B091740678
:1052B00026B5A89B05C02F3F19F00196A11DB11D71
:1052C0003FBF6627782F892F9A2F620F711D811D8E
:1052D000911D42E0660F771F881F991F4A95D1F7ED
:1052E0000895CF92DF92EF92FF92CF93DF936B01FD
:1052F0007C010E944E29EB01C114D104E104F104A8
:1053000089F00E94A22E0E944E296C1B7D0B683EE4
:10531000734090F381E0C81AD108E108F108C85140
:10532000DC4FEACFDF91CF91FF90EF90DF90CF90ED
:1053300008958230910538F0880F991F880F991FC2
:1053400005970197F1F70895789484B5826084BD3C
:1053500084B5816084BD85B5826085BD85B5816079
:1053600085BDEEE6F0E0808181608083E1E8F0E0D9
:105370001082808182608083808181608083E0E808
:10538000F0E0808181608083E1EBF0E080818460E7
:105390008083E0EBF0E0808181608083EAE7F0E0E9
:1053A000808184608083808182608083808181604D
:1053B00080838081806880831092C10008958E3040
:1053C00008F08E5087702091380190E4299F900159
:1053D0001124822B80937C0080917A0080648093DA
:1053E0007A0080917A0086FDFCCF80917800209130
:1053F000790090E0922B08951F93CF93DF93182F9D
:10540000EB0161E00E94842A209711F460E004C05F
:10541000CF3FD10539F461E0812FDF91CF911F910A
:105420000C94BD2AE12FF0E0EE55FE4FE491E330FD
:10543000F9F048F4E130B9F0E230A1F584B58062CA
:1054400084BDC8BD34C0E730E9F0E83019F1E4307C
:1054500049F580918000806280938000D0938B001A
:10546000C0938A0024C084B5806884BDC7BD1FC0B6
:1054700080918000806880938000D0938900C093E1
:10548000880015C08091B00080688093B000C09300
:10549000B3000DC08091B00080628093B000C093D3
:1054A000B40005C0C038D1050CF0B5CFAFCFDF9147
:1054B000CF911F910895833081F028F4813099F0C5
:1054C0008230A1F008958730A9F08830B9F0843097
:1054D000D1F4809180008F7D03C0809180008F7710
:1054E00080938000089584B58F7702C084B58F7D46
:1054F00084BD08958091B0008F7703C08091B00083
:105500008F7D8093B0000895CF93DF9390E0FC01EE
:10551000EA54FE4F2491FC01E653FE4F8491882308
:1055200049F190E0880F991FFC01EE50FE4FA591C4
:10553000B49188519E4FFC01C591D4919FB76111E0
:1055400008C0F8948C91209582238C9388818223C3
:105550000AC0623051F4F8948C91322F3095832335
:105560008C938881822B888304C0F8948C91822B41
:105570008C939FBFDF91CF9108950F931F93CF938B
:10558000DF931F92CDB7DEB7282F30E0F901EE553B
:10559000FE4F8491F901EA54FE4F1491F901E6534C
:1055A000FE4F04910023C9F0882321F069830E94F3
:1055B0005B2A6981E02FF0E0EE0FFF1FE851FE4FFC
:1055C000A591B4919FB7F8948C91611103C0109587
:1055D000812301C0812B8C939FBF0F90DF91CF91CE
:1055E0001F910F910895CF93DF93282F30E0F90199
:1055F000EE55FE4F8491F901EA54FE4FD491F90122
:10560000E653FE4FC491CC2391F081110E945B2A96
:10561000EC2FF0E0EE0FFF1FE252FE4FA591B49188
:105620002C912D2381E090E021F480E002C080E005
:1056300090E0DF91CF9108950F931F93762F90E024
:10564000FC01EA54FE4F6491FC01E653FE4FE491E5
:105650007111762FF0E0EE0FFF1FE252FE4F8591A1
:10566000949189019A013F70472F0E942E01611584
:1056700071058105910531F06F5F7F4F8F4F9F4F0F
:105680009F7003C060E070E0CB011F910F910895FF
:10569000FC01818D228D90E0805C9F4F821B9109DF
:1056A0008F7399270895FC01918D828D981731F0A1
:1056B000828DE80FF11D858D90E008958FEF9FEFAB
:1056C0000895FC01918D828D981761F0828DDF0124
:1056D000A80FB11D5D968C91928D9F5F9F73928FE5
:1056E00090E008958FEF9FEF089581E09DE2892B70
:1056F00049F080E090E0892B29F00E94012D811172
:105700000C9400000895FC01848DDF01A80FB11DE9
:10571000A35ABF4F2C91848D90E001968F739927E7
:10572000848FA689B7892C93A089B1898C918064D4
:105730008C93938D848D981306C00288F389E02D95
:1057400080818F7D80830895CF93DF93EC01888DD6
:105750008823C9F0EA89FB89808185FD05C0A88975
:10576000B9898C9186FD0FC00FB607FCF5CF8081FB
:1057700085FFF2CFA889B9898C9185FFEDCFCE0145
:105780000E94832BE7CFDF91CF910895CF92DF92D4
:10579000FF920F931F93CF93DF931F92CDB7DEB786
:1057A0006C0181E0D60158968C9358975B969C913A
:1057B0005B975C968C915C97981307C05096ED911F
:1057C000FC915197808185FD2EC0F601038D10E07C
:1057D0000F5F1F4F0F731127F02EF601848DF81203
:1057E00011C00FB607FCF9CFD6015096ED91FC9190
:1057F0005197808185FFF1CFC60169830E94832B79
:105800006981EBCF838DE80FF11DE35AFF4F608371
:10581000D6015B960C935B975296ED91FC91539752
:10582000808180620CC0D6015696ED91FC9157970D
:1058300060835096ED91FC915197808180648083C4
:1058400081E090E00F90DF91CF911F910F91FF9039
:10585000DF90CF900895BF92CF92DF92EF92FF92A8
:10586000CF93DF93EC016A017B01B22EE889F989BD
:1058700082E08083411581EE580761057105A1F032
:1058800060E079E08DE390E0A70196010E945A3331
:10589000215031094109510956954795379527956A
:1058A000211580E1380798F0E889F989108260E8CD
:1058B00074E88EE190E0A70196010E945A332150CE
:1058C0003109410951095695479537952795EC853A
:1058D000FD853083EE85FF852083188EEC89FD8958
:1058E000B082EA89FB89808180618083EA89FB89B3
:1058F000808188608083EA89FB89808180688083D9
:10590000EA89FB8980818F7D8083DF91CF91FF9031
:10591000EF90DF90CF90BF900895FC01938D848D20
:105920009813FCCFA289B3898C918F7E8C93A28926
:10593000B3898C91877F8C93A289B3898C918F775F
:105940008C93A289B3898C918F7D8C93828D818F6A
:1059500008951F920F920FB60F9211242F938F93D9
:105960009F93EF93FF93E0918506F09186068081E7
:10597000E0918B06F0918C0682FD12C0908180919F
:105980008E068F5F8F7320918F06821751F0E09102
:105990008E06F0E0EB58F94F958F80938E0601C08C
:1059A0008081FF91EF919F918F912F910F900FBE6A
:1059B0000F901F9018951F920F920FB60F921124FF
:1059C0002F933F934F935F936F937F938F939F9307
:1059D000AF93BF93EF93FF9385E796E00E94832BED
:1059E000FF91EF91BF91AF919F918F917F916F91B7
:1059F0005F914F913F912F910F900FBE0F901F908D
:105A0000189585E796E00E94482B21E0892B09F440
:105A100020E0822F0895109278061092770688EE83
:105A200093E0A0E0B0E08093790690937A06A0938B
:105A30007B06B0937C0683EB91E09093760680938F
:105A4000750685EC90E0909382068093810684EC45
:105A500090E0909384068093830680EC90E090938E
:105A600086068093850681EC90E09093880680936B
:105A7000870682EC90E090938A068093890686ECF4
:105A800090E090938C0680938B0610928E06109275
:105A90008F061092900610929106089508950E9424
:105AA000A4290E944E2D0E947301C5E7DBE20E94EB
:105AB000110A2097E1F30E94752BF9CF0C94BB33A8
:105AC0000C945334CF92DF92EF92FF920F931F9377
:105AD000CF93DF936C017A01EB01E60EF71E00E035
