:1000000015C300000C9473210C9448210C941D21FD
:100010000C94F2200C94C7200C949C200C9471201A
:100020000C9446200C949E210C949E210C949E21AD
:100030002EC300000C9408352AC3000028C300001A
:1000400026C300000C94F52422C3000020C3000046
:100050001EC300001CC300001AC300000C94FC1F48
:1000600016C300000C94EE3B0C94C53B10C300007B
:100070000EC300000CC300000AC3000008C3000048
:100080000C94C82404C3000002C3000000C3000095
:10009000FEC20000FCC20000FAC200000C94322232
:1000A000F6C20000F4C200000C949B24F0C20000D1
:1000B000EEC20000ECC20000EAC200000C946E2404
:1000C000E6C20000E4C20000E2C200000C949C3BC7
:1000D0000C94733BDCC200000C944A3B0C94213B13
:1000E000D6C2000069079903C20371047104D504E4
:1000F0005D0771041C091C091C091C091C091C0949
:100100001C094E05000567051C091C091C09910501
:100110001E084A0619073A07B60584041C091C097B
:10012000A507AD071C091C091C091C09D107C0073C
:100130001C091C091C091C091C091C091C091C0997
:100140001C091C091C091C09070810081C091C09AA
:100150001C091C091C091C091C091C096C08310814
:100160001C097B084D1B541B311B381B3F1B461BB6
:100170005B1B621BA43AA73A963A9A3AA03ADE3A37
:10018000AB3AAF3AB53AB93ABD3AC33AC73ACB3AC5
:10019000DE3AD13AD53AD93AF33CF83CFD3C073D3A
:1001A000113D8A3D1B3D233D2B3D353D3F3D493DA6
:1001B000583D623D8A3D6C3D763D803D084AD73BC7
:1001C0003BCE016E84BCBFFDC12F3D6C74319ABD26
:1001D00056833DDA3D00C77F11BED9E4BB4C3E914A
:1001E0006BAAAABE000000803F08000000BE922457
:1001F00049123EABAAAA2ABECDCCCC4C3E00000090
:1002000080BEABAAAAAA3E00000000BF000000808A
:100210003F0000000000084178D3BB4387D1133D65
:10022000190E3CC3BD4282AD2B3E68EC8276BED92E
:100230008FE1A93E4C80EFFFBE01C4FF7F3F00006D
:1002400000000007634236B79BD8A71A39685618D2
:10025000AEBAAB558C1D3CB7CC5763BD6DEDFD758B
:100260003EF6177231BF000000803F002000000002
:1002700000000030007C82827C00310042FE0200DF
:10028000003200468A92620033004492926C00343D
:10029000001C64FE04003500F292928C0036007C53
:1002A00092924C003700C08E90E00038006C929221
:1002B0006C0039006492927C006100042A2A1E00BE
:1002C0006200FE12120C0063000C12121200640095
:1002D0000C1212FE0065001C2A2A18006600103E4F
:1002E00050500067000815151E006800FE101E0023
:1002F000006900002E0000006A0002012E00006B61
:1003000000FE081412006C0000FE0200006D001ECA
:10031000100E100E6E001E10100E006F000C121248
:100320000C0070001F12120C0071000C12121F0042
:1003300072001E08101000730012292512007400AC
:10034000103E12000075001C02021E007618040206
:100350000418007718061C0618007800120C0C12FE
:100360000079001805051E007A0012161A120041C5
:10037000007E88887E004200FE92926C0043007CE2
:10038000828244004400FE82827C004500FE9292FC
:1003900082004600FE9090800047007C82925C00C4
:1003A0004800FE1010FE00490082FE8200004A0054
:1003B0000C0202FC004B00FE1028C6004C00FE029E
:1003C0000202004D00FE403040FE4E00FE4030086C
:1003D000FE4F007C8282827C5000FE909060005133
:1003E000007C828A847A5200FE98946200530064F2
:1003F00092924C00540080FE8080005500FC020266
:10040000FC005600F00C020CF05700FE043804FE0D
:100410005800C63838C60059C0201E20C0005A00F7
:10042000869AB2C2002C00010E0C00002E000006BD
:10043000060000257254781E2A4E2100007A000022
:10044000003F00204A3000002D0010101010002B3B
:1004500008083E0808002F00020C3040002A221431
:10046000081422003A0000140000002200C000C05E
:1004700000002328FE28FE28002800007C820000BF
:10048000290000827C00003B0002240000007E0066
:1004900040804080003B0002240000003D002828EE
:1004A0002828007C0000FE0000003E008244281046
:1004B000003C001028448200400000000000007C46
:1004C000447C007C005C547454547C70107C7454E4
:1004D0005C7C545C40407C7C547C74547C00040004
:1004E000202020000000000020002300260029001A
:1004F0002C002F0032000001000003010601090159
:1005000000002200250028002B002E0031003400BE
:1005100002010000050108010B010505050507059D
:1005200008080808020202020A0A0808040404046F
:10053000010101010101010103030303030303039B
:10054000040707070C0C0C0C0C0C0C0C020202022A
:1005500006060606060606060B0B0B0B0B0B0B0B13
:1005600001021020200808102040102040800201C5
:1005700002010804020101020408102040808040AA
:1005800020100804020180040201804020100804A9
:100590000201080402010102040810204080010247
:1005A0000408102040803F065B4F666D7D077F6F1B
:1005B000777C395E7971BF86DBCFE6EDFD87FFEF93
:1005C000F7FCB9DEF9F1004000002100240027000B
:1005D0002A002D0030003300010100000401070152
:1005E0000A0100000A0B02090C0D0E0807030401A2
:1005F00000000000000000000000000000000000FB
:1006000000000000000000000000000000001211C7
:1006100010000000000000000000000000000000CA
:1006200000000000000000003E53345311241FBEA0
:10063000CFEFD1E2DEBFCDBF00E00CBF13E0A0E002
:10064000B2E0EAECFAEB00E00BBF02C007900D92BB
:10065000A238B107D9F72DE0A2E8B3E001C01D929E
:10066000AB32B207E1F713E0C5E1D3E000E006C02A
:1006700021970109802FFE010E94B655C431D10790
:1006800080E00807A9F70E94CE460C94545DB8CCD0
:100690002F923F924F925F926F927F928F929F9292
:1006A000AF92BF92CF92DF92EF92FF920F931F9380
:1006B000CF93DF93CDB7DEB7C254D1090FB6F8940C
:1006C000DEBF0FBECDBF10924404F0901004109115
:1006D000110400911204F092C603123009F4B2C55D
:1006E00020F4113061F00C948715143011F40C943F
:1006F0008513153011F40C9407150C9487150130EF
:1007000049F0073139F0043229F00E94E1458F2D7C
:100710000E94DC4510911304402F50E040345105F5
:1007200008F08AC5FA018827EE58FF4F8F4F0C94C6
:10073000B6558091C8039091C903009731F0FC0130
:100740002281211771F00E94B3598EE090E00E943F
:100750001E597C01612F0E94ED33F092C903E09293
:10076000C8038091C8039091C9030E949D426B0108
:100770007C010E94E1458091C6030E94DC45C701CF
:10078000B601AEC4809114049091500B911304C033
:100790009091510B981751F1E12FF0E0EE0FFF1FF0
:1007A000EB51FD4F908190934E0BE181E0934F0B05
:1007B0001093500B8093510B823009F0E92F8E2F4C
:1007C00090E0FC01E05AFA4FE491E093520BFC01F7
:1007D000E65EFA4FE491F0E0EE0FFF1FEA51FB4FA7
:1007E000859194919093540B8093530B0E94604297
:1007F0008CEC0E94F44184E40E94F4410E94F01FBA
:100800006B017C0103E210E08091520BE091530BED
:10081000F091540B9181282F2095922391839281FE
:10082000982B9283D8011197F1F79081892311F4C5
:100830000C940A150E9460428CEC0E94F4418EEBED
:100840000E94F441DE01119667E070E003E210E0DF
:100850005FECE52EF12CE5E0BE2EBA0E48E050E04C
:1008600031E020E0A090520BE091530BF091540B3B
:10087000F89491819A299183D2809A2C9094D920CE
:10088000D282CB010197F1F7D180992D9D219183DF
:1008900092819A299283C8010197F1F79081789407
:1008A000F7013197F1F78A2D892309F0232B330FB4
:1008B00041505109B9F62D93BA12D0CF6A8170E038
:1008C000762F66278981682B072E000C880B990BE1
:1008D0000E94CE5B20E030E040E85DE30E942D5CAA
:1008E000FFC38091350B811751F0612F83E39BE0AB
:1008F0000E94A43360E08091340B0E94903C83E31B
:100900009BE00E94B43337C38091350B811751F0BF
:10091000612F83E39BE00E94A43360E08091340B5D
:100920000E94903C83E39BE00E94B433BC01990F8A
:10093000880B990B0E94CE5B9B01AC0160E070ECD0
:100940008FE794E40E948B5620E030E040E85FE3BC
:100950000E94C4559B01AC0160E070E48CE196E418
:100960000E948B5620E030E44CE156E40E948B5606
:100970000E94AC5720E030E443E555E40E948B56DA
:100980002FE03FEC4BE55BE30E94C5559B01AC01BA
:1009900060E070E080E89FE30E948B5623E333E938
:1009A00048E853E40E94C4559BC30091140480910D
:1009B000530A811729F0612F81E59AE00E94A43340
:1009C000013059F481E59AE00E94C03320918203FE
:1009D000309183038A5E91400CC0023071F481E54E
:1009E0009AE00E94B4338A5E914020918403309152
:1009F0008503BC01620F731F8DC060E070E08AC088
:100A0000E0904804F0904904E114F104C9F0F701C2
:100A100081A1811791F189ED92E091838083E25960
:100A2000FF4F808191810E94B35989EC92E0F701D8
:100A300091838083C7010E941C22C7010E94B35981
:100A40008BE790E00E941E597C01612F0E94FD33CC
:100A50008DE492E0F7019183808380A1E858FF4FF5
:100A60008083F701878DE758FF4F8083F092490418
:100A7000E0924804C7010E94BA34E0914804F09122
:100A80004904E658FF4F60816093C7038FEF860FDC
:100A90008E3FB8F060E070E0CB0122C38091350B4F
:100AA000811751F0612F83E39BE00E94A43360E043
:100AB0008091340B0E94903C83E39BE00E94F831CC
:100AC000682F70E080E090E00E94CC5B09C38091C9
:100AD000350B811779F0612F83E39BE00E94A433EB
:100AE00060E08091330B0E94903C60E08091340B79
:100AF0000E94903C60E083E39BE00E94DC33182F6F
:100B000083E39BE00E94F831612F70E0660F771F4E
:100B1000680F711D072E000C880B990B0E94CE5B8D
:100B2000DFC2009114048091350B81130C941B15C6
:100B30008091360B80130C941B1562E0013059F440
:100B40008091330B0E94903C60E083E39BE00E9425
:100B5000DC338027B5CF8091340B0E94903C83E337
:100B60009BE00E94F83161E08627AACF8091570A66
:100B7000811709F48CC0612F85E59AE00E94A433A7
:100B80008091560A9091550A90938703809386032B
:100B90000E94D51A61E085E59AE00E94CC3380E797
:100BA0008BAFBE01655C7F4F80E00E94DC1B80E262
:100BB0008AAFBE01665C7F4F81E00E94DC1B81E052
:100BC0008093610A8EABBE016A5C7F4F82E00E9417
:100BD000DC1BBE016F5F7F4F7B0100E010E06B010B
:100BE000C8010E94E15CF70181937F010F5F1F4FF5
:100BF0000A311105A9F72D813E814F815885698100
:100C00007A818B819C810E94C55529853A854B85C7
:100C10005C850E94C5552D853E854F8558890E946B
:100C2000C55529893A894B895C890E94C5552D890A
:100C30003E894F89588D0E94C5554B015C01898DB5
:100C4000682F70E080E090E00E94CE5B9B01AC01D9
:100C5000C501B4010E94C55520E030E04AE253E4EA
:100C60000E94C5550E94F8568A8D68130CC08AE10F
:100C7000F601A2E6BAE001900D928A95E1F781E0D3
:100C80008093590A02C01092590A0E941A3E0E948B
:100C9000D24026C2E090140480917409811729F093
:100CA000612F82E799E00E94A433BE016F5F7F4FFE
:100CB0006B0185E0FB0111928A95E9F760E082E71C
:100CC00099E00E94CC3364E170E080E090E00E9403
:100CD000E23D61E082E799E00E94CC338BE990E04D
:100CE0000197F1F760E082E799E00E94CC330E941F
:100CF000F01F4B015C0182E799E00E94F8318111FD
:100D000010C00E94F01FDC01CB0188199909AA09C3
:100D1000BB090397A105B10570F3109276091092F3
:100D200077090E94F01F4B015C0182E799E00E9465
:100D3000F831882361F00E94F01FDC01CB01881993
:100D40009909AA09BB090397A105B10570F300E051
:100D500010E00E94F01F4B015C0182E799E00E94C5
:100D6000F83181110CC00E94F01FDC01CB01881901
:100D70009909AA09BB090397A105B10570F30E945F
:100D8000BD3D4B015C010E94F01F2B013C0182E73D
:100D900099E00E94F831882361F00E94F01FDC0185
:100DA000CB0184199509A609B7090397A105B105D7
:100DB00070F30E94BD3DDC01CB0188199909AA0995
:100DC000BB09F80123E0F595E7952A95E1F78997A6
:100DD000A105B10530F0EC0DFD1D8081880F81600B
:100DE00004C0EC0DFD1D8081880F80830F5F1F4FB5
:100DF0000832110509F0ADCF59814B81242F30E025
:100E0000250F311D8D8190E02817390721F450936B
:100E1000760940937709E11003C01091760902C06A
:100E2000109177090E94E1458F2D0E94DC45812FAA
:100E30005FC180916E098117D1F0612F8CE699E036
:100E40000E94A43380916C0990916D099093700970
:100E5000809371098091700960E00E94903C8091BC
:100E6000710980936C098091700980936D098CE6FB
:100E700099E020C0809168098117D1F0612F86E642
:100E800099E00E94A433809166099091670990933C
:100E90006A0980936B0980916A0960E00E94903C26
:100EA00080916B098093660980916A098093670934
:100EB00086E699E00E94C033BDC10091140411116F
:100EC0000C9455158091010B883609F0B5C10C942E
:100ED0002D151A8219821C821B821E821D8260912E
:100EE000290870912A086115710541F040912D087B
:100EF00050912E08CE0101960E94E13A1D81E12E0B
:100F0000FE8084E00E94DC45812F0E94DC4500E0E9
:100F100010E00E151F05A4F48D819E810817190796
:100F200048F489819A81009729F0FC01E00FF11FB4
:100F3000808101C080E00E94DC450F5F1F4FE9CF38
:100F400089819A810E94B35977C160E0812F0E9404
:100F5000903C812F0E94393C0EC0E12FF0E0EE0F53
:100F6000FF1FEF5DFD4F108160E0812F0E94903CDC
:100F7000812F0E94933DBC01990F880B990BCECD18
:100F800087E090E00E9425317C0160E0812F0E9483
:100F9000903CA701FF0C660B770B812F0E94AF1BC3
:100FA0008CC00091140461E0812F0E94903C60E0AD
:100FB000812F0E94613C83E090E00197F1F761E0AE
:100FC000812F0E94613C83E290E00197F1F760E09D
:100FD000812F0E94613C60E0802F0E94903C40E3A2
:100FE00055E760E070E0802F0E94AF1B6B017C0131
:100FF00065E070E080E090E00E94E23D0E94E14503
:101000008091C6030E94DC45C701B60187CD60917F
:101010004B0470914C0480914D0490914E0460C03B
:1010200080916209811729F0612F80E699E00E9482
:10103000A43380E699E00E94F8315AC080914B09B0
:10104000811729F0612F89E499E00E94A43381E09F
:1010500020914A0490911404291709F449C080E0B2
:1010600047C01111E9C0909114048091150491308A
:10107000B9F4813049F46091E3087091E4088091FB
:10108000E5089091E60819C0823009F0D5C060915A
:10109000D3087091D4088091D5089091D60820C0CB
:1010A000923009F0C9C0813059F4609163087091A1
:1010B000640880916508909166080E944F31BCC019
:1010C000823009F0B9C06091530870915408809142
:1010D00055089091560804C0103729F40E945230E8
:1010E0000E944946A9C0113709F0A6C080910B049F
:1010F0000E947A46A1C000911404E0904604F0904A
:101100004704E114F10411F589EB90E00E941E59A7
:101110007C01612F0E949A34F0924704E0924604C9
:10112000C7010E94101A80914604909147040E94C2
:10113000691B6AE070E080E090E00E94E23D8091EF
:101140004604909147040E94691B3DC0F70181A1AC
:101150008117C9F189ED92E091838083E259FF4FB5
:10116000808191810E94B35989EC92E0F7019183CB
:101170008083C7010E941C22C7010E94B35989EBDA
:1011800090E00E941E597C01612F0E949A34F092D7
:101190004704E0924604C7010E94101A8091460459
:1011A000909147040E94691B6AE070E080E090E043
:1011B0000E94E23D80914604909147040E94691B81
:1011C0001092000203C081E080930002809100022F
:1011D000882361F1013041F42091460430914704A5
:1011E000F901E558FF4F13C0023041F42091460445
:1011F00030914704F901E358FF4F09C0033079F4F7
:101200002091460430914704F901E158FF4F808155
:1012100090E0982F882731962081822B02C080E0B1
:1012200090E0909389038093880304C080918803A1
:10123000909189030E94343187E093E00E94E73166
:101240000C948715D0901304003211F40C945511AE
:1012500050F50A3009F44DC088F4053009F490C007
:1012600028F4033009F4F2C70C940715083009F488
:10127000A0C1093009F487C20C9407150C3009F499
:101280005CC108F442C2043109F4F1C70E3111F017
:101290000C94071561E08D2D0E94903C6091140420
:1012A0008D2D0C94BF11023311F40C94081278F4B4
:1012B000023211F40C94601110F40C94C211083233
:1012C00009F48DC0093209F457C30C9407150C3387
:1012D00009F4F4C130F4043311F40C941B120C948F
:1012E00007150D33D9F00E3311F40C9464120C94DD
:1012F000071587E090E00E9425318C016D2D81E675
:101300009BE00E94A43384EF91E09093680B80935C
:10131000670BC8010E94DB190C940715D1100C94BF
:1013200007151091140488E090E00E9425311130D7
:1013300091F422E02093C9089C018F3F910519F098
:1013400014F02FEF30E02130FFEF3F0714F00C9442
:10135000E3120C94E112123011F00C940715109363
:1013600049089C018F3F910519F014F02FEF30E0F0
:1013700021306FEF360714F00C94FA120C94F81227
:1013800086E090E00E9425311093C9088F3F9105B7
:1013900019F014F08FEF90E081307FEF970714F48D
:1013A00081E09FEF9093D0088093CF0888E090E091
:1013B0000E94253122E0209349088F3F910519F0C2
:1013C00014F08FEF90E08130EFEF9E0714F481E08E
:1013D0009FEF9093500880934F080C94071587E077
:1013E00090E00E9425318C0189E090E00E94F3306A
:1013F0004B015C01F1E0DF1225C061E0CE010196F6
:101400000E946A26BE016F5F7F4F8DE799E00E94C0
:101410006C30B501A4018DE799E00E945326B80114
:10142000110F880B990B0E94CE5B6B017C01AB0105
:10143000BC018DE799E00E94F825B701A6018DE770
:1014400099E077C022E0D21225C062E0CE01019679
:101450000E946A26BE016F5F7F4F82EB99E00E9477
:101460006C30B501A40182EB99E00E945326B801CB
:10147000110F880B990B0E94CE5B6B017C01AB01B5
:10148000BC0182EB99E00E94F825B701A60182EB2E
:1014900099E04FC063E0D61224C0CE0101960E94AD
:1014A0006A26BE016F5F7F4F87EE99E00E946C3025
:1014B000B501A40187EE99E00E945326B801110FEF
:1014C000880B990B0E94CE5B6B017C01AB01BC01C8
:1014D00087EE99E00E94F825B701A60187EE99E012
:1014E00028C074E0D7120C94071564E0CE01019671
:1014F0000E946A26BE016F5F7F4F8CE19AE00E94D6
:101500006C30B501A4018CE19AE00E945326B80129
:10151000110F880B990B0E94CE5B6B017C01AB0114
:10152000BC018CE19AE00E94F825B701A6018CE18C
:101530009AE00E9481250C9407152091140488E0FC
:1015400090E023962FAF23970E9425318C018AE0EB
:1015500090E00E940E316B017C0123962FAD239702
:10156000213069F4B801110F880B990B0E94CE5BF2
:101570008B019C01B701A6018FE298E010C02230D8
:1015800011F00C940715B801110F880B990B0E94EC
:10159000CE5B8B019C01B701A60189E398E00E9414
:1015A0004B2E68E270E080E090E00E94E23D0C94F7
:1015B0000715209114041091150400911604F09061
:1015C0001704E0901804DD2009F445C0D092430BC5
:1015D000ED2DF0E0EE0FFF1FEB51FD4F9181909349
:1015E000420B80818093410B2230D1F4292F30E0CF
:1015F000F901E05AFA4FE491E0934D0BF901E65EF0
:10160000FA4FE491F0E0EE0FFF1FE050FB4F259101
:10161000349130934A0B2093490B61E0892F18C015
:10162000282F30E0F901E05AFA4FE491E0934D0B96
:10163000F901E65EFA4FE491F0E0EE0FFF1FE05093
:10164000FB4F2591349130934A0B2093490B61E075
:101650000E94903C02C00E946316112331F1115088
:10166000212F30E08091450B9091460B28173907C8
:1016700008F5812F880F180F812F90E0E091470B1C
:10168000F091480BE80FF91FF082E091470BF091C1
:10169000480BE80FF91F01832091470B3091480B4D
:1016A000F901E80FF91FE28205C04E2D6F2D802F42
:1016B0000E9436160E94FE150C9407151091140412
:1016C00081E1D8120C9407150E94E545153060F4AD
:1016D00010930B0483E890E00E945030811711F4BE
:1016E0000C940715612F0BC010920B0483E890E057
:1016F0000E945030882311F40C94071560E083E8B1
:1017000090E00E944E300C940715809114046D2DCA
:1017100070E0660F771FFB01EB51FD4F813011F434
:10172000608101C061811091150470E0EEEAF3E080
:1017300080E090E0219131912617370781F0232B2B
:1017400041F4FC01EE0FFF1FE255FC4F71836083F3
:1017500006C001968C30910569F780E090E0FC01AD
:10176000EE0FFF1F8E0F9F1FFC01E759F44F808182
:101770009181A28189839A83AB83153B10F00C94ED
:10178000071589812EC68091390B8D1561F1D09294
:10179000390BED2DF0E0EE0FFF1FEB51FD4F818176
:1017A0008093380B90819093370B80933F0B9093ED
:1017B000400B61E00E94903C61E08091400B0E94F0
:1017C000903C80E480933B0B80EC80933C0B8AE858
:1017D00080933D0B80E289838A838B838C83CE0147
:1017E00001960E94B71587E090E00E940E316B01D0
:1017F0007C0119821A821B821C8220E030E0A90140
:101800000E94C85B87FF09C0F7FAF094F7F8F094DC
:1018100081E2898391E09CAF01C01CAEBDEF2B2E0D
:1018200033243A9403E010E01DAE17FD4CC0B8011C
:101830006F5F7F4F072E000C880B990B0E94CE5BC9
:101840009B01AC0160E070E080E291E40E94EC5703
:101850004B015C019B01AC01C701B6010E948B5694
:101860000E9424572B013C01B801012E000C880B6B
:10187000990B0E94CE5B9B01AC0160E070E080E2BE
:1018800091E40E94EC5722966CAF7DAF8EAF9FAF74
:101890002297A5019401C301B2010E942D5C9B0116
:1018A000AC01C701B6010E94C45522962CAD3DADD6
:1018B0004EAD5FAD22970E948B560E9424570E9426
:1018C000F356CB0123C020E030E040E251E4C701F1
:1018D000B6010E942D5CE2E02E16310484F020E077
:1018E00030E040E251E40E942D5CF2E02F1631041A
:1018F00031F020E030E040E251E40E942D5C0E9493
:10190000F356CB016AE070E00E94A3551816190641
:1019100034F0002321F02DAD2223D9F00DC00111A8
:101920000BC0E1E0F0E0EC0FFD1F6CADE60FF11D28
:1019300060E1680F608308C0E1E0F0E0EC0FFD1F9C
:101940007CADE70FF11D80838CAD8F5F8CAF91E094
:101950009DAFECADE43050F401501109FFEF2F1AA8
:101960003F0A0C3F2FEF120709F05FCFCE0101961F
:101970000E94B7150C9407158091040B8D15B1F1D9
:10198000ED2DF0E0EE0FFF1FEB51FD4F80818093B6
:10199000060B91819093070BD092040B61E00E949B
:1019A000903C61E08091070B0E94903C61E0809147
:1019B000060B0E94613C61E08091070B0E94613C34
:1019C00080E40E9467328CE80E946732EAE0FBE024
:1019D00080E18E0F11928E13FDCF81E08093080B72
:1019E0001092090B8AE09BE00E940A328091140455
:1019F000813009F06AC1009115048091160440916C
:101A00001704042E000C550BA8E1B4E0EAE8F3E05B
:101A10009F012A583340241735071CF49D91919358
:101A2000F7CFFA01E657FC4F1082002E000C110B85
:101A300091E09093090BE12CF12CF701E657FC4F54
:101A40009081F701EE5FF44F992321F063E1E616F0
:101A5000F10481F4F0921E0BE0921D0B158E2AEF1B
:101A6000B7012603A001279F500D11240417150765
:101A700064F005C0958F7FEFE71AF70ADECF0131DA
:101A8000110524F000E110E001C08A0110931B0B46
:101A900000931A0B80310CF08FE0282F87FD2FEF79
:101AA00020931C0B101611060CF069C040E050E0AA
:101AB000842F4017510759F04F5F5F4F4131510557
:101AC00009F4CFC0FA01EE5FF44F1782F1CF403135
:101AD00009F4C7C090E037E070E2B72E492F50E01C
:101AE0004E155F050CF042C0A12CBA01615E744F27
:101AF0006B013A9DD0011124BD0164597D4FFB015A
:101B00001491103429F1FB019490F6010081002E0C
:101B1000000C110BE92DF0E00E171F07B9F400E0DF
:101B200010E01196FD01E00FF11FE459FD4FD49034
:101B3000E82FF0E0EE5FF44FD0868F5F803141F008
:101B40000F5F1F4F0630110569F702C0A394D1CF74
:101B5000FB016491603429F4FA01EE5FF44FB58E15
:101B600091509F5F803109F0B9CF7BC0E82FF0E042
:101B7000EE5FF44F10868F5F8031C1F772C004179B
:101B8000150741F4EAE0FBE080E18E0F11928E131D
:101B9000FDCF67C0EE27FF27E01BF10BCF0166E00A
:101BA00070E00E94A355382FF0931B0BE0931A0BA3
:101BB000AB0190E087E060E2962E4E155F050CF0D9
:101BC00047C0812CBA01615E744F6B01889DD001C2
:101BD0001124BD0164597D4FFB01B490F0E4BF16A0
:101BE00019F1FB017490F601A0800A2C000CBB08CF
:101BF000E72DF0E0AE16BF06A1F4FD01E30FF11DE5
:101C000037FDFA95E359FD4FD490E92FF0E0EE5FF0
:101C1000F44FD0869F5F903130F43F5F363069F7E4
:101C200002C08394D3CF30E0FB016491603431F47F
:101C3000FA01EE5FF44F958E415051094F5F5F4FAF
:101C4000903108F4BACF10931B0B00931A0B09C004
:101C5000E92FF0E0EE5FF44F10869F5F9031C1F7FF
:101C6000F2CF822F220F990B27E030E0281B390B8F
:101C7000EAE0FBE037FD14C090E19E0F8081022E68
:101C800001C0880F0A94EAF781939E13F7CF8091E1
:101C9000080B8111CCC2EAE0FBE090E19E0F0FC07F
:101CA000079740E14E0F208130E0082E02C03595A5
:101CB00027950A94E2F721934E13F5CFE8CF808160
:101CC000809581939E13FBCFB2C2823009F090C001
:101CD0002091150400911604A7E1B4E0EEE9F3E0C9
:101CE0008D91819363E0EE3AF607D1F720310CF045
:101CF0008EC608300CF08BC68091080B402F002E4A
:101D0000000C550B022E000C330B6EE973E010E152
:101D1000160F8823B1F188E090E0841B950B6FEFDC
:101D2000F62E01C0FF0C8A95EAF7D901A65FB44FE1
:101D3000EEE9F3E02E59334066277727641B750BD5
:101D4000C9018E0F9F1F97FD17C08C91EF2CE822C1
:101D5000101654F49081892F90E0042E02C09595BE
:101D600087950A94E2F706C08081062E01C0880F8D
:101D70000A94EAF78E298C93119631961E13E0CFC0
:101D800056C288E090E0841B950B6FEFF62E01C0E1
:101D9000FF0C8A95EAF7D901A65FB44FEEE9F3E0AC
:101DA0002E59334066277727641B750BC9018E0FA8
:101DB0009F1F97FD18C08C91EF2CE8229081892FEE
:101DC00090E08095909510163CF4042E02C09595F5
:101DD00087950A94E2F705C0062E01C0880F0A9481
:101DE000EAF78E298C93119631961E13DFCF1FC20E
:101DF000833009F08FC04091150480911604A091A2
:101E000017045AE0652F0E948355282F30E0F9010E
:101E1000EE0FFF1F2E0F3F1FF901E154FB4FE4911E
:101E2000E0930A0BF901E054FB4FE491E0930B0BB4
:101E3000F901EF53FB4F249120930C0B10920D0BE3
:101E4000292F30E0F901EE0FFF1F2E0F3F1FF90180
:101E5000E154FB4FE491E0930E0BF901E054FB4F8A
:101E6000E491E0930F0BF901EF53FB4F2491209382
:101E7000100B8A2F0E948355282F30E0F901EE0FB6
:101E8000FF1F2E0F3F1FF901E154FB4FE491E09338
:101E9000130BF901E054FB4FE491E093140BF901AB
:101EA000EF53FB4F24912093150B1092160B892FA3
:101EB00090E0FC01EE0FFF1F8E0F9F1FFC01E1540D
:101EC000FB4FE491E093170BFC01E054FB4FE491CE
:101ED000E093180BFC01EF53FB4F84918093190B97
:101EE000442331F088E28093110B8093120B04C0DD
:101EF0001092110B1092120B8091080B811197C157
:101F0000EAE0FBE090E19E0F8081809581939E1333
:101F1000FBCF8DC1843009F07AC588E090E00E9443
:101F20000E316B017C014B015C01B7FAB094B7F83C
:101F3000B09420E030E0A9010E94C85B87FF05C093
:101F40008CAE9DAE3A2C2B2C04C0CCAEDDAE3E2C1C
:101F50002F2C03E08AE0882E912C20E03EE34CE118
:101F600056E4C701B6010E949C5787FD03C089E073
:101F70008EAB0DC020E030EE49E754ECC701B6014E
:101F80000E94C85B18163CF08BE08EAB89E08FABEB
:101F900088AF89AFDCC020E030E0A901C701B601FD
:101FA0000E94C85BA82EAA1CAA24AA1C10E060E00C
:101FB00070E080E09FE3101741F020E030E040E265
:101FC00051E40E948B561F5FF6CF9B01AC016CADB4
:101FD0007DAD832D922D0E94C5552B013C010E94A1
:101FE000F856FB019B0110E0C901B4010E948F5516
:101FF000A1E0B0E0AC0FBD1FA10FB11D8AE0689F4A
:10200000201911242C931F5F9B01672B69F7812FE7
:102010008A0DB82EB00E94E09B1518F404E0081B4E
:102020009CCF78018CE08EAB8FAB88AF89AFBF01BE
:1020300080E090E00E94CC5B9B01AC01C301B20147
:102040000E94C4552B013C0184E08B19AA2039F071
:10205000FE01E80FF11D8BE086AB85E08B19180FB0
:10206000812F8F19FF2069F0E6E3F0E0EC0FFD1FF0
:10207000E80FF11DDE01AF0DB11D8C918083FA9444
:10208000EFCF002309F463C0133071F420E030E097
:1020900040E251E4C301B2010E942D5C0E94F3565C
:1020A000672B11F58CE075CF123071F420E030E031
:1020B00048EC52E4C301B2010E942D5C0E94F35629
:1020C000672B91F48CE064CF113071F420E030E0A4
:1020D0004AE754E4C301B2010E942D5C0E94F3560A
:1020E000672B11F48CE053CF01E0010FE6E3F0E041
:1020F000EC0FFD1FE10FF11D8AE08083EA94EFEF02
:10210000EE1629F120E030E040E251E4C301B201D3
:102110000E942D5C4B015C010E94F35611E0100FF0
:10212000E6E3F0E0EC0FFD1FE00FF11D6083072EEA
:10213000000C880B990B0E94CE5B9B01AC01C50182
:10214000B4010E94C4552B013C01012FD7CF8EA9A9
:1021500090E0FC01EE0FFF1F8E0F9F1FFC01E1546A
:10216000FB4FE491E0930A0BFC01E054FB4FE49138
:10217000E0930B0BFC01EF53FB4FE491E0930C0B4E
:1021800010920D0B8FA990E0FC01EE0FFF1F8E0F38
:102190009F1FFC01E154FB4FE491E0930E0BFC0107
:1021A000E054FB4FE491E0930F0BFC01EF53FB4F26
:1021B000E491E093100B1092110B88AD90E0FC01BC
:1021C000EE0FFF1F8E0F9F1FFC01E154FB4FE491A8
:1021D000E093120BFC01E054FB4FE491E093130BEE
:1021E000FC01EF53FB4FE491E093140B1092150B9D
:1021F00089AD90E0FC01EE0FFF1F8E0F9F1FFC01C9
:10220000E154FB4FE491E093160BFC01E054FB4FCB
:10221000E491E093170BFC01EF53FB4FE491E09343
:10222000180B1092190B8091080B882329F08AE073
:102230009BE00E940A32EBC3EAE0FBE090E19E0FD4
:102240008081809581939E13FBCFF1CF8091350BD8
:102250008D1529F06D2D83E39BE00E94A43311E0DE
:1022600080911404811101C010E061E00EC08091E2
:10227000350B8D1529F06D2D83E39BE00E94A4336F
:102280001091140461E0123040F48091330B0E94ED
:10229000903C612F8091330B72C0123009F460E0E2
:1022A00083E39BE00E94CC33B2C361E08D2D0E949A
:1022B000903C6091140470E08D2D0E94CC3CA7C32B
:1022C00061E08D2D0E94903C87E090E00E942531D6
:1022D0008C0189E090E00E9425317C01D092970723
:1022E000181619060CF044C0980140E050E060E474
:1022F00072E48FE090E00E94F75C29013A018901C5
:1023000037FF02C00F5F1F4F1595079561E08D2DB8
:102310000E94903C28EE33E0D7010E94BE554B014D
:102320005C016201550CEE08FF0880E090E0DC01E2
:102330002C013D014C0C5D1C6E1C7F1C8815990501
:10234000AA05BB0508F063C361E0809197070E946E
:10235000613CC8010E94B23D60E0809197070E94F5
:10236000613CC8010E94B23DA895D301C201E0CFF3
:1023700061E08D2D0E94903C60E0809197070E9463
:10238000613C45C310911404153B08F040C36D2D0A
:1023900070E0EEEAF3E020E030E081919191861761
:1023A000970789F0892B41F4F901EE0FFF1FE255E1
:1023B000FC4F7183608307C02F5F3F4F2C30310586
:1023C00061F720E030E0F901EE0FFF1F2E0F3F1FF5
:1023D000F901E759F44F80812181928189832A8311
:1023E0009B8390E0FC01EE0FFF1F8E0F9F1FFC01EF
:1023F000E856F84F808187FD04C0CE0101960E9407
:10240000E623612F70E0CE0101960E946323FFC294
:102410000E94F01F0E94CC5B20E030E04AE754E4C9
:102420000E948B5660934F04709350048093510424
:1024300090935204ECC2D110EAC287E090E00E946F
:1024400025318C0189E090E00E942531BC01990F73
:10245000880B990B0E94CE5B20E030E040E85EE301
:102460000E942D5C6B017C016093D7037093D803AD
:102470008093D9039093DA03B801110F880B990B5D
:102480000E94CE5B90582CEE31E548E35EE30E945B
:102490002D5C6093F7037093F8038093F903909396
:1024A000FA03C701B6010E94F3569B0177FF04C0EF
:1024B00022273327261B370B223031050CF4A7C205
:1024C00081E08093CA03A3C210911404F1E0DF12EB
:1024D0002AC088E090E00E94F3306B017C018CE020
:1024E00090E00E94253197FF03C091958195910955
:1024F000113069F4BC01990F880B990B0E94CE5BD7
:102500008B019C01B701A60189EC98E0FBC0123059
:1025100009F07DC2BC01990F880B990B0E94CE5B1C
:102520008B019C01EBC022E0D21234C088E090E025
:102530000E9425311130A9F4BC01990F880B990B29
:102540000E94CE5B1093C9081093CA086093D70805
:102550007093D8088093D9089093DA0810923309C1
:1025600056C2123009F053C2BC01990F880B990B67
:102570000E94CE5B21E02093490820934A08609393
:102580005708709358088093590890935A081092EE
:10259000B3083DC263E0D61232C088E090E00E94EA
:1025A00025311130A9F422E02093C9089C018F3F06
:1025B000910519F014F02FEF30E021307FEF37074D
:1025C00014F421E03FEF3093D0082093CF081FC2CE
:1025D000123009F01CC2109349089C018F3F9105ED
:1025E00019F014F02FEF30E021308FEF380714F49A
:1025F00021E03FEF3093500820934F0808C294E049
:10260000D91217C0113049F41092EF081092F00857
:102610001092F1081092F208FAC1123009F0F7C1D5
:1026200010926F0810927008109271081092720840
:10263000EEC1E5E0DE12EBC188E090E00E94F330ED
:102640006B017C018CE090E00E942531113091F407
:10265000BC01990F880B990B0E94CE5B4B015C016A
:1026600044275527BA014C195D096E097F09950168
:1026700084013EC01230D1F4BC01990F880B990B34
:102680000E94CE5B4B015C018B019C01B701A6014E
:1026900089EC98E00E943D5544275527BA014C1912
:1026A0005D096E097F09950184012AC0133089F400
:1026B000BC01990F880B990B0E94CE5B4B015C010A
:1026C000F094E094D094C094C11CD11CE11CF11C86
:1026D0000BC0143009F09BC1BC01990F880B990BFA
:1026E0000E94CE5B4B015C0195018401B701A601FC
:1026F00089EC98E00E943D5595018401B701A6013F
:1027000089E498E00E943D5582C18DE2809397074D
:1027100040E060E080E0AAD271D21092EF081092FF
:10272000F0081092F1081092F20810926F081092BF
:102730007008109271081092720880E090E0A0E298
:10274000B1E48093D7089093D808A093D908B093A8
:10275000DA08109235091092330921E02093C90854
:102760001092CA081092E7081092E8081092E9083F
:102770001092EA0810924809109247098091E708E0
:102780009091E808A091E908B091EA084091E30827
:102790005091E4086091E5087091E608841B950B60
:1027A000A60BB70B181619061A061B061CF4209365
:1027B000340902C01092340980E090E0A0E2B1E454
:1027C0008093570890935808A0935908B0935A08DB
:1027D0001092B5081092B30821E020934908109296
:1027E0004A081092670810926808109269081092BF
:1027F0006A081092C8081092C708809167089091E3
:102800006808A0916908B0916A08409163085091E6
:1028100064086091650870916608841B950BA60B8F
:10282000B70B181619061A061B061CF42093B408D9
:1028300002C01092B40860E070E089EC98E00E9459
:10284000A62660E070E089E498E00E94A626109237
:10285000C9081092490861E081E69BE00E94A43318
:1028600004EF11E01093680B0093670B80E090E099
:10287000A2D562E081E69BE00E94A4331093680B2E
:102880000093670B80E090E096D563E081E69BE0E3
:102890000E94A4331093680B0093670B80E090E0D4
:1028A0008AD564E081E69BE00E94A4331093680B14
:1028B0000093670B80E090E07ED540E050E0BA01E5
:1028C0008FE298E00E94BD2D40E050E0BA0189E31C
:1028D00098E00E94BD2D10928409109285091092F3
:1028E000860910928709109288091092890910921E
:1028F0008A0910928B091092A0091092A1091092D6
:10290000A2091092A30910929809109299091092A5
:102910009A0910929B091092B9091092BA09109263
:10292000BB091092BC091092BD091092BE09109209
:10293000BF091092C0091092D5091092D6091092C1
:10294000D7091092D8091092CD091092CE09109291
:10295000CF091092D0091092EE091092EF0910924F
:10296000F0091092F1091092F2091092F3091092F5
:10297000F4091092F50910920A0A10920B0A1092AB
:102980000C0A10920D0A1092020A1092030A109279
:10299000040A1092050A1092230A1092240A109237
:1029A000250A1092260A1092270A1092280A1092DD
:1029B000290A10922A0A10923F0A1092400A109295
:1029C000410A1092420A1092370A1092380A109265
:1029D000390A10923A0A40E050E0BA018DE799E0D6
:1029E0000E94532640E050E0BA0182EB99E00E9439
:1029F000532640E050E0BA0187EE99E00E9453264A
:102A000040E050E0BA018CE19AE00E9453260E9417
:102A100081467DC00E94F01FDC01CB018C199D090D
:102A2000AE09BF098E3E9240A105B10510F40C9489
:102A300004040C941A04E12FF0E0EE0FFF1FEB5199
:102A4000FD4F80818093330B81818093340B1093F1
:102A5000350B0093360B0C949D058FEB9AE00E948A
:102A60001136013049F44090C90A5090CA0A60906A
:102A7000CB0A7090CC0A15C0023049F44090CD0AC0
:102A80005090CE0A6090CF0A7090D00A0AC00330EE
:102A900041F44090D10A5090D20A6090D30A7090CD
:102AA000D40AC301B2010C947008113011F00C94D7
:102AB0001C098091BE0A893611F00C941C098CE720
:102AC0009AE00E941136013049F48090860A909075
:102AD000870AA090880AB090890A15C0023049F48C
:102AE00080908A0A90908B0AA0908C0AB0908D0AF0
:102AF0000AC0033041F480908E0A90908F0AA09013
:102B0000900AB090910AC501B4010C947008CE5B94
:102B1000DF4F0FB6F894DEBF0FBECDBFDF91CF9170
:102B20001F910F91FF90EF90DF90CF90BF90AF90EB
:102B30009F908F907F906F905F904F903F902F90DD
:102B40000895CF93DF93C7E3DBE061E088850E94BF
:102B5000613C61E089850E94613C60E089850E945A
:102B6000613C60E08885DF91CF910C94613CCF930C
:102B7000DF9300D01F92CDB7DEB79C01DE01119626
:102B8000AD0194E09A0FF90181919F01FA018193BF
:102B9000AF019E13F8CF80E22C91223208F08C9383
:102BA000EC91F0E0EA55FA4FE491ED939A13F4CFEB
:102BB000C8DF80E40E94B4320E949E32C2DF80915E
:102BC0003C0B0E94B43289810E94B4328A810E94F7
:102BD000B4328B810E94B4328C810E94B4320E9444
:102BE0009E32AFDF80913D0B0E94B4320F900F9068
:102BF0000F900F90DF91CF910C949E32A091490BD2
:102C0000B0914A0B20914D0B8091450B9091460B52
:102C1000AC01440F551F840F951F7091470B6091B5
:102C2000480B5FB7F8944C91322F30953423242B06
:102C3000E72FF62F8E0F9F1FE817F90781F04191BC
:102C400068E02C9300C047FF3C93440F00C000C0D5
:102C500000C008F43C9300C06A9599F7EDCF5FBFC0
:102C600061E070E080E090E00C94E23DE0E0F0E0B4
:102C70002091450B3091460BE217F30710F5DF0169
:102C8000BB27A217B307D8F42E2F220F2E0F30E048
:102C9000A091470BB091480BA20FB31F6C93A0916A
:102CA000470BB091480BA20FB31F11968C93A091C4
:102CB000470BB091480BA20FB31F12964C9331965D
:102CC000D7CF81E00895ECE8F5E0E491A1E4BBE022
:102CD0001C96EC931C97E6E4F5E0E491F0E0EE0F2F
:102CE000FF1FE050FB4F8591949119969C938E9312
:102CF000189761E08CE20C94903C2F923F924F9297
:102D00005F926F927F928F929F92AF92BF92CF927B
:102D1000DF92EF92FF920F931F93CF93DF931F9257
:102D2000CDB7DEB705E010E086E0E82EF12C93E0A9
:102D3000C92ED12C22E0A22EB12C34E0832E912C6E
:102D40008091930C9091940CA091950CB091960C5D
:102D500040918F0C5091900C6091910C7091920C5D
:102D6000481759076A077B0709F44EC1FC01E3576E
:102D7000F44F22810196A11DB11D9927AA27BB27D7
:102D80008093930C9093940CA093950CB093960C15
:102D900080918D0B90918E0B8330910569F5E091B8
:102DA000A00CF091A10CE756F34F20838091A00C6A
:102DB0009091A10CA091A20CB091A30C0196A11D21
:102DC000B11D84309105A105B10549F08093A00C97
:102DD0009093A10CA093A20CB093A30CB1CF10922E
:102DE000A00C1092A10C1092A20C1092A30C909225
:102DF0008E0B80928D0BA4CF84309105ACF4813082
:102E0000910541F4253A09F09BCFB0928E0BA09228
:102E10008D0B96CF029709F093CF2093980CD09208
:102E20008E0BC0928D0B8CCF8530910509F04DC073
:102E300020939F0C2090990C30909A0C40909B0C02
:102E400050909C0C80919D0C90919E0CFC0140E058
:102E500050E0BA0130E0421553056405750539F0BC
:102E6000A1913A274F5F5F4F6F4F7F4FF4CF2317EA
:102E700039F121E030E030938E0B20938D0B0097D9
:102E800031F00E94B35910929E0C10929D0C10923A
:102E9000A40C1092A50C1092A60C1092A70C1092E4
:102EA000A00C1092A10C1092A20C1092A30C1092E4
:102EB000990C10929A0C10929B0C10929C0C38C09A
:102EC000F0928E0BE0928D0B3BCF85309105ACF1EB
:102ED000069709F035CF2A3509F492C080919D0CF0
:102EE00090919E0C009731F00E94B35910929E0C65
:102EF00010929D0C1092990C10929A0C10929B0CAF
:102F000010929C0C81E090E090938E0B80938D0B3F
:102F10001092A40C1092A50C1092A60C1092A70C63
:102F20001092A00C1092A10C1092A20C1092A30C63
:102F30001092980C10929F0C03CF4090A40C5090CC
:102F4000A50C6090A60C7090A70C4114510461046C
:102F5000710401F58091990C90919A0CA0919B0CB1
:102F6000B0919C0C8F3F9105A105B10541F038F05F
:102F700021E030E030938E0B20938D0B88CF0196AB
:102F800029830E941E5990939E0C80939D0C298149
:102F9000892B71F380919D0C90919E0CFC01E40DA6
:102FA000F51D20838091A40C9091A50CA091A60CF6
:102FB000B091A70C0196A11DB11D8093A40C909314
:102FC000A50CA093A60CB093A70C4091990C50911E
:102FD0009A0C60919B0C70919C0C84179507A60726
:102FE000B70709F0ADCE1092A40C1092A50C109268
:102FF000A60C1092A70C10938E0B00938D0BA0CEF5
:1030000031E03093970C7ECF80918D0B0F90DF9144
:10301000CF911F910F91FF90EF90DF90CF90BF90D5
:10302000AF909F908F907F906F905F904F903F9068
:103030002F900895CF92DF92EF92FF920F931F93FC
:10304000CF93DF930091930C1091940C2091950CE9
:103050003091960C40918F0C5091900C6091910C96
:103060007091920C41505F4F6F4F7F4F401B510B3F
:10307000620B730B4A3050F1FC01AC01465F5F4FAD
:10308000E417F50719F16191C0908F0CD090900C66
:10309000E090910CF090920CD701C6010196A11D11
:1030A000B11D9927AA27BB2780179107A207B3074D
:1030B00039F3E601C357D44F6A8380938F0C909302
:1030C000900CA093910CB093920CDACF80E0DF913A
:1030D000CF911F910F91FF90EF90DF90CF900895C7
:1030E000382F20911B0590911A05213208F049C014
:1030F0008091F7048111FCCF42E04093F7043093B4
:10310000F6043FEF3093F5041092F4042093F30497
:10311000AAEFB4E043ED54E0FA013E2F341B32171E
:1031200018F43D913193F9CF1092D2042091D2043A
:10313000990F922B9093D2049091D104913061F425
:103140001092D1049091D2049093BB009091BC0056
:1031500093FDF8CF95EC01C095EE9093BC00909153
:10316000F7049230E1F39091F5049F3F79F080915C
:10317000F504803241F08091F504803331F084E031
:1031800005C081E003C082E001C083E01092F90431
:1031900010921B051092F80408959091F704911174
:1031A000FCCF613208F060E291E09093F7049093D5
:1031B000F6042FEF2093F5041092F404260F2093C9
:1031C000F3049093D2049091D204880F892B8093BA
:1031D000D2048091D104813061F41092D1048091A5
:1031E000D2048093BB008091BC0083FDF8CF85ECB6
:1031F00001C085EE8093BC008091F7048130E1F33B
:103200008091F404861710F46091F404A3EDB4E007
:1032100021EB34E0F9018E2F821B861718F48D9173
:103220008193F9CF1092B0046093AF04862F089574
:10323000EF92FF920F931F93CF93DF938C017A014C
:10324000FC01858191E09093F80480931A05109217
:10325000F90410921B05A9018BE897E01BD481E0CB
:103260003FDFC3E0D0E0CE010197F1F76AE0F8015B
:10327000858193DF2197F1F7C0E09091AF048091B1
:10328000B004981749F08BE897E0E8D3F701EC0F0A
:10329000F11D8083CF5FF1CFDF91CF911F910F910F
:1032A000FF90EF9008956F927F928F929F92AF92CE
:1032B000BF92CF92DF92EF92FF920F931F93CF9323
:1032C000DF9300D01F92CDB7DEB7FC01E982FA820E
:1032D0000B831C8395EA908391E09183E2828A813B
:1032E00083838B8184838C818583470158013901D5
:1032F0009F012A5F3F4FC301C12CD12C7601C81416
:10330000D904EA04FB0461F0DC011D91CD01D9016F
:103310001D939D01BFEFCB1ADB0AEB0AFB0AEFCF2F
:103320007501640186E0C80ED11CE11CF11C00E0AF
:1033300010E0980180E0081519052A053B0549F0C1
:10334000D3019D913D0189270F5F1F4F2F4F3F4FA5
:10335000F2CFDF01AC0DBD1D8C9368017901B8E09F
:10336000CB0ED11CE11CF11C095F1F4F2F4F3F4FAB
:10337000E00FF11F8AE580834C155D056E057F0522
:1033800018F0B601C70104C060E070E080E090E092
:103390000F900F900F900F90DF91CF911F910F9191
:1033A000FF90EF90DF90CF90BF90AF909F908F9065
:1033B0007F906F900895CF93DF938F3F910519F021
:1033C00014F08FEF90E0EC01C1308FEFD80714F4C8
:1033D000C1E0DFEF8091670B9091680B8C179D0720
:1033E000E1F0D093680BC093670BD7FD07C061E095
:1033F00081E69BE00E94CC33BE0109C060E081E61B
:103400009BE00E94CC33662777276C1B7D0B809155
:10341000610BDF91CF910C94CC3CDF91CF9108955B
:10342000CF93DF93FC0188E690E097A386A383A166
:103430008823A9F081A140E855E260E070E08F3078
:1034400019F484EB95E007C0803119F48EEE96E014
:1034500002C081E596E0DF91CF910C948031138E0C
:10346000128E118E108E178A168A8DE991E0958F33
:10347000848F848596EF980F943048F02EEC280FB7
:10348000243028F022EC280F283008F062C02DEB01
:1034900030E0378B268B2BE931E0318F208F2CE207
:1034A00031E0338F228F943060F02EEC280F2430DF
:1034B00040F022EC280F283008F46CC0C0E0D0E0C7
:1034C0006BC0C8E6D0E0A8E6B0E02C91943018F0CC
:1034D0008E53883010F081E001C084E0822B888315
:1034E000848596EF980F943058F02EEC280F2430F6
:1034F00038F022EC280F283030F020E030E005C012
:103500002BE630E002C02DE630E0348B238B943084
:1035100010F49AEF0BC0823381F0833381F084334F
:1035200081F092EC980F983070F492EC980F81E053
:1035300001C0880F9A95EAF707C088E005C084E0CB
:1035400003C082E001C081E0858B848D958D019759
:10355000F1F7828D938D892B29F18091AD049091A3
:10356000AE048E179F07F1F0EF01009709F064D7C2
:103570008E8D8E7F8E8F1092AC041092AB04D09300
:10358000AE04C093AD04EB89FC8990818D89892BB1
:10359000808308C0C8E6D0E0283008F494CFA0E0CB
:1035A000B0E093CFDF91CF9108951092B0041092C4
:1035B000AF041092F90410921B051092F70481E0F9
:1035C0008093F6041092D10461E084E10E94613C92
:1035D00061E085E10E94613CE9EBF0E080818E7F53
:1035E000808380818D7F808388E48093B80085E428
:1035F0008093BC000895CF93DF93EA01FC01EE5B5A
:10360000FF4F808191E09093F80480931A05109207
:10361000F90410921B058BE897E06BD2813051F4CE
:1036200041E050E0BE018BE897E034D281E0DF91C9
:10363000CF9156CD8FEFDF91CF910895E82FF0E035
:10364000EE0FFF1FE95FFD4F7183608390E08830CC
:103650009105F0F5FC018827EE54FF4F8F4F0C9435
:10366000B65580916900836080936900E89A089557
:10367000809169008C6080936900E99A0895809137
:103680006900806380936900EA9A089580916900D7
:10369000806C80936900EB9A089580916A00836042
:1036A00080936A00EC9A089580916A008C60809300
:1036B0006A00ED9A089580916A00806380936A00A1
:1036C000EE9A089580916A00806C80936A00EF9A68
:1036D0000895DF92EF92FF920F931F93CF93DF93A2
:1036E000CDB7DEB760970FB6F894DEBF0FBECDBF83
:1036F0007C01FE01319680E1DF011D928A95E9F798
:1037000083E389838EE38A838CE08C8383EA8D83D1
:1037100081E08F8785E2888B83E088878F0180E155
:10372000D82EDE0EF80161918F01D701ED91FC9149
:103730000190F081E02DC7011995D012F3CF80E000
:1037400090E060960FB6F894DEBF0FBECDBFDF915C
:10375000CF911F910F91FF90EF90DF9008950F93FD
:103760001F9390E0FC01E05AFA4FA491FC01E65E41
:10377000FA4FE491F0E0EE0FFF1FEA51FB4F859105
:1037800094918A019B013F704A2F6A2F0E948946BB
:10379000611571058105910549F0DC01CB010196A8
:1037A000A11DB11DBC01CD019F7003C060E070E0A0
:1037B000CB011F910F910895CF93DF93EB0190916F
:1037C000600A21E02093F80490931A051092F904FE
:1037D00010921B05682F8BE897E08BD1813051F454
:1037E00041E050E0BE018BE897E054D181E0DF91E9
:1037F000CF9176CC8FEFDF91CF910895EF92FF922A
:103800000F931F93CF93DF93162FD72FC42F909131
:10381000600A21E02093F80490931A051092F904AD
:1038200010921B05682F8BE897E063D18130F9F483
:1038300080E056DC811123C06C2F8091600AADDCE2
:10384000E12EFD2E00E010E0D0E09091AF048091D9
:10385000B004981771F00C171D075CF40F5F1F4F31
:103860008BE897E0FBD0F70181937F01EECF8FEFDC
:1038700006C081E00C171D0709F480E08195DF91F7
:10388000CF911F910F91FF90EF900895089520918F
:10389000AD043091AE042817390771F49091AB0450
:1038A0008091AC04981741F0E091AB04F0E0E95945
:1038B000FA4F808190E008958FEF9FEF089508956B
:1038C0001F93CF93DF93DC015C962D913C915D9724
:1038D0002115310539F481E090E013969C938E9385
:1038E00012973DC05196ED91FC91529750969C9144
:1038F0005097892F80951FB75E964C915E9741FB3C
:10390000772770F941FD6095F8944081772311F095
:10391000492B01C048234083E9012197F1F748E092
:10392000508160FF02C0592B01C058235083E90128
:103930002197F1F76695415099F7772321F090810F
:103940008923808303C08081982B90831FBF5C965E
:103950008D919C915D970197F1F721E030E0C901CD
:10396000DF91CF911F9108952091AD043091AE0465
:103970002817390769F48091AC042091AB0490E0DA
:10398000805C9F4F821B910960E470E00C94A3550A
:1039900080E090E008952091AD043091AE042817A6
:1039A0003907B9F49091AB048091AC04981789F071
:1039B000E091AB04F0E0E959FA4F80812091AB042B
:1039C00030E02F5F3F4F2F7333272093AB0490E0FD
:1039D00008958FEF9FEF089585ED8093BC0080914F
:1039E000BC0084FDFCCF1092F7040895409142057D
:1039F000262F30E0240F311D21323105DCF42091D7
:103A0000F7042430C9F4FC0180E090E0861758F4F4
:103A1000309142052191DC01A05EBA4FA30FB11D88
:103A20002C930196F3CF80914205680F6093420575
:103A300080E0089581E0089582E008950895E0917E
:103A4000B0048091AF04E81730F4F0E0EF54FB4F7E
:103A5000808190E008958FEF9FEF08959091B004DA
:103A60008091AF04981750F4E92FF0E0EF54FB4F2A
:103A7000208130E09F5F9093B00402C02FEF3FEFB2
:103A8000C90108958091AF0490E02091B004821B99
:103A900091090895CF92DF92EF92FF920F931F93B7
:103AA000CF93DF937C01262F972F8A018091F80412
:103AB000882391F0C62FD72F6E01C40ED51ECC15CA
:103AC000DD0569F06991D701ED91FC910190F081DC
:103AD000E02DC7011995F3CF642F822F87DFC8012E
:103AE000DF91CF911F910F91FF90EF90DF90CF90DA
:103AF0000895CF93DF931F92CDB7DEB769832091EE
:103B0000F8042223D1F020911B05203240F021E05F
:103B100030E0FC013383228380E090E014C0809188
:103B2000F904E82FF0E0E650FB4F998190838F5F16
:103B30008093F90480931B0504C061E0CE010196D7
:103B400055DF81E090E00F90DF91CF9108952F92A3
:103B50003F924F925F926F927F928F929F92AF921D
:103B6000BF92CF92DF92EF92FF920F931F93CF936A
:103B7000DF9300D01F92CDB7DEB71C01FC01C384D8
:103B8000D484E584F68487819085A185B285C81A9E
:103B9000D90AEA0AFB0A67857089818992899B01A3
:103BA000AC010E942D5C4B015C01F1016789708DB5
:103BB000818D928D9B01AC010E94C5559B01AC018A
:103BC000C501B4010E948B560E94F356C114D10462
:103BD000E104F104A1F462307105810591050CF056
:103BE0007CC0F101138E148E158E168E1786108AE6
:103BF000118A128A13A214A215A216A2FDC0F10105
:103C000003A114A125A136A11C141D041E041F0428
:103C100004F510161106120613064CF46C157D05FA
:103C20008E059F055CF52681211157C027C001151F
:103C300011052105310509F450C06C157D058E056F
:103C40009F050CF04AC0F1018681813009F045C022
:103C500039C01016110612061306FCF400271127AE
:103C600098010C191D092E093F0960177107820779
:103C7000930724F4F1012681213079F59B01AC01F1
:103C800088279927DC01821B930BA40BB50BF1014C
:103C900083A394A3A5A3B6A320C0011511052105F4
:103CA0003105D9F08824992454018C189D08AE0858
:103CB000BF08681579058A059B057CF4F1018681AA
:103CC00081110BC030952095109501951F4F2F4FF6
:103CD0003F4F03A314A325A336A3F10183A094A00F
:103CE000A5A0B6A081149104A104B10491F487A108
:103CF00090A5A1A5B2A583A794A7A5A7B6A781E083
:103D00001C141D041E041F040CF080E0F1018683C6
:103D10003FC0F101C3A4D4A4E5A4F6A4A701960171
:103D2000C701B6010E94C5552B013C01C501B40174
:103D30000E94CE5B20E030E040E850E40E942D5C21
:103D400020E030E040E85FE30E94C5559B01AC01F4
:103D5000C301B2010E948B569B01AC01C701B601A1
:103D60000E94C4557B018C01F10167A470A8C1A811
:103D7000D2A89301A6010E949C57181614F0730153
:103D80008601A701B801F10143A754A765A776A74B
:103D9000FFEF8F1A9F0AAF0ABF0AF10183A294A214
:103DA000A5A2B6A223A534A545A556A5CA01B90169
:103DB00029833A834B835C830E94F856F101638F19
:103DC000748F858F968F29813A814B815C8160E069
:103DD00074E284E799E40E948B56F1016787708B47
:103DE000818B928B2681211107C0DC01CB01B05859
:103DF0008787908BA18BB28B0F900F900F900F90B5
:103E0000DF91CF911F910F91FF90EF90DF90CF90B6
:103E1000BF90AF909F908F907F906F905F904F90EA
:103E20003F902F900895CF92DF92EF92FF920F93E1
:103E30001F93CF93DF936C018B017A01EC01C45E79
:103E4000DA4F888187FF04C0FB011182108224C0F1
:103E50008CE08C9D90018D9D300D11248881A901ED
:103E6000480F511D87FD5A958091280890E048170A
:103E7000590794F48881A901480F511D87FD5A956F
:103E8000CA01FA01EE0FFF1F8E0F9F1FFC01E856BB
:103E9000F84F808187FD19C088818F5F88838CE00F
:103EA0008C9D90018D9D300D11248881A901480FB2
:103EB000511D87FD5A958091280890E048175907B1
:103EC000BCF488818C3044F113C08881280F311DE7
:103ED00087FD3A95F901EE0FFF1F2E0F3F1FF901E5
:103EE000E856F84F808160E08F770E94613CD4CF24
:103EF000F80180819181049680349C4918F480E413
:103F00009CE904C0F801808191810496F7019183B6
:103F100080838FEF888345C0F8014081518188817B
:103F2000B901680F711D87FD7A95CB01FB01EE0F7A
:103F3000FF1F8E0F9F1FFC01E856F84F8181928171
:103F4000840F951FF701918380838881A901480F11
:103F5000511D87FD5A95CA01FA01EE0FFF1F8E0F02
:103F60009F1FFC01E856F84F808187FF1AC08881A7
:103F7000280F311D87FD3A95F901EE0FFF1F2E0F17
:103F80003F1FF901E856F84F808161E08F77DF919C
:103F9000CF911F910F91FF90EF90DF90CF900C94F5
:103FA000613CDF91CF911F910F91FF90EF90DF90D7
:103FB000CF900895CF93DF93EC018E81813011F47F
:103FC00060E001C061E08A810E94613C61E08B8118
:103FD0000E94613C60E08B81DF91CF910C94613C49
:103FE0002FB7F8946091A8057091A9058091AA0552
:103FF0009091AB052FBF08951F920F920FB60F92AD
:1040000011242F933F938F939F93AF93BF938091EE
:10401000A8059091A905A091AA05B091AB05309192
:10402000A70523E0230F2D3720F40196A11DB11D14
:1040300005C026E8230F0296A11DB11D2093A705F8
:104040008093A8059093A905A093AA05B093AB050A
:104050008091190D90911A0DA0911B0DB0911C0D1E
:104060000196A11DB11D8093190D90931A0DA09377
:104070001B0DB0931C0DBF91AF919F918F913F91FC
:104080002F910F900FBE0F901F9018951F920F92B7
:104090000FB60F9211240BB60F922F933F934F93AD
:1040A0005F936F937F938F939F93AF93BF93EF93A0
:1040B000FF93E0911502F09116021995FF91EF918F
:1040C000BF91AF919F918F917F916F915F914F9130
:1040D0003F912F910F900BBE0F900FBE0F901F902E
:1040E00018951F920F920FB60F9211240BB60F92D4
:1040F0002F933F934F935F936F937F938F939F93F0
:10410000AF93BF93EF93FF93E0911302F0911402EA
:104110001995FF91EF91BF91AF919F918F917F91F1
:104120006F915F914F913F912F910F900BBE0F9028
:104130000FBE0F901F9018951F920F920FB60F92FF
:1041400011240BB60F922F933F934F935F936F936E
:104150007F938F939F93AF93BF93EF93FF93E091E0
:104160000902F0910A021995FF91EF91BF91AF9169
:104170009F918F917F916F915F914F913F912F917F
:104180000F900BBE0F900FBE0F901F9018951F92AF
:104190000F920FB60F9211240BB60F922F933F93ED
:1041A0004F935F936F937F938F939F93AF93BF933F
:1041B000EF93FF93E0910702F09108021995FF91A8
:1041C000EF91BF91AF919F918F917F916F915F918F
:1041D0004F913F912F910F900BBE0F900FBE0F90FC
:1041E0001F9018951F920F920FB60F9211240BB6C5
:1041F0000F922F933F934F935F936F937F938F9380
:104200009F93AF93BF93EF93FF93E0911102F091CF
:1042100012021995FF91EF91BF91AF919F918F91EC
:104220007F916F915F914F913F912F910F900BBEB6
:104230000F900FBE0F901F9018951F920F920FB600
:104240000F9211240BB60F922F933F934F935F93CE
:104250006F937F938F939F93AF93BF93EF93FF934E
:10426000E0910F02F09110021995FF91EF91BF912B
:10427000AF919F918F917F916F915F914F913F91FE
:104280002F910F900BBE0F900FBE0F901F9018959F
:104290001F920F920FB60F9211240BB60F922F930D
:1042A0003F934F935F936F937F938F939F93AF93BE
:1042B000BF93EF93FF93E0910D02F0910E021995D9
:1042C000FF91EF91BF91AF919F918F917F916F91EE
:1042D0005F914F913F912F910F900BBE0F900FBEAA
:1042E0000F901F9018951F920F920FB60F921124E6
:1042F0000BB60F922F933F934F935F936F937F93E0
:104300008F939F93AF93BF93EF93FF93E0910B0233
:10431000F0910C021995FF91EF91BF91AF919F9190
:104320008F917F916F915F914F913F912F910F905E
:104330000BBE0F900FBE0F901F9018951F920F92FB
:104340000FB60F9211240BB60F922F933F934F93FA
:104350005F936F937F938F939F93AF93BF93EF93ED
:10436000FF93E091AD04F091AE04309709F451C091
:10437000968DA685B785858591FF04C09C9189237C
:1043800029F447C09C91892309F043C0A389B489CB
:104390009C918589809589238C938689978901973B
:1043A000F1F7608D718DA685B785558538E020E0E1
:1043B000CB010197F1F7822F90E095958795282FF3
:1043C0004C91452309F02068315091F7868D81FD8D
:1043D00020958091AC0490E001968F7399273091DD
:1043E000AB04381749F0A091AC04B0E0A959BA4F1A
:1043F0002C938093AC0403C0868D8160868F828D60
:10440000938D0197F1F7A389B4899C918589892BB4
:104410008C93FF91EF91BF91AF919F918F917F917D
:104420006F915F914F913F912F910F900BBE0F9025
:104430000FBE0F901F901895E091AD04F091AE045F
:10444000E817F90769F4A389B4899C918589809557
:1044500089238C931092AE041092AD0481E00895EC
:1044600080E008951F920F920FB60F9211240BB6A1
:104470000F922F933F934F935F936F937F938F93FD
:104480009F93AF93BF93EF93FF938091B900887F81
:10449000803609F49CC068F5883209F45BC090F45A
:1044A000803109F454C038F4882309F4F6C0883008
:1044B00009F44DC0F5C0883109F44CC0803209F4CC
:1044C0005DC0EEC0803409F468C048F4803309F45C
:1044D00055C0883309F0E4C08093F504D8C0803516
:1044E00009F44FC0883509F45DC0883409F0D8C09C
:1044F000D6C0883909F4C7C0A8F4883709F467C062
:1045000038F4883609F463C0803709F460C0C8C045
:10451000883809F4B8C0803909F45FC0803809F0E0
:10452000BFC05BC0803B09F486C038F4803A09F410
:1045300066C0883A09F47FC0B3C0803C09F4A7C0C4
:10454000883C09F4A4C0883B09F48AC0A9C08091C2
:10455000D20410C09091F4048091F304981770F580
:10456000E091F40481E08E0F8093F404F0E0ED52CA
:10457000FB4F80818093BB0085EC86C08093F5045F
:104580008EC0E091F40481E08E0F8093F40480915A
:10459000BB00F0E0ED52FB4F80839091F4048091DA
:1045A000F3046EC0E091F40481E08E0F8093F40474
:1045B0008091BB00F0E0ED52FB4F80838091F604C8
:1045C00081116DC081E08093D10484EA61C083E0F1
:1045D0008093F70410926605CFCF809166058032F4
:1045E00008F051C0E091660581E08E0F809366056A
:1045F0008091BB00F0E0EA5BFA4F8083BDCF85EC91
:104600008093BC001092F70480916605803230F4EC
:10461000E0916605F0E0EA5BFA4F10826091660572
:1046200070E0E0914405F091450586E495E0199528
:104630001092660535C084E08093F704109243051C
:1046400010924205E0914005F09141051995809145
:104650004205811105C081E080934205109220053A
:10466000E091430581E08E0F80934305F0E0E05E2A
:10467000FA4F80818093BB00909143058091420561
:10468000981708F479CF85E88093BC0009C085ECC1
:104690008093BC001092F70403C01092F5049CD9DB
:1046A000FF91EF91BF91AF919F918F917F916F910A
:1046B0005F914F913F912F910F900BBE0F900FBEC6
:1046C0000F901F901895CF92DF92EF92FF92CF93A9
:1046D000DF93EC01603282E078070CF03DC077FD9B
:1046E00006C0653B71052CF064EB70E002C060E031
:1046F00070E0898128E830E06901C81AD10887FD97
:10470000D394CC0CDD1CCC0CDD1C0D2C000CEE0865
:10471000FF088A8128E532E0281B310987FD33959F
:10472000220F331F220F331FC901330FAA0BBB0BFC
:104730009C01AD012C193D094E095F09DB010E9466
:104740001D5D24EB30E040E050E00E94F75CC20EBB
:10475000D31EE41EF51EB6018881803380F5998151
:1047600048E850E0491B510997FD5395440F551FE8
:10477000440F551F6417750784F09A8128E532E0CD
:10478000291B310997FD3395220F331F220F331F49
:10479000AB01261737070CF4A90142505109440F09
:1047A000551F2FB7F89490E0FC01EE0FFF1F8E0FFE
:1047B0009F1FFC01E856F84F528341832FBFDF91C2
:1047C000CF91FF90EF90DF90CF9008951F93CF93FC
:1047D000DF93EC01162F8881803308F04EC061E032
:1047E000812F0E94903C8881E82FF0E09F01220FEA
:1047F000331FE20FF31FE856F84F1F779081907830
:10480000192B108319821A826CE00E9483559CE058
:10481000899FB001112440E050E09A01260F371F14
:10482000F901EE0FFF1F2E0F3F1FF901E856F84F59
:10483000908197FD16C04F5F5F4F4C30510569F76F
:10484000813001F51092800082E080938100109207
:10485000850010928400B19A80916F0082608093ED
:104860006F00E881F0E0CF01880F991FE80FF91F72
:10487000E856F84F8081806880838881DF91CF91EE
:104880001F910895823061F41092900080939100FE
:10489000109295001092940088BB80937100E1CF34
:1048A000833069F41092A00082E08093A1001092FE
:1048B000A5001092A40089BB80937200D2CF811111
:1048C000D0CF1092200182E0809321011092250127
:1048D000109224018ABB80937300C3CF1F920F9262
:1048E0000FB60F9211240BB60F922F933F934F9355
:1048F0005F936F937F938F939F93AF93BF93EF9348
:10490000FF9348E251E064E271E080E090E08BDAEE
:10491000FF91EF91BF91AF919F918F917F916F9197
:104920005F914F913F912F910F900BBE0F900FBE53
:104930000F901F9018951F920F920FB60F9211248F
:104940000BB60F922F933F934F935F936F937F9389
:104950008F939F93AF93BF93EF93FF9348EA50E0F9
:1049600064EA70E083E090E05EDAFF91EF91BF913E
:10497000AF919F918F917F916F915F914F913F91F7
:104980002F910F900BBE0F900FBE0F901F90189598
:104990001F920F920FB60F9211240BB60F922F9306
:1049A0003F934F935F936F937F938F939F93AF93B7
:1049B000BF93EF93FF9348E950E064E970E082E031
:1049C00090E031DAFF91EF91BF91AF919F918F917C
:1049D0007F916F915F914F913F912F910F900BBEFF
:1049E0000F900FBE0F901F9018951F920F920FB649
:1049F0000F9211240BB60F922F933F934F935F9317
:104A00006F937F938F939F93AF93BF93EF93FF9396
:104A100048E850E064E870E081E090E004DAFF915B
:104A2000EF91BF91AF919F918F917F916F915F9126
:104A30004F913F912F910F900BBE0F900FBE0F9093
:104A40001F9018950F931F93CF93DF93EC014B8525
:104A50005C856D857E858F819885A985BA85481787
:104A600059076A077B0711F480E046C08417950751
:104A7000A607B7071CF481E08E8301C01E828B8DD0
:104A80009C8DAD8DBE8D892B8A2B8B2B69F30E945B
:104A9000BD3D0F8D18A129A13AA1DC01CB01801BDE
:104AA000910BA20BB30B0B8D1C8D2D8D3E8D08171A
:104AB00019072A073B07C0F62E818F819885A985A3
:104AC000BA85213021F40196A11DB11D03C00197C3
:104AD000A109B1098F839887A987BA87E881F981ED
:104AE0000190F081E02DCE0119950E94BD3D6F8FA0
:104AF00078A389A39AA381E0DF91CF911F910F91B1
:104B000008954F925F926F927F92AF92BF92CF9231
:104B1000DF92EF92FF920F931F93CF93DF93EC01FD
:104B20005A018B012F85388949895A89B501C801F5
:104B30000E94C85B882309F44CC0CB88DC88ED88D0
:104B4000FE882601370177FA709477F87094A301F4
:104B50009201B501C8010E94C85B87FD0BC0A70187
:104B60009601B501C8010E949C5718162CF06501EA
:104B7000780102C07301620120E030E0A901C701A1
:104B8000B6010E94C85B811105C01B8E1C8E1D8E54
:104B90001E8E1BC0A701960160E074E284E799E4D1
:104BA0000E948B569F770E94F8566B8F7C8F8D8F5B
:104BB0009E8F11E020E030E0A901C701B6010E94FC
:104BC0009C5718160CF010E01E83CF86D88AE98A0D
:104BD000FA8ADF91CF911F910F91FF90EF90DF90B4
:104BE000CF90BF90AF907F906F905F904F9008955F
:104BF000CF92DF92EF92FF92CF93DF93EC016A01A5
:104C00007B019A01AB016B897C898D899E890E9409
:104C1000C85B882309F440C0CB8ADC8AED8AFE8A0F
:104C2000A701960160E074E284E799E40E948B5644
:104C30006FA778AB89AB9AAB8BA19CA1ADA1BEA1AC
:104C4000181619061A061B063CF56F85788989899E
:104C50009A899B01AC010E942D5C6B017C016F89DC
:104C6000788D898D9A8D9B01AC010E94C5559B0161
:104C7000AC01C701B6010E948B560E94F3566BA38C
:104C80007CA38DA39EA3CE01DF91CF91FF90EF90E7
:104C9000DF90CF900C94A71DDF91CF91FF90EF9004
:104CA000DF90CF9008950F931F93FC010385148527
:104CB00025853685041715072607370741F04387F2
:104CC0005487658776871F910F910C94A71D1F91BC
:104CD0000F910895CF93DF93EC0102960E94ED337C
:104CE00083EB92E0998388831F82188619861A863F
:104CF0001B861C861D861E861F8A188E198E1A8E8C
:104D00000E94BD3D6F8F78A389A39AA31F86188A3E
:104D1000198A1A8A81E08E831F82188619861A865C
:104D20001B861C861D861E861BA21CA21DA21EA2FF
:104D30001B8E1C8E1D8E1E8E61E08A810E94903C0F
:104D400061E08B81DF91CF910C94903CEF92FF92C8
:104D50000F931F93CF93DF93FC016F3F710519F001
:104D600014F06FEF70E0EB0161307F4F14F4C1E09D
:104D7000DFEF808591858C179D0791F1D187C087E2
:104D8000D583C483DF01A059BF4FCF018F589F4FF8
:104D90007C018F0101591F4FD7FF0EC060E08C913D
:104DA0000E94613C61E0F70180810E94613C6627BE
:104DB00077276C1B7D0B0AC061E08C910E94613CDF
:104DC00060E0F70180810E94613CBE01F8018081B2
:104DD000DF91CF911F910F91FF90EF900C94CC3CFD
:104DE000DF91CF911F910F91FF90EF9008952F9237
:104DF0003F924F925F926F927F928F929F92AF926B
:104E0000BF92CF92DF92EF92FF920F931F93CF93B7
:104E1000DF93CDB7DEB72A970FB6F894DEBF0FBE8B
:104E2000CDBF9A878987DC0196966D917D918D9192
:104E30009C91999712960D911C91139756962D91CE
:104E40003D914D915C9159972D833E834F835887B7
:104E50000E94CE5B6B017C01B801110F880B990B8E
:104E60000E94CE5B2D813E814F8158850E942D5C32
:104E70009B01AC01C701B6010E948B5620E030E0D7
:104E800044EB53E40E942D5C0E94F356E985FA85B9
:104E9000628F738F848F958FA3D809851A850A58DE
:104EA0001F4FD801CD90DD90ED90FC90DC01CB013F
:104EB0008C199D09AE09BF094597A105B10508F4F4
:104EC00065C08ED86B017C01E985FA8586A097A024
:104ED000A0A4B1A482A193A1A4A1B5A122803380F2
:104EE00026893789408D518D29833A834B835C8392
:104EF000A5019401281B390B4A0B5B0BCA01B901B0
:104F00000E94CE5B2B013C01D8018D919C91C81A67
:104F1000D90AB60180E090E00E94CC5B9B01AC0115
:104F200060E070E08AE794E40E948B569B01AC013C
:104F3000C301B2010E942D5C20E030E040E752E462
:104F40000E942D5C6B017C01B101330C880B990B25
:104F50000E94CE5B29813A814B815C810E942D5C4D
:104F60009B01AC01C701B6010E948B56E985FA8509
:104F7000628773878487958782A293A2A4A2B5A231
:104F80002FD8F8016083718382839383A985BA85C2
:104F90009C90B1E09B1276C323D809851A850658E8
:104FA0001F4FF801C080D180E280F380DC01CB018B
:104FB0008C199D09AE09BF098997A105B10508F4AF
:104FC00032C40ED8D8016D937D938D939C93139723
:104FD000E985FA858181811179C2868D978DA0A19D
:104FE000B1A1028D138D248D358DBC01CD01601BC7
:104FF000710B820B930B0E94CE5B6B017C01A98429
:10500000BA84FAE6AF0EB11CD5018C9109851A85D8
:105010000C581F4F8111B4C1E985FA85E559FF4F3E
:10502000808120E030E0A901882339F0C701B60172
:105030000E94C85B87FF33C006C0C701B6010E944B
:105040009C57181664F5E985FA85228533854485D1
:105050005585EE5AFF4F60817181828193810E9454
:105060002D5CDC01CB01B058E985FA85E65AFF4F8B
:1050700080839183A283B3836081718182819381D4
:105080000E94F3569B01D8016D937C93F5019082A9
:10509000A985BA8515967C936E931497EEC220E08D
:1050A00030E0A901C701B6010E949C5726013701D3
:1050B000181624F077FA709477F87094E985FA85D9
:1050C000668577858089918920E030E040EC50E466
:1050D0000E942D5C9B01AC01C301B2010E949C5750
:1050E00087FFC1C320E030E0A901C701B6010E94DB
:1050F0009C5718165CF420E030E040E251E4C70110
:10510000B6010E949C5718165CF03AC120E030E0CE
:1051100040E251ECC701B6010E94C85B87FF30C175
:10512000E985FA85468457846088718820E030E0FC
:1051300040E251E4C701B6010E94C4554B015C0135
:1051400020E030E040EC50E4C301B2010E942D5C4D
:10515000A50194010E942D5C20E030E0A9010E948D
:105160009C5718169CF4A985BA851E966D917D9161
:105170008D919C91519720E030E040EC50E40E94EA
:105180002D5CA50194010E942D5C11C0E985FA8572
:10519000668577858089918920E030E040EC50E495
:1051A0000E942D5CA50194010E942D5C90580E94E4
:1051B0003C5820E030E040EC50E40E948B562B013C
:1051C0003C01A985BA851A968D909D90AD90BC90B2
:1051D0001D9720E030E0A901C701B6010E949C574D
:1051E000A701960118160CF05058E985FA85EE5A79
:1051F000FF4F80819181A281B38189839A83AB83A0
:10520000BC83C701B6010E948B569B01AC01C30150
:10521000B2010E942D5C9B01AC01C501B4010E944A
:10522000C4559B01AC0169817A818B819C810E946C
:105230002D5C2B013C0120E030E040EA51EC0E9463
:10524000C85B87FD11C020E030E040EA51E4C301B3
:10525000B2010E949C5718166CF4412C512C40EA64
:10526000642E41E4742E06C0412C512C50EA652E68
:1052700051EC752ED8016D917C91072E000C880B96
:10528000990B0E94CE5BA984BA84BAE5AB0EB11C1F
:10529000F501608371838283938360817181828150
:1052A0009381A30192010E94C455D5016D937D9312
:1052B0008D939C93139720E030E0A901C701B601BC
:1052C0000E949C5787FD24C0F50160817181828115
:1052D000938120E030E048EC51E40E94C85B87FDF8
:1052E00012C0D5016D917D918D919C9120E030E0AF
:1052F0004FE753E40E949C57181624F580E090E095
:10530000AFE7B3E42EC080E090E0A8ECB1E429C0A0
:10531000D5016D917D918D919C9120E030E04FE71A
:1053200053EC0E94C85B87FD13C0F5016081718159
:105330008281938120E030E048EC51EC0E949C5740
:1053400018165CF0F50180819181A281B38109C0BA
:1053500080E090E0AFE7B3EC04C080E090E0A8EC20
:10536000B1ECF50180839183A283B3836081718165
:10537000828193810E94F356F80171836083A2C0F9
:1053800081E0D5018C93E985FA85E258FF4F0190C1
:10539000F081E02D309769F0A985BA85A459BF4FF7
:1053A0006C9170E0A985BA85AD58BF4F8C9190E0A3
:1053B0001995E985FA852285338544855585EE5A08
:1053C000FF4F60817181828193810E942D5C4B012E
:1053D0005C0120E030E040EA51EC0E94C85B87FDB0
:1053E00011C020E030E040EA51E4C501B4010E9460
:1053F0009C5718166CF4812C912C20EAA22E21E4E3
:10540000B22E06C0812C912C30EAA32E31ECB32EA3
:10541000E985FA85E65BFF4F208131814281538126
:10542000C701B6010E942D5CE984FA84FAE5EF0E0B
:10543000F11CD7016D937D938D939C9313976D9180
:105440007D918D919C91A50194010E94C455F70115
:105450006083718382839383608171818281938170
:1054600020E030E04FE753EC0E94C85B87FD13C09B
:10547000D7016D917D918D919C9120E030E04FE7B7
:1054800053E40E949C5718165CF0F70180819181CB
:10549000A281B38109C080E090E0AFE7B3EC04C023
:1054A00080E090E0AFE7B3E4F70180839183A283CB
:1054B000B38360817181828193810E94F356D80108
:1054C0006D937C93F80120813181D7C0A985BA857D
:1054D00011968C911197813009F0CDC01A966D917B
:1054E0007D918D919C911D971E962D913D914D9191
:1054F0005C9151979A96CD90DD90ED90FC909D97A0
:105500000E94C4559B01AC01C701B6010E942D5CED
:105510006B017C0120E030E048EC51EC0E94C85B5C
:1055200087FD11C020E030E048EC51E4C701B6012E
:105530000E949C5718166CF4C12CD12C88ECE82ED4
:1055400081E4F82E06C0C12CD12C98ECE92E91EC08
:10555000F92E09851A850C581F4FF8016081718159
:10556000072E000C880B990B0E94CE5BA985BA858B
:10557000DA966D937D938D939C93DD97DA966D917A
:105580007D918D919C91DD97A70196010E94C45554
:10559000E985FA8562AF73AF84AF95AF5F01FAE634
:1055A000AF0EB11CD5018C91E985FA85882329F0CD
:1055B00012AE13AE14AE15AE1FC066857785808916
:1055C000918920E030E0A9010E94C85B811114C0DC
:1055D00020E030E0A901C701B6010E949C571816CF
:1055E0000CF0FBC120E030E040E751E4C701B60118
:1055F0000E94C85B87FDFCC1A985BA85DA966D91CA
:105600007D918D919C91DD9720E030E04FE753EC48
:105610000E94C85B87FD15C0E985FA8562AD73AD50
:1056200084AD95AD20E030E04FE753E40E949C57F5
:10563000181664F0E985FA8582AD93ADA4ADB5ADD9
:1056400009C080E090E0AFE7B3EC04C080E090E0F8
:10565000AFE7B3E4E985FA8582AF93AFA4AFB5AF06
:1056600062AD73AD84AD95AD0E94F3569B01D80138
:105670006D937C9302C020E030E0E985FA853583A4
:105680002483D1C0E985FA858081823009F0C3C1C5
:105690000E94F01F09851A8506581F4FD801CD902A
:1056A000DD90ED90FC90DC01CB018C199D09AE09D9
:1056B000BF098997A105B10508F4B5C00E94F01F84
:1056C000F8016083718382839383A985BA851496D8
:1056D0006D917C91159716960D911C911797072E39
:1056E000000C880B990B0E94CE5B2DEC3CEC4CE43B
:1056F0005FE30E942D5C6B017C01B801110F880BE8
:10570000990B0E94CE5B2DEC3CEC4CE45EE30E94D6
:105710002D5C9B01AC01C701B6010E94C55520E07C
:1057200030E0A9010E949C5787FD2DC0E985FA85CC
:105730006481758106811781072E000C880B990BF7
:105740000E94CE5B2DEC3CEC4CE45FE30E942D5CB0
:105750006B017C01B801110F880B990B0E94CE5B85
:105760002DEC3CEC4CE45EE30E942D5C9B01AC0113
:10577000C701B6010E94C55520E030E040E05FE37C
:105780000E94C55530C0A985BA8514966D917C914B
:10579000159716960D911C911797072E000C880BE4
:1057A000990B0E94CE5B2DEC3CEC4CE45FE30E9435
:1057B0002D5C6B017C01B801110F880B990B0E94C5
:1057C000CE5B2DEC3CEC4CE45EE30E942D5C9B0137
:1057D000AC01C701B6010E94C55520E030E040E0B1
:1057E0005FE30E94C4550E94F356E985FA857583EC
:1057F000648384819581181619061CF4848195812F
:1058000009C0A985BA8514968D919C91159791959B
:10581000819591090B973CF4E985FA8586819781FA
:10582000892B09F4F1C0A985BA8514966D917C91F4
:105830001597CD012A960FB6F894DEBF0FBECDBFE7
:10584000DF91CF911F910F91FF90EF90DF90CF905C
:10585000BF90AF909F908F907F906F905F904F9090
:105860003F902F9073CAA985BA851A962D913D91C4
:105870004D915C911D9729833A834B835C831E96DF
:105880008D909D90AD90BC90519720E030E0A901A3
:10589000C701B6010E949C57181624F0A701960173
:1058A000505802C0A7019601A985BA859A964D90D5
:1058B0005D906D907C909D97C701B6010E948B56BC
:1058C0009B01AC01C501B4010E942D5C9B01AC01A0
:1058D00069817A818B819C810E94C4559B01AC01B6
:1058E000C301B2010E942D5C6B017C0120E030E01D
:1058F00048EC51EC0E94C85B87FD11C020E030E00D
:1059000048EC51E4C701B6010E949C5718166CF48C
:10591000C12CD12C68ECE62E61E4F62E06C0C12C19
:10592000D12C78ECE72E71ECF72EF80160817181B3
:10593000072E000C880B990B0E94CE5BA985BA85B7
:10594000DA966D937D938D939C93DD97DA966D91A6
:105950007D918D919C91DD97A70196010E94C45580
:10596000E985FA8562AF73AF84AF95AF62AD73AD71
:1059700084AD95AD20E030E04FE753EC0E94C85B6A
:1059800087FD17C0A985BA85DA966D917D918D91B5
:105990009C91DD9720E030E04FE753E40E949C5754
:1059A000181664F0E985FA8582AD93ADA4ADB5AD66
:1059B00009C080E090E0AFE7B3EC04C080E090E085
:1059C000AFE7B3E4E985FA8582AF93AFA4AFB5AF93
:1059D00062AD73AD84AD95AD70CD20E030E040E7B1
:1059E00051ECC701B6010E949C5718160CF004CE6A
:1059F000A985BA85DA961D921D921D921C92DD979B
:105A000081E0F5018083F8CDA985BA8515961C92B1
:105A10001E92149708CF2A960FB6F894DEBF0FBED9
:105A2000CDBFDF91CF911F910F91FF90EF90DF904D
:105A3000CF90BF90AF909F908F907F906F905F902E
:105A40004F903F902F9008958F929F92AF92BF9268
:105A5000CF92DF92EF92FF921F93CF93DF93EC01EF
:105A6000FC01ED58FF4F608315E0169FF0011124F3
:105A7000E75AFD4F80817E019DE6E90EF11CD701BA
:105A80008C934E01BEE68B0E911C9181D4019C93A8
:105A9000119692819C935E01B0E7AB0EB11C93818D
:105AA000D5019C936E01B1E7CB0ED11C9481F60118
:105AB000908362E00E94903C62E0D4018C910E944D
:105AC000903C62E0F50180810E94903C62E0D6014A
:105AD0008C910E94903C1EA21FA218A619A684EFCA
